{
  "_format": "hh-sol-artifact-1",
  "contractName": "NFT",
  "sourceName": "src/contracts/NFT.sol",
  "abi": [
    {
      "inputs": [
        {
          "internalType": "uint16",
          "name": "maxSupply_",
          "type": "uint16"
        },
        {
          "components": [
            {
              "internalType": "address",
              "name": "OWNER",
              "type": "address"
            },
            {
              "internalType": "address",
              "name": "PLATFORM",
              "type": "address"
            },
            {
              "internalType": "address",
              "name": "DECENTRAL_TITAN",
              "type": "address"
            },
            {
              "internalType": "address",
              "name": "BUY_BACK_TREASURY_CONTRACT",
              "type": "address"
            },
            {
              "internalType": "address",
              "name": "WHITE_LIST_VERIFIER",
              "type": "address"
            },
            {
              "internalType": "address",
              "name": "ROYALTY_DISTRIBUTOR_CONTRACT",
              "type": "address"
            }
          ],
          "internalType": "struct NFT.ContractAddresses",
          "name": "addresses_",
          "type": "tuple"
        },
        {
          "internalType": "string",
          "name": "godCID_",
          "type": "string"
        },
        {
          "internalType": "string",
          "name": "notRevealedArtCID_",
          "type": "string"
        },
        {
          "components": [
            {
              "internalType": "uint256",
              "name": "MINT_PRICE_IN_WEI",
              "type": "uint256"
            },
            {
              "internalType": "uint16",
              "name": "MAX_MINT_PER_ADDRESS",
              "type": "uint16"
            },
            {
              "internalType": "uint256",
              "name": "AUCTION_START_TIME",
              "type": "uint256"
            },
            {
              "internalType": "uint256",
              "name": "AUCTION_DURATION",
              "type": "uint256"
            },
            {
              "internalType": "uint8",
              "name": "NUMBER_OF_TOKEN_FOR_AUCTION",
              "type": "uint8"
            },
            {
              "internalType": "uint8",
              "name": "ROYALTY_FEE_PERCENT",
              "type": "uint8"
            }
          ],
          "internalType": "struct NFT.ContactMintConfig",
          "name": "mintConfig_",
          "type": "tuple"
        },
        {
          "internalType": "uint256",
          "name": "upgradeRequestFeeInWei_",
          "type": "uint256"
        }
      ],
      "stateMutability": "nonpayable",
      "type": "constructor"
    },
    {
      "inputs": [],
      "name": "ApprovalCallerNotOwnerNorApproved",
      "type": "error"
    },
    {
      "inputs": [],
      "name": "ApprovalQueryForNonexistentToken",
      "type": "error"
    },
    {
      "inputs": [],
      "name": "ApprovalToCurrentOwner",
      "type": "error"
    },
    {
      "inputs": [],
      "name": "ApproveToCaller",
      "type": "error"
    },
    {
      "inputs": [],
      "name": "AuxQueryForZeroAddress",
      "type": "error"
    },
    {
      "inputs": [],
      "name": "BalanceQueryForZeroAddress",
      "type": "error"
    },
    {
      "inputs": [],
      "name": "MintToZeroAddress",
      "type": "error"
    },
    {
      "inputs": [],
      "name": "MintZeroQuantity",
      "type": "error"
    },
    {
      "inputs": [],
      "name": "MintedQueryForZeroAddress",
      "type": "error"
    },
    {
      "inputs": [],
      "name": "OwnerQueryForNonexistentToken",
      "type": "error"
    },
    {
      "inputs": [],
      "name": "TransferCallerNotOwnerNorApproved",
      "type": "error"
    },
    {
      "inputs": [],
      "name": "TransferFromIncorrectOwner",
      "type": "error"
    },
    {
      "inputs": [],
      "name": "TransferToNonERC721ReceiverImplementer",
      "type": "error"
    },
    {
      "inputs": [],
      "name": "TransferToZeroAddress",
      "type": "error"
    },
    {
      "anonymous": false,
      "inputs": [
        {
          "indexed": true,
          "internalType": "address",
          "name": "owner",
          "type": "address"
        },
        {
          "indexed": true,
          "internalType": "address",
          "name": "approved",
          "type": "address"
        },
        {
          "indexed": true,
          "internalType": "uint256",
          "name": "tokenId",
          "type": "uint256"
        }
      ],
      "name": "Approval",
      "type": "event"
    },
    {
      "anonymous": false,
      "inputs": [
        {
          "indexed": true,
          "internalType": "address",
          "name": "owner",
          "type": "address"
        },
        {
          "indexed": true,
          "internalType": "address",
          "name": "operator",
          "type": "address"
        },
        {
          "indexed": false,
          "internalType": "bool",
          "name": "approved",
          "type": "bool"
        }
      ],
      "name": "ApprovalForAll",
      "type": "event"
    },
    {
      "anonymous": false,
      "inputs": [
        {
          "indexed": true,
          "internalType": "address",
          "name": "previousOwner",
          "type": "address"
        },
        {
          "indexed": true,
          "internalType": "address",
          "name": "newOwner",
          "type": "address"
        }
      ],
      "name": "OwnershipTransferred",
      "type": "event"
    },
    {
      "anonymous": false,
      "inputs": [
        {
          "indexed": true,
          "internalType": "address",
          "name": "from",
          "type": "address"
        },
        {
          "indexed": true,
          "internalType": "address",
          "name": "to",
          "type": "address"
        },
        {
          "indexed": true,
          "internalType": "uint256",
          "name": "tokenId",
          "type": "uint256"
        }
      ],
      "name": "Transfer",
      "type": "event"
    },
    {
      "anonymous": false,
      "inputs": [
        {
          "indexed": false,
          "internalType": "uint16",
          "name": "_token",
          "type": "uint16"
        },
        {
          "indexed": false,
          "internalType": "uint256",
          "name": "_value",
          "type": "uint256"
        }
      ],
      "name": "UpgradeRequestPayment",
      "type": "event"
    },
    {
      "inputs": [],
      "name": "ADDRESS",
      "outputs": [
        {
          "internalType": "address",
          "name": "OWNER",
          "type": "address"
        },
        {
          "internalType": "address",
          "name": "PLATFORM",
          "type": "address"
        },
        {
          "internalType": "address",
          "name": "DECENTRAL_TITAN",
          "type": "address"
        },
        {
          "internalType": "address",
          "name": "BUY_BACK_TREASURY_CONTRACT",
          "type": "address"
        },
        {
          "internalType": "address",
          "name": "WHITE_LIST_VERIFIER",
          "type": "address"
        },
        {
          "internalType": "address",
          "name": "ROYALTY_DISTRIBUTOR_CONTRACT",
          "type": "address"
        }
      ],
      "stateMutability": "view",
      "type": "function"
    },
    {
      "inputs": [
        {
          "internalType": "uint8",
          "name": "",
          "type": "uint8"
        }
      ],
      "name": "AUCTIONS",
      "outputs": [
        {
          "internalType": "uint8",
          "name": "TOKEN_ID",
          "type": "uint8"
        },
        {
          "internalType": "uint256",
          "name": "START_TIME",
          "type": "uint256"
        },
        {
          "internalType": "uint256",
          "name": "EXPIRE_AT",
          "type": "uint256"
        },
        {
          "internalType": "uint256",
          "name": "START_PRICE",
          "type": "uint256"
        },
        {
          "internalType": "uint256",
          "name": "END_PRICE",
          "type": "uint256"
        },
        {
          "internalType": "uint256",
          "name": "AUCTION_DROP_INTERVAL",
          "type": "uint256"
        },
        {
          "internalType": "uint256",
          "name": "AUCTION_DROP_PER_STEP",
          "type": "uint256"
        },
        {
          "internalType": "bool",
          "name": "IS_SOLD",
          "type": "bool"
        }
      ],
      "stateMutability": "view",
      "type": "function"
    },
    {
      "inputs": [],
      "name": "IPFS",
      "outputs": [
        {
          "internalType": "string",
          "name": "GOD_CID",
          "type": "string"
        },
        {
          "internalType": "string",
          "name": "NOT_REVEALED_ART_CID",
          "type": "string"
        },
        {
          "internalType": "string",
          "name": "ART_CID",
          "type": "string"
        }
      ],
      "stateMutability": "view",
      "type": "function"
    },
    {
      "inputs": [],
      "name": "MAX_SUPPLY",
      "outputs": [
        {
          "internalType": "uint16",
          "name": "",
          "type": "uint16"
        }
      ],
      "stateMutability": "view",
      "type": "function"
    },
    {
      "inputs": [],
      "name": "MINTING_CONFIG",
      "outputs": [
        {
          "internalType": "uint256",
          "name": "MINT_PRICE_IN_WEI",
          "type": "uint256"
        },
        {
          "internalType": "uint16",
          "name": "MAX_MINT_PER_ADDRESS",
          "type": "uint16"
        },
        {
          "internalType": "uint256",
          "name": "AUCTION_START_TIME",
          "type": "uint256"
        },
        {
          "internalType": "uint256",
          "name": "AUCTION_DURATION",
          "type": "uint256"
        },
        {
          "internalType": "uint8",
          "name": "NUMBER_OF_TOKEN_FOR_AUCTION",
          "type": "uint8"
        },
        {
          "internalType": "uint8",
          "name": "ROYALTY_FEE_PERCENT",
          "type": "uint8"
        }
      ],
      "stateMutability": "view",
      "type": "function"
    },
    {
      "inputs": [],
      "name": "STATE",
      "outputs": [
        {
          "internalType": "bool",
          "name": "INITIALIZED",
          "type": "bool"
        },
        {
          "internalType": "bool",
          "name": "AUCTION_IS_ACTIVE",
          "type": "bool"
        },
        {
          "internalType": "bool",
          "name": "WHITE_LIST_MINTING_IS_ACTIVE",
          "type": "bool"
        },
        {
          "internalType": "bool",
          "name": "MINTING_IS_ACTIVE",
          "type": "bool"
        },
        {
          "internalType": "bool",
          "name": "ART_IS_REVEALED",
          "type": "bool"
        },
        {
          "internalType": "bool",
          "name": "FINISHED",
          "type": "bool"
        }
      ],
      "stateMutability": "view",
      "type": "function"
    },
    {
      "inputs": [
        {
          "internalType": "uint16",
          "name": "",
          "type": "uint16"
        }
      ],
      "name": "TOKEN_IS_GOD",
      "outputs": [
        {
          "internalType": "bool",
          "name": "",
          "type": "bool"
        }
      ],
      "stateMutability": "view",
      "type": "function"
    },
    {
      "inputs": [
        {
          "internalType": "uint16",
          "name": "",
          "type": "uint16"
        }
      ],
      "name": "TOKEN_IS_UPGRADED",
      "outputs": [
        {
          "internalType": "bool",
          "name": "",
          "type": "bool"
        }
      ],
      "stateMutability": "view",
      "type": "function"
    },
    {
      "inputs": [],
      "name": "UPGRADE_REQUEST_FEE_IN_WEI",
      "outputs": [
        {
          "internalType": "uint256",
          "name": "",
          "type": "uint256"
        }
      ],
      "stateMutability": "view",
      "type": "function"
    },
    {
      "inputs": [
        {
          "internalType": "uint256",
          "name": "",
          "type": "uint256"
        }
      ],
      "name": "UPGRADE_REQUEST_FEE_IS_PAID",
      "outputs": [
        {
          "internalType": "bool",
          "name": "",
          "type": "bool"
        }
      ],
      "stateMutability": "view",
      "type": "function"
    },
    {
      "inputs": [
        {
          "internalType": "address",
          "name": "to",
          "type": "address"
        },
        {
          "internalType": "uint256",
          "name": "tokenId",
          "type": "uint256"
        }
      ],
      "name": "approve",
      "outputs": [],
      "stateMutability": "nonpayable",
      "type": "function"
    },
    {
      "inputs": [
        {
          "internalType": "address",
          "name": "owner",
          "type": "address"
        }
      ],
      "name": "balanceOf",
      "outputs": [
        {
          "internalType": "uint256",
          "name": "",
          "type": "uint256"
        }
      ],
      "stateMutability": "view",
      "type": "function"
    },
    {
      "inputs": [
        {
          "internalType": "uint8",
          "name": "day",
          "type": "uint8"
        }
      ],
      "name": "buyAGodInAuction",
      "outputs": [],
      "stateMutability": "payable",
      "type": "function"
    },
    {
      "inputs": [
        {
          "internalType": "uint16",
          "name": "tokenId",
          "type": "uint16"
        }
      ],
      "name": "buyBackToken",
      "outputs": [],
      "stateMutability": "nonpayable",
      "type": "function"
    },
    {
      "inputs": [],
      "name": "finishAuction",
      "outputs": [],
      "stateMutability": "nonpayable",
      "type": "function"
    },
    {
      "inputs": [],
      "name": "finishMinting",
      "outputs": [],
      "stateMutability": "nonpayable",
      "type": "function"
    },
    {
      "inputs": [
        {
          "internalType": "uint256",
          "name": "tokenId",
          "type": "uint256"
        }
      ],
      "name": "getApproved",
      "outputs": [
        {
          "internalType": "address",
          "name": "",
          "type": "address"
        }
      ],
      "stateMutability": "view",
      "type": "function"
    },
    {
      "inputs": [
        {
          "internalType": "uint8",
          "name": "day",
          "type": "uint8"
        }
      ],
      "name": "getAuctionPrice",
      "outputs": [
        {
          "internalType": "uint256",
          "name": "",
          "type": "uint256"
        }
      ],
      "stateMutability": "view",
      "type": "function"
    },
    {
      "inputs": [
        {
          "components": [
            {
              "internalType": "uint256",
              "name": "START_PRICE",
              "type": "uint256"
            },
            {
              "internalType": "uint256",
              "name": "END_PRICE",
              "type": "uint256"
            },
            {
              "internalType": "uint256",
              "name": "AUCTION_DROP_INTERVAL",
              "type": "uint256"
            },
            {
              "internalType": "uint256",
              "name": "AUCTION_DROP_PER_STEP",
              "type": "uint256"
            }
          ],
          "internalType": "struct NFT.AuctionConfig[]",
          "name": "configs",
          "type": "tuple[]"
        }
      ],
      "name": "initializer",
      "outputs": [],
      "stateMutability": "nonpayable",
      "type": "function"
    },
    {
      "inputs": [
        {
          "internalType": "address",
          "name": "owner",
          "type": "address"
        },
        {
          "internalType": "address",
          "name": "operator",
          "type": "address"
        }
      ],
      "name": "isApprovedForAll",
      "outputs": [
        {
          "internalType": "bool",
          "name": "",
          "type": "bool"
        }
      ],
      "stateMutability": "view",
      "type": "function"
    },
    {
      "inputs": [],
      "name": "name",
      "outputs": [
        {
          "internalType": "string",
          "name": "",
          "type": "string"
        }
      ],
      "stateMutability": "view",
      "type": "function"
    },
    {
      "inputs": [],
      "name": "owner",
      "outputs": [
        {
          "internalType": "address",
          "name": "",
          "type": "address"
        }
      ],
      "stateMutability": "view",
      "type": "function"
    },
    {
      "inputs": [
        {
          "internalType": "uint256",
          "name": "tokenId",
          "type": "uint256"
        }
      ],
      "name": "ownerOf",
      "outputs": [
        {
          "internalType": "address",
          "name": "",
          "type": "address"
        }
      ],
      "stateMutability": "view",
      "type": "function"
    },
    {
      "inputs": [
        {
          "internalType": "uint256",
          "name": "quantity",
          "type": "uint256"
        }
      ],
      "name": "publicMint",
      "outputs": [],
      "stateMutability": "payable",
      "type": "function"
    },
    {
      "inputs": [],
      "name": "renounceOwnership",
      "outputs": [],
      "stateMutability": "nonpayable",
      "type": "function"
    },
    {
      "inputs": [
        {
          "internalType": "string",
          "name": "ipfsCid",
          "type": "string"
        }
      ],
      "name": "revealArt",
      "outputs": [],
      "stateMutability": "nonpayable",
      "type": "function"
    },
    {
      "inputs": [
        {
          "internalType": "uint256",
          "name": "",
          "type": "uint256"
        },
        {
          "internalType": "uint256",
          "name": "value",
          "type": "uint256"
        }
      ],
      "name": "royaltyInfo",
      "outputs": [
        {
          "internalType": "address",
          "name": "receiver",
          "type": "address"
        },
        {
          "internalType": "uint256",
          "name": "royaltyAmount",
          "type": "uint256"
        }
      ],
      "stateMutability": "view",
      "type": "function"
    },
    {
      "inputs": [
        {
          "internalType": "address",
          "name": "from",
          "type": "address"
        },
        {
          "internalType": "address",
          "name": "to",
          "type": "address"
        },
        {
          "internalType": "uint256",
          "name": "tokenId",
          "type": "uint256"
        }
      ],
      "name": "safeTransferFrom",
      "outputs": [],
      "stateMutability": "nonpayable",
      "type": "function"
    },
    {
      "inputs": [
        {
          "internalType": "address",
          "name": "from",
          "type": "address"
        },
        {
          "internalType": "address",
          "name": "to",
          "type": "address"
        },
        {
          "internalType": "uint256",
          "name": "tokenId",
          "type": "uint256"
        },
        {
          "internalType": "bytes",
          "name": "_data",
          "type": "bytes"
        }
      ],
      "name": "safeTransferFrom",
      "outputs": [],
      "stateMutability": "nonpayable",
      "type": "function"
    },
    {
      "inputs": [
        {
          "internalType": "address",
          "name": "operator",
          "type": "address"
        },
        {
          "internalType": "bool",
          "name": "approved",
          "type": "bool"
        }
      ],
      "name": "setApprovalForAll",
      "outputs": [],
      "stateMutability": "nonpayable",
      "type": "function"
    },
    {
      "inputs": [
        {
          "internalType": "address",
          "name": "buyBackTreasury_",
          "type": "address"
        }
      ],
      "name": "setBuyBackTreasury",
      "outputs": [],
      "stateMutability": "nonpayable",
      "type": "function"
    },
    {
      "inputs": [
        {
          "internalType": "address",
          "name": "platform_",
          "type": "address"
        }
      ],
      "name": "setPlatform",
      "outputs": [],
      "stateMutability": "nonpayable",
      "type": "function"
    },
    {
      "inputs": [
        {
          "internalType": "uint256",
          "name": "upgradeRequestFeeInWei_",
          "type": "uint256"
        }
      ],
      "name": "setUpgradeRequestFeeInWei",
      "outputs": [],
      "stateMutability": "nonpayable",
      "type": "function"
    },
    {
      "inputs": [],
      "name": "startPublicMinting",
      "outputs": [],
      "stateMutability": "nonpayable",
      "type": "function"
    },
    {
      "inputs": [],
      "name": "startWhiteListMinting",
      "outputs": [],
      "stateMutability": "nonpayable",
      "type": "function"
    },
    {
      "inputs": [
        {
          "internalType": "bytes4",
          "name": "interfaceId",
          "type": "bytes4"
        }
      ],
      "name": "supportsInterface",
      "outputs": [
        {
          "internalType": "bool",
          "name": "",
          "type": "bool"
        }
      ],
      "stateMutability": "view",
      "type": "function"
    },
    {
      "inputs": [],
      "name": "symbol",
      "outputs": [
        {
          "internalType": "string",
          "name": "",
          "type": "string"
        }
      ],
      "stateMutability": "view",
      "type": "function"
    },
    {
      "inputs": [
        {
          "internalType": "uint256",
          "name": "index",
          "type": "uint256"
        }
      ],
      "name": "tokenByIndex",
      "outputs": [
        {
          "internalType": "uint256",
          "name": "",
          "type": "uint256"
        }
      ],
      "stateMutability": "view",
      "type": "function"
    },
    {
      "inputs": [
        {
          "internalType": "address",
          "name": "owner",
          "type": "address"
        },
        {
          "internalType": "uint256",
          "name": "index",
          "type": "uint256"
        }
      ],
      "name": "tokenOfOwnerByIndex",
      "outputs": [
        {
          "internalType": "uint256",
          "name": "",
          "type": "uint256"
        }
      ],
      "stateMutability": "view",
      "type": "function"
    },
    {
      "inputs": [
        {
          "internalType": "uint256",
          "name": "tokenId_",
          "type": "uint256"
        }
      ],
      "name": "tokenURI",
      "outputs": [
        {
          "internalType": "string",
          "name": "",
          "type": "string"
        }
      ],
      "stateMutability": "view",
      "type": "function"
    },
    {
      "inputs": [],
      "name": "totalSupply",
      "outputs": [
        {
          "internalType": "uint256",
          "name": "",
          "type": "uint256"
        }
      ],
      "stateMutability": "view",
      "type": "function"
    },
    {
      "inputs": [
        {
          "internalType": "address",
          "name": "from",
          "type": "address"
        },
        {
          "internalType": "address",
          "name": "to",
          "type": "address"
        },
        {
          "internalType": "uint256",
          "name": "tokenId",
          "type": "uint256"
        }
      ],
      "name": "transferFrom",
      "outputs": [],
      "stateMutability": "nonpayable",
      "type": "function"
    },
    {
      "inputs": [
        {
          "internalType": "address",
          "name": "newOwner",
          "type": "address"
        }
      ],
      "name": "transferOwnership",
      "outputs": [],
      "stateMutability": "nonpayable",
      "type": "function"
    },
    {
      "inputs": [
        {
          "internalType": "string",
          "name": "ipfsCid",
          "type": "string"
        },
        {
          "internalType": "uint16",
          "name": "tokenId",
          "type": "uint16"
        },
        {
          "internalType": "bool",
          "name": "isGodNow",
          "type": "bool"
        }
      ],
      "name": "upgradeToken",
      "outputs": [],
      "stateMutability": "nonpayable",
      "type": "function"
    },
    {
      "inputs": [
        {
          "internalType": "uint16",
          "name": "tokenId",
          "type": "uint16"
        }
      ],
      "name": "upgradeTokenRequestFee",
      "outputs": [],
      "stateMutability": "payable",
      "type": "function"
    },
    {
      "inputs": [
        {
          "internalType": "address",
          "name": "addr_",
          "type": "address"
        },
        {
          "internalType": "uint8",
          "name": "maxQuantity_",
          "type": "uint8"
        },
        {
          "internalType": "uint64",
          "name": "quantity_",
          "type": "uint64"
        },
        {
          "internalType": "enum NFT.WhiteListType",
          "name": "whiteListType_",
          "type": "uint8"
        },
        {
          "internalType": "bytes",
          "name": "sig",
          "type": "bytes"
        }
      ],
      "name": "whitelistMinting",
      "outputs": [],
      "stateMutability": "payable",
      "type": "function"
    }
  ],
  "bytecode": "0x60a06040523480156200001157600080fd5b506040516200540e3803806200540e83398101604081905262000034916200045f565b8451604080518082018252601181527044656d6d6f7274616c547265617375726560781b60208083019182528351808501909452600280855261111560f21b9185019190915282519293926200008b929062000271565b508051620000a190600390602084019062000271565b50506000805550620000b3816200021f565b50600160095560f086901b6001600160f01b03191660809081526040805160c08101825260008082526020808301829052828401829052606080840183905283860183905260a093840192909252600b805465ffffffffffff191690558951600c80546001600160a01b03199081166001600160a01b03938416179091558b830151600d80548316918416919091179055948b0151600e80548716918316919091179055918a0151600f8054861691841691909117905593890151601080548516918316919091179055908801516011805490931691161790558451620001a1916012919087019062000271565b508251620001b790601390602086019062000271565b50815160155560208201516016805461ffff90921661ffff199283161790556040830151601755606083015160185560808301516019805460a09095015160ff9081166101000295909316929091169190911792909217909155600a55506200063c92505050565b600880546001600160a01b038381166001600160a01b0319831681179093556040519116919082907f8be0079c531659141344cd1fd0a4f28419497f9722a3daafe3b4186f6b6457e090600090a35050565b8280546200027f90620005e9565b90600052602060002090601f016020900481019282620002a35760008555620002ee565b82601f10620002be57805160ff1916838001178555620002ee565b82800160010185558215620002ee579182015b82811115620002ee578251825591602001919060010190620002d1565b50620002fc92915062000300565b5090565b5b80821115620002fc576000815560010162000301565b80516001600160a01b03811681146200032f57600080fd5b919050565b600082601f83011262000345578081fd5b81516001600160401b0381111562000361576200036162000626565b602062000377601f8301601f19168201620005b6565b82815285828487010111156200038b578384fd5b835b83811015620003aa5785810183015182820184015282016200038d565b83811115620003bb57848385840101525b5095945050505050565b600060c08284031215620003d7578081fd5b620003e16200058b565b905081518152620003f5602083016200043a565b602082015260408201516040820152606082015160608201526200041c608083016200044d565b60808201526200042f60a083016200044d565b60a082015292915050565b805161ffff811681146200032f57600080fd5b805160ff811681146200032f57600080fd5b6000806000806000808688036102008112156200047a578283fd5b62000485886200043a565b965060c0601f198201121562000499578283fd5b50620004a46200058b565b620004b26020890162000317565b8152620004c26040890162000317565b6020820152620004d56060890162000317565b6040820152620004e86080890162000317565b6060820152620004fb60a0890162000317565b60808201526200050e60c0890162000317565b60a082015260e08801519095506001600160401b038082111562000530578384fd5b6200053e8a838b0162000334565b955061010089015191508082111562000555578384fd5b506200056489828a0162000334565b93505062000577886101208901620003c5565b91506101e087015190509295509295509295565b60405160c081016001600160401b0381118282101715620005b057620005b062000626565b60405290565b604051601f8201601f191681016001600160401b0381118282101715620005e157620005e162000626565b604052919050565b600181811c90821680620005fe57607f821691505b602082108114156200062057634e487b7160e01b600052602260045260246000fd5b50919050565b634e487b7160e01b600052604160045260246000fd5b60805160f01c614da5620006696000396000818161053e01528181612697015261369a0152614da56000f3fe6080604052600436106102dd5760003560e01c8063688d260e1161017f578063a0a4a5a2116100e1578063c486456c1161008a578063d0b50d8e11610064578063d0b50d8e14610a04578063e985e9c514610a24578063f2fde38b14610a6d57600080fd5b8063c486456c1461094d578063c4f1634d146109d1578063c87b56dd146109e457600080fd5b8063b51ce63d116100bb578063b51ce63d14610899578063b88d4fde1461091a578063b9143eb21461093a57600080fd5b8063a0a4a5a214610829578063a22cb46514610849578063a50774601461086957600080fd5b8063895145431161014357806395d89b411161011d57806395d89b41146107df57806397a9140c146107f45780639da058e91461081457600080fd5b806389514543146107715780638abbe9e6146107915780638da5cb5b146107c157600080fd5b8063688d260e146106f15780636945c5ea1461070757806370a0823114610727578063715018a6146107475780637d64bcb41461075c57600080fd5b80632fa3ce7d116102435780634f6ccce7116101ec57806361a0dedc116101c657806361a0dedc146106515780636352211e146106be57806364b1152f146106de57600080fd5b80634f6ccce7146105ed578063543532191461060d57806360dc13a91461063157600080fd5b8063430ca46f1161021d578063430ca46f1461059357806348c3e15d146105a85780634c0e123b146105d857600080fd5b80632fa3ce7d1461050c57806332cb6b0c1461052c57806342842e0e1461057357600080fd5b806318160ddd116102a55780632a55205a1161027f5780632a55205a1461049a5780632db11544146104d95780632f745c59146104ec57600080fd5b806318160ddd146104375780631db16f201461045a57806323b872dd1461047a57600080fd5b806301ffc9a7146102e2578063045cd5541461031757806306fdde03146103bb578063081812fc146103dd578063095ea7b314610415575b600080fd5b3480156102ee57600080fd5b506103026102fd366004614832565b610a8d565b60405190151581526020015b60405180910390f35b34801561032357600080fd5b5061037a6103323660046149b1565b601e602052600090815260409020805460018201546002830154600384015460048501546005860154600687015460079097015460ff96871697959694959394929391921688565b6040805160ff90991689526020890197909752958701949094526060860192909252608085015260a084015260c0830152151560e08201526101000161030e565b3480156103c757600080fd5b506103d0610b15565b60405161030e9190614b71565b3480156103e957600080fd5b506103fd6103f8366004614978565b610ba7565b6040516001600160a01b03909116815260200161030e565b34801561042157600080fd5b506104356104303660046146db565b610beb565b005b34801561044357600080fd5b50600154600054035b60405190815260200161030e565b34801561046657600080fd5b5061043561047536600461489d565b610c79565b34801561048657600080fd5b506104356104953660046145fe565b610f2b565b3480156104a657600080fd5b506104ba6104b5366004614990565b610f36565b604080516001600160a01b03909316835260208301919091520161030e565b6104356104e7366004614978565b610f71565b3480156104f857600080fd5b5061044c6105073660046146db565b6110cd565b34801561051857600080fd5b5061043561052736600461495e565b61126c565b34801561053857600080fd5b506105607f000000000000000000000000000000000000000000000000000000000000000081565b60405161ffff909116815260200161030e565b34801561057f57600080fd5b5061043561058e3660046145fe565b61141f565b34801561059f57600080fd5b5061043561143a565b3480156105b457600080fd5b506103026105c336600461495e565b601b6020526000908152604090205460ff1681565b3480156105e457600080fd5b506104356115bb565b3480156105f957600080fd5b5061044c610608366004614978565b61173d565b34801561061957600080fd5b506106226117aa565b60405161030e93929190614b84565b34801561063d57600080fd5b5061044c61064c3660046149b1565b611958565b34801561065d57600080fd5b50601554601654601754601854601954610688949361ffff1692919060ff8082169161010090041686565b6040805196875261ffff909516602087015293850192909252606084015260ff90811660808401521660a082015260c00161030e565b3480156106ca57600080fd5b506103fd6106d9366004614978565b611a91565b6104356106ec36600461495e565b611aa3565b3480156106fd57600080fd5b5061044c600a5481565b34801561071357600080fd5b506104356107223660046145bb565b611ccc565b34801561073357600080fd5b5061044c6107423660046145bb565b611d5f565b34801561075357600080fd5b50610435611dae565b34801561076857600080fd5b50610435611e14565b34801561077d57600080fd5b5061043561078c36600461486a565b611f4f565b34801561079d57600080fd5b506103026107ac36600461495e565b601d6020526000908152604090205460ff1681565b3480156107cd57600080fd5b506008546001600160a01b03166103fd565b3480156107eb57600080fd5b506103d061206f565b34801561080057600080fd5b5061043561080f3660046147c2565b61207e565b34801561082057600080fd5b506104356122cb565b34801561083557600080fd5b506104356108443660046145bb565b61246c565b34801561085557600080fd5b506104356108643660046146b2565b6124fd565b34801561087557600080fd5b50610302610884366004614978565b601f6020526000908152604090205460ff1681565b3480156108a557600080fd5b50600c54600d54600e54600f546010546011546108d8956001600160a01b03908116958116948116938116928116911686565b604080516001600160a01b03978816815295871660208701529386169385019390935290841660608401528316608083015290911660a082015260c00161030e565b34801561092657600080fd5b50610435610935366004614639565b612593565b610435610948366004614704565b6125e4565b34801561095957600080fd5b50600b546109989060ff808216916101008104821691620100008204811691630100000081048216916401000000008204811691600160281b90041686565b604080519615158752941515602087015292151593850193909352151560608401529015156080830152151560a082015260c00161030e565b6104356109df3660046149b1565b61289b565b3480156109f057600080fd5b506103d06109ff366004614978565b612c5d565b348015610a1057600080fd5b50610435610a1f366004614978565b612d77565b348015610a3057600080fd5b50610302610a3f3660046145d5565b6001600160a01b03918216600090815260076020908152604080832093909416825291909152205460ff1690565b348015610a7957600080fd5b50610435610a883660046145bb565b612e92565b60006001600160e01b031982166380ac58cd60e01b1480610abe57506001600160e01b03198216635b5e139f60e01b145b80610ad957506001600160e01b0319821663780e9d6360e01b145b80610af457506001600160e01b0319821663152a902d60e11b145b80610b0f57506301ffc9a760e01b6001600160e01b03198316145b92915050565b606060028054610b2490614c93565b80601f0160208091040260200160405190810160405280929190818152602001828054610b5090614c93565b8015610b9d5780601f10610b7257610100808354040283529160200191610b9d565b820191906000526020600020905b815481529060010190602001808311610b8057829003601f168201915b5050505050905090565b6000610bb282612f5a565b610bcf576040516333d1c03960e21b815260040160405180910390fd5b506000908152600660205260409020546001600160a01b031690565b6000610bf682611a91565b9050806001600160a01b0316836001600160a01b03161415610c2b5760405163250fdee360e21b815260040160405180910390fd5b336001600160a01b03821614801590610c4b5750610c498133610a3f565b155b15610c69576040516367d9dca160e11b815260040160405180910390fd5b610c74838383612f85565b505050565b600b54600160281b900460ff16610cd15760405162461bcd60e51b8152602060048201526017602482015276135a5b9d1a5b99c81a5cc81b9bdd08199a5b9a5cda1959604a1b60448201526064015b60405180910390fd5b600b5460ff16610d235760405162461bcd60e51b815260206004820152601b60248201527f436f6e7472616374206973206e6f7420696e697469616c697a656400000000006044820152606401610cc8565b600d546001600160a01b03163314610d925760405162461bcd60e51b815260206004820152602c60248201527f4f6e6c7920706c6174666f726d20616464726573732063616e2063616c6c207460448201526b3434b990333ab731ba34b7b760a11b6064820152608401610cc8565b61ffff82166000908152601d6020526040902054829060ff1615610e0c5760405162461bcd60e51b815260206004820152602b60248201527f746869732066756e6374696f6e206973206f6e6c792066756e6374696f6e616c60448201526a20666f722068756d616e7360a81b6064820152608401610cc8565b835180610e4a5760405162461bcd60e51b815260206004820152600c60248201526b43494420697320656d70747960a01b6044820152606401610cc8565b61ffff84166000908152601f602052604090205460ff16610ead5760405162461bcd60e51b815260206004820152601760248201527f7570677261646520666565206973206e6f7420706169640000000000000000006044820152606401610cc8565b61ffff84166000908152601f60209081526040808320805460ff19169055601c82529091208651610ee092880190614445565b5061ffff84166000908152601b60205260409020805460ff191660011790558215610f245761ffff84166000908152601d60205260409020805460ff191660011790555b5050505050565b610c74838383612fe1565b601a546001600160a01b03811690600090606490610f5e90600160a01b900460ff1685614c31565b610f689190614c1d565b90509250929050565b600b546301000000900460ff16610fca5760405162461bcd60e51b815260206004820152601560248201527f4d696e74696e67206973206e6f742061637469766500000000000000000000006044820152606401610cc8565b60165461ffff1681610fdb336131f4565b610fe59190614bbd565b11156110595760405162461bcd60e51b815260206004820152603860248201527f4e46543a20796f75207265616368656420746865206d6178696d756d206e756d60448201527f626572206f66206d696e747320706572206164647265737300000000000000006064820152608401610cc8565b60155434906110689083614c31565b11156110aa5760405162461bcd60e51b81526020600482015260116024820152703737ba1032b737bab3b4399032ba3432b960791b6044820152606401610cc8565b6110b4338261324f565b600f546110ca906001600160a01b031634613269565b50565b60006110d883611d5f565b82106111315760405162461bcd60e51b815260206004820152602260248201527f455243373231413a206f776e657220696e646578206f7574206f6620626f756e604482015261647360f01b6064820152608401610cc8565b60006111406001546000540390565b905060008060005b838110156111fd57600081815260046020908152604091829020825160608101845290546001600160a01b038116808352600160a01b820467ffffffffffffffff1693830193909352600160e01b900460ff16151592810192909252156111ae57805192505b876001600160a01b0316836001600160a01b031614156111ea57868414156111dc57509350610b0f92505050565b836111e681614cc8565b9450505b50806111f581614cc8565b915050611148565b5060405162461bcd60e51b815260206004820152602e60248201527f455243373231413a20756e61626c6520746f2067657420746f6b656e206f662060448201527f6f776e657220627920696e6465780000000000000000000000000000000000006064820152608401610cc8565b61ffff81166000908152601d6020526040902054819060ff16156112e65760405162461bcd60e51b815260206004820152602b60248201527f746869732066756e6374696f6e206973206f6e6c792066756e6374696f6e616c60448201526a20666f722068756d616e7360a81b6064820152608401610cc8565b600260095414156113395760405162461bcd60e51b815260206004820152601f60248201527f5265656e7472616e637947756172643a207265656e7472616e742063616c6c006044820152606401610cc8565b600260095561134b61ffff8316612f5a565b61138e5760405162461bcd60e51b81526020600482015260146024820152731d1bdad95b88191bd95cc81b9bdd08195e1a5cdd60621b6044820152606401610cc8565b600061139d8361ffff1661330c565b80519091506001600160a01b031633146114085760405162461bcd60e51b815260206004820152602660248201527f6f6e6c79206f776e6572206f6620746f6b656e2063616e20627579206261636b604482015265103a37b5b2b760d11b6064820152608401610cc8565b6114158361ffff16613428565b5050600160095550565b610c7483838360405180602001604052806000815250612593565b600e546001600160a01b031633146114ab5760405162461bcd60e51b815260206004820152602e60248201527f4f6e6c79206465666920746974616e20616464726573732063616e2063616c6c60448201526d103a3434b990333ab731ba34b7b760911b6064820152608401610cc8565b600b54600160281b900460ff16156115055760405162461bcd60e51b815260206004820181905260248201527f4e46543a204d696e74696e6720697320616c72656164792066696e69736865646044820152606401610cc8565b600b5460ff166115575760405162461bcd60e51b815260206004820181905260248201527f4e46543a20636f6e7472616374206973206e6f7420696e697469616c697a65646044820152606401610cc8565b600b54610100900460ff166115ae5760405162461bcd60e51b815260206004820152601a60248201527f4e46543a2041756374696f6e206973206e6f74206163746976650000000000006044820152606401610cc8565b600b805461ff0019169055565b6008546001600160a01b031633146116155760405162461bcd60e51b815260206004820181905260248201527f4f776e61626c653a2063616c6c6572206973206e6f7420746865206f776e65726044820152606401610cc8565b600b5460ff166116675760405162461bcd60e51b815260206004820181905260248201527f4e46543a20636f6e7472616374206973206e6f7420696e697469616c697a65646044820152606401610cc8565b600b54600160281b900460ff16156116c15760405162461bcd60e51b815260206004820181905260248201527f4e46543a204d696e74696e6720697320616c72656164792066696e69736865646044820152606401610cc8565b600b5462010000900460ff161561172a5760405162461bcd60e51b815260206004820152602760248201527f4e46543a2057686974654c6973744d696e74696e6720697320616c72656164796044820152662061637469766560c81b6064820152608401610cc8565b600b805462ff0000191662010000179055565b600061174c6001546000540390565b82106117a65760405162461bcd60e51b815260206004820152602360248201527f455243373231413a20676c6f62616c20696e646578206f7574206f6620626f756044820152626e647360e81b6064820152608401610cc8565b5090565b6012805481906117b990614c93565b80601f01602080910402602001604051908101604052809291908181526020018280546117e590614c93565b80156118325780601f1061180757610100808354040283529160200191611832565b820191906000526020600020905b81548152906001019060200180831161181557829003601f168201915b50505050509080600101805461184790614c93565b80601f016020809104026020016040519081016040528092919081815260200182805461187390614c93565b80156118c05780601f10611895576101008083540402835291602001916118c0565b820191906000526020600020905b8154815290600101906020018083116118a357829003601f168201915b5050505050908060020180546118d590614c93565b80601f016020809104026020016040519081016040528092919081815260200182805461190190614c93565b801561194e5780601f106119235761010080835404028352916020019161194e565b820191906000526020600020905b81548152906001019060200180831161193157829003601f168201915b5050505050905083565b600b54600090610100900460ff166119aa5760405162461bcd60e51b815260206004820152601560248201527441756374696f6e206973206e6f742061637469766560581b6044820152606401610cc8565b8160ff166001111580156119c7575060195460ff90811690831611155b611a095760405162461bcd60e51b8152602060048201526013602482015272646179206973206f7574206f662072616e676560681b6044820152606401610cc8565b60ff8083166000908152601e60209081526040918290208251610100810184528154851681526001820154928101929092526002810154928201929092526003820154606082015260048201546080820152600582015460a0820152600682015460c0820152600790910154909116151560e0820152611a88816135c7565b9150505b919050565b6000611a9c8261330c565b5192915050565b600b54600160281b900460ff16611af65760405162461bcd60e51b8152602060048201526017602482015276135a5b9d1a5b99c81a5cc81b9bdd08199a5b9a5cda1959604a1b6044820152606401610cc8565b600b5460ff16611b485760405162461bcd60e51b815260206004820152601b60248201527f436f6e7472616374206973206e6f7420696e697469616c697a656400000000006044820152606401610cc8565b61ffff81166000908152601d6020526040902054819060ff1615611bc25760405162461bcd60e51b815260206004820152602b60248201527f746869732066756e6374696f6e206973206f6e6c792066756e6374696f6e616c60448201526a20666f722068756d616e7360a81b6064820152608401610cc8565b611bcf8261ffff16612f5a565b611c125760405162461bcd60e51b81526020600482015260146024820152731d1bdad95b88191bd95cc81b9bdd08195e1a5cdd60621b6044820152606401610cc8565b34600a541115611c585760405162461bcd60e51b81526020600482015260116024820152703737ba1032b737bab3b4399032ba3432b960791b6044820152606401610cc8565b61ffff82166000908152601f60205260409020805460ff19166001179055600d54611c8c906001600160a01b031634613269565b6040805161ffff841681523460208201527f0154c2dfb98437384198b52913095489510f87da0fcc18a7a76717706e1d0085910160405180910390a15050565b600e546001600160a01b03163314611d3d5760405162461bcd60e51b815260206004820152602e60248201527f4f6e6c79206465666920746974616e20616464726573732063616e2063616c6c60448201526d103a3434b990333ab731ba34b7b760911b6064820152608401610cc8565b600d80546001600160a01b0319166001600160a01b0392909216919091179055565b60006001600160a01b038216611d88576040516323d3ad8160e21b815260040160405180910390fd5b506001600160a01b031660009081526005602052604090205467ffffffffffffffff1690565b6008546001600160a01b03163314611e085760405162461bcd60e51b815260206004820181905260248201527f4f776e61626c653a2063616c6c6572206973206e6f7420746865206f776e65726044820152606401610cc8565b611e126000613640565b565b600e546001600160a01b03163314611e855760405162461bcd60e51b815260206004820152602e60248201527f4f6e6c79206465666920746974616e20616464726573732063616e2063616c6c60448201526d103a3434b990333ab731ba34b7b760911b6064820152608401610cc8565b600b54600160281b900460ff1615611edf5760405162461bcd60e51b815260206004820181905260248201527f4e46543a204d696e74696e6720697320616c72656164792066696e69736865646044820152606401610cc8565b600b546301000000900460ff16611f385760405162461bcd60e51b815260206004820152601a60248201527f4e46543a204d696e74696e67206973206e6f74206163746976650000000000006044820152606401610cc8565b600b805465ff00ffffff001916600160281b179055565b6008546001600160a01b03163314611fa95760405162461bcd60e51b815260206004820181905260248201527f4f776e61626c653a2063616c6c6572206973206e6f7420746865206f776e65726044820152606401610cc8565b600b54640100000000900460ff16156120045760405162461bcd60e51b815260206004820152601760248201527f41727420697320616c72656164792072657665616c65640000000000000000006044820152606401610cc8565b8051806120425760405162461bcd60e51b815260206004820152600c60248201526b43494420697320656d70747960a01b6044820152606401610cc8565b8151612055906014906020850190614445565b5050600b805464ff00000000191664010000000017905550565b606060038054610b2490614c93565b6008546001600160a01b031633146120d85760405162461bcd60e51b815260206004820181905260248201527f4f776e61626c653a2063616c6c6572206973206e6f7420746865206f776e65726044820152606401610cc8565b600b5460ff16156121375760405162461bcd60e51b8152602060048201526024808201527f4e46543a20636f6e747261637420697320616c726561647920696e697469616c6044820152631a5e995960e21b6064820152608401610cc8565b600b54600160281b900460ff161561219b5760405162461bcd60e51b815260206004820152602160248201527f4e46543a20636f6e747261637420697320616c72656164792066696e697368656044820152601960fa1b6064820152608401610cc8565b600b54610100900460ff16156121f35760405162461bcd60e51b815260206004820152601e60248201527f4e46543a2061756374696f6e20697320616c72656164792061637469766500006044820152606401610cc8565b600b805460ff19166001179055604080516020808402820181019092528281526122599184908490819060009085015b8282101561224f57612240608083028601368190038101906148f9565b81526020019060010190612223565b5050505050613692565b5050600b805461ff001916610100908117909155601154601954604080518082019091526001600160a01b0390921680835292900460ff166020909101819052601a8054600160a01b90920274ffffffffffffffffffffffffffffffffffffffffff19909216909217179055565b5050565b6008546001600160a01b031633146123255760405162461bcd60e51b815260206004820181905260248201527f4f776e61626c653a2063616c6c6572206973206e6f7420746865206f776e65726044820152606401610cc8565b600b54600160281b900460ff161561237f5760405162461bcd60e51b815260206004820181905260248201527f4e46543a204d696e74696e6720697320616c72656164792066696e69736865646044820152606401610cc8565b600b546301000000900460ff16156123d95760405162461bcd60e51b815260206004820152601e60248201527f4e46543a204d696e74696e6720697320616c72656164792061637469766500006044820152606401610cc8565b600b5462010000900460ff166124575760405162461bcd60e51b815260206004820152603960248201527f4e46543a2057686974654c6973744d696e74696e672073686f756c642061637460448201527f697665206265666f7265205075626c6963204d696e74696e67000000000000006064820152608401610cc8565b600b805463ff00000019166301000000179055565b600d546001600160a01b031633146124db5760405162461bcd60e51b815260206004820152602c60248201527f4f6e6c7920706c6174666f726d20616464726573732063616e2063616c6c207460448201526b3434b990333ab731ba34b7b760a11b6064820152608401610cc8565b600f80546001600160a01b0319166001600160a01b0392909216919091179055565b6001600160a01b0382163314156125275760405163b06307db60e01b815260040160405180910390fd5b3360008181526007602090815260408083206001600160a01b03871680855290835292819020805460ff191686151590811790915590519081529192917f17307eab39ab6107e8899845ad3d59bd9653f200f220920489ca2b5937696c31910160405180910390a35050565b61259e848484612fe1565b6001600160a01b0383163b151580156125c057506125be84848484613a23565b155b156125de576040516368d2bf6b60e11b815260040160405180910390fd5b50505050565b600b5462010000900460ff1661263c5760405162461bcd60e51b815260206004820152601e60248201527f57686974654c6973744d696e74696e67206973206e6f742061637469766500006044820152606401610cc8565b6126498686858585613b1a565b6126955760405162461bcd60e51b815260206004820152601660248201527f7369676e6174757265206973206e6f742076616c6964000000000000000000006044820152606401610cc8565b7f000000000000000000000000000000000000000000000000000000000000000061ffff168467ffffffffffffffff166126ce60005490565b6126d89190614bbd565b11156127265760405162461bcd60e51b815260206004820152601560248201527f4d617820737570706c79206973207265616368656400000000000000000000006044820152606401610cc8565b600061273187613bf7565b905060ff86166127418683614bd5565b67ffffffffffffffff1611156127995760405162461bcd60e51b815260206004820152601560248201527f5175616e74697479206973206e6f742076616c696400000000000000000000006044820152606401610cc8565b60018460018111156127bb57634e487b7160e01b600052602160045260246000fd5b14156127ed576127d4876127cf8784614bd5565b613c4d565b6127e8878667ffffffffffffffff1661324f565b612876565b60155434906128069067ffffffffffffffff8816614c31565b11156128545760405162461bcd60e51b815260206004820152601260248201527f4e6f7420656e6f756768732065746865722e00000000000000000000000000006044820152606401610cc8565b612862876127cf8784614bd5565b612876878667ffffffffffffffff1661324f565b341561289257600f54612892906001600160a01b031634613269565b50505050505050565b600b54610100900460ff166128ea5760405162461bcd60e51b815260206004820152601560248201527441756374696f6e206973206e6f742061637469766560581b6044820152606401610cc8565b8060ff16600111158015612907575060195460ff90811690821611155b6129495760405162461bcd60e51b8152602060048201526013602482015272646179206973206f7574206f662072616e676560681b6044820152606401610cc8565b60ff81166000908152601e60205260409020600101544210156129ae5760405162461bcd60e51b815260206004820152601a60248201527f61756374696f6e206973206e6f742073746172746564207965740000000000006044820152606401610cc8565b60ff81166000908152601e6020526040902060020154421115612a135760405162461bcd60e51b815260206004820152601260248201527f61756374696f6e206973206578706972656400000000000000000000000000006044820152606401610cc8565b60ff8082166000908152601e60209081526040808320815161010081018352815486168082526001830154948201949094526002820154928101929092526003810154606083015260048101546080830152600581015460a0830152600681015460c083015260070154909316151560e0840152612a909061330c565b90508160e0015115612ae45760405162461bcd60e51b815260206004820152601760248201527f61756374696f6e20697320616c726561647920736f6c640000000000000000006044820152606401610cc8565b600e5481516001600160a01b03908116911614612b535760405162461bcd60e51b815260206004820152602760248201527f61756374696f6e206973206e6f74206f776e656420627920446563656e74726160448201526636102a34ba30b760c91b6064820152608401610cc8565b6000612b5e836135c7565b90508260800151811115612bda5760405162461bcd60e51b815260206004820152603260248201527f61756374696f6e2068617320656e64656420626563617573652069742072656360448201527f6569766520746f206261736520707269636500000000000000000000000000006064820152608401610cc8565b34811115612c2a5760405162461bcd60e51b815260206004820152601060248201527f6e6f7420656e6f756768206574686572000000000000000000000000000000006044820152606401610cc8565b600e548351612c47916001600160a01b031690339060ff16610f2b565b600e546125de906001600160a01b031634613269565b6060612c6882612f5a565b612cab5760405162461bcd60e51b81526020600482015260146024820152731d1bdad95b88191bd95cc81b9bdd08195e1a5cdd60621b6044820152606401610cc8565b61ffff82166000908152601b6020526040902054829060ff1615612d045761ffff81166000908152601c60209081526040918290209151612ced929101614b04565b604051602081830303815290604052915050919050565b61ffff81166000908152601d602052604090205460ff1615612d40576012612d2f61ffff8316613cc5565b604051602001612ced929190614b10565b600b54640100000000900460ff1615612d62576014612d2f61ffff8316613cc5565b6013612d2f61ffff8316613cc5565b50919050565b600e546001600160a01b03163314612de85760405162461bcd60e51b815260206004820152602e60248201527f4f6e6c79206465666920746974616e20616464726573732063616e2063616c6c60448201526d103a3434b990333ab731ba34b7b760911b6064820152608401610cc8565b600b54600160281b900460ff16612e3b5760405162461bcd60e51b8152602060048201526017602482015276135a5b9d1a5b99c81a5cc81b9bdd08199a5b9a5cda1959604a1b6044820152606401610cc8565b600b5460ff16612e8d5760405162461bcd60e51b815260206004820152601b60248201527f436f6e7472616374206973206e6f7420696e697469616c697a656400000000006044820152606401610cc8565b600a55565b6008546001600160a01b03163314612eec5760405162461bcd60e51b815260206004820181905260248201527f4f776e61626c653a2063616c6c6572206973206e6f7420746865206f776e65726044820152606401610cc8565b6001600160a01b038116612f515760405162461bcd60e51b815260206004820152602660248201527f4f776e61626c653a206e6577206f776e657220697320746865207a65726f206160448201526564647265737360d01b6064820152608401610cc8565b6110ca81613640565b6000805482108015610b0f575050600090815260046020526040902054600160e01b900460ff161590565b60008281526006602052604080822080546001600160a01b0319166001600160a01b0387811691821790925591518593918516917f8c5be1e5ebec7d5bd14f71427d1e84f3dd0314c0f7b2291e5b200ac8c7c3b92591a4505050565b6000612fec8261330c565b80519091506000906001600160a01b0316336001600160a01b0316148061301a5750815161301a9033610a3f565b8061303557503361302a84610ba7565b6001600160a01b0316145b90508061305557604051632ce44b5f60e11b815260040160405180910390fd5b846001600160a01b031682600001516001600160a01b03161461308a5760405162a1148160e81b815260040160405180910390fd5b6001600160a01b0384166130b157604051633a954ecd60e21b815260040160405180910390fd5b6130c16000848460000151612f85565b6001600160a01b038581166000908152600560209081526040808320805467ffffffffffffffff1980821667ffffffffffffffff92831660001901831617909255898616808652838620805493841693831660019081018416949094179055898652600490945282852080546001600160e01b031916909417600160a01b4290921691909102179092559086018083529120549091166131ad576000548110156131ad578251600082815260046020908152604090912080549186015167ffffffffffffffff16600160a01b026001600160e01b03199092166001600160a01b03909316929092171790555b5082846001600160a01b0316866001600160a01b03167fddf252ad1be2c89b69c2b068fc378daa952ba7f163c4a11628f55a4df523b3ef60405160405180910390a4610f24565b60006001600160a01b03821661321d576040516335ebb31960e01b815260040160405180910390fd5b506001600160a01b031660009081526005602052604090205468010000000000000000900467ffffffffffffffff1690565b6122c7828260405180602001604052806000815250613df7565b60405182906000906001600160a01b0383169084908381818185875af1925050503d80600081146132b6576040519150601f19603f3d011682016040523d82523d6000602084013e6132bb565b606091505b50509050806125de5760405162461bcd60e51b815260206004820152601460248201527f4661696c656420746f2073656e642045746865720000000000000000000000006044820152606401610cc8565b60408051606081018252600080825260208201819052918101919091528160005481101561340f57600081815260046020908152604091829020825160608101845290546001600160a01b0381168252600160a01b810467ffffffffffffffff1692820192909252600160e01b90910460ff1615159181018290529061340d5780516001600160a01b0316156133a3579392505050565b5060001901600081815260046020908152604091829020825160608101845290546001600160a01b038116808352600160a01b820467ffffffffffffffff1693830193909352600160e01b900460ff1615159281019290925215613408579392505050565b6133a3565b505b604051636f96cda160e11b815260040160405180910390fd5b60006134338261330c565b90506134456000838360000151612f85565b80516001600160a01b039081166000908152600560209081526040808320805467ffffffffffffffff19811667ffffffffffffffff9182166000190182161790915585518516845281842080547fffffffffffffffff0000000000000000ffffffffffffffffffffffffffffffff81167001000000000000000000000000000000009182900484166001908101851690920217909155865188865260049094528285208054600160e01b9588166001600160e01b031990911617600160a01b42909416939093029290921760ff60e01b191693909317905590850180835291205490911661357f5760005481101561357f578151600082815260046020908152604090912080549185015167ffffffffffffffff16600160a01b026001600160e01b03199092166001600160a01b03909316929092171790555b50805160405183916000916001600160a01b03909116907fddf252ad1be2c89b69c2b068fc378daa952ba7f163c4a11628f55a4df523b3ef908390a450506001805481019055565b600081602001514210156135dd57506060015190565b81604001514211156135f157506080015190565b60008260200151426136039190614c50565b905060008360a00151826136179190614c1d565b90508360c00151816136299190614c31565b84606001516136389190614c50565b949350505050565b600880546001600160a01b038381166001600160a01b0319831681179093556040519116919082907f8be0079c531659141344cd1fd0a4f28419497f9722a3daafe3b4186f6b6457e090600090a35050565b60195461ffff7f0000000000000000000000000000000000000000000000000000000000000000169060ff166136c760005490565b6136d19190614bbd565b11156137295760405162461bcd60e51b815260206004820152602160248201527f6e6f7420656e6f75676820737061636520666f72206e65772061756374696f6e6044820152607360f81b6064820152608401610cc8565b601954815160ff909116146137915760405162461bcd60e51b815260206004820152602860248201527f636f6e66696773206d757374206265207468652073616d65206c656e67746820604482015267185cc818dbdd5b9d60c21b6064820152608401610cc8565b600e546019546137ad916001600160a01b03169060ff1661324f565b60195460ff166137bc60005490565b146138095760405162461bcd60e51b815260206004820152601e60248201527f62616420696e697469616c697a6174696f6e206f6620636f6e747261637400006044820152606401610cc8565b60005b60195460ff90811690821610156122c75760006040518061010001604052808360ff1681526020018360ff166015600301546138489190614c31565b6017546138559190614bbd565b8152602001613865846001614bf8565b6018546138759160ff1690614c31565b6017546138829190614bbd565b8152602001848460ff16815181106138aa57634e487b7160e01b600052603260045260246000fd5b6020026020010151600001518152602001848460ff16815181106138de57634e487b7160e01b600052603260045260246000fd5b6020026020010151602001518152602001848460ff168151811061391257634e487b7160e01b600052603260045260246000fd5b6020026020010151604001518152602001848460ff168151811061394657634e487b7160e01b600052603260045260246000fd5b602002602001015160600151815260200160001515815250905080601e60008460016139729190614bf8565b60ff9081168252602080830193909352604091820160002084518154921660ff19928316178155928401516001840155908301516002830155606083015160038301556080830151600483015560a0830151600583015560c0830151600683015560e09092015160079091018054911515919092161790556139f382613e04565b5060ff81166000908152601d60205260409020805460ff1916600117905580613a1b81614ce3565b91505061380c565b604051630a85bd0160e11b81526000906001600160a01b0385169063150b7a0290613a58903390899088908890600401614b35565b602060405180830381600087803b158015613a7257600080fd5b505af1925050508015613aa2575060408051601f3d908101601f19168201909252613a9f9181019061484e565b60015b613afd573d808015613ad0576040519150601f19603f3d011682016040523d82523d6000602084013e613ad5565b606091505b508051613af5576040516368d2bf6b60e11b815260040160405180910390fd5b805181602001fd5b6001600160e01b031916630a85bd0160e11b149050949350505050565b6010546040516000916001600160a01b031690613be390613ba790613b47908a908a908a90602001614a8f565b60408051601f1981840301815282825280516020918201207f19457468657265756d205369676e6564204d6573736167653a0a33320000000084830152603c8085019190915282518085039091018152605c909301909152815191012090565b85858080601f016020809104026020016040519081016040528093929190818152602001838380828437600092019190915250613ea092505050565b6001600160a01b0316149695505050505050565b60006001600160a01b038216613c205760405163561b93dd60e11b815260040160405180910390fd5b506001600160a01b0316600090815260056020526040902054600160c01b900467ffffffffffffffff1690565b6001600160a01b038216613c745760405163561b93dd60e11b815260040160405180910390fd5b6001600160a01b039091166000908152600560205260409020805467ffffffffffffffff909216600160c01b0277ffffffffffffffffffffffffffffffffffffffffffffffff909216919091179055565b606081613ce95750506040805180820190915260018152600360fc1b602082015290565b8160005b8115613d135780613cfd81614cc8565b9150613d0c9050600a83614c1d565b9150613ced565b60008167ffffffffffffffff811115613d3c57634e487b7160e01b600052604160045260246000fd5b6040519080825280601f01601f191660200182016040528015613d66576020820181803683370190505b5090505b841561363857613d7b600183614c50565b9150613d88600a86614d03565b613d93906030614bbd565b60f81b818381518110613db657634e487b7160e01b600052603260045260246000fd5b60200101907effffffffffffffffffffffffffffffffffffffffffffffffffffffffffffff1916908160001a905350613df0600a86614c1d565b9450613d6a565b610c748383836001613ec4565b6000613e128260ff1661330c565b600e5481519192506001600160a01b03918216911614613e845760405162461bcd60e51b815260206004820152602760248201527f7468697320697320776f726b206f6e6c7920666f72206465666920746974616e6044820152662061737365747360c81b6064820152608401610cc8565b600e546122c790309060ff8516906001600160a01b0316612f85565b6000806000613eaf8585614095565b91509150613ebc81614105565b509392505050565b6000546001600160a01b038516613eed57604051622e076360e81b815260040160405180910390fd5b83613f0b5760405163b562e8dd60e01b815260040160405180910390fd5b6001600160a01b038516600081815260056020908152604080832080546fffffffffffffffffffffffffffffffff19811667ffffffffffffffff8083168c0181169182176801000000000000000067ffffffffffffffff1990941690921783900481168c01811690920217909155858452600490925290912080546001600160e01b031916909217600160a01b429092169190910217905580808501838015613fbd57506001600160a01b0387163b15155b15614046575b60405182906001600160a01b038916906000907fddf252ad1be2c89b69c2b068fc378daa952ba7f163c4a11628f55a4df523b3ef908290a461400e6000888480600101955088613a23565b61402b576040516368d2bf6b60e11b815260040160405180910390fd5b80821415613fc357826000541461404157600080fd5b61408c565b5b6040516001830192906001600160a01b038916906000907fddf252ad1be2c89b69c2b068fc378daa952ba7f163c4a11628f55a4df523b3ef908290a480821415614047575b50600055610f24565b6000808251604114156140cc5760208301516040840151606085015160001a6140c087828585614306565b945094505050506140fe565b8251604014156140f657602083015160408401516140eb8683836143f3565b9350935050506140fe565b506000905060025b9250929050565b600081600481111561412757634e487b7160e01b600052602160045260246000fd5b14156141305750565b600181600481111561415257634e487b7160e01b600052602160045260246000fd5b14156141a05760405162461bcd60e51b815260206004820152601860248201527f45434453413a20696e76616c6964207369676e617475726500000000000000006044820152606401610cc8565b60028160048111156141c257634e487b7160e01b600052602160045260246000fd5b14156142105760405162461bcd60e51b815260206004820152601f60248201527f45434453413a20696e76616c6964207369676e6174757265206c656e677468006044820152606401610cc8565b600381600481111561423257634e487b7160e01b600052602160045260246000fd5b141561428b5760405162461bcd60e51b815260206004820152602260248201527f45434453413a20696e76616c6964207369676e6174757265202773272076616c604482015261756560f01b6064820152608401610cc8565b60048160048111156142ad57634e487b7160e01b600052602160045260246000fd5b14156110ca5760405162461bcd60e51b815260206004820152602260248201527f45434453413a20696e76616c6964207369676e6174757265202776272076616c604482015261756560f01b6064820152608401610cc8565b6000807f7fffffffffffffffffffffffffffffff5d576e7357a4501ddfe92f46681b20a083111561433d57506000905060036143ea565b8460ff16601b1415801561435557508460ff16601c14155b1561436657506000905060046143ea565b6040805160008082526020820180845289905260ff881692820192909252606081018690526080810185905260019060a0016020604051602081039080840390855afa1580156143ba573d6000803e3d6000fd5b5050604051601f1901519150506001600160a01b0381166143e3576000600192509250506143ea565b9150600090505b94509492505050565b6000807f7fffffffffffffffffffffffffffffffffffffffffffffffffffffffffffffff83168161442960ff86901c601b614bbd565b905061443787828885614306565b935093505050935093915050565b82805461445190614c93565b90600052602060002090601f01602090048101928261447357600085556144b9565b82601f1061448c57805160ff19168380011785556144b9565b828001600101855582156144b9579182015b828111156144b957825182559160200191906001019061449e565b506117a69291505b808211156117a657600081556001016144c1565b600067ffffffffffffffff808411156144f0576144f0614d43565b604051601f8501601f19908116603f0116810190828211818310171561451857614518614d43565b8160405280935085815286868601111561453157600080fd5b858560208301376000602087830101525050509392505050565b80356001600160a01b0381168114611a8c57600080fd5b80358015158114611a8c57600080fd5b600082601f830112614582578081fd5b614591838335602085016144d5565b9392505050565b803561ffff81168114611a8c57600080fd5b803560ff81168114611a8c57600080fd5b6000602082840312156145cc578081fd5b6145918261454b565b600080604083850312156145e7578081fd5b6145f08361454b565b9150610f686020840161454b565b600080600060608486031215614612578081fd5b61461b8461454b565b92506146296020850161454b565b9150604084013590509250925092565b6000806000806080858703121561464e578081fd5b6146578561454b565b93506146656020860161454b565b925060408501359150606085013567ffffffffffffffff811115614687578182fd5b8501601f81018713614697578182fd5b6146a6878235602084016144d5565b91505092959194509250565b600080604083850312156146c4578182fd5b6146cd8361454b565b9150610f6860208401614562565b600080604083850312156146ed578182fd5b6146f68361454b565b946020939093013593505050565b60008060008060008060a0878903121561471c578182fd5b6147258761454b565b9550614733602088016145aa565b9450604087013567ffffffffffffffff8082168214614750578384fd5b90945060608801359060028210614765578384fd5b9093506080880135908082111561477a578384fd5b818901915089601f83011261478d578384fd5b81358181111561479b578485fd5b8a60208285010111156147ac578485fd5b6020830194508093505050509295509295509295565b600080602083850312156147d4578182fd5b823567ffffffffffffffff808211156147eb578384fd5b818501915085601f8301126147fe578384fd5b81358181111561480c578485fd5b8660208260071b8501011115614820578485fd5b60209290920196919550909350505050565b600060208284031215614843578081fd5b813561459181614d59565b60006020828403121561485f578081fd5b815161459181614d59565b60006020828403121561487b578081fd5b813567ffffffffffffffff811115614891578182fd5b61363884828501614572565b6000806000606084860312156148b1578081fd5b833567ffffffffffffffff8111156148c7578182fd5b6148d386828701614572565b9350506148e260208501614598565b91506148f060408501614562565b90509250925092565b60006080828403121561490a578081fd5b6040516080810181811067ffffffffffffffff8211171561492d5761492d614d43565b8060405250823581526020830135602082015260408301356040820152606083013560608201528091505092915050565b60006020828403121561496f578081fd5b61459182614598565b600060208284031215614989578081fd5b5035919050565b600080604083850312156149a2578182fd5b50508035926020909101359150565b6000602082840312156149c2578081fd5b614591826145aa565b600081518084526149e3816020860160208601614c67565b601f01601f19169290920160200192915050565b8054600090600181811c9080831680614a1157607f831692505b6020808410821415614a3157634e487b7160e01b86526022600452602486fd5b818015614a455760018114614a5657614a83565b60ff19861689528489019650614a83565b60008881526020902060005b86811015614a7b5781548b820152908501908301614a62565b505084890196505b50505050505092915050565b606084901b6bffffffffffffffffffffffff1916815260f883901b7fff00000000000000000000000000000000000000000000000000000000000000166014820152600060028310614aef57634e487b7160e01b81526021600452602481fd5b5060f89190911b601582015260160192915050565b600061459182846149f7565b6000614b1c82856149f7565b8351614b2c818360208801614c67565b01949350505050565b60006001600160a01b03808716835280861660208401525083604083015260806060830152614b6760808301846149cb565b9695505050505050565b60208152600061459160208301846149cb565b606081526000614b9760608301866149cb565b8281036020840152614ba981866149cb565b90508281036040840152614b6781856149cb565b60008219821115614bd057614bd0614d17565b500190565b600067ffffffffffffffff808316818516808303821115614b2c57614b2c614d17565b600060ff821660ff84168060ff03821115614c1557614c15614d17565b019392505050565b600082614c2c57614c2c614d2d565b500490565b6000816000190483118215151615614c4b57614c4b614d17565b500290565b600082821015614c6257614c62614d17565b500390565b60005b83811015614c82578181015183820152602001614c6a565b838111156125de5750506000910152565b600181811c90821680614ca757607f821691505b60208210811415612d7157634e487b7160e01b600052602260045260246000fd5b6000600019821415614cdc57614cdc614d17565b5060010190565b600060ff821660ff811415614cfa57614cfa614d17565b60010192915050565b600082614d1257614d12614d2d565b500690565b634e487b7160e01b600052601160045260246000fd5b634e487b7160e01b600052601260045260246000fd5b634e487b7160e01b600052604160045260246000fd5b6001600160e01b0319811681146110ca57600080fdfea26469706673582212203dfa30ce105e9f63f8d6b6570aaea200185d3d0e024f696d8f6e2c7fb4884ce764736f6c63430008040033",
  "linkReferences": {},
  "deployedLinkReferences": {}
}