{
  "_format": "hh-sol-artifact-1",
  "contractName": "NFT",
  "sourceName": "src/contracts/NFT.sol",
  "abi": [
    {
      "inputs": [
        {
          "internalType": "uint16",
          "name": "maxSupply_",
          "type": "uint16"
        },
        {
          "components": [
            {
              "internalType": "address",
              "name": "OWNER",
              "type": "address"
            },
            {
              "internalType": "address",
              "name": "PLATFORM",
              "type": "address"
            },
            {
              "internalType": "address",
              "name": "DECENTRAL_TITAN",
              "type": "address"
            },
            {
              "internalType": "address",
              "name": "BUY_BACK_TREASURY_CONTRACT",
              "type": "address"
            },
            {
              "internalType": "address",
              "name": "WHITE_LIST_VERIFIER",
              "type": "address"
            },
            {
              "internalType": "address",
              "name": "ROYALTY_DISTRIBUTOR_CONTRACT",
              "type": "address"
            }
          ],
          "internalType": "struct NFT.ContractAddresses",
          "name": "addresses_",
          "type": "tuple"
        },
        {
          "internalType": "string",
          "name": "godCID_",
          "type": "string"
        },
        {
          "internalType": "string",
          "name": "notRevealedArtCID_",
          "type": "string"
        },
        {
          "components": [
            {
              "internalType": "uint256",
              "name": "MINT_PRICE_IN_WEI",
              "type": "uint256"
            },
            {
              "internalType": "uint16",
              "name": "MAX_MINT_PER_ADDRESS",
              "type": "uint16"
            },
            {
              "internalType": "uint256",
              "name": "AUCTION_START_TIME",
              "type": "uint256"
            },
            {
              "internalType": "uint256",
              "name": "AUCTION_DURATION",
              "type": "uint256"
            },
            {
              "internalType": "uint8",
              "name": "NUMBER_OF_TOKEN_FOR_AUCTION",
              "type": "uint8"
            },
            {
              "internalType": "uint8",
              "name": "ROYALTY_FEE_PERCENT",
              "type": "uint8"
            }
          ],
          "internalType": "struct NFT.ContactMintConfig",
          "name": "mintConfig_",
          "type": "tuple"
        },
        {
          "internalType": "uint256",
          "name": "upgradeRequestFeeInWei_",
          "type": "uint256"
        }
      ],
      "stateMutability": "nonpayable",
      "type": "constructor"
    },
    {
      "inputs": [],
      "name": "ApprovalCallerNotOwnerNorApproved",
      "type": "error"
    },
    {
      "inputs": [],
      "name": "ApprovalQueryForNonexistentToken",
      "type": "error"
    },
    {
      "inputs": [],
      "name": "ApprovalToCurrentOwner",
      "type": "error"
    },
    {
      "inputs": [],
      "name": "ApproveToCaller",
      "type": "error"
    },
    {
      "inputs": [],
      "name": "AuxQueryForZeroAddress",
      "type": "error"
    },
    {
      "inputs": [],
      "name": "BalanceQueryForZeroAddress",
      "type": "error"
    },
    {
      "inputs": [],
      "name": "MintToZeroAddress",
      "type": "error"
    },
    {
      "inputs": [],
      "name": "MintZeroQuantity",
      "type": "error"
    },
    {
      "inputs": [],
      "name": "MintedQueryForZeroAddress",
      "type": "error"
    },
    {
      "inputs": [],
      "name": "OwnerQueryForNonexistentToken",
      "type": "error"
    },
    {
      "inputs": [],
      "name": "TransferCallerNotOwnerNorApproved",
      "type": "error"
    },
    {
      "inputs": [],
      "name": "TransferFromIncorrectOwner",
      "type": "error"
    },
    {
      "inputs": [],
      "name": "TransferToNonERC721ReceiverImplementer",
      "type": "error"
    },
    {
      "inputs": [],
      "name": "TransferToZeroAddress",
      "type": "error"
    },
    {
      "anonymous": false,
      "inputs": [
        {
          "indexed": true,
          "internalType": "address",
          "name": "owner",
          "type": "address"
        },
        {
          "indexed": true,
          "internalType": "address",
          "name": "approved",
          "type": "address"
        },
        {
          "indexed": true,
          "internalType": "uint256",
          "name": "tokenId",
          "type": "uint256"
        }
      ],
      "name": "Approval",
      "type": "event"
    },
    {
      "anonymous": false,
      "inputs": [
        {
          "indexed": true,
          "internalType": "address",
          "name": "owner",
          "type": "address"
        },
        {
          "indexed": true,
          "internalType": "address",
          "name": "operator",
          "type": "address"
        },
        {
          "indexed": false,
          "internalType": "bool",
          "name": "approved",
          "type": "bool"
        }
      ],
      "name": "ApprovalForAll",
      "type": "event"
    },
    {
      "anonymous": false,
      "inputs": [
        {
          "indexed": true,
          "internalType": "address",
          "name": "previousOwner",
          "type": "address"
        },
        {
          "indexed": true,
          "internalType": "address",
          "name": "newOwner",
          "type": "address"
        }
      ],
      "name": "OwnershipTransferred",
      "type": "event"
    },
    {
      "anonymous": false,
      "inputs": [
        {
          "indexed": false,
          "internalType": "uint16",
          "name": "_token",
          "type": "uint16"
        }
      ],
      "name": "TokenUpgraded",
      "type": "event"
    },
    {
      "anonymous": false,
      "inputs": [
        {
          "indexed": true,
          "internalType": "address",
          "name": "from",
          "type": "address"
        },
        {
          "indexed": true,
          "internalType": "address",
          "name": "to",
          "type": "address"
        },
        {
          "indexed": true,
          "internalType": "uint256",
          "name": "tokenId",
          "type": "uint256"
        }
      ],
      "name": "Transfer",
      "type": "event"
    },
    {
      "anonymous": false,
      "inputs": [
        {
          "indexed": false,
          "internalType": "uint16",
          "name": "_token",
          "type": "uint16"
        },
        {
          "indexed": false,
          "internalType": "uint256",
          "name": "_value",
          "type": "uint256"
        }
      ],
      "name": "UpgradeRequestPayment",
      "type": "event"
    },
    {
      "stateMutability": "payable",
      "type": "fallback"
    },
    {
      "inputs": [],
      "name": "ADDRESS",
      "outputs": [
        {
          "internalType": "address",
          "name": "OWNER",
          "type": "address"
        },
        {
          "internalType": "address",
          "name": "PLATFORM",
          "type": "address"
        },
        {
          "internalType": "address",
          "name": "DECENTRAL_TITAN",
          "type": "address"
        },
        {
          "internalType": "address",
          "name": "BUY_BACK_TREASURY_CONTRACT",
          "type": "address"
        },
        {
          "internalType": "address",
          "name": "WHITE_LIST_VERIFIER",
          "type": "address"
        },
        {
          "internalType": "address",
          "name": "ROYALTY_DISTRIBUTOR_CONTRACT",
          "type": "address"
        }
      ],
      "stateMutability": "view",
      "type": "function"
    },
    {
      "inputs": [
        {
          "internalType": "uint8",
          "name": "",
          "type": "uint8"
        }
      ],
      "name": "AUCTIONS",
      "outputs": [
        {
          "internalType": "uint8",
          "name": "TOKEN_ID",
          "type": "uint8"
        },
        {
          "internalType": "uint256",
          "name": "START_TIME",
          "type": "uint256"
        },
        {
          "internalType": "uint256",
          "name": "EXPIRE_AT",
          "type": "uint256"
        },
        {
          "internalType": "uint256",
          "name": "START_PRICE",
          "type": "uint256"
        },
        {
          "internalType": "uint256",
          "name": "END_PRICE",
          "type": "uint256"
        },
        {
          "internalType": "uint256",
          "name": "AUCTION_DROP_INTERVAL",
          "type": "uint256"
        },
        {
          "internalType": "uint256",
          "name": "AUCTION_DROP_PER_STEP",
          "type": "uint256"
        },
        {
          "internalType": "bool",
          "name": "IS_SOLD",
          "type": "bool"
        }
      ],
      "stateMutability": "view",
      "type": "function"
    },
    {
      "inputs": [],
      "name": "IPFS",
      "outputs": [
        {
          "internalType": "string",
          "name": "GOD_CID",
          "type": "string"
        },
        {
          "internalType": "string",
          "name": "NOT_REVEALED_ART_CID",
          "type": "string"
        },
        {
          "internalType": "string",
          "name": "ART_CID",
          "type": "string"
        }
      ],
      "stateMutability": "view",
      "type": "function"
    },
    {
      "inputs": [],
      "name": "MAX_SUPPLY",
      "outputs": [
        {
          "internalType": "uint16",
          "name": "",
          "type": "uint16"
        }
      ],
      "stateMutability": "view",
      "type": "function"
    },
    {
      "inputs": [],
      "name": "MINTING_CONFIG",
      "outputs": [
        {
          "internalType": "uint256",
          "name": "MINT_PRICE_IN_WEI",
          "type": "uint256"
        },
        {
          "internalType": "uint16",
          "name": "MAX_MINT_PER_ADDRESS",
          "type": "uint16"
        },
        {
          "internalType": "uint256",
          "name": "AUCTION_START_TIME",
          "type": "uint256"
        },
        {
          "internalType": "uint256",
          "name": "AUCTION_DURATION",
          "type": "uint256"
        },
        {
          "internalType": "uint8",
          "name": "NUMBER_OF_TOKEN_FOR_AUCTION",
          "type": "uint8"
        },
        {
          "internalType": "uint8",
          "name": "ROYALTY_FEE_PERCENT",
          "type": "uint8"
        }
      ],
      "stateMutability": "view",
      "type": "function"
    },
    {
      "inputs": [],
      "name": "STATE",
      "outputs": [
        {
          "internalType": "bool",
          "name": "INITIALIZED",
          "type": "bool"
        },
        {
          "internalType": "bool",
          "name": "AUCTION_IS_ACTIVE",
          "type": "bool"
        },
        {
          "internalType": "bool",
          "name": "WHITE_LIST_MINTING_IS_ACTIVE",
          "type": "bool"
        },
        {
          "internalType": "bool",
          "name": "MINTING_IS_ACTIVE",
          "type": "bool"
        },
        {
          "internalType": "bool",
          "name": "ART_IS_REVEALED",
          "type": "bool"
        },
        {
          "internalType": "bool",
          "name": "FINISHED",
          "type": "bool"
        }
      ],
      "stateMutability": "view",
      "type": "function"
    },
    {
      "inputs": [
        {
          "internalType": "uint16",
          "name": "",
          "type": "uint16"
        }
      ],
      "name": "TOKEN_IS_GOD",
      "outputs": [
        {
          "internalType": "bool",
          "name": "",
          "type": "bool"
        }
      ],
      "stateMutability": "view",
      "type": "function"
    },
    {
      "inputs": [
        {
          "internalType": "uint16",
          "name": "",
          "type": "uint16"
        }
      ],
      "name": "TOKEN_IS_UPGRADED",
      "outputs": [
        {
          "internalType": "bool",
          "name": "",
          "type": "bool"
        }
      ],
      "stateMutability": "view",
      "type": "function"
    },
    {
      "inputs": [],
      "name": "UPGRADE_REQUEST_FEE_IN_WEI",
      "outputs": [
        {
          "internalType": "uint256",
          "name": "",
          "type": "uint256"
        }
      ],
      "stateMutability": "view",
      "type": "function"
    },
    {
      "inputs": [
        {
          "internalType": "uint256",
          "name": "",
          "type": "uint256"
        }
      ],
      "name": "UPGRADE_REQUEST_FEE_IS_PAID",
      "outputs": [
        {
          "internalType": "bool",
          "name": "",
          "type": "bool"
        }
      ],
      "stateMutability": "view",
      "type": "function"
    },
    {
      "inputs": [
        {
          "internalType": "address",
          "name": "to",
          "type": "address"
        },
        {
          "internalType": "uint256",
          "name": "tokenId",
          "type": "uint256"
        }
      ],
      "name": "approve",
      "outputs": [],
      "stateMutability": "nonpayable",
      "type": "function"
    },
    {
      "inputs": [
        {
          "internalType": "address",
          "name": "owner",
          "type": "address"
        }
      ],
      "name": "balanceOf",
      "outputs": [
        {
          "internalType": "uint256",
          "name": "",
          "type": "uint256"
        }
      ],
      "stateMutability": "view",
      "type": "function"
    },
    {
      "inputs": [
        {
          "internalType": "uint8",
          "name": "day",
          "type": "uint8"
        }
      ],
      "name": "buyAGodInAuction",
      "outputs": [],
      "stateMutability": "payable",
      "type": "function"
    },
    {
      "inputs": [
        {
          "internalType": "uint16",
          "name": "tokenId",
          "type": "uint16"
        }
      ],
      "name": "buyBackToken",
      "outputs": [],
      "stateMutability": "nonpayable",
      "type": "function"
    },
    {
      "inputs": [],
      "name": "finishAuction",
      "outputs": [],
      "stateMutability": "nonpayable",
      "type": "function"
    },
    {
      "inputs": [],
      "name": "finishMinting",
      "outputs": [],
      "stateMutability": "nonpayable",
      "type": "function"
    },
    {
      "inputs": [
        {
          "internalType": "uint256",
          "name": "tokenId",
          "type": "uint256"
        }
      ],
      "name": "getApproved",
      "outputs": [
        {
          "internalType": "address",
          "name": "",
          "type": "address"
        }
      ],
      "stateMutability": "view",
      "type": "function"
    },
    {
      "inputs": [
        {
          "internalType": "uint8",
          "name": "day",
          "type": "uint8"
        }
      ],
      "name": "getAuctionPrice",
      "outputs": [
        {
          "internalType": "uint256",
          "name": "",
          "type": "uint256"
        }
      ],
      "stateMutability": "view",
      "type": "function"
    },
    {
      "inputs": [
        {
          "components": [
            {
              "internalType": "uint256",
              "name": "START_PRICE",
              "type": "uint256"
            },
            {
              "internalType": "uint256",
              "name": "END_PRICE",
              "type": "uint256"
            },
            {
              "internalType": "uint256",
              "name": "AUCTION_DROP_INTERVAL",
              "type": "uint256"
            },
            {
              "internalType": "uint256",
              "name": "AUCTION_DROP_PER_STEP",
              "type": "uint256"
            }
          ],
          "internalType": "struct NFT.AuctionConfig[]",
          "name": "configs",
          "type": "tuple[]"
        }
      ],
      "name": "initializer",
      "outputs": [],
      "stateMutability": "nonpayable",
      "type": "function"
    },
    {
      "inputs": [
        {
          "internalType": "address",
          "name": "owner",
          "type": "address"
        },
        {
          "internalType": "address",
          "name": "operator",
          "type": "address"
        }
      ],
      "name": "isApprovedForAll",
      "outputs": [
        {
          "internalType": "bool",
          "name": "",
          "type": "bool"
        }
      ],
      "stateMutability": "view",
      "type": "function"
    },
    {
      "inputs": [
        {
          "internalType": "address",
          "name": "account_",
          "type": "address"
        },
        {
          "internalType": "uint8",
          "name": "maxQuantity_",
          "type": "uint8"
        },
        {
          "internalType": "enum NFT.WhiteListType",
          "name": "whiteListType_",
          "type": "uint8"
        },
        {
          "internalType": "bytes",
          "name": "sig_",
          "type": "bytes"
        }
      ],
      "name": "isWhitelisted",
      "outputs": [
        {
          "internalType": "bool",
          "name": "",
          "type": "bool"
        }
      ],
      "stateMutability": "view",
      "type": "function"
    },
    {
      "inputs": [],
      "name": "name",
      "outputs": [
        {
          "internalType": "string",
          "name": "",
          "type": "string"
        }
      ],
      "stateMutability": "view",
      "type": "function"
    },
    {
      "inputs": [],
      "name": "nextOwnerToExplicitlySet",
      "outputs": [
        {
          "internalType": "uint256",
          "name": "",
          "type": "uint256"
        }
      ],
      "stateMutability": "view",
      "type": "function"
    },
    {
      "inputs": [],
      "name": "owner",
      "outputs": [
        {
          "internalType": "address",
          "name": "",
          "type": "address"
        }
      ],
      "stateMutability": "view",
      "type": "function"
    },
    {
      "inputs": [
        {
          "internalType": "uint256",
          "name": "tokenId",
          "type": "uint256"
        }
      ],
      "name": "ownerOf",
      "outputs": [
        {
          "internalType": "address",
          "name": "",
          "type": "address"
        }
      ],
      "stateMutability": "view",
      "type": "function"
    },
    {
      "inputs": [
        {
          "internalType": "uint256",
          "name": "quantity",
          "type": "uint256"
        }
      ],
      "name": "publicMint",
      "outputs": [],
      "stateMutability": "payable",
      "type": "function"
    },
    {
      "inputs": [],
      "name": "renounceOwnership",
      "outputs": [],
      "stateMutability": "nonpayable",
      "type": "function"
    },
    {
      "inputs": [
        {
          "internalType": "string",
          "name": "ipfsCid",
          "type": "string"
        }
      ],
      "name": "revealArt",
      "outputs": [],
      "stateMutability": "nonpayable",
      "type": "function"
    },
    {
      "inputs": [
        {
          "internalType": "uint256",
          "name": "",
          "type": "uint256"
        },
        {
          "internalType": "uint256",
          "name": "value",
          "type": "uint256"
        }
      ],
      "name": "royaltyInfo",
      "outputs": [
        {
          "internalType": "address",
          "name": "receiver",
          "type": "address"
        },
        {
          "internalType": "uint256",
          "name": "royaltyAmount",
          "type": "uint256"
        }
      ],
      "stateMutability": "view",
      "type": "function"
    },
    {
      "inputs": [
        {
          "internalType": "address",
          "name": "from",
          "type": "address"
        },
        {
          "internalType": "address",
          "name": "to",
          "type": "address"
        },
        {
          "internalType": "uint256",
          "name": "tokenId",
          "type": "uint256"
        }
      ],
      "name": "safeTransferFrom",
      "outputs": [],
      "stateMutability": "nonpayable",
      "type": "function"
    },
    {
      "inputs": [
        {
          "internalType": "address",
          "name": "from",
          "type": "address"
        },
        {
          "internalType": "address",
          "name": "to",
          "type": "address"
        },
        {
          "internalType": "uint256",
          "name": "tokenId",
          "type": "uint256"
        },
        {
          "internalType": "bytes",
          "name": "_data",
          "type": "bytes"
        }
      ],
      "name": "safeTransferFrom",
      "outputs": [],
      "stateMutability": "nonpayable",
      "type": "function"
    },
    {
      "inputs": [
        {
          "internalType": "address",
          "name": "operator",
          "type": "address"
        },
        {
          "internalType": "bool",
          "name": "approved",
          "type": "bool"
        }
      ],
      "name": "setApprovalForAll",
      "outputs": [],
      "stateMutability": "nonpayable",
      "type": "function"
    },
    {
      "inputs": [
        {
          "internalType": "address",
          "name": "buyBackTreasury_",
          "type": "address"
        }
      ],
      "name": "setBuyBackTreasury",
      "outputs": [],
      "stateMutability": "nonpayable",
      "type": "function"
    },
    {
      "inputs": [
        {
          "internalType": "uint256",
          "name": "quantity",
          "type": "uint256"
        }
      ],
      "name": "setOwnersExplicit",
      "outputs": [],
      "stateMutability": "nonpayable",
      "type": "function"
    },
    {
      "inputs": [
        {
          "internalType": "address",
          "name": "platform_",
          "type": "address"
        }
      ],
      "name": "setPlatform",
      "outputs": [],
      "stateMutability": "nonpayable",
      "type": "function"
    },
    {
      "inputs": [
        {
          "internalType": "address",
          "name": "royaltyDistributerContract_",
          "type": "address"
        }
      ],
      "name": "setRoyaltyReceiver",
      "outputs": [],
      "stateMutability": "nonpayable",
      "type": "function"
    },
    {
      "inputs": [
        {
          "internalType": "uint256",
          "name": "upgradeRequestFeeInWei_",
          "type": "uint256"
        }
      ],
      "name": "setUpgradeRequestFeeInWei",
      "outputs": [],
      "stateMutability": "nonpayable",
      "type": "function"
    },
    {
      "inputs": [],
      "name": "startPublicMinting",
      "outputs": [],
      "stateMutability": "nonpayable",
      "type": "function"
    },
    {
      "inputs": [],
      "name": "startWhiteListMinting",
      "outputs": [],
      "stateMutability": "nonpayable",
      "type": "function"
    },
    {
      "inputs": [
        {
          "internalType": "bytes4",
          "name": "interfaceId",
          "type": "bytes4"
        }
      ],
      "name": "supportsInterface",
      "outputs": [
        {
          "internalType": "bool",
          "name": "",
          "type": "bool"
        }
      ],
      "stateMutability": "view",
      "type": "function"
    },
    {
      "inputs": [],
      "name": "symbol",
      "outputs": [
        {
          "internalType": "string",
          "name": "",
          "type": "string"
        }
      ],
      "stateMutability": "view",
      "type": "function"
    },
    {
      "inputs": [
        {
          "internalType": "uint256",
          "name": "index",
          "type": "uint256"
        }
      ],
      "name": "tokenByIndex",
      "outputs": [
        {
          "internalType": "uint256",
          "name": "",
          "type": "uint256"
        }
      ],
      "stateMutability": "view",
      "type": "function"
    },
    {
      "inputs": [
        {
          "internalType": "address",
          "name": "owner",
          "type": "address"
        },
        {
          "internalType": "uint256",
          "name": "index",
          "type": "uint256"
        }
      ],
      "name": "tokenOfOwnerByIndex",
      "outputs": [
        {
          "internalType": "uint256",
          "name": "",
          "type": "uint256"
        }
      ],
      "stateMutability": "view",
      "type": "function"
    },
    {
      "inputs": [
        {
          "internalType": "uint256",
          "name": "tokenId_",
          "type": "uint256"
        }
      ],
      "name": "tokenURI",
      "outputs": [
        {
          "internalType": "string",
          "name": "",
          "type": "string"
        }
      ],
      "stateMutability": "view",
      "type": "function"
    },
    {
      "inputs": [],
      "name": "totalSupply",
      "outputs": [
        {
          "internalType": "uint256",
          "name": "",
          "type": "uint256"
        }
      ],
      "stateMutability": "view",
      "type": "function"
    },
    {
      "inputs": [
        {
          "internalType": "address",
          "name": "from",
          "type": "address"
        },
        {
          "internalType": "address",
          "name": "to",
          "type": "address"
        },
        {
          "internalType": "uint256",
          "name": "tokenId",
          "type": "uint256"
        }
      ],
      "name": "transferFrom",
      "outputs": [],
      "stateMutability": "nonpayable",
      "type": "function"
    },
    {
      "inputs": [
        {
          "internalType": "address",
          "name": "newOwner",
          "type": "address"
        }
      ],
      "name": "transferOwnership",
      "outputs": [],
      "stateMutability": "nonpayable",
      "type": "function"
    },
    {
      "inputs": [
        {
          "internalType": "string",
          "name": "ipfsCid",
          "type": "string"
        },
        {
          "internalType": "uint16",
          "name": "tokenId",
          "type": "uint16"
        },
        {
          "internalType": "bool",
          "name": "isGodNow",
          "type": "bool"
        }
      ],
      "name": "upgradeToken",
      "outputs": [],
      "stateMutability": "nonpayable",
      "type": "function"
    },
    {
      "inputs": [
        {
          "internalType": "uint16",
          "name": "tokenId",
          "type": "uint16"
        }
      ],
      "name": "upgradeTokenRequestFee",
      "outputs": [],
      "stateMutability": "payable",
      "type": "function"
    },
    {
      "inputs": [
        {
          "internalType": "address",
          "name": "addr_",
          "type": "address"
        },
        {
          "internalType": "uint8",
          "name": "maxQuantity_",
          "type": "uint8"
        },
        {
          "internalType": "uint8",
          "name": "quantity_",
          "type": "uint8"
        },
        {
          "internalType": "enum NFT.WhiteListType",
          "name": "whiteListType_",
          "type": "uint8"
        },
        {
          "internalType": "bytes",
          "name": "sig",
          "type": "bytes"
        }
      ],
      "name": "whitelistMinting",
      "outputs": [],
      "stateMutability": "payable",
      "type": "function"
    },
    {
      "stateMutability": "payable",
      "type": "receive"
    }
  ],
  "bytecode": "0x60a060405260006008553480156200001657600080fd5b50604051620054ba380380620054ba833981016040819052620000399162000464565b8451604080518082018252601181527044656d6d6f7274616c547265617375726560781b60208083019182528351808501909452600280855261111560f21b91850191909152825192939262000090929062000276565b508051620000a690600390602084019062000276565b50506000805550620000b88162000224565b506001600a5560f086901b6001600160f01b03191660809081526040805160c08101825260008082526020808301829052828401829052606080840183905283860183905260a093840192909252600c805465ffffffffffff191690558951600d80546001600160a01b03199081166001600160a01b03938416179091558b830151600e80548316918416919091179055948b0151600f80548716918316919091179055918a015160108054861691841691909117905593890151601180548516918316919091179055908801516012805490931691161790558451620001a6916013919087019062000276565b508251620001bc90601490602086019062000276565b50815160165560208201516017805461ffff90921661ffff19928316179055604083015160185560608301516019556080830151601a805460a09095015160ff9081166101000295909316929091169190911792909217909155600b55506200064192505050565b600980546001600160a01b038381166001600160a01b0319831681179093556040519116919082907f8be0079c531659141344cd1fd0a4f28419497f9722a3daafe3b4186f6b6457e090600090a35050565b8280546200028490620005ee565b90600052602060002090601f016020900481019282620002a85760008555620002f3565b82601f10620002c357805160ff1916838001178555620002f3565b82800160010185558215620002f3579182015b82811115620002f3578251825591602001919060010190620002d6565b506200030192915062000305565b5090565b5b8082111562000301576000815560010162000306565b80516001600160a01b03811681146200033457600080fd5b919050565b600082601f8301126200034a578081fd5b81516001600160401b038111156200036657620003666200062b565b60206200037c601f8301601f19168201620005bb565b828152858284870101111562000390578384fd5b835b83811015620003af57858101830151828201840152820162000392565b83811115620003c057848385840101525b5095945050505050565b600060c08284031215620003dc578081fd5b620003e662000590565b905081518152620003fa602083016200043f565b60208201526040820151604082015260608201516060820152620004216080830162000452565b60808201526200043460a0830162000452565b60a082015292915050565b805161ffff811681146200033457600080fd5b805160ff811681146200033457600080fd5b6000806000806000808688036102008112156200047f578283fd5b6200048a886200043f565b965060c0601f19820112156200049e578283fd5b50620004a962000590565b620004b7602089016200031c565b8152620004c7604089016200031c565b6020820152620004da606089016200031c565b6040820152620004ed608089016200031c565b60608201526200050060a089016200031c565b60808201526200051360c089016200031c565b60a082015260e08801519095506001600160401b038082111562000535578384fd5b620005438a838b0162000339565b95506101008901519150808211156200055a578384fd5b506200056989828a0162000339565b9350506200057c886101208901620003ca565b91506101e087015190509295509295509295565b60405160c081016001600160401b0381118282101715620005b557620005b56200062b565b60405290565b604051601f8201601f191681016001600160401b0381118282101715620005e657620005e66200062b565b604052919050565b600181811c908216806200060357607f821691505b602082108114156200062557634e487b7160e01b600052602260045260246000fd5b50919050565b634e487b7160e01b600052604160045260246000fd5b60805160f01c614e4c6200066e600039600081816106310152818161266501526137b30152614e4c6000f3fe60806040526004361061032d5760003560e01c80636945c5ea116101a5578063a0a4a5a2116100ec578063c486456c11610095578063d0b50d8e1161006f578063d0b50d8e14610b36578063d7224ba014610b56578063e985e9c514610b6c578063f2fde38b14610bb55761036d565b8063c486456c14610a7f578063c4f1634d14610b03578063c87b56dd14610b165761036d565b8063b51ce63d116100c6578063b51ce63d146109cb578063b533e75014610a4c578063b88d4fde14610a5f5761036d565b8063a0a4a5a21461095c578063a22cb4651461097c578063a50774601461099c5761036d565b80638da5cb5b1161014e57806397a9140c1161012857806397a9140c146109075780639b643f68146109275780639da058e9146109475761036d565b80638da5cb5b146108b45780638dc251e3146108d257806395d89b41146108f25761036d565b80637d64bcb41161017f5780637d64bcb41461084f57806389514543146108645780638abbe9e6146108845761036d565b80636945c5ea146107fa57806370a082311461081a578063715018a61461083a5761036d565b80632fa3ce7d116102745780634f6ccce71161021d57806361a0dedc116101f757806361a0dedc146107445780636352211e146107b157806364b1152f146107d1578063688d260e146107e45761036d565b80634f6ccce7146106e0578063543532191461070057806360dc13a9146107245761036d565b8063430ca46f1161024e578063430ca46f1461068657806348c3e15d1461069b5780634c0e123b146106cb5761036d565b80632fa3ce7d146105ff57806332cb6b0c1461061f57806342842e0e146106665761036d565b80631db16f20116102d65780632d20fb60116102b05780632d20fb60146105ac5780632db11544146105cc5780632f745c59146105df5761036d565b80631db16f201461052d57806323b872dd1461054d5780632a55205a1461056d5761036d565b8063081812fc11610307578063081812fc146104b0578063095ea7b3146104e857806318160ddd1461050a5761036d565b806301ffc9a7146103b5578063045cd554146103ea57806306fdde031461048e5761036d565b3661036d5760405162461bcd60e51b815260206004820152600b60248201526a139bdd08105b1b1bddd95960aa1b60448201526064015b60405180910390fd5b60405162461bcd60e51b815260206004820152601360248201527f43616c6c2056616c69642046756e6374696f6e000000000000000000000000006044820152606401610364565b3480156103c157600080fd5b506103d56103d03660046148dc565b610bd5565b60405190151581526020015b60405180910390f35b3480156103f657600080fd5b5061044d610405366004614a5b565b601f602052600090815260409020805460018201546002830154600384015460048501546005860154600687015460079097015460ff96871697959694959394929391921688565b6040805160ff90991689526020890197909752958701949094526060860192909252608085015260a084015260c0830152151560e0820152610100016103e1565b34801561049a57600080fd5b506104a3610c5d565b6040516103e19190614c1b565b3480156104bc57600080fd5b506104d06104cb366004614a22565b610cef565b6040516001600160a01b0390911681526020016103e1565b3480156104f457600080fd5b5061050861050336600461474b565b610d33565b005b34801561051657600080fd5b50600154600054035b6040519081526020016103e1565b34801561053957600080fd5b50610508610548366004614947565b610dc1565b34801561055957600080fd5b5061050861056836600461466e565b61103c565b34801561057957600080fd5b5061058d610588366004614a3a565b611047565b604080516001600160a01b0390931683526020830191909152016103e1565b3480156105b857600080fd5b506105086105c7366004614a22565b611082565b6105086105da366004614a22565b6110eb565b3480156105eb57600080fd5b5061051f6105fa36600461474b565b611211565b34801561060b57600080fd5b5061050861061a366004614a08565b6113b0565b34801561062b57600080fd5b506106537f000000000000000000000000000000000000000000000000000000000000000081565b60405161ffff90911681526020016103e1565b34801561067257600080fd5b5061050861068136600461466e565b611516565b34801561069257600080fd5b50610508611531565b3480156106a757600080fd5b506103d56106b6366004614a08565b601c6020526000908152604090205460ff1681565b3480156106d757600080fd5b50610508611667565b3480156106ec57600080fd5b5061051f6106fb366004614a22565b6117a0565b34801561070c57600080fd5b5061071561180d565b6040516103e193929190614c2e565b34801561073057600080fd5b5061051f61073f366004614a5b565b6119bb565b34801561075057600080fd5b50601654601754601854601954601a5461077b949361ffff1692919060ff8082169161010090041686565b6040805196875261ffff909516602087015293850192909252606084015260ff90811660808401521660a082015260c0016103e1565b3480156107bd57600080fd5b506104d06107cc366004614a22565b611af6565b6105086107df366004614a08565b611b08565b3480156107f057600080fd5b5061051f600b5481565b34801561080657600080fd5b5061050861081536600461462b565b611ced565b34801561082657600080fd5b5061051f61083536600461462b565b611d61565b34801561084657600080fd5b50610508611db0565b34801561085b57600080fd5b50610508611e04565b34801561087057600080fd5b5061050861087f366004614914565b611f02565b34801561089057600080fd5b506103d561089f366004614a08565b601e6020526000908152604090205460ff1681565b3480156108c057600080fd5b506009546001600160a01b03166104d0565b3480156108de57600080fd5b506105086108ed36600461462b565b612010565b3480156108fe57600080fd5b506104a36120ce565b34801561091357600080fd5b5061050861092236600461486c565b6120dd565b34801561093357600080fd5b506103d5610942366004614774565b6122e9565b34801561095357600080fd5b50610508612378565b34801561096857600080fd5b5061050861097736600461462b565b6124c8565b34801561098857600080fd5b50610508610997366004614722565b61253c565b3480156109a857600080fd5b506103d56109b7366004614a22565b602080526000908152604090205460ff1681565b3480156109d757600080fd5b50600d54600e54600f54601054601154601254610a0a956001600160a01b03908116958116948116938116928116911686565b604080516001600160a01b03978816815295871660208701529386169385019390935290841660608401528316608083015290911660a082015260c0016103e1565b610508610a5a3660046147e8565b6125d2565b348015610a6b57600080fd5b50610508610a7a3660046146a9565b612831565b348015610a8b57600080fd5b50600c54610aca9060ff808216916101008104821691620100008204811691630100000081048216916401000000008204811691600160281b90041686565b604080519615158752941515602087015292151593850193909352151560608401529015156080830152151560a082015260c0016103e1565b610508610b11366004614a5b565b612882565b348015610b2257600080fd5b506104a3610b31366004614a22565b612bde565b348015610b4257600080fd5b50610508610b51366004614a22565b612cf4565b348015610b6257600080fd5b5061051f60085481565b348015610b7857600080fd5b506103d5610b87366004614645565b6001600160a01b03918216600090815260076020908152604080832093909416825291909152205460ff1690565b348015610bc157600080fd5b50610508610bd036600461462b565b612dd6565b60006001600160e01b031982166380ac58cd60e01b1480610c0657506001600160e01b03198216635b5e139f60e01b145b80610c2157506001600160e01b0319821663780e9d6360e01b145b80610c3c57506001600160e01b0319821663152a902d60e11b145b80610c5757506301ffc9a760e01b6001600160e01b03198316145b92915050565b606060028054610c6c90614d1a565b80601f0160208091040260200160405190810160405280929190818152602001828054610c9890614d1a565b8015610ce55780601f10610cba57610100808354040283529160200191610ce5565b820191906000526020600020905b815481529060010190602001808311610cc857829003601f168201915b5050505050905090565b6000610cfa82612e8c565b610d17576040516333d1c03960e21b815260040160405180910390fd5b506000908152600660205260409020546001600160a01b031690565b6000610d3e82611af6565b9050806001600160a01b0316836001600160a01b03161415610d735760405163250fdee360e21b815260040160405180910390fd5b336001600160a01b03821614801590610d935750610d918133610b87565b155b15610db1576040516367d9dca160e11b815260040160405180910390fd5b610dbc838383612eb7565b505050565b600c54600160281b900460ff16610e095760405162461bcd60e51b815260206004820152600c60248201526b139bdd08119a5b9a5cda195960a21b6044820152606401610364565b600c5460ff16610e4d5760405162461bcd60e51b815260206004820152600f60248201526e139bdd08125b9a5d1a585b1a5e9959608a1b6044820152606401610364565b6009546001600160a01b03163314610e955760405162461bcd60e51b81526020600482018190526024820152600080516020614df78339815191526044820152606401610364565b61ffff82166000908152601e6020526040902054829060ff1615610ee95760405162461bcd60e51b815260206004820152600b60248201526a4f6e6c792048756d616e7360a81b6044820152606401610364565b835180610f275760405162461bcd60e51b815260206004820152600c60248201526b43494420697320656d70747960a01b6044820152606401610364565b61ffff8416600090815260208052604090205460ff16610f895760405162461bcd60e51b815260206004820152601c60248201527f55706772616465205265717565737420466565204e6f742050616964000000006044820152606401610364565b61ffff8416600090815260208080526040808320805460ff19169055601d82529091208651610fba92880190614466565b5061ffff84166000908152601c60205260409020805460ff191660011790558215610ffe5761ffff84166000908152601e60205260409020805460ff191660011790555b60405161ffff851681527f02375e2ab6ce816f82cbad1e57b14c842f3079a43885dcdfbdbebec69baee0c29060200160405180910390a15050505050565b610dbc838383612f13565b601b546001600160a01b0381169060009060649061106f90600160a01b900460ff1685614cb8565b6110799190614ca4565b90509250929050565b6002600a5414156110d55760405162461bcd60e51b815260206004820152601f60248201527f5265656e7472616e637947756172643a207265656e7472616e742063616c6c006044820152606401610364565b6002600a556110e381613128565b506001600a55565b600c546301000000900460ff166111345760405162461bcd60e51b815260206004820152600d60248201526c139bdd081058dd1a5d985d1959609a1b6044820152606401610364565b60175461ffff16816111453361330d565b61114f9190614c67565b111561119d5760405162461bcd60e51b815260206004820152601f60248201527f5265636569766520546f204d6178204d696e74205065722041646472657373006044820152606401610364565b60165434906111ac9083614cb8565b11156111ee5760405162461bcd60e51b81526020600482015260116024820152702737ba1022b737bab3b4399022ba3432b960791b6044820152606401610364565b6111f83382613368565b60105461120e906001600160a01b031634613382565b50565b600061121c83611d61565b82106112755760405162461bcd60e51b815260206004820152602260248201527f455243373231413a206f776e657220696e646578206f7574206f6620626f756e604482015261647360f01b6064820152608401610364565b60006112846001546000540390565b905060008060005b8381101561134157600081815260046020908152604091829020825160608101845290546001600160a01b038116808352600160a01b820467ffffffffffffffff1693830193909352600160e01b900460ff16151592810192909252156112f257805192505b876001600160a01b0316836001600160a01b0316141561132e578684141561132057509350610c5792505050565b8361132a81614d4f565b9450505b508061133981614d4f565b91505061128c565b5060405162461bcd60e51b815260206004820152602e60248201527f455243373231413a20756e61626c6520746f2067657420746f6b656e206f662060448201527f6f776e657220627920696e6465780000000000000000000000000000000000006064820152608401610364565b61ffff81166000908152601e6020526040902054819060ff16156114045760405162461bcd60e51b815260206004820152600b60248201526a4f6e6c792048756d616e7360a81b6044820152606401610364565b6002600a5414156114575760405162461bcd60e51b815260206004820152601f60248201527f5265656e7472616e637947756172643a207265656e7472616e742063616c6c006044820152606401610364565b6002600a5561146961ffff8316612e8c565b6114a85760405162461bcd60e51b815260206004820152601060248201526f546f6b656e204e6f742045786973747360801b6044820152606401610364565b60006114b78361ffff16613425565b80519091506001600160a01b031633146114ff5760405162461bcd60e51b81526020600482015260096024820152682737ba1027bbb732b960b91b6044820152606401610364565b61150c8361ffff16613541565b50506001600a5550565b610dbc83838360405180602001604052806000815250612831565b600f546001600160a01b031633146115825760405162461bcd60e51b815260206004820152601460248201527327b7363c902222a1a2a72a2920a62faa24aa20a760611b6044820152606401610364565b600c54600160281b900460ff16156115cf5760405162461bcd60e51b815260206004820152601060248201526f105b1c9958591e48119a5b9a5cda195960821b6044820152606401610364565b600c5460ff166116135760405162461bcd60e51b815260206004820152600f60248201526e139bdd08125b9a5d1a585b1a5e9959608a1b6044820152606401610364565b600c54610100900460ff1661165a5760405162461bcd60e51b815260206004820152600d60248201526c139bdd081058dd1a5d985d1959609a1b6044820152606401610364565b600c805461ff0019169055565b6009546001600160a01b031633146116af5760405162461bcd60e51b81526020600482018190526024820152600080516020614df78339815191526044820152606401610364565b600c5460ff166116f35760405162461bcd60e51b815260206004820152600f60248201526e139bdd08125b9a5d1a585b1a5e9959608a1b6044820152606401610364565b600c54600160281b900460ff16156117405760405162461bcd60e51b815260206004820152601060248201526f105b1c9958591e48119a5b9a5cda195960821b6044820152606401610364565b600c5462010000900460ff161561178d5760405162461bcd60e51b8152602060048201526011602482015270105b1c9958591e481058dd1a5d985d1959607a1b6044820152606401610364565b600c805462ff0000191662010000179055565b60006117af6001546000540390565b82106118095760405162461bcd60e51b815260206004820152602360248201527f455243373231413a20676c6f62616c20696e646578206f7574206f6620626f756044820152626e647360e81b6064820152608401610364565b5090565b60138054819061181c90614d1a565b80601f016020809104026020016040519081016040528092919081815260200182805461184890614d1a565b80156118955780601f1061186a57610100808354040283529160200191611895565b820191906000526020600020905b81548152906001019060200180831161187857829003601f168201915b5050505050908060010180546118aa90614d1a565b80601f01602080910402602001604051908101604052809291908181526020018280546118d690614d1a565b80156119235780601f106118f857610100808354040283529160200191611923565b820191906000526020600020905b81548152906001019060200180831161190657829003601f168201915b50505050509080600201805461193890614d1a565b80601f016020809104026020016040519081016040528092919081815260200182805461196490614d1a565b80156119b15780601f10611986576101008083540402835291602001916119b1565b820191906000526020600020905b81548152906001019060200180831161199457829003601f168201915b5050505050905083565b600c54600090610100900460ff16611a055760405162461bcd60e51b815260206004820152600d60248201526c139bdd081058dd1a5d985d1959609a1b6044820152606401610364565b8160ff16600111158015611a225750601a5460ff90811690831611155b611a6e5760405162461bcd60e51b815260206004820152601360248201527f646179206973206f7574206f662072616e6765000000000000000000000000006044820152606401610364565b60ff8083166000908152601f60209081526040918290208251610100810184528154851681526001820154928101929092526002810154928201929092526003820154606082015260048201546080820152600582015460a0820152600682015460c0820152600790910154909116151560e0820152611aed816136e0565b9150505b919050565b6000611b0182613425565b5192915050565b600c54600160281b900460ff16611b505760405162461bcd60e51b815260206004820152600c60248201526b139bdd08119a5b9a5cda195960a21b6044820152606401610364565b600c5460ff16611b945760405162461bcd60e51b815260206004820152600f60248201526e139bdd08125b9a5d1a585b1a5e9959608a1b6044820152606401610364565b61ffff81166000908152601e6020526040902054819060ff1615611be85760405162461bcd60e51b815260206004820152600b60248201526a4f6e6c792048756d616e7360a81b6044820152606401610364565b611bf58261ffff16612e8c565b611c345760405162461bcd60e51b815260206004820152601060248201526f546f6b656e204e6f742045786973747360801b6044820152606401610364565b34600b541115611c7a5760405162461bcd60e51b81526020600482015260116024820152702737ba1022b737bab3b4399022ba3432b960791b6044820152606401610364565b61ffff821660009081526020805260409020805460ff19166001179055600e54611cad906001600160a01b031634613382565b6040805161ffff841681523460208201527f0154c2dfb98437384198b52913095489510f87da0fcc18a7a76717706e1d0085910160405180910390a15050565b600e546001600160a01b03163314611d3f5760405162461bcd60e51b81526020600482015260156024820152744f6e6c7920506c6174666f726d204164647265737360581b6044820152606401610364565b600e80546001600160a01b0319166001600160a01b0392909216919091179055565b60006001600160a01b038216611d8a576040516323d3ad8160e21b815260040160405180910390fd5b506001600160a01b031660009081526005602052604090205467ffffffffffffffff1690565b6009546001600160a01b03163314611df85760405162461bcd60e51b81526020600482018190526024820152600080516020614df78339815191526044820152606401610364565b611e026000613759565b565b600f546001600160a01b03163314611e555760405162461bcd60e51b815260206004820152601460248201527327b7363c902222a1a2a72a2920a62faa24aa20a760611b6044820152606401610364565b600c54600160281b900460ff1615611ea25760405162461bcd60e51b815260206004820152601060248201526f105b1c9958591e48119a5b9a5cda195960821b6044820152606401610364565b600c546301000000900460ff16611eeb5760405162461bcd60e51b815260206004820152600d60248201526c139bdd081058dd1a5d985d1959609a1b6044820152606401610364565b600c805465ff00ffffff001916600160281b179055565b6009546001600160a01b03163314611f4a5760405162461bcd60e51b81526020600482018190526024820152600080516020614df78339815191526044820152606401610364565b600c54640100000000900460ff1615611fa55760405162461bcd60e51b815260206004820152601060248201527f416c72656164792052657665616c6564000000000000000000000000000000006044820152606401610364565b805180611fe35760405162461bcd60e51b815260206004820152600c60248201526b43494420497320456d70747960a01b6044820152606401610364565b8151611ff6906015906020850190614466565b5050600c805464ff00000000191664010000000017905550565b600e546001600160a01b031633146120625760405162461bcd60e51b81526020600482015260156024820152744f6e6c7920506c6174666f726d204164647265737360581b6044820152606401610364565b601280546001600160a01b0319166001600160a01b038316908117909155601a546040805180820190915282815261010090910460ff166020909101819052601b805474ffffffffffffffffffffffffffffffffffffffffff1916909217600160a01b90910217905550565b606060038054610c6c90614d1a565b6009546001600160a01b031633146121255760405162461bcd60e51b81526020600482018190526024820152600080516020614df78339815191526044820152606401610364565b600c5460ff16156121785760405162461bcd60e51b815260206004820152601360248201527f416c726561647920496e697469616c697a6564000000000000000000000000006044820152606401610364565b600c54600160281b900460ff16156121c55760405162461bcd60e51b815260206004820152601060248201526f105b1c9958591e48119a5b9a5cda195960821b6044820152606401610364565b600c54610100900460ff16156122115760405162461bcd60e51b8152602060048201526011602482015270105b1c9958591e481058dd1a5d985d1959607a1b6044820152606401610364565b600c805460ff19166001179055604080516020808402820181019092528281526122779184908490819060009085015b8282101561226d5761225e608083028601368190038101906149a3565b81526020019060010190612241565b50505050506137ab565b5050600c805461ff001916610100908117909155601254601a54604080518082019091526001600160a01b0390921680835292900460ff166020909101819052601b8054600160a01b90920274ffffffffffffffffffffffffffffffffffffffffff19909216909217179055565b5050565b6011546040516000916001600160a01b0316906123649061231290899089908990602001614b39565b6040516020818303038152906040528051906020012085858080601f016020809104026020016040519081016040528093929190818152602001838380828437600092019190915250613b0d92505050565b6001600160a01b0316149695505050505050565b6009546001600160a01b031633146123c05760405162461bcd60e51b81526020600482018190526024820152600080516020614df78339815191526044820152606401610364565b600c54600160281b900460ff161561240d5760405162461bcd60e51b815260206004820152601060248201526f105b1c9958591e48119a5b9a5cda195960821b6044820152606401610364565b600c546301000000900460ff161561245b5760405162461bcd60e51b8152602060048201526011602482015270105b1c9958591e481058dd1a5d985d1959607a1b6044820152606401610364565b600c5462010000900460ff166124b35760405162461bcd60e51b815260206004820152600e60248201527f5072696f726974792049737375650000000000000000000000000000000000006044820152606401610364565b600c805463ff00000019166301000000179055565b600e546001600160a01b0316331461251a5760405162461bcd60e51b81526020600482015260156024820152744f6e6c7920506c6174666f726d204164647265737360581b6044820152606401610364565b601080546001600160a01b0319166001600160a01b0392909216919091179055565b6001600160a01b0382163314156125665760405163b06307db60e01b815260040160405180910390fd5b3360008181526007602090815260408083206001600160a01b03871680855290835292819020805460ff191686151590811790915590519081529192917f17307eab39ab6107e8899845ad3d59bd9653f200f220920489ca2b5937696c31910160405180910390a35050565b600c5462010000900460ff1661261a5760405162461bcd60e51b815260206004820152600d60248201526c139bdd081058dd1a5d985d1959609a1b6044820152606401610364565b61262786868585856122e9565b6126635760405162461bcd60e51b815260206004820152600d60248201526c426164205369676e617475726560981b6044820152606401610364565b7f000000000000000000000000000000000000000000000000000000000000000061ffff168460ff1661269560005490565b61269f9190614c67565b11156126e45760405162461bcd60e51b815260206004820152601460248201527352656369766520546f204d617820537570706c7960601b6044820152606401610364565b60006126ef87613b31565b905060ff86166126ff8683614c7f565b60ff1611156127505760405162461bcd60e51b815260206004820152601760248201527f5265636569766520546f204d6178205175616e746974790000000000000000006044820152606401610364565b600184600181111561277257634e487b7160e01b600052602160045260246000fd5b141561279d5761278b876127868784614c7f565b613b80565b612798878660ff16613368565b61280c565b60165434906127af9060ff8816614cb8565b11156127f15760405162461bcd60e51b81526020600482015260116024820152702737ba1022b737bab3b4399022ba3432b960791b6044820152606401610364565b6127ff876127868784614c7f565b61280c878660ff16613368565b341561282857601054612828906001600160a01b031634613382565b50505050505050565b61283c848484612f13565b6001600160a01b0383163b1515801561285e575061285c84848484613bde565b155b1561287c576040516368d2bf6b60e11b815260040160405180910390fd5b50505050565b600c54610100900460ff166128c95760405162461bcd60e51b815260206004820152600d60248201526c139bdd081058dd1a5d985d1959609a1b6044820152606401610364565b8060ff166001111580156128e65750601a5460ff90811690821611155b6129325760405162461bcd60e51b815260206004820152601360248201527f446179204973204f7574204f662052616e6765000000000000000000000000006044820152606401610364565b60ff81166000908152601f60205260409020600101544210156129975760405162461bcd60e51b815260206004820152600f60248201527f4e6f7420537461727465642059657400000000000000000000000000000000006044820152606401610364565b60ff81166000908152601f60205260409020600201544211156129e65760405162461bcd60e51b8152602060048201526007602482015266115e1c1a5c995960ca1b6044820152606401610364565b60ff8082166000908152601f60209081526040808320815161010081018352815486168082526001830154948201949094526002820154928101929092526003810154606083015260048101546080830152600581015460a0830152600681015460c083015260070154909316151560e0840152612a6390613425565b90508160e0015115612aa65760405162461bcd60e51b815260206004820152600c60248201526b105b1c9958591e4814dbdb1960a21b6044820152606401610364565b600f5481516001600160a01b03908116911614612afa5760405162461bcd60e51b81526020600482015260126024820152712130b21024b734ba34b0b634bd30ba34b7b760711b6044820152606401610364565b6000612b05836136e0565b90508260800151811115612b5b5760405162461bcd60e51b815260206004820152601560248201527f5265636569766520546f204261736520507269636500000000000000000000006044820152606401610364565b34811115612bab5760405162461bcd60e51b815260206004820152601060248201527f4e6f7420456e6f756768204574686572000000000000000000000000000000006044820152606401610364565b600f548351612bc8916001600160a01b031690339060ff1661103c565b600e5461287c906001600160a01b031634613382565b6060612be982612e8c565b612c285760405162461bcd60e51b815260206004820152601060248201526f546f6b656e204e6f742045786973747360801b6044820152606401610364565b61ffff82166000908152601c6020526040902054829060ff1615612c815761ffff81166000908152601d60209081526040918290209151612c6a929101614bae565b604051602081830303815290604052915050919050565b61ffff81166000908152601e602052604090205460ff1615612cbd576013612cac61ffff8316613cd5565b604051602001612c6a929190614bba565b600c54640100000000900460ff1615612cdf576015612cac61ffff8316613cd5565b6014612cac61ffff8316613cd5565b50919050565b600f546001600160a01b03163314612d455760405162461bcd60e51b815260206004820152601460248201527327b7363c902222a1a2a72a2920a62faa24aa20a760611b6044820152606401610364565b600c54600160281b900460ff16612d8d5760405162461bcd60e51b815260206004820152600c60248201526b139bdd08119a5b9a5cda195960a21b6044820152606401610364565b600c5460ff16612dd15760405162461bcd60e51b815260206004820152600f60248201526e139bdd08125b9a5d1a585b1a5e9959608a1b6044820152606401610364565b600b55565b6009546001600160a01b03163314612e1e5760405162461bcd60e51b81526020600482018190526024820152600080516020614df78339815191526044820152606401610364565b6001600160a01b038116612e835760405162461bcd60e51b815260206004820152602660248201527f4f776e61626c653a206e6577206f776e657220697320746865207a65726f206160448201526564647265737360d01b6064820152608401610364565b61120e81613759565b6000805482108015610c57575050600090815260046020526040902054600160e01b900460ff161590565b60008281526006602052604080822080546001600160a01b0319166001600160a01b0387811691821790925591518593918516917f8c5be1e5ebec7d5bd14f71427d1e84f3dd0314c0f7b2291e5b200ac8c7c3b92591a4505050565b6000612f1e82613425565b80519091506000906001600160a01b0316336001600160a01b03161480612f4c57508151612f4c9033610b87565b80612f67575033612f5c84610cef565b6001600160a01b0316145b905080612f8757604051632ce44b5f60e11b815260040160405180910390fd5b846001600160a01b031682600001516001600160a01b031614612fbc5760405162a1148160e81b815260040160405180910390fd5b6001600160a01b038416612fe357604051633a954ecd60e21b815260040160405180910390fd5b612ff36000848460000151612eb7565b6001600160a01b038581166000908152600560209081526040808320805467ffffffffffffffff1980821667ffffffffffffffff92831660001901831617909255898616808652838620805493841693831660019081018416949094179055898652600490945282852080546001600160e01b031916909417600160a01b4290921691909102179092559086018083529120549091166130df576000548110156130df578251600082815260046020908152604090912080549186015167ffffffffffffffff16600160a01b026001600160e01b03199092166001600160a01b03909316929092171790555b5082846001600160a01b0316866001600160a01b03167fddf252ad1be2c89b69c2b068fc378daa952ba7f163c4a11628f55a4df523b3ef60405160405180910390a45050505050565b600854816131785760405162461bcd60e51b815260206004820152601860248201527f7175616e74697479206d757374206265206e6f6e7a65726f00000000000000006044820152606401610364565b600060016131868484614c67565b6131909190614cd7565b9050600161319d60005490565b6131a79190614cd7565b8111156131c65760016131b960005490565b6131c39190614cd7565b90505b6131cf81612e8c565b61322a5760405162461bcd60e51b815260206004820152602660248201527f6e6f7420656e6f756768206d696e7465642079657420666f722074686973206360448201526506c65616e75760d41b6064820152608401610364565b815b8181116132f9576000818152600460205260409020546001600160a01b03166132e757600061325a82613425565b6040805160608101825282516001600160a01b03908116825260208085015167ffffffffffffffff908116828501908152958501511515848601908152600089815260049093529490912092518354955194511515600160e01b0260ff60e01b1995909216600160a01b026001600160e01b03199096169216919091179390931791909116919091179055505b806132f181614d4f565b91505061322c565b50613305816001614c67565b600855505050565b60006001600160a01b038216613336576040516335ebb31960e01b815260040160405180910390fd5b506001600160a01b031660009081526005602052604090205468010000000000000000900467ffffffffffffffff1690565b6122e5828260405180602001604052806000815250613e07565b60405182906000906001600160a01b0383169084908381818185875af1925050503d80600081146133cf576040519150601f19603f3d011682016040523d82523d6000602084013e6133d4565b606091505b505090508061287c5760405162461bcd60e51b815260206004820152600f60248201527f5472616e73666572204661696c656400000000000000000000000000000000006044820152606401610364565b60408051606081018252600080825260208201819052918101919091528160005481101561352857600081815260046020908152604091829020825160608101845290546001600160a01b0381168252600160a01b810467ffffffffffffffff1692820192909252600160e01b90910460ff161515918101829052906135265780516001600160a01b0316156134bc579392505050565b5060001901600081815260046020908152604091829020825160608101845290546001600160a01b038116808352600160a01b820467ffffffffffffffff1693830193909352600160e01b900460ff1615159281019290925215613521579392505050565b6134bc565b505b604051636f96cda160e11b815260040160405180910390fd5b600061354c82613425565b905061355e6000838360000151612eb7565b80516001600160a01b039081166000908152600560209081526040808320805467ffffffffffffffff19811667ffffffffffffffff9182166000190182161790915585518516845281842080547fffffffffffffffff0000000000000000ffffffffffffffffffffffffffffffff81167001000000000000000000000000000000009182900484166001908101851690920217909155865188865260049094528285208054600160e01b9588166001600160e01b031990911617600160a01b42909416939093029290921760ff60e01b191693909317905590850180835291205490911661369857600054811015613698578151600082815260046020908152604090912080549185015167ffffffffffffffff16600160a01b026001600160e01b03199092166001600160a01b03909316929092171790555b50805160405183916000916001600160a01b03909116907fddf252ad1be2c89b69c2b068fc378daa952ba7f163c4a11628f55a4df523b3ef908390a450506001805481019055565b600081602001514210156136f657506060015190565b816040015142111561370a57506080015190565b600082602001514261371c9190614cd7565b905060008360a00151826137309190614ca4565b90508360c00151816137429190614cb8565b84606001516137519190614cd7565b949350505050565b600980546001600160a01b038381166001600160a01b0319831681179093556040519116919082907f8be0079c531659141344cd1fd0a4f28419497f9722a3daafe3b4186f6b6457e090600090a35050565b601a5461ffff7f0000000000000000000000000000000000000000000000000000000000000000169060ff166137e060005490565b6137ea9190614c67565b111561382f5760405162461bcd60e51b815260206004820152601460248201527352656369766520546f204d617820537570706c7960601b6044820152606401610364565b601a54815160ff909116146138865760405162461bcd60e51b815260206004820152601260248201527f42616420436f6e66696773204c656e67746800000000000000000000000000006044820152606401610364565b600f54601a546138a2916001600160a01b03169060ff16613368565b601a5460ff166138b160005490565b146138f35760405162461bcd60e51b81526020600482015260126024820152712130b21024b734ba34b0b634bd30ba34b7b760711b6044820152606401610364565b60005b601a5460ff90811690821610156122e55760006040518061010001604052808360ff1681526020018360ff166016600301546139329190614cb8565b60185461393f9190614c67565b815260200161394f846001614c7f565b60195461395f9160ff1690614cb8565b60185461396c9190614c67565b8152602001848460ff168151811061399457634e487b7160e01b600052603260045260246000fd5b6020026020010151600001518152602001848460ff16815181106139c857634e487b7160e01b600052603260045260246000fd5b6020026020010151602001518152602001848460ff16815181106139fc57634e487b7160e01b600052603260045260246000fd5b6020026020010151604001518152602001848460ff1681518110613a3057634e487b7160e01b600052603260045260246000fd5b602002602001015160600151815260200160001515815250905080601f6000846001613a5c9190614c7f565b60ff9081168252602080830193909352604091820160002084518154921660ff19928316178155928401516001840155908301516002830155606083015160038301556080830151600483015560a0830151600583015560c0830151600683015560e0909201516007909101805491151591909216179055613add82613e14565b5060ff81166000908152601e60205260409020805460ff1916600117905580613b0581614d6a565b9150506138f6565b6000806000613b1c8585613ea0565b91509150613b2981613f10565b509392505050565b60006001600160a01b038216613b5a5760405163561b93dd60e11b815260040160405180910390fd5b506001600160a01b0316600090815260056020526040902054600160c01b900460ff1690565b6001600160a01b038216613ba75760405163561b93dd60e11b815260040160405180910390fd5b6001600160a01b039091166000908152600560205260409020805460ff909216600160c01b0260ff60c01b19909216919091179055565b604051630a85bd0160e11b81526000906001600160a01b0385169063150b7a0290613c13903390899088908890600401614bdf565b602060405180830381600087803b158015613c2d57600080fd5b505af1925050508015613c5d575060408051601f3d908101601f19168201909252613c5a918101906148f8565b60015b613cb8573d808015613c8b576040519150601f19603f3d011682016040523d82523d6000602084013e613c90565b606091505b508051613cb0576040516368d2bf6b60e11b815260040160405180910390fd5b805181602001fd5b6001600160e01b031916630a85bd0160e11b149050949350505050565b606081613cf95750506040805180820190915260018152600360fc1b602082015290565b8160005b8115613d235780613d0d81614d4f565b9150613d1c9050600a83614ca4565b9150613cfd565b60008167ffffffffffffffff811115613d4c57634e487b7160e01b600052604160045260246000fd5b6040519080825280601f01601f191660200182016040528015613d76576020820181803683370190505b5090505b841561375157613d8b600183614cd7565b9150613d98600a86614d8a565b613da3906030614c67565b60f81b818381518110613dc657634e487b7160e01b600052603260045260246000fd5b60200101907effffffffffffffffffffffffffffffffffffffffffffffffffffffffffffff1916908160001a905350613e00600a86614ca4565b9450613d7a565b610dbc8383836001614111565b6000613e228260ff16613425565b600f5481519192506001600160a01b03918216911614613e845760405162461bcd60e51b815260206004820152601860248201527f4a75737420466f7220444543454e5452414c5f544954414e00000000000000006044820152606401610364565b600f546122e590309060ff8516906001600160a01b0316612eb7565b600080825160411415613ed75760208301516040840151606085015160001a613ecb87828585614327565b94509450505050613f09565b825160401415613f015760208301516040840151613ef6868383614414565b935093505050613f09565b506000905060025b9250929050565b6000816004811115613f3257634e487b7160e01b600052602160045260246000fd5b1415613f3b5750565b6001816004811115613f5d57634e487b7160e01b600052602160045260246000fd5b1415613fab5760405162461bcd60e51b815260206004820152601860248201527f45434453413a20696e76616c6964207369676e617475726500000000000000006044820152606401610364565b6002816004811115613fcd57634e487b7160e01b600052602160045260246000fd5b141561401b5760405162461bcd60e51b815260206004820152601f60248201527f45434453413a20696e76616c6964207369676e6174757265206c656e677468006044820152606401610364565b600381600481111561403d57634e487b7160e01b600052602160045260246000fd5b14156140965760405162461bcd60e51b815260206004820152602260248201527f45434453413a20696e76616c6964207369676e6174757265202773272076616c604482015261756560f01b6064820152608401610364565b60048160048111156140b857634e487b7160e01b600052602160045260246000fd5b141561120e5760405162461bcd60e51b815260206004820152602260248201527f45434453413a20696e76616c6964207369676e6174757265202776272076616c604482015261756560f01b6064820152608401610364565b6000546001600160a01b03851661413a57604051622e076360e81b815260040160405180910390fd5b836141585760405163b562e8dd60e01b815260040160405180910390fd5b6001600160a01b038516600081815260056020908152604080832080546fffffffffffffffffffffffffffffffff19811667ffffffffffffffff8083168c0181169182176801000000000000000067ffffffffffffffff1990941690921783900481168c01811690920217909155858452600490925290912080546001600160e01b031916909217600160a01b42909216919091021790558080850183801561420a57506001600160a01b0387163b15155b156142d6575b60405182906001600160a01b038916906000907fddf252ad1be2c89b69c2b068fc378daa952ba7f163c4a11628f55a4df523b3ef908290a461425b6000888480600101955088613bde565b614278576040516368d2bf6b60e11b815260040160405180910390fd5b808214156142105782600054146142d15760405162461bcd60e51b815260206004820152601560248201527f5265656e7472616e63792070726f74656374696f6e00000000000000000000006044820152606401610364565b61431c565b5b6040516001830192906001600160a01b038916906000907fddf252ad1be2c89b69c2b068fc378daa952ba7f163c4a11628f55a4df523b3ef908290a4808214156142d7575b506000555050505050565b6000807f7fffffffffffffffffffffffffffffff5d576e7357a4501ddfe92f46681b20a083111561435e575060009050600361440b565b8460ff16601b1415801561437657508460ff16601c14155b15614387575060009050600461440b565b6040805160008082526020820180845289905260ff881692820192909252606081018690526080810185905260019060a0016020604051602081039080840390855afa1580156143db573d6000803e3d6000fd5b5050604051601f1901519150506001600160a01b0381166144045760006001925092505061440b565b9150600090505b94509492505050565b6000807f7fffffffffffffffffffffffffffffffffffffffffffffffffffffffffffffff83168161444a60ff86901c601b614c67565b905061445887828885614327565b935093505050935093915050565b82805461447290614d1a565b90600052602060002090601f01602090048101928261449457600085556144da565b82601f106144ad57805160ff19168380011785556144da565b828001600101855582156144da579182015b828111156144da5782518255916020019190600101906144bf565b506118099291505b8082111561180957600081556001016144e2565b600067ffffffffffffffff8084111561451157614511614dca565b604051601f8501601f19908116603f0116810190828211818310171561453957614539614dca565b8160405280935085815286868601111561455257600080fd5b858560208301376000602087830101525050509392505050565b80356001600160a01b0381168114611af157600080fd5b80358015158114611af157600080fd5b60008083601f8401126145a4578182fd5b50813567ffffffffffffffff8111156145bb578182fd5b602083019150836020828501011115613f0957600080fd5b803560028110611af157600080fd5b600082601f8301126145f2578081fd5b614601838335602085016144f6565b9392505050565b803561ffff81168114611af157600080fd5b803560ff81168114611af157600080fd5b60006020828403121561463c578081fd5b6146018261456c565b60008060408385031215614657578081fd5b6146608361456c565b91506110796020840161456c565b600080600060608486031215614682578081fd5b61468b8461456c565b92506146996020850161456c565b9150604084013590509250925092565b600080600080608085870312156146be578081fd5b6146c78561456c565b93506146d56020860161456c565b925060408501359150606085013567ffffffffffffffff8111156146f7578182fd5b8501601f81018713614707578182fd5b614716878235602084016144f6565b91505092959194509250565b60008060408385031215614734578182fd5b61473d8361456c565b915061107960208401614583565b6000806040838503121561475d578182fd5b6147668361456c565b946020939093013593505050565b60008060008060006080868803121561478b578081fd5b6147948661456c565b94506147a26020870161461a565b93506147b0604087016145d3565b9250606086013567ffffffffffffffff8111156147cb578182fd5b6147d788828901614593565b969995985093965092949392505050565b60008060008060008060a08789031215614800578081fd5b6148098761456c565b95506148176020880161461a565b94506148256040880161461a565b9350614833606088016145d3565b9250608087013567ffffffffffffffff81111561484e578182fd5b61485a89828a01614593565b979a9699509497509295939492505050565b6000806020838503121561487e578182fd5b823567ffffffffffffffff80821115614895578384fd5b818501915085601f8301126148a8578384fd5b8135818111156148b6578485fd5b8660208260071b85010111156148ca578485fd5b60209290920196919550909350505050565b6000602082840312156148ed578081fd5b813561460181614de0565b600060208284031215614909578081fd5b815161460181614de0565b600060208284031215614925578081fd5b813567ffffffffffffffff81111561493b578182fd5b613751848285016145e2565b60008060006060848603121561495b578081fd5b833567ffffffffffffffff811115614971578182fd5b61497d868287016145e2565b93505061498c60208501614608565b915061499a60408501614583565b90509250925092565b6000608082840312156149b4578081fd5b6040516080810181811067ffffffffffffffff821117156149d7576149d7614dca565b8060405250823581526020830135602082015260408301356040820152606083013560608201528091505092915050565b600060208284031215614a19578081fd5b61460182614608565b600060208284031215614a33578081fd5b5035919050565b60008060408385031215614a4c578182fd5b50508035926020909101359150565b600060208284031215614a6c578081fd5b6146018261461a565b60008151808452614a8d816020860160208601614cee565b601f01601f19169290920160200192915050565b8054600090600181811c9080831680614abb57607f831692505b6020808410821415614adb57634e487b7160e01b86526022600452602486fd5b818015614aef5760018114614b0057614b2d565b60ff19861689528489019650614b2d565b60008881526020902060005b86811015614b255781548b820152908501908301614b0c565b505084890196505b50505050505092915050565b606084901b6bffffffffffffffffffffffff1916815260f883901b7fff00000000000000000000000000000000000000000000000000000000000000166014820152600060028310614b9957634e487b7160e01b81526021600452602481fd5b5060f89190911b601582015260160192915050565b60006146018284614aa1565b6000614bc68285614aa1565b8351614bd6818360208801614cee565b01949350505050565b60006001600160a01b03808716835280861660208401525083604083015260806060830152614c116080830184614a75565b9695505050505050565b6020815260006146016020830184614a75565b606081526000614c416060830186614a75565b8281036020840152614c538186614a75565b90508281036040840152614c118185614a75565b60008219821115614c7a57614c7a614d9e565b500190565b600060ff821660ff84168060ff03821115614c9c57614c9c614d9e565b019392505050565b600082614cb357614cb3614db4565b500490565b6000816000190483118215151615614cd257614cd2614d9e565b500290565b600082821015614ce957614ce9614d9e565b500390565b60005b83811015614d09578181015183820152602001614cf1565b8381111561287c5750506000910152565b600181811c90821680614d2e57607f821691505b60208210811415612cee57634e487b7160e01b600052602260045260246000fd5b6000600019821415614d6357614d63614d9e565b5060010190565b600060ff821660ff811415614d8157614d81614d9e565b60010192915050565b600082614d9957614d99614db4565b500690565b634e487b7160e01b600052601160045260246000fd5b634e487b7160e01b600052601260045260246000fd5b634e487b7160e01b600052604160045260246000fd5b6001600160e01b03198116811461120e57600080fdfe4f776e61626c653a2063616c6c6572206973206e6f7420746865206f776e6572a26469706673582212206eaf07012b2d16bd8dd6b93024f5bb17a26b9838524748db75a5c9ccf9ef532464736f6c63430008040033",
  "linkReferences": {},
  "deployedLinkReferences": {}
}