{
  "_format": "hh-sol-artifact-1",
  "contractName": "NFT",
  "sourceName": "src/contracts/NFT.sol",
  "abi": [
    {
      "inputs": [
        {
          "internalType": "uint16",
          "name": "maxSupply_",
          "type": "uint16"
        },
        {
          "components": [
            {
              "internalType": "address",
              "name": "Owner",
              "type": "address"
            },
            {
              "internalType": "address",
              "name": "Platform",
              "type": "address"
            },
            {
              "internalType": "address",
              "name": "DefiTitan",
              "type": "address"
            },
            {
              "internalType": "address",
              "name": "BuyBackTreasury",
              "type": "address"
            },
            {
              "internalType": "address",
              "name": "WhiteListVerifier",
              "type": "address"
            },
            {
              "internalType": "address",
              "name": "RoyaltyDistributor",
              "type": "address"
            }
          ],
          "internalType": "struct NFT.ContractAddresses",
          "name": "addresses_",
          "type": "tuple"
        },
        {
          "internalType": "string",
          "name": "godCID_",
          "type": "string"
        },
        {
          "internalType": "string",
          "name": "notRevealedArtCID_",
          "type": "string"
        },
        {
          "components": [
            {
              "internalType": "uint256",
              "name": "MintPriceInWei",
              "type": "uint256"
            },
            {
              "internalType": "uint16",
              "name": "MaxMintPerAddress",
              "type": "uint16"
            },
            {
              "internalType": "uint256",
              "name": "AuctionStartTime",
              "type": "uint256"
            },
            {
              "internalType": "uint256",
              "name": "AuctionDuration",
              "type": "uint256"
            },
            {
              "internalType": "uint8",
              "name": "NumberOFTokenForAuction",
              "type": "uint8"
            },
            {
              "internalType": "uint8",
              "name": "RoyaltyFeePercent",
              "type": "uint8"
            }
          ],
          "internalType": "struct NFT.ContactMintConfig",
          "name": "mintConfig_",
          "type": "tuple"
        },
        {
          "internalType": "uint256",
          "name": "upgradeRequestFeeInWei_",
          "type": "uint256"
        }
      ],
      "stateMutability": "nonpayable",
      "type": "constructor"
    },
    {
      "inputs": [],
      "name": "ApprovalCallerNotOwnerNorApproved",
      "type": "error"
    },
    {
      "inputs": [],
      "name": "ApprovalQueryForNonexistentToken",
      "type": "error"
    },
    {
      "inputs": [],
      "name": "ApprovalToCurrentOwner",
      "type": "error"
    },
    {
      "inputs": [],
      "name": "ApproveToCaller",
      "type": "error"
    },
    {
      "inputs": [],
      "name": "AuxQueryForZeroAddress",
      "type": "error"
    },
    {
      "inputs": [],
      "name": "BalanceQueryForZeroAddress",
      "type": "error"
    },
    {
      "inputs": [],
      "name": "MintToZeroAddress",
      "type": "error"
    },
    {
      "inputs": [],
      "name": "MintZeroQuantity",
      "type": "error"
    },
    {
      "inputs": [],
      "name": "MintedQueryForZeroAddress",
      "type": "error"
    },
    {
      "inputs": [],
      "name": "OwnerQueryForNonexistentToken",
      "type": "error"
    },
    {
      "inputs": [],
      "name": "TransferCallerNotOwnerNorApproved",
      "type": "error"
    },
    {
      "inputs": [],
      "name": "TransferFromIncorrectOwner",
      "type": "error"
    },
    {
      "inputs": [],
      "name": "TransferToNonERC721ReceiverImplementer",
      "type": "error"
    },
    {
      "inputs": [],
      "name": "TransferToZeroAddress",
      "type": "error"
    },
    {
      "anonymous": false,
      "inputs": [
        {
          "indexed": true,
          "internalType": "address",
          "name": "owner",
          "type": "address"
        },
        {
          "indexed": true,
          "internalType": "address",
          "name": "approved",
          "type": "address"
        },
        {
          "indexed": true,
          "internalType": "uint256",
          "name": "tokenId",
          "type": "uint256"
        }
      ],
      "name": "Approval",
      "type": "event"
    },
    {
      "anonymous": false,
      "inputs": [
        {
          "indexed": true,
          "internalType": "address",
          "name": "owner",
          "type": "address"
        },
        {
          "indexed": true,
          "internalType": "address",
          "name": "operator",
          "type": "address"
        },
        {
          "indexed": false,
          "internalType": "bool",
          "name": "approved",
          "type": "bool"
        }
      ],
      "name": "ApprovalForAll",
      "type": "event"
    },
    {
      "anonymous": false,
      "inputs": [
        {
          "indexed": true,
          "internalType": "address",
          "name": "previousOwner",
          "type": "address"
        },
        {
          "indexed": true,
          "internalType": "address",
          "name": "newOwner",
          "type": "address"
        }
      ],
      "name": "OwnershipTransferred",
      "type": "event"
    },
    {
      "anonymous": false,
      "inputs": [
        {
          "indexed": true,
          "internalType": "address",
          "name": "from",
          "type": "address"
        },
        {
          "indexed": true,
          "internalType": "address",
          "name": "to",
          "type": "address"
        },
        {
          "indexed": true,
          "internalType": "uint256",
          "name": "tokenId",
          "type": "uint256"
        }
      ],
      "name": "Transfer",
      "type": "event"
    },
    {
      "inputs": [],
      "name": "ADDRESS",
      "outputs": [
        {
          "internalType": "address",
          "name": "Owner",
          "type": "address"
        },
        {
          "internalType": "address",
          "name": "Platform",
          "type": "address"
        },
        {
          "internalType": "address",
          "name": "DefiTitan",
          "type": "address"
        },
        {
          "internalType": "address",
          "name": "BuyBackTreasury",
          "type": "address"
        },
        {
          "internalType": "address",
          "name": "WhiteListVerifier",
          "type": "address"
        },
        {
          "internalType": "address",
          "name": "RoyaltyDistributor",
          "type": "address"
        }
      ],
      "stateMutability": "view",
      "type": "function"
    },
    {
      "inputs": [
        {
          "internalType": "uint8",
          "name": "",
          "type": "uint8"
        }
      ],
      "name": "Auctions",
      "outputs": [
        {
          "internalType": "uint8",
          "name": "tokenID",
          "type": "uint8"
        },
        {
          "internalType": "uint256",
          "name": "startTime",
          "type": "uint256"
        },
        {
          "internalType": "uint256",
          "name": "expiresAt",
          "type": "uint256"
        },
        {
          "internalType": "uint256",
          "name": "startPrice",
          "type": "uint256"
        },
        {
          "internalType": "uint256",
          "name": "endPrice",
          "type": "uint256"
        },
        {
          "internalType": "uint256",
          "name": "discountRate",
          "type": "uint256"
        }
      ],
      "stateMutability": "view",
      "type": "function"
    },
    {
      "inputs": [],
      "name": "IPFS",
      "outputs": [
        {
          "internalType": "string",
          "name": "GodCID",
          "type": "string"
        },
        {
          "internalType": "string",
          "name": "NotRevealedArtCID",
          "type": "string"
        },
        {
          "internalType": "string",
          "name": "ArtCID",
          "type": "string"
        }
      ],
      "stateMutability": "view",
      "type": "function"
    },
    {
      "inputs": [],
      "name": "MINTING_CONFIG",
      "outputs": [
        {
          "internalType": "uint256",
          "name": "MintPriceInWei",
          "type": "uint256"
        },
        {
          "internalType": "uint16",
          "name": "MaxMintPerAddress",
          "type": "uint16"
        },
        {
          "internalType": "uint256",
          "name": "AuctionStartTime",
          "type": "uint256"
        },
        {
          "internalType": "uint256",
          "name": "AuctionDuration",
          "type": "uint256"
        },
        {
          "internalType": "uint8",
          "name": "NumberOFTokenForAuction",
          "type": "uint8"
        },
        {
          "internalType": "uint8",
          "name": "RoyaltyFeePercent",
          "type": "uint8"
        }
      ],
      "stateMutability": "view",
      "type": "function"
    },
    {
      "inputs": [],
      "name": "MaxSupply",
      "outputs": [
        {
          "internalType": "uint16",
          "name": "",
          "type": "uint16"
        }
      ],
      "stateMutability": "view",
      "type": "function"
    },
    {
      "inputs": [],
      "name": "STATE",
      "outputs": [
        {
          "internalType": "bool",
          "name": "Initialized",
          "type": "bool"
        },
        {
          "internalType": "bool",
          "name": "AuctionIsActive",
          "type": "bool"
        },
        {
          "internalType": "bool",
          "name": "WhiteListMintingIsActive",
          "type": "bool"
        },
        {
          "internalType": "bool",
          "name": "MintingIsActive",
          "type": "bool"
        },
        {
          "internalType": "bool",
          "name": "ArtIsRevealed",
          "type": "bool"
        },
        {
          "internalType": "bool",
          "name": "Finished",
          "type": "bool"
        }
      ],
      "stateMutability": "view",
      "type": "function"
    },
    {
      "inputs": [
        {
          "internalType": "uint16",
          "name": "",
          "type": "uint16"
        }
      ],
      "name": "TokenIsGod",
      "outputs": [
        {
          "internalType": "bool",
          "name": "",
          "type": "bool"
        }
      ],
      "stateMutability": "view",
      "type": "function"
    },
    {
      "inputs": [
        {
          "internalType": "uint16",
          "name": "",
          "type": "uint16"
        }
      ],
      "name": "TokenIsUpgraded",
      "outputs": [
        {
          "internalType": "bool",
          "name": "",
          "type": "bool"
        }
      ],
      "stateMutability": "view",
      "type": "function"
    },
    {
      "inputs": [],
      "name": "UpgradeRequestFeeInWei",
      "outputs": [
        {
          "internalType": "uint256",
          "name": "",
          "type": "uint256"
        }
      ],
      "stateMutability": "view",
      "type": "function"
    },
    {
      "inputs": [
        {
          "internalType": "address",
          "name": "to",
          "type": "address"
        },
        {
          "internalType": "uint256",
          "name": "tokenId",
          "type": "uint256"
        }
      ],
      "name": "approve",
      "outputs": [],
      "stateMutability": "nonpayable",
      "type": "function"
    },
    {
      "inputs": [
        {
          "internalType": "address",
          "name": "owner",
          "type": "address"
        }
      ],
      "name": "balanceOf",
      "outputs": [
        {
          "internalType": "uint256",
          "name": "",
          "type": "uint256"
        }
      ],
      "stateMutability": "view",
      "type": "function"
    },
    {
      "inputs": [
        {
          "internalType": "uint16",
          "name": "tokenId",
          "type": "uint16"
        }
      ],
      "name": "buyBackToken",
      "outputs": [],
      "stateMutability": "nonpayable",
      "type": "function"
    },
    {
      "inputs": [
        {
          "internalType": "uint8",
          "name": "day",
          "type": "uint8"
        }
      ],
      "name": "buyGod",
      "outputs": [],
      "stateMutability": "payable",
      "type": "function"
    },
    {
      "inputs": [],
      "name": "finishAuction",
      "outputs": [],
      "stateMutability": "nonpayable",
      "type": "function"
    },
    {
      "inputs": [],
      "name": "finishMinting",
      "outputs": [],
      "stateMutability": "nonpayable",
      "type": "function"
    },
    {
      "inputs": [
        {
          "internalType": "uint256",
          "name": "tokenId",
          "type": "uint256"
        }
      ],
      "name": "getApproved",
      "outputs": [
        {
          "internalType": "address",
          "name": "",
          "type": "address"
        }
      ],
      "stateMutability": "view",
      "type": "function"
    },
    {
      "inputs": [
        {
          "internalType": "uint8",
          "name": "day",
          "type": "uint8"
        }
      ],
      "name": "getAuctionPrice",
      "outputs": [
        {
          "internalType": "uint256",
          "name": "",
          "type": "uint256"
        }
      ],
      "stateMutability": "view",
      "type": "function"
    },
    {
      "inputs": [
        {
          "components": [
            {
              "internalType": "uint256",
              "name": "startPrice",
              "type": "uint256"
            },
            {
              "internalType": "uint256",
              "name": "endPrice",
              "type": "uint256"
            },
            {
              "internalType": "uint256",
              "name": "discountRate",
              "type": "uint256"
            }
          ],
          "internalType": "struct NFT.AuctionConfig[]",
          "name": "configs",
          "type": "tuple[]"
        }
      ],
      "name": "initializer",
      "outputs": [],
      "stateMutability": "nonpayable",
      "type": "function"
    },
    {
      "inputs": [
        {
          "internalType": "address",
          "name": "owner",
          "type": "address"
        },
        {
          "internalType": "address",
          "name": "operator",
          "type": "address"
        }
      ],
      "name": "isApprovedForAll",
      "outputs": [
        {
          "internalType": "bool",
          "name": "",
          "type": "bool"
        }
      ],
      "stateMutability": "view",
      "type": "function"
    },
    {
      "inputs": [],
      "name": "name",
      "outputs": [
        {
          "internalType": "string",
          "name": "",
          "type": "string"
        }
      ],
      "stateMutability": "view",
      "type": "function"
    },
    {
      "inputs": [],
      "name": "owner",
      "outputs": [
        {
          "internalType": "address",
          "name": "",
          "type": "address"
        }
      ],
      "stateMutability": "view",
      "type": "function"
    },
    {
      "inputs": [
        {
          "internalType": "uint256",
          "name": "tokenId",
          "type": "uint256"
        }
      ],
      "name": "ownerOf",
      "outputs": [
        {
          "internalType": "address",
          "name": "",
          "type": "address"
        }
      ],
      "stateMutability": "view",
      "type": "function"
    },
    {
      "inputs": [
        {
          "internalType": "uint256",
          "name": "quantity",
          "type": "uint256"
        }
      ],
      "name": "publicMint",
      "outputs": [],
      "stateMutability": "payable",
      "type": "function"
    },
    {
      "inputs": [],
      "name": "renounceOwnership",
      "outputs": [],
      "stateMutability": "nonpayable",
      "type": "function"
    },
    {
      "inputs": [
        {
          "internalType": "string",
          "name": "ipfsCid",
          "type": "string"
        }
      ],
      "name": "revealArt",
      "outputs": [],
      "stateMutability": "nonpayable",
      "type": "function"
    },
    {
      "inputs": [
        {
          "internalType": "uint256",
          "name": "",
          "type": "uint256"
        },
        {
          "internalType": "uint256",
          "name": "value",
          "type": "uint256"
        }
      ],
      "name": "royaltyInfo",
      "outputs": [
        {
          "internalType": "address",
          "name": "receiver",
          "type": "address"
        },
        {
          "internalType": "uint256",
          "name": "royaltyAmount",
          "type": "uint256"
        }
      ],
      "stateMutability": "view",
      "type": "function"
    },
    {
      "inputs": [
        {
          "internalType": "address",
          "name": "from",
          "type": "address"
        },
        {
          "internalType": "address",
          "name": "to",
          "type": "address"
        },
        {
          "internalType": "uint256",
          "name": "tokenId",
          "type": "uint256"
        }
      ],
      "name": "safeTransferFrom",
      "outputs": [],
      "stateMutability": "nonpayable",
      "type": "function"
    },
    {
      "inputs": [
        {
          "internalType": "address",
          "name": "from",
          "type": "address"
        },
        {
          "internalType": "address",
          "name": "to",
          "type": "address"
        },
        {
          "internalType": "uint256",
          "name": "tokenId",
          "type": "uint256"
        },
        {
          "internalType": "bytes",
          "name": "_data",
          "type": "bytes"
        }
      ],
      "name": "safeTransferFrom",
      "outputs": [],
      "stateMutability": "nonpayable",
      "type": "function"
    },
    {
      "inputs": [
        {
          "internalType": "address",
          "name": "operator",
          "type": "address"
        },
        {
          "internalType": "bool",
          "name": "approved",
          "type": "bool"
        }
      ],
      "name": "setApprovalForAll",
      "outputs": [],
      "stateMutability": "nonpayable",
      "type": "function"
    },
    {
      "inputs": [
        {
          "internalType": "address",
          "name": "buyBackTreasury_",
          "type": "address"
        }
      ],
      "name": "setBuyBackTreasury",
      "outputs": [],
      "stateMutability": "nonpayable",
      "type": "function"
    },
    {
      "inputs": [
        {
          "internalType": "address",
          "name": "platform_",
          "type": "address"
        }
      ],
      "name": "setPlatform",
      "outputs": [],
      "stateMutability": "nonpayable",
      "type": "function"
    },
    {
      "inputs": [
        {
          "internalType": "uint256",
          "name": "upgradeRequestFeeInWei_",
          "type": "uint256"
        }
      ],
      "name": "setUpgradeRequestFeeInWei",
      "outputs": [],
      "stateMutability": "nonpayable",
      "type": "function"
    },
    {
      "inputs": [],
      "name": "startPublicMinting",
      "outputs": [],
      "stateMutability": "nonpayable",
      "type": "function"
    },
    {
      "inputs": [],
      "name": "startWhiteListMinting",
      "outputs": [],
      "stateMutability": "nonpayable",
      "type": "function"
    },
    {
      "inputs": [
        {
          "internalType": "bytes4",
          "name": "interfaceId",
          "type": "bytes4"
        }
      ],
      "name": "supportsInterface",
      "outputs": [
        {
          "internalType": "bool",
          "name": "",
          "type": "bool"
        }
      ],
      "stateMutability": "view",
      "type": "function"
    },
    {
      "inputs": [],
      "name": "symbol",
      "outputs": [
        {
          "internalType": "string",
          "name": "",
          "type": "string"
        }
      ],
      "stateMutability": "view",
      "type": "function"
    },
    {
      "inputs": [
        {
          "internalType": "uint256",
          "name": "tokenId_",
          "type": "uint256"
        }
      ],
      "name": "tokenURI",
      "outputs": [
        {
          "internalType": "string",
          "name": "",
          "type": "string"
        }
      ],
      "stateMutability": "view",
      "type": "function"
    },
    {
      "inputs": [],
      "name": "totalSupply",
      "outputs": [
        {
          "internalType": "uint256",
          "name": "",
          "type": "uint256"
        }
      ],
      "stateMutability": "view",
      "type": "function"
    },
    {
      "inputs": [
        {
          "internalType": "address",
          "name": "from",
          "type": "address"
        },
        {
          "internalType": "address",
          "name": "to",
          "type": "address"
        },
        {
          "internalType": "uint256",
          "name": "tokenId",
          "type": "uint256"
        }
      ],
      "name": "transferFrom",
      "outputs": [],
      "stateMutability": "nonpayable",
      "type": "function"
    },
    {
      "inputs": [
        {
          "internalType": "address",
          "name": "newOwner",
          "type": "address"
        }
      ],
      "name": "transferOwnership",
      "outputs": [],
      "stateMutability": "nonpayable",
      "type": "function"
    },
    {
      "inputs": [
        {
          "internalType": "uint256",
          "name": "",
          "type": "uint256"
        }
      ],
      "name": "upgradeRequestFeeIsPaid",
      "outputs": [
        {
          "internalType": "bool",
          "name": "",
          "type": "bool"
        }
      ],
      "stateMutability": "view",
      "type": "function"
    },
    {
      "inputs": [
        {
          "internalType": "string",
          "name": "ipfsCid",
          "type": "string"
        },
        {
          "internalType": "uint16",
          "name": "tokenId",
          "type": "uint16"
        },
        {
          "internalType": "bool",
          "name": "isGodNow",
          "type": "bool"
        }
      ],
      "name": "upgradeToken",
      "outputs": [],
      "stateMutability": "nonpayable",
      "type": "function"
    },
    {
      "inputs": [
        {
          "internalType": "uint16",
          "name": "tokenId",
          "type": "uint16"
        }
      ],
      "name": "upgradeTokenRequestFee",
      "outputs": [],
      "stateMutability": "payable",
      "type": "function"
    },
    {
      "inputs": [
        {
          "internalType": "address",
          "name": "addr_",
          "type": "address"
        },
        {
          "internalType": "uint8",
          "name": "maxQuantity_",
          "type": "uint8"
        },
        {
          "internalType": "uint64",
          "name": "quantity_",
          "type": "uint64"
        },
        {
          "internalType": "enum NFT.WhiteListType",
          "name": "whiteListType_",
          "type": "uint8"
        },
        {
          "internalType": "bytes",
          "name": "sig",
          "type": "bytes"
        }
      ],
      "name": "whitelistMinting",
      "outputs": [],
      "stateMutability": "payable",
      "type": "function"
    }
  ],
  "bytecode": "0x60a06040523480156200001157600080fd5b506040516200514e3803806200514e833981016040819052620000349162000450565b8451604080518082018252600b8082526a13995c1bdb195a5853919560aa1b6020808401828152855180870190965292855284015281519192916200007c9160029162000262565b5080516200009290600390602084019062000262565b50506000805550620000a48162000210565b50600160095560f086901b6001600160f01b03191660809081526040805160c08101825260008082526020808301829052828401829052606080840183905283860183905260a093840192909252600b805465ffffffffffff191690558951600c80546001600160a01b03199081166001600160a01b03938416179091558b830151600d80548316918416919091179055948b0151600e80548716918316919091179055918a0151600f805486169184169190911790559389015160108054851691831691909117905590880151601180549093169116179055845162000192916012919087019062000262565b508251620001a890601390602086019062000262565b50815160155560208201516016805461ffff90921661ffff199283161790556040830151601755606083015160185560808301516019805460a09095015160ff9081166101000295909316929091169190911792909217909155600a55506200062d92505050565b600880546001600160a01b038381166001600160a01b0319831681179093556040519116919082907f8be0079c531659141344cd1fd0a4f28419497f9722a3daafe3b4186f6b6457e090600090a35050565b8280546200027090620005da565b90600052602060002090601f016020900481019282620002945760008555620002df565b82601f10620002af57805160ff1916838001178555620002df565b82800160010185558215620002df579182015b82811115620002df578251825591602001919060010190620002c2565b50620002ed929150620002f1565b5090565b5b80821115620002ed5760008155600101620002f2565b80516001600160a01b03811681146200032057600080fd5b919050565b600082601f83011262000336578081fd5b81516001600160401b0381111562000352576200035262000617565b602062000368601f8301601f19168201620005a7565b82815285828487010111156200037c578384fd5b835b838110156200039b5785810183015182820184015282016200037e565b83811115620003ac57848385840101525b5095945050505050565b600060c08284031215620003c8578081fd5b620003d26200057c565b905081518152620003e6602083016200042b565b602082015260408201516040820152606082015160608201526200040d608083016200043e565b60808201526200042060a083016200043e565b60a082015292915050565b805161ffff811681146200032057600080fd5b805160ff811681146200032057600080fd5b6000806000806000808688036102008112156200046b578283fd5b62000476886200042b565b965060c0601f19820112156200048a578283fd5b50620004956200057c565b620004a36020890162000308565b8152620004b36040890162000308565b6020820152620004c66060890162000308565b6040820152620004d96080890162000308565b6060820152620004ec60a0890162000308565b6080820152620004ff60c0890162000308565b60a082015260e08801519095506001600160401b038082111562000521578384fd5b6200052f8a838b0162000325565b955061010089015191508082111562000546578384fd5b506200055589828a0162000325565b93505062000568886101208901620003b6565b91506101e087015190509295509295509295565b60405160c081016001600160401b0381118282101715620005a157620005a162000617565b60405290565b604051601f8201601f191681016001600160401b0381118282101715620005d257620005d262000617565b604052919050565b600181811c90821680620005ef57607f821691505b602082108114156200061157634e487b7160e01b600052602260045260246000fd5b50919050565b634e487b7160e01b600052604160045260246000fd5b60805160f01c614af46200065a6000396000818161076f0152818161249901526133730152614af46000f3fe6080604052600436106102a75760003560e01c806370a0823111610164578063b51ce63d116100c6578063c87b56dd1161008a578063dd28e1ca11610064578063dd28e1ca1461095f578063e985e9c51461098f578063f2fde38b146109d857600080fd5b8063c87b56dd1461090c578063d0b50d8e1461092c578063d79c2edf1461094c57600080fd5b8063b51ce63d146107a4578063b6697c1714610825578063b88d4fde14610855578063b9143eb214610875578063c486456c1461088857600080fd5b806395d89b4111610128578063a22cb46511610102578063a22cb4651461070d578063ad86929d1461072d578063b36c12841461075d57600080fd5b806395d89b41146106c35780639da058e9146106d8578063a0a4a5a2146106ed57600080fd5b806370a082311461063b578063715018a61461065b5780637d64bcb41461067057806389514543146106855780638da5cb5b146106a557600080fd5b806342842e0e1161020d57806360dc13a9116101d157806364b1152f116101ab57806364b1152f146105835780636945c5ea146105965780636c52b9e1146105b657600080fd5b806360dc13a9146104d657806361a0dedc146104f65780636352211e1461056357600080fd5b806342842e0e14610448578063430ca46f146104685780634c0e123b1461047d57806354353219146104925780635d197f35146104b657600080fd5b80631db16f201161026f5780632db11544116102495780632db11544146103ff5780632fa3ce7d146104125780633039586c1461043257600080fd5b80631db16f201461038057806323b872dd146103a05780632a55205a146103c057600080fd5b806301ffc9a7146102ac57806306fdde03146102e1578063081812fc14610303578063095ea7b31461033b57806318160ddd1461035d575b600080fd5b3480156102b857600080fd5b506102cc6102c7366004614572565b6109f8565b60405190151581526020015b60405180910390f35b3480156102ed57600080fd5b506102f6610a4a565b6040516102d8919061489d565b34801561030f57600080fd5b5061032361031e3660046146ae565b610adc565b6040516001600160a01b0390911681526020016102d8565b34801561034757600080fd5b5061035b61035636600461441b565b610b20565b005b34801561036957600080fd5b50600154600054035b6040519081526020016102d8565b34801561038c57600080fd5b5061035b61039b3660046145dd565b610bae565b3480156103ac57600080fd5b5061035b6103bb36600461433e565b610e60565b3480156103cc57600080fd5b506103e06103db3660046146c6565b610e6b565b604080516001600160a01b0390931683526020830191909152016102d8565b61035b61040d3660046146ae565b610ebd565b34801561041e57600080fd5b5061035b61042d366004614694565b611019565b34801561043e57600080fd5b50610372600a5481565b34801561045457600080fd5b5061035b61046336600461433e565b6111cc565b34801561047457600080fd5b5061035b6111e7565b34801561048957600080fd5b5061035b611368565b34801561049e57600080fd5b506104a76114ea565b6040516102d8939291906148b0565b3480156104c257600080fd5b5061035b6104d1366004614502565b611698565b3480156104e257600080fd5b506103726104f13660046146e7565b6118e5565b34801561050257600080fd5b5060155460165460175460185460195461052d949361ffff1692919060ff8082169161010090041686565b6040805196875261ffff909516602087015293850192909252606084015260ff90811660808401521660a082015260c0016102d8565b34801561056f57600080fd5b5061032361057e3660046146ae565b611a1a565b61035b610591366004614694565b611a2c565b3480156105a257600080fd5b5061035b6105b13660046142f2565b611c8e565b3480156105c257600080fd5b5061060a6105d13660046146e7565b601e6020526000908152604090208054600182015460028301546003840154600485015460059095015460ff9094169492939192909186565b6040805160ff90971687526020870195909552938501929092526060840152608083015260a082015260c0016102d8565b34801561064757600080fd5b506103726106563660046142f2565b611d21565b34801561066757600080fd5b5061035b611d70565b34801561067c57600080fd5b5061035b611dd6565b34801561069157600080fd5b5061035b6106a03660046145aa565b611f9e565b3480156106b157600080fd5b506008546001600160a01b0316610323565b3480156106cf57600080fd5b506102f66120be565b3480156106e457600080fd5b5061035b6120cd565b3480156106f957600080fd5b5061035b6107083660046142f2565b61226e565b34801561071957600080fd5b5061035b6107283660046143f2565b6122ff565b34801561073957600080fd5b506102cc610748366004614694565b601d6020526000908152604090205460ff1681565b34801561076957600080fd5b506107917f000000000000000000000000000000000000000000000000000000000000000081565b60405161ffff90911681526020016102d8565b3480156107b057600080fd5b50600c54600d54600e54600f546010546011546107e3956001600160a01b03908116958116948116938116928116911686565b604080516001600160a01b03978816815295871660208701529386169385019390935290841660608401528316608083015290911660a082015260c0016102d8565b34801561083157600080fd5b506102cc610840366004614694565b601b6020526000908152604090205460ff1681565b34801561086157600080fd5b5061035b610870366004614379565b612395565b61035b610883366004614444565b6123e6565b34801561089457600080fd5b50600b546108d39060ff808216916101008104821691620100008204811691630100000081048216916401000000008204811691600160281b90041686565b604080519615158752941515602087015292151593850193909352151560608401529015156080830152151560a082015260c0016102d8565b34801561091857600080fd5b506102f66109273660046146ae565b61269d565b34801561093857600080fd5b5061035b6109473660046146ae565b6127b7565b61035b61095a3660046146e7565b6128d2565b34801561096b57600080fd5b506102cc61097a3660046146ae565b601f6020526000908152604090205460ff1681565b34801561099b57600080fd5b506102cc6109aa36600461430c565b6001600160a01b03918216600090815260076020908152604080832093909416825291909152205460ff1690565b3480156109e457600080fd5b5061035b6109f33660046142f2565b612c36565b60006001600160e01b031982166380ac58cd60e01b1480610a2957506001600160e01b03198216635b5e139f60e01b145b80610a4457506301ffc9a760e01b6001600160e01b03198316145b92915050565b606060028054610a59906149e2565b80601f0160208091040260200160405190810160405280929190818152602001828054610a85906149e2565b8015610ad25780601f10610aa757610100808354040283529160200191610ad2565b820191906000526020600020905b815481529060010190602001808311610ab557829003601f168201915b5050505050905090565b6000610ae782612cfe565b610b04576040516333d1c03960e21b815260040160405180910390fd5b506000908152600660205260409020546001600160a01b031690565b6000610b2b82611a1a565b9050806001600160a01b0316836001600160a01b03161415610b605760405163250fdee360e21b815260040160405180910390fd5b336001600160a01b03821614801590610b805750610b7e81336109aa565b155b15610b9e576040516367d9dca160e11b815260040160405180910390fd5b610ba9838383612d29565b505050565b600b54600160281b900460ff16610c065760405162461bcd60e51b8152602060048201526017602482015276135a5b9d1a5b99c81a5cc81b9bdd08199a5b9a5cda1959604a1b60448201526064015b60405180910390fd5b600b5460ff16610c585760405162461bcd60e51b815260206004820152601b60248201527f436f6e7472616374206973206e6f7420696e697469616c697a656400000000006044820152606401610bfd565b600d546001600160a01b03163314610cc75760405162461bcd60e51b815260206004820152602c60248201527f4f6e6c7920706c6174666f726d20616464726573732063616e2063616c6c207460448201526b3434b990333ab731ba34b7b760a11b6064820152608401610bfd565b61ffff82166000908152601d6020526040902054829060ff1615610d415760405162461bcd60e51b815260206004820152602b60248201527f746869732066756e6374696f6e206973206f6e6c792066756e6374696f6e616c60448201526a20666f722068756d616e7360a81b6064820152608401610bfd565b835180610d7f5760405162461bcd60e51b815260206004820152600c60248201526b43494420697320656d70747960a01b6044820152606401610bfd565b61ffff84166000908152601f602052604090205460ff16610de25760405162461bcd60e51b815260206004820152601760248201527f7570677261646520666565206973206e6f7420706169640000000000000000006044820152606401610bfd565b61ffff84166000908152601f60209081526040808320805460ff19169055601c82529091208651610e1592880190614173565b5061ffff84166000908152601b60205260409020805460ff191660011790558215610e595761ffff84166000908152601d60205260409020805460ff191660011790555b5050505050565b610ba9838383612d85565b60408051808201909152601a546001600160a01b038116808352600160a01b90910460ff16602083018190529091600091606490610ea9908661495d565b610eb39190614949565b9150509250929050565b600b546301000000900460ff16610f165760405162461bcd60e51b815260206004820152601560248201527f4d696e74696e67206973206e6f742061637469766500000000000000000000006044820152606401610bfd565b60165461ffff1681610f2733612f98565b610f3191906148e9565b1115610fa55760405162461bcd60e51b815260206004820152603d60248201527f4e46543a20796f752068617665207265616368656420746865206d6178696d7560448201527f6d206e756d626572206f66206d696e74732070657220616464726573730000006064820152608401610bfd565b6015543490610fb4908361495d565b1115610ff65760405162461bcd60e51b81526020600482015260116024820152703737ba1032b737bab3b4399032ba3432b960791b6044820152606401610bfd565b6110003382612ff3565b600f54611016906001600160a01b03163461300d565b50565b61ffff81166000908152601d6020526040902054819060ff16156110935760405162461bcd60e51b815260206004820152602b60248201527f746869732066756e6374696f6e206973206f6e6c792066756e6374696f6e616c60448201526a20666f722068756d616e7360a81b6064820152608401610bfd565b600260095414156110e65760405162461bcd60e51b815260206004820152601f60248201527f5265656e7472616e637947756172643a207265656e7472616e742063616c6c006044820152606401610bfd565b60026009556110f861ffff8316612cfe565b61113b5760405162461bcd60e51b81526020600482015260146024820152731d1bdad95b88191bd95cc81b9bdd08195e1a5cdd60621b6044820152606401610bfd565b600061114a8361ffff166130b0565b80519091506001600160a01b031633146111b55760405162461bcd60e51b815260206004820152602660248201527f6f6e6c79206f776e6572206f6620746f6b656e2063616e20627579206261636b604482015265103a37b5b2b760d11b6064820152608401610bfd565b6111c28361ffff166131cc565b5050600160095550565b610ba983838360405180602001604052806000815250612395565b600e546001600160a01b031633146112585760405162461bcd60e51b815260206004820152602e60248201527f4f6e6c79206465666920746974616e20616464726573732063616e2063616c6c60448201526d103a3434b990333ab731ba34b7b760911b6064820152608401610bfd565b600b54600160281b900460ff16156112b25760405162461bcd60e51b815260206004820181905260248201527f4e46543a204d696e74696e6720697320616c72656164792066696e69736865646044820152606401610bfd565b600b5460ff166113045760405162461bcd60e51b815260206004820181905260248201527f4e46543a20636f6e7472616374206973206e6f7420696e697469616c697a65646044820152606401610bfd565b600b54610100900460ff1661135b5760405162461bcd60e51b815260206004820152601a60248201527f4e46543a2041756374696f6e206973206e6f74206163746976650000000000006044820152606401610bfd565b600b805461ff0019169055565b6008546001600160a01b031633146113c25760405162461bcd60e51b815260206004820181905260248201527f4f776e61626c653a2063616c6c6572206973206e6f7420746865206f776e65726044820152606401610bfd565b600b5460ff166114145760405162461bcd60e51b815260206004820181905260248201527f4e46543a20636f6e7472616374206973206e6f7420696e697469616c697a65646044820152606401610bfd565b600b54600160281b900460ff161561146e5760405162461bcd60e51b815260206004820181905260248201527f4e46543a204d696e74696e6720697320616c72656164792066696e69736865646044820152606401610bfd565b600b5462010000900460ff16156114d75760405162461bcd60e51b815260206004820152602760248201527f4e46543a2057686974654c6973744d696e74696e6720697320616c72656164796044820152662061637469766560c81b6064820152608401610bfd565b600b805462ff0000191662010000179055565b6012805481906114f9906149e2565b80601f0160208091040260200160405190810160405280929190818152602001828054611525906149e2565b80156115725780601f1061154757610100808354040283529160200191611572565b820191906000526020600020905b81548152906001019060200180831161155557829003601f168201915b505050505090806001018054611587906149e2565b80601f01602080910402602001604051908101604052809291908181526020018280546115b3906149e2565b80156116005780601f106115d557610100808354040283529160200191611600565b820191906000526020600020905b8154815290600101906020018083116115e357829003601f168201915b505050505090806002018054611615906149e2565b80601f0160208091040260200160405190810160405280929190818152602001828054611641906149e2565b801561168e5780601f106116635761010080835404028352916020019161168e565b820191906000526020600020905b81548152906001019060200180831161167157829003601f168201915b5050505050905083565b6008546001600160a01b031633146116f25760405162461bcd60e51b815260206004820181905260248201527f4f776e61626c653a2063616c6c6572206973206e6f7420746865206f776e65726044820152606401610bfd565b600b5460ff16156117515760405162461bcd60e51b8152602060048201526024808201527f4e46543a20636f6e747261637420697320616c726561647920696e697469616c6044820152631a5e995960e21b6064820152608401610bfd565b600b54600160281b900460ff16156117b55760405162461bcd60e51b815260206004820152602160248201527f4e46543a20636f6e747261637420697320616c72656164792066696e697368656044820152601960fa1b6064820152608401610bfd565b600b54610100900460ff161561180d5760405162461bcd60e51b815260206004820152601e60248201527f4e46543a2061756374696f6e20697320616c72656164792061637469766500006044820152606401610bfd565b600b805460ff19166001179055604080516020808402820181019092528281526118739184908490819060009085015b828210156118695761185a60608302860136819003810190614639565b8152602001906001019061183d565b505050505061336b565b5050600b805461ff001916610100908117909155601154601954604080518082019091526001600160a01b0390921680835292900460ff166020909101819052601a8054600160a01b90920274ffffffffffffffffffffffffffffffffffffffffff19909216909217179055565b5050565b600b54600090610100900460ff166119375760405162461bcd60e51b815260206004820152601560248201527441756374696f6e206973206e6f742061637469766560581b6044820152606401610bfd565b8160ff16600111158015611954575060195460ff90811690831611155b6119965760405162461bcd60e51b8152602060048201526013602482015272646179206973206f7574206f662072616e676560681b6044820152606401610bfd565b60ff82166000908152601e60205260408120600101546119b6904261497c565b905060006119c6610e1083614949565b60ff85166000908152601e6020526040812060050154919250906119eb90839061495d565b60ff86166000908152601e6020526040902060030154909150611a0f90829061497c565b93505050505b919050565b6000611a25826130b0565b5192915050565b600b54600160281b900460ff16611a7f5760405162461bcd60e51b8152602060048201526017602482015276135a5b9d1a5b99c81a5cc81b9bdd08199a5b9a5cda1959604a1b6044820152606401610bfd565b600b5460ff16611ad15760405162461bcd60e51b815260206004820152601b60248201527f436f6e7472616374206973206e6f7420696e697469616c697a656400000000006044820152606401610bfd565b61ffff81166000908152601d6020526040902054819060ff1615611b4b5760405162461bcd60e51b815260206004820152602b60248201527f746869732066756e6374696f6e206973206f6e6c792066756e6374696f6e616c60448201526a20666f722068756d616e7360a81b6064820152608401610bfd565b611b588261ffff16612cfe565b611b9b5760405162461bcd60e51b81526020600482015260146024820152731d1bdad95b88191bd95cc81b9bdd08195e1a5cdd60621b6044820152606401610bfd565b6000611baa8361ffff166130b0565b80519091506001600160a01b03163314611c145760405162461bcd60e51b815260206004820152602560248201527f6f6e6c79206f776e6572206f6620746f6b656e2063616e2075706772616465206044820152643a37b5b2b760d91b6064820152608401610bfd565b34600a541115611c5a5760405162461bcd60e51b81526020600482015260116024820152703737ba1032b737bab3b4399032ba3432b960791b6044820152606401610bfd565b61ffff83166000908152601f60205260409020805460ff19166001179055600d54610ba9906001600160a01b03163461300d565b600e546001600160a01b03163314611cff5760405162461bcd60e51b815260206004820152602e60248201527f4f6e6c79206465666920746974616e20616464726573732063616e2063616c6c60448201526d103a3434b990333ab731ba34b7b760911b6064820152608401610bfd565b600d80546001600160a01b0319166001600160a01b0392909216919091179055565b60006001600160a01b038216611d4a576040516323d3ad8160e21b815260040160405180910390fd5b506001600160a01b031660009081526005602052604090205467ffffffffffffffff1690565b6008546001600160a01b03163314611dca5760405162461bcd60e51b815260206004820181905260248201527f4f776e61626c653a2063616c6c6572206973206e6f7420746865206f776e65726044820152606401610bfd565b611dd460006136a9565b565b600e546001600160a01b03163314611e475760405162461bcd60e51b815260206004820152602e60248201527f4f6e6c79206465666920746974616e20616464726573732063616e2063616c6c60448201526d103a3434b990333ab731ba34b7b760911b6064820152608401610bfd565b600b54600160281b900460ff1615611ea15760405162461bcd60e51b815260206004820181905260248201527f4e46543a204d696e74696e6720697320616c72656164792066696e69736865646044820152606401610bfd565b600b546301000000900460ff16611efa5760405162461bcd60e51b815260206004820152601a60248201527f4e46543a204d696e74696e67206973206e6f74206163746976650000000000006044820152606401610bfd565b600b5462010000900460ff1615611f875760405162461bcd60e51b8152602060048201526044602482018190527f4e46543a2057686974654c6973744d696e74696e672073686f756c64206e6f74908201527f2061637469766520696e20746865206d6964646c65206f6620746865204d696e60648201526374696e6760e01b608482015260a401610bfd565b600b805465ff00ff00ff001916600160281b179055565b6008546001600160a01b03163314611ff85760405162461bcd60e51b815260206004820181905260248201527f4f776e61626c653a2063616c6c6572206973206e6f7420746865206f776e65726044820152606401610bfd565b600b54640100000000900460ff16156120535760405162461bcd60e51b815260206004820152601760248201527f41727420697320616c72656164792072657665616c65640000000000000000006044820152606401610bfd565b8051806120915760405162461bcd60e51b815260206004820152600c60248201526b43494420697320656d70747960a01b6044820152606401610bfd565b81516120a4906014906020850190614173565b5050600b805464ff00000000191664010000000017905550565b606060038054610a59906149e2565b6008546001600160a01b031633146121275760405162461bcd60e51b815260206004820181905260248201527f4f776e61626c653a2063616c6c6572206973206e6f7420746865206f776e65726044820152606401610bfd565b600b54600160281b900460ff16156121815760405162461bcd60e51b815260206004820181905260248201527f4e46543a204d696e74696e6720697320616c72656164792066696e69736865646044820152606401610bfd565b600b546301000000900460ff16156121db5760405162461bcd60e51b815260206004820152601e60248201527f4e46543a204d696e74696e6720697320616c72656164792061637469766500006044820152606401610bfd565b600b5462010000900460ff166122595760405162461bcd60e51b815260206004820152603960248201527f4e46543a2057686974654c6973744d696e74696e672073686f756c642061637460448201527f697665206265666f7265205075626c6963204d696e74696e67000000000000006064820152608401610bfd565b600b805463ffff000019166301000000179055565b600d546001600160a01b031633146122dd5760405162461bcd60e51b815260206004820152602c60248201527f4f6e6c7920706c6174666f726d20616464726573732063616e2063616c6c207460448201526b3434b990333ab731ba34b7b760a11b6064820152608401610bfd565b600f80546001600160a01b0319166001600160a01b0392909216919091179055565b6001600160a01b0382163314156123295760405163b06307db60e01b815260040160405180910390fd5b3360008181526007602090815260408083206001600160a01b03871680855290835292819020805460ff191686151590811790915590519081529192917f17307eab39ab6107e8899845ad3d59bd9653f200f220920489ca2b5937696c31910160405180910390a35050565b6123a0848484612d85565b6001600160a01b0383163b151580156123c257506123c0848484846136fb565b155b156123e0576040516368d2bf6b60e11b815260040160405180910390fd5b50505050565b600b5462010000900460ff1661243e5760405162461bcd60e51b815260206004820152601e60248201527f57686974654c6973744d696e74696e67206973206e6f742061637469766500006044820152606401610bfd565b61244b86868585856137f3565b6124975760405162461bcd60e51b815260206004820152601660248201527f7369676e6174757265206973206e6f742076616c6964000000000000000000006044820152606401610bfd565b7f000000000000000000000000000000000000000000000000000000000000000061ffff168467ffffffffffffffff166124d060005490565b6124da91906148e9565b11156125285760405162461bcd60e51b815260206004820152601560248201527f4d617820737570706c79206973207265616368656400000000000000000000006044820152606401610bfd565b6000612533876138d0565b905060ff86166125438683614901565b67ffffffffffffffff16111561259b5760405162461bcd60e51b815260206004820152601560248201527f5175616e74697479206973206e6f742076616c696400000000000000000000006044820152606401610bfd565b60018460018111156125bd57634e487b7160e01b600052602160045260246000fd5b14156125ef576125d6876125d18784614901565b613926565b6125ea878667ffffffffffffffff16612ff3565b612678565b60155434906126089067ffffffffffffffff881661495d565b11156126565760405162461bcd60e51b815260206004820152601260248201527f4e6f7420656e6f756768732065746865722e00000000000000000000000000006044820152606401610bfd565b612664876125d18784614901565b612678878667ffffffffffffffff16612ff3565b341561269457600f54612694906001600160a01b03163461300d565b50505050505050565b60606126a882612cfe565b6126eb5760405162461bcd60e51b81526020600482015260146024820152731d1bdad95b88191bd95cc81b9bdd08195e1a5cdd60621b6044820152606401610bfd565b61ffff82166000908152601b6020526040902054829060ff16156127445761ffff81166000908152601c6020908152604091829020915161272d92910161483a565b604051602081830303815290604052915050919050565b61ffff81166000908152601d602052604090205460ff161561278057601261276f61ffff831661399e565b60405160200161272d929190614846565b600b54640100000000900460ff16156127a257601461276f61ffff831661399e565b601361276f61ffff831661399e565b50919050565b600e546001600160a01b031633146128285760405162461bcd60e51b815260206004820152602e60248201527f4f6e6c79206465666920746974616e20616464726573732063616e2063616c6c60448201526d103a3434b990333ab731ba34b7b760911b6064820152608401610bfd565b600b54600160281b900460ff1661287b5760405162461bcd60e51b8152602060048201526017602482015276135a5b9d1a5b99c81a5cc81b9bdd08199a5b9a5cda1959604a1b6044820152606401610bfd565b600b5460ff166128cd5760405162461bcd60e51b815260206004820152601b60248201527f436f6e7472616374206973206e6f7420696e697469616c697a656400000000006044820152606401610bfd565b600a55565b600b54610100900460ff166129215760405162461bcd60e51b815260206004820152601560248201527441756374696f6e206973206e6f742061637469766560581b6044820152606401610bfd565b8060ff1660011115801561293e575060195460ff90811690821611155b6129805760405162461bcd60e51b8152602060048201526013602482015272646179206973206f7574206f662072616e676560681b6044820152606401610bfd565b60ff81166000908152601e60205260409020600101544210156129e55760405162461bcd60e51b815260206004820152601a60248201527f61756374696f6e206973206e6f742073746172746564207965740000000000006044820152606401610bfd565b60ff81166000908152601e6020526040902060020154421115612a4a5760405162461bcd60e51b815260206004820152601260248201527f61756374696f6e206973206578706972656400000000000000000000000000006044820152606401610bfd565b6000612a57600183614993565b90506000612a678260ff166130b0565b600e5481519192506001600160a01b03918216911614612ac95760405162461bcd60e51b815260206004820152601460248201527f61756374696f6e2069732068617320656e6465640000000000000000000000006044820152606401610bfd565b60ff8084166000908152601e60209081526040808320815160c0810183528154909516855260018101549285019290925260028201549084015260038101546060840152600481015460808401526005015460a0830152612b2982613ad0565b90508160800151811015612ba55760405162461bcd60e51b815260206004820152603260248201527f61756374696f6e2068617320656e64656420626563617573652069742072656360448201527f6569766520746f206261736520707269636500000000000000000000000000006064820152608401610bfd565b612bb7670de0b6b3a764000034614949565b811115612c065760405162461bcd60e51b815260206004820152601060248201527f6e6f7420656e6f756768206d6f6e6579000000000000000000000000000000006044820152606401610bfd565b600e54612c20906001600160a01b03163360ff8716610e60565b600e54610e59906001600160a01b03163461300d565b6008546001600160a01b03163314612c905760405162461bcd60e51b815260206004820181905260248201527f4f776e61626c653a2063616c6c6572206973206e6f7420746865206f776e65726044820152606401610bfd565b6001600160a01b038116612cf55760405162461bcd60e51b815260206004820152602660248201527f4f776e61626c653a206e6577206f776e657220697320746865207a65726f206160448201526564647265737360d01b6064820152608401610bfd565b611016816136a9565b6000805482108015610a44575050600090815260046020526040902054600160e01b900460ff161590565b60008281526006602052604080822080546001600160a01b0319166001600160a01b0387811691821790925591518593918516917f8c5be1e5ebec7d5bd14f71427d1e84f3dd0314c0f7b2291e5b200ac8c7c3b92591a4505050565b6000612d90826130b0565b80519091506000906001600160a01b0316336001600160a01b03161480612dbe57508151612dbe90336109aa565b80612dd9575033612dce84610adc565b6001600160a01b0316145b905080612df957604051632ce44b5f60e11b815260040160405180910390fd5b846001600160a01b031682600001516001600160a01b031614612e2e5760405162a1148160e81b815260040160405180910390fd5b6001600160a01b038416612e5557604051633a954ecd60e21b815260040160405180910390fd5b612e656000848460000151612d29565b6001600160a01b038581166000908152600560209081526040808320805467ffffffffffffffff1980821667ffffffffffffffff92831660001901831617909255898616808652838620805493841693831660019081018416949094179055898652600490945282852080546001600160e01b031916909417600160a01b429092169190910217909255908601808352912054909116612f5157600054811015612f51578251600082815260046020908152604090912080549186015167ffffffffffffffff16600160a01b026001600160e01b03199092166001600160a01b03909316929092171790555b5082846001600160a01b0316866001600160a01b03167fddf252ad1be2c89b69c2b068fc378daa952ba7f163c4a11628f55a4df523b3ef60405160405180910390a4610e59565b60006001600160a01b038216612fc1576040516335ebb31960e01b815260040160405180910390fd5b506001600160a01b031660009081526005602052604090205468010000000000000000900467ffffffffffffffff1690565b6118e1828260405180602001604052806000815250613b25565b60405182906000906001600160a01b0383169084908381818185875af1925050503d806000811461305a576040519150601f19603f3d011682016040523d82523d6000602084013e61305f565b606091505b50509050806123e05760405162461bcd60e51b815260206004820152601460248201527f4661696c656420746f2073656e642045746865720000000000000000000000006044820152606401610bfd565b6040805160608101825260008082526020820181905291810191909152816000548110156131b357600081815260046020908152604091829020825160608101845290546001600160a01b0381168252600160a01b810467ffffffffffffffff1692820192909252600160e01b90910460ff161515918101829052906131b15780516001600160a01b031615613147579392505050565b5060001901600081815260046020908152604091829020825160608101845290546001600160a01b038116808352600160a01b820467ffffffffffffffff1693830193909352600160e01b900460ff16151592810192909252156131ac579392505050565b613147565b505b604051636f96cda160e11b815260040160405180910390fd5b60006131d7826130b0565b90506131e96000838360000151612d29565b80516001600160a01b039081166000908152600560209081526040808320805467ffffffffffffffff19811667ffffffffffffffff9182166000190182161790915585518516845281842080547fffffffffffffffff0000000000000000ffffffffffffffffffffffffffffffff81167001000000000000000000000000000000009182900484166001908101851690920217909155865188865260049094528285208054600160e01b9588166001600160e01b031990911617600160a01b42909416939093029290921760ff60e01b191693909317905590850180835291205490911661332357600054811015613323578151600082815260046020908152604090912080549185015167ffffffffffffffff16600160a01b026001600160e01b03199092166001600160a01b03909316929092171790555b50805160405183916000916001600160a01b03909116907fddf252ad1be2c89b69c2b068fc378daa952ba7f163c4a11628f55a4df523b3ef908390a450506001805481019055565b60195461ffff7f0000000000000000000000000000000000000000000000000000000000000000169060ff166133a060005490565b6133aa91906148e9565b11156134025760405162461bcd60e51b815260206004820152602160248201527f6e6f7420656e6f75676820737061636520666f72206e65772061756374696f6e6044820152607360f81b6064820152608401610bfd565b601954815160ff9091161461346a5760405162461bcd60e51b815260206004820152602860248201527f636f6e66696773206d757374206265207468652073616d65206c656e67746820604482015267185cc818dbdd5b9d60c21b6064820152608401610bfd565b600e54601954613486916001600160a01b03169060ff16612ff3565b60195460ff1661349560005490565b146134e25760405162461bcd60e51b815260206004820152601e60248201527f62616420696e697469616c697a6174696f6e206f6620636f6e747261637400006044820152606401610bfd565b60005b60195460ff90811690821610156118e15760006040518060c001604052808360ff1681526020018360ff16601560030154613520919061495d565b60175461352d91906148e9565b815260200161353d846001614924565b60185461354d9160ff169061495d565b60175461355a91906148e9565b8152602001848460ff168151811061358257634e487b7160e01b600052603260045260246000fd5b6020026020010151600001518152602001848460ff16815181106135b657634e487b7160e01b600052603260045260246000fd5b60200260200101516020015181526020016103e8858560ff16815181106135ed57634e487b7160e01b600052603260045260246000fd5b6020026020010151604001516136039190614949565b9052905080601e6000613617856001614924565b60ff908116825260208083019390935260409182016000208451815460ff191692169190911781559183015160018301558201516002820155606082015160038201556080820151600482015560a09091015160059091015561367982613b32565b5060ff81166000908152601d60205260409020805460ff19166001179055806136a181614a32565b9150506134e5565b600880546001600160a01b038381166001600160a01b0319831681179093556040519116919082907f8be0079c531659141344cd1fd0a4f28419497f9722a3daafe3b4186f6b6457e090600090a35050565b604051630a85bd0160e11b81526000906001600160a01b0385169063150b7a029061373090339089908890889060040161486b565b602060405180830381600087803b15801561374a57600080fd5b505af192505050801561377a575060408051601f3d908101601f191682019092526137779181019061458e565b60015b6137d5573d8080156137a8576040519150601f19603f3d011682016040523d82523d6000602084013e6137ad565b606091505b5080516137cd576040516368d2bf6b60e11b815260040160405180910390fd5b805181602001fd5b6001600160e01b031916630a85bd0160e11b1490505b949350505050565b6010546040516000916001600160a01b0316906138bc9061388090613820908a908a908a906020016147c5565b60408051601f1981840301815282825280516020918201207f19457468657265756d205369676e6564204d6573736167653a0a33320000000084830152603c8085019190915282518085039091018152605c909301909152815191012090565b85858080601f016020809104026020016040519081016040528093929190818152602001838380828437600092019190915250613bce92505050565b6001600160a01b0316149695505050505050565b60006001600160a01b0382166138f95760405163561b93dd60e11b815260040160405180910390fd5b506001600160a01b0316600090815260056020526040902054600160c01b900467ffffffffffffffff1690565b6001600160a01b03821661394d5760405163561b93dd60e11b815260040160405180910390fd5b6001600160a01b039091166000908152600560205260409020805467ffffffffffffffff909216600160c01b0277ffffffffffffffffffffffffffffffffffffffffffffffff909216919091179055565b6060816139c25750506040805180820190915260018152600360fc1b602082015290565b8160005b81156139ec57806139d681614a17565b91506139e59050600a83614949565b91506139c6565b60008167ffffffffffffffff811115613a1557634e487b7160e01b600052604160045260246000fd5b6040519080825280601f01601f191660200182016040528015613a3f576020820181803683370190505b5090505b84156137eb57613a5460018361497c565b9150613a61600a86614a52565b613a6c9060306148e9565b60f81b818381518110613a8f57634e487b7160e01b600052603260045260246000fd5b60200101907effffffffffffffffffffffffffffffffffffffffffffffffffffffffffffff1916908160001a905350613ac9600a86614949565b9450613a43565b600080826020015142613ae3919061497c565b90506000613af3610e1083614949565b90506000818560a00151613b07919061495d565b90506000818660600151613b1b919061497c565b9695505050505050565b610ba98383836001613bf2565b6000613b408260ff166130b0565b600e5481519192506001600160a01b03918216911614613bb25760405162461bcd60e51b815260206004820152602760248201527f7468697320697320776f726b206f6e6c7920666f72206465666920746974616e6044820152662061737365747360c81b6064820152608401610bfd565b600e546118e190309060ff8516906001600160a01b0316612d29565b6000806000613bdd8585613dc3565b91509150613bea81613e33565b509392505050565b6000546001600160a01b038516613c1b57604051622e076360e81b815260040160405180910390fd5b83613c395760405163b562e8dd60e01b815260040160405180910390fd5b6001600160a01b038516600081815260056020908152604080832080546fffffffffffffffffffffffffffffffff19811667ffffffffffffffff8083168c0181169182176801000000000000000067ffffffffffffffff1990941690921783900481168c01811690920217909155858452600490925290912080546001600160e01b031916909217600160a01b429092169190910217905580808501838015613ceb57506001600160a01b0387163b15155b15613d74575b60405182906001600160a01b038916906000907fddf252ad1be2c89b69c2b068fc378daa952ba7f163c4a11628f55a4df523b3ef908290a4613d3c60008884806001019550886136fb565b613d59576040516368d2bf6b60e11b815260040160405180910390fd5b80821415613cf1578260005414613d6f57600080fd5b613dba565b5b6040516001830192906001600160a01b038916906000907fddf252ad1be2c89b69c2b068fc378daa952ba7f163c4a11628f55a4df523b3ef908290a480821415613d75575b50600055610e59565b600080825160411415613dfa5760208301516040840151606085015160001a613dee87828585614034565b94509450505050613e2c565b825160401415613e245760208301516040840151613e19868383614121565b935093505050613e2c565b506000905060025b9250929050565b6000816004811115613e5557634e487b7160e01b600052602160045260246000fd5b1415613e5e5750565b6001816004811115613e8057634e487b7160e01b600052602160045260246000fd5b1415613ece5760405162461bcd60e51b815260206004820152601860248201527f45434453413a20696e76616c6964207369676e617475726500000000000000006044820152606401610bfd565b6002816004811115613ef057634e487b7160e01b600052602160045260246000fd5b1415613f3e5760405162461bcd60e51b815260206004820152601f60248201527f45434453413a20696e76616c6964207369676e6174757265206c656e677468006044820152606401610bfd565b6003816004811115613f6057634e487b7160e01b600052602160045260246000fd5b1415613fb95760405162461bcd60e51b815260206004820152602260248201527f45434453413a20696e76616c6964207369676e6174757265202773272076616c604482015261756560f01b6064820152608401610bfd565b6004816004811115613fdb57634e487b7160e01b600052602160045260246000fd5b14156110165760405162461bcd60e51b815260206004820152602260248201527f45434453413a20696e76616c6964207369676e6174757265202776272076616c604482015261756560f01b6064820152608401610bfd565b6000807f7fffffffffffffffffffffffffffffff5d576e7357a4501ddfe92f46681b20a083111561406b5750600090506003614118565b8460ff16601b1415801561408357508460ff16601c14155b156140945750600090506004614118565b6040805160008082526020820180845289905260ff881692820192909252606081018690526080810185905260019060a0016020604051602081039080840390855afa1580156140e8573d6000803e3d6000fd5b5050604051601f1901519150506001600160a01b03811661411157600060019250925050614118565b9150600090505b94509492505050565b6000807f7fffffffffffffffffffffffffffffffffffffffffffffffffffffffffffffff83168161415760ff86901c601b6148e9565b905061416587828885614034565b935093505050935093915050565b82805461417f906149e2565b90600052602060002090601f0160209004810192826141a157600085556141e7565b82601f106141ba57805160ff19168380011785556141e7565b828001600101855582156141e7579182015b828111156141e75782518255916020019190600101906141cc565b506141f39291506141f7565b5090565b5b808211156141f357600081556001016141f8565b600067ffffffffffffffff8084111561422757614227614a92565b604051601f8501601f19908116603f0116810190828211818310171561424f5761424f614a92565b8160405280935085815286868601111561426857600080fd5b858560208301376000602087830101525050509392505050565b80356001600160a01b0381168114611a1557600080fd5b80358015158114611a1557600080fd5b600082601f8301126142b9578081fd5b6142c88383356020850161420c565b9392505050565b803561ffff81168114611a1557600080fd5b803560ff81168114611a1557600080fd5b600060208284031215614303578081fd5b6142c882614282565b6000806040838503121561431e578081fd5b61432783614282565b915061433560208401614282565b90509250929050565b600080600060608486031215614352578081fd5b61435b84614282565b925061436960208501614282565b9150604084013590509250925092565b6000806000806080858703121561438e578081fd5b61439785614282565b93506143a560208601614282565b925060408501359150606085013567ffffffffffffffff8111156143c7578182fd5b8501601f810187136143d7578182fd5b6143e68782356020840161420c565b91505092959194509250565b60008060408385031215614404578182fd5b61440d83614282565b915061433560208401614299565b6000806040838503121561442d578182fd5b61443683614282565b946020939093013593505050565b60008060008060008060a0878903121561445c578182fd5b61446587614282565b9550614473602088016142e1565b9450604087013567ffffffffffffffff8082168214614490578384fd5b909450606088013590600282106144a5578384fd5b909350608088013590808211156144ba578384fd5b818901915089601f8301126144cd578384fd5b8135818111156144db578485fd5b8a60208285010111156144ec578485fd5b6020830194508093505050509295509295509295565b60008060208385031215614514578081fd5b823567ffffffffffffffff8082111561452b578283fd5b818501915085601f83011261453e578283fd5b81358181111561454c578384fd5b866020606083028501011115614560578384fd5b60209290920196919550909350505050565b600060208284031215614583578081fd5b81356142c881614aa8565b60006020828403121561459f578081fd5b81516142c881614aa8565b6000602082840312156145bb578081fd5b813567ffffffffffffffff8111156145d1578182fd5b6137eb848285016142a9565b6000806000606084860312156145f1578081fd5b833567ffffffffffffffff811115614607578182fd5b614613868287016142a9565b935050614622602085016142cf565b915061463060408501614299565b90509250925092565b60006060828403121561464a578081fd5b6040516060810181811067ffffffffffffffff8211171561466d5761466d614a92565b80604052508235815260208301356020820152604083013560408201528091505092915050565b6000602082840312156146a5578081fd5b6142c8826142cf565b6000602082840312156146bf578081fd5b5035919050565b600080604083850312156146d8578182fd5b50508035926020909101359150565b6000602082840312156146f8578081fd5b6142c8826142e1565b600081518084526147198160208601602086016149b6565b601f01601f19169290920160200192915050565b8054600090600181811c908083168061474757607f831692505b602080841082141561476757634e487b7160e01b86526022600452602486fd5b81801561477b576001811461478c576147b9565b60ff198616895284890196506147b9565b60008881526020902060005b868110156147b15781548b820152908501908301614798565b505084890196505b50505050505092915050565b606084901b6bffffffffffffffffffffffff1916815260f883901b7fff0000000000000000000000000000000000000000000000000000000000000016601482015260006002831061482557634e487b7160e01b81526021600452602481fd5b5060f89190911b601582015260160192915050565b60006142c8828461472d565b6000614852828561472d565b83516148628183602088016149b6565b01949350505050565b60006001600160a01b03808716835280861660208401525083604083015260806060830152613b1b6080830184614701565b6020815260006142c86020830184614701565b6060815260006148c36060830186614701565b82810360208401526148d58186614701565b90508281036040840152613b1b8185614701565b600082198211156148fc576148fc614a66565b500190565b600067ffffffffffffffff80831681851680830382111561486257614862614a66565b600060ff821660ff84168060ff0382111561494157614941614a66565b019392505050565b60008261495857614958614a7c565b500490565b600081600019048311821515161561497757614977614a66565b500290565b60008282101561498e5761498e614a66565b500390565b600060ff821660ff8416808210156149ad576149ad614a66565b90039392505050565b60005b838110156149d15781810151838201526020016149b9565b838111156123e05750506000910152565b600181811c908216806149f657607f821691505b602082108114156127b157634e487b7160e01b600052602260045260246000fd5b6000600019821415614a2b57614a2b614a66565b5060010190565b600060ff821660ff811415614a4957614a49614a66565b60010192915050565b600082614a6157614a61614a7c565b500690565b634e487b7160e01b600052601160045260246000fd5b634e487b7160e01b600052601260045260246000fd5b634e487b7160e01b600052604160045260246000fd5b6001600160e01b03198116811461101657600080fdfea2646970667358221220df09a85db5aa575998ae094eefae0fa60115d49853831c22197878c838a4f61e64736f6c63430008040033",
  "linkReferences": {},
  "deployedLinkReferences": {}
}