{
  "_format": "hh-sol-artifact-1",
  "contractName": "NFT",
  "sourceName": "src/contracts/NFT.sol",
  "abi": [
    {
      "inputs": [
        {
          "internalType": "uint16",
          "name": "maxSupply_",
          "type": "uint16"
        },
        {
          "components": [
            {
              "internalType": "address",
              "name": "OWNER",
              "type": "address"
            },
            {
              "internalType": "address",
              "name": "PLATFORM",
              "type": "address"
            },
            {
              "internalType": "address",
              "name": "DECENTRAL_TITAN",
              "type": "address"
            },
            {
              "internalType": "address",
              "name": "BUY_BACK_TREASURY_CONTRACT",
              "type": "address"
            },
            {
              "internalType": "address",
              "name": "WHITE_LIST_VERIFIER",
              "type": "address"
            },
            {
              "internalType": "address",
              "name": "ROYALTY_DISTRIBUTOR_CONTRACT",
              "type": "address"
            }
          ],
          "internalType": "struct NFT.ContractAddresses",
          "name": "addresses_",
          "type": "tuple"
        },
        {
          "internalType": "string",
          "name": "godCID_",
          "type": "string"
        },
        {
          "internalType": "string",
          "name": "notRevealedArtCID_",
          "type": "string"
        },
        {
          "components": [
            {
              "internalType": "uint256",
              "name": "MINT_PRICE_IN_WEI",
              "type": "uint256"
            },
            {
              "internalType": "uint16",
              "name": "MAX_MINT_PER_ADDRESS",
              "type": "uint16"
            },
            {
              "internalType": "uint256",
              "name": "AUCTION_START_TIME",
              "type": "uint256"
            },
            {
              "internalType": "uint256",
              "name": "AUCTION_DURATION",
              "type": "uint256"
            },
            {
              "internalType": "uint8",
              "name": "NUMBER_OF_TOKEN_FOR_AUCTION",
              "type": "uint8"
            },
            {
              "internalType": "uint8",
              "name": "ROYALTY_FEE_PERCENT",
              "type": "uint8"
            }
          ],
          "internalType": "struct NFT.ContactMintConfig",
          "name": "mintConfig_",
          "type": "tuple"
        },
        {
          "internalType": "uint256",
          "name": "upgradeRequestFeeInWei_",
          "type": "uint256"
        }
      ],
      "stateMutability": "nonpayable",
      "type": "constructor"
    },
    {
      "inputs": [],
      "name": "ApprovalCallerNotOwnerNorApproved",
      "type": "error"
    },
    {
      "inputs": [],
      "name": "ApprovalQueryForNonexistentToken",
      "type": "error"
    },
    {
      "inputs": [],
      "name": "ApprovalToCurrentOwner",
      "type": "error"
    },
    {
      "inputs": [],
      "name": "ApproveToCaller",
      "type": "error"
    },
    {
      "inputs": [],
      "name": "AuxQueryForZeroAddress",
      "type": "error"
    },
    {
      "inputs": [],
      "name": "BalanceQueryForZeroAddress",
      "type": "error"
    },
    {
      "inputs": [],
      "name": "MintToZeroAddress",
      "type": "error"
    },
    {
      "inputs": [],
      "name": "MintZeroQuantity",
      "type": "error"
    },
    {
      "inputs": [],
      "name": "MintedQueryForZeroAddress",
      "type": "error"
    },
    {
      "inputs": [],
      "name": "OwnerQueryForNonexistentToken",
      "type": "error"
    },
    {
      "inputs": [],
      "name": "TransferCallerNotOwnerNorApproved",
      "type": "error"
    },
    {
      "inputs": [],
      "name": "TransferFromIncorrectOwner",
      "type": "error"
    },
    {
      "inputs": [],
      "name": "TransferToNonERC721ReceiverImplementer",
      "type": "error"
    },
    {
      "inputs": [],
      "name": "TransferToZeroAddress",
      "type": "error"
    },
    {
      "anonymous": false,
      "inputs": [
        {
          "indexed": true,
          "internalType": "address",
          "name": "owner",
          "type": "address"
        },
        {
          "indexed": true,
          "internalType": "address",
          "name": "approved",
          "type": "address"
        },
        {
          "indexed": true,
          "internalType": "uint256",
          "name": "tokenId",
          "type": "uint256"
        }
      ],
      "name": "Approval",
      "type": "event"
    },
    {
      "anonymous": false,
      "inputs": [
        {
          "indexed": true,
          "internalType": "address",
          "name": "owner",
          "type": "address"
        },
        {
          "indexed": true,
          "internalType": "address",
          "name": "operator",
          "type": "address"
        },
        {
          "indexed": false,
          "internalType": "bool",
          "name": "approved",
          "type": "bool"
        }
      ],
      "name": "ApprovalForAll",
      "type": "event"
    },
    {
      "anonymous": false,
      "inputs": [
        {
          "indexed": true,
          "internalType": "address",
          "name": "previousOwner",
          "type": "address"
        },
        {
          "indexed": true,
          "internalType": "address",
          "name": "newOwner",
          "type": "address"
        }
      ],
      "name": "OwnershipTransferred",
      "type": "event"
    },
    {
      "anonymous": false,
      "inputs": [
        {
          "indexed": true,
          "internalType": "address",
          "name": "from",
          "type": "address"
        },
        {
          "indexed": true,
          "internalType": "address",
          "name": "to",
          "type": "address"
        },
        {
          "indexed": true,
          "internalType": "uint256",
          "name": "tokenId",
          "type": "uint256"
        }
      ],
      "name": "Transfer",
      "type": "event"
    },
    {
      "anonymous": false,
      "inputs": [
        {
          "indexed": false,
          "internalType": "uint16",
          "name": "_token",
          "type": "uint16"
        },
        {
          "indexed": false,
          "internalType": "uint256",
          "name": "_value",
          "type": "uint256"
        }
      ],
      "name": "UpgradeRequestPayment",
      "type": "event"
    },
    {
      "inputs": [],
      "name": "ADDRESS",
      "outputs": [
        {
          "internalType": "address",
          "name": "OWNER",
          "type": "address"
        },
        {
          "internalType": "address",
          "name": "PLATFORM",
          "type": "address"
        },
        {
          "internalType": "address",
          "name": "DECENTRAL_TITAN",
          "type": "address"
        },
        {
          "internalType": "address",
          "name": "BUY_BACK_TREASURY_CONTRACT",
          "type": "address"
        },
        {
          "internalType": "address",
          "name": "WHITE_LIST_VERIFIER",
          "type": "address"
        },
        {
          "internalType": "address",
          "name": "ROYALTY_DISTRIBUTOR_CONTRACT",
          "type": "address"
        }
      ],
      "stateMutability": "view",
      "type": "function"
    },
    {
      "inputs": [
        {
          "internalType": "uint8",
          "name": "",
          "type": "uint8"
        }
      ],
      "name": "AUCTIONS",
      "outputs": [
        {
          "internalType": "uint8",
          "name": "TOKEN_ID",
          "type": "uint8"
        },
        {
          "internalType": "uint256",
          "name": "START_TIME",
          "type": "uint256"
        },
        {
          "internalType": "uint256",
          "name": "EXPIRE_AT",
          "type": "uint256"
        },
        {
          "internalType": "uint256",
          "name": "START_PRICE",
          "type": "uint256"
        },
        {
          "internalType": "uint256",
          "name": "END_PRICE",
          "type": "uint256"
        },
        {
          "internalType": "uint256",
          "name": "AUCTION_DROP_INTERVAL",
          "type": "uint256"
        },
        {
          "internalType": "uint256",
          "name": "AUCTION_DROP_PER_STEP",
          "type": "uint256"
        },
        {
          "internalType": "bool",
          "name": "IS_SOLD",
          "type": "bool"
        }
      ],
      "stateMutability": "view",
      "type": "function"
    },
    {
      "inputs": [],
      "name": "IPFS",
      "outputs": [
        {
          "internalType": "string",
          "name": "GOD_CID",
          "type": "string"
        },
        {
          "internalType": "string",
          "name": "NOT_REVEALED_ART_CID",
          "type": "string"
        },
        {
          "internalType": "string",
          "name": "ART_CID",
          "type": "string"
        }
      ],
      "stateMutability": "view",
      "type": "function"
    },
    {
      "inputs": [],
      "name": "MAX_SUPPLY",
      "outputs": [
        {
          "internalType": "uint16",
          "name": "",
          "type": "uint16"
        }
      ],
      "stateMutability": "view",
      "type": "function"
    },
    {
      "inputs": [],
      "name": "MINTING_CONFIG",
      "outputs": [
        {
          "internalType": "uint256",
          "name": "MINT_PRICE_IN_WEI",
          "type": "uint256"
        },
        {
          "internalType": "uint16",
          "name": "MAX_MINT_PER_ADDRESS",
          "type": "uint16"
        },
        {
          "internalType": "uint256",
          "name": "AUCTION_START_TIME",
          "type": "uint256"
        },
        {
          "internalType": "uint256",
          "name": "AUCTION_DURATION",
          "type": "uint256"
        },
        {
          "internalType": "uint8",
          "name": "NUMBER_OF_TOKEN_FOR_AUCTION",
          "type": "uint8"
        },
        {
          "internalType": "uint8",
          "name": "ROYALTY_FEE_PERCENT",
          "type": "uint8"
        }
      ],
      "stateMutability": "view",
      "type": "function"
    },
    {
      "inputs": [],
      "name": "STATE",
      "outputs": [
        {
          "internalType": "bool",
          "name": "INITIALIZED",
          "type": "bool"
        },
        {
          "internalType": "bool",
          "name": "AUCTION_IS_ACTIVE",
          "type": "bool"
        },
        {
          "internalType": "bool",
          "name": "WHITE_LIST_MINTING_IS_ACTIVE",
          "type": "bool"
        },
        {
          "internalType": "bool",
          "name": "MINTING_IS_ACTIVE",
          "type": "bool"
        },
        {
          "internalType": "bool",
          "name": "ART_IS_REVEALED",
          "type": "bool"
        },
        {
          "internalType": "bool",
          "name": "FINISHED",
          "type": "bool"
        }
      ],
      "stateMutability": "view",
      "type": "function"
    },
    {
      "inputs": [
        {
          "internalType": "uint16",
          "name": "",
          "type": "uint16"
        }
      ],
      "name": "TOKEN_IS_GOD",
      "outputs": [
        {
          "internalType": "bool",
          "name": "",
          "type": "bool"
        }
      ],
      "stateMutability": "view",
      "type": "function"
    },
    {
      "inputs": [
        {
          "internalType": "uint16",
          "name": "",
          "type": "uint16"
        }
      ],
      "name": "TOKEN_IS_UPGRADED",
      "outputs": [
        {
          "internalType": "bool",
          "name": "",
          "type": "bool"
        }
      ],
      "stateMutability": "view",
      "type": "function"
    },
    {
      "inputs": [],
      "name": "UPGRADE_REQUEST_FEE_IN_WEI",
      "outputs": [
        {
          "internalType": "uint256",
          "name": "",
          "type": "uint256"
        }
      ],
      "stateMutability": "view",
      "type": "function"
    },
    {
      "inputs": [
        {
          "internalType": "uint256",
          "name": "",
          "type": "uint256"
        }
      ],
      "name": "UPGRADE_REQUEST_FEE_IS_PAID",
      "outputs": [
        {
          "internalType": "bool",
          "name": "",
          "type": "bool"
        }
      ],
      "stateMutability": "view",
      "type": "function"
    },
    {
      "inputs": [
        {
          "internalType": "address",
          "name": "to",
          "type": "address"
        },
        {
          "internalType": "uint256",
          "name": "tokenId",
          "type": "uint256"
        }
      ],
      "name": "approve",
      "outputs": [],
      "stateMutability": "nonpayable",
      "type": "function"
    },
    {
      "inputs": [
        {
          "internalType": "address",
          "name": "owner",
          "type": "address"
        }
      ],
      "name": "balanceOf",
      "outputs": [
        {
          "internalType": "uint256",
          "name": "",
          "type": "uint256"
        }
      ],
      "stateMutability": "view",
      "type": "function"
    },
    {
      "inputs": [
        {
          "internalType": "uint8",
          "name": "day",
          "type": "uint8"
        }
      ],
      "name": "buyAGodInAuction",
      "outputs": [],
      "stateMutability": "payable",
      "type": "function"
    },
    {
      "inputs": [
        {
          "internalType": "uint16",
          "name": "tokenId",
          "type": "uint16"
        }
      ],
      "name": "buyBackToken",
      "outputs": [],
      "stateMutability": "nonpayable",
      "type": "function"
    },
    {
      "inputs": [],
      "name": "finishAuction",
      "outputs": [],
      "stateMutability": "nonpayable",
      "type": "function"
    },
    {
      "inputs": [],
      "name": "finishMinting",
      "outputs": [],
      "stateMutability": "nonpayable",
      "type": "function"
    },
    {
      "inputs": [
        {
          "internalType": "uint256",
          "name": "tokenId",
          "type": "uint256"
        }
      ],
      "name": "getApproved",
      "outputs": [
        {
          "internalType": "address",
          "name": "",
          "type": "address"
        }
      ],
      "stateMutability": "view",
      "type": "function"
    },
    {
      "inputs": [
        {
          "internalType": "uint8",
          "name": "day",
          "type": "uint8"
        }
      ],
      "name": "getAuctionPrice",
      "outputs": [
        {
          "internalType": "uint256",
          "name": "",
          "type": "uint256"
        }
      ],
      "stateMutability": "view",
      "type": "function"
    },
    {
      "inputs": [
        {
          "components": [
            {
              "internalType": "uint256",
              "name": "START_PRICE",
              "type": "uint256"
            },
            {
              "internalType": "uint256",
              "name": "END_PRICE",
              "type": "uint256"
            },
            {
              "internalType": "uint256",
              "name": "AUCTION_DROP_INTERVAL",
              "type": "uint256"
            },
            {
              "internalType": "uint256",
              "name": "AUCTION_DROP_PER_STEP",
              "type": "uint256"
            }
          ],
          "internalType": "struct NFT.AuctionConfig[]",
          "name": "configs",
          "type": "tuple[]"
        }
      ],
      "name": "initializer",
      "outputs": [],
      "stateMutability": "nonpayable",
      "type": "function"
    },
    {
      "inputs": [
        {
          "internalType": "address",
          "name": "owner",
          "type": "address"
        },
        {
          "internalType": "address",
          "name": "operator",
          "type": "address"
        }
      ],
      "name": "isApprovedForAll",
      "outputs": [
        {
          "internalType": "bool",
          "name": "",
          "type": "bool"
        }
      ],
      "stateMutability": "view",
      "type": "function"
    },
    {
      "inputs": [],
      "name": "name",
      "outputs": [
        {
          "internalType": "string",
          "name": "",
          "type": "string"
        }
      ],
      "stateMutability": "view",
      "type": "function"
    },
    {
      "inputs": [],
      "name": "owner",
      "outputs": [
        {
          "internalType": "address",
          "name": "",
          "type": "address"
        }
      ],
      "stateMutability": "view",
      "type": "function"
    },
    {
      "inputs": [
        {
          "internalType": "uint256",
          "name": "tokenId",
          "type": "uint256"
        }
      ],
      "name": "ownerOf",
      "outputs": [
        {
          "internalType": "address",
          "name": "",
          "type": "address"
        }
      ],
      "stateMutability": "view",
      "type": "function"
    },
    {
      "inputs": [
        {
          "internalType": "uint256",
          "name": "quantity",
          "type": "uint256"
        }
      ],
      "name": "publicMint",
      "outputs": [],
      "stateMutability": "payable",
      "type": "function"
    },
    {
      "inputs": [],
      "name": "renounceOwnership",
      "outputs": [],
      "stateMutability": "nonpayable",
      "type": "function"
    },
    {
      "inputs": [
        {
          "internalType": "string",
          "name": "ipfsCid",
          "type": "string"
        }
      ],
      "name": "revealArt",
      "outputs": [],
      "stateMutability": "nonpayable",
      "type": "function"
    },
    {
      "inputs": [
        {
          "internalType": "uint256",
          "name": "",
          "type": "uint256"
        },
        {
          "internalType": "uint256",
          "name": "value",
          "type": "uint256"
        }
      ],
      "name": "royaltyInfo",
      "outputs": [
        {
          "internalType": "address",
          "name": "receiver",
          "type": "address"
        },
        {
          "internalType": "uint256",
          "name": "royaltyAmount",
          "type": "uint256"
        }
      ],
      "stateMutability": "view",
      "type": "function"
    },
    {
      "inputs": [
        {
          "internalType": "address",
          "name": "from",
          "type": "address"
        },
        {
          "internalType": "address",
          "name": "to",
          "type": "address"
        },
        {
          "internalType": "uint256",
          "name": "tokenId",
          "type": "uint256"
        }
      ],
      "name": "safeTransferFrom",
      "outputs": [],
      "stateMutability": "nonpayable",
      "type": "function"
    },
    {
      "inputs": [
        {
          "internalType": "address",
          "name": "from",
          "type": "address"
        },
        {
          "internalType": "address",
          "name": "to",
          "type": "address"
        },
        {
          "internalType": "uint256",
          "name": "tokenId",
          "type": "uint256"
        },
        {
          "internalType": "bytes",
          "name": "_data",
          "type": "bytes"
        }
      ],
      "name": "safeTransferFrom",
      "outputs": [],
      "stateMutability": "nonpayable",
      "type": "function"
    },
    {
      "inputs": [
        {
          "internalType": "address",
          "name": "operator",
          "type": "address"
        },
        {
          "internalType": "bool",
          "name": "approved",
          "type": "bool"
        }
      ],
      "name": "setApprovalForAll",
      "outputs": [],
      "stateMutability": "nonpayable",
      "type": "function"
    },
    {
      "inputs": [
        {
          "internalType": "address",
          "name": "buyBackTreasury_",
          "type": "address"
        }
      ],
      "name": "setBuyBackTreasury",
      "outputs": [],
      "stateMutability": "nonpayable",
      "type": "function"
    },
    {
      "inputs": [
        {
          "internalType": "address",
          "name": "platform_",
          "type": "address"
        }
      ],
      "name": "setPlatform",
      "outputs": [],
      "stateMutability": "nonpayable",
      "type": "function"
    },
    {
      "inputs": [
        {
          "internalType": "uint256",
          "name": "upgradeRequestFeeInWei_",
          "type": "uint256"
        }
      ],
      "name": "setUpgradeRequestFeeInWei",
      "outputs": [],
      "stateMutability": "nonpayable",
      "type": "function"
    },
    {
      "inputs": [],
      "name": "startPublicMinting",
      "outputs": [],
      "stateMutability": "nonpayable",
      "type": "function"
    },
    {
      "inputs": [],
      "name": "startWhiteListMinting",
      "outputs": [],
      "stateMutability": "nonpayable",
      "type": "function"
    },
    {
      "inputs": [
        {
          "internalType": "bytes4",
          "name": "interfaceId",
          "type": "bytes4"
        }
      ],
      "name": "supportsInterface",
      "outputs": [
        {
          "internalType": "bool",
          "name": "",
          "type": "bool"
        }
      ],
      "stateMutability": "view",
      "type": "function"
    },
    {
      "inputs": [],
      "name": "symbol",
      "outputs": [
        {
          "internalType": "string",
          "name": "",
          "type": "string"
        }
      ],
      "stateMutability": "view",
      "type": "function"
    },
    {
      "inputs": [
        {
          "internalType": "uint256",
          "name": "tokenId_",
          "type": "uint256"
        }
      ],
      "name": "tokenURI",
      "outputs": [
        {
          "internalType": "string",
          "name": "",
          "type": "string"
        }
      ],
      "stateMutability": "view",
      "type": "function"
    },
    {
      "inputs": [],
      "name": "totalSupply",
      "outputs": [
        {
          "internalType": "uint256",
          "name": "",
          "type": "uint256"
        }
      ],
      "stateMutability": "view",
      "type": "function"
    },
    {
      "inputs": [
        {
          "internalType": "address",
          "name": "from",
          "type": "address"
        },
        {
          "internalType": "address",
          "name": "to",
          "type": "address"
        },
        {
          "internalType": "uint256",
          "name": "tokenId",
          "type": "uint256"
        }
      ],
      "name": "transferFrom",
      "outputs": [],
      "stateMutability": "nonpayable",
      "type": "function"
    },
    {
      "inputs": [
        {
          "internalType": "address",
          "name": "newOwner",
          "type": "address"
        }
      ],
      "name": "transferOwnership",
      "outputs": [],
      "stateMutability": "nonpayable",
      "type": "function"
    },
    {
      "inputs": [
        {
          "internalType": "string",
          "name": "ipfsCid",
          "type": "string"
        },
        {
          "internalType": "uint16",
          "name": "tokenId",
          "type": "uint16"
        },
        {
          "internalType": "bool",
          "name": "isGodNow",
          "type": "bool"
        }
      ],
      "name": "upgradeToken",
      "outputs": [],
      "stateMutability": "nonpayable",
      "type": "function"
    },
    {
      "inputs": [
        {
          "internalType": "uint16",
          "name": "tokenId",
          "type": "uint16"
        }
      ],
      "name": "upgradeTokenRequestFee",
      "outputs": [],
      "stateMutability": "payable",
      "type": "function"
    },
    {
      "inputs": [
        {
          "internalType": "address",
          "name": "addr_",
          "type": "address"
        },
        {
          "internalType": "uint8",
          "name": "maxQuantity_",
          "type": "uint8"
        },
        {
          "internalType": "uint64",
          "name": "quantity_",
          "type": "uint64"
        },
        {
          "internalType": "enum NFT.WhiteListType",
          "name": "whiteListType_",
          "type": "uint8"
        },
        {
          "internalType": "bytes",
          "name": "sig",
          "type": "bytes"
        }
      ],
      "name": "whitelistMinting",
      "outputs": [],
      "stateMutability": "payable",
      "type": "function"
    }
  ],
  "bytecode": "0x60a06040523480156200001157600080fd5b506040516200515f3803806200515f83398101604081905262000034916200045f565b8451604080518082018252601181527044656d6d6f7274616c547265617375726560781b60208083019182528351808501909452600280855261111560f21b9185019190915282519293926200008b929062000271565b508051620000a190600390602084019062000271565b50506000805550620000b3816200021f565b50600160095560f086901b6001600160f01b03191660809081526040805160c08101825260008082526020808301829052828401829052606080840183905283860183905260a093840192909252600b805465ffffffffffff191690558951600c80546001600160a01b03199081166001600160a01b03938416179091558b830151600d80548316918416919091179055948b0151600e80548716918316919091179055918a0151600f8054861691841691909117905593890151601080548516918316919091179055908801516011805490931691161790558451620001a1916012919087019062000271565b508251620001b790601390602086019062000271565b50815160155560208201516016805461ffff90921661ffff199283161790556040830151601755606083015160185560808301516019805460a09095015160ff9081166101000295909316929091169190911792909217909155600a55506200063c92505050565b600880546001600160a01b038381166001600160a01b0319831681179093556040519116919082907f8be0079c531659141344cd1fd0a4f28419497f9722a3daafe3b4186f6b6457e090600090a35050565b8280546200027f90620005e9565b90600052602060002090601f016020900481019282620002a35760008555620002ee565b82601f10620002be57805160ff1916838001178555620002ee565b82800160010185558215620002ee579182015b82811115620002ee578251825591602001919060010190620002d1565b50620002fc92915062000300565b5090565b5b80821115620002fc576000815560010162000301565b80516001600160a01b03811681146200032f57600080fd5b919050565b600082601f83011262000345578081fd5b81516001600160401b0381111562000361576200036162000626565b602062000377601f8301601f19168201620005b6565b82815285828487010111156200038b578384fd5b835b83811015620003aa5785810183015182820184015282016200038d565b83811115620003bb57848385840101525b5095945050505050565b600060c08284031215620003d7578081fd5b620003e16200058b565b905081518152620003f5602083016200043a565b602082015260408201516040820152606082015160608201526200041c608083016200044d565b60808201526200042f60a083016200044d565b60a082015292915050565b805161ffff811681146200032f57600080fd5b805160ff811681146200032f57600080fd5b6000806000806000808688036102008112156200047a578283fd5b62000485886200043a565b965060c0601f198201121562000499578283fd5b50620004a46200058b565b620004b26020890162000317565b8152620004c26040890162000317565b6020820152620004d56060890162000317565b6040820152620004e86080890162000317565b6060820152620004fb60a0890162000317565b60808201526200050e60c0890162000317565b60a082015260e08801519095506001600160401b038082111562000530578384fd5b6200053e8a838b0162000334565b955061010089015191508082111562000555578384fd5b506200056489828a0162000334565b93505062000577886101208901620003c5565b91506101e087015190509295509295509295565b60405160c081016001600160401b0381118282101715620005b057620005b062000626565b60405290565b604051601f8201601f191681016001600160401b0381118282101715620005e157620005e162000626565b604052919050565b600181811c90821680620005fe57607f821691505b602082108114156200062057634e487b7160e01b600052602260045260246000fd5b50919050565b634e487b7160e01b600052604160045260246000fd5b60805160f01c614af662000669600039600081816104e8015281816123df01526133e20152614af66000f3fe6080604052600436106102a75760003560e01c80636945c5ea11610164578063a22cb465116100c6578063c486456c1161008a578063d0b50d8e11610064578063d0b50d8e1461098e578063e985e9c5146109ae578063f2fde38b146109f757600080fd5b8063c486456c146108d7578063c4f1634d1461095b578063c87b56dd1461096e57600080fd5b8063a22cb465146107d3578063a5077460146107f3578063b51ce63d14610823578063b88d4fde146108a4578063b9143eb2146108c457600080fd5b80638abbe9e61161012857806397a9140c1161010257806397a9140c1461077e5780639da058e91461079e578063a0a4a5a2146107b357600080fd5b80638abbe9e61461071b5780638da5cb5b1461074b57806395d89b411461076957600080fd5b80636945c5ea1461069157806370a08231146106b1578063715018a6146106d15780637d64bcb4146106e657806389514543146106fb57600080fd5b806332cb6b0c1161020d57806354353219116101d15780636352211e116101ab5780636352211e1461064857806364b1152f14610668578063688d260e1461067b57600080fd5b8063543532191461059757806360dc13a9146105bb57806361a0dedc146105db57600080fd5b806332cb6b0c146104d657806342842e0e1461051d578063430ca46f1461053d57806348c3e15d146105525780634c0e123b1461058257600080fd5b806318160ddd1161026f5780632a55205a116102495780632a55205a146104645780632db11544146104a35780632fa3ce7d146104b657600080fd5b806318160ddd146104015780631db16f201461042457806323b872dd1461044457600080fd5b806301ffc9a7146102ac578063045cd554146102e157806306fdde0314610385578063081812fc146103a7578063095ea7b3146103df575b600080fd5b3480156102b857600080fd5b506102cc6102c7366004614583565b610a17565b60405190151581526020015b60405180910390f35b3480156102ed57600080fd5b506103446102fc366004614702565b601e602052600090815260409020805460018201546002830154600384015460048501546005860154600687015460079097015460ff96871697959694959394929391921688565b6040805160ff90991689526020890197909752958701949094526060860192909252608085015260a084015260c0830152151560e0820152610100016102d8565b34801561039157600080fd5b5061039a610a69565b6040516102d891906148c2565b3480156103b357600080fd5b506103c76103c23660046146c9565b610afb565b6040516001600160a01b0390911681526020016102d8565b3480156103eb57600080fd5b506103ff6103fa36600461442c565b610b3f565b005b34801561040d57600080fd5b50600154600054035b6040519081526020016102d8565b34801561043057600080fd5b506103ff61043f3660046145ee565b610bcd565b34801561045057600080fd5b506103ff61045f36600461434f565b610e7f565b34801561047057600080fd5b5061048461047f3660046146e1565b610e8a565b604080516001600160a01b0390931683526020830191909152016102d8565b6103ff6104b13660046146c9565b610ec5565b3480156104c257600080fd5b506103ff6104d13660046146af565b611021565b3480156104e257600080fd5b5061050a7f000000000000000000000000000000000000000000000000000000000000000081565b60405161ffff90911681526020016102d8565b34801561052957600080fd5b506103ff61053836600461434f565b6111d4565b34801561054957600080fd5b506103ff6111ef565b34801561055e57600080fd5b506102cc61056d3660046146af565b601b6020526000908152604090205460ff1681565b34801561058e57600080fd5b506103ff611370565b3480156105a357600080fd5b506105ac6114f2565b6040516102d8939291906148d5565b3480156105c757600080fd5b506104166105d6366004614702565b6116a0565b3480156105e757600080fd5b50601554601654601754601854601954610612949361ffff1692919060ff8082169161010090041686565b6040805196875261ffff909516602087015293850192909252606084015260ff90811660808401521660a082015260c0016102d8565b34801561065457600080fd5b506103c76106633660046146c9565b6117d9565b6103ff6106763660046146af565b6117eb565b34801561068757600080fd5b50610416600a5481565b34801561069d57600080fd5b506103ff6106ac36600461430c565b611a14565b3480156106bd57600080fd5b506104166106cc36600461430c565b611aa7565b3480156106dd57600080fd5b506103ff611af6565b3480156106f257600080fd5b506103ff611b5c565b34801561070757600080fd5b506103ff6107163660046145bb565b611c97565b34801561072757600080fd5b506102cc6107363660046146af565b601d6020526000908152604090205460ff1681565b34801561075757600080fd5b506008546001600160a01b03166103c7565b34801561077557600080fd5b5061039a611db7565b34801561078a57600080fd5b506103ff610799366004614513565b611dc6565b3480156107aa57600080fd5b506103ff612013565b3480156107bf57600080fd5b506103ff6107ce36600461430c565b6121b4565b3480156107df57600080fd5b506103ff6107ee366004614403565b612245565b3480156107ff57600080fd5b506102cc61080e3660046146c9565b601f6020526000908152604090205460ff1681565b34801561082f57600080fd5b50600c54600d54600e54600f54601054601154610862956001600160a01b03908116958116948116938116928116911686565b604080516001600160a01b03978816815295871660208701529386169385019390935290841660608401528316608083015290911660a082015260c0016102d8565b3480156108b057600080fd5b506103ff6108bf36600461438a565b6122db565b6103ff6108d2366004614455565b61232c565b3480156108e357600080fd5b50600b546109229060ff808216916101008104821691620100008204811691630100000081048216916401000000008204811691600160281b90041686565b604080519615158752941515602087015292151593850193909352151560608401529015156080830152151560a082015260c0016102d8565b6103ff610969366004614702565b6125e3565b34801561097a57600080fd5b5061039a6109893660046146c9565b6129a5565b34801561099a57600080fd5b506103ff6109a93660046146c9565b612abf565b3480156109ba57600080fd5b506102cc6109c9366004614326565b6001600160a01b03918216600090815260076020908152604080832093909416825291909152205460ff1690565b348015610a0357600080fd5b506103ff610a1236600461430c565b612bda565b60006001600160e01b031982166380ac58cd60e01b1480610a4857506001600160e01b03198216635b5e139f60e01b145b80610a6357506301ffc9a760e01b6001600160e01b03198316145b92915050565b606060028054610a78906149e4565b80601f0160208091040260200160405190810160405280929190818152602001828054610aa4906149e4565b8015610af15780601f10610ac657610100808354040283529160200191610af1565b820191906000526020600020905b815481529060010190602001808311610ad457829003601f168201915b5050505050905090565b6000610b0682612ca2565b610b23576040516333d1c03960e21b815260040160405180910390fd5b506000908152600660205260409020546001600160a01b031690565b6000610b4a826117d9565b9050806001600160a01b0316836001600160a01b03161415610b7f5760405163250fdee360e21b815260040160405180910390fd5b336001600160a01b03821614801590610b9f5750610b9d81336109c9565b155b15610bbd576040516367d9dca160e11b815260040160405180910390fd5b610bc8838383612ccd565b505050565b600b54600160281b900460ff16610c255760405162461bcd60e51b8152602060048201526017602482015276135a5b9d1a5b99c81a5cc81b9bdd08199a5b9a5cda1959604a1b60448201526064015b60405180910390fd5b600b5460ff16610c775760405162461bcd60e51b815260206004820152601b60248201527f436f6e7472616374206973206e6f7420696e697469616c697a656400000000006044820152606401610c1c565b600d546001600160a01b03163314610ce65760405162461bcd60e51b815260206004820152602c60248201527f4f6e6c7920706c6174666f726d20616464726573732063616e2063616c6c207460448201526b3434b990333ab731ba34b7b760a11b6064820152608401610c1c565b61ffff82166000908152601d6020526040902054829060ff1615610d605760405162461bcd60e51b815260206004820152602b60248201527f746869732066756e6374696f6e206973206f6e6c792066756e6374696f6e616c60448201526a20666f722068756d616e7360a81b6064820152608401610c1c565b835180610d9e5760405162461bcd60e51b815260206004820152600c60248201526b43494420697320656d70747960a01b6044820152606401610c1c565b61ffff84166000908152601f602052604090205460ff16610e015760405162461bcd60e51b815260206004820152601760248201527f7570677261646520666565206973206e6f7420706169640000000000000000006044820152606401610c1c565b61ffff84166000908152601f60209081526040808320805460ff19169055601c82529091208651610e349288019061418d565b5061ffff84166000908152601b60205260409020805460ff191660011790558215610e785761ffff84166000908152601d60205260409020805460ff191660011790555b5050505050565b610bc8838383612d29565b601a546001600160a01b03811690600090606490610eb290600160a01b900460ff1685614982565b610ebc919061496e565b90509250929050565b600b546301000000900460ff16610f1e5760405162461bcd60e51b815260206004820152601560248201527f4d696e74696e67206973206e6f742061637469766500000000000000000000006044820152606401610c1c565b60165461ffff1681610f2f33612f3c565b610f39919061490e565b1115610fad5760405162461bcd60e51b815260206004820152603860248201527f4e46543a20796f75207265616368656420746865206d6178696d756d206e756d60448201527f626572206f66206d696e747320706572206164647265737300000000000000006064820152608401610c1c565b6015543490610fbc9083614982565b1115610ffe5760405162461bcd60e51b81526020600482015260116024820152703737ba1032b737bab3b4399032ba3432b960791b6044820152606401610c1c565b6110083382612f97565b600f5461101e906001600160a01b031634612fb1565b50565b61ffff81166000908152601d6020526040902054819060ff161561109b5760405162461bcd60e51b815260206004820152602b60248201527f746869732066756e6374696f6e206973206f6e6c792066756e6374696f6e616c60448201526a20666f722068756d616e7360a81b6064820152608401610c1c565b600260095414156110ee5760405162461bcd60e51b815260206004820152601f60248201527f5265656e7472616e637947756172643a207265656e7472616e742063616c6c006044820152606401610c1c565b600260095561110061ffff8316612ca2565b6111435760405162461bcd60e51b81526020600482015260146024820152731d1bdad95b88191bd95cc81b9bdd08195e1a5cdd60621b6044820152606401610c1c565b60006111528361ffff16613054565b80519091506001600160a01b031633146111bd5760405162461bcd60e51b815260206004820152602660248201527f6f6e6c79206f776e6572206f6620746f6b656e2063616e20627579206261636b604482015265103a37b5b2b760d11b6064820152608401610c1c565b6111ca8361ffff16613170565b5050600160095550565b610bc8838383604051806020016040528060008152506122db565b600e546001600160a01b031633146112605760405162461bcd60e51b815260206004820152602e60248201527f4f6e6c79206465666920746974616e20616464726573732063616e2063616c6c60448201526d103a3434b990333ab731ba34b7b760911b6064820152608401610c1c565b600b54600160281b900460ff16156112ba5760405162461bcd60e51b815260206004820181905260248201527f4e46543a204d696e74696e6720697320616c72656164792066696e69736865646044820152606401610c1c565b600b5460ff1661130c5760405162461bcd60e51b815260206004820181905260248201527f4e46543a20636f6e7472616374206973206e6f7420696e697469616c697a65646044820152606401610c1c565b600b54610100900460ff166113635760405162461bcd60e51b815260206004820152601a60248201527f4e46543a2041756374696f6e206973206e6f74206163746976650000000000006044820152606401610c1c565b600b805461ff0019169055565b6008546001600160a01b031633146113ca5760405162461bcd60e51b815260206004820181905260248201527f4f776e61626c653a2063616c6c6572206973206e6f7420746865206f776e65726044820152606401610c1c565b600b5460ff1661141c5760405162461bcd60e51b815260206004820181905260248201527f4e46543a20636f6e7472616374206973206e6f7420696e697469616c697a65646044820152606401610c1c565b600b54600160281b900460ff16156114765760405162461bcd60e51b815260206004820181905260248201527f4e46543a204d696e74696e6720697320616c72656164792066696e69736865646044820152606401610c1c565b600b5462010000900460ff16156114df5760405162461bcd60e51b815260206004820152602760248201527f4e46543a2057686974654c6973744d696e74696e6720697320616c72656164796044820152662061637469766560c81b6064820152608401610c1c565b600b805462ff0000191662010000179055565b601280548190611501906149e4565b80601f016020809104026020016040519081016040528092919081815260200182805461152d906149e4565b801561157a5780601f1061154f5761010080835404028352916020019161157a565b820191906000526020600020905b81548152906001019060200180831161155d57829003601f168201915b50505050509080600101805461158f906149e4565b80601f01602080910402602001604051908101604052809291908181526020018280546115bb906149e4565b80156116085780601f106115dd57610100808354040283529160200191611608565b820191906000526020600020905b8154815290600101906020018083116115eb57829003601f168201915b50505050509080600201805461161d906149e4565b80601f0160208091040260200160405190810160405280929190818152602001828054611649906149e4565b80156116965780601f1061166b57610100808354040283529160200191611696565b820191906000526020600020905b81548152906001019060200180831161167957829003601f168201915b5050505050905083565b600b54600090610100900460ff166116f25760405162461bcd60e51b815260206004820152601560248201527441756374696f6e206973206e6f742061637469766560581b6044820152606401610c1c565b8160ff1660011115801561170f575060195460ff90811690831611155b6117515760405162461bcd60e51b8152602060048201526013602482015272646179206973206f7574206f662072616e676560681b6044820152606401610c1c565b60ff8083166000908152601e60209081526040918290208251610100810184528154851681526001820154928101929092526002810154928201929092526003820154606082015260048201546080820152600582015460a0820152600682015460c0820152600790910154909116151560e08201526117d08161330f565b9150505b919050565b60006117e482613054565b5192915050565b600b54600160281b900460ff1661183e5760405162461bcd60e51b8152602060048201526017602482015276135a5b9d1a5b99c81a5cc81b9bdd08199a5b9a5cda1959604a1b6044820152606401610c1c565b600b5460ff166118905760405162461bcd60e51b815260206004820152601b60248201527f436f6e7472616374206973206e6f7420696e697469616c697a656400000000006044820152606401610c1c565b61ffff81166000908152601d6020526040902054819060ff161561190a5760405162461bcd60e51b815260206004820152602b60248201527f746869732066756e6374696f6e206973206f6e6c792066756e6374696f6e616c60448201526a20666f722068756d616e7360a81b6064820152608401610c1c565b6119178261ffff16612ca2565b61195a5760405162461bcd60e51b81526020600482015260146024820152731d1bdad95b88191bd95cc81b9bdd08195e1a5cdd60621b6044820152606401610c1c565b34600a5411156119a05760405162461bcd60e51b81526020600482015260116024820152703737ba1032b737bab3b4399032ba3432b960791b6044820152606401610c1c565b61ffff82166000908152601f60205260409020805460ff19166001179055600d546119d4906001600160a01b031634612fb1565b6040805161ffff841681523460208201527f0154c2dfb98437384198b52913095489510f87da0fcc18a7a76717706e1d0085910160405180910390a15050565b600e546001600160a01b03163314611a855760405162461bcd60e51b815260206004820152602e60248201527f4f6e6c79206465666920746974616e20616464726573732063616e2063616c6c60448201526d103a3434b990333ab731ba34b7b760911b6064820152608401610c1c565b600d80546001600160a01b0319166001600160a01b0392909216919091179055565b60006001600160a01b038216611ad0576040516323d3ad8160e21b815260040160405180910390fd5b506001600160a01b031660009081526005602052604090205467ffffffffffffffff1690565b6008546001600160a01b03163314611b505760405162461bcd60e51b815260206004820181905260248201527f4f776e61626c653a2063616c6c6572206973206e6f7420746865206f776e65726044820152606401610c1c565b611b5a6000613388565b565b600e546001600160a01b03163314611bcd5760405162461bcd60e51b815260206004820152602e60248201527f4f6e6c79206465666920746974616e20616464726573732063616e2063616c6c60448201526d103a3434b990333ab731ba34b7b760911b6064820152608401610c1c565b600b54600160281b900460ff1615611c275760405162461bcd60e51b815260206004820181905260248201527f4e46543a204d696e74696e6720697320616c72656164792066696e69736865646044820152606401610c1c565b600b546301000000900460ff16611c805760405162461bcd60e51b815260206004820152601a60248201527f4e46543a204d696e74696e67206973206e6f74206163746976650000000000006044820152606401610c1c565b600b805465ff00ffffff001916600160281b179055565b6008546001600160a01b03163314611cf15760405162461bcd60e51b815260206004820181905260248201527f4f776e61626c653a2063616c6c6572206973206e6f7420746865206f776e65726044820152606401610c1c565b600b54640100000000900460ff1615611d4c5760405162461bcd60e51b815260206004820152601760248201527f41727420697320616c72656164792072657665616c65640000000000000000006044820152606401610c1c565b805180611d8a5760405162461bcd60e51b815260206004820152600c60248201526b43494420697320656d70747960a01b6044820152606401610c1c565b8151611d9d90601490602085019061418d565b5050600b805464ff00000000191664010000000017905550565b606060038054610a78906149e4565b6008546001600160a01b03163314611e205760405162461bcd60e51b815260206004820181905260248201527f4f776e61626c653a2063616c6c6572206973206e6f7420746865206f776e65726044820152606401610c1c565b600b5460ff1615611e7f5760405162461bcd60e51b8152602060048201526024808201527f4e46543a20636f6e747261637420697320616c726561647920696e697469616c6044820152631a5e995960e21b6064820152608401610c1c565b600b54600160281b900460ff1615611ee35760405162461bcd60e51b815260206004820152602160248201527f4e46543a20636f6e747261637420697320616c72656164792066696e697368656044820152601960fa1b6064820152608401610c1c565b600b54610100900460ff1615611f3b5760405162461bcd60e51b815260206004820152601e60248201527f4e46543a2061756374696f6e20697320616c72656164792061637469766500006044820152606401610c1c565b600b805460ff1916600117905560408051602080840282018101909252828152611fa19184908490819060009085015b82821015611f9757611f886080830286013681900381019061464a565b81526020019060010190611f6b565b50505050506133da565b5050600b805461ff001916610100908117909155601154601954604080518082019091526001600160a01b0390921680835292900460ff166020909101819052601a8054600160a01b90920274ffffffffffffffffffffffffffffffffffffffffff19909216909217179055565b5050565b6008546001600160a01b0316331461206d5760405162461bcd60e51b815260206004820181905260248201527f4f776e61626c653a2063616c6c6572206973206e6f7420746865206f776e65726044820152606401610c1c565b600b54600160281b900460ff16156120c75760405162461bcd60e51b815260206004820181905260248201527f4e46543a204d696e74696e6720697320616c72656164792066696e69736865646044820152606401610c1c565b600b546301000000900460ff16156121215760405162461bcd60e51b815260206004820152601e60248201527f4e46543a204d696e74696e6720697320616c72656164792061637469766500006044820152606401610c1c565b600b5462010000900460ff1661219f5760405162461bcd60e51b815260206004820152603960248201527f4e46543a2057686974654c6973744d696e74696e672073686f756c642061637460448201527f697665206265666f7265205075626c6963204d696e74696e67000000000000006064820152608401610c1c565b600b805463ff00000019166301000000179055565b600d546001600160a01b031633146122235760405162461bcd60e51b815260206004820152602c60248201527f4f6e6c7920706c6174666f726d20616464726573732063616e2063616c6c207460448201526b3434b990333ab731ba34b7b760a11b6064820152608401610c1c565b600f80546001600160a01b0319166001600160a01b0392909216919091179055565b6001600160a01b03821633141561226f5760405163b06307db60e01b815260040160405180910390fd5b3360008181526007602090815260408083206001600160a01b03871680855290835292819020805460ff191686151590811790915590519081529192917f17307eab39ab6107e8899845ad3d59bd9653f200f220920489ca2b5937696c31910160405180910390a35050565b6122e6848484612d29565b6001600160a01b0383163b1515801561230857506123068484848461376b565b155b15612326576040516368d2bf6b60e11b815260040160405180910390fd5b50505050565b600b5462010000900460ff166123845760405162461bcd60e51b815260206004820152601e60248201527f57686974654c6973744d696e74696e67206973206e6f742061637469766500006044820152606401610c1c565b6123918686858585613862565b6123dd5760405162461bcd60e51b815260206004820152601660248201527f7369676e6174757265206973206e6f742076616c6964000000000000000000006044820152606401610c1c565b7f000000000000000000000000000000000000000000000000000000000000000061ffff168467ffffffffffffffff1661241660005490565b612420919061490e565b111561246e5760405162461bcd60e51b815260206004820152601560248201527f4d617820737570706c79206973207265616368656400000000000000000000006044820152606401610c1c565b60006124798761393f565b905060ff86166124898683614926565b67ffffffffffffffff1611156124e15760405162461bcd60e51b815260206004820152601560248201527f5175616e74697479206973206e6f742076616c696400000000000000000000006044820152606401610c1c565b600184600181111561250357634e487b7160e01b600052602160045260246000fd5b14156125355761251c876125178784614926565b613995565b612530878667ffffffffffffffff16612f97565b6125be565b601554349061254e9067ffffffffffffffff8816614982565b111561259c5760405162461bcd60e51b815260206004820152601260248201527f4e6f7420656e6f756768732065746865722e00000000000000000000000000006044820152606401610c1c565b6125aa876125178784614926565b6125be878667ffffffffffffffff16612f97565b34156125da57600f546125da906001600160a01b031634612fb1565b50505050505050565b600b54610100900460ff166126325760405162461bcd60e51b815260206004820152601560248201527441756374696f6e206973206e6f742061637469766560581b6044820152606401610c1c565b8060ff1660011115801561264f575060195460ff90811690821611155b6126915760405162461bcd60e51b8152602060048201526013602482015272646179206973206f7574206f662072616e676560681b6044820152606401610c1c565b60ff81166000908152601e60205260409020600101544210156126f65760405162461bcd60e51b815260206004820152601a60248201527f61756374696f6e206973206e6f742073746172746564207965740000000000006044820152606401610c1c565b60ff81166000908152601e602052604090206002015442111561275b5760405162461bcd60e51b815260206004820152601260248201527f61756374696f6e206973206578706972656400000000000000000000000000006044820152606401610c1c565b60ff8082166000908152601e60209081526040808320815161010081018352815486168082526001830154948201949094526002820154928101929092526003810154606083015260048101546080830152600581015460a0830152600681015460c083015260070154909316151560e08401526127d890613054565b90508160e001511561282c5760405162461bcd60e51b815260206004820152601760248201527f61756374696f6e20697320616c726561647920736f6c640000000000000000006044820152606401610c1c565b600e5481516001600160a01b0390811691161461289b5760405162461bcd60e51b815260206004820152602760248201527f61756374696f6e206973206e6f74206f776e656420627920446563656e74726160448201526636102a34ba30b760c91b6064820152608401610c1c565b60006128a68361330f565b905082608001518111156129225760405162461bcd60e51b815260206004820152603260248201527f61756374696f6e2068617320656e64656420626563617573652069742072656360448201527f6569766520746f206261736520707269636500000000000000000000000000006064820152608401610c1c565b348111156129725760405162461bcd60e51b815260206004820152601060248201527f6e6f7420656e6f756768206574686572000000000000000000000000000000006044820152606401610c1c565b600e54835161298f916001600160a01b031690339060ff16610e7f565b600e54612326906001600160a01b031634612fb1565b60606129b082612ca2565b6129f35760405162461bcd60e51b81526020600482015260146024820152731d1bdad95b88191bd95cc81b9bdd08195e1a5cdd60621b6044820152606401610c1c565b61ffff82166000908152601b6020526040902054829060ff1615612a4c5761ffff81166000908152601c60209081526040918290209151612a35929101614855565b604051602081830303815290604052915050919050565b61ffff81166000908152601d602052604090205460ff1615612a88576012612a7761ffff8316613a0d565b604051602001612a35929190614861565b600b54640100000000900460ff1615612aaa576014612a7761ffff8316613a0d565b6013612a7761ffff8316613a0d565b50919050565b600e546001600160a01b03163314612b305760405162461bcd60e51b815260206004820152602e60248201527f4f6e6c79206465666920746974616e20616464726573732063616e2063616c6c60448201526d103a3434b990333ab731ba34b7b760911b6064820152608401610c1c565b600b54600160281b900460ff16612b835760405162461bcd60e51b8152602060048201526017602482015276135a5b9d1a5b99c81a5cc81b9bdd08199a5b9a5cda1959604a1b6044820152606401610c1c565b600b5460ff16612bd55760405162461bcd60e51b815260206004820152601b60248201527f436f6e7472616374206973206e6f7420696e697469616c697a656400000000006044820152606401610c1c565b600a55565b6008546001600160a01b03163314612c345760405162461bcd60e51b815260206004820181905260248201527f4f776e61626c653a2063616c6c6572206973206e6f7420746865206f776e65726044820152606401610c1c565b6001600160a01b038116612c995760405162461bcd60e51b815260206004820152602660248201527f4f776e61626c653a206e6577206f776e657220697320746865207a65726f206160448201526564647265737360d01b6064820152608401610c1c565b61101e81613388565b6000805482108015610a63575050600090815260046020526040902054600160e01b900460ff161590565b60008281526006602052604080822080546001600160a01b0319166001600160a01b0387811691821790925591518593918516917f8c5be1e5ebec7d5bd14f71427d1e84f3dd0314c0f7b2291e5b200ac8c7c3b92591a4505050565b6000612d3482613054565b80519091506000906001600160a01b0316336001600160a01b03161480612d6257508151612d6290336109c9565b80612d7d575033612d7284610afb565b6001600160a01b0316145b905080612d9d57604051632ce44b5f60e11b815260040160405180910390fd5b846001600160a01b031682600001516001600160a01b031614612dd25760405162a1148160e81b815260040160405180910390fd5b6001600160a01b038416612df957604051633a954ecd60e21b815260040160405180910390fd5b612e096000848460000151612ccd565b6001600160a01b038581166000908152600560209081526040808320805467ffffffffffffffff1980821667ffffffffffffffff92831660001901831617909255898616808652838620805493841693831660019081018416949094179055898652600490945282852080546001600160e01b031916909417600160a01b429092169190910217909255908601808352912054909116612ef557600054811015612ef5578251600082815260046020908152604090912080549186015167ffffffffffffffff16600160a01b026001600160e01b03199092166001600160a01b03909316929092171790555b5082846001600160a01b0316866001600160a01b03167fddf252ad1be2c89b69c2b068fc378daa952ba7f163c4a11628f55a4df523b3ef60405160405180910390a4610e78565b60006001600160a01b038216612f65576040516335ebb31960e01b815260040160405180910390fd5b506001600160a01b031660009081526005602052604090205468010000000000000000900467ffffffffffffffff1690565b61200f828260405180602001604052806000815250613b3f565b60405182906000906001600160a01b0383169084908381818185875af1925050503d8060008114612ffe576040519150601f19603f3d011682016040523d82523d6000602084013e613003565b606091505b50509050806123265760405162461bcd60e51b815260206004820152601460248201527f4661696c656420746f2073656e642045746865720000000000000000000000006044820152606401610c1c565b60408051606081018252600080825260208201819052918101919091528160005481101561315757600081815260046020908152604091829020825160608101845290546001600160a01b0381168252600160a01b810467ffffffffffffffff1692820192909252600160e01b90910460ff161515918101829052906131555780516001600160a01b0316156130eb579392505050565b5060001901600081815260046020908152604091829020825160608101845290546001600160a01b038116808352600160a01b820467ffffffffffffffff1693830193909352600160e01b900460ff1615159281019290925215613150579392505050565b6130eb565b505b604051636f96cda160e11b815260040160405180910390fd5b600061317b82613054565b905061318d6000838360000151612ccd565b80516001600160a01b039081166000908152600560209081526040808320805467ffffffffffffffff19811667ffffffffffffffff9182166000190182161790915585518516845281842080547fffffffffffffffff0000000000000000ffffffffffffffffffffffffffffffff81167001000000000000000000000000000000009182900484166001908101851690920217909155865188865260049094528285208054600160e01b9588166001600160e01b031990911617600160a01b42909416939093029290921760ff60e01b19169390931790559085018083529120549091166132c7576000548110156132c7578151600082815260046020908152604090912080549185015167ffffffffffffffff16600160a01b026001600160e01b03199092166001600160a01b03909316929092171790555b50805160405183916000916001600160a01b03909116907fddf252ad1be2c89b69c2b068fc378daa952ba7f163c4a11628f55a4df523b3ef908390a450506001805481019055565b6000816020015142101561332557506060015190565b816040015142111561333957506080015190565b600082602001514261334b91906149a1565b905060008360a001518261335f919061496e565b90508360c00151816133719190614982565b846060015161338091906149a1565b949350505050565b600880546001600160a01b038381166001600160a01b0319831681179093556040519116919082907f8be0079c531659141344cd1fd0a4f28419497f9722a3daafe3b4186f6b6457e090600090a35050565b60195461ffff7f0000000000000000000000000000000000000000000000000000000000000000169060ff1661340f60005490565b613419919061490e565b11156134715760405162461bcd60e51b815260206004820152602160248201527f6e6f7420656e6f75676820737061636520666f72206e65772061756374696f6e6044820152607360f81b6064820152608401610c1c565b601954815160ff909116146134d95760405162461bcd60e51b815260206004820152602860248201527f636f6e66696773206d757374206265207468652073616d65206c656e67746820604482015267185cc818dbdd5b9d60c21b6064820152608401610c1c565b600e546019546134f5916001600160a01b03169060ff16612f97565b60195460ff1661350460005490565b146135515760405162461bcd60e51b815260206004820152601e60248201527f62616420696e697469616c697a6174696f6e206f6620636f6e747261637400006044820152606401610c1c565b60005b60195460ff908116908216101561200f5760006040518061010001604052808360ff1681526020018360ff166015600301546135909190614982565b60175461359d919061490e565b81526020016135ad846001614949565b6018546135bd9160ff1690614982565b6017546135ca919061490e565b8152602001848460ff16815181106135f257634e487b7160e01b600052603260045260246000fd5b6020026020010151600001518152602001848460ff168151811061362657634e487b7160e01b600052603260045260246000fd5b6020026020010151602001518152602001848460ff168151811061365a57634e487b7160e01b600052603260045260246000fd5b6020026020010151604001518152602001848460ff168151811061368e57634e487b7160e01b600052603260045260246000fd5b602002602001015160600151815260200160001515815250905080601e60008460016136ba9190614949565b60ff9081168252602080830193909352604091820160002084518154921660ff19928316178155928401516001840155908301516002830155606083015160038301556080830151600483015560a0830151600583015560c0830151600683015560e090920151600790910180549115159190921617905561373b82613b4c565b5060ff81166000908152601d60205260409020805460ff191660011790558061376381614a34565b915050613554565b604051630a85bd0160e11b81526000906001600160a01b0385169063150b7a02906137a0903390899088908890600401614886565b602060405180830381600087803b1580156137ba57600080fd5b505af19250505080156137ea575060408051601f3d908101601f191682019092526137e79181019061459f565b60015b613845573d808015613818576040519150601f19603f3d011682016040523d82523d6000602084013e61381d565b606091505b50805161383d576040516368d2bf6b60e11b815260040160405180910390fd5b805181602001fd5b6001600160e01b031916630a85bd0160e11b149050949350505050565b6010546040516000916001600160a01b03169061392b906138ef9061388f908a908a908a906020016147e0565b60408051601f1981840301815282825280516020918201207f19457468657265756d205369676e6564204d6573736167653a0a33320000000084830152603c8085019190915282518085039091018152605c909301909152815191012090565b85858080601f016020809104026020016040519081016040528093929190818152602001838380828437600092019190915250613be892505050565b6001600160a01b0316149695505050505050565b60006001600160a01b0382166139685760405163561b93dd60e11b815260040160405180910390fd5b506001600160a01b0316600090815260056020526040902054600160c01b900467ffffffffffffffff1690565b6001600160a01b0382166139bc5760405163561b93dd60e11b815260040160405180910390fd5b6001600160a01b039091166000908152600560205260409020805467ffffffffffffffff909216600160c01b0277ffffffffffffffffffffffffffffffffffffffffffffffff909216919091179055565b606081613a315750506040805180820190915260018152600360fc1b602082015290565b8160005b8115613a5b5780613a4581614a19565b9150613a549050600a8361496e565b9150613a35565b60008167ffffffffffffffff811115613a8457634e487b7160e01b600052604160045260246000fd5b6040519080825280601f01601f191660200182016040528015613aae576020820181803683370190505b5090505b841561338057613ac36001836149a1565b9150613ad0600a86614a54565b613adb90603061490e565b60f81b818381518110613afe57634e487b7160e01b600052603260045260246000fd5b60200101907effffffffffffffffffffffffffffffffffffffffffffffffffffffffffffff1916908160001a905350613b38600a8661496e565b9450613ab2565b610bc88383836001613c0c565b6000613b5a8260ff16613054565b600e5481519192506001600160a01b03918216911614613bcc5760405162461bcd60e51b815260206004820152602760248201527f7468697320697320776f726b206f6e6c7920666f72206465666920746974616e6044820152662061737365747360c81b6064820152608401610c1c565b600e5461200f90309060ff8516906001600160a01b0316612ccd565b6000806000613bf78585613ddd565b91509150613c0481613e4d565b509392505050565b6000546001600160a01b038516613c3557604051622e076360e81b815260040160405180910390fd5b83613c535760405163b562e8dd60e01b815260040160405180910390fd5b6001600160a01b038516600081815260056020908152604080832080546fffffffffffffffffffffffffffffffff19811667ffffffffffffffff8083168c0181169182176801000000000000000067ffffffffffffffff1990941690921783900481168c01811690920217909155858452600490925290912080546001600160e01b031916909217600160a01b429092169190910217905580808501838015613d0557506001600160a01b0387163b15155b15613d8e575b60405182906001600160a01b038916906000907fddf252ad1be2c89b69c2b068fc378daa952ba7f163c4a11628f55a4df523b3ef908290a4613d56600088848060010195508861376b565b613d73576040516368d2bf6b60e11b815260040160405180910390fd5b80821415613d0b578260005414613d8957600080fd5b613dd4565b5b6040516001830192906001600160a01b038916906000907fddf252ad1be2c89b69c2b068fc378daa952ba7f163c4a11628f55a4df523b3ef908290a480821415613d8f575b50600055610e78565b600080825160411415613e145760208301516040840151606085015160001a613e088782858561404e565b94509450505050613e46565b825160401415613e3e5760208301516040840151613e3386838361413b565b935093505050613e46565b506000905060025b9250929050565b6000816004811115613e6f57634e487b7160e01b600052602160045260246000fd5b1415613e785750565b6001816004811115613e9a57634e487b7160e01b600052602160045260246000fd5b1415613ee85760405162461bcd60e51b815260206004820152601860248201527f45434453413a20696e76616c6964207369676e617475726500000000000000006044820152606401610c1c565b6002816004811115613f0a57634e487b7160e01b600052602160045260246000fd5b1415613f585760405162461bcd60e51b815260206004820152601f60248201527f45434453413a20696e76616c6964207369676e6174757265206c656e677468006044820152606401610c1c565b6003816004811115613f7a57634e487b7160e01b600052602160045260246000fd5b1415613fd35760405162461bcd60e51b815260206004820152602260248201527f45434453413a20696e76616c6964207369676e6174757265202773272076616c604482015261756560f01b6064820152608401610c1c565b6004816004811115613ff557634e487b7160e01b600052602160045260246000fd5b141561101e5760405162461bcd60e51b815260206004820152602260248201527f45434453413a20696e76616c6964207369676e6174757265202776272076616c604482015261756560f01b6064820152608401610c1c565b6000807f7fffffffffffffffffffffffffffffff5d576e7357a4501ddfe92f46681b20a08311156140855750600090506003614132565b8460ff16601b1415801561409d57508460ff16601c14155b156140ae5750600090506004614132565b6040805160008082526020820180845289905260ff881692820192909252606081018690526080810185905260019060a0016020604051602081039080840390855afa158015614102573d6000803e3d6000fd5b5050604051601f1901519150506001600160a01b03811661412b57600060019250925050614132565b9150600090505b94509492505050565b6000807f7fffffffffffffffffffffffffffffffffffffffffffffffffffffffffffffff83168161417160ff86901c601b61490e565b905061417f8782888561404e565b935093505050935093915050565b828054614199906149e4565b90600052602060002090601f0160209004810192826141bb5760008555614201565b82601f106141d457805160ff1916838001178555614201565b82800160010185558215614201579182015b828111156142015782518255916020019190600101906141e6565b5061420d929150614211565b5090565b5b8082111561420d5760008155600101614212565b600067ffffffffffffffff8084111561424157614241614a94565b604051601f8501601f19908116603f0116810190828211818310171561426957614269614a94565b8160405280935085815286868601111561428257600080fd5b858560208301376000602087830101525050509392505050565b80356001600160a01b03811681146117d457600080fd5b803580151581146117d457600080fd5b600082601f8301126142d3578081fd5b6142e283833560208501614226565b9392505050565b803561ffff811681146117d457600080fd5b803560ff811681146117d457600080fd5b60006020828403121561431d578081fd5b6142e28261429c565b60008060408385031215614338578081fd5b6143418361429c565b9150610ebc6020840161429c565b600080600060608486031215614363578081fd5b61436c8461429c565b925061437a6020850161429c565b9150604084013590509250925092565b6000806000806080858703121561439f578081fd5b6143a88561429c565b93506143b66020860161429c565b925060408501359150606085013567ffffffffffffffff8111156143d8578182fd5b8501601f810187136143e8578182fd5b6143f787823560208401614226565b91505092959194509250565b60008060408385031215614415578182fd5b61441e8361429c565b9150610ebc602084016142b3565b6000806040838503121561443e578182fd5b6144478361429c565b946020939093013593505050565b60008060008060008060a0878903121561446d578182fd5b6144768761429c565b9550614484602088016142fb565b9450604087013567ffffffffffffffff80821682146144a1578384fd5b909450606088013590600282106144b6578384fd5b909350608088013590808211156144cb578384fd5b818901915089601f8301126144de578384fd5b8135818111156144ec578485fd5b8a60208285010111156144fd578485fd5b6020830194508093505050509295509295509295565b60008060208385031215614525578182fd5b823567ffffffffffffffff8082111561453c578384fd5b818501915085601f83011261454f578384fd5b81358181111561455d578485fd5b8660208260071b8501011115614571578485fd5b60209290920196919550909350505050565b600060208284031215614594578081fd5b81356142e281614aaa565b6000602082840312156145b0578081fd5b81516142e281614aaa565b6000602082840312156145cc578081fd5b813567ffffffffffffffff8111156145e2578182fd5b613380848285016142c3565b600080600060608486031215614602578081fd5b833567ffffffffffffffff811115614618578182fd5b614624868287016142c3565b935050614633602085016142e9565b9150614641604085016142b3565b90509250925092565b60006080828403121561465b578081fd5b6040516080810181811067ffffffffffffffff8211171561467e5761467e614a94565b8060405250823581526020830135602082015260408301356040820152606083013560608201528091505092915050565b6000602082840312156146c0578081fd5b6142e2826142e9565b6000602082840312156146da578081fd5b5035919050565b600080604083850312156146f3578182fd5b50508035926020909101359150565b600060208284031215614713578081fd5b6142e2826142fb565b600081518084526147348160208601602086016149b8565b601f01601f19169290920160200192915050565b8054600090600181811c908083168061476257607f831692505b602080841082141561478257634e487b7160e01b86526022600452602486fd5b81801561479657600181146147a7576147d4565b60ff198616895284890196506147d4565b60008881526020902060005b868110156147cc5781548b8201529085019083016147b3565b505084890196505b50505050505092915050565b606084901b6bffffffffffffffffffffffff1916815260f883901b7fff0000000000000000000000000000000000000000000000000000000000000016601482015260006002831061484057634e487b7160e01b81526021600452602481fd5b5060f89190911b601582015260160192915050565b60006142e28284614748565b600061486d8285614748565b835161487d8183602088016149b8565b01949350505050565b60006001600160a01b038087168352808616602084015250836040830152608060608301526148b8608083018461471c565b9695505050505050565b6020815260006142e2602083018461471c565b6060815260006148e8606083018661471c565b82810360208401526148fa818661471c565b905082810360408401526148b8818561471c565b6000821982111561492157614921614a68565b500190565b600067ffffffffffffffff80831681851680830382111561487d5761487d614a68565b600060ff821660ff84168060ff0382111561496657614966614a68565b019392505050565b60008261497d5761497d614a7e565b500490565b600081600019048311821515161561499c5761499c614a68565b500290565b6000828210156149b3576149b3614a68565b500390565b60005b838110156149d35781810151838201526020016149bb565b838111156123265750506000910152565b600181811c908216806149f857607f821691505b60208210811415612ab957634e487b7160e01b600052602260045260246000fd5b6000600019821415614a2d57614a2d614a68565b5060010190565b600060ff821660ff811415614a4b57614a4b614a68565b60010192915050565b600082614a6357614a63614a7e565b500690565b634e487b7160e01b600052601160045260246000fd5b634e487b7160e01b600052601260045260246000fd5b634e487b7160e01b600052604160045260246000fd5b6001600160e01b03198116811461101e57600080fdfea26469706673582212206ac3c7517e32557941cc717aa848ff855216f357615d01724cbc07b73d6e4c2264736f6c63430008040033",
  "linkReferences": {},
  "deployedLinkReferences": {}
}