{
  "_format": "hh-sol-artifact-1",
  "contractName": "NFT",
  "sourceName": "src/contracts/NFT.sol",
  "abi": [
    {
      "inputs": [
        {
          "internalType": "uint16",
          "name": "maxSupply_",
          "type": "uint16"
        },
        {
          "components": [
            {
              "internalType": "address",
              "name": "OWNER",
              "type": "address"
            },
            {
              "internalType": "address",
              "name": "PLATFORM",
              "type": "address"
            },
            {
              "internalType": "address",
              "name": "DECENTRAL_TITAN",
              "type": "address"
            },
            {
              "internalType": "address",
              "name": "BUY_BACK_TREASURY_CONTRACT",
              "type": "address"
            },
            {
              "internalType": "address",
              "name": "WHITE_LIST_VERIFIER",
              "type": "address"
            },
            {
              "internalType": "address",
              "name": "ROYALTY_DISTRIBUTOR_CONTRACT",
              "type": "address"
            }
          ],
          "internalType": "struct NFT.ContractAddresses",
          "name": "addresses_",
          "type": "tuple"
        },
        {
          "internalType": "string",
          "name": "godCID_",
          "type": "string"
        },
        {
          "internalType": "string",
          "name": "notRevealedArtCID_",
          "type": "string"
        },
        {
          "components": [
            {
              "internalType": "uint256",
              "name": "MINT_PRICE_IN_WEI",
              "type": "uint256"
            },
            {
              "internalType": "uint16",
              "name": "MAX_MINT_PER_ADDRESS",
              "type": "uint16"
            },
            {
              "internalType": "uint256",
              "name": "AUCTION_START_TIME",
              "type": "uint256"
            },
            {
              "internalType": "uint256",
              "name": "AUCTION_DURATION",
              "type": "uint256"
            },
            {
              "internalType": "uint8",
              "name": "NUMBER_OF_TOKEN_FOR_AUCTION",
              "type": "uint8"
            },
            {
              "internalType": "uint8",
              "name": "ROYALTY_FEE_PERCENT",
              "type": "uint8"
            }
          ],
          "internalType": "struct NFT.ContactMintConfig",
          "name": "mintConfig_",
          "type": "tuple"
        },
        {
          "internalType": "uint256",
          "name": "upgradeRequestFeeInWei_",
          "type": "uint256"
        }
      ],
      "stateMutability": "nonpayable",
      "type": "constructor"
    },
    {
      "inputs": [],
      "name": "ApprovalCallerNotOwnerNorApproved",
      "type": "error"
    },
    {
      "inputs": [],
      "name": "ApprovalQueryForNonexistentToken",
      "type": "error"
    },
    {
      "inputs": [],
      "name": "ApprovalToCurrentOwner",
      "type": "error"
    },
    {
      "inputs": [],
      "name": "ApproveToCaller",
      "type": "error"
    },
    {
      "inputs": [],
      "name": "AuxQueryForZeroAddress",
      "type": "error"
    },
    {
      "inputs": [],
      "name": "BalanceQueryForZeroAddress",
      "type": "error"
    },
    {
      "inputs": [],
      "name": "MintToZeroAddress",
      "type": "error"
    },
    {
      "inputs": [],
      "name": "MintZeroQuantity",
      "type": "error"
    },
    {
      "inputs": [],
      "name": "MintedQueryForZeroAddress",
      "type": "error"
    },
    {
      "inputs": [],
      "name": "OwnerQueryForNonexistentToken",
      "type": "error"
    },
    {
      "inputs": [],
      "name": "TransferCallerNotOwnerNorApproved",
      "type": "error"
    },
    {
      "inputs": [],
      "name": "TransferFromIncorrectOwner",
      "type": "error"
    },
    {
      "inputs": [],
      "name": "TransferToNonERC721ReceiverImplementer",
      "type": "error"
    },
    {
      "inputs": [],
      "name": "TransferToZeroAddress",
      "type": "error"
    },
    {
      "anonymous": false,
      "inputs": [
        {
          "indexed": true,
          "internalType": "address",
          "name": "owner",
          "type": "address"
        },
        {
          "indexed": true,
          "internalType": "address",
          "name": "approved",
          "type": "address"
        },
        {
          "indexed": true,
          "internalType": "uint256",
          "name": "tokenId",
          "type": "uint256"
        }
      ],
      "name": "Approval",
      "type": "event"
    },
    {
      "anonymous": false,
      "inputs": [
        {
          "indexed": true,
          "internalType": "address",
          "name": "owner",
          "type": "address"
        },
        {
          "indexed": true,
          "internalType": "address",
          "name": "operator",
          "type": "address"
        },
        {
          "indexed": false,
          "internalType": "bool",
          "name": "approved",
          "type": "bool"
        }
      ],
      "name": "ApprovalForAll",
      "type": "event"
    },
    {
      "anonymous": false,
      "inputs": [
        {
          "indexed": true,
          "internalType": "address",
          "name": "previousOwner",
          "type": "address"
        },
        {
          "indexed": true,
          "internalType": "address",
          "name": "newOwner",
          "type": "address"
        }
      ],
      "name": "OwnershipTransferred",
      "type": "event"
    },
    {
      "anonymous": false,
      "inputs": [
        {
          "indexed": true,
          "internalType": "address",
          "name": "from",
          "type": "address"
        },
        {
          "indexed": true,
          "internalType": "address",
          "name": "to",
          "type": "address"
        },
        {
          "indexed": true,
          "internalType": "uint256",
          "name": "tokenId",
          "type": "uint256"
        }
      ],
      "name": "Transfer",
      "type": "event"
    },
    {
      "anonymous": false,
      "inputs": [
        {
          "indexed": false,
          "internalType": "uint16",
          "name": "_token",
          "type": "uint16"
        },
        {
          "indexed": false,
          "internalType": "uint256",
          "name": "_value",
          "type": "uint256"
        }
      ],
      "name": "UpgradeRequestPayment",
      "type": "event"
    },
    {
      "inputs": [],
      "name": "ADDRESS",
      "outputs": [
        {
          "internalType": "address",
          "name": "OWNER",
          "type": "address"
        },
        {
          "internalType": "address",
          "name": "PLATFORM",
          "type": "address"
        },
        {
          "internalType": "address",
          "name": "DECENTRAL_TITAN",
          "type": "address"
        },
        {
          "internalType": "address",
          "name": "BUY_BACK_TREASURY_CONTRACT",
          "type": "address"
        },
        {
          "internalType": "address",
          "name": "WHITE_LIST_VERIFIER",
          "type": "address"
        },
        {
          "internalType": "address",
          "name": "ROYALTY_DISTRIBUTOR_CONTRACT",
          "type": "address"
        }
      ],
      "stateMutability": "view",
      "type": "function"
    },
    {
      "inputs": [
        {
          "internalType": "uint8",
          "name": "",
          "type": "uint8"
        }
      ],
      "name": "AUCTIONS",
      "outputs": [
        {
          "internalType": "uint8",
          "name": "TOKEN_ID",
          "type": "uint8"
        },
        {
          "internalType": "uint256",
          "name": "START_TIME",
          "type": "uint256"
        },
        {
          "internalType": "uint256",
          "name": "EXPIRE_AT",
          "type": "uint256"
        },
        {
          "internalType": "uint256",
          "name": "START_PRICE",
          "type": "uint256"
        },
        {
          "internalType": "uint256",
          "name": "END_PRICE",
          "type": "uint256"
        },
        {
          "internalType": "uint256",
          "name": "AUCTION_DROP_INTERVAL",
          "type": "uint256"
        },
        {
          "internalType": "uint256",
          "name": "AUCTION_DROP_PER_STEP",
          "type": "uint256"
        },
        {
          "internalType": "bool",
          "name": "IS_SOLD",
          "type": "bool"
        }
      ],
      "stateMutability": "view",
      "type": "function"
    },
    {
      "inputs": [],
      "name": "IPFS",
      "outputs": [
        {
          "internalType": "string",
          "name": "GOD_CID",
          "type": "string"
        },
        {
          "internalType": "string",
          "name": "NOT_REVEALED_ART_CID",
          "type": "string"
        },
        {
          "internalType": "string",
          "name": "ART_CID",
          "type": "string"
        }
      ],
      "stateMutability": "view",
      "type": "function"
    },
    {
      "inputs": [],
      "name": "MAX_SUPPLY",
      "outputs": [
        {
          "internalType": "uint16",
          "name": "",
          "type": "uint16"
        }
      ],
      "stateMutability": "view",
      "type": "function"
    },
    {
      "inputs": [],
      "name": "MINTING_CONFIG",
      "outputs": [
        {
          "internalType": "uint256",
          "name": "MINT_PRICE_IN_WEI",
          "type": "uint256"
        },
        {
          "internalType": "uint16",
          "name": "MAX_MINT_PER_ADDRESS",
          "type": "uint16"
        },
        {
          "internalType": "uint256",
          "name": "AUCTION_START_TIME",
          "type": "uint256"
        },
        {
          "internalType": "uint256",
          "name": "AUCTION_DURATION",
          "type": "uint256"
        },
        {
          "internalType": "uint8",
          "name": "NUMBER_OF_TOKEN_FOR_AUCTION",
          "type": "uint8"
        },
        {
          "internalType": "uint8",
          "name": "ROYALTY_FEE_PERCENT",
          "type": "uint8"
        }
      ],
      "stateMutability": "view",
      "type": "function"
    },
    {
      "inputs": [],
      "name": "STATE",
      "outputs": [
        {
          "internalType": "bool",
          "name": "INITIALIZED",
          "type": "bool"
        },
        {
          "internalType": "bool",
          "name": "AUCTION_IS_ACTIVE",
          "type": "bool"
        },
        {
          "internalType": "bool",
          "name": "WHITE_LIST_MINTING_IS_ACTIVE",
          "type": "bool"
        },
        {
          "internalType": "bool",
          "name": "MINTING_IS_ACTIVE",
          "type": "bool"
        },
        {
          "internalType": "bool",
          "name": "ART_IS_REVEALED",
          "type": "bool"
        },
        {
          "internalType": "bool",
          "name": "FINISHED",
          "type": "bool"
        }
      ],
      "stateMutability": "view",
      "type": "function"
    },
    {
      "inputs": [
        {
          "internalType": "uint16",
          "name": "",
          "type": "uint16"
        }
      ],
      "name": "TOKEN_IS_GOD",
      "outputs": [
        {
          "internalType": "bool",
          "name": "",
          "type": "bool"
        }
      ],
      "stateMutability": "view",
      "type": "function"
    },
    {
      "inputs": [
        {
          "internalType": "uint16",
          "name": "",
          "type": "uint16"
        }
      ],
      "name": "TOKEN_IS_UPGRADED",
      "outputs": [
        {
          "internalType": "bool",
          "name": "",
          "type": "bool"
        }
      ],
      "stateMutability": "view",
      "type": "function"
    },
    {
      "inputs": [],
      "name": "UPGRADE_REQUEST_FEE_IN_WEI",
      "outputs": [
        {
          "internalType": "uint256",
          "name": "",
          "type": "uint256"
        }
      ],
      "stateMutability": "view",
      "type": "function"
    },
    {
      "inputs": [
        {
          "internalType": "uint256",
          "name": "",
          "type": "uint256"
        }
      ],
      "name": "UPGRADE_REQUEST_FEE_IS_PAID",
      "outputs": [
        {
          "internalType": "bool",
          "name": "",
          "type": "bool"
        }
      ],
      "stateMutability": "view",
      "type": "function"
    },
    {
      "inputs": [
        {
          "internalType": "address",
          "name": "to",
          "type": "address"
        },
        {
          "internalType": "uint256",
          "name": "tokenId",
          "type": "uint256"
        }
      ],
      "name": "approve",
      "outputs": [],
      "stateMutability": "nonpayable",
      "type": "function"
    },
    {
      "inputs": [
        {
          "internalType": "address",
          "name": "owner",
          "type": "address"
        }
      ],
      "name": "balanceOf",
      "outputs": [
        {
          "internalType": "uint256",
          "name": "",
          "type": "uint256"
        }
      ],
      "stateMutability": "view",
      "type": "function"
    },
    {
      "inputs": [
        {
          "internalType": "uint8",
          "name": "day",
          "type": "uint8"
        }
      ],
      "name": "buyAGodInAuction",
      "outputs": [],
      "stateMutability": "payable",
      "type": "function"
    },
    {
      "inputs": [
        {
          "internalType": "uint16",
          "name": "tokenId",
          "type": "uint16"
        }
      ],
      "name": "buyBackToken",
      "outputs": [],
      "stateMutability": "nonpayable",
      "type": "function"
    },
    {
      "inputs": [],
      "name": "finishAuction",
      "outputs": [],
      "stateMutability": "nonpayable",
      "type": "function"
    },
    {
      "inputs": [],
      "name": "finishMinting",
      "outputs": [],
      "stateMutability": "nonpayable",
      "type": "function"
    },
    {
      "inputs": [
        {
          "internalType": "uint256",
          "name": "tokenId",
          "type": "uint256"
        }
      ],
      "name": "getApproved",
      "outputs": [
        {
          "internalType": "address",
          "name": "",
          "type": "address"
        }
      ],
      "stateMutability": "view",
      "type": "function"
    },
    {
      "inputs": [
        {
          "internalType": "uint8",
          "name": "day",
          "type": "uint8"
        }
      ],
      "name": "getAuctionPrice",
      "outputs": [
        {
          "internalType": "uint256",
          "name": "",
          "type": "uint256"
        }
      ],
      "stateMutability": "view",
      "type": "function"
    },
    {
      "inputs": [
        {
          "components": [
            {
              "internalType": "uint256",
              "name": "START_PRICE",
              "type": "uint256"
            },
            {
              "internalType": "uint256",
              "name": "END_PRICE",
              "type": "uint256"
            },
            {
              "internalType": "uint256",
              "name": "AUCTION_DROP_INTERVAL",
              "type": "uint256"
            },
            {
              "internalType": "uint256",
              "name": "AUCTION_DROP_PER_STEP",
              "type": "uint256"
            }
          ],
          "internalType": "struct NFT.AuctionConfig[]",
          "name": "configs",
          "type": "tuple[]"
        }
      ],
      "name": "initializer",
      "outputs": [],
      "stateMutability": "nonpayable",
      "type": "function"
    },
    {
      "inputs": [
        {
          "internalType": "address",
          "name": "owner",
          "type": "address"
        },
        {
          "internalType": "address",
          "name": "operator",
          "type": "address"
        }
      ],
      "name": "isApprovedForAll",
      "outputs": [
        {
          "internalType": "bool",
          "name": "",
          "type": "bool"
        }
      ],
      "stateMutability": "view",
      "type": "function"
    },
    {
      "inputs": [],
      "name": "name",
      "outputs": [
        {
          "internalType": "string",
          "name": "",
          "type": "string"
        }
      ],
      "stateMutability": "view",
      "type": "function"
    },
    {
      "inputs": [],
      "name": "owner",
      "outputs": [
        {
          "internalType": "address",
          "name": "",
          "type": "address"
        }
      ],
      "stateMutability": "view",
      "type": "function"
    },
    {
      "inputs": [
        {
          "internalType": "uint256",
          "name": "tokenId",
          "type": "uint256"
        }
      ],
      "name": "ownerOf",
      "outputs": [
        {
          "internalType": "address",
          "name": "",
          "type": "address"
        }
      ],
      "stateMutability": "view",
      "type": "function"
    },
    {
      "inputs": [
        {
          "internalType": "uint256",
          "name": "quantity",
          "type": "uint256"
        }
      ],
      "name": "publicMint",
      "outputs": [],
      "stateMutability": "payable",
      "type": "function"
    },
    {
      "inputs": [],
      "name": "renounceOwnership",
      "outputs": [],
      "stateMutability": "nonpayable",
      "type": "function"
    },
    {
      "inputs": [
        {
          "internalType": "string",
          "name": "ipfsCid",
          "type": "string"
        }
      ],
      "name": "revealArt",
      "outputs": [],
      "stateMutability": "nonpayable",
      "type": "function"
    },
    {
      "inputs": [
        {
          "internalType": "uint256",
          "name": "",
          "type": "uint256"
        },
        {
          "internalType": "uint256",
          "name": "value",
          "type": "uint256"
        }
      ],
      "name": "royaltyInfo",
      "outputs": [
        {
          "internalType": "address",
          "name": "receiver",
          "type": "address"
        },
        {
          "internalType": "uint256",
          "name": "royaltyAmount",
          "type": "uint256"
        }
      ],
      "stateMutability": "view",
      "type": "function"
    },
    {
      "inputs": [
        {
          "internalType": "address",
          "name": "from",
          "type": "address"
        },
        {
          "internalType": "address",
          "name": "to",
          "type": "address"
        },
        {
          "internalType": "uint256",
          "name": "tokenId",
          "type": "uint256"
        }
      ],
      "name": "safeTransferFrom",
      "outputs": [],
      "stateMutability": "nonpayable",
      "type": "function"
    },
    {
      "inputs": [
        {
          "internalType": "address",
          "name": "from",
          "type": "address"
        },
        {
          "internalType": "address",
          "name": "to",
          "type": "address"
        },
        {
          "internalType": "uint256",
          "name": "tokenId",
          "type": "uint256"
        },
        {
          "internalType": "bytes",
          "name": "_data",
          "type": "bytes"
        }
      ],
      "name": "safeTransferFrom",
      "outputs": [],
      "stateMutability": "nonpayable",
      "type": "function"
    },
    {
      "inputs": [
        {
          "internalType": "address",
          "name": "operator",
          "type": "address"
        },
        {
          "internalType": "bool",
          "name": "approved",
          "type": "bool"
        }
      ],
      "name": "setApprovalForAll",
      "outputs": [],
      "stateMutability": "nonpayable",
      "type": "function"
    },
    {
      "inputs": [
        {
          "internalType": "address",
          "name": "buyBackTreasury_",
          "type": "address"
        }
      ],
      "name": "setBuyBackTreasury",
      "outputs": [],
      "stateMutability": "nonpayable",
      "type": "function"
    },
    {
      "inputs": [
        {
          "internalType": "address",
          "name": "platform_",
          "type": "address"
        }
      ],
      "name": "setPlatform",
      "outputs": [],
      "stateMutability": "nonpayable",
      "type": "function"
    },
    {
      "inputs": [
        {
          "internalType": "uint256",
          "name": "upgradeRequestFeeInWei_",
          "type": "uint256"
        }
      ],
      "name": "setUpgradeRequestFeeInWei",
      "outputs": [],
      "stateMutability": "nonpayable",
      "type": "function"
    },
    {
      "inputs": [],
      "name": "startPublicMinting",
      "outputs": [],
      "stateMutability": "nonpayable",
      "type": "function"
    },
    {
      "inputs": [],
      "name": "startWhiteListMinting",
      "outputs": [],
      "stateMutability": "nonpayable",
      "type": "function"
    },
    {
      "inputs": [
        {
          "internalType": "bytes4",
          "name": "interfaceId",
          "type": "bytes4"
        }
      ],
      "name": "supportsInterface",
      "outputs": [
        {
          "internalType": "bool",
          "name": "",
          "type": "bool"
        }
      ],
      "stateMutability": "view",
      "type": "function"
    },
    {
      "inputs": [],
      "name": "symbol",
      "outputs": [
        {
          "internalType": "string",
          "name": "",
          "type": "string"
        }
      ],
      "stateMutability": "view",
      "type": "function"
    },
    {
      "inputs": [
        {
          "internalType": "uint256",
          "name": "tokenId_",
          "type": "uint256"
        }
      ],
      "name": "tokenURI",
      "outputs": [
        {
          "internalType": "string",
          "name": "",
          "type": "string"
        }
      ],
      "stateMutability": "view",
      "type": "function"
    },
    {
      "inputs": [],
      "name": "totalSupply",
      "outputs": [
        {
          "internalType": "uint256",
          "name": "",
          "type": "uint256"
        }
      ],
      "stateMutability": "view",
      "type": "function"
    },
    {
      "inputs": [
        {
          "internalType": "address",
          "name": "from",
          "type": "address"
        },
        {
          "internalType": "address",
          "name": "to",
          "type": "address"
        },
        {
          "internalType": "uint256",
          "name": "tokenId",
          "type": "uint256"
        }
      ],
      "name": "transferFrom",
      "outputs": [],
      "stateMutability": "nonpayable",
      "type": "function"
    },
    {
      "inputs": [
        {
          "internalType": "address",
          "name": "newOwner",
          "type": "address"
        }
      ],
      "name": "transferOwnership",
      "outputs": [],
      "stateMutability": "nonpayable",
      "type": "function"
    },
    {
      "inputs": [
        {
          "internalType": "string",
          "name": "ipfsCid",
          "type": "string"
        },
        {
          "internalType": "uint16",
          "name": "tokenId",
          "type": "uint16"
        },
        {
          "internalType": "bool",
          "name": "isGodNow",
          "type": "bool"
        }
      ],
      "name": "upgradeToken",
      "outputs": [],
      "stateMutability": "nonpayable",
      "type": "function"
    },
    {
      "inputs": [
        {
          "internalType": "uint16",
          "name": "tokenId",
          "type": "uint16"
        }
      ],
      "name": "upgradeTokenRequestFee",
      "outputs": [],
      "stateMutability": "payable",
      "type": "function"
    },
    {
      "inputs": [
        {
          "internalType": "address",
          "name": "addr_",
          "type": "address"
        },
        {
          "internalType": "uint8",
          "name": "maxQuantity_",
          "type": "uint8"
        },
        {
          "internalType": "uint64",
          "name": "quantity_",
          "type": "uint64"
        },
        {
          "internalType": "enum NFT.WhiteListType",
          "name": "whiteListType_",
          "type": "uint8"
        },
        {
          "internalType": "bytes",
          "name": "sig",
          "type": "bytes"
        }
      ],
      "name": "whitelistMinting",
      "outputs": [],
      "stateMutability": "payable",
      "type": "function"
    }
  ],
  "bytecode": "0x60a06040523480156200001157600080fd5b50604051620051dd380380620051dd833981016040819052620000349162000450565b8451604080518082018252600b8082526a13995c1bdb195a5853919560aa1b6020808401828152855180870190965292855284015281519192916200007c9160029162000262565b5080516200009290600390602084019062000262565b50506000805550620000a48162000210565b50600160095560f086901b6001600160f01b03191660809081526040805160c08101825260008082526020808301829052828401829052606080840183905283860183905260a093840192909252600b805465ffffffffffff191690558951600c80546001600160a01b03199081166001600160a01b03938416179091558b830151600d80548316918416919091179055948b0151600e80548716918316919091179055918a0151600f805486169184169190911790559389015160108054851691831691909117905590880151601180549093169116179055845162000192916012919087019062000262565b508251620001a890601390602086019062000262565b50815160155560208201516016805461ffff90921661ffff199283161790556040830151601755606083015160185560808301516019805460a09095015160ff9081166101000295909316929091169190911792909217909155600a55506200062d92505050565b600880546001600160a01b038381166001600160a01b0319831681179093556040519116919082907f8be0079c531659141344cd1fd0a4f28419497f9722a3daafe3b4186f6b6457e090600090a35050565b8280546200027090620005da565b90600052602060002090601f016020900481019282620002945760008555620002df565b82601f10620002af57805160ff1916838001178555620002df565b82800160010185558215620002df579182015b82811115620002df578251825591602001919060010190620002c2565b50620002ed929150620002f1565b5090565b5b80821115620002ed5760008155600101620002f2565b80516001600160a01b03811681146200032057600080fd5b919050565b600082601f83011262000336578081fd5b81516001600160401b0381111562000352576200035262000617565b602062000368601f8301601f19168201620005a7565b82815285828487010111156200037c578384fd5b835b838110156200039b5785810183015182820184015282016200037e565b83811115620003ac57848385840101525b5095945050505050565b600060c08284031215620003c8578081fd5b620003d26200057c565b905081518152620003e6602083016200042b565b602082015260408201516040820152606082015160608201526200040d608083016200043e565b60808201526200042060a083016200043e565b60a082015292915050565b805161ffff811681146200032057600080fd5b805160ff811681146200032057600080fd5b6000806000806000808688036102008112156200046b578283fd5b62000476886200042b565b965060c0601f19820112156200048a578283fd5b50620004956200057c565b620004a36020890162000308565b8152620004b36040890162000308565b6020820152620004c66060890162000308565b6040820152620004d96080890162000308565b6060820152620004ec60a0890162000308565b6080820152620004ff60c0890162000308565b60a082015260e08801519095506001600160401b038082111562000521578384fd5b6200052f8a838b0162000325565b955061010089015191508082111562000546578384fd5b506200055589828a0162000325565b93505062000568886101208901620003b6565b91506101e087015190509295509295509295565b60405160c081016001600160401b0381118282101715620005a157620005a162000617565b60405290565b604051601f8201601f191681016001600160401b0381118282101715620005d257620005d262000617565b604052919050565b600181811c90821680620005ef57607f821691505b602082108114156200061157634e487b7160e01b600052602260045260246000fd5b50919050565b634e487b7160e01b600052604160045260246000fd5b60805160f01c614b836200065a600039600081816104e80152818161246c015261346f0152614b836000f3fe6080604052600436106102a75760003560e01c80636945c5ea11610164578063a22cb465116100c6578063c486456c1161008a578063d0b50d8e11610064578063d0b50d8e1461098e578063e985e9c5146109ae578063f2fde38b146109f757600080fd5b8063c486456c146108d7578063c4f1634d1461095b578063c87b56dd1461096e57600080fd5b8063a22cb465146107d3578063a5077460146107f3578063b51ce63d14610823578063b88d4fde146108a4578063b9143eb2146108c457600080fd5b80638abbe9e61161012857806397a9140c1161010257806397a9140c1461077e5780639da058e91461079e578063a0a4a5a2146107b357600080fd5b80638abbe9e61461071b5780638da5cb5b1461074b57806395d89b411461076957600080fd5b80636945c5ea1461069157806370a08231146106b1578063715018a6146106d15780637d64bcb4146106e657806389514543146106fb57600080fd5b806332cb6b0c1161020d57806354353219116101d15780636352211e116101ab5780636352211e1461064857806364b1152f14610668578063688d260e1461067b57600080fd5b8063543532191461059757806360dc13a9146105bb57806361a0dedc146105db57600080fd5b806332cb6b0c146104d657806342842e0e1461051d578063430ca46f1461053d57806348c3e15d146105525780634c0e123b1461058257600080fd5b806318160ddd1161026f5780632a55205a116102495780632a55205a146104645780632db11544146104a35780632fa3ce7d146104b657600080fd5b806318160ddd146104015780631db16f201461042457806323b872dd1461044457600080fd5b806301ffc9a7146102ac578063045cd554146102e157806306fdde0314610385578063081812fc146103a7578063095ea7b3146103df575b600080fd5b3480156102b857600080fd5b506102cc6102c7366004614610565b610a17565b60405190151581526020015b60405180910390f35b3480156102ed57600080fd5b506103446102fc36600461478f565b601e602052600090815260409020805460018201546002830154600384015460048501546005860154600687015460079097015460ff96871697959694959394929391921688565b6040805160ff90991689526020890197909752958701949094526060860192909252608085015260a084015260c0830152151560e0820152610100016102d8565b34801561039157600080fd5b5061039a610a69565b6040516102d8919061494f565b3480156103b357600080fd5b506103c76103c2366004614756565b610afb565b6040516001600160a01b0390911681526020016102d8565b3480156103eb57600080fd5b506103ff6103fa3660046144b9565b610b3f565b005b34801561040d57600080fd5b50600154600054035b6040519081526020016102d8565b34801561043057600080fd5b506103ff61043f36600461467b565b610bcd565b34801561045057600080fd5b506103ff61045f3660046143dc565b610e7f565b34801561047057600080fd5b5061048461047f36600461476e565b610e8a565b604080516001600160a01b0390931683526020830191909152016102d8565b6103ff6104b1366004614756565b610ec5565b3480156104c257600080fd5b506103ff6104d136600461473c565b611021565b3480156104e257600080fd5b5061050a7f000000000000000000000000000000000000000000000000000000000000000081565b60405161ffff90911681526020016102d8565b34801561052957600080fd5b506103ff6105383660046143dc565b6111d4565b34801561054957600080fd5b506103ff6111ef565b34801561055e57600080fd5b506102cc61056d36600461473c565b601b6020526000908152604090205460ff1681565b34801561058e57600080fd5b506103ff611370565b3480156105a357600080fd5b506105ac6114f2565b6040516102d893929190614962565b3480156105c757600080fd5b506104166105d636600461478f565b6116a0565b3480156105e757600080fd5b50601554601654601754601854601954610612949361ffff1692919060ff8082169161010090041686565b6040805196875261ffff909516602087015293850192909252606084015260ff90811660808401521660a082015260c0016102d8565b34801561065457600080fd5b506103c7610663366004614756565b6117d9565b6103ff61067636600461473c565b6117eb565b34801561068757600080fd5b50610416600a5481565b34801561069d57600080fd5b506103ff6106ac366004614399565b611a14565b3480156106bd57600080fd5b506104166106cc366004614399565b611aa7565b3480156106dd57600080fd5b506103ff611af6565b3480156106f257600080fd5b506103ff611b5c565b34801561070757600080fd5b506103ff610716366004614648565b611d24565b34801561072757600080fd5b506102cc61073636600461473c565b601d6020526000908152604090205460ff1681565b34801561075757600080fd5b506008546001600160a01b03166103c7565b34801561077557600080fd5b5061039a611e44565b34801561078a57600080fd5b506103ff6107993660046145a0565b611e53565b3480156107aa57600080fd5b506103ff6120a0565b3480156107bf57600080fd5b506103ff6107ce366004614399565b612241565b3480156107df57600080fd5b506103ff6107ee366004614490565b6122d2565b3480156107ff57600080fd5b506102cc61080e366004614756565b601f6020526000908152604090205460ff1681565b34801561082f57600080fd5b50600c54600d54600e54600f54601054601154610862956001600160a01b03908116958116948116938116928116911686565b604080516001600160a01b03978816815295871660208701529386169385019390935290841660608401528316608083015290911660a082015260c0016102d8565b3480156108b057600080fd5b506103ff6108bf366004614417565b612368565b6103ff6108d23660046144e2565b6123b9565b3480156108e357600080fd5b50600b546109229060ff808216916101008104821691620100008204811691630100000081048216916401000000008204811691600160281b90041686565b604080519615158752941515602087015292151593850193909352151560608401529015156080830152151560a082015260c0016102d8565b6103ff61096936600461478f565b612670565b34801561097a57600080fd5b5061039a610989366004614756565b612a32565b34801561099a57600080fd5b506103ff6109a9366004614756565b612b4c565b3480156109ba57600080fd5b506102cc6109c93660046143b3565b6001600160a01b03918216600090815260076020908152604080832093909416825291909152205460ff1690565b348015610a0357600080fd5b506103ff610a12366004614399565b612c67565b60006001600160e01b031982166380ac58cd60e01b1480610a4857506001600160e01b03198216635b5e139f60e01b145b80610a6357506301ffc9a760e01b6001600160e01b03198316145b92915050565b606060028054610a7890614a71565b80601f0160208091040260200160405190810160405280929190818152602001828054610aa490614a71565b8015610af15780601f10610ac657610100808354040283529160200191610af1565b820191906000526020600020905b815481529060010190602001808311610ad457829003601f168201915b5050505050905090565b6000610b0682612d2f565b610b23576040516333d1c03960e21b815260040160405180910390fd5b506000908152600660205260409020546001600160a01b031690565b6000610b4a826117d9565b9050806001600160a01b0316836001600160a01b03161415610b7f5760405163250fdee360e21b815260040160405180910390fd5b336001600160a01b03821614801590610b9f5750610b9d81336109c9565b155b15610bbd576040516367d9dca160e11b815260040160405180910390fd5b610bc8838383612d5a565b505050565b600b54600160281b900460ff16610c255760405162461bcd60e51b8152602060048201526017602482015276135a5b9d1a5b99c81a5cc81b9bdd08199a5b9a5cda1959604a1b60448201526064015b60405180910390fd5b600b5460ff16610c775760405162461bcd60e51b815260206004820152601b60248201527f436f6e7472616374206973206e6f7420696e697469616c697a656400000000006044820152606401610c1c565b600d546001600160a01b03163314610ce65760405162461bcd60e51b815260206004820152602c60248201527f4f6e6c7920706c6174666f726d20616464726573732063616e2063616c6c207460448201526b3434b990333ab731ba34b7b760a11b6064820152608401610c1c565b61ffff82166000908152601d6020526040902054829060ff1615610d605760405162461bcd60e51b815260206004820152602b60248201527f746869732066756e6374696f6e206973206f6e6c792066756e6374696f6e616c60448201526a20666f722068756d616e7360a81b6064820152608401610c1c565b835180610d9e5760405162461bcd60e51b815260206004820152600c60248201526b43494420697320656d70747960a01b6044820152606401610c1c565b61ffff84166000908152601f602052604090205460ff16610e015760405162461bcd60e51b815260206004820152601760248201527f7570677261646520666565206973206e6f7420706169640000000000000000006044820152606401610c1c565b61ffff84166000908152601f60209081526040808320805460ff19169055601c82529091208651610e349288019061421a565b5061ffff84166000908152601b60205260409020805460ff191660011790558215610e785761ffff84166000908152601d60205260409020805460ff191660011790555b5050505050565b610bc8838383612db6565b601a546001600160a01b03811690600090606490610eb290600160a01b900460ff1685614a0f565b610ebc91906149fb565b90509250929050565b600b546301000000900460ff16610f1e5760405162461bcd60e51b815260206004820152601560248201527f4d696e74696e67206973206e6f742061637469766500000000000000000000006044820152606401610c1c565b60165461ffff1681610f2f33612fc9565b610f39919061499b565b1115610fad5760405162461bcd60e51b815260206004820152603860248201527f4e46543a20796f75207265616368656420746865206d6178696d756d206e756d60448201527f626572206f66206d696e747320706572206164647265737300000000000000006064820152608401610c1c565b6015543490610fbc9083614a0f565b1115610ffe5760405162461bcd60e51b81526020600482015260116024820152703737ba1032b737bab3b4399032ba3432b960791b6044820152606401610c1c565b6110083382613024565b600f5461101e906001600160a01b03163461303e565b50565b61ffff81166000908152601d6020526040902054819060ff161561109b5760405162461bcd60e51b815260206004820152602b60248201527f746869732066756e6374696f6e206973206f6e6c792066756e6374696f6e616c60448201526a20666f722068756d616e7360a81b6064820152608401610c1c565b600260095414156110ee5760405162461bcd60e51b815260206004820152601f60248201527f5265656e7472616e637947756172643a207265656e7472616e742063616c6c006044820152606401610c1c565b600260095561110061ffff8316612d2f565b6111435760405162461bcd60e51b81526020600482015260146024820152731d1bdad95b88191bd95cc81b9bdd08195e1a5cdd60621b6044820152606401610c1c565b60006111528361ffff166130e1565b80519091506001600160a01b031633146111bd5760405162461bcd60e51b815260206004820152602660248201527f6f6e6c79206f776e6572206f6620746f6b656e2063616e20627579206261636b604482015265103a37b5b2b760d11b6064820152608401610c1c565b6111ca8361ffff166131fd565b5050600160095550565b610bc883838360405180602001604052806000815250612368565b600e546001600160a01b031633146112605760405162461bcd60e51b815260206004820152602e60248201527f4f6e6c79206465666920746974616e20616464726573732063616e2063616c6c60448201526d103a3434b990333ab731ba34b7b760911b6064820152608401610c1c565b600b54600160281b900460ff16156112ba5760405162461bcd60e51b815260206004820181905260248201527f4e46543a204d696e74696e6720697320616c72656164792066696e69736865646044820152606401610c1c565b600b5460ff1661130c5760405162461bcd60e51b815260206004820181905260248201527f4e46543a20636f6e7472616374206973206e6f7420696e697469616c697a65646044820152606401610c1c565b600b54610100900460ff166113635760405162461bcd60e51b815260206004820152601a60248201527f4e46543a2041756374696f6e206973206e6f74206163746976650000000000006044820152606401610c1c565b600b805461ff0019169055565b6008546001600160a01b031633146113ca5760405162461bcd60e51b815260206004820181905260248201527f4f776e61626c653a2063616c6c6572206973206e6f7420746865206f776e65726044820152606401610c1c565b600b5460ff1661141c5760405162461bcd60e51b815260206004820181905260248201527f4e46543a20636f6e7472616374206973206e6f7420696e697469616c697a65646044820152606401610c1c565b600b54600160281b900460ff16156114765760405162461bcd60e51b815260206004820181905260248201527f4e46543a204d696e74696e6720697320616c72656164792066696e69736865646044820152606401610c1c565b600b5462010000900460ff16156114df5760405162461bcd60e51b815260206004820152602760248201527f4e46543a2057686974654c6973744d696e74696e6720697320616c72656164796044820152662061637469766560c81b6064820152608401610c1c565b600b805462ff0000191662010000179055565b60128054819061150190614a71565b80601f016020809104026020016040519081016040528092919081815260200182805461152d90614a71565b801561157a5780601f1061154f5761010080835404028352916020019161157a565b820191906000526020600020905b81548152906001019060200180831161155d57829003601f168201915b50505050509080600101805461158f90614a71565b80601f01602080910402602001604051908101604052809291908181526020018280546115bb90614a71565b80156116085780601f106115dd57610100808354040283529160200191611608565b820191906000526020600020905b8154815290600101906020018083116115eb57829003601f168201915b50505050509080600201805461161d90614a71565b80601f016020809104026020016040519081016040528092919081815260200182805461164990614a71565b80156116965780601f1061166b57610100808354040283529160200191611696565b820191906000526020600020905b81548152906001019060200180831161167957829003601f168201915b5050505050905083565b600b54600090610100900460ff166116f25760405162461bcd60e51b815260206004820152601560248201527441756374696f6e206973206e6f742061637469766560581b6044820152606401610c1c565b8160ff1660011115801561170f575060195460ff90811690831611155b6117515760405162461bcd60e51b8152602060048201526013602482015272646179206973206f7574206f662072616e676560681b6044820152606401610c1c565b60ff8083166000908152601e60209081526040918290208251610100810184528154851681526001820154928101929092526002810154928201929092526003820154606082015260048201546080820152600582015460a0820152600682015460c0820152600790910154909116151560e08201526117d08161339c565b9150505b919050565b60006117e4826130e1565b5192915050565b600b54600160281b900460ff1661183e5760405162461bcd60e51b8152602060048201526017602482015276135a5b9d1a5b99c81a5cc81b9bdd08199a5b9a5cda1959604a1b6044820152606401610c1c565b600b5460ff166118905760405162461bcd60e51b815260206004820152601b60248201527f436f6e7472616374206973206e6f7420696e697469616c697a656400000000006044820152606401610c1c565b61ffff81166000908152601d6020526040902054819060ff161561190a5760405162461bcd60e51b815260206004820152602b60248201527f746869732066756e6374696f6e206973206f6e6c792066756e6374696f6e616c60448201526a20666f722068756d616e7360a81b6064820152608401610c1c565b6119178261ffff16612d2f565b61195a5760405162461bcd60e51b81526020600482015260146024820152731d1bdad95b88191bd95cc81b9bdd08195e1a5cdd60621b6044820152606401610c1c565b34600a5411156119a05760405162461bcd60e51b81526020600482015260116024820152703737ba1032b737bab3b4399032ba3432b960791b6044820152606401610c1c565b61ffff82166000908152601f60205260409020805460ff19166001179055600d546119d4906001600160a01b03163461303e565b6040805161ffff841681523460208201527f0154c2dfb98437384198b52913095489510f87da0fcc18a7a76717706e1d0085910160405180910390a15050565b600e546001600160a01b03163314611a855760405162461bcd60e51b815260206004820152602e60248201527f4f6e6c79206465666920746974616e20616464726573732063616e2063616c6c60448201526d103a3434b990333ab731ba34b7b760911b6064820152608401610c1c565b600d80546001600160a01b0319166001600160a01b0392909216919091179055565b60006001600160a01b038216611ad0576040516323d3ad8160e21b815260040160405180910390fd5b506001600160a01b031660009081526005602052604090205467ffffffffffffffff1690565b6008546001600160a01b03163314611b505760405162461bcd60e51b815260206004820181905260248201527f4f776e61626c653a2063616c6c6572206973206e6f7420746865206f776e65726044820152606401610c1c565b611b5a6000613415565b565b600e546001600160a01b03163314611bcd5760405162461bcd60e51b815260206004820152602e60248201527f4f6e6c79206465666920746974616e20616464726573732063616e2063616c6c60448201526d103a3434b990333ab731ba34b7b760911b6064820152608401610c1c565b600b54600160281b900460ff1615611c275760405162461bcd60e51b815260206004820181905260248201527f4e46543a204d696e74696e6720697320616c72656164792066696e69736865646044820152606401610c1c565b600b546301000000900460ff16611c805760405162461bcd60e51b815260206004820152601a60248201527f4e46543a204d696e74696e67206973206e6f74206163746976650000000000006044820152606401610c1c565b600b5462010000900460ff1615611d0d5760405162461bcd60e51b8152602060048201526044602482018190527f4e46543a2057686974654c6973744d696e74696e672073686f756c64206e6f74908201527f2061637469766520696e20746865206d6964646c65206f6620746865204d696e60648201526374696e6760e01b608482015260a401610c1c565b600b805465ff00ff00ff001916600160281b179055565b6008546001600160a01b03163314611d7e5760405162461bcd60e51b815260206004820181905260248201527f4f776e61626c653a2063616c6c6572206973206e6f7420746865206f776e65726044820152606401610c1c565b600b54640100000000900460ff1615611dd95760405162461bcd60e51b815260206004820152601760248201527f41727420697320616c72656164792072657665616c65640000000000000000006044820152606401610c1c565b805180611e175760405162461bcd60e51b815260206004820152600c60248201526b43494420697320656d70747960a01b6044820152606401610c1c565b8151611e2a90601490602085019061421a565b5050600b805464ff00000000191664010000000017905550565b606060038054610a7890614a71565b6008546001600160a01b03163314611ead5760405162461bcd60e51b815260206004820181905260248201527f4f776e61626c653a2063616c6c6572206973206e6f7420746865206f776e65726044820152606401610c1c565b600b5460ff1615611f0c5760405162461bcd60e51b8152602060048201526024808201527f4e46543a20636f6e747261637420697320616c726561647920696e697469616c6044820152631a5e995960e21b6064820152608401610c1c565b600b54600160281b900460ff1615611f705760405162461bcd60e51b815260206004820152602160248201527f4e46543a20636f6e747261637420697320616c72656164792066696e697368656044820152601960fa1b6064820152608401610c1c565b600b54610100900460ff1615611fc85760405162461bcd60e51b815260206004820152601e60248201527f4e46543a2061756374696f6e20697320616c72656164792061637469766500006044820152606401610c1c565b600b805460ff191660011790556040805160208084028201810190925282815261202e9184908490819060009085015b8282101561202457612015608083028601368190038101906146d7565b81526020019060010190611ff8565b5050505050613467565b5050600b805461ff001916610100908117909155601154601954604080518082019091526001600160a01b0390921680835292900460ff166020909101819052601a8054600160a01b90920274ffffffffffffffffffffffffffffffffffffffffff19909216909217179055565b5050565b6008546001600160a01b031633146120fa5760405162461bcd60e51b815260206004820181905260248201527f4f776e61626c653a2063616c6c6572206973206e6f7420746865206f776e65726044820152606401610c1c565b600b54600160281b900460ff16156121545760405162461bcd60e51b815260206004820181905260248201527f4e46543a204d696e74696e6720697320616c72656164792066696e69736865646044820152606401610c1c565b600b546301000000900460ff16156121ae5760405162461bcd60e51b815260206004820152601e60248201527f4e46543a204d696e74696e6720697320616c72656164792061637469766500006044820152606401610c1c565b600b5462010000900460ff1661222c5760405162461bcd60e51b815260206004820152603960248201527f4e46543a2057686974654c6973744d696e74696e672073686f756c642061637460448201527f697665206265666f7265205075626c6963204d696e74696e67000000000000006064820152608401610c1c565b600b805463ffff000019166301000000179055565b600d546001600160a01b031633146122b05760405162461bcd60e51b815260206004820152602c60248201527f4f6e6c7920706c6174666f726d20616464726573732063616e2063616c6c207460448201526b3434b990333ab731ba34b7b760a11b6064820152608401610c1c565b600f80546001600160a01b0319166001600160a01b0392909216919091179055565b6001600160a01b0382163314156122fc5760405163b06307db60e01b815260040160405180910390fd5b3360008181526007602090815260408083206001600160a01b03871680855290835292819020805460ff191686151590811790915590519081529192917f17307eab39ab6107e8899845ad3d59bd9653f200f220920489ca2b5937696c31910160405180910390a35050565b612373848484612db6565b6001600160a01b0383163b151580156123955750612393848484846137f8565b155b156123b3576040516368d2bf6b60e11b815260040160405180910390fd5b50505050565b600b5462010000900460ff166124115760405162461bcd60e51b815260206004820152601e60248201527f57686974654c6973744d696e74696e67206973206e6f742061637469766500006044820152606401610c1c565b61241e86868585856138ef565b61246a5760405162461bcd60e51b815260206004820152601660248201527f7369676e6174757265206973206e6f742076616c6964000000000000000000006044820152606401610c1c565b7f000000000000000000000000000000000000000000000000000000000000000061ffff168467ffffffffffffffff166124a360005490565b6124ad919061499b565b11156124fb5760405162461bcd60e51b815260206004820152601560248201527f4d617820737570706c79206973207265616368656400000000000000000000006044820152606401610c1c565b6000612506876139cc565b905060ff861661251686836149b3565b67ffffffffffffffff16111561256e5760405162461bcd60e51b815260206004820152601560248201527f5175616e74697479206973206e6f742076616c696400000000000000000000006044820152606401610c1c565b600184600181111561259057634e487b7160e01b600052602160045260246000fd5b14156125c2576125a9876125a487846149b3565b613a22565b6125bd878667ffffffffffffffff16613024565b61264b565b60155434906125db9067ffffffffffffffff8816614a0f565b11156126295760405162461bcd60e51b815260206004820152601260248201527f4e6f7420656e6f756768732065746865722e00000000000000000000000000006044820152606401610c1c565b612637876125a487846149b3565b61264b878667ffffffffffffffff16613024565b341561266757600f54612667906001600160a01b03163461303e565b50505050505050565b600b54610100900460ff166126bf5760405162461bcd60e51b815260206004820152601560248201527441756374696f6e206973206e6f742061637469766560581b6044820152606401610c1c565b8060ff166001111580156126dc575060195460ff90811690821611155b61271e5760405162461bcd60e51b8152602060048201526013602482015272646179206973206f7574206f662072616e676560681b6044820152606401610c1c565b60ff81166000908152601e60205260409020600101544210156127835760405162461bcd60e51b815260206004820152601a60248201527f61756374696f6e206973206e6f742073746172746564207965740000000000006044820152606401610c1c565b60ff81166000908152601e60205260409020600201544211156127e85760405162461bcd60e51b815260206004820152601260248201527f61756374696f6e206973206578706972656400000000000000000000000000006044820152606401610c1c565b60ff8082166000908152601e60209081526040808320815161010081018352815486168082526001830154948201949094526002820154928101929092526003810154606083015260048101546080830152600581015460a0830152600681015460c083015260070154909316151560e0840152612865906130e1565b90508160e00151156128b95760405162461bcd60e51b815260206004820152601760248201527f61756374696f6e20697320616c726561647920736f6c640000000000000000006044820152606401610c1c565b600e5481516001600160a01b039081169116146129285760405162461bcd60e51b815260206004820152602760248201527f61756374696f6e206973206e6f74206f776e656420627920446563656e74726160448201526636102a34ba30b760c91b6064820152608401610c1c565b60006129338361339c565b905082608001518111156129af5760405162461bcd60e51b815260206004820152603260248201527f61756374696f6e2068617320656e64656420626563617573652069742072656360448201527f6569766520746f206261736520707269636500000000000000000000000000006064820152608401610c1c565b348111156129ff5760405162461bcd60e51b815260206004820152601060248201527f6e6f7420656e6f756768206574686572000000000000000000000000000000006044820152606401610c1c565b600e548351612a1c916001600160a01b031690339060ff16610e7f565b600e546123b3906001600160a01b03163461303e565b6060612a3d82612d2f565b612a805760405162461bcd60e51b81526020600482015260146024820152731d1bdad95b88191bd95cc81b9bdd08195e1a5cdd60621b6044820152606401610c1c565b61ffff82166000908152601b6020526040902054829060ff1615612ad95761ffff81166000908152601c60209081526040918290209151612ac29291016148e2565b604051602081830303815290604052915050919050565b61ffff81166000908152601d602052604090205460ff1615612b15576012612b0461ffff8316613a9a565b604051602001612ac29291906148ee565b600b54640100000000900460ff1615612b37576014612b0461ffff8316613a9a565b6013612b0461ffff8316613a9a565b50919050565b600e546001600160a01b03163314612bbd5760405162461bcd60e51b815260206004820152602e60248201527f4f6e6c79206465666920746974616e20616464726573732063616e2063616c6c60448201526d103a3434b990333ab731ba34b7b760911b6064820152608401610c1c565b600b54600160281b900460ff16612c105760405162461bcd60e51b8152602060048201526017602482015276135a5b9d1a5b99c81a5cc81b9bdd08199a5b9a5cda1959604a1b6044820152606401610c1c565b600b5460ff16612c625760405162461bcd60e51b815260206004820152601b60248201527f436f6e7472616374206973206e6f7420696e697469616c697a656400000000006044820152606401610c1c565b600a55565b6008546001600160a01b03163314612cc15760405162461bcd60e51b815260206004820181905260248201527f4f776e61626c653a2063616c6c6572206973206e6f7420746865206f776e65726044820152606401610c1c565b6001600160a01b038116612d265760405162461bcd60e51b815260206004820152602660248201527f4f776e61626c653a206e6577206f776e657220697320746865207a65726f206160448201526564647265737360d01b6064820152608401610c1c565b61101e81613415565b6000805482108015610a63575050600090815260046020526040902054600160e01b900460ff161590565b60008281526006602052604080822080546001600160a01b0319166001600160a01b0387811691821790925591518593918516917f8c5be1e5ebec7d5bd14f71427d1e84f3dd0314c0f7b2291e5b200ac8c7c3b92591a4505050565b6000612dc1826130e1565b80519091506000906001600160a01b0316336001600160a01b03161480612def57508151612def90336109c9565b80612e0a575033612dff84610afb565b6001600160a01b0316145b905080612e2a57604051632ce44b5f60e11b815260040160405180910390fd5b846001600160a01b031682600001516001600160a01b031614612e5f5760405162a1148160e81b815260040160405180910390fd5b6001600160a01b038416612e8657604051633a954ecd60e21b815260040160405180910390fd5b612e966000848460000151612d5a565b6001600160a01b038581166000908152600560209081526040808320805467ffffffffffffffff1980821667ffffffffffffffff92831660001901831617909255898616808652838620805493841693831660019081018416949094179055898652600490945282852080546001600160e01b031916909417600160a01b429092169190910217909255908601808352912054909116612f8257600054811015612f82578251600082815260046020908152604090912080549186015167ffffffffffffffff16600160a01b026001600160e01b03199092166001600160a01b03909316929092171790555b5082846001600160a01b0316866001600160a01b03167fddf252ad1be2c89b69c2b068fc378daa952ba7f163c4a11628f55a4df523b3ef60405160405180910390a4610e78565b60006001600160a01b038216612ff2576040516335ebb31960e01b815260040160405180910390fd5b506001600160a01b031660009081526005602052604090205468010000000000000000900467ffffffffffffffff1690565b61209c828260405180602001604052806000815250613bcc565b60405182906000906001600160a01b0383169084908381818185875af1925050503d806000811461308b576040519150601f19603f3d011682016040523d82523d6000602084013e613090565b606091505b50509050806123b35760405162461bcd60e51b815260206004820152601460248201527f4661696c656420746f2073656e642045746865720000000000000000000000006044820152606401610c1c565b6040805160608101825260008082526020820181905291810191909152816000548110156131e457600081815260046020908152604091829020825160608101845290546001600160a01b0381168252600160a01b810467ffffffffffffffff1692820192909252600160e01b90910460ff161515918101829052906131e25780516001600160a01b031615613178579392505050565b5060001901600081815260046020908152604091829020825160608101845290546001600160a01b038116808352600160a01b820467ffffffffffffffff1693830193909352600160e01b900460ff16151592810192909252156131dd579392505050565b613178565b505b604051636f96cda160e11b815260040160405180910390fd5b6000613208826130e1565b905061321a6000838360000151612d5a565b80516001600160a01b039081166000908152600560209081526040808320805467ffffffffffffffff19811667ffffffffffffffff9182166000190182161790915585518516845281842080547fffffffffffffffff0000000000000000ffffffffffffffffffffffffffffffff81167001000000000000000000000000000000009182900484166001908101851690920217909155865188865260049094528285208054600160e01b9588166001600160e01b031990911617600160a01b42909416939093029290921760ff60e01b191693909317905590850180835291205490911661335457600054811015613354578151600082815260046020908152604090912080549185015167ffffffffffffffff16600160a01b026001600160e01b03199092166001600160a01b03909316929092171790555b50805160405183916000916001600160a01b03909116907fddf252ad1be2c89b69c2b068fc378daa952ba7f163c4a11628f55a4df523b3ef908390a450506001805481019055565b600081602001514210156133b257506060015190565b81604001514211156133c657506080015190565b60008260200151426133d89190614a2e565b905060008360a00151826133ec91906149fb565b90508360c00151816133fe9190614a0f565b846060015161340d9190614a2e565b949350505050565b600880546001600160a01b038381166001600160a01b0319831681179093556040519116919082907f8be0079c531659141344cd1fd0a4f28419497f9722a3daafe3b4186f6b6457e090600090a35050565b60195461ffff7f0000000000000000000000000000000000000000000000000000000000000000169060ff1661349c60005490565b6134a6919061499b565b11156134fe5760405162461bcd60e51b815260206004820152602160248201527f6e6f7420656e6f75676820737061636520666f72206e65772061756374696f6e6044820152607360f81b6064820152608401610c1c565b601954815160ff909116146135665760405162461bcd60e51b815260206004820152602860248201527f636f6e66696773206d757374206265207468652073616d65206c656e67746820604482015267185cc818dbdd5b9d60c21b6064820152608401610c1c565b600e54601954613582916001600160a01b03169060ff16613024565b60195460ff1661359160005490565b146135de5760405162461bcd60e51b815260206004820152601e60248201527f62616420696e697469616c697a6174696f6e206f6620636f6e747261637400006044820152606401610c1c565b60005b60195460ff908116908216101561209c5760006040518061010001604052808360ff1681526020018360ff1660156003015461361d9190614a0f565b60175461362a919061499b565b815260200161363a8460016149d6565b60185461364a9160ff1690614a0f565b601754613657919061499b565b8152602001848460ff168151811061367f57634e487b7160e01b600052603260045260246000fd5b6020026020010151600001518152602001848460ff16815181106136b357634e487b7160e01b600052603260045260246000fd5b6020026020010151602001518152602001848460ff16815181106136e757634e487b7160e01b600052603260045260246000fd5b6020026020010151604001518152602001848460ff168151811061371b57634e487b7160e01b600052603260045260246000fd5b602002602001015160600151815260200160001515815250905080601e600084600161374791906149d6565b60ff9081168252602080830193909352604091820160002084518154921660ff19928316178155928401516001840155908301516002830155606083015160038301556080830151600483015560a0830151600583015560c0830151600683015560e09092015160079091018054911515919092161790556137c882613bd9565b5060ff81166000908152601d60205260409020805460ff19166001179055806137f081614ac1565b9150506135e1565b604051630a85bd0160e11b81526000906001600160a01b0385169063150b7a029061382d903390899088908890600401614913565b602060405180830381600087803b15801561384757600080fd5b505af1925050508015613877575060408051601f3d908101601f191682019092526138749181019061462c565b60015b6138d2573d8080156138a5576040519150601f19603f3d011682016040523d82523d6000602084013e6138aa565b606091505b5080516138ca576040516368d2bf6b60e11b815260040160405180910390fd5b805181602001fd5b6001600160e01b031916630a85bd0160e11b149050949350505050565b6010546040516000916001600160a01b0316906139b89061397c9061391c908a908a908a9060200161486d565b60408051601f1981840301815282825280516020918201207f19457468657265756d205369676e6564204d6573736167653a0a33320000000084830152603c8085019190915282518085039091018152605c909301909152815191012090565b85858080601f016020809104026020016040519081016040528093929190818152602001838380828437600092019190915250613c7592505050565b6001600160a01b0316149695505050505050565b60006001600160a01b0382166139f55760405163561b93dd60e11b815260040160405180910390fd5b506001600160a01b0316600090815260056020526040902054600160c01b900467ffffffffffffffff1690565b6001600160a01b038216613a495760405163561b93dd60e11b815260040160405180910390fd5b6001600160a01b039091166000908152600560205260409020805467ffffffffffffffff909216600160c01b0277ffffffffffffffffffffffffffffffffffffffffffffffff909216919091179055565b606081613abe5750506040805180820190915260018152600360fc1b602082015290565b8160005b8115613ae85780613ad281614aa6565b9150613ae19050600a836149fb565b9150613ac2565b60008167ffffffffffffffff811115613b1157634e487b7160e01b600052604160045260246000fd5b6040519080825280601f01601f191660200182016040528015613b3b576020820181803683370190505b5090505b841561340d57613b50600183614a2e565b9150613b5d600a86614ae1565b613b6890603061499b565b60f81b818381518110613b8b57634e487b7160e01b600052603260045260246000fd5b60200101907effffffffffffffffffffffffffffffffffffffffffffffffffffffffffffff1916908160001a905350613bc5600a866149fb565b9450613b3f565b610bc88383836001613c99565b6000613be78260ff166130e1565b600e5481519192506001600160a01b03918216911614613c595760405162461bcd60e51b815260206004820152602760248201527f7468697320697320776f726b206f6e6c7920666f72206465666920746974616e6044820152662061737365747360c81b6064820152608401610c1c565b600e5461209c90309060ff8516906001600160a01b0316612d5a565b6000806000613c848585613e6a565b91509150613c9181613eda565b509392505050565b6000546001600160a01b038516613cc257604051622e076360e81b815260040160405180910390fd5b83613ce05760405163b562e8dd60e01b815260040160405180910390fd5b6001600160a01b038516600081815260056020908152604080832080546fffffffffffffffffffffffffffffffff19811667ffffffffffffffff8083168c0181169182176801000000000000000067ffffffffffffffff1990941690921783900481168c01811690920217909155858452600490925290912080546001600160e01b031916909217600160a01b429092169190910217905580808501838015613d9257506001600160a01b0387163b15155b15613e1b575b60405182906001600160a01b038916906000907fddf252ad1be2c89b69c2b068fc378daa952ba7f163c4a11628f55a4df523b3ef908290a4613de360008884806001019550886137f8565b613e00576040516368d2bf6b60e11b815260040160405180910390fd5b80821415613d98578260005414613e1657600080fd5b613e61565b5b6040516001830192906001600160a01b038916906000907fddf252ad1be2c89b69c2b068fc378daa952ba7f163c4a11628f55a4df523b3ef908290a480821415613e1c575b50600055610e78565b600080825160411415613ea15760208301516040840151606085015160001a613e95878285856140db565b94509450505050613ed3565b825160401415613ecb5760208301516040840151613ec08683836141c8565b935093505050613ed3565b506000905060025b9250929050565b6000816004811115613efc57634e487b7160e01b600052602160045260246000fd5b1415613f055750565b6001816004811115613f2757634e487b7160e01b600052602160045260246000fd5b1415613f755760405162461bcd60e51b815260206004820152601860248201527f45434453413a20696e76616c6964207369676e617475726500000000000000006044820152606401610c1c565b6002816004811115613f9757634e487b7160e01b600052602160045260246000fd5b1415613fe55760405162461bcd60e51b815260206004820152601f60248201527f45434453413a20696e76616c6964207369676e6174757265206c656e677468006044820152606401610c1c565b600381600481111561400757634e487b7160e01b600052602160045260246000fd5b14156140605760405162461bcd60e51b815260206004820152602260248201527f45434453413a20696e76616c6964207369676e6174757265202773272076616c604482015261756560f01b6064820152608401610c1c565b600481600481111561408257634e487b7160e01b600052602160045260246000fd5b141561101e5760405162461bcd60e51b815260206004820152602260248201527f45434453413a20696e76616c6964207369676e6174757265202776272076616c604482015261756560f01b6064820152608401610c1c565b6000807f7fffffffffffffffffffffffffffffff5d576e7357a4501ddfe92f46681b20a083111561411257506000905060036141bf565b8460ff16601b1415801561412a57508460ff16601c14155b1561413b57506000905060046141bf565b6040805160008082526020820180845289905260ff881692820192909252606081018690526080810185905260019060a0016020604051602081039080840390855afa15801561418f573d6000803e3d6000fd5b5050604051601f1901519150506001600160a01b0381166141b8576000600192509250506141bf565b9150600090505b94509492505050565b6000807f7fffffffffffffffffffffffffffffffffffffffffffffffffffffffffffffff8316816141fe60ff86901c601b61499b565b905061420c878288856140db565b935093505050935093915050565b82805461422690614a71565b90600052602060002090601f016020900481019282614248576000855561428e565b82601f1061426157805160ff191683800117855561428e565b8280016001018555821561428e579182015b8281111561428e578251825591602001919060010190614273565b5061429a92915061429e565b5090565b5b8082111561429a576000815560010161429f565b600067ffffffffffffffff808411156142ce576142ce614b21565b604051601f8501601f19908116603f011681019082821181831017156142f6576142f6614b21565b8160405280935085815286868601111561430f57600080fd5b858560208301376000602087830101525050509392505050565b80356001600160a01b03811681146117d457600080fd5b803580151581146117d457600080fd5b600082601f830112614360578081fd5b61436f838335602085016142b3565b9392505050565b803561ffff811681146117d457600080fd5b803560ff811681146117d457600080fd5b6000602082840312156143aa578081fd5b61436f82614329565b600080604083850312156143c5578081fd5b6143ce83614329565b9150610ebc60208401614329565b6000806000606084860312156143f0578081fd5b6143f984614329565b925061440760208501614329565b9150604084013590509250925092565b6000806000806080858703121561442c578081fd5b61443585614329565b935061444360208601614329565b925060408501359150606085013567ffffffffffffffff811115614465578182fd5b8501601f81018713614475578182fd5b614484878235602084016142b3565b91505092959194509250565b600080604083850312156144a2578182fd5b6144ab83614329565b9150610ebc60208401614340565b600080604083850312156144cb578182fd5b6144d483614329565b946020939093013593505050565b60008060008060008060a087890312156144fa578182fd5b61450387614329565b955061451160208801614388565b9450604087013567ffffffffffffffff808216821461452e578384fd5b90945060608801359060028210614543578384fd5b90935060808801359080821115614558578384fd5b818901915089601f83011261456b578384fd5b813581811115614579578485fd5b8a602082850101111561458a578485fd5b6020830194508093505050509295509295509295565b600080602083850312156145b2578182fd5b823567ffffffffffffffff808211156145c9578384fd5b818501915085601f8301126145dc578384fd5b8135818111156145ea578485fd5b8660208260071b85010111156145fe578485fd5b60209290920196919550909350505050565b600060208284031215614621578081fd5b813561436f81614b37565b60006020828403121561463d578081fd5b815161436f81614b37565b600060208284031215614659578081fd5b813567ffffffffffffffff81111561466f578182fd5b61340d84828501614350565b60008060006060848603121561468f578081fd5b833567ffffffffffffffff8111156146a5578182fd5b6146b186828701614350565b9350506146c060208501614376565b91506146ce60408501614340565b90509250925092565b6000608082840312156146e8578081fd5b6040516080810181811067ffffffffffffffff8211171561470b5761470b614b21565b8060405250823581526020830135602082015260408301356040820152606083013560608201528091505092915050565b60006020828403121561474d578081fd5b61436f82614376565b600060208284031215614767578081fd5b5035919050565b60008060408385031215614780578182fd5b50508035926020909101359150565b6000602082840312156147a0578081fd5b61436f82614388565b600081518084526147c1816020860160208601614a45565b601f01601f19169290920160200192915050565b8054600090600181811c90808316806147ef57607f831692505b602080841082141561480f57634e487b7160e01b86526022600452602486fd5b818015614823576001811461483457614861565b60ff19861689528489019650614861565b60008881526020902060005b868110156148595781548b820152908501908301614840565b505084890196505b50505050505092915050565b606084901b6bffffffffffffffffffffffff1916815260f883901b7fff000000000000000000000000000000000000000000000000000000000000001660148201526000600283106148cd57634e487b7160e01b81526021600452602481fd5b5060f89190911b601582015260160192915050565b600061436f82846147d5565b60006148fa82856147d5565b835161490a818360208801614a45565b01949350505050565b60006001600160a01b0380871683528086166020840152508360408301526080606083015261494560808301846147a9565b9695505050505050565b60208152600061436f60208301846147a9565b60608152600061497560608301866147a9565b828103602084015261498781866147a9565b9050828103604084015261494581856147a9565b600082198211156149ae576149ae614af5565b500190565b600067ffffffffffffffff80831681851680830382111561490a5761490a614af5565b600060ff821660ff84168060ff038211156149f3576149f3614af5565b019392505050565b600082614a0a57614a0a614b0b565b500490565b6000816000190483118215151615614a2957614a29614af5565b500290565b600082821015614a4057614a40614af5565b500390565b60005b83811015614a60578181015183820152602001614a48565b838111156123b35750506000910152565b600181811c90821680614a8557607f821691505b60208210811415612b4657634e487b7160e01b600052602260045260246000fd5b6000600019821415614aba57614aba614af5565b5060010190565b600060ff821660ff811415614ad857614ad8614af5565b60010192915050565b600082614af057614af0614b0b565b500690565b634e487b7160e01b600052601160045260246000fd5b634e487b7160e01b600052601260045260246000fd5b634e487b7160e01b600052604160045260246000fd5b6001600160e01b03198116811461101e57600080fdfea26469706673582212201940c3c3378f2b1004043ca16910353a30f86bac67fcf7c540f0e78db4264f4764736f6c63430008040033",
  "linkReferences": {},
  "deployedLinkReferences": {}
}