{
  "_format": "hh-sol-artifact-1",
  "contractName": "NFT",
  "sourceName": "src/contracts/NFT.sol",
  "abi": [
    {
      "inputs": [
        {
          "internalType": "uint16",
          "name": "maxSupply_",
          "type": "uint16"
        },
        {
          "components": [
            {
              "internalType": "address",
              "name": "OWNER",
              "type": "address"
            },
            {
              "internalType": "address",
              "name": "PLATFORM",
              "type": "address"
            },
            {
              "internalType": "address",
              "name": "DECENTRAL_TITAN",
              "type": "address"
            },
            {
              "internalType": "address",
              "name": "BUY_BACK_TREASURY_CONTRACT",
              "type": "address"
            },
            {
              "internalType": "address",
              "name": "WHITE_LIST_VERIFIER",
              "type": "address"
            },
            {
              "internalType": "address",
              "name": "ROYALTY_DISTRIBUTOR_CONTRACT",
              "type": "address"
            }
          ],
          "internalType": "struct NFT.ContractAddresses",
          "name": "addresses_",
          "type": "tuple"
        },
        {
          "internalType": "string",
          "name": "godCID_",
          "type": "string"
        },
        {
          "internalType": "string",
          "name": "notRevealedArtCID_",
          "type": "string"
        },
        {
          "components": [
            {
              "internalType": "uint256",
              "name": "MINT_PRICE_IN_WEI",
              "type": "uint256"
            },
            {
              "internalType": "uint16",
              "name": "MAX_MINT_PER_ADDRESS",
              "type": "uint16"
            },
            {
              "internalType": "uint256",
              "name": "AUCTION_START_TIME",
              "type": "uint256"
            },
            {
              "internalType": "uint256",
              "name": "AUCTION_DURATION",
              "type": "uint256"
            },
            {
              "internalType": "uint8",
              "name": "NUMBER_OF_TOKEN_FOR_AUCTION",
              "type": "uint8"
            },
            {
              "internalType": "uint8",
              "name": "ROYALTY_FEE_PERCENT",
              "type": "uint8"
            }
          ],
          "internalType": "struct NFT.ContactMintConfig",
          "name": "mintConfig_",
          "type": "tuple"
        },
        {
          "internalType": "uint256",
          "name": "upgradeRequestFeeInWei_",
          "type": "uint256"
        }
      ],
      "stateMutability": "nonpayable",
      "type": "constructor"
    },
    {
      "inputs": [],
      "name": "ApprovalCallerNotOwnerNorApproved",
      "type": "error"
    },
    {
      "inputs": [],
      "name": "ApprovalQueryForNonexistentToken",
      "type": "error"
    },
    {
      "inputs": [],
      "name": "ApprovalToCurrentOwner",
      "type": "error"
    },
    {
      "inputs": [],
      "name": "ApproveToCaller",
      "type": "error"
    },
    {
      "inputs": [],
      "name": "AuxQueryForZeroAddress",
      "type": "error"
    },
    {
      "inputs": [],
      "name": "BalanceQueryForZeroAddress",
      "type": "error"
    },
    {
      "inputs": [],
      "name": "MintToZeroAddress",
      "type": "error"
    },
    {
      "inputs": [],
      "name": "MintZeroQuantity",
      "type": "error"
    },
    {
      "inputs": [],
      "name": "MintedQueryForZeroAddress",
      "type": "error"
    },
    {
      "inputs": [],
      "name": "OwnerQueryForNonexistentToken",
      "type": "error"
    },
    {
      "inputs": [],
      "name": "TransferCallerNotOwnerNorApproved",
      "type": "error"
    },
    {
      "inputs": [],
      "name": "TransferFromIncorrectOwner",
      "type": "error"
    },
    {
      "inputs": [],
      "name": "TransferToNonERC721ReceiverImplementer",
      "type": "error"
    },
    {
      "inputs": [],
      "name": "TransferToZeroAddress",
      "type": "error"
    },
    {
      "anonymous": false,
      "inputs": [
        {
          "indexed": true,
          "internalType": "address",
          "name": "owner",
          "type": "address"
        },
        {
          "indexed": true,
          "internalType": "address",
          "name": "approved",
          "type": "address"
        },
        {
          "indexed": true,
          "internalType": "uint256",
          "name": "tokenId",
          "type": "uint256"
        }
      ],
      "name": "Approval",
      "type": "event"
    },
    {
      "anonymous": false,
      "inputs": [
        {
          "indexed": true,
          "internalType": "address",
          "name": "owner",
          "type": "address"
        },
        {
          "indexed": true,
          "internalType": "address",
          "name": "operator",
          "type": "address"
        },
        {
          "indexed": false,
          "internalType": "bool",
          "name": "approved",
          "type": "bool"
        }
      ],
      "name": "ApprovalForAll",
      "type": "event"
    },
    {
      "anonymous": false,
      "inputs": [
        {
          "indexed": true,
          "internalType": "address",
          "name": "previousOwner",
          "type": "address"
        },
        {
          "indexed": true,
          "internalType": "address",
          "name": "newOwner",
          "type": "address"
        }
      ],
      "name": "OwnershipTransferred",
      "type": "event"
    },
    {
      "anonymous": false,
      "inputs": [
        {
          "indexed": false,
          "internalType": "uint16",
          "name": "_token",
          "type": "uint16"
        }
      ],
      "name": "TokenUpgraded",
      "type": "event"
    },
    {
      "anonymous": false,
      "inputs": [
        {
          "indexed": true,
          "internalType": "address",
          "name": "from",
          "type": "address"
        },
        {
          "indexed": true,
          "internalType": "address",
          "name": "to",
          "type": "address"
        },
        {
          "indexed": true,
          "internalType": "uint256",
          "name": "tokenId",
          "type": "uint256"
        }
      ],
      "name": "Transfer",
      "type": "event"
    },
    {
      "anonymous": false,
      "inputs": [
        {
          "indexed": false,
          "internalType": "uint16",
          "name": "_token",
          "type": "uint16"
        },
        {
          "indexed": false,
          "internalType": "uint256",
          "name": "_value",
          "type": "uint256"
        }
      ],
      "name": "UpgradeRequestPayment",
      "type": "event"
    },
    {
      "stateMutability": "payable",
      "type": "fallback"
    },
    {
      "inputs": [],
      "name": "ADDRESS",
      "outputs": [
        {
          "internalType": "address",
          "name": "OWNER",
          "type": "address"
        },
        {
          "internalType": "address",
          "name": "PLATFORM",
          "type": "address"
        },
        {
          "internalType": "address",
          "name": "DECENTRAL_TITAN",
          "type": "address"
        },
        {
          "internalType": "address",
          "name": "BUY_BACK_TREASURY_CONTRACT",
          "type": "address"
        },
        {
          "internalType": "address",
          "name": "WHITE_LIST_VERIFIER",
          "type": "address"
        },
        {
          "internalType": "address",
          "name": "ROYALTY_DISTRIBUTOR_CONTRACT",
          "type": "address"
        }
      ],
      "stateMutability": "view",
      "type": "function"
    },
    {
      "inputs": [
        {
          "internalType": "uint8",
          "name": "",
          "type": "uint8"
        }
      ],
      "name": "AUCTIONS",
      "outputs": [
        {
          "internalType": "uint8",
          "name": "TOKEN_ID",
          "type": "uint8"
        },
        {
          "internalType": "uint256",
          "name": "START_TIME",
          "type": "uint256"
        },
        {
          "internalType": "uint256",
          "name": "EXPIRE_AT",
          "type": "uint256"
        },
        {
          "internalType": "uint256",
          "name": "START_PRICE",
          "type": "uint256"
        },
        {
          "internalType": "uint256",
          "name": "END_PRICE",
          "type": "uint256"
        },
        {
          "internalType": "uint256",
          "name": "AUCTION_DROP_INTERVAL",
          "type": "uint256"
        },
        {
          "internalType": "uint256",
          "name": "AUCTION_DROP_PER_STEP",
          "type": "uint256"
        },
        {
          "internalType": "bool",
          "name": "IS_SOLD",
          "type": "bool"
        }
      ],
      "stateMutability": "view",
      "type": "function"
    },
    {
      "inputs": [],
      "name": "IPFS",
      "outputs": [
        {
          "internalType": "string",
          "name": "GOD_CID",
          "type": "string"
        },
        {
          "internalType": "string",
          "name": "NOT_REVEALED_ART_CID",
          "type": "string"
        },
        {
          "internalType": "string",
          "name": "ART_CID",
          "type": "string"
        }
      ],
      "stateMutability": "view",
      "type": "function"
    },
    {
      "inputs": [],
      "name": "MAX_SUPPLY",
      "outputs": [
        {
          "internalType": "uint16",
          "name": "",
          "type": "uint16"
        }
      ],
      "stateMutability": "view",
      "type": "function"
    },
    {
      "inputs": [],
      "name": "MINTING_CONFIG",
      "outputs": [
        {
          "internalType": "uint256",
          "name": "MINT_PRICE_IN_WEI",
          "type": "uint256"
        },
        {
          "internalType": "uint16",
          "name": "MAX_MINT_PER_ADDRESS",
          "type": "uint16"
        },
        {
          "internalType": "uint256",
          "name": "AUCTION_START_TIME",
          "type": "uint256"
        },
        {
          "internalType": "uint256",
          "name": "AUCTION_DURATION",
          "type": "uint256"
        },
        {
          "internalType": "uint8",
          "name": "NUMBER_OF_TOKEN_FOR_AUCTION",
          "type": "uint8"
        },
        {
          "internalType": "uint8",
          "name": "ROYALTY_FEE_PERCENT",
          "type": "uint8"
        }
      ],
      "stateMutability": "view",
      "type": "function"
    },
    {
      "inputs": [],
      "name": "STATE",
      "outputs": [
        {
          "internalType": "bool",
          "name": "INITIALIZED",
          "type": "bool"
        },
        {
          "internalType": "bool",
          "name": "AUCTION_IS_ACTIVE",
          "type": "bool"
        },
        {
          "internalType": "bool",
          "name": "WHITE_LIST_MINTING_IS_ACTIVE",
          "type": "bool"
        },
        {
          "internalType": "bool",
          "name": "MINTING_IS_ACTIVE",
          "type": "bool"
        },
        {
          "internalType": "bool",
          "name": "ART_IS_REVEALED",
          "type": "bool"
        },
        {
          "internalType": "bool",
          "name": "FINISHED",
          "type": "bool"
        }
      ],
      "stateMutability": "view",
      "type": "function"
    },
    {
      "inputs": [
        {
          "internalType": "uint16",
          "name": "",
          "type": "uint16"
        }
      ],
      "name": "TOKEN_IS_GOD",
      "outputs": [
        {
          "internalType": "bool",
          "name": "",
          "type": "bool"
        }
      ],
      "stateMutability": "view",
      "type": "function"
    },
    {
      "inputs": [
        {
          "internalType": "uint16",
          "name": "",
          "type": "uint16"
        }
      ],
      "name": "TOKEN_IS_UPGRADED",
      "outputs": [
        {
          "internalType": "bool",
          "name": "",
          "type": "bool"
        }
      ],
      "stateMutability": "view",
      "type": "function"
    },
    {
      "inputs": [],
      "name": "UPGRADE_REQUEST_FEE_IN_WEI",
      "outputs": [
        {
          "internalType": "uint256",
          "name": "",
          "type": "uint256"
        }
      ],
      "stateMutability": "view",
      "type": "function"
    },
    {
      "inputs": [
        {
          "internalType": "uint256",
          "name": "",
          "type": "uint256"
        }
      ],
      "name": "UPGRADE_REQUEST_FEE_IS_PAID",
      "outputs": [
        {
          "internalType": "bool",
          "name": "",
          "type": "bool"
        }
      ],
      "stateMutability": "view",
      "type": "function"
    },
    {
      "inputs": [
        {
          "internalType": "address",
          "name": "to",
          "type": "address"
        },
        {
          "internalType": "uint256",
          "name": "tokenId",
          "type": "uint256"
        }
      ],
      "name": "approve",
      "outputs": [],
      "stateMutability": "nonpayable",
      "type": "function"
    },
    {
      "inputs": [
        {
          "internalType": "address",
          "name": "owner",
          "type": "address"
        }
      ],
      "name": "balanceOf",
      "outputs": [
        {
          "internalType": "uint256",
          "name": "",
          "type": "uint256"
        }
      ],
      "stateMutability": "view",
      "type": "function"
    },
    {
      "inputs": [
        {
          "internalType": "uint8",
          "name": "day",
          "type": "uint8"
        }
      ],
      "name": "buyAGodInAuction",
      "outputs": [],
      "stateMutability": "payable",
      "type": "function"
    },
    {
      "inputs": [
        {
          "internalType": "uint16",
          "name": "tokenId",
          "type": "uint16"
        }
      ],
      "name": "buyBackToken",
      "outputs": [],
      "stateMutability": "nonpayable",
      "type": "function"
    },
    {
      "inputs": [],
      "name": "finishAuction",
      "outputs": [],
      "stateMutability": "nonpayable",
      "type": "function"
    },
    {
      "inputs": [],
      "name": "finishMinting",
      "outputs": [],
      "stateMutability": "nonpayable",
      "type": "function"
    },
    {
      "inputs": [
        {
          "internalType": "uint256",
          "name": "tokenId",
          "type": "uint256"
        }
      ],
      "name": "getApproved",
      "outputs": [
        {
          "internalType": "address",
          "name": "",
          "type": "address"
        }
      ],
      "stateMutability": "view",
      "type": "function"
    },
    {
      "inputs": [
        {
          "internalType": "uint8",
          "name": "day",
          "type": "uint8"
        }
      ],
      "name": "getAuctionPrice",
      "outputs": [
        {
          "internalType": "uint256",
          "name": "",
          "type": "uint256"
        }
      ],
      "stateMutability": "view",
      "type": "function"
    },
    {
      "inputs": [
        {
          "components": [
            {
              "internalType": "uint256",
              "name": "START_PRICE",
              "type": "uint256"
            },
            {
              "internalType": "uint256",
              "name": "END_PRICE",
              "type": "uint256"
            },
            {
              "internalType": "uint256",
              "name": "AUCTION_DROP_INTERVAL",
              "type": "uint256"
            },
            {
              "internalType": "uint256",
              "name": "AUCTION_DROP_PER_STEP",
              "type": "uint256"
            }
          ],
          "internalType": "struct NFT.AuctionConfig[]",
          "name": "configs",
          "type": "tuple[]"
        }
      ],
      "name": "initializer",
      "outputs": [],
      "stateMutability": "nonpayable",
      "type": "function"
    },
    {
      "inputs": [
        {
          "internalType": "address",
          "name": "owner",
          "type": "address"
        },
        {
          "internalType": "address",
          "name": "operator",
          "type": "address"
        }
      ],
      "name": "isApprovedForAll",
      "outputs": [
        {
          "internalType": "bool",
          "name": "",
          "type": "bool"
        }
      ],
      "stateMutability": "view",
      "type": "function"
    },
    {
      "inputs": [],
      "name": "name",
      "outputs": [
        {
          "internalType": "string",
          "name": "",
          "type": "string"
        }
      ],
      "stateMutability": "view",
      "type": "function"
    },
    {
      "inputs": [],
      "name": "nextOwnerToExplicitlySet",
      "outputs": [
        {
          "internalType": "uint256",
          "name": "",
          "type": "uint256"
        }
      ],
      "stateMutability": "view",
      "type": "function"
    },
    {
      "inputs": [],
      "name": "owner",
      "outputs": [
        {
          "internalType": "address",
          "name": "",
          "type": "address"
        }
      ],
      "stateMutability": "view",
      "type": "function"
    },
    {
      "inputs": [
        {
          "internalType": "uint256",
          "name": "tokenId",
          "type": "uint256"
        }
      ],
      "name": "ownerOf",
      "outputs": [
        {
          "internalType": "address",
          "name": "",
          "type": "address"
        }
      ],
      "stateMutability": "view",
      "type": "function"
    },
    {
      "inputs": [
        {
          "internalType": "uint256",
          "name": "quantity",
          "type": "uint256"
        }
      ],
      "name": "publicMint",
      "outputs": [],
      "stateMutability": "payable",
      "type": "function"
    },
    {
      "inputs": [],
      "name": "renounceOwnership",
      "outputs": [],
      "stateMutability": "nonpayable",
      "type": "function"
    },
    {
      "inputs": [
        {
          "internalType": "string",
          "name": "ipfsCid",
          "type": "string"
        }
      ],
      "name": "revealArt",
      "outputs": [],
      "stateMutability": "nonpayable",
      "type": "function"
    },
    {
      "inputs": [
        {
          "internalType": "uint256",
          "name": "",
          "type": "uint256"
        },
        {
          "internalType": "uint256",
          "name": "value",
          "type": "uint256"
        }
      ],
      "name": "royaltyInfo",
      "outputs": [
        {
          "internalType": "address",
          "name": "receiver",
          "type": "address"
        },
        {
          "internalType": "uint256",
          "name": "royaltyAmount",
          "type": "uint256"
        }
      ],
      "stateMutability": "view",
      "type": "function"
    },
    {
      "inputs": [
        {
          "internalType": "address",
          "name": "from",
          "type": "address"
        },
        {
          "internalType": "address",
          "name": "to",
          "type": "address"
        },
        {
          "internalType": "uint256",
          "name": "tokenId",
          "type": "uint256"
        }
      ],
      "name": "safeTransferFrom",
      "outputs": [],
      "stateMutability": "nonpayable",
      "type": "function"
    },
    {
      "inputs": [
        {
          "internalType": "address",
          "name": "from",
          "type": "address"
        },
        {
          "internalType": "address",
          "name": "to",
          "type": "address"
        },
        {
          "internalType": "uint256",
          "name": "tokenId",
          "type": "uint256"
        },
        {
          "internalType": "bytes",
          "name": "_data",
          "type": "bytes"
        }
      ],
      "name": "safeTransferFrom",
      "outputs": [],
      "stateMutability": "nonpayable",
      "type": "function"
    },
    {
      "inputs": [
        {
          "internalType": "address",
          "name": "operator",
          "type": "address"
        },
        {
          "internalType": "bool",
          "name": "approved",
          "type": "bool"
        }
      ],
      "name": "setApprovalForAll",
      "outputs": [],
      "stateMutability": "nonpayable",
      "type": "function"
    },
    {
      "inputs": [
        {
          "internalType": "address",
          "name": "buyBackTreasury_",
          "type": "address"
        }
      ],
      "name": "setBuyBackTreasury",
      "outputs": [],
      "stateMutability": "nonpayable",
      "type": "function"
    },
    {
      "inputs": [
        {
          "internalType": "uint256",
          "name": "quantity",
          "type": "uint256"
        }
      ],
      "name": "setOwnersExplicit",
      "outputs": [],
      "stateMutability": "nonpayable",
      "type": "function"
    },
    {
      "inputs": [
        {
          "internalType": "address",
          "name": "platform_",
          "type": "address"
        }
      ],
      "name": "setPlatform",
      "outputs": [],
      "stateMutability": "nonpayable",
      "type": "function"
    },
    {
      "inputs": [
        {
          "internalType": "address",
          "name": "royaltyDistributerContract_",
          "type": "address"
        }
      ],
      "name": "setRoyaltyReciver",
      "outputs": [],
      "stateMutability": "nonpayable",
      "type": "function"
    },
    {
      "inputs": [
        {
          "internalType": "uint256",
          "name": "upgradeRequestFeeInWei_",
          "type": "uint256"
        }
      ],
      "name": "setUpgradeRequestFeeInWei",
      "outputs": [],
      "stateMutability": "nonpayable",
      "type": "function"
    },
    {
      "inputs": [],
      "name": "startPublicMinting",
      "outputs": [],
      "stateMutability": "nonpayable",
      "type": "function"
    },
    {
      "inputs": [],
      "name": "startWhiteListMinting",
      "outputs": [],
      "stateMutability": "nonpayable",
      "type": "function"
    },
    {
      "inputs": [
        {
          "internalType": "bytes4",
          "name": "interfaceId",
          "type": "bytes4"
        }
      ],
      "name": "supportsInterface",
      "outputs": [
        {
          "internalType": "bool",
          "name": "",
          "type": "bool"
        }
      ],
      "stateMutability": "view",
      "type": "function"
    },
    {
      "inputs": [],
      "name": "symbol",
      "outputs": [
        {
          "internalType": "string",
          "name": "",
          "type": "string"
        }
      ],
      "stateMutability": "view",
      "type": "function"
    },
    {
      "inputs": [
        {
          "internalType": "uint256",
          "name": "index",
          "type": "uint256"
        }
      ],
      "name": "tokenByIndex",
      "outputs": [
        {
          "internalType": "uint256",
          "name": "",
          "type": "uint256"
        }
      ],
      "stateMutability": "view",
      "type": "function"
    },
    {
      "inputs": [
        {
          "internalType": "address",
          "name": "owner",
          "type": "address"
        },
        {
          "internalType": "uint256",
          "name": "index",
          "type": "uint256"
        }
      ],
      "name": "tokenOfOwnerByIndex",
      "outputs": [
        {
          "internalType": "uint256",
          "name": "",
          "type": "uint256"
        }
      ],
      "stateMutability": "view",
      "type": "function"
    },
    {
      "inputs": [
        {
          "internalType": "uint256",
          "name": "tokenId_",
          "type": "uint256"
        }
      ],
      "name": "tokenURI",
      "outputs": [
        {
          "internalType": "string",
          "name": "",
          "type": "string"
        }
      ],
      "stateMutability": "view",
      "type": "function"
    },
    {
      "inputs": [],
      "name": "totalSupply",
      "outputs": [
        {
          "internalType": "uint256",
          "name": "",
          "type": "uint256"
        }
      ],
      "stateMutability": "view",
      "type": "function"
    },
    {
      "inputs": [
        {
          "internalType": "address",
          "name": "from",
          "type": "address"
        },
        {
          "internalType": "address",
          "name": "to",
          "type": "address"
        },
        {
          "internalType": "uint256",
          "name": "tokenId",
          "type": "uint256"
        }
      ],
      "name": "transferFrom",
      "outputs": [],
      "stateMutability": "nonpayable",
      "type": "function"
    },
    {
      "inputs": [
        {
          "internalType": "address",
          "name": "newOwner",
          "type": "address"
        }
      ],
      "name": "transferOwnership",
      "outputs": [],
      "stateMutability": "nonpayable",
      "type": "function"
    },
    {
      "inputs": [
        {
          "internalType": "string",
          "name": "ipfsCid",
          "type": "string"
        },
        {
          "internalType": "uint16",
          "name": "tokenId",
          "type": "uint16"
        },
        {
          "internalType": "bool",
          "name": "isGodNow",
          "type": "bool"
        }
      ],
      "name": "upgradeToken",
      "outputs": [],
      "stateMutability": "nonpayable",
      "type": "function"
    },
    {
      "inputs": [
        {
          "internalType": "uint16",
          "name": "tokenId",
          "type": "uint16"
        }
      ],
      "name": "upgradeTokenRequestFee",
      "outputs": [],
      "stateMutability": "payable",
      "type": "function"
    },
    {
      "inputs": [
        {
          "internalType": "address",
          "name": "addr_",
          "type": "address"
        },
        {
          "internalType": "uint8",
          "name": "maxQuantity_",
          "type": "uint8"
        },
        {
          "internalType": "uint64",
          "name": "quantity_",
          "type": "uint64"
        },
        {
          "internalType": "enum NFT.WhiteListType",
          "name": "whiteListType_",
          "type": "uint8"
        },
        {
          "internalType": "bytes",
          "name": "sig",
          "type": "bytes"
        }
      ],
      "name": "whitelistMinting",
      "outputs": [],
      "stateMutability": "payable",
      "type": "function"
    },
    {
      "stateMutability": "payable",
      "type": "receive"
    }
  ],
  "bytecode": "0x60a060405260006008553480156200001657600080fd5b50604051620054bb380380620054bb833981016040819052620000399162000464565b8451604080518082018252601181527044656d6d6f7274616c547265617375726560781b60208083019182528351808501909452600280855261111560f21b91850191909152825192939262000090929062000276565b508051620000a690600390602084019062000276565b50506000805550620000b88162000224565b506001600a5560f086901b6001600160f01b03191660809081526040805160c08101825260008082526020808301829052828401829052606080840183905283860183905260a093840192909252600c805465ffffffffffff191690558951600d80546001600160a01b03199081166001600160a01b03938416179091558b830151600e80548316918416919091179055948b0151600f80548716918316919091179055918a015160108054861691841691909117905593890151601180548516918316919091179055908801516012805490931691161790558451620001a6916013919087019062000276565b508251620001bc90601490602086019062000276565b50815160165560208201516017805461ffff90921661ffff19928316179055604083015160185560608301516019556080830151601a805460a09095015160ff9081166101000295909316929091169190911792909217909155600b55506200064192505050565b600980546001600160a01b038381166001600160a01b0319831681179093556040519116919082907f8be0079c531659141344cd1fd0a4f28419497f9722a3daafe3b4186f6b6457e090600090a35050565b8280546200028490620005ee565b90600052602060002090601f016020900481019282620002a85760008555620002f3565b82601f10620002c357805160ff1916838001178555620002f3565b82800160010185558215620002f3579182015b82811115620002f3578251825591602001919060010190620002d6565b506200030192915062000305565b5090565b5b8082111562000301576000815560010162000306565b80516001600160a01b03811681146200033457600080fd5b919050565b600082601f8301126200034a578081fd5b81516001600160401b038111156200036657620003666200062b565b60206200037c601f8301601f19168201620005bb565b828152858284870101111562000390578384fd5b835b83811015620003af57858101830151828201840152820162000392565b83811115620003c057848385840101525b5095945050505050565b600060c08284031215620003dc578081fd5b620003e662000590565b905081518152620003fa602083016200043f565b60208201526040820151604082015260608201516060820152620004216080830162000452565b60808201526200043460a0830162000452565b60a082015292915050565b805161ffff811681146200033457600080fd5b805160ff811681146200033457600080fd5b6000806000806000808688036102008112156200047f578283fd5b6200048a886200043f565b965060c0601f19820112156200049e578283fd5b50620004a962000590565b620004b7602089016200031c565b8152620004c7604089016200031c565b6020820152620004da606089016200031c565b6040820152620004ed608089016200031c565b60608201526200050060a089016200031c565b60808201526200051360c089016200031c565b60a082015260e08801519095506001600160401b038082111562000535578384fd5b620005438a838b0162000339565b95506101008901519150808211156200055a578384fd5b506200056989828a0162000339565b9350506200057c886101208901620003ca565b91506101e087015190509295509295509295565b60405160c081016001600160401b0381118282101715620005b557620005b56200062b565b60405290565b604051601f8201601f191681016001600160401b0381118282101715620005e657620005e66200062b565b604052919050565b600181811c908216806200060357607f821691505b602082108114156200062557634e487b7160e01b600052602260045260246000fd5b50919050565b634e487b7160e01b600052604160045260246000fd5b60805160f01c614e4d6200066e600039600081816106260152818161253e015261371c0152614e4d6000f3fe6080604052600436106103225760003560e01c8063688d260e116101a5578063a22cb465116100ec578063c4f1634d11610095578063d7224ba01161006f578063d7224ba014610b0b578063e985e9c514610b21578063f13d48cb14610b6a578063f2fde38b14610b8a57610362565b8063c4f1634d14610ab8578063c87b56dd14610acb578063d0b50d8e14610aeb57610362565b8063b88d4fde116100c6578063b88d4fde14610a01578063b9143eb214610a21578063c486456c14610a3457610362565b8063a22cb46514610931578063a507746014610951578063b51ce63d1461098057610362565b80638abbe9e61161014e57806397a9140c1161012857806397a9140c146108dc5780639da058e9146108fc578063a0a4a5a21461091157610362565b80638abbe9e6146108795780638da5cb5b146108a957806395d89b41146108c757610362565b8063715018a61161017f578063715018a61461082f5780637d64bcb414610844578063895145431461085957610362565b8063688d260e146107d95780636945c5ea146107ef57806370a082311461080f57610362565b80632fa3ce7d116102695780634f6ccce71161021257806361a0dedc116101ec57806361a0dedc146107395780636352211e146107a657806364b1152f146107c657610362565b80634f6ccce7146106d557806354353219146106f557806360dc13a91461071957610362565b8063430ca46f11610243578063430ca46f1461067b57806348c3e15d146106905780634c0e123b146106c057610362565b80632fa3ce7d146105f457806332cb6b0c1461061457806342842e0e1461065b57610362565b80631db16f20116102cb5780632d20fb60116102a55780632d20fb60146105a15780632db11544146105c15780632f745c59146105d457610362565b80631db16f201461052257806323b872dd146105425780632a55205a1461056257610362565b8063081812fc116102fc578063081812fc146104a5578063095ea7b3146104dd57806318160ddd146104ff57610362565b806301ffc9a7146103aa578063045cd554146103df57806306fdde031461048357610362565b366103625760405162461bcd60e51b815260206004820152600b60248201526a139bdd08105b1b1bddd95960aa1b60448201526064015b60405180910390fd5b60405162461bcd60e51b815260206004820152601360248201527f43616c6c2056616c69642046756e6374696f6e000000000000000000000000006044820152606401610359565b3480156103b657600080fd5b506103ca6103c53660046148ba565b610baa565b60405190151581526020015b60405180910390f35b3480156103eb57600080fd5b506104426103fa366004614a39565b601f602052600090815260409020805460018201546002830154600384015460048501546005860154600687015460079097015460ff96871697959694959394929391921688565b6040805160ff90991689526020890197909752958701949094526060860192909252608085015260a084015260c0830152151560e0820152610100016103d6565b34801561048f57600080fd5b50610498610c32565b6040516103d69190614bf9565b3480156104b157600080fd5b506104c56104c0366004614a00565b610cc4565b6040516001600160a01b0390911681526020016103d6565b3480156104e957600080fd5b506104fd6104f8366004614763565b610d08565b005b34801561050b57600080fd5b50600154600054035b6040519081526020016103d6565b34801561052e57600080fd5b506104fd61053d366004614925565b610d96565b34801561054e57600080fd5b506104fd61055d366004614686565b611011565b34801561056e57600080fd5b5061058261057d366004614a18565b61101c565b604080516001600160a01b0390931683526020830191909152016103d6565b3480156105ad57600080fd5b506104fd6105bc366004614a00565b611057565b6104fd6105cf366004614a00565b6110c0565b3480156105e057600080fd5b506105146105ef366004614763565b6111e6565b34801561060057600080fd5b506104fd61060f3660046149e6565b611385565b34801561062057600080fd5b506106487f000000000000000000000000000000000000000000000000000000000000000081565b60405161ffff90911681526020016103d6565b34801561066757600080fd5b506104fd610676366004614686565b6114eb565b34801561068757600080fd5b506104fd611506565b34801561069c57600080fd5b506103ca6106ab3660046149e6565b601c6020526000908152604090205460ff1681565b3480156106cc57600080fd5b506104fd61163c565b3480156106e157600080fd5b506105146106f0366004614a00565b611775565b34801561070157600080fd5b5061070a6117e2565b6040516103d693929190614c0c565b34801561072557600080fd5b50610514610734366004614a39565b611990565b34801561074557600080fd5b50601654601754601854601954601a54610770949361ffff1692919060ff8082169161010090041686565b6040805196875261ffff909516602087015293850192909252606084015260ff90811660808401521660a082015260c0016103d6565b3480156107b257600080fd5b506104c56107c1366004614a00565b611acb565b6104fd6107d43660046149e6565b611add565b3480156107e557600080fd5b50610514600b5481565b3480156107fb57600080fd5b506104fd61080a366004614643565b611cc2565b34801561081b57600080fd5b5061051461082a366004614643565b611d36565b34801561083b57600080fd5b506104fd611d85565b34801561085057600080fd5b506104fd611dd9565b34801561086557600080fd5b506104fd6108743660046148f2565b611ed7565b34801561088557600080fd5b506103ca6108943660046149e6565b601e6020526000908152604090205460ff1681565b3480156108b557600080fd5b506009546001600160a01b03166104c5565b3480156108d357600080fd5b50610498611fe5565b3480156108e857600080fd5b506104fd6108f736600461484a565b611ff4565b34801561090857600080fd5b506104fd612200565b34801561091d57600080fd5b506104fd61092c366004614643565b612350565b34801561093d57600080fd5b506104fd61094c36600461473a565b6123c4565b34801561095d57600080fd5b506103ca61096c366004614a00565b602080526000908152604090205460ff1681565b34801561098c57600080fd5b50600d54600e54600f546010546011546012546109bf956001600160a01b03908116958116948116938116928116911686565b604080516001600160a01b03978816815295871660208701529386169385019390935290841660608401528316608083015290911660a082015260c0016103d6565b348015610a0d57600080fd5b506104fd610a1c3660046146c1565b61245a565b6104fd610a2f36600461478c565b6124ab565b348015610a4057600080fd5b50600c54610a7f9060ff808216916101008104821691620100008204811691630100000081048216916401000000008204811691600160281b90041686565b604080519615158752941515602087015292151593850193909352151560608401529015156080830152151560a082015260c0016103d6565b6104fd610ac6366004614a39565b61272d565b348015610ad757600080fd5b50610498610ae6366004614a00565b612a89565b348015610af757600080fd5b506104fd610b06366004614a00565b612b9f565b348015610b1757600080fd5b5061051460085481565b348015610b2d57600080fd5b506103ca610b3c36600461465d565b6001600160a01b03918216600090815260076020908152604080832093909416825291909152205460ff1690565b348015610b7657600080fd5b506104fd610b85366004614643565b612c81565b348015610b9657600080fd5b506104fd610ba5366004614643565b612d3f565b60006001600160e01b031982166380ac58cd60e01b1480610bdb57506001600160e01b03198216635b5e139f60e01b145b80610bf657506001600160e01b0319821663780e9d6360e01b145b80610c1157506001600160e01b0319821663152a902d60e11b145b80610c2c57506301ffc9a760e01b6001600160e01b03198316145b92915050565b606060028054610c4190614d1b565b80601f0160208091040260200160405190810160405280929190818152602001828054610c6d90614d1b565b8015610cba5780601f10610c8f57610100808354040283529160200191610cba565b820191906000526020600020905b815481529060010190602001808311610c9d57829003601f168201915b5050505050905090565b6000610ccf82612df5565b610cec576040516333d1c03960e21b815260040160405180910390fd5b506000908152600660205260409020546001600160a01b031690565b6000610d1382611acb565b9050806001600160a01b0316836001600160a01b03161415610d485760405163250fdee360e21b815260040160405180910390fd5b336001600160a01b03821614801590610d685750610d668133610b3c565b155b15610d86576040516367d9dca160e11b815260040160405180910390fd5b610d91838383612e20565b505050565b600c54600160281b900460ff16610dde5760405162461bcd60e51b815260206004820152600c60248201526b139bdd08119a5b9a5cda195960a21b6044820152606401610359565b600c5460ff16610e225760405162461bcd60e51b815260206004820152600f60248201526e139bdd08125b9a5d1a585b1a5e9959608a1b6044820152606401610359565b6009546001600160a01b03163314610e6a5760405162461bcd60e51b81526020600482018190526024820152600080516020614df88339815191526044820152606401610359565b61ffff82166000908152601e6020526040902054829060ff1615610ebe5760405162461bcd60e51b815260206004820152600b60248201526a4f6e6c792048756d616e7360a81b6044820152606401610359565b835180610efc5760405162461bcd60e51b815260206004820152600c60248201526b43494420697320656d70747960a01b6044820152606401610359565b61ffff8416600090815260208052604090205460ff16610f5e5760405162461bcd60e51b815260206004820152601c60248201527f55706772616465205265717565737420466565204e6f742050616964000000006044820152606401610359565b61ffff8416600090815260208080526040808320805460ff19169055601d82529091208651610f8f928801906144cd565b5061ffff84166000908152601c60205260409020805460ff191660011790558215610fd35761ffff84166000908152601e60205260409020805460ff191660011790555b60405161ffff851681527f02375e2ab6ce816f82cbad1e57b14c842f3079a43885dcdfbdbebec69baee0c29060200160405180910390a15050505050565b610d91838383612e7c565b601b546001600160a01b0381169060009060649061104490600160a01b900460ff1685614cb9565b61104e9190614ca5565b90509250929050565b6002600a5414156110aa5760405162461bcd60e51b815260206004820152601f60248201527f5265656e7472616e637947756172643a207265656e7472616e742063616c6c006044820152606401610359565b6002600a556110b881613091565b506001600a55565b600c546301000000900460ff166111095760405162461bcd60e51b815260206004820152600d60248201526c139bdd081058dd1a5d985d1959609a1b6044820152606401610359565b60175461ffff168161111a33613276565b6111249190614c45565b11156111725760405162461bcd60e51b815260206004820152601f60248201527f5265636569766520546f204d6178204d696e74205065722041646472657373006044820152606401610359565b60165434906111819083614cb9565b11156111c35760405162461bcd60e51b81526020600482015260116024820152702737ba1022b737bab3b4399022ba3432b960791b6044820152606401610359565b6111cd33826132d1565b6010546111e3906001600160a01b0316346132eb565b50565b60006111f183611d36565b821061124a5760405162461bcd60e51b815260206004820152602260248201527f455243373231413a206f776e657220696e646578206f7574206f6620626f756e604482015261647360f01b6064820152608401610359565b60006112596001546000540390565b905060008060005b8381101561131657600081815260046020908152604091829020825160608101845290546001600160a01b038116808352600160a01b820467ffffffffffffffff1693830193909352600160e01b900460ff16151592810192909252156112c757805192505b876001600160a01b0316836001600160a01b0316141561130357868414156112f557509350610c2c92505050565b836112ff81614d50565b9450505b508061130e81614d50565b915050611261565b5060405162461bcd60e51b815260206004820152602e60248201527f455243373231413a20756e61626c6520746f2067657420746f6b656e206f662060448201527f6f776e657220627920696e6465780000000000000000000000000000000000006064820152608401610359565b61ffff81166000908152601e6020526040902054819060ff16156113d95760405162461bcd60e51b815260206004820152600b60248201526a4f6e6c792048756d616e7360a81b6044820152606401610359565b6002600a54141561142c5760405162461bcd60e51b815260206004820152601f60248201527f5265656e7472616e637947756172643a207265656e7472616e742063616c6c006044820152606401610359565b6002600a5561143e61ffff8316612df5565b61147d5760405162461bcd60e51b815260206004820152601060248201526f546f6b656e204e6f742045786973747360801b6044820152606401610359565b600061148c8361ffff1661338e565b80519091506001600160a01b031633146114d45760405162461bcd60e51b81526020600482015260096024820152682737ba1027bbb732b960b91b6044820152606401610359565b6114e18361ffff166134aa565b50506001600a5550565b610d918383836040518060200160405280600081525061245a565b600f546001600160a01b031633146115575760405162461bcd60e51b815260206004820152601460248201527327b7363c902222a1a2a72a2920a62faa24aa20a760611b6044820152606401610359565b600c54600160281b900460ff16156115a45760405162461bcd60e51b815260206004820152601060248201526f105b1c9958591e48119a5b9a5cda195960821b6044820152606401610359565b600c5460ff166115e85760405162461bcd60e51b815260206004820152600f60248201526e139bdd08125b9a5d1a585b1a5e9959608a1b6044820152606401610359565b600c54610100900460ff1661162f5760405162461bcd60e51b815260206004820152600d60248201526c139bdd081058dd1a5d985d1959609a1b6044820152606401610359565b600c805461ff0019169055565b6009546001600160a01b031633146116845760405162461bcd60e51b81526020600482018190526024820152600080516020614df88339815191526044820152606401610359565b600c5460ff166116c85760405162461bcd60e51b815260206004820152600f60248201526e139bdd08125b9a5d1a585b1a5e9959608a1b6044820152606401610359565b600c54600160281b900460ff16156117155760405162461bcd60e51b815260206004820152601060248201526f105b1c9958591e48119a5b9a5cda195960821b6044820152606401610359565b600c5462010000900460ff16156117625760405162461bcd60e51b8152602060048201526011602482015270105b1c9958591e481058dd1a5d985d1959607a1b6044820152606401610359565b600c805462ff0000191662010000179055565b60006117846001546000540390565b82106117de5760405162461bcd60e51b815260206004820152602360248201527f455243373231413a20676c6f62616c20696e646578206f7574206f6620626f756044820152626e647360e81b6064820152608401610359565b5090565b6013805481906117f190614d1b565b80601f016020809104026020016040519081016040528092919081815260200182805461181d90614d1b565b801561186a5780601f1061183f5761010080835404028352916020019161186a565b820191906000526020600020905b81548152906001019060200180831161184d57829003601f168201915b50505050509080600101805461187f90614d1b565b80601f01602080910402602001604051908101604052809291908181526020018280546118ab90614d1b565b80156118f85780601f106118cd576101008083540402835291602001916118f8565b820191906000526020600020905b8154815290600101906020018083116118db57829003601f168201915b50505050509080600201805461190d90614d1b565b80601f016020809104026020016040519081016040528092919081815260200182805461193990614d1b565b80156119865780601f1061195b57610100808354040283529160200191611986565b820191906000526020600020905b81548152906001019060200180831161196957829003601f168201915b5050505050905083565b600c54600090610100900460ff166119da5760405162461bcd60e51b815260206004820152600d60248201526c139bdd081058dd1a5d985d1959609a1b6044820152606401610359565b8160ff166001111580156119f75750601a5460ff90811690831611155b611a435760405162461bcd60e51b815260206004820152601360248201527f646179206973206f7574206f662072616e6765000000000000000000000000006044820152606401610359565b60ff8083166000908152601f60209081526040918290208251610100810184528154851681526001820154928101929092526002810154928201929092526003820154606082015260048201546080820152600582015460a0820152600682015460c0820152600790910154909116151560e0820152611ac281613649565b9150505b919050565b6000611ad68261338e565b5192915050565b600c54600160281b900460ff16611b255760405162461bcd60e51b815260206004820152600c60248201526b139bdd08119a5b9a5cda195960a21b6044820152606401610359565b600c5460ff16611b695760405162461bcd60e51b815260206004820152600f60248201526e139bdd08125b9a5d1a585b1a5e9959608a1b6044820152606401610359565b61ffff81166000908152601e6020526040902054819060ff1615611bbd5760405162461bcd60e51b815260206004820152600b60248201526a4f6e6c792048756d616e7360a81b6044820152606401610359565b611bca8261ffff16612df5565b611c095760405162461bcd60e51b815260206004820152601060248201526f546f6b656e204e6f742045786973747360801b6044820152606401610359565b34600b541115611c4f5760405162461bcd60e51b81526020600482015260116024820152702737ba1022b737bab3b4399022ba3432b960791b6044820152606401610359565b61ffff821660009081526020805260409020805460ff19166001179055600e54611c82906001600160a01b0316346132eb565b6040805161ffff841681523460208201527f0154c2dfb98437384198b52913095489510f87da0fcc18a7a76717706e1d0085910160405180910390a15050565b600e546001600160a01b03163314611d145760405162461bcd60e51b81526020600482015260156024820152744f6e6c7920506c6174666f726d204164647265737360581b6044820152606401610359565b600e80546001600160a01b0319166001600160a01b0392909216919091179055565b60006001600160a01b038216611d5f576040516323d3ad8160e21b815260040160405180910390fd5b506001600160a01b031660009081526005602052604090205467ffffffffffffffff1690565b6009546001600160a01b03163314611dcd5760405162461bcd60e51b81526020600482018190526024820152600080516020614df88339815191526044820152606401610359565b611dd760006136c2565b565b600f546001600160a01b03163314611e2a5760405162461bcd60e51b815260206004820152601460248201527327b7363c902222a1a2a72a2920a62faa24aa20a760611b6044820152606401610359565b600c54600160281b900460ff1615611e775760405162461bcd60e51b815260206004820152601060248201526f105b1c9958591e48119a5b9a5cda195960821b6044820152606401610359565b600c546301000000900460ff16611ec05760405162461bcd60e51b815260206004820152600d60248201526c139bdd081058dd1a5d985d1959609a1b6044820152606401610359565b600c805465ff00ffffff001916600160281b179055565b6009546001600160a01b03163314611f1f5760405162461bcd60e51b81526020600482018190526024820152600080516020614df88339815191526044820152606401610359565b600c54640100000000900460ff1615611f7a5760405162461bcd60e51b815260206004820152601060248201527f416c72656164792052657665616c6564000000000000000000000000000000006044820152606401610359565b805180611fb85760405162461bcd60e51b815260206004820152600c60248201526b43494420497320456d70747960a01b6044820152606401610359565b8151611fcb9060159060208501906144cd565b5050600c805464ff00000000191664010000000017905550565b606060038054610c4190614d1b565b6009546001600160a01b0316331461203c5760405162461bcd60e51b81526020600482018190526024820152600080516020614df88339815191526044820152606401610359565b600c5460ff161561208f5760405162461bcd60e51b815260206004820152601360248201527f416c726561647920496e697469616c697a6564000000000000000000000000006044820152606401610359565b600c54600160281b900460ff16156120dc5760405162461bcd60e51b815260206004820152601060248201526f105b1c9958591e48119a5b9a5cda195960821b6044820152606401610359565b600c54610100900460ff16156121285760405162461bcd60e51b8152602060048201526011602482015270105b1c9958591e481058dd1a5d985d1959607a1b6044820152606401610359565b600c805460ff191660011790556040805160208084028201810190925282815261218e9184908490819060009085015b828210156121845761217560808302860136819003810190614981565b81526020019060010190612158565b5050505050613714565b5050600c805461ff001916610100908117909155601254601a54604080518082019091526001600160a01b0390921680835292900460ff166020909101819052601b8054600160a01b90920274ffffffffffffffffffffffffffffffffffffffffff19909216909217179055565b5050565b6009546001600160a01b031633146122485760405162461bcd60e51b81526020600482018190526024820152600080516020614df88339815191526044820152606401610359565b600c54600160281b900460ff16156122955760405162461bcd60e51b815260206004820152601060248201526f105b1c9958591e48119a5b9a5cda195960821b6044820152606401610359565b600c546301000000900460ff16156122e35760405162461bcd60e51b8152602060048201526011602482015270105b1c9958591e481058dd1a5d985d1959607a1b6044820152606401610359565b600c5462010000900460ff1661233b5760405162461bcd60e51b815260206004820152600e60248201527f5072696f726974792049737375650000000000000000000000000000000000006044820152606401610359565b600c805463ff00000019166301000000179055565b600e546001600160a01b031633146123a25760405162461bcd60e51b81526020600482015260156024820152744f6e6c7920506c6174666f726d204164647265737360581b6044820152606401610359565b601080546001600160a01b0319166001600160a01b0392909216919091179055565b6001600160a01b0382163314156123ee5760405163b06307db60e01b815260040160405180910390fd5b3360008181526007602090815260408083206001600160a01b03871680855290835292819020805460ff191686151590811790915590519081529192917f17307eab39ab6107e8899845ad3d59bd9653f200f220920489ca2b5937696c31910160405180910390a35050565b612465848484612e7c565b6001600160a01b0383163b15158015612487575061248584848484613a76565b155b156124a5576040516368d2bf6b60e11b815260040160405180910390fd5b50505050565b600c5462010000900460ff166124f35760405162461bcd60e51b815260206004820152600d60248201526c139bdd081058dd1a5d985d1959609a1b6044820152606401610359565b6125008686858585613b6d565b61253c5760405162461bcd60e51b815260206004820152600d60248201526c426164205369676e617475726560981b6044820152606401610359565b7f000000000000000000000000000000000000000000000000000000000000000061ffff168467ffffffffffffffff1661257560005490565b61257f9190614c45565b11156125c45760405162461bcd60e51b815260206004820152601460248201527352656369766520546f204d617820537570706c7960601b6044820152606401610359565b60006125cf87613c4a565b905060ff86166125df8683614c5d565b67ffffffffffffffff1611156126375760405162461bcd60e51b815260206004820152601760248201527f5265636569766520546f204d6178205175616e746974790000000000000000006044820152606401610359565b600184600181111561265957634e487b7160e01b600052602160045260246000fd5b141561268b576126728761266d8784614c5d565b613ca0565b612686878667ffffffffffffffff166132d1565b612708565b60165434906126a49067ffffffffffffffff8816614cb9565b11156126e65760405162461bcd60e51b81526020600482015260116024820152702737ba1022b737bab3b4399022ba3432b960791b6044820152606401610359565b6126f48761266d8784614c5d565b612708878667ffffffffffffffff166132d1565b341561272457601054612724906001600160a01b0316346132eb565b50505050505050565b600c54610100900460ff166127745760405162461bcd60e51b815260206004820152600d60248201526c139bdd081058dd1a5d985d1959609a1b6044820152606401610359565b8060ff166001111580156127915750601a5460ff90811690821611155b6127dd5760405162461bcd60e51b815260206004820152601360248201527f446179204973204f7574204f662052616e6765000000000000000000000000006044820152606401610359565b60ff81166000908152601f60205260409020600101544210156128425760405162461bcd60e51b815260206004820152600f60248201527f4e6f7420537461727465642059657400000000000000000000000000000000006044820152606401610359565b60ff81166000908152601f60205260409020600201544211156128915760405162461bcd60e51b8152602060048201526007602482015266115e1c1a5c995960ca1b6044820152606401610359565b60ff8082166000908152601f60209081526040808320815161010081018352815486168082526001830154948201949094526002820154928101929092526003810154606083015260048101546080830152600581015460a0830152600681015460c083015260070154909316151560e084015261290e9061338e565b90508160e00151156129515760405162461bcd60e51b815260206004820152600c60248201526b105b1c9958591e4814dbdb1960a21b6044820152606401610359565b600f5481516001600160a01b039081169116146129a55760405162461bcd60e51b81526020600482015260126024820152712130b21024b734ba34b0b634bd30ba34b7b760711b6044820152606401610359565b60006129b083613649565b90508260800151811115612a065760405162461bcd60e51b815260206004820152601560248201527f5265636569766520546f204261736520507269636500000000000000000000006044820152606401610359565b34811115612a565760405162461bcd60e51b815260206004820152601060248201527f4e6f7420456e6f756768204574686572000000000000000000000000000000006044820152606401610359565b600f548351612a73916001600160a01b031690339060ff16611011565b600e546124a5906001600160a01b0316346132eb565b6060612a9482612df5565b612ad35760405162461bcd60e51b815260206004820152601060248201526f546f6b656e204e6f742045786973747360801b6044820152606401610359565b61ffff82166000908152601c6020526040902054829060ff1615612b2c5761ffff81166000908152601d60209081526040918290209151612b15929101614b8c565b604051602081830303815290604052915050919050565b61ffff81166000908152601e602052604090205460ff1615612b68576013612b5761ffff8316613d18565b604051602001612b15929190614b98565b600c54640100000000900460ff1615612b8a576015612b5761ffff8316613d18565b6014612b5761ffff8316613d18565b50919050565b600f546001600160a01b03163314612bf05760405162461bcd60e51b815260206004820152601460248201527327b7363c902222a1a2a72a2920a62faa24aa20a760611b6044820152606401610359565b600c54600160281b900460ff16612c385760405162461bcd60e51b815260206004820152600c60248201526b139bdd08119a5b9a5cda195960a21b6044820152606401610359565b600c5460ff16612c7c5760405162461bcd60e51b815260206004820152600f60248201526e139bdd08125b9a5d1a585b1a5e9959608a1b6044820152606401610359565b600b55565b600e546001600160a01b03163314612cd35760405162461bcd60e51b81526020600482015260156024820152744f6e6c7920506c6174666f726d204164647265737360581b6044820152606401610359565b601280546001600160a01b0319166001600160a01b038316908117909155601a546040805180820190915282815261010090910460ff166020909101819052601b805474ffffffffffffffffffffffffffffffffffffffffff1916909217600160a01b90910217905550565b6009546001600160a01b03163314612d875760405162461bcd60e51b81526020600482018190526024820152600080516020614df88339815191526044820152606401610359565b6001600160a01b038116612dec5760405162461bcd60e51b815260206004820152602660248201527f4f776e61626c653a206e6577206f776e657220697320746865207a65726f206160448201526564647265737360d01b6064820152608401610359565b6111e3816136c2565b6000805482108015610c2c575050600090815260046020526040902054600160e01b900460ff161590565b60008281526006602052604080822080546001600160a01b0319166001600160a01b0387811691821790925591518593918516917f8c5be1e5ebec7d5bd14f71427d1e84f3dd0314c0f7b2291e5b200ac8c7c3b92591a4505050565b6000612e878261338e565b80519091506000906001600160a01b0316336001600160a01b03161480612eb557508151612eb59033610b3c565b80612ed0575033612ec584610cc4565b6001600160a01b0316145b905080612ef057604051632ce44b5f60e11b815260040160405180910390fd5b846001600160a01b031682600001516001600160a01b031614612f255760405162a1148160e81b815260040160405180910390fd5b6001600160a01b038416612f4c57604051633a954ecd60e21b815260040160405180910390fd5b612f5c6000848460000151612e20565b6001600160a01b038581166000908152600560209081526040808320805467ffffffffffffffff1980821667ffffffffffffffff92831660001901831617909255898616808652838620805493841693831660019081018416949094179055898652600490945282852080546001600160e01b031916909417600160a01b42909216919091021790925590860180835291205490911661304857600054811015613048578251600082815260046020908152604090912080549186015167ffffffffffffffff16600160a01b026001600160e01b03199092166001600160a01b03909316929092171790555b5082846001600160a01b0316866001600160a01b03167fddf252ad1be2c89b69c2b068fc378daa952ba7f163c4a11628f55a4df523b3ef60405160405180910390a45050505050565b600854816130e15760405162461bcd60e51b815260206004820152601860248201527f7175616e74697479206d757374206265206e6f6e7a65726f00000000000000006044820152606401610359565b600060016130ef8484614c45565b6130f99190614cd8565b9050600161310660005490565b6131109190614cd8565b81111561312f57600161312260005490565b61312c9190614cd8565b90505b61313881612df5565b6131935760405162461bcd60e51b815260206004820152602660248201527f6e6f7420656e6f756768206d696e7465642079657420666f722074686973206360448201526506c65616e75760d41b6064820152608401610359565b815b818111613262576000818152600460205260409020546001600160a01b03166132505760006131c38261338e565b6040805160608101825282516001600160a01b03908116825260208085015167ffffffffffffffff908116828501908152958501511515848601908152600089815260049093529490912092518354955194511515600160e01b0260ff60e01b1995909216600160a01b026001600160e01b03199096169216919091179390931791909116919091179055505b8061325a81614d50565b915050613195565b5061326e816001614c45565b600855505050565b60006001600160a01b03821661329f576040516335ebb31960e01b815260040160405180910390fd5b506001600160a01b031660009081526005602052604090205468010000000000000000900467ffffffffffffffff1690565b6121fc828260405180602001604052806000815250613e4a565b60405182906000906001600160a01b0383169084908381818185875af1925050503d8060008114613338576040519150601f19603f3d011682016040523d82523d6000602084013e61333d565b606091505b50509050806124a55760405162461bcd60e51b815260206004820152600f60248201527f5472616e73666572204661696c656400000000000000000000000000000000006044820152606401610359565b60408051606081018252600080825260208201819052918101919091528160005481101561349157600081815260046020908152604091829020825160608101845290546001600160a01b0381168252600160a01b810467ffffffffffffffff1692820192909252600160e01b90910460ff1615159181018290529061348f5780516001600160a01b031615613425579392505050565b5060001901600081815260046020908152604091829020825160608101845290546001600160a01b038116808352600160a01b820467ffffffffffffffff1693830193909352600160e01b900460ff161515928101929092521561348a579392505050565b613425565b505b604051636f96cda160e11b815260040160405180910390fd5b60006134b58261338e565b90506134c76000838360000151612e20565b80516001600160a01b039081166000908152600560209081526040808320805467ffffffffffffffff19811667ffffffffffffffff9182166000190182161790915585518516845281842080547fffffffffffffffff0000000000000000ffffffffffffffffffffffffffffffff81167001000000000000000000000000000000009182900484166001908101851690920217909155865188865260049094528285208054600160e01b9588166001600160e01b031990911617600160a01b42909416939093029290921760ff60e01b191693909317905590850180835291205490911661360157600054811015613601578151600082815260046020908152604090912080549185015167ffffffffffffffff16600160a01b026001600160e01b03199092166001600160a01b03909316929092171790555b50805160405183916000916001600160a01b03909116907fddf252ad1be2c89b69c2b068fc378daa952ba7f163c4a11628f55a4df523b3ef908390a450506001805481019055565b6000816020015142101561365f57506060015190565b816040015142111561367357506080015190565b60008260200151426136859190614cd8565b905060008360a00151826136999190614ca5565b90508360c00151816136ab9190614cb9565b84606001516136ba9190614cd8565b949350505050565b600980546001600160a01b038381166001600160a01b0319831681179093556040519116919082907f8be0079c531659141344cd1fd0a4f28419497f9722a3daafe3b4186f6b6457e090600090a35050565b601a5461ffff7f0000000000000000000000000000000000000000000000000000000000000000169060ff1661374960005490565b6137539190614c45565b11156137985760405162461bcd60e51b815260206004820152601460248201527352656369766520546f204d617820537570706c7960601b6044820152606401610359565b601a54815160ff909116146137ef5760405162461bcd60e51b815260206004820152601260248201527f42616420436f6e66696773204c656e67746800000000000000000000000000006044820152606401610359565b600f54601a5461380b916001600160a01b03169060ff166132d1565b601a5460ff1661381a60005490565b1461385c5760405162461bcd60e51b81526020600482015260126024820152712130b21024b734ba34b0b634bd30ba34b7b760711b6044820152606401610359565b60005b601a5460ff90811690821610156121fc5760006040518061010001604052808360ff1681526020018360ff1660166003015461389b9190614cb9565b6018546138a89190614c45565b81526020016138b8846001614c80565b6019546138c89160ff1690614cb9565b6018546138d59190614c45565b8152602001848460ff16815181106138fd57634e487b7160e01b600052603260045260246000fd5b6020026020010151600001518152602001848460ff168151811061393157634e487b7160e01b600052603260045260246000fd5b6020026020010151602001518152602001848460ff168151811061396557634e487b7160e01b600052603260045260246000fd5b6020026020010151604001518152602001848460ff168151811061399957634e487b7160e01b600052603260045260246000fd5b602002602001015160600151815260200160001515815250905080601f60008460016139c59190614c80565b60ff9081168252602080830193909352604091820160002084518154921660ff19928316178155928401516001840155908301516002830155606083015160038301556080830151600483015560a0830151600583015560c0830151600683015560e0909201516007909101805491151591909216179055613a4682613e57565b5060ff81166000908152601e60205260409020805460ff1916600117905580613a6e81614d6b565b91505061385f565b604051630a85bd0160e11b81526000906001600160a01b0385169063150b7a0290613aab903390899088908890600401614bbd565b602060405180830381600087803b158015613ac557600080fd5b505af1925050508015613af5575060408051601f3d908101601f19168201909252613af2918101906148d6565b60015b613b50573d808015613b23576040519150601f19603f3d011682016040523d82523d6000602084013e613b28565b606091505b508051613b48576040516368d2bf6b60e11b815260040160405180910390fd5b805181602001fd5b6001600160e01b031916630a85bd0160e11b149050949350505050565b6011546040516000916001600160a01b031690613c3690613bfa90613b9a908a908a908a90602001614b17565b60408051601f1981840301815282825280516020918201207f19457468657265756d205369676e6564204d6573736167653a0a33320000000084830152603c8085019190915282518085039091018152605c909301909152815191012090565b85858080601f016020809104026020016040519081016040528093929190818152602001838380828437600092019190915250613ee392505050565b6001600160a01b0316149695505050505050565b60006001600160a01b038216613c735760405163561b93dd60e11b815260040160405180910390fd5b506001600160a01b0316600090815260056020526040902054600160c01b900467ffffffffffffffff1690565b6001600160a01b038216613cc75760405163561b93dd60e11b815260040160405180910390fd5b6001600160a01b039091166000908152600560205260409020805467ffffffffffffffff909216600160c01b0277ffffffffffffffffffffffffffffffffffffffffffffffff909216919091179055565b606081613d3c5750506040805180820190915260018152600360fc1b602082015290565b8160005b8115613d665780613d5081614d50565b9150613d5f9050600a83614ca5565b9150613d40565b60008167ffffffffffffffff811115613d8f57634e487b7160e01b600052604160045260246000fd5b6040519080825280601f01601f191660200182016040528015613db9576020820181803683370190505b5090505b84156136ba57613dce600183614cd8565b9150613ddb600a86614d8b565b613de6906030614c45565b60f81b818381518110613e0957634e487b7160e01b600052603260045260246000fd5b60200101907effffffffffffffffffffffffffffffffffffffffffffffffffffffffffffff1916908160001a905350613e43600a86614ca5565b9450613dbd565b610d918383836001613f07565b6000613e658260ff1661338e565b600f5481519192506001600160a01b03918216911614613ec75760405162461bcd60e51b815260206004820152601860248201527f4a75737420466f7220444543454e5452414c5f544954414e00000000000000006044820152606401610359565b600f546121fc90309060ff8516906001600160a01b0316612e20565b6000806000613ef2858561411d565b91509150613eff8161418d565b509392505050565b6000546001600160a01b038516613f3057604051622e076360e81b815260040160405180910390fd5b83613f4e5760405163b562e8dd60e01b815260040160405180910390fd5b6001600160a01b038516600081815260056020908152604080832080546fffffffffffffffffffffffffffffffff19811667ffffffffffffffff8083168c0181169182176801000000000000000067ffffffffffffffff1990941690921783900481168c01811690920217909155858452600490925290912080546001600160e01b031916909217600160a01b42909216919091021790558080850183801561400057506001600160a01b0387163b15155b156140cc575b60405182906001600160a01b038916906000907fddf252ad1be2c89b69c2b068fc378daa952ba7f163c4a11628f55a4df523b3ef908290a46140516000888480600101955088613a76565b61406e576040516368d2bf6b60e11b815260040160405180910390fd5b808214156140065782600054146140c75760405162461bcd60e51b815260206004820152601560248201527f5265656e7472616e63792070726f74656374696f6e00000000000000000000006044820152606401610359565b614112565b5b6040516001830192906001600160a01b038916906000907fddf252ad1be2c89b69c2b068fc378daa952ba7f163c4a11628f55a4df523b3ef908290a4808214156140cd575b506000555050505050565b6000808251604114156141545760208301516040840151606085015160001a6141488782858561438e565b94509450505050614186565b82516040141561417e576020830151604084015161417386838361447b565b935093505050614186565b506000905060025b9250929050565b60008160048111156141af57634e487b7160e01b600052602160045260246000fd5b14156141b85750565b60018160048111156141da57634e487b7160e01b600052602160045260246000fd5b14156142285760405162461bcd60e51b815260206004820152601860248201527f45434453413a20696e76616c6964207369676e617475726500000000000000006044820152606401610359565b600281600481111561424a57634e487b7160e01b600052602160045260246000fd5b14156142985760405162461bcd60e51b815260206004820152601f60248201527f45434453413a20696e76616c6964207369676e6174757265206c656e677468006044820152606401610359565b60038160048111156142ba57634e487b7160e01b600052602160045260246000fd5b14156143135760405162461bcd60e51b815260206004820152602260248201527f45434453413a20696e76616c6964207369676e6174757265202773272076616c604482015261756560f01b6064820152608401610359565b600481600481111561433557634e487b7160e01b600052602160045260246000fd5b14156111e35760405162461bcd60e51b815260206004820152602260248201527f45434453413a20696e76616c6964207369676e6174757265202776272076616c604482015261756560f01b6064820152608401610359565b6000807f7fffffffffffffffffffffffffffffff5d576e7357a4501ddfe92f46681b20a08311156143c55750600090506003614472565b8460ff16601b141580156143dd57508460ff16601c14155b156143ee5750600090506004614472565b6040805160008082526020820180845289905260ff881692820192909252606081018690526080810185905260019060a0016020604051602081039080840390855afa158015614442573d6000803e3d6000fd5b5050604051601f1901519150506001600160a01b03811661446b57600060019250925050614472565b9150600090505b94509492505050565b6000807f7fffffffffffffffffffffffffffffffffffffffffffffffffffffffffffffff8316816144b160ff86901c601b614c45565b90506144bf8782888561438e565b935093505050935093915050565b8280546144d990614d1b565b90600052602060002090601f0160209004810192826144fb5760008555614541565b82601f1061451457805160ff1916838001178555614541565b82800160010185558215614541579182015b82811115614541578251825591602001919060010190614526565b506117de9291505b808211156117de5760008155600101614549565b600067ffffffffffffffff8084111561457857614578614dcb565b604051601f8501601f19908116603f011681019082821181831017156145a0576145a0614dcb565b816040528093508581528686860111156145b957600080fd5b858560208301376000602087830101525050509392505050565b80356001600160a01b0381168114611ac657600080fd5b80358015158114611ac657600080fd5b600082601f83011261460a578081fd5b6146198383356020850161455d565b9392505050565b803561ffff81168114611ac657600080fd5b803560ff81168114611ac657600080fd5b600060208284031215614654578081fd5b614619826145d3565b6000806040838503121561466f578081fd5b614678836145d3565b915061104e602084016145d3565b60008060006060848603121561469a578081fd5b6146a3846145d3565b92506146b1602085016145d3565b9150604084013590509250925092565b600080600080608085870312156146d6578081fd5b6146df856145d3565b93506146ed602086016145d3565b925060408501359150606085013567ffffffffffffffff81111561470f578182fd5b8501601f8101871361471f578182fd5b61472e8782356020840161455d565b91505092959194509250565b6000806040838503121561474c578182fd5b614755836145d3565b915061104e602084016145ea565b60008060408385031215614775578182fd5b61477e836145d3565b946020939093013593505050565b60008060008060008060a087890312156147a4578182fd5b6147ad876145d3565b95506147bb60208801614632565b9450604087013567ffffffffffffffff80821682146147d8578384fd5b909450606088013590600282106147ed578384fd5b90935060808801359080821115614802578384fd5b818901915089601f830112614815578384fd5b813581811115614823578485fd5b8a6020828501011115614834578485fd5b6020830194508093505050509295509295509295565b6000806020838503121561485c578182fd5b823567ffffffffffffffff80821115614873578384fd5b818501915085601f830112614886578384fd5b813581811115614894578485fd5b8660208260071b85010111156148a8578485fd5b60209290920196919550909350505050565b6000602082840312156148cb578081fd5b813561461981614de1565b6000602082840312156148e7578081fd5b815161461981614de1565b600060208284031215614903578081fd5b813567ffffffffffffffff811115614919578182fd5b6136ba848285016145fa565b600080600060608486031215614939578081fd5b833567ffffffffffffffff81111561494f578182fd5b61495b868287016145fa565b93505061496a60208501614620565b9150614978604085016145ea565b90509250925092565b600060808284031215614992578081fd5b6040516080810181811067ffffffffffffffff821117156149b5576149b5614dcb565b8060405250823581526020830135602082015260408301356040820152606083013560608201528091505092915050565b6000602082840312156149f7578081fd5b61461982614620565b600060208284031215614a11578081fd5b5035919050565b60008060408385031215614a2a578182fd5b50508035926020909101359150565b600060208284031215614a4a578081fd5b61461982614632565b60008151808452614a6b816020860160208601614cef565b601f01601f19169290920160200192915050565b8054600090600181811c9080831680614a9957607f831692505b6020808410821415614ab957634e487b7160e01b86526022600452602486fd5b818015614acd5760018114614ade57614b0b565b60ff19861689528489019650614b0b565b60008881526020902060005b86811015614b035781548b820152908501908301614aea565b505084890196505b50505050505092915050565b606084901b6bffffffffffffffffffffffff1916815260f883901b7fff00000000000000000000000000000000000000000000000000000000000000166014820152600060028310614b7757634e487b7160e01b81526021600452602481fd5b5060f89190911b601582015260160192915050565b60006146198284614a7f565b6000614ba48285614a7f565b8351614bb4818360208801614cef565b01949350505050565b60006001600160a01b03808716835280861660208401525083604083015260806060830152614bef6080830184614a53565b9695505050505050565b6020815260006146196020830184614a53565b606081526000614c1f6060830186614a53565b8281036020840152614c318186614a53565b90508281036040840152614bef8185614a53565b60008219821115614c5857614c58614d9f565b500190565b600067ffffffffffffffff808316818516808303821115614bb457614bb4614d9f565b600060ff821660ff84168060ff03821115614c9d57614c9d614d9f565b019392505050565b600082614cb457614cb4614db5565b500490565b6000816000190483118215151615614cd357614cd3614d9f565b500290565b600082821015614cea57614cea614d9f565b500390565b60005b83811015614d0a578181015183820152602001614cf2565b838111156124a55750506000910152565b600181811c90821680614d2f57607f821691505b60208210811415612b9957634e487b7160e01b600052602260045260246000fd5b6000600019821415614d6457614d64614d9f565b5060010190565b600060ff821660ff811415614d8257614d82614d9f565b60010192915050565b600082614d9a57614d9a614db5565b500690565b634e487b7160e01b600052601160045260246000fd5b634e487b7160e01b600052601260045260246000fd5b634e487b7160e01b600052604160045260246000fd5b6001600160e01b0319811681146111e357600080fdfe4f776e61626c653a2063616c6c6572206973206e6f7420746865206f776e6572a2646970667358221220dd976009fe2fde337f863eda4cb7047ecd9a4acc67fe6c369718861df89c363664736f6c63430008040033",
  "linkReferences": {},
  "deployedLinkReferences": {}
}