{
  "_format": "hh-sol-artifact-1",
  "contractName": "DTERC721A",
  "sourceName": "src/contracts/DTERC721A.sol",
  "abi": [
    {
      "inputs": [
        {
          "internalType": "string",
          "name": "name_",
          "type": "string"
        },
        {
          "internalType": "string",
          "name": "symbol_",
          "type": "string"
        }
      ],
      "stateMutability": "nonpayable",
      "type": "constructor"
    },
    {
      "inputs": [],
      "name": "ApprovalCallerNotOwnerNorApproved",
      "type": "error"
    },
    {
      "inputs": [],
      "name": "ApprovalQueryForNonexistentToken",
      "type": "error"
    },
    {
      "inputs": [],
      "name": "ApprovalToCurrentOwner",
      "type": "error"
    },
    {
      "inputs": [],
      "name": "ApproveToCaller",
      "type": "error"
    },
    {
      "inputs": [],
      "name": "BalanceQueryForZeroAddress",
      "type": "error"
    },
    {
      "inputs": [],
      "name": "OwnerQueryForNonexistentToken",
      "type": "error"
    },
    {
      "inputs": [],
      "name": "TransferCallerNotOwnerNorApproved",
      "type": "error"
    },
    {
      "inputs": [],
      "name": "TransferFromIncorrectOwner",
      "type": "error"
    },
    {
      "inputs": [],
      "name": "TransferToNonERC721ReceiverImplementer",
      "type": "error"
    },
    {
      "inputs": [],
      "name": "TransferToZeroAddress",
      "type": "error"
    },
    {
      "inputs": [],
      "name": "URIQueryForNonexistentToken",
      "type": "error"
    },
    {
      "anonymous": false,
      "inputs": [
        {
          "indexed": true,
          "internalType": "address",
          "name": "owner",
          "type": "address"
        },
        {
          "indexed": true,
          "internalType": "address",
          "name": "approved",
          "type": "address"
        },
        {
          "indexed": true,
          "internalType": "uint256",
          "name": "tokenId",
          "type": "uint256"
        }
      ],
      "name": "Approval",
      "type": "event"
    },
    {
      "anonymous": false,
      "inputs": [
        {
          "indexed": true,
          "internalType": "address",
          "name": "owner",
          "type": "address"
        },
        {
          "indexed": true,
          "internalType": "address",
          "name": "operator",
          "type": "address"
        },
        {
          "indexed": false,
          "internalType": "bool",
          "name": "approved",
          "type": "bool"
        }
      ],
      "name": "ApprovalForAll",
      "type": "event"
    },
    {
      "anonymous": false,
      "inputs": [
        {
          "indexed": true,
          "internalType": "address",
          "name": "from",
          "type": "address"
        },
        {
          "indexed": true,
          "internalType": "address",
          "name": "to",
          "type": "address"
        },
        {
          "indexed": true,
          "internalType": "uint256",
          "name": "tokenId",
          "type": "uint256"
        }
      ],
      "name": "Transfer",
      "type": "event"
    },
    {
      "inputs": [
        {
          "internalType": "address",
          "name": "to",
          "type": "address"
        },
        {
          "internalType": "uint256",
          "name": "tokenId",
          "type": "uint256"
        }
      ],
      "name": "approve",
      "outputs": [],
      "stateMutability": "nonpayable",
      "type": "function"
    },
    {
      "inputs": [
        {
          "internalType": "address",
          "name": "owner",
          "type": "address"
        }
      ],
      "name": "balanceOf",
      "outputs": [
        {
          "internalType": "uint256",
          "name": "",
          "type": "uint256"
        }
      ],
      "stateMutability": "view",
      "type": "function"
    },
    {
      "inputs": [
        {
          "internalType": "uint256",
          "name": "tokenId",
          "type": "uint256"
        }
      ],
      "name": "getApproved",
      "outputs": [
        {
          "internalType": "address",
          "name": "",
          "type": "address"
        }
      ],
      "stateMutability": "view",
      "type": "function"
    },
    {
      "inputs": [
        {
          "internalType": "address",
          "name": "owner",
          "type": "address"
        },
        {
          "internalType": "address",
          "name": "operator",
          "type": "address"
        }
      ],
      "name": "isApprovedForAll",
      "outputs": [
        {
          "internalType": "bool",
          "name": "",
          "type": "bool"
        }
      ],
      "stateMutability": "view",
      "type": "function"
    },
    {
      "inputs": [],
      "name": "name",
      "outputs": [
        {
          "internalType": "string",
          "name": "",
          "type": "string"
        }
      ],
      "stateMutability": "view",
      "type": "function"
    },
    {
      "inputs": [
        {
          "internalType": "uint256",
          "name": "tokenId",
          "type": "uint256"
        }
      ],
      "name": "ownerOf",
      "outputs": [
        {
          "internalType": "address",
          "name": "",
          "type": "address"
        }
      ],
      "stateMutability": "view",
      "type": "function"
    },
    {
      "inputs": [
        {
          "internalType": "address",
          "name": "from",
          "type": "address"
        },
        {
          "internalType": "address",
          "name": "to",
          "type": "address"
        },
        {
          "internalType": "uint256",
          "name": "tokenId",
          "type": "uint256"
        }
      ],
      "name": "safeTransferFrom",
      "outputs": [],
      "stateMutability": "nonpayable",
      "type": "function"
    },
    {
      "inputs": [
        {
          "internalType": "address",
          "name": "from",
          "type": "address"
        },
        {
          "internalType": "address",
          "name": "to",
          "type": "address"
        },
        {
          "internalType": "uint256",
          "name": "tokenId",
          "type": "uint256"
        },
        {
          "internalType": "bytes",
          "name": "_data",
          "type": "bytes"
        }
      ],
      "name": "safeTransferFrom",
      "outputs": [],
      "stateMutability": "nonpayable",
      "type": "function"
    },
    {
      "inputs": [
        {
          "internalType": "address",
          "name": "operator",
          "type": "address"
        },
        {
          "internalType": "bool",
          "name": "approved",
          "type": "bool"
        }
      ],
      "name": "setApprovalForAll",
      "outputs": [],
      "stateMutability": "nonpayable",
      "type": "function"
    },
    {
      "inputs": [
        {
          "internalType": "bytes4",
          "name": "interfaceId",
          "type": "bytes4"
        }
      ],
      "name": "supportsInterface",
      "outputs": [
        {
          "internalType": "bool",
          "name": "",
          "type": "bool"
        }
      ],
      "stateMutability": "view",
      "type": "function"
    },
    {
      "inputs": [],
      "name": "symbol",
      "outputs": [
        {
          "internalType": "string",
          "name": "",
          "type": "string"
        }
      ],
      "stateMutability": "view",
      "type": "function"
    },
    {
      "inputs": [
        {
          "internalType": "uint256",
          "name": "index",
          "type": "uint256"
        }
      ],
      "name": "tokenByIndex",
      "outputs": [
        {
          "internalType": "uint256",
          "name": "",
          "type": "uint256"
        }
      ],
      "stateMutability": "view",
      "type": "function"
    },
    {
      "inputs": [
        {
          "internalType": "address",
          "name": "owner",
          "type": "address"
        },
        {
          "internalType": "uint256",
          "name": "index",
          "type": "uint256"
        }
      ],
      "name": "tokenOfOwnerByIndex",
      "outputs": [
        {
          "internalType": "uint256",
          "name": "",
          "type": "uint256"
        }
      ],
      "stateMutability": "view",
      "type": "function"
    },
    {
      "inputs": [
        {
          "internalType": "uint256",
          "name": "tokenId",
          "type": "uint256"
        }
      ],
      "name": "tokenURI",
      "outputs": [
        {
          "internalType": "string",
          "name": "",
          "type": "string"
        }
      ],
      "stateMutability": "view",
      "type": "function"
    },
    {
      "inputs": [],
      "name": "totalSupply",
      "outputs": [
        {
          "internalType": "uint256",
          "name": "",
          "type": "uint256"
        }
      ],
      "stateMutability": "view",
      "type": "function"
    },
    {
      "inputs": [
        {
          "internalType": "address",
          "name": "from",
          "type": "address"
        },
        {
          "internalType": "address",
          "name": "to",
          "type": "address"
        },
        {
          "internalType": "uint256",
          "name": "tokenId",
          "type": "uint256"
        }
      ],
      "name": "transferFrom",
      "outputs": [],
      "stateMutability": "nonpayable",
      "type": "function"
    }
  ],
  "bytecode": "0x60806040523480156200001157600080fd5b5060405162001550380380620015508339810160408190526200003491620001c5565b8151620000499060029060208501906200006c565b5080516200005f9060039060208401906200006c565b505060008055506200027f565b8280546200007a906200022c565b90600052602060002090601f0160209004810192826200009e5760008555620000e9565b82601f10620000b957805160ff1916838001178555620000e9565b82800160010185558215620000e9579182015b82811115620000e9578251825591602001919060010190620000cc565b50620000f7929150620000fb565b5090565b5b80821115620000f75760008155600101620000fc565b600082601f83011262000123578081fd5b81516001600160401b038082111562000140576200014062000269565b604051601f8301601f19908116603f011681019082821181831017156200016b576200016b62000269565b8160405283815260209250868385880101111562000187578485fd5b8491505b83821015620001aa57858201830151818301840152908201906200018b565b83821115620001bb57848385830101525b9695505050505050565b60008060408385031215620001d8578182fd5b82516001600160401b0380821115620001ef578384fd5b620001fd8683870162000112565b9350602085015191508082111562000213578283fd5b50620002228582860162000112565b9150509250929050565b600181811c908216806200024157607f821691505b602082108114156200026357634e487b7160e01b600052602260045260246000fd5b50919050565b634e487b7160e01b600052604160045260246000fd5b6112c1806200028f6000396000f3fe608060405234801561001057600080fd5b50600436106101005760003560e01c80634f6ccce711610097578063a22cb46511610066578063a22cb46514610212578063b88d4fde14610225578063c87b56dd14610238578063e985e9c51461024b57600080fd5b80634f6ccce7146101d15780636352211e146101e457806370a08231146101f757806395d89b411461020a57600080fd5b806318160ddd116100d357806318160ddd1461018257806323b872dd146101985780632f745c59146101ab57806342842e0e146101be57600080fd5b806301ffc9a71461010557806306fdde031461012d578063081812fc14610142578063095ea7b31461016d575b600080fd5b61011861011336600461105d565b610287565b60405190151581526020015b60405180910390f35b61013561030f565b6040516101249190611144565b610155610150366004611095565b6103a1565b6040516001600160a01b039091168152602001610124565b61018061017b366004611034565b6103e5565b005b600154600054035b604051908152602001610124565b6101806101a6366004610eea565b610473565b61018a6101b9366004611034565b61047e565b6101806101cc366004610eea565b610622565b61018a6101df366004611095565b61063d565b6101556101f2366004611095565b6106aa565b61018a610205366004610e9e565b6106bc565b61013561070b565b610180610220366004610ffa565b61071a565b610180610233366004610f25565b6107b0565b610135610246366004611095565b610801565b610118610259366004610eb8565b6001600160a01b03918216600090815260076020908152604080832093909416825291909152205460ff1690565b60006001600160e01b031982166380ac58cd60e01b14806102b857506001600160e01b03198216635b5e139f60e01b145b806102d357506001600160e01b0319821663780e9d6360e01b145b806102ee57506001600160e01b0319821663152a902d60e11b145b8061030957506301ffc9a760e01b6001600160e01b03198316145b92915050565b60606002805461031e906111c6565b80601f016020809104026020016040519081016040528092919081815260200182805461034a906111c6565b80156103975780601f1061036c57610100808354040283529160200191610397565b820191906000526020600020905b81548152906001019060200180831161037a57829003601f168201915b5050505050905090565b60006103ac82610893565b6103c9576040516333d1c03960e21b815260040160405180910390fd5b506000908152600660205260409020546001600160a01b031690565b60006103f0826106aa565b9050806001600160a01b0316836001600160a01b031614156104255760405163250fdee360e21b815260040160405180910390fd5b336001600160a01b0382161480159061044557506104438133610259565b155b15610463576040516367d9dca160e11b815260040160405180910390fd5b61046e8383836108be565b505050565b61046e838383610927565b6000610489836106bc565b82106104e75760405162461bcd60e51b815260206004820152602260248201527f455243373231413a206f776e657220696e646578206f7574206f6620626f756e604482015261647360f01b60648201526084015b60405180910390fd5b60006104f66001546000540390565b905060008060005b838110156105b357600081815260046020908152604091829020825160608101845290546001600160a01b038116808352600160a01b820467ffffffffffffffff1693830193909352600160e01b900460ff161515928101929092521561056457805192505b876001600160a01b0316836001600160a01b031614156105a057868414156105925750935061030992505050565b8361059c81611201565b9450505b50806105ab81611201565b9150506104fe565b5060405162461bcd60e51b815260206004820152602e60248201527f455243373231413a20756e61626c6520746f2067657420746f6b656e206f662060448201527f6f776e657220627920696e64657800000000000000000000000000000000000060648201526084016104de565b61046e838383604051806020016040528060008152506107b0565b600061064c6001546000540390565b82106106a65760405162461bcd60e51b815260206004820152602360248201527f455243373231413a20676c6f62616c20696e646578206f7574206f6620626f756044820152626e647360e81b60648201526084016104de565b5090565b60006106b582610b3c565b5192915050565b60006001600160a01b0382166106e5576040516323d3ad8160e21b815260040160405180910390fd5b506001600160a01b031660009081526005602052604090205467ffffffffffffffff1690565b60606003805461031e906111c6565b6001600160a01b0382163314156107445760405163b06307db60e01b815260040160405180910390fd5b3360008181526007602090815260408083206001600160a01b03871680855290835292819020805460ff191686151590811790915590519081529192917f17307eab39ab6107e8899845ad3d59bd9653f200f220920489ca2b5937696c31910160405180910390a35050565b6107bb848484610927565b6001600160a01b0383163b151580156107dd57506107db84848484610c58565b155b156107fb576040516368d2bf6b60e11b815260040160405180910390fd5b50505050565b606061080c82610893565b61082957604051630a14c4b560e41b815260040160405180910390fd5b600061084060408051602081019091526000815290565b9050805160001415610861576040518060200160405280600081525061088c565b8061086b84610d50565b60405160200161087c9291906110d9565b6040516020818303038152906040525b9392505050565b6000805482108015610309575050600090815260046020526040902054600160e01b900460ff161590565b600082815260066020526040808220805473ffffffffffffffffffffffffffffffffffffffff19166001600160a01b0387811691821790925591518593918516917f8c5be1e5ebec7d5bd14f71427d1e84f3dd0314c0f7b2291e5b200ac8c7c3b92591a4505050565b600061093282610b3c565b80519091506000906001600160a01b0316336001600160a01b03161480610960575081516109609033610259565b8061097b575033610970846103a1565b6001600160a01b0316145b90508061099b57604051632ce44b5f60e11b815260040160405180910390fd5b846001600160a01b031682600001516001600160a01b0316146109d05760405162a1148160e81b815260040160405180910390fd5b6001600160a01b0384166109f757604051633a954ecd60e21b815260040160405180910390fd5b610a0760008484600001516108be565b6001600160a01b038581166000908152600560209081526040808320805467ffffffffffffffff1980821667ffffffffffffffff92831660001901831617909255898616808652838620805493841693831660019081018416949094179055898652600490945282852080546001600160e01b031916909417600160a01b429092169190910217909255908601808352912054909116610af357600054811015610af3578251600082815260046020908152604090912080549186015167ffffffffffffffff16600160a01b026001600160e01b03199092166001600160a01b03909316929092171790555b5082846001600160a01b0316866001600160a01b03167fddf252ad1be2c89b69c2b068fc378daa952ba7f163c4a11628f55a4df523b3ef60405160405180910390a45050505050565b604080516060810182526000808252602082018190529181019190915281600054811015610c3f57600081815260046020908152604091829020825160608101845290546001600160a01b0381168252600160a01b810467ffffffffffffffff1692820192909252600160e01b90910460ff16151591810182905290610c3d5780516001600160a01b031615610bd3579392505050565b5060001901600081815260046020908152604091829020825160608101845290546001600160a01b038116808352600160a01b820467ffffffffffffffff1693830193909352600160e01b900460ff1615159281019290925215610c38579392505050565b610bd3565b505b604051636f96cda160e11b815260040160405180910390fd5b604051630a85bd0160e11b81526000906001600160a01b0385169063150b7a0290610c8d903390899088908890600401611108565b602060405180830381600087803b158015610ca757600080fd5b505af1925050508015610cd7575060408051601f3d908101601f19168201909252610cd491810190611079565b60015b610d32573d808015610d05576040519150601f19603f3d011682016040523d82523d6000602084013e610d0a565b606091505b508051610d2a576040516368d2bf6b60e11b815260040160405180910390fd5b805181602001fd5b6001600160e01b031916630a85bd0160e11b1490505b949350505050565b606081610d745750506040805180820190915260018152600360fc1b602082015290565b8160005b8115610d9e5780610d8881611201565b9150610d979050600a8361116f565b9150610d78565b60008167ffffffffffffffff811115610dc757634e487b7160e01b600052604160045260246000fd5b6040519080825280601f01601f191660200182016040528015610df1576020820181803683370190505b5090505b8415610d4857610e06600183611183565b9150610e13600a8661121c565b610e1e906030611157565b60f81b818381518110610e4157634e487b7160e01b600052603260045260246000fd5b60200101907effffffffffffffffffffffffffffffffffffffffffffffffffffffffffffff1916908160001a905350610e7b600a8661116f565b9450610df5565b80356001600160a01b0381168114610e9957600080fd5b919050565b600060208284031215610eaf578081fd5b61088c82610e82565b60008060408385031215610eca578081fd5b610ed383610e82565b9150610ee160208401610e82565b90509250929050565b600080600060608486031215610efe578081fd5b610f0784610e82565b9250610f1560208501610e82565b9150604084013590509250925092565b60008060008060808587031215610f3a578081fd5b610f4385610e82565b9350610f5160208601610e82565b925060408501359150606085013567ffffffffffffffff80821115610f74578283fd5b818701915087601f830112610f87578283fd5b813581811115610f9957610f9961125c565b604051601f8201601f19908116603f01168101908382118183101715610fc157610fc161125c565b816040528281528a6020848701011115610fd9578586fd5b82602086016020830137918201602001949094529598949750929550505050565b6000806040838503121561100c578182fd5b61101583610e82565b915060208301358015158114611029578182fd5b809150509250929050565b60008060408385031215611046578182fd5b61104f83610e82565b946020939093013593505050565b60006020828403121561106e578081fd5b813561088c81611272565b60006020828403121561108a578081fd5b815161088c81611272565b6000602082840312156110a6578081fd5b5035919050565b600081518084526110c581602086016020860161119a565b601f01601f19169290920160200192915050565b600083516110eb81846020880161119a565b8351908301906110ff81836020880161119a565b01949350505050565b60006001600160a01b0380871683528086166020840152508360408301526080606083015261113a60808301846110ad565b9695505050505050565b60208152600061088c60208301846110ad565b6000821982111561116a5761116a611230565b500190565b60008261117e5761117e611246565b500490565b60008282101561119557611195611230565b500390565b60005b838110156111b557818101518382015260200161119d565b838111156107fb5750506000910152565b600181811c908216806111da57607f821691505b602082108114156111fb57634e487b7160e01b600052602260045260246000fd5b50919050565b600060001982141561121557611215611230565b5060010190565b60008261122b5761122b611246565b500690565b634e487b7160e01b600052601160045260246000fd5b634e487b7160e01b600052601260045260246000fd5b634e487b7160e01b600052604160045260246000fd5b6001600160e01b03198116811461128857600080fd5b5056fea264697066735822122022d6c651bf72517fa61a765ae41390a514101d4ad6d07b4bd22899fcb99bbb9f64736f6c63430008040033",
  "linkReferences": {},
  "deployedLinkReferences": {}
}