{
  "_format": "hh-sol-artifact-1",
  "contractName": "DTERC721A",
  "sourceName": "src/contracts/DTERC721A.sol",
  "abi": [
    {
      "inputs": [
        {
          "internalType": "string",
          "name": "name_",
          "type": "string"
        },
        {
          "internalType": "string",
          "name": "symbol_",
          "type": "string"
        }
      ],
      "stateMutability": "nonpayable",
      "type": "constructor"
    },
    {
      "inputs": [],
      "name": "ApprovalCallerNotOwnerNorApproved",
      "type": "error"
    },
    {
      "inputs": [],
      "name": "ApprovalQueryForNonexistentToken",
      "type": "error"
    },
    {
      "inputs": [],
      "name": "ApprovalToCurrentOwner",
      "type": "error"
    },
    {
      "inputs": [],
      "name": "ApproveToCaller",
      "type": "error"
    },
    {
      "inputs": [],
      "name": "BalanceQueryForZeroAddress",
      "type": "error"
    },
    {
      "inputs": [],
      "name": "OwnerQueryForNonexistentToken",
      "type": "error"
    },
    {
      "inputs": [],
      "name": "TransferCallerNotOwnerNorApproved",
      "type": "error"
    },
    {
      "inputs": [],
      "name": "TransferFromIncorrectOwner",
      "type": "error"
    },
    {
      "inputs": [],
      "name": "TransferToNonERC721ReceiverImplementer",
      "type": "error"
    },
    {
      "inputs": [],
      "name": "TransferToZeroAddress",
      "type": "error"
    },
    {
      "inputs": [],
      "name": "URIQueryForNonexistentToken",
      "type": "error"
    },
    {
      "anonymous": false,
      "inputs": [
        {
          "indexed": true,
          "internalType": "address",
          "name": "owner",
          "type": "address"
        },
        {
          "indexed": true,
          "internalType": "address",
          "name": "approved",
          "type": "address"
        },
        {
          "indexed": true,
          "internalType": "uint256",
          "name": "tokenId",
          "type": "uint256"
        }
      ],
      "name": "Approval",
      "type": "event"
    },
    {
      "anonymous": false,
      "inputs": [
        {
          "indexed": true,
          "internalType": "address",
          "name": "owner",
          "type": "address"
        },
        {
          "indexed": true,
          "internalType": "address",
          "name": "operator",
          "type": "address"
        },
        {
          "indexed": false,
          "internalType": "bool",
          "name": "approved",
          "type": "bool"
        }
      ],
      "name": "ApprovalForAll",
      "type": "event"
    },
    {
      "anonymous": false,
      "inputs": [
        {
          "indexed": true,
          "internalType": "address",
          "name": "from",
          "type": "address"
        },
        {
          "indexed": true,
          "internalType": "address",
          "name": "to",
          "type": "address"
        },
        {
          "indexed": true,
          "internalType": "uint256",
          "name": "tokenId",
          "type": "uint256"
        }
      ],
      "name": "Transfer",
      "type": "event"
    },
    {
      "inputs": [
        {
          "internalType": "address",
          "name": "to",
          "type": "address"
        },
        {
          "internalType": "uint256",
          "name": "tokenId",
          "type": "uint256"
        }
      ],
      "name": "approve",
      "outputs": [],
      "stateMutability": "nonpayable",
      "type": "function"
    },
    {
      "inputs": [
        {
          "internalType": "address",
          "name": "owner",
          "type": "address"
        }
      ],
      "name": "balanceOf",
      "outputs": [
        {
          "internalType": "uint256",
          "name": "",
          "type": "uint256"
        }
      ],
      "stateMutability": "view",
      "type": "function"
    },
    {
      "inputs": [
        {
          "internalType": "uint256",
          "name": "tokenId",
          "type": "uint256"
        }
      ],
      "name": "getApproved",
      "outputs": [
        {
          "internalType": "address",
          "name": "",
          "type": "address"
        }
      ],
      "stateMutability": "view",
      "type": "function"
    },
    {
      "inputs": [
        {
          "internalType": "address",
          "name": "owner",
          "type": "address"
        },
        {
          "internalType": "address",
          "name": "operator",
          "type": "address"
        }
      ],
      "name": "isApprovedForAll",
      "outputs": [
        {
          "internalType": "bool",
          "name": "",
          "type": "bool"
        }
      ],
      "stateMutability": "view",
      "type": "function"
    },
    {
      "inputs": [],
      "name": "name",
      "outputs": [
        {
          "internalType": "string",
          "name": "",
          "type": "string"
        }
      ],
      "stateMutability": "view",
      "type": "function"
    },
    {
      "inputs": [],
      "name": "nextOwnerToExplicitlySet",
      "outputs": [
        {
          "internalType": "uint256",
          "name": "",
          "type": "uint256"
        }
      ],
      "stateMutability": "view",
      "type": "function"
    },
    {
      "inputs": [
        {
          "internalType": "uint256",
          "name": "tokenId",
          "type": "uint256"
        }
      ],
      "name": "ownerOf",
      "outputs": [
        {
          "internalType": "address",
          "name": "",
          "type": "address"
        }
      ],
      "stateMutability": "view",
      "type": "function"
    },
    {
      "inputs": [
        {
          "internalType": "address",
          "name": "from",
          "type": "address"
        },
        {
          "internalType": "address",
          "name": "to",
          "type": "address"
        },
        {
          "internalType": "uint256",
          "name": "tokenId",
          "type": "uint256"
        }
      ],
      "name": "safeTransferFrom",
      "outputs": [],
      "stateMutability": "nonpayable",
      "type": "function"
    },
    {
      "inputs": [
        {
          "internalType": "address",
          "name": "from",
          "type": "address"
        },
        {
          "internalType": "address",
          "name": "to",
          "type": "address"
        },
        {
          "internalType": "uint256",
          "name": "tokenId",
          "type": "uint256"
        },
        {
          "internalType": "bytes",
          "name": "_data",
          "type": "bytes"
        }
      ],
      "name": "safeTransferFrom",
      "outputs": [],
      "stateMutability": "nonpayable",
      "type": "function"
    },
    {
      "inputs": [
        {
          "internalType": "address",
          "name": "operator",
          "type": "address"
        },
        {
          "internalType": "bool",
          "name": "approved",
          "type": "bool"
        }
      ],
      "name": "setApprovalForAll",
      "outputs": [],
      "stateMutability": "nonpayable",
      "type": "function"
    },
    {
      "inputs": [
        {
          "internalType": "bytes4",
          "name": "interfaceId",
          "type": "bytes4"
        }
      ],
      "name": "supportsInterface",
      "outputs": [
        {
          "internalType": "bool",
          "name": "",
          "type": "bool"
        }
      ],
      "stateMutability": "view",
      "type": "function"
    },
    {
      "inputs": [],
      "name": "symbol",
      "outputs": [
        {
          "internalType": "string",
          "name": "",
          "type": "string"
        }
      ],
      "stateMutability": "view",
      "type": "function"
    },
    {
      "inputs": [
        {
          "internalType": "uint256",
          "name": "index",
          "type": "uint256"
        }
      ],
      "name": "tokenByIndex",
      "outputs": [
        {
          "internalType": "uint256",
          "name": "",
          "type": "uint256"
        }
      ],
      "stateMutability": "view",
      "type": "function"
    },
    {
      "inputs": [
        {
          "internalType": "address",
          "name": "owner",
          "type": "address"
        },
        {
          "internalType": "uint256",
          "name": "index",
          "type": "uint256"
        }
      ],
      "name": "tokenOfOwnerByIndex",
      "outputs": [
        {
          "internalType": "uint256",
          "name": "",
          "type": "uint256"
        }
      ],
      "stateMutability": "view",
      "type": "function"
    },
    {
      "inputs": [
        {
          "internalType": "uint256",
          "name": "tokenId",
          "type": "uint256"
        }
      ],
      "name": "tokenURI",
      "outputs": [
        {
          "internalType": "string",
          "name": "",
          "type": "string"
        }
      ],
      "stateMutability": "view",
      "type": "function"
    },
    {
      "inputs": [],
      "name": "totalSupply",
      "outputs": [
        {
          "internalType": "uint256",
          "name": "",
          "type": "uint256"
        }
      ],
      "stateMutability": "view",
      "type": "function"
    },
    {
      "inputs": [
        {
          "internalType": "address",
          "name": "from",
          "type": "address"
        },
        {
          "internalType": "address",
          "name": "to",
          "type": "address"
        },
        {
          "internalType": "uint256",
          "name": "tokenId",
          "type": "uint256"
        }
      ],
      "name": "transferFrom",
      "outputs": [],
      "stateMutability": "nonpayable",
      "type": "function"
    }
  ],
  "bytecode": "0x608060405260006008553480156200001657600080fd5b5060405162001569380380620015698339810160408190526200003991620001ca565b81516200004e90600290602085019062000071565b5080516200006490600390602084019062000071565b5050600080555062000284565b8280546200007f9062000231565b90600052602060002090601f016020900481019282620000a35760008555620000ee565b82601f10620000be57805160ff1916838001178555620000ee565b82800160010185558215620000ee579182015b82811115620000ee578251825591602001919060010190620000d1565b50620000fc92915062000100565b5090565b5b80821115620000fc576000815560010162000101565b600082601f83011262000128578081fd5b81516001600160401b03808211156200014557620001456200026e565b604051601f8301601f19908116603f011681019082821181831017156200017057620001706200026e565b816040528381526020925086838588010111156200018c578485fd5b8491505b83821015620001af578582018301518183018401529082019062000190565b83821115620001c057848385830101525b9695505050505050565b60008060408385031215620001dd578182fd5b82516001600160401b0380821115620001f4578384fd5b620002028683870162000117565b9350602085015191508082111562000218578283fd5b50620002278582860162000117565b9150509250929050565b600181811c908216806200024657607f821691505b602082108114156200026857634e487b7160e01b600052602260045260246000fd5b50919050565b634e487b7160e01b600052604160045260246000fd5b6112d580620002946000396000f3fe608060405234801561001057600080fd5b506004361061010b5760003560e01c80634f6ccce7116100a2578063a22cb46511610071578063a22cb4651461021d578063b88d4fde14610230578063c87b56dd14610243578063d7224ba014610256578063e985e9c51461025f57600080fd5b80634f6ccce7146101dc5780636352211e146101ef57806370a082311461020257806395d89b411461021557600080fd5b806318160ddd116100de57806318160ddd1461018d57806323b872dd146101a35780632f745c59146101b657806342842e0e146101c957600080fd5b806301ffc9a71461011057806306fdde0314610138578063081812fc1461014d578063095ea7b314610178575b600080fd5b61012361011e366004611071565b61029b565b60405190151581526020015b60405180910390f35b610140610323565b60405161012f9190611158565b61016061015b3660046110a9565b6103b5565b6040516001600160a01b03909116815260200161012f565b61018b610186366004611048565b6103f9565b005b600154600054035b60405190815260200161012f565b61018b6101b1366004610efe565b610487565b6101956101c4366004611048565b610492565b61018b6101d7366004610efe565b610636565b6101956101ea3660046110a9565b610651565b6101606101fd3660046110a9565b6106be565b610195610210366004610eb2565b6106d0565b61014061071f565b61018b61022b36600461100e565b61072e565b61018b61023e366004610f39565b6107c4565b6101406102513660046110a9565b610815565b61019560085481565b61012361026d366004610ecc565b6001600160a01b03918216600090815260076020908152604080832093909416825291909152205460ff1690565b60006001600160e01b031982166380ac58cd60e01b14806102cc57506001600160e01b03198216635b5e139f60e01b145b806102e757506001600160e01b0319821663780e9d6360e01b145b8061030257506001600160e01b0319821663152a902d60e11b145b8061031d57506301ffc9a760e01b6001600160e01b03198316145b92915050565b606060028054610332906111da565b80601f016020809104026020016040519081016040528092919081815260200182805461035e906111da565b80156103ab5780601f10610380576101008083540402835291602001916103ab565b820191906000526020600020905b81548152906001019060200180831161038e57829003601f168201915b5050505050905090565b60006103c0826108a7565b6103dd576040516333d1c03960e21b815260040160405180910390fd5b506000908152600660205260409020546001600160a01b031690565b6000610404826106be565b9050806001600160a01b0316836001600160a01b031614156104395760405163250fdee360e21b815260040160405180910390fd5b336001600160a01b038216148015906104595750610457813361026d565b155b15610477576040516367d9dca160e11b815260040160405180910390fd5b6104828383836108d2565b505050565b61048283838361093b565b600061049d836106d0565b82106104fb5760405162461bcd60e51b815260206004820152602260248201527f455243373231413a206f776e657220696e646578206f7574206f6620626f756e604482015261647360f01b60648201526084015b60405180910390fd5b600061050a6001546000540390565b905060008060005b838110156105c757600081815260046020908152604091829020825160608101845290546001600160a01b038116808352600160a01b820467ffffffffffffffff1693830193909352600160e01b900460ff161515928101929092521561057857805192505b876001600160a01b0316836001600160a01b031614156105b457868414156105a65750935061031d92505050565b836105b081611215565b9450505b50806105bf81611215565b915050610512565b5060405162461bcd60e51b815260206004820152602e60248201527f455243373231413a20756e61626c6520746f2067657420746f6b656e206f662060448201527f6f776e657220627920696e64657800000000000000000000000000000000000060648201526084016104f2565b610482838383604051806020016040528060008152506107c4565b60006106606001546000540390565b82106106ba5760405162461bcd60e51b815260206004820152602360248201527f455243373231413a20676c6f62616c20696e646578206f7574206f6620626f756044820152626e647360e81b60648201526084016104f2565b5090565b60006106c982610b50565b5192915050565b60006001600160a01b0382166106f9576040516323d3ad8160e21b815260040160405180910390fd5b506001600160a01b031660009081526005602052604090205467ffffffffffffffff1690565b606060038054610332906111da565b6001600160a01b0382163314156107585760405163b06307db60e01b815260040160405180910390fd5b3360008181526007602090815260408083206001600160a01b03871680855290835292819020805460ff191686151590811790915590519081529192917f17307eab39ab6107e8899845ad3d59bd9653f200f220920489ca2b5937696c31910160405180910390a35050565b6107cf84848461093b565b6001600160a01b0383163b151580156107f157506107ef84848484610c6c565b155b1561080f576040516368d2bf6b60e11b815260040160405180910390fd5b50505050565b6060610820826108a7565b61083d57604051630a14c4b560e41b815260040160405180910390fd5b600061085460408051602081019091526000815290565b905080516000141561087557604051806020016040528060008152506108a0565b8061087f84610d64565b6040516020016108909291906110ed565b6040516020818303038152906040525b9392505050565b600080548210801561031d575050600090815260046020526040902054600160e01b900460ff161590565b600082815260066020526040808220805473ffffffffffffffffffffffffffffffffffffffff19166001600160a01b0387811691821790925591518593918516917f8c5be1e5ebec7d5bd14f71427d1e84f3dd0314c0f7b2291e5b200ac8c7c3b92591a4505050565b600061094682610b50565b80519091506000906001600160a01b0316336001600160a01b0316148061097457508151610974903361026d565b8061098f575033610984846103b5565b6001600160a01b0316145b9050806109af57604051632ce44b5f60e11b815260040160405180910390fd5b846001600160a01b031682600001516001600160a01b0316146109e45760405162a1148160e81b815260040160405180910390fd5b6001600160a01b038416610a0b57604051633a954ecd60e21b815260040160405180910390fd5b610a1b60008484600001516108d2565b6001600160a01b038581166000908152600560209081526040808320805467ffffffffffffffff1980821667ffffffffffffffff92831660001901831617909255898616808652838620805493841693831660019081018416949094179055898652600490945282852080546001600160e01b031916909417600160a01b429092169190910217909255908601808352912054909116610b0757600054811015610b07578251600082815260046020908152604090912080549186015167ffffffffffffffff16600160a01b026001600160e01b03199092166001600160a01b03909316929092171790555b5082846001600160a01b0316866001600160a01b03167fddf252ad1be2c89b69c2b068fc378daa952ba7f163c4a11628f55a4df523b3ef60405160405180910390a45050505050565b604080516060810182526000808252602082018190529181019190915281600054811015610c5357600081815260046020908152604091829020825160608101845290546001600160a01b0381168252600160a01b810467ffffffffffffffff1692820192909252600160e01b90910460ff16151591810182905290610c515780516001600160a01b031615610be7579392505050565b5060001901600081815260046020908152604091829020825160608101845290546001600160a01b038116808352600160a01b820467ffffffffffffffff1693830193909352600160e01b900460ff1615159281019290925215610c4c579392505050565b610be7565b505b604051636f96cda160e11b815260040160405180910390fd5b604051630a85bd0160e11b81526000906001600160a01b0385169063150b7a0290610ca190339089908890889060040161111c565b602060405180830381600087803b158015610cbb57600080fd5b505af1925050508015610ceb575060408051601f3d908101601f19168201909252610ce89181019061108d565b60015b610d46573d808015610d19576040519150601f19603f3d011682016040523d82523d6000602084013e610d1e565b606091505b508051610d3e576040516368d2bf6b60e11b815260040160405180910390fd5b805181602001fd5b6001600160e01b031916630a85bd0160e11b1490505b949350505050565b606081610d885750506040805180820190915260018152600360fc1b602082015290565b8160005b8115610db25780610d9c81611215565b9150610dab9050600a83611183565b9150610d8c565b60008167ffffffffffffffff811115610ddb57634e487b7160e01b600052604160045260246000fd5b6040519080825280601f01601f191660200182016040528015610e05576020820181803683370190505b5090505b8415610d5c57610e1a600183611197565b9150610e27600a86611230565b610e3290603061116b565b60f81b818381518110610e5557634e487b7160e01b600052603260045260246000fd5b60200101907effffffffffffffffffffffffffffffffffffffffffffffffffffffffffffff1916908160001a905350610e8f600a86611183565b9450610e09565b80356001600160a01b0381168114610ead57600080fd5b919050565b600060208284031215610ec3578081fd5b6108a082610e96565b60008060408385031215610ede578081fd5b610ee783610e96565b9150610ef560208401610e96565b90509250929050565b600080600060608486031215610f12578081fd5b610f1b84610e96565b9250610f2960208501610e96565b9150604084013590509250925092565b60008060008060808587031215610f4e578081fd5b610f5785610e96565b9350610f6560208601610e96565b925060408501359150606085013567ffffffffffffffff80821115610f88578283fd5b818701915087601f830112610f9b578283fd5b813581811115610fad57610fad611270565b604051601f8201601f19908116603f01168101908382118183101715610fd557610fd5611270565b816040528281528a6020848701011115610fed578586fd5b82602086016020830137918201602001949094529598949750929550505050565b60008060408385031215611020578182fd5b61102983610e96565b91506020830135801515811461103d578182fd5b809150509250929050565b6000806040838503121561105a578182fd5b61106383610e96565b946020939093013593505050565b600060208284031215611082578081fd5b81356108a081611286565b60006020828403121561109e578081fd5b81516108a081611286565b6000602082840312156110ba578081fd5b5035919050565b600081518084526110d98160208601602086016111ae565b601f01601f19169290920160200192915050565b600083516110ff8184602088016111ae565b8351908301906111138183602088016111ae565b01949350505050565b60006001600160a01b0380871683528086166020840152508360408301526080606083015261114e60808301846110c1565b9695505050505050565b6020815260006108a060208301846110c1565b6000821982111561117e5761117e611244565b500190565b6000826111925761119261125a565b500490565b6000828210156111a9576111a9611244565b500390565b60005b838110156111c95781810151838201526020016111b1565b8381111561080f5750506000910152565b600181811c908216806111ee57607f821691505b6020821081141561120f57634e487b7160e01b600052602260045260246000fd5b50919050565b600060001982141561122957611229611244565b5060010190565b60008261123f5761123f61125a565b500690565b634e487b7160e01b600052601160045260246000fd5b634e487b7160e01b600052601260045260246000fd5b634e487b7160e01b600052604160045260246000fd5b6001600160e01b03198116811461129c57600080fd5b5056fea26469706673582212207ef79080a456adfa820a07acc7da32400c082afe049a02d3a0fdb689094b2bbf64736f6c63430008040033",
  "linkReferences": {},
  "deployedLinkReferences": {}
}