{
  "_format": "hh-sol-artifact-1",
  "contractName": "CollectigameNFT",
  "sourceName": "src/contracts/CollectigameNFT.sol",
  "abi": [
    {
      "inputs": [
        {
          "internalType": "string",
          "name": "godCID_",
          "type": "string"
        },
        {
          "internalType": "string",
          "name": "_notRevealedArtCID",
          "type": "string"
        },
        {
          "internalType": "uint256",
          "name": "_upgradeRequestFeeInWei",
          "type": "uint256"
        },
        {
          "internalType": "address",
          "name": "_owner",
          "type": "address"
        },
        {
          "internalType": "address",
          "name": "platformMultisig",
          "type": "address"
        },
        {
          "internalType": "address",
          "name": "decentralTitan",
          "type": "address"
        }
      ],
      "stateMutability": "nonpayable",
      "type": "constructor"
    },
    {
      "inputs": [],
      "name": "ApprovalCallerNotOwnerNorApproved",
      "type": "error"
    },
    {
      "inputs": [],
      "name": "ApprovalQueryForNonexistentToken",
      "type": "error"
    },
    {
      "inputs": [],
      "name": "ApprovalToCurrentOwner",
      "type": "error"
    },
    {
      "inputs": [],
      "name": "ApproveToCaller",
      "type": "error"
    },
    {
      "inputs": [],
      "name": "AuxQueryForZeroAddress",
      "type": "error"
    },
    {
      "inputs": [],
      "name": "BalanceQueryForZeroAddress",
      "type": "error"
    },
    {
      "inputs": [],
      "name": "MintToZeroAddress",
      "type": "error"
    },
    {
      "inputs": [],
      "name": "MintZeroQuantity",
      "type": "error"
    },
    {
      "inputs": [],
      "name": "MintedQueryForZeroAddress",
      "type": "error"
    },
    {
      "inputs": [],
      "name": "OwnerQueryForNonexistentToken",
      "type": "error"
    },
    {
      "inputs": [],
      "name": "TransferCallerNotOwnerNorApproved",
      "type": "error"
    },
    {
      "inputs": [],
      "name": "TransferFromIncorrectOwner",
      "type": "error"
    },
    {
      "inputs": [],
      "name": "TransferToNonERC721ReceiverImplementer",
      "type": "error"
    },
    {
      "inputs": [],
      "name": "TransferToZeroAddress",
      "type": "error"
    },
    {
      "anonymous": false,
      "inputs": [
        {
          "indexed": true,
          "internalType": "address",
          "name": "owner",
          "type": "address"
        },
        {
          "indexed": true,
          "internalType": "address",
          "name": "approved",
          "type": "address"
        },
        {
          "indexed": true,
          "internalType": "uint256",
          "name": "tokenId",
          "type": "uint256"
        }
      ],
      "name": "Approval",
      "type": "event"
    },
    {
      "anonymous": false,
      "inputs": [
        {
          "indexed": true,
          "internalType": "address",
          "name": "owner",
          "type": "address"
        },
        {
          "indexed": true,
          "internalType": "address",
          "name": "operator",
          "type": "address"
        },
        {
          "indexed": false,
          "internalType": "bool",
          "name": "approved",
          "type": "bool"
        }
      ],
      "name": "ApprovalForAll",
      "type": "event"
    },
    {
      "anonymous": false,
      "inputs": [
        {
          "indexed": false,
          "internalType": "uint8",
          "name": "numberOfGods",
          "type": "uint8"
        },
        {
          "indexed": false,
          "internalType": "uint256",
          "name": "startTimeStamp",
          "type": "uint256"
        }
      ],
      "name": "AuctionsInitialized",
      "type": "event"
    },
    {
      "anonymous": false,
      "inputs": [
        {
          "indexed": true,
          "internalType": "address",
          "name": "previousOwner",
          "type": "address"
        },
        {
          "indexed": true,
          "internalType": "address",
          "name": "newOwner",
          "type": "address"
        }
      ],
      "name": "OwnershipTransferred",
      "type": "event"
    },
    {
      "anonymous": false,
      "inputs": [
        {
          "indexed": true,
          "internalType": "uint8",
          "name": "roleId",
          "type": "uint8"
        },
        {
          "indexed": true,
          "internalType": "address",
          "name": "oldAddr",
          "type": "address"
        },
        {
          "indexed": true,
          "internalType": "address",
          "name": "newAddr",
          "type": "address"
        }
      ],
      "name": "RoleAccepted",
      "type": "event"
    },
    {
      "anonymous": false,
      "inputs": [
        {
          "indexed": true,
          "internalType": "uint8",
          "name": "roleId",
          "type": "uint8"
        },
        {
          "indexed": true,
          "internalType": "address",
          "name": "currentAddr",
          "type": "address"
        },
        {
          "indexed": true,
          "internalType": "address",
          "name": "proposedAddr",
          "type": "address"
        }
      ],
      "name": "RoleProposed",
      "type": "event"
    },
    {
      "anonymous": false,
      "inputs": [
        {
          "indexed": false,
          "internalType": "uint16",
          "name": "tokenId",
          "type": "uint16"
        }
      ],
      "name": "TokenUpgraded",
      "type": "event"
    },
    {
      "anonymous": false,
      "inputs": [
        {
          "indexed": true,
          "internalType": "address",
          "name": "from",
          "type": "address"
        },
        {
          "indexed": true,
          "internalType": "address",
          "name": "to",
          "type": "address"
        },
        {
          "indexed": true,
          "internalType": "uint256",
          "name": "tokenId",
          "type": "uint256"
        }
      ],
      "name": "Transfer",
      "type": "event"
    },
    {
      "anonymous": false,
      "inputs": [
        {
          "indexed": false,
          "internalType": "uint16",
          "name": "tokenId",
          "type": "uint16"
        },
        {
          "indexed": false,
          "internalType": "uint256",
          "name": "value",
          "type": "uint256"
        }
      ],
      "name": "UpgradeRequestPayment",
      "type": "event"
    },
    {
      "stateMutability": "payable",
      "type": "fallback"
    },
    {
      "inputs": [],
      "name": "AUCTION_DROP_INTERVAL",
      "outputs": [
        {
          "internalType": "uint256",
          "name": "",
          "type": "uint256"
        }
      ],
      "stateMutability": "view",
      "type": "function"
    },
    {
      "inputs": [],
      "name": "AUCTION_DURATION",
      "outputs": [
        {
          "internalType": "uint256",
          "name": "",
          "type": "uint256"
        }
      ],
      "stateMutability": "view",
      "type": "function"
    },
    {
      "inputs": [],
      "name": "AUCTION_START_TIME",
      "outputs": [
        {
          "internalType": "uint256",
          "name": "",
          "type": "uint256"
        }
      ],
      "stateMutability": "view",
      "type": "function"
    },
    {
      "inputs": [],
      "name": "DECENTRAL_TITAN_ROLE_ID",
      "outputs": [
        {
          "internalType": "uint8",
          "name": "",
          "type": "uint8"
        }
      ],
      "stateMutability": "view",
      "type": "function"
    },
    {
      "inputs": [],
      "name": "MAX_MINT_PER_ADDRESS",
      "outputs": [
        {
          "internalType": "uint16",
          "name": "",
          "type": "uint16"
        }
      ],
      "stateMutability": "view",
      "type": "function"
    },
    {
      "inputs": [],
      "name": "MAX_SUPPLY",
      "outputs": [
        {
          "internalType": "uint16",
          "name": "",
          "type": "uint16"
        }
      ],
      "stateMutability": "view",
      "type": "function"
    },
    {
      "inputs": [],
      "name": "MINT_PRICE_IN_WEI",
      "outputs": [
        {
          "internalType": "uint256",
          "name": "",
          "type": "uint256"
        }
      ],
      "stateMutability": "view",
      "type": "function"
    },
    {
      "inputs": [],
      "name": "NUMBER_OF_TOKEN_FOR_AUCTION",
      "outputs": [
        {
          "internalType": "uint8",
          "name": "",
          "type": "uint8"
        }
      ],
      "stateMutability": "view",
      "type": "function"
    },
    {
      "inputs": [],
      "name": "PLATFORM_MULTISIG_ROLE_ID",
      "outputs": [
        {
          "internalType": "uint8",
          "name": "",
          "type": "uint8"
        }
      ],
      "stateMutability": "view",
      "type": "function"
    },
    {
      "inputs": [],
      "name": "ROYALTY_FEE_PERCENT",
      "outputs": [
        {
          "internalType": "uint8",
          "name": "",
          "type": "uint8"
        }
      ],
      "stateMutability": "view",
      "type": "function"
    },
    {
      "inputs": [
        {
          "internalType": "uint256",
          "name": "",
          "type": "uint256"
        }
      ],
      "name": "_ownerships",
      "outputs": [
        {
          "internalType": "address",
          "name": "addr",
          "type": "address"
        },
        {
          "internalType": "uint64",
          "name": "startTimestamp",
          "type": "uint64"
        },
        {
          "internalType": "bool",
          "name": "burned",
          "type": "bool"
        }
      ],
      "stateMutability": "view",
      "type": "function"
    },
    {
      "inputs": [
        {
          "internalType": "uint8",
          "name": "roleId",
          "type": "uint8"
        }
      ],
      "name": "acceptAuthority",
      "outputs": [],
      "stateMutability": "nonpayable",
      "type": "function"
    },
    {
      "inputs": [
        {
          "internalType": "address",
          "name": "to",
          "type": "address"
        },
        {
          "internalType": "uint256",
          "name": "tokenId",
          "type": "uint256"
        }
      ],
      "name": "approve",
      "outputs": [],
      "stateMutability": "nonpayable",
      "type": "function"
    },
    {
      "inputs": [
        {
          "internalType": "uint8",
          "name": "",
          "type": "uint8"
        }
      ],
      "name": "auctions",
      "outputs": [
        {
          "internalType": "uint8",
          "name": "tokenId",
          "type": "uint8"
        },
        {
          "internalType": "uint256",
          "name": "startAt",
          "type": "uint256"
        },
        {
          "internalType": "uint256",
          "name": "expireAt",
          "type": "uint256"
        },
        {
          "internalType": "uint256",
          "name": "startPrice",
          "type": "uint256"
        },
        {
          "internalType": "uint256",
          "name": "endPrice",
          "type": "uint256"
        },
        {
          "internalType": "uint256",
          "name": "auctionDropPerStep",
          "type": "uint256"
        },
        {
          "internalType": "bool",
          "name": "isSold",
          "type": "bool"
        }
      ],
      "stateMutability": "view",
      "type": "function"
    },
    {
      "inputs": [
        {
          "internalType": "address",
          "name": "owner",
          "type": "address"
        }
      ],
      "name": "balanceOf",
      "outputs": [
        {
          "internalType": "uint256",
          "name": "",
          "type": "uint256"
        }
      ],
      "stateMutability": "view",
      "type": "function"
    },
    {
      "inputs": [
        {
          "internalType": "uint8",
          "name": "day",
          "type": "uint8"
        }
      ],
      "name": "buyAGodInAuction",
      "outputs": [],
      "stateMutability": "payable",
      "type": "function"
    },
    {
      "inputs": [
        {
          "internalType": "uint16",
          "name": "tokenId",
          "type": "uint16"
        }
      ],
      "name": "buyBackToken",
      "outputs": [],
      "stateMutability": "nonpayable",
      "type": "function"
    },
    {
      "inputs": [],
      "name": "finishAuction",
      "outputs": [],
      "stateMutability": "nonpayable",
      "type": "function"
    },
    {
      "inputs": [],
      "name": "finishMinting",
      "outputs": [],
      "stateMutability": "nonpayable",
      "type": "function"
    },
    {
      "inputs": [],
      "name": "getAddresses",
      "outputs": [
        {
          "components": [
            {
              "internalType": "address",
              "name": "daoTreasuryContract",
              "type": "address"
            },
            {
              "internalType": "address",
              "name": "whiteListVerifier",
              "type": "address"
            },
            {
              "internalType": "address",
              "name": "gameTreasuryContract",
              "type": "address"
            }
          ],
          "internalType": "struct ICollectiGame.ContractAddresses",
          "name": "",
          "type": "tuple"
        }
      ],
      "stateMutability": "view",
      "type": "function"
    },
    {
      "inputs": [
        {
          "internalType": "uint256",
          "name": "tokenId",
          "type": "uint256"
        }
      ],
      "name": "getApproved",
      "outputs": [
        {
          "internalType": "address",
          "name": "",
          "type": "address"
        }
      ],
      "stateMutability": "view",
      "type": "function"
    },
    {
      "inputs": [
        {
          "internalType": "uint8",
          "name": "day",
          "type": "uint8"
        }
      ],
      "name": "getAuctionPrice",
      "outputs": [
        {
          "internalType": "uint256",
          "name": "",
          "type": "uint256"
        }
      ],
      "stateMutability": "view",
      "type": "function"
    },
    {
      "inputs": [],
      "name": "getState",
      "outputs": [
        {
          "components": [
            {
              "internalType": "bool",
              "name": "initialized",
              "type": "bool"
            },
            {
              "internalType": "bool",
              "name": "auctionIsActive",
              "type": "bool"
            },
            {
              "internalType": "bool",
              "name": "whitelistMintingIsActive",
              "type": "bool"
            },
            {
              "internalType": "bool",
              "name": "mintingIsActive",
              "type": "bool"
            },
            {
              "internalType": "bool",
              "name": "artIsRevealed",
              "type": "bool"
            },
            {
              "internalType": "bool",
              "name": "finished",
              "type": "bool"
            }
          ],
          "internalType": "struct ICollectiGame.ContractState",
          "name": "",
          "type": "tuple"
        }
      ],
      "stateMutability": "view",
      "type": "function"
    },
    {
      "inputs": [
        {
          "components": [
            {
              "internalType": "uint256",
              "name": "startPrice",
              "type": "uint256"
            },
            {
              "internalType": "uint256",
              "name": "endPrice",
              "type": "uint256"
            },
            {
              "internalType": "uint256",
              "name": "auctionDropPerStep",
              "type": "uint256"
            }
          ],
          "internalType": "struct ICollectiGame.AuctionConfig[]",
          "name": "configs",
          "type": "tuple[]"
        },
        {
          "internalType": "address",
          "name": "daoTreasury",
          "type": "address"
        },
        {
          "internalType": "address",
          "name": "royaltyReceiverContract",
          "type": "address"
        },
        {
          "internalType": "address",
          "name": "whiteListVerifier",
          "type": "address"
        }
      ],
      "name": "initializer",
      "outputs": [],
      "stateMutability": "nonpayable",
      "type": "function"
    },
    {
      "inputs": [
        {
          "internalType": "address",
          "name": "owner",
          "type": "address"
        },
        {
          "internalType": "address",
          "name": "operator",
          "type": "address"
        }
      ],
      "name": "isApprovedForAll",
      "outputs": [
        {
          "internalType": "bool",
          "name": "",
          "type": "bool"
        }
      ],
      "stateMutability": "view",
      "type": "function"
    },
    {
      "inputs": [
        {
          "internalType": "uint16",
          "name": "",
          "type": "uint16"
        }
      ],
      "name": "isGodToken",
      "outputs": [
        {
          "internalType": "bool",
          "name": "",
          "type": "bool"
        }
      ],
      "stateMutability": "view",
      "type": "function"
    },
    {
      "inputs": [
        {
          "internalType": "address",
          "name": "account_",
          "type": "address"
        },
        {
          "internalType": "uint8",
          "name": "maxQuantity_",
          "type": "uint8"
        },
        {
          "internalType": "enum CollectigameNFT.WhiteListType",
          "name": "whiteListType_",
          "type": "uint8"
        },
        {
          "internalType": "bytes",
          "name": "sig_",
          "type": "bytes"
        }
      ],
      "name": "isWhitelisted",
      "outputs": [
        {
          "internalType": "bool",
          "name": "",
          "type": "bool"
        }
      ],
      "stateMutability": "view",
      "type": "function"
    },
    {
      "inputs": [],
      "name": "name",
      "outputs": [
        {
          "internalType": "string",
          "name": "",
          "type": "string"
        }
      ],
      "stateMutability": "view",
      "type": "function"
    },
    {
      "inputs": [],
      "name": "nextOwnerToExplicitlySet",
      "outputs": [
        {
          "internalType": "uint256",
          "name": "",
          "type": "uint256"
        }
      ],
      "stateMutability": "view",
      "type": "function"
    },
    {
      "inputs": [],
      "name": "numberOfRoles",
      "outputs": [
        {
          "internalType": "uint8",
          "name": "",
          "type": "uint8"
        }
      ],
      "stateMutability": "view",
      "type": "function"
    },
    {
      "inputs": [],
      "name": "owner",
      "outputs": [
        {
          "internalType": "address",
          "name": "",
          "type": "address"
        }
      ],
      "stateMutability": "view",
      "type": "function"
    },
    {
      "inputs": [
        {
          "internalType": "uint256",
          "name": "tokenId",
          "type": "uint256"
        }
      ],
      "name": "ownerOf",
      "outputs": [
        {
          "internalType": "address",
          "name": "",
          "type": "address"
        }
      ],
      "stateMutability": "view",
      "type": "function"
    },
    {
      "inputs": [
        {
          "internalType": "uint8",
          "name": "roleId",
          "type": "uint8"
        },
        {
          "internalType": "address",
          "name": "proposedAddr",
          "type": "address"
        }
      ],
      "name": "proposeAuthority",
      "outputs": [],
      "stateMutability": "nonpayable",
      "type": "function"
    },
    {
      "inputs": [
        {
          "internalType": "uint256",
          "name": "quantity",
          "type": "uint256"
        }
      ],
      "name": "publicMint",
      "outputs": [],
      "stateMutability": "payable",
      "type": "function"
    },
    {
      "inputs": [
        {
          "internalType": "uint8",
          "name": "roleId",
          "type": "uint8"
        }
      ],
      "name": "renounceAuthority",
      "outputs": [],
      "stateMutability": "nonpayable",
      "type": "function"
    },
    {
      "inputs": [],
      "name": "renounceOwnership",
      "outputs": [],
      "stateMutability": "nonpayable",
      "type": "function"
    },
    {
      "inputs": [
        {
          "internalType": "string",
          "name": "ipfsCid",
          "type": "string"
        }
      ],
      "name": "revealArt",
      "outputs": [],
      "stateMutability": "nonpayable",
      "type": "function"
    },
    {
      "inputs": [
        {
          "internalType": "uint8",
          "name": "",
          "type": "uint8"
        }
      ],
      "name": "roles",
      "outputs": [
        {
          "internalType": "address",
          "name": "addr",
          "type": "address"
        },
        {
          "internalType": "address",
          "name": "proposedAddr",
          "type": "address"
        },
        {
          "internalType": "bool",
          "name": "isRenounced",
          "type": "bool"
        }
      ],
      "stateMutability": "view",
      "type": "function"
    },
    {
      "inputs": [
        {
          "internalType": "uint256",
          "name": "",
          "type": "uint256"
        },
        {
          "internalType": "uint256",
          "name": "value",
          "type": "uint256"
        }
      ],
      "name": "royaltyInfo",
      "outputs": [
        {
          "internalType": "address",
          "name": "receiver",
          "type": "address"
        },
        {
          "internalType": "uint256",
          "name": "royaltyAmount",
          "type": "uint256"
        }
      ],
      "stateMutability": "view",
      "type": "function"
    },
    {
      "inputs": [
        {
          "internalType": "address",
          "name": "from",
          "type": "address"
        },
        {
          "internalType": "address",
          "name": "to",
          "type": "address"
        },
        {
          "internalType": "uint256",
          "name": "tokenId",
          "type": "uint256"
        }
      ],
      "name": "safeTransferFrom",
      "outputs": [],
      "stateMutability": "nonpayable",
      "type": "function"
    },
    {
      "inputs": [
        {
          "internalType": "address",
          "name": "from",
          "type": "address"
        },
        {
          "internalType": "address",
          "name": "to",
          "type": "address"
        },
        {
          "internalType": "uint256",
          "name": "tokenId",
          "type": "uint256"
        },
        {
          "internalType": "bytes",
          "name": "_data",
          "type": "bytes"
        }
      ],
      "name": "safeTransferFrom",
      "outputs": [],
      "stateMutability": "nonpayable",
      "type": "function"
    },
    {
      "inputs": [
        {
          "internalType": "address",
          "name": "operator",
          "type": "address"
        },
        {
          "internalType": "bool",
          "name": "approved",
          "type": "bool"
        }
      ],
      "name": "setApprovalForAll",
      "outputs": [],
      "stateMutability": "nonpayable",
      "type": "function"
    },
    {
      "inputs": [
        {
          "internalType": "address",
          "name": "daoTreasuryContract",
          "type": "address"
        }
      ],
      "name": "setDaoTreasury",
      "outputs": [],
      "stateMutability": "nonpayable",
      "type": "function"
    },
    {
      "inputs": [
        {
          "internalType": "uint256",
          "name": "quantity",
          "type": "uint256"
        }
      ],
      "name": "setOwnersExplicit",
      "outputs": [],
      "stateMutability": "nonpayable",
      "type": "function"
    },
    {
      "inputs": [
        {
          "internalType": "address",
          "name": "royaltyDistributerContract",
          "type": "address"
        }
      ],
      "name": "setRoyaltyReceiver",
      "outputs": [],
      "stateMutability": "nonpayable",
      "type": "function"
    },
    {
      "inputs": [
        {
          "internalType": "uint256",
          "name": "_upgradeRequestFeeInWei",
          "type": "uint256"
        }
      ],
      "name": "setUpgradeRequestFeeInWei",
      "outputs": [],
      "stateMutability": "nonpayable",
      "type": "function"
    },
    {
      "inputs": [],
      "name": "startPublicMinting",
      "outputs": [],
      "stateMutability": "nonpayable",
      "type": "function"
    },
    {
      "inputs": [],
      "name": "startWhiteListMinting",
      "outputs": [],
      "stateMutability": "nonpayable",
      "type": "function"
    },
    {
      "inputs": [
        {
          "internalType": "bytes4",
          "name": "interfaceId",
          "type": "bytes4"
        }
      ],
      "name": "supportsInterface",
      "outputs": [
        {
          "internalType": "bool",
          "name": "",
          "type": "bool"
        }
      ],
      "stateMutability": "view",
      "type": "function"
    },
    {
      "inputs": [],
      "name": "symbol",
      "outputs": [
        {
          "internalType": "string",
          "name": "",
          "type": "string"
        }
      ],
      "stateMutability": "view",
      "type": "function"
    },
    {
      "inputs": [
        {
          "internalType": "uint256",
          "name": "index",
          "type": "uint256"
        }
      ],
      "name": "tokenByIndex",
      "outputs": [
        {
          "internalType": "uint256",
          "name": "",
          "type": "uint256"
        }
      ],
      "stateMutability": "view",
      "type": "function"
    },
    {
      "inputs": [
        {
          "internalType": "uint16",
          "name": "",
          "type": "uint16"
        }
      ],
      "name": "tokenIsUpgraded",
      "outputs": [
        {
          "internalType": "bool",
          "name": "",
          "type": "bool"
        }
      ],
      "stateMutability": "view",
      "type": "function"
    },
    {
      "inputs": [
        {
          "internalType": "address",
          "name": "owner",
          "type": "address"
        },
        {
          "internalType": "uint256",
          "name": "index",
          "type": "uint256"
        }
      ],
      "name": "tokenOfOwnerByIndex",
      "outputs": [
        {
          "internalType": "uint256",
          "name": "",
          "type": "uint256"
        }
      ],
      "stateMutability": "view",
      "type": "function"
    },
    {
      "inputs": [
        {
          "internalType": "uint256",
          "name": "tokenId_",
          "type": "uint256"
        }
      ],
      "name": "tokenURI",
      "outputs": [
        {
          "internalType": "string",
          "name": "",
          "type": "string"
        }
      ],
      "stateMutability": "view",
      "type": "function"
    },
    {
      "inputs": [],
      "name": "totalSupply",
      "outputs": [
        {
          "internalType": "uint256",
          "name": "",
          "type": "uint256"
        }
      ],
      "stateMutability": "view",
      "type": "function"
    },
    {
      "inputs": [],
      "name": "transferEthToDao",
      "outputs": [],
      "stateMutability": "payable",
      "type": "function"
    },
    {
      "inputs": [
        {
          "internalType": "address",
          "name": "from",
          "type": "address"
        },
        {
          "internalType": "address",
          "name": "to",
          "type": "address"
        },
        {
          "internalType": "uint256",
          "name": "tokenId",
          "type": "uint256"
        }
      ],
      "name": "transferFrom",
      "outputs": [],
      "stateMutability": "nonpayable",
      "type": "function"
    },
    {
      "inputs": [
        {
          "internalType": "address",
          "name": "newOwner",
          "type": "address"
        }
      ],
      "name": "transferOwnership",
      "outputs": [],
      "stateMutability": "nonpayable",
      "type": "function"
    },
    {
      "inputs": [
        {
          "internalType": "string",
          "name": "GodCid",
          "type": "string"
        },
        {
          "internalType": "string",
          "name": "HumanCid",
          "type": "string"
        }
      ],
      "name": "updateCID",
      "outputs": [],
      "stateMutability": "nonpayable",
      "type": "function"
    },
    {
      "inputs": [],
      "name": "upgradeRequestFeeInWei",
      "outputs": [
        {
          "internalType": "uint256",
          "name": "",
          "type": "uint256"
        }
      ],
      "stateMutability": "view",
      "type": "function"
    },
    {
      "inputs": [
        {
          "internalType": "uint256",
          "name": "",
          "type": "uint256"
        }
      ],
      "name": "upgradeRequestFeeIsPaid",
      "outputs": [
        {
          "internalType": "bool",
          "name": "",
          "type": "bool"
        }
      ],
      "stateMutability": "view",
      "type": "function"
    },
    {
      "inputs": [
        {
          "internalType": "string",
          "name": "ipfsCid",
          "type": "string"
        },
        {
          "internalType": "uint16",
          "name": "tokenId",
          "type": "uint16"
        },
        {
          "internalType": "bool",
          "name": "isGodNow",
          "type": "bool"
        }
      ],
      "name": "upgradeToken",
      "outputs": [],
      "stateMutability": "nonpayable",
      "type": "function"
    },
    {
      "inputs": [
        {
          "internalType": "uint16",
          "name": "tokenId",
          "type": "uint16"
        }
      ],
      "name": "upgradeTokenRequestFee",
      "outputs": [],
      "stateMutability": "payable",
      "type": "function"
    },
    {
      "inputs": [
        {
          "internalType": "uint8",
          "name": "maxQuantity",
          "type": "uint8"
        },
        {
          "internalType": "uint8",
          "name": "quantity",
          "type": "uint8"
        },
        {
          "internalType": "enum CollectigameNFT.WhiteListType",
          "name": "whiteListType",
          "type": "uint8"
        },
        {
          "internalType": "bytes",
          "name": "sig",
          "type": "bytes"
        }
      ],
      "name": "whitelistMinting",
      "outputs": [],
      "stateMutability": "payable",
      "type": "function"
    },
    {
      "stateMutability": "payable",
      "type": "receive"
    }
  ],
  "bytecode": "0x60a060405260006008553480156200001657600080fd5b506040516200632e3803806200632e8339810160408190526200003991620007bf565b6002836040518060400160405280601181526020017044656d6d6f7274616c547265617375726560781b81525060405180604001604052806002815260200161111560f21b81525081600290805190602001906200009992919062000649565b508051620000af90600390602084019062000649565b50506000805550620000c181620002a9565b506009805460ff60a01b1916600160a01b60ff93909316929092029190911790556001600b556040805160c08101825260008082526020820181905281830181905260608083018290526080830182905260a0909201819052600d805465ffffffffffff1916905582516002808252928101909352919081602001602082028036833701905050905082816000815181106200016d57634e487b7160e01b600052603260045260246000fd5b60200260200101906001600160a01b031690816001600160a01b0316815250508181600181518110620001b057634e487b7160e01b600052603260045260246000fd5b6001600160a01b039290921660209283029190910182015260408051600280825260608201835260009391929091830190803683370190505090506000816000815181106200020f57634e487b7160e01b600052603260045260246000fd5b602002602001019060ff16908160ff16815250506001816001815181106200024757634e487b7160e01b600052603260045260246000fd5b60ff90921660209283029190910190910152620002658282620002fb565b87516200027a9060119060208b019062000649565b508651620002909060129060208a019062000649565b505050600c9390935550504260805250620008e6915050565b600980546001600160a01b038381166001600160a01b0319831681179093556040519116919082907f8be0079c531659141344cd1fd0a4f28419497f9722a3daafe3b4186f6b6457e090600090a35050565b8051825114620003785760405162461bcd60e51b815260206004820152603660248201527f746865206e756d626572206f662061646472657373657320616e64207468652060448201527f726f6c6520696473206d75737420626520657175616c0000000000000000000060648201526084015b60405180910390fd5b6009548251600160a01b90910460ff1614620003e25760405162461bcd60e51b815260206004820152602260248201527f726561636820746f206d6178206e756d626572206f6620617574686f72697469604482015261657360f01b60648201526084016200036f565b60005b82518160ff161015620006445760006001600160a01b0316600a6000848460ff16815181106200042557634e487b7160e01b600052603260045260246000fd5b60209081029190910181015160ff168252810191909152604001600020546001600160a01b0316146200049b5760405162461bcd60e51b815260206004820152601360248201527f726f6c6520616c7265616479206578697374730000000000000000000000000060448201526064016200036f565b600a6000838360ff1681518110620004c357634e487b7160e01b600052603260045260246000fd5b60209081029190910181015160ff90811683529082019290925260400160002060010154600160a01b900416156200053e5760405162461bcd60e51b815260206004820152601d60248201527f726f6c6520616c7265616479207573656420616e64207265766f6b656400000060448201526064016200036f565b6040518060600160405280848360ff16815181106200056d57634e487b7160e01b600052603260045260246000fd5b60200260200101516001600160a01b0316815260200160006001600160a01b0316815260200160001515815250600a6000848460ff1681518110620005c257634e487b7160e01b600052603260045260246000fd5b60209081029190910181015160ff168252818101929092526040908101600020835181546001600160a01b0319166001600160a01b039182161782559284015160019091018054949092015192166001600160a81b031990931692909217600160a01b91151591909102179055806200063b81620008a3565b915050620003e5565b505050565b828054620006579062000866565b90600052602060002090601f0160209004810192826200067b5760008555620006c6565b82601f106200069657805160ff1916838001178555620006c6565b82800160010185558215620006c6579182015b82811115620006c6578251825591602001919060010190620006a9565b50620006d4929150620006d8565b5090565b5b80821115620006d45760008155600101620006d9565b80516001600160a01b03811681146200070757600080fd5b919050565b600082601f8301126200071d578081fd5b81516001600160401b03808211156200073a576200073a620008d0565b604051601f8301601f19908116603f01168101908282118183101715620007655762000765620008d0565b8160405283815260209250868385880101111562000781578485fd5b8491505b83821015620007a4578582018301518183018401529082019062000785565b83821115620007b557848385830101525b9695505050505050565b60008060008060008060c08789031215620007d8578182fd5b86516001600160401b0380821115620007ef578384fd5b620007fd8a838b016200070c565b9750602089015191508082111562000813578384fd5b506200082289828a016200070c565b955050604087015193506200083a60608801620006ef565b92506200084a60808801620006ef565b91506200085a60a08801620006ef565b90509295509295509295565b600181811c908216806200087b57607f821691505b602082108114156200089d57634e487b7160e01b600052602260045260246000fd5b50919050565b600060ff821660ff811415620008c757634e487b7160e01b82526011600452602482fd5b60010192915050565b634e487b7160e01b600052604160045260246000fd5b608051615a1e6200091060003960008181610e6901528181614211015261425b0152615a1e6000f3fe6080604052600436106103c75760003560e01c806364b1152f116101f2578063a271e5251161010d578063d0b50d8e116100a0578063dd28e1ca1161006f578063dd28e1ca14610dde578063e985e9c514610e0e578063f17d076f14610e57578063f2fde38b14610e8b57610407565b8063d0b50d8e14610d80578063d514355514610da0578063d7224ba014610dc0578063d9c65cbc14610dd657610407565b8063b88d4fde116100dc578063b88d4fde14610d1a578063c046e13014610d3a578063c4f1634d14610d4d578063c87b56dd14610d6057610407565b8063a271e52514610bc4578063a39fac1214610bdb578063a80a783c14610c6d578063ae14d45d14610d0557610407565b8063953495ff116101855780639b643f68116101545780639b643f6814610b4f5780639da058e914610b6f578063a124df5d14610b84578063a22cb46514610ba457610407565b8063953495ff14610adf57806395d89b4114610afa578063965d08af14610b0f57806396a5d5ba14610b2f57610407565b80637fec1684116101c15780637fec1684146109fd5780638951454314610a815780638da5cb5b14610aa15780638dc251e314610abf57610407565b806364b1152f146109a057806370a08231146109b3578063715018a6146109d35780637d64bcb4146109e857610407565b80632fa3ce7d116102e25780634f6ccce7116102755780635cae01d3116102445780635cae01d3146109355780635fd78bbb1461094b57806360dc13a9146109605780636352211e1461098057610407565b80634f6ccce7146108945780635744d0f5146108b4578063579938a3146108d55780635a6c18f51461090557610407565b8063430ca46f116102b1578063430ca46f1461082a5780634a878e5f1461083f5780634c0e123b1461085f5780634f20b23e1461087457610407565b80632fa3ce7d146107ac57806332cb6b0c146107cc5780633acd6cb2146107f557806342842e0e1461080a57610407565b80631865c57d1161035a5780632a55205a116103295780632a55205a1461071a5780632d20fb60146107595780632db11544146107795780632f745c591461078c57610407565b80631865c57d146105bf5780631a2dac6e146106c45780631db16f20146106da57806323b872dd146106fa57610407565b80630bee5eb9116103965780630bee5eb9146105005780630e1e0ef51461050057806317dbb5321461052757806318160ddd1461059c57610407565b806301ffc9a71461044f57806306fdde0314610484578063081812fc146104a6578063095ea7b3146104de57610407565b366104075760405162461bcd60e51b815260206004820152600b60248201526a139bdd08105b1b1bddd95960aa1b60448201526064015b60405180910390fd5b60405162461bcd60e51b815260206004820152601360248201527f43616c6c2056616c69642046756e6374696f6e0000000000000000000000000060448201526064016103fe565b34801561045b57600080fd5b5061046f61046a366004615416565b610eab565b60405190151581526020015b60405180910390f35b34801561049057600080fd5b50610499610f33565b60405161047b91906157f8565b3480156104b257600080fd5b506104c66104c13660046155b7565b610fc5565b6040516001600160a01b03909116815260200161047b565b3480156104ea57600080fd5b506104fe6104f93660046152bc565b611009565b005b34801561050c57600080fd5b50610515600a81565b60405160ff909116815260200161047b565b34801561053357600080fd5b506105746105423660046155f0565b600a60205260009081526040902080546001909101546001600160a01b0391821691811690600160a01b900460ff1683565b604080516001600160a01b03948516815293909216602084015215159082015260600161047b565b3480156105a857600080fd5b50600154600054035b60405190815260200161047b565b3480156105cb57600080fd5b5061066c6040805160c081018252600080825260208201819052918101829052606081018290526080810182905260a0810191909152506040805160c081018252600d5460ff8082161515835261010082048116151560208401526201000082048116151593830193909352630100000081048316151560608301526401000000008104831615156080830152600160281b9004909116151560a082015290565b60405161047b9190600060c08201905082511515825260208301511515602083015260408301511515604083015260608301511515606083015260808301511515608083015260a0830151151560a083015292915050565b3480156106d057600080fd5b506105b1600c5481565b3480156106e657600080fd5b506104fe6106f53660046154e2565b6110b4565b34801561070657600080fd5b506104fe6107153660046151d2565b61134a565b34801561072657600080fd5b5061073a6107353660046155cf565b611355565b604080516001600160a01b03909316835260208301919091520161047b565b34801561076557600080fd5b506104fe6107743660046155b7565b611390565b6104fe6107873660046155b7565b61139c565b34801561079857600080fd5b506105b16107a73660046152bc565b6115cf565b3480156107b857600080fd5b506104fe6107c736600461559d565b61176e565b3480156107d857600080fd5b506107e2611e6181565b60405161ffff909116815260200161047b565b34801561080157600080fd5b506107e2600381565b34801561081657600080fd5b506104fe6108253660046151d2565b6119f0565b34801561083657600080fd5b506104fe611a0b565b34801561084b57600080fd5b506104fe61085a366004615481565b611b50565b34801561086b57600080fd5b506104fe611bf0565b34801561088057600080fd5b506104fe61088f366004615359565b611d41565b3480156108a057600080fd5b506105b16108af3660046155b7565b611f99565b3480156108c057600080fd5b5060095461051590600160a01b900460ff1681565b3480156108e157600080fd5b5061046f6108f036600461559d565b60156020526000908152604090205460ff1681565b34801561091157600080fd5b5061046f61092036600461559d565b60176020526000908152604090205460ff1681565b34801561094157600080fd5b506105b161025881565b34801561095757600080fd5b50610515600181565b34801561096c57600080fd5b506105b161097b3660046155f0565b612006565b34801561098c57600080fd5b506104c661099b3660046155b7565b612131565b6104fe6109ae36600461559d565b612143565b3480156109bf57600080fd5b506105b16109ce36600461518f565b612340565b3480156109df57600080fd5b506104fe61238f565b3480156109f457600080fd5b506104fe6123f5565b348015610a0957600080fd5b50610a51610a183660046155b7565b6004602052600090815260409020546001600160a01b03811690600160a01b810467ffffffffffffffff1690600160e01b900460ff1683565b604080516001600160a01b03909416845267ffffffffffffffff909216602084015215159082015260600161047b565b348015610a8d57600080fd5b506104fe610a9c36600461544e565b612502565b348015610aad57600080fd5b506009546001600160a01b03166104c6565b348015610acb57600080fd5b506104fe610ada36600461518f565b612628565b348015610aeb57600080fd5b506105b166f8b0a10e47000081565b348015610b0657600080fd5b506104996126e5565b348015610b1b57600080fd5b506104fe610b2a3660046155f0565b6126f4565b348015610b3b57600080fd5b506104fe610b4a36600461560a565b6127d0565b348015610b5b57600080fd5b5061046f610b6a3660046152e5565b612979565b348015610b7b57600080fd5b506104fe612aa1565b348015610b9057600080fd5b506104fe610b9f36600461518f565b612c09565b348015610bb057600080fd5b506104fe610bbf366004615286565b612c8b565b348015610bd057600080fd5b506105b16201518081565b348015610be757600080fd5b50610c3b60408051606081018252600080825260208201819052918101919091525060408051606081018252600e546001600160a01b039081168252600f5481166020830152601054169181019190915290565b6040805182516001600160a01b039081168252602080850151821690830152928201519092169082015260600161047b565b348015610c7957600080fd5b50610cca610c883660046155f0565b601860205260009081526040902080546001820154600283015460038401546004850154600586015460069096015460ff958616969495939492939192911687565b6040805160ff90981688526020880196909652948601939093526060850191909152608084015260a0830152151560c082015260e00161047b565b348015610d1157600080fd5b50610515600081565b348015610d2657600080fd5b506104fe610d3536600461520d565b612d21565b6104fe610d48366004615625565b612d72565b6104fe610d5b3660046155f0565b613063565b348015610d6c57600080fd5b50610499610d7b3660046155b7565b6133bd565b348015610d8c57600080fd5b506104fe610d9b3660046155b7565b6134d6565b348015610dac57600080fd5b506104fe610dbb3660046155f0565b6135c7565b348015610dcc57600080fd5b506105b160085481565b6104fe613657565b348015610dea57600080fd5b5061046f610df93660046155b7565b60196020526000908152604090205460ff1681565b348015610e1a57600080fd5b5061046f610e293660046151a9565b6001600160a01b03918216600090815260076020908152604080832093909416825291909152205460ff1690565b348015610e6357600080fd5b506105b17f000000000000000000000000000000000000000000000000000000000000000081565b348015610e9757600080fd5b506104fe610ea636600461518f565b613765565b60006001600160e01b031982166380ac58cd60e01b1480610edc57506001600160e01b03198216635b5e139f60e01b145b80610ef757506001600160e01b0319821663780e9d6360e01b145b80610f1257506001600160e01b0319821663152a902d60e11b145b80610f2d57506301ffc9a760e01b6001600160e01b03198316145b92915050565b606060028054610f42906158be565b80601f0160208091040260200160405190810160405280929190818152602001828054610f6e906158be565b8015610fbb5780601f10610f9057610100808354040283529160200191610fbb565b820191906000526020600020905b815481529060010190602001808311610f9e57829003601f168201915b5050505050905090565b6000610fd08261382d565b610fed576040516333d1c03960e21b815260040160405180910390fd5b506000908152600660205260409020546001600160a01b031690565b600061101482612131565b9050806001600160a01b0316836001600160a01b031614156110495760405163250fdee360e21b815260040160405180910390fd5b336001600160a01b0382161480159061108657506001600160a01b038116600090815260076020908152604080832033845290915290205460ff16155b156110a4576040516367d9dca160e11b815260040160405180910390fd5b6110af838383613858565b505050565b600d54600160281b900460ff166110fc5760405162461bcd60e51b815260206004820152600c60248201526b139bdd08119a5b9a5cda195960a21b60448201526064016103fe565b600d5460ff166111405760405162461bcd60e51b815260206004820152600f60248201526e139bdd08125b9a5d1a585b1a5e9959608a1b60448201526064016103fe565b6000808052600a6020526000805160206159c9833981519152546001600160a01b0316331461119f5760405162461bcd60e51b815260206004820152601860248201526000805160206159a983398151915260448201526064016103fe565b61ffff8316600090815260176020526040902054839060ff16156111f35760405162461bcd60e51b815260206004820152600b60248201526a4f6e6c792048756d616e7360a81b60448201526064016103fe565b8451806112315760405162461bcd60e51b815260206004820152600c60248201526b43494420697320656d70747960a01b60448201526064016103fe565b61ffff851660009081526019602052604090205460ff166112945760405162461bcd60e51b815260206004820152601c60248201527f55706772616465205265717565737420466565204e6f7420506169640000000060448201526064016103fe565b61ffff85166000908152601960209081526040808320805460ff191690556016825290912087516112c792890190614fda565b5061ffff85166000908152601560205260409020805460ff19166001179055831561130b5761ffff85166000908152601760205260409020805460ff191660011790555b60405161ffff861681527f02375e2ab6ce816f82cbad1e57b14c842f3079a43885dcdfbdbebec69baee0c29060200160405180910390a1505050505050565b6110af8383836138b4565b6014546001600160a01b0381169060009060649061137d90600160a01b900460ff168561585c565b6113879190615848565b90509250929050565b61139981613ae7565b50565b600d546301000000900460ff166113e55760405162461bcd60e51b815260206004820152600d60248201526c139bdd081058dd1a5d985d1959609a1b60448201526064016103fe565b611e61816113f260005490565b6113fc919061580b565b11156114425760405162461bcd60e51b81526020600482015260156024820152745265636569766520546f204d617820537570706c7960581b60448201526064016103fe565b60038161144e33613ccc565b611458919061580b565b11156114a65760405162461bcd60e51b815260206004820152601f60248201527f5265636569766520546f204d6178204d696e742050657220416464726573730060448201526064016103fe565b346114b866f8b0a10e4700008361585c565b11156114fa5760405162461bcd60e51b81526020600482015260116024820152702737ba1022b737bab3b4399022ba3432b960791b60448201526064016103fe565b6115043382613d27565b600e54604051634d4ffdef60e11b815234600482018190526000926001600160a01b031691639a9ffbde91906024015b6020604051808303818588803b15801561154d57600080fd5b505af1158015611561573d6000803e3d6000fd5b50505050506040513d601f19601f8201168201806040525081019061158691906153fa565b9050806115cb5760405162461bcd60e51b8152602060048201526013602482015272195d1a081d1c985b9cd9995c8819985a5b1959606a1b60448201526064016103fe565b5050565b60006115da83612340565b82106116335760405162461bcd60e51b815260206004820152602260248201527f455243373231413a206f776e657220696e646578206f7574206f6620626f756e604482015261647360f01b60648201526084016103fe565b60006116426001546000540390565b905060008060005b838110156116ff57600081815260046020908152604091829020825160608101845290546001600160a01b038116808352600160a01b820467ffffffffffffffff1693830193909352600160e01b900460ff16151592810192909252156116b057805192505b876001600160a01b0316836001600160a01b031614156116ec57868414156116de57509350610f2d92505050565b836116e8816158f3565b9450505b50806116f7816158f3565b91505061164a565b5060405162461bcd60e51b815260206004820152602e60248201527f455243373231413a20756e61626c6520746f2067657420746f6b656e206f662060448201527f6f776e657220627920696e64657800000000000000000000000000000000000060648201526084016103fe565b61ffff8116600090815260176020526040902054819060ff16156117c25760405162461bcd60e51b815260206004820152600b60248201526a4f6e6c792048756d616e7360a81b60448201526064016103fe565b6002600b5414156118155760405162461bcd60e51b815260206004820152601f60248201527f5265656e7472616e637947756172643a207265656e7472616e742063616c6c0060448201526064016103fe565b6002600b55600d5460ff1661185e5760405162461bcd60e51b815260206004820152600f60248201526e139bdd08125b9a5d1a585b1a5e9959608a1b60448201526064016103fe565b61186b8261ffff1661382d565b6118aa5760405162461bcd60e51b815260206004820152601060248201526f546f6b656e204e6f742045786973747360801b60448201526064016103fe565b60006118b98361ffff16613d41565b80519091506001600160a01b031633146119045760405162461bcd60e51b815260206004820152600c60248201526b24b9902737ba1027bbb732b960a11b60448201526064016103fe565b6119118361ffff16613e5d565b600e548151604051635b33720360e11b81526001600160a01b039182166004820152600092919091169063b666e40690602401602060405180830381600087803b15801561195e57600080fd5b505af1158015611972573d6000803e3d6000fd5b505050506040513d601f19601f8201168201806040525081019061199691906153fa565b9050806119e55760405162461bcd60e51b815260206004820152600e60248201527f6275796261636b206661696c656400000000000000000000000000000000000060448201526064016103fe565b50506001600b555050565b6110af83838360405180602001604052806000815250612d21565b6000808052600a6020526000805160206159c9833981519152546001600160a01b03163314611a6a5760405162461bcd60e51b815260206004820152601860248201526000805160206159a983398151915260448201526064016103fe565b600d54600160281b900460ff1615611ab75760405162461bcd60e51b815260206004820152601060248201526f105b1c9958591e48119a5b9a5cda195960821b60448201526064016103fe565b600d5460ff16611afb5760405162461bcd60e51b815260206004820152600f60248201526e139bdd08125b9a5d1a585b1a5e9959608a1b60448201526064016103fe565b600d54610100900460ff16611b425760405162461bcd60e51b815260206004820152600d60248201526c139bdd081058dd1a5d985d1959609a1b60448201526064016103fe565b50600d805461ff0019169055565b6000808052600a6020526000805160206159c9833981519152546001600160a01b03163314611baf5760405162461bcd60e51b815260206004820152601860248201526000805160206159a983398151915260448201526064016103fe565b82518015611bcc578351611bca906011906020870190614fda565b505b82518015611be9578351611be7906013906020870190614fda565b505b5050505050565b6000808052600a6020526000805160206159c9833981519152546001600160a01b03163314611c4f5760405162461bcd60e51b815260206004820152601860248201526000805160206159a983398151915260448201526064016103fe565b600d5460ff16611c935760405162461bcd60e51b815260206004820152600f60248201526e139bdd08125b9a5d1a585b1a5e9959608a1b60448201526064016103fe565b600d54600160281b900460ff1615611ce05760405162461bcd60e51b815260206004820152601060248201526f105b1c9958591e48119a5b9a5cda195960821b60448201526064016103fe565b600d5462010000900460ff1615611d2d5760405162461bcd60e51b8152602060048201526011602482015270105b1c9958591e481058dd1a5d985d1959607a1b60448201526064016103fe565b50600d805462ff0000191662010000179055565b6000808052600a6020526000805160206159c9833981519152546001600160a01b03163314611da05760405162461bcd60e51b815260206004820152601860248201526000805160206159a983398151915260448201526064016103fe565b600d5460ff1615611df35760405162461bcd60e51b815260206004820152601360248201527f416c726561647920496e697469616c697a65640000000000000000000000000060448201526064016103fe565b600d54600160281b900460ff1615611e405760405162461bcd60e51b815260206004820152601060248201526f105b1c9958591e48119a5b9a5cda195960821b60448201526064016103fe565b600d54610100900460ff1615611e8c5760405162461bcd60e51b8152602060048201526011602482015270105b1c9958591e481058dd1a5d985d1959607a1b60448201526064016103fe565b600d805460ff1916600117905560408051602080880282018101909252868152611ef29188908890819060009085015b82821015611ee857611ed960608302860136819003810190615542565b81526020019060010190611ebc565b5050505050613ffc565b600d805461010061ff0019909116179055604080516060810182526001600160a01b038681168083528582166020808501829052928816938501849052600e80546001600160a01b03199081169093179055600f80548316909117905560108054909116831790558251808401909352818352600a9201919091526014805474ffffffffffffffffffffffffffffffffffffffffff1916909117600560a11b179055611be7565b6000611fa86001546000540390565b82106120025760405162461bcd60e51b815260206004820152602360248201527f455243373231413a20676c6f62616c20696e646578206f7574206f6620626f756044820152626e647360e81b60648201526084016103fe565b5090565b600d54600090610100900460ff166120505760405162461bcd60e51b815260206004820152600d60248201526c139bdd081058dd1a5d985d1959609a1b60448201526064016103fe565b8160ff166001111580156120685750600a60ff831611155b6120b45760405162461bcd60e51b815260206004820152601360248201527f646179206973206f7574206f662072616e67650000000000000000000000000060448201526064016103fe565b60ff808316600090815260186020908152604091829020825160e0810184528154851681526001820154928101929092526002810154928201929092526003820154606082015260048201546080820152600582015460a0820152600690910154909116151560c0820152612128816143dc565b9150505b919050565b600061213c82613d41565b5192915050565b600d54600160281b900460ff1661218b5760405162461bcd60e51b815260206004820152600c60248201526b139bdd08119a5b9a5cda195960a21b60448201526064016103fe565b600d5460ff166121cf5760405162461bcd60e51b815260206004820152600f60248201526e139bdd08125b9a5d1a585b1a5e9959608a1b60448201526064016103fe565b61ffff8116600090815260176020526040902054819060ff16156122235760405162461bcd60e51b815260206004820152600b60248201526a4f6e6c792048756d616e7360a81b60448201526064016103fe565b6122308261ffff1661382d565b61226f5760405162461bcd60e51b815260206004820152601060248201526f546f6b656e204e6f742045786973747360801b60448201526064016103fe565b34600c5411156122b55760405162461bcd60e51b81526020600482015260116024820152702737ba1022b737bab3b4399022ba3432b960791b60448201526064016103fe565b61ffff821660009081526019602090815260408220805460ff19166001179055908052600a90526000805160206159c9833981519152546001600160a01b03166122ff8134614492565b6040805161ffff851681523460208201527f0154c2dfb98437384198b52913095489510f87da0fcc18a7a76717706e1d0085910160405180910390a1505050565b60006001600160a01b038216612369576040516323d3ad8160e21b815260040160405180910390fd5b506001600160a01b031660009081526005602052604090205467ffffffffffffffff1690565b6009546001600160a01b031633146123e95760405162461bcd60e51b815260206004820181905260248201527f4f776e61626c653a2063616c6c6572206973206e6f7420746865206f776e657260448201526064016103fe565b6123f36000614535565b565b6000808052600a6020526000805160206159c9833981519152546001600160a01b031633146124545760405162461bcd60e51b815260206004820152601860248201526000805160206159a983398151915260448201526064016103fe565b600d54600160281b900460ff16156124a15760405162461bcd60e51b815260206004820152601060248201526f105b1c9958591e48119a5b9a5cda195960821b60448201526064016103fe565b600d546301000000900460ff166124ea5760405162461bcd60e51b815260206004820152600d60248201526c139bdd081058dd1a5d985d1959609a1b60448201526064016103fe565b50600d805465ff00ffffff001916600160281b179055565b6000808052600a6020526000805160206159c9833981519152546001600160a01b031633146125615760405162461bcd60e51b815260206004820152601860248201526000805160206159a983398151915260448201526064016103fe565b600d54640100000000900460ff16156125bc5760405162461bcd60e51b815260206004820152601060248201527f416c72656164792052657665616c65640000000000000000000000000000000060448201526064016103fe565b8151806125fa5760405162461bcd60e51b815260206004820152600c60248201526b43494420497320456d70747960a01b60448201526064016103fe565b825161260d906013906020860190614fda565b5050600d805464ff0000000019166401000000001790555050565b6000808052600a6020526000805160206159c9833981519152546001600160a01b031633146126875760405162461bcd60e51b815260206004820152601860248201526000805160206159a983398151915260448201526064016103fe565b601080546001600160a01b0319166001600160a01b03841690811790915560408051808201909152818152600a6020909101526014805474ffffffffffffffffffffffffffffffffffffffffff1916909117600560a11b1790555050565b606060038054610f42906158be565b60ff81166000908152600a60205260409020600101546001600160a01b031633146127615760405162461bcd60e51b815260206004820152601660248201527f63616c6c6572206973206e6f742070726f706f7365640000000000000000000060448201526064016103fe565b60ff81166000818152600a602052604080822080546001820180546001600160a01b038082166001600160a01b03198086168217909655949091169091559251921693909284927f75d4894fae1c15d56c47e57d8fd94120a15786f520ddf423b53d7bee9324ee4b9190a45050565b60ff82166000908152600a602052604090205482906001600160a01b0316331461282a5760405162461bcd60e51b815260206004820152601860248201526000805160206159a983398151915260448201526064016103fe565b6001600160a01b0382166128805760405162461bcd60e51b815260206004820152601b60248201527f70726f706f7365642061646472657373206973206e6f7420736574000000000060448201526064016103fe565b60ff83166000908152600a60205260409020546001600160a01b03838116911614156129145760405162461bcd60e51b815260206004820152603660248201527f70726f706f7365642061646472657373206973206e6f7420646966666572656e60448201527f742066726f6d2063757272656e7420616464726573730000000000000000000060648201526084016103fe565b60ff83166000818152600a60205260408082206001810180546001600160a01b0319166001600160a01b038881169182179092559154925191949216927fec584e355ff3c59e7a9d34bfb18dec6a0db876a29b47afa136b8acbed3b62d2491a4505050565b600d5460009060ff166129c05760405162461bcd60e51b815260206004820152600f60248201526e139bdd08125b9a5d1a585b1a5e9959608a1b60448201526064016103fe565b6000612a3a8787876040516020016129da93929190615709565b60408051601f1981840301815282825280516020918201207f19457468657265756d205369676e6564204d6573736167653a0a33320000000084830152603c8085019190915282518085039091018152605c909301909152815191012090565b600f54604080516020601f88018190048102820181019092528681529293506001600160a01b0390911691612a8c91849190889088908190840183828082843760009201919091525061458792505050565b6001600160a01b031614979650505050505050565b6000808052600a6020526000805160206159c9833981519152546001600160a01b03163314612b005760405162461bcd60e51b815260206004820152601860248201526000805160206159a983398151915260448201526064016103fe565b600d54600160281b900460ff1615612b4d5760405162461bcd60e51b815260206004820152601060248201526f105b1c9958591e48119a5b9a5cda195960821b60448201526064016103fe565b600d546301000000900460ff1615612b9b5760405162461bcd60e51b8152602060048201526011602482015270105b1c9958591e481058dd1a5d985d1959607a1b60448201526064016103fe565b600d5462010000900460ff16612bf35760405162461bcd60e51b815260206004820152600e60248201527f5072696f7269747920497373756500000000000000000000000000000000000060448201526064016103fe565b50600d805463ff00000019166301000000179055565b6000808052600a6020526000805160206159c9833981519152546001600160a01b03163314612c685760405162461bcd60e51b815260206004820152601860248201526000805160206159a983398151915260448201526064016103fe565b50600e80546001600160a01b0319166001600160a01b0392909216919091179055565b6001600160a01b038216331415612cb55760405163b06307db60e01b815260040160405180910390fd5b3360008181526007602090815260408083206001600160a01b03871680855290835292819020805460ff191686151590811790915590519081529192917f17307eab39ab6107e8899845ad3d59bd9653f200f220920489ca2b5937696c31910160405180910390a35050565b612d2c8484846138b4565b6001600160a01b0383163b15158015612d4e5750612d4c848484846145ab565b155b15612d6c576040516368d2bf6b60e11b815260040160405180910390fd5b50505050565b600d5462010000900460ff16612dba5760405162461bcd60e51b815260206004820152600d60248201526c139bdd081058dd1a5d985d1959609a1b60448201526064016103fe565b612dc73386858585612979565b612e035760405162461bcd60e51b815260206004820152600d60248201526c426164205369676e617475726560981b60448201526064016103fe565b611e6160ff8516612e1360005490565b612e1d919061580b565b1115612e635760405162461bcd60e51b81526020600482015260156024820152745265636569766520546f204d617820537570706c7960581b60448201526064016103fe565b6000612e6e336146a2565b905060ff8616612e7e8683615823565b60ff161115612ecf5760405162461bcd60e51b815260206004820152601760248201527f5265636569766520546f204d6178205175616e7469747900000000000000000060448201526064016103fe565b6001846001811115612ef157634e487b7160e01b600052602160045260246000fd5b1415612f1c57612f0a33612f058784615823565b6146f1565b612f17338660ff16613d27565b612f8e565b34612f3166f8b0a10e47000060ff881661585c565b1115612f735760405162461bcd60e51b81526020600482015260116024820152702737ba1022b737bab3b4399022ba3432b960791b60448201526064016103fe565b612f8133612f058784615823565b612f8e338660ff16613d27565b3415611be757600e54604051634d4ffdef60e11b815234600482018190526000926001600160a01b031691639a9ffbde91906024016020604051808303818588803b158015612fdc57600080fd5b505af1158015612ff0573d6000803e3d6000fd5b50505050506040513d601f19601f8201168201806040525081019061301591906153fa565b90508061305a5760405162461bcd60e51b8152602060048201526013602482015272195d1a081d1c985b9cd9995c8819985a5b1959606a1b60448201526064016103fe565b50505050505050565b600d54610100900460ff166130aa5760405162461bcd60e51b815260206004820152600d60248201526c139bdd081058dd1a5d985d1959609a1b60448201526064016103fe565b8060ff166001111580156130c25750600a60ff821611155b61310e5760405162461bcd60e51b815260206004820152601360248201527f446179204973204f7574204f662052616e67650000000000000000000000000060448201526064016103fe565b60ff81166000908152601860205260409020600101544210156131735760405162461bcd60e51b815260206004820152600f60248201527f4e6f74205374617274656420596574000000000000000000000000000000000060448201526064016103fe565b60ff81166000908152601860205260409020600201544211156131c25760405162461bcd60e51b8152602060048201526007602482015266115e1c1a5c995960ca1b60448201526064016103fe565b60ff8082166000908152601860209081526040808320815160e081018352815486168082526001830154948201949094526002820154928101929092526003810154606083015260048101546080830152600581015460a083015260060154909316151560c084015261323490613d41565b60016000908152600a6020527fbbc70db1b6c7afd11e79c0fb0051300458f1a3acb8ee9789d9b6b26c61ad9bc7549192506001600160a01b039091169061327a846143dc565b9050816001600160a01b031683600001516001600160a01b0316146132d65760405162461bcd60e51b81526020600482015260126024820152712130b21024b734ba34b0b634bd30ba34b7b760711b60448201526064016103fe565b808460800151111561332a5760405162461bcd60e51b815260206004820152601560248201527f5265636569766520546f2042617365205072696365000000000000000000000060448201526064016103fe565b3481111561337a5760405162461bcd60e51b815260206004820152601060248201527f4e6f7420456e6f7567682045746865720000000000000000000000000000000060448201526064016103fe565b61338c8233866000015160ff1661474f565b6133968234614492565b50505060ff9091166000908152601860205260409020600601805460ff1916600117905550565b60606133c88261382d565b6134075760405162461bcd60e51b815260206004820152601060248201526f546f6b656e204e6f742045786973747360801b60448201526064016103fe565b61ffff8216600090815260156020526040902054829060ff16156134605761ffff8116600090815260166020908152604091829020915161344992910161577e565b604051602081830303815290604052915050919050565b61ffff811660009081526017602052604090205460ff161561349c57601161348b61ffff83166148d5565b60405160200161344992919061578a565b600d54640100000000900460ff16156134be57601361348b61ffff83166148d5565b6040516134499060129060200161577e565b50919050565b6000808052600a6020526000805160206159c9833981519152546001600160a01b031633146135355760405162461bcd60e51b815260206004820152601860248201526000805160206159a983398151915260448201526064016103fe565b600d54600160281b900460ff1661357d5760405162461bcd60e51b815260206004820152600c60248201526b139bdd08119a5b9a5cda195960a21b60448201526064016103fe565b600d5460ff166135c15760405162461bcd60e51b815260206004820152600f60248201526e139bdd08125b9a5d1a585b1a5e9959608a1b60448201526064016103fe565b50600c55565b60ff81166000908152600a602052604090205481906001600160a01b031633146136215760405162461bcd60e51b815260206004820152601860248201526000805160206159a983398151915260448201526064016103fe565b5060ff166000908152600a6020526040902080546001600160a01b0319168155600101805460ff60a01b1916600160a01b179055565b600d54600160281b900460ff1661369f5760405162461bcd60e51b815260206004820152600c60248201526b139bdd08119a5b9a5cda195960a21b60448201526064016103fe565b600d5460ff166136e35760405162461bcd60e51b815260206004820152600f60248201526e139bdd08125b9a5d1a585b1a5e9959608a1b60448201526064016103fe565b47806137315760405162461bcd60e51b815260206004820152601860248201527f436f6e74726163742042616c616e6365206973205a65726f000000000000000060448201526064016103fe565b600e5460405163f5c79d3d60e01b8152600481018390526000916001600160a01b03169063f5c79d3d908490602401611534565b6009546001600160a01b031633146137bf5760405162461bcd60e51b815260206004820181905260248201527f4f776e61626c653a2063616c6c6572206973206e6f7420746865206f776e657260448201526064016103fe565b6001600160a01b0381166138245760405162461bcd60e51b815260206004820152602660248201527f4f776e61626c653a206e6577206f776e657220697320746865207a65726f206160448201526564647265737360d01b60648201526084016103fe565b61139981614535565b6000805482108015610f2d575050600090815260046020526040902054600160e01b900460ff161590565b60008281526006602052604080822080546001600160a01b0319166001600160a01b0387811691821790925591518593918516917f8c5be1e5ebec7d5bd14f71427d1e84f3dd0314c0f7b2291e5b200ac8c7c3b92591a4505050565b60006138bf82613d41565b9050600081600001516001600160a01b0316336001600160a01b0316148061390b575081516001600160a01b0316600090815260076020908152604080832033845290915290205460ff165b8061392657503361391b84610fc5565b6001600160a01b0316145b90508061394657604051632ce44b5f60e11b815260040160405180910390fd5b846001600160a01b031682600001516001600160a01b03161461397b5760405162a1148160e81b815260040160405180910390fd5b6001600160a01b0384166139a257604051633a954ecd60e21b815260040160405180910390fd5b6139b26000848460000151613858565b6001600160a01b038581166000908152600560209081526040808320805467ffffffffffffffff1980821667ffffffffffffffff92831660001901831617909255898616808652838620805493841693831660019081018416949094179055898652600490945282852080546001600160e01b031916909417600160a01b429092169190910217909255908601808352912054909116613a9e57600054811015613a9e578251600082815260046020908152604090912080549186015167ffffffffffffffff16600160a01b026001600160e01b03199092166001600160a01b03909316929092171790555b5082846001600160a01b0316866001600160a01b03167fddf252ad1be2c89b69c2b068fc378daa952ba7f163c4a11628f55a4df523b3ef60405160405180910390a45050505050565b60085481613b375760405162461bcd60e51b815260206004820152601860248201527f7175616e74697479206d757374206265206e6f6e7a65726f000000000000000060448201526064016103fe565b60006001613b45848461580b565b613b4f919061587b565b90506001613b5c60005490565b613b66919061587b565b811115613b85576001613b7860005490565b613b82919061587b565b90505b613b8e8161382d565b613be95760405162461bcd60e51b815260206004820152602660248201527f6e6f7420656e6f756768206d696e7465642079657420666f722074686973206360448201526506c65616e75760d41b60648201526084016103fe565b815b818111613cb8576000818152600460205260409020546001600160a01b0316613ca6576000613c1982613d41565b6040805160608101825282516001600160a01b03908116825260208085015167ffffffffffffffff908116828501908152958501511515848601908152600089815260049093529490912092518354955194511515600160e01b0260ff60e01b1995909216600160a01b026001600160e01b03199096169216919091179390931791909116919091179055505b80613cb0816158f3565b915050613beb565b50613cc481600161580b565b600855505050565b60006001600160a01b038216613cf5576040516335ebb31960e01b815260040160405180910390fd5b506001600160a01b031660009081526005602052604090205468010000000000000000900467ffffffffffffffff1690565b6115cb828260405180602001604052806000815250614a07565b604080516060810182526000808252602082018190529181019190915281600054811015613e4457600081815260046020908152604091829020825160608101845290546001600160a01b0381168252600160a01b810467ffffffffffffffff1692820192909252600160e01b90910460ff16151591810182905290613e425780516001600160a01b031615613dd8579392505050565b5060001901600081815260046020908152604091829020825160608101845290546001600160a01b038116808352600160a01b820467ffffffffffffffff1693830193909352600160e01b900460ff1615159281019290925215613e3d579392505050565b613dd8565b505b604051636f96cda160e11b815260040160405180910390fd5b6000613e6882613d41565b9050613e7a6000838360000151613858565b80516001600160a01b039081166000908152600560209081526040808320805467ffffffffffffffff19811667ffffffffffffffff9182166000190182161790915585518516845281842080547fffffffffffffffff0000000000000000ffffffffffffffffffffffffffffffff81167001000000000000000000000000000000009182900484166001908101851690920217909155865188865260049094528285208054600160e01b9588166001600160e01b031990911617600160a01b42909416939093029290921760ff60e01b1916939093179055908501808352912054909116613fb457600054811015613fb4578151600082815260046020908152604090912080549185015167ffffffffffffffff16600160a01b026001600160e01b03199092166001600160a01b03909316929092171790555b50805160405183916000916001600160a01b03909116907fddf252ad1be2c89b69c2b068fc378daa952ba7f163c4a11628f55a4df523b3ef908390a450506001805481019055565b611e61600a61400a60005490565b614014919061580b565b111561405a5760405162461bcd60e51b81526020600482015260156024820152745265636569766520546f204d617820537570706c7960581b60448201526064016103fe565b8051600a146140ab5760405162461bcd60e51b815260206004820152601260248201527f42616420436f6e66696773204c656e677468000000000000000000000000000060448201526064016103fe565b6001600052600a60208190527fbbc70db1b6c7afd11e79c0fb0051300458f1a3acb8ee9789d9b6b26c61ad9bc7546001600160a01b0316906140ee908290613d27565b600a6140f960005490565b1461413b5760405162461bcd60e51b81526020600482015260126024820152712130b21024b734ba34b0b634bd30ba34b7b760711b60448201526064016103fe565b60005b600a60ff821610156110af57828160ff168151811061416d57634e487b7160e01b600052603260045260246000fd5b602002602001015160200151838260ff168151811061419c57634e487b7160e01b600052603260045260246000fd5b602002602001015160000151116141e35760405162461bcd60e51b815260206004820152600b60248201526a42616420436f6e6669677360a81b60448201526064016103fe565b60006040518060e001604052808360ff1681526020018360ff166201518061420b919061585c565b614235907f000000000000000000000000000000000000000000000000000000000000000061580b565b8152602001614245846001615823565b6142559060ff166201518061585c565b61427f907f000000000000000000000000000000000000000000000000000000000000000061580b565b8152602001858460ff16815181106142a757634e487b7160e01b600052603260045260246000fd5b6020026020010151600001518152602001858460ff16815181106142db57634e487b7160e01b600052603260045260246000fd5b6020026020010151602001518152602001858460ff168151811061430f57634e487b7160e01b600052603260045260246000fd5b6020026020010151604001518152602001600015158152509050806018600084600161433b9190615823565b60ff9081168252602080830193909352604091820160009081208551815490841660ff1991821617825586860151600180840191909155878601516002840155606088015160038401556080880151600484015560a0880151600584015560c09097015160069092018054921515928216929092179091559187168152601790935291208054909116909117905550806143d48161590e565b91505061413e565b60008160c001511561441f5760405162461bcd60e51b815260206004820152600c60248201526b105b1c9958591e4814dbdb1960a21b60448201526064016103fe565b816020015142101561443357506060015190565b816040015142111561444757506080015190565b6000826020015142614459919061587b565b9050600061446961025883615848565b90508360a001518161447b919061585c565b846060015161448a919061587b565b949350505050565b60405182906000906001600160a01b0383169084908381818185875af1925050503d80600081146144df576040519150601f19603f3d011682016040523d82523d6000602084013e6144e4565b606091505b5050905080612d6c5760405162461bcd60e51b815260206004820152600f60248201527f5472616e73666572204661696c6564000000000000000000000000000000000060448201526064016103fe565b600980546001600160a01b038381166001600160a01b0319831681179093556040519116919082907f8be0079c531659141344cd1fd0a4f28419497f9722a3daafe3b4186f6b6457e090600090a35050565b60008060006145968585614a14565b915091506145a381614a84565b509392505050565b604051630a85bd0160e11b81526000906001600160a01b0385169063150b7a02906145e09033908990889088906004016157bc565b602060405180830381600087803b1580156145fa57600080fd5b505af192505050801561462a575060408051601f3d908101601f1916820190925261462791810190615432565b60015b614685573d808015614658576040519150601f19603f3d011682016040523d82523d6000602084013e61465d565b606091505b50805161467d576040516368d2bf6b60e11b815260040160405180910390fd5b805181602001fd5b6001600160e01b031916630a85bd0160e11b149050949350505050565b60006001600160a01b0382166146cb5760405163561b93dd60e11b815260040160405180910390fd5b506001600160a01b0316600090815260056020526040902054600160c01b900460ff1690565b6001600160a01b0382166147185760405163561b93dd60e11b815260040160405180910390fd5b6001600160a01b039091166000908152600560205260409020805460ff909216600160c01b0260ff60c01b19909216919091179055565b600061475a82613d41565b9050836001600160a01b031681600001516001600160a01b0316146147915760405162a1148160e81b815260040160405180910390fd5b6147a16000838360000151613858565b6001600160a01b038481166000908152600560209081526040808320805467ffffffffffffffff1980821667ffffffffffffffff92831660001901831617909255888616808652838620805493841693831660019081018416949094179055888652600490945282852080546001600160e01b031916909417600160a01b42909216919091021790925590850180835291205490911661488d5760005481101561488d578151600082815260046020908152604090912080549185015167ffffffffffffffff16600160a01b026001600160e01b03199092166001600160a01b03909316929092171790555b5081836001600160a01b0316856001600160a01b03167fddf252ad1be2c89b69c2b068fc378daa952ba7f163c4a11628f55a4df523b3ef60405160405180910390a450505050565b6060816148f95750506040805180820190915260018152600360fc1b602082015290565b8160005b8115614923578061490d816158f3565b915061491c9050600a83615848565b91506148fd565b60008167ffffffffffffffff81111561494c57634e487b7160e01b600052604160045260246000fd5b6040519080825280601f01601f191660200182016040528015614976576020820181803683370190505b5090505b841561448a5761498b60018361587b565b9150614998600a8661592e565b6149a390603061580b565b60f81b8183815181106149c657634e487b7160e01b600052603260045260246000fd5b60200101907effffffffffffffffffffffffffffffffffffffffffffffffffffffffffffff1916908160001a905350614a00600a86615848565b945061497a565b6110af8383836001614c85565b600080825160411415614a4b5760208301516040840151606085015160001a614a3f87828585614e9b565b94509450505050614a7d565b825160401415614a755760208301516040840151614a6a868383614f88565b935093505050614a7d565b506000905060025b9250929050565b6000816004811115614aa657634e487b7160e01b600052602160045260246000fd5b1415614aaf5750565b6001816004811115614ad157634e487b7160e01b600052602160045260246000fd5b1415614b1f5760405162461bcd60e51b815260206004820152601860248201527f45434453413a20696e76616c6964207369676e6174757265000000000000000060448201526064016103fe565b6002816004811115614b4157634e487b7160e01b600052602160045260246000fd5b1415614b8f5760405162461bcd60e51b815260206004820152601f60248201527f45434453413a20696e76616c6964207369676e6174757265206c656e6774680060448201526064016103fe565b6003816004811115614bb157634e487b7160e01b600052602160045260246000fd5b1415614c0a5760405162461bcd60e51b815260206004820152602260248201527f45434453413a20696e76616c6964207369676e6174757265202773272076616c604482015261756560f01b60648201526084016103fe565b6004816004811115614c2c57634e487b7160e01b600052602160045260246000fd5b14156113995760405162461bcd60e51b815260206004820152602260248201527f45434453413a20696e76616c6964207369676e6174757265202776272076616c604482015261756560f01b60648201526084016103fe565b6000546001600160a01b038516614cae57604051622e076360e81b815260040160405180910390fd5b83614ccc5760405163b562e8dd60e01b815260040160405180910390fd5b6001600160a01b038516600081815260056020908152604080832080546fffffffffffffffffffffffffffffffff19811667ffffffffffffffff8083168c0181169182176801000000000000000067ffffffffffffffff1990941690921783900481168c01811690920217909155858452600490925290912080546001600160e01b031916909217600160a01b429092169190910217905580808501838015614d7e57506001600160a01b0387163b15155b15614e4a575b60405182906001600160a01b038916906000907fddf252ad1be2c89b69c2b068fc378daa952ba7f163c4a11628f55a4df523b3ef908290a4614dcf60008884806001019550886145ab565b614dec576040516368d2bf6b60e11b815260040160405180910390fd5b80821415614d84578260005414614e455760405162461bcd60e51b815260206004820152601560248201527f5265656e7472616e63792070726f74656374696f6e000000000000000000000060448201526064016103fe565b614e90565b5b6040516001830192906001600160a01b038916906000907fddf252ad1be2c89b69c2b068fc378daa952ba7f163c4a11628f55a4df523b3ef908290a480821415614e4b575b506000555050505050565b6000807f7fffffffffffffffffffffffffffffff5d576e7357a4501ddfe92f46681b20a0831115614ed25750600090506003614f7f565b8460ff16601b14158015614eea57508460ff16601c14155b15614efb5750600090506004614f7f565b6040805160008082526020820180845289905260ff881692820192909252606081018690526080810185905260019060a0016020604051602081039080840390855afa158015614f4f573d6000803e3d6000fd5b5050604051601f1901519150506001600160a01b038116614f7857600060019250925050614f7f565b9150600090505b94509492505050565b6000807f7fffffffffffffffffffffffffffffffffffffffffffffffffffffffffffffff831681614fbe60ff86901c601b61580b565b9050614fcc87828885614e9b565b935093505050935093915050565b828054614fe6906158be565b90600052602060002090601f016020900481019282615008576000855561504e565b82601f1061502157805160ff191683800117855561504e565b8280016001018555821561504e579182015b8281111561504e578251825591602001919060010190615033565b506120029291505b808211156120025760008155600101615056565b600067ffffffffffffffff808411156150855761508561596e565b604051601f8501601f19908116603f011681019082821181831017156150ad576150ad61596e565b816040528093508581528686860111156150c657600080fd5b858560208301376000602087830101525050509392505050565b80356001600160a01b038116811461212c57600080fd5b60008083601f840112615108578182fd5b50813567ffffffffffffffff81111561511f578182fd5b602083019150836020828501011115614a7d57600080fd5b80356002811061212c57600080fd5b600082601f830112615156578081fd5b6151658383356020850161506a565b9392505050565b803561ffff8116811461212c57600080fd5b803560ff8116811461212c57600080fd5b6000602082840312156151a0578081fd5b615165826150e0565b600080604083850312156151bb578081fd5b6151c4836150e0565b9150611387602084016150e0565b6000806000606084860312156151e6578081fd5b6151ef846150e0565b92506151fd602085016150e0565b9150604084013590509250925092565b60008060008060808587031215615222578081fd5b61522b856150e0565b9350615239602086016150e0565b925060408501359150606085013567ffffffffffffffff81111561525b578182fd5b8501601f8101871361526b578182fd5b61527a8782356020840161506a565b91505092959194509250565b60008060408385031215615298578182fd5b6152a1836150e0565b915060208301356152b181615984565b809150509250929050565b600080604083850312156152ce578182fd5b6152d7836150e0565b946020939093013593505050565b6000806000806000608086880312156152fc578081fd5b615305866150e0565b94506153136020870161517e565b935061532160408701615137565b9250606086013567ffffffffffffffff81111561533c578182fd5b615348888289016150f7565b969995985093965092949392505050565b600080600080600060808688031215615370578283fd5b853567ffffffffffffffff80821115615387578485fd5b818801915088601f83011261539a578485fd5b8135818111156153a8578586fd5b8960206060830285010111156153bc578586fd5b6020928301975095506153d291880190506150e0565b92506153e0604087016150e0565b91506153ee606087016150e0565b90509295509295909350565b60006020828403121561540b578081fd5b815161516581615984565b600060208284031215615427578081fd5b813561516581615992565b600060208284031215615443578081fd5b815161516581615992565b60006020828403121561545f578081fd5b813567ffffffffffffffff811115615475578182fd5b61448a84828501615146565b60008060408385031215615493578182fd5b823567ffffffffffffffff808211156154aa578384fd5b6154b686838701615146565b935060208501359150808211156154cb578283fd5b506154d885828601615146565b9150509250929050565b6000806000606084860312156154f6578081fd5b833567ffffffffffffffff81111561550c578182fd5b61551886828701615146565b9350506155276020850161516c565b9150604084013561553781615984565b809150509250925092565b600060608284031215615553578081fd5b6040516060810181811067ffffffffffffffff821117156155765761557661596e565b80604052508235815260208301356020820152604083013560408201528091505092915050565b6000602082840312156155ae578081fd5b6151658261516c565b6000602082840312156155c8578081fd5b5035919050565b600080604083850312156155e1578182fd5b50508035926020909101359150565b600060208284031215615601578081fd5b6151658261517e565b6000806040838503121561561c578182fd5b6151c48361517e565b60008060008060006080868803121561563c578283fd5b6153058661517e565b6000815180845261565d816020860160208601615892565b601f01601f19169290920160200192915050565b8054600090600181811c908083168061568b57607f831692505b60208084108214156156ab57634e487b7160e01b86526022600452602486fd5b8180156156bf57600181146156d0576156fd565b60ff198616895284890196506156fd565b60008881526020902060005b868110156156f55781548b8201529085019083016156dc565b505084890196505b50505050505092915050565b606084901b6bffffffffffffffffffffffff1916815260f883901b7fff0000000000000000000000000000000000000000000000000000000000000016601482015260006002831061576957634e487b7160e01b81526021600452602481fd5b5060f89190911b601582015260160192915050565b60006151658284615671565b60006157968285615671565b602f60f81b815283516157b0816001840160208801615892565b01600101949350505050565b60006001600160a01b038087168352808616602084015250836040830152608060608301526157ee6080830184615645565b9695505050505050565b6020815260006151656020830184615645565b6000821982111561581e5761581e615942565b500190565b600060ff821660ff84168060ff0382111561584057615840615942565b019392505050565b60008261585757615857615958565b500490565b600081600019048311821515161561587657615876615942565b500290565b60008282101561588d5761588d615942565b500390565b60005b838110156158ad578181015183820152602001615895565b83811115612d6c5750506000910152565b600181811c908216806158d257607f821691505b602082108114156134d057634e487b7160e01b600052602260045260246000fd5b600060001982141561590757615907615942565b5060010190565b600060ff821660ff81141561592557615925615942565b60010192915050565b60008261593d5761593d615958565b500690565b634e487b7160e01b600052601160045260246000fd5b634e487b7160e01b600052601260045260246000fd5b634e487b7160e01b600052604160045260246000fd5b801515811461139957600080fd5b6001600160e01b03198116811461139957600080fdfe63616c6c6572206973206e6f7420617574686f72697a6564000000000000000013da86008ba1c6922daee3e07db95305ef49ebced9f5467a0b8613fcc6b343e3a264697066735822122002b033f72abdfa125ad5d863735b15e991fb0e96b693709ef37adb4ed5e2efa564736f6c63430008040033",
  "linkReferences": {},
  "deployedLinkReferences": {}
}