{
  "_format": "hh-sol-artifact-1",
  "contractName": "DAOTreasury",
  "sourceName": "src/contracts/DAOTreasury.sol",
  "abi": [
    {
      "anonymous": false,
      "inputs": [
        {
          "indexed": false,
          "internalType": "address",
          "name": "previousAdmin",
          "type": "address"
        },
        {
          "indexed": false,
          "internalType": "address",
          "name": "newAdmin",
          "type": "address"
        }
      ],
      "name": "AdminChanged",
      "type": "event"
    },
    {
      "anonymous": false,
      "inputs": [
        {
          "indexed": true,
          "internalType": "address",
          "name": "beacon",
          "type": "address"
        }
      ],
      "name": "BeaconUpgraded",
      "type": "event"
    },
    {
      "anonymous": false,
      "inputs": [
        {
          "indexed": false,
          "internalType": "address",
          "name": "daoMultisig",
          "type": "address"
        },
        {
          "indexed": false,
          "internalType": "address",
          "name": "newImplementation",
          "type": "address"
        }
      ],
      "name": "ChangeAnnouncement",
      "type": "event"
    },
    {
      "anonymous": false,
      "inputs": [
        {
          "indexed": false,
          "internalType": "uint8",
          "name": "version",
          "type": "uint8"
        }
      ],
      "name": "Initialized",
      "type": "event"
    },
    {
      "anonymous": false,
      "inputs": [
        {
          "indexed": true,
          "internalType": "uint8",
          "name": "roleId",
          "type": "uint8"
        },
        {
          "indexed": true,
          "internalType": "address",
          "name": "oldAddr",
          "type": "address"
        },
        {
          "indexed": true,
          "internalType": "address",
          "name": "newAddr",
          "type": "address"
        }
      ],
      "name": "RoleAccepted",
      "type": "event"
    },
    {
      "anonymous": false,
      "inputs": [
        {
          "indexed": true,
          "internalType": "uint8",
          "name": "roleId",
          "type": "uint8"
        },
        {
          "indexed": true,
          "internalType": "address",
          "name": "currentAddr",
          "type": "address"
        },
        {
          "indexed": true,
          "internalType": "address",
          "name": "proposedAddr",
          "type": "address"
        }
      ],
      "name": "RoleProposed",
      "type": "event"
    },
    {
      "anonymous": false,
      "inputs": [
        {
          "indexed": true,
          "internalType": "address",
          "name": "implementation",
          "type": "address"
        }
      ],
      "name": "Upgraded",
      "type": "event"
    },
    {
      "inputs": [],
      "name": "START_TIME",
      "outputs": [
        {
          "internalType": "uint256",
          "name": "",
          "type": "uint256"
        }
      ],
      "stateMutability": "view",
      "type": "function"
    },
    {
      "inputs": [
        {
          "internalType": "uint8",
          "name": "roleId",
          "type": "uint8"
        }
      ],
      "name": "acceptAuthority",
      "outputs": [],
      "stateMutability": "nonpayable",
      "type": "function"
    },
    {
      "inputs": [
        {
          "internalType": "string",
          "name": "snapShotId",
          "type": "string"
        }
      ],
      "name": "acceptDaoFundRequestProposal",
      "outputs": [],
      "stateMutability": "nonpayable",
      "type": "function"
    },
    {
      "inputs": [
        {
          "internalType": "address",
          "name": "nftOwner",
          "type": "address"
        }
      ],
      "name": "buybackNFT",
      "outputs": [
        {
          "internalType": "bool",
          "name": "",
          "type": "bool"
        }
      ],
      "stateMutability": "nonpayable",
      "type": "function"
    },
    {
      "inputs": [],
      "name": "buybackTaxRation",
      "outputs": [
        {
          "internalType": "uint256",
          "name": "",
          "type": "uint256"
        }
      ],
      "stateMutability": "view",
      "type": "function"
    },
    {
      "inputs": [],
      "name": "collectigame",
      "outputs": [
        {
          "internalType": "address",
          "name": "",
          "type": "address"
        }
      ],
      "stateMutability": "view",
      "type": "function"
    },
    {
      "inputs": [],
      "name": "collectigameSupply",
      "outputs": [
        {
          "internalType": "uint256",
          "name": "",
          "type": "uint256"
        }
      ],
      "stateMutability": "view",
      "type": "function"
    },
    {
      "inputs": [],
      "name": "daoProposalFundingStartTime",
      "outputs": [
        {
          "internalType": "uint256",
          "name": "",
          "type": "uint256"
        }
      ],
      "stateMutability": "view",
      "type": "function"
    },
    {
      "inputs": [
        {
          "internalType": "uint256",
          "name": "",
          "type": "uint256"
        }
      ],
      "name": "daoProposalIds",
      "outputs": [
        {
          "internalType": "string",
          "name": "",
          "type": "string"
        }
      ],
      "stateMutability": "view",
      "type": "function"
    },
    {
      "inputs": [
        {
          "internalType": "string",
          "name": "",
          "type": "string"
        }
      ],
      "name": "daoProposals",
      "outputs": [
        {
          "internalType": "string",
          "name": "title",
          "type": "string"
        },
        {
          "internalType": "uint256",
          "name": "fundRequestAmount",
          "type": "uint256"
        },
        {
          "internalType": "uint256",
          "name": "votingStartTime",
          "type": "uint256"
        },
        {
          "internalType": "uint256",
          "name": "votingEndTime",
          "type": "uint256"
        },
        {
          "internalType": "address",
          "name": "proposer",
          "type": "address"
        },
        {
          "internalType": "bool",
          "name": "isFunded",
          "type": "bool"
        }
      ],
      "stateMutability": "view",
      "type": "function"
    },
    {
      "inputs": [
        {
          "internalType": "uint8",
          "name": "",
          "type": "uint8"
        }
      ],
      "name": "ethReleasesPlan",
      "outputs": [
        {
          "internalType": "uint256",
          "name": "amountOrPercent",
          "type": "uint256"
        },
        {
          "internalType": "uint256",
          "name": "releaseDate",
          "type": "uint256"
        },
        {
          "internalType": "address",
          "name": "receiver",
          "type": "address"
        },
        {
          "internalType": "bool",
          "name": "isReleased",
          "type": "bool"
        }
      ],
      "stateMutability": "view",
      "type": "function"
    },
    {
      "inputs": [
        {
          "internalType": "uint8",
          "name": "",
          "type": "uint8"
        }
      ],
      "name": "ethReleasesPlanDescription",
      "outputs": [
        {
          "internalType": "string",
          "name": "",
          "type": "string"
        }
      ],
      "stateMutability": "view",
      "type": "function"
    },
    {
      "inputs": [],
      "name": "gameTreasury",
      "outputs": [
        {
          "internalType": "address",
          "name": "",
          "type": "address"
        }
      ],
      "stateMutability": "view",
      "type": "function"
    },
    {
      "inputs": [
        {
          "internalType": "uint256",
          "name": "amount",
          "type": "uint256"
        }
      ],
      "name": "gameTresuryDeposit",
      "outputs": [
        {
          "internalType": "bool",
          "name": "",
          "type": "bool"
        }
      ],
      "stateMutability": "payable",
      "type": "function"
    },
    {
      "inputs": [
        {
          "internalType": "uint256",
          "name": "amount",
          "type": "uint256"
        }
      ],
      "name": "generalDeposit",
      "outputs": [
        {
          "internalType": "bool",
          "name": "",
          "type": "bool"
        }
      ],
      "stateMutability": "payable",
      "type": "function"
    },
    {
      "inputs": [],
      "name": "getTreasuryBalance",
      "outputs": [
        {
          "internalType": "uint256",
          "name": "",
          "type": "uint256"
        }
      ],
      "stateMutability": "view",
      "type": "function"
    },
    {
      "inputs": [],
      "name": "guaranteedFlorPrice",
      "outputs": [
        {
          "internalType": "uint256",
          "name": "",
          "type": "uint256"
        }
      ],
      "stateMutability": "view",
      "type": "function"
    },
    {
      "inputs": [
        {
          "internalType": "uint256",
          "name": "increaseAmount",
          "type": "uint256"
        }
      ],
      "name": "increaseGuaranteedFlorPrice",
      "outputs": [],
      "stateMutability": "nonpayable",
      "type": "function"
    },
    {
      "inputs": [
        {
          "internalType": "address",
          "name": "daoMultisig_",
          "type": "address"
        },
        {
          "internalType": "address",
          "name": "collectigame_",
          "type": "address"
        },
        {
          "internalType": "address",
          "name": "gameTreasury_",
          "type": "address"
        },
        {
          "internalType": "address",
          "name": "teamMultisig_",
          "type": "address"
        },
        {
          "internalType": "uint256",
          "name": "buybackTaxRation_",
          "type": "uint256"
        }
      ],
      "name": "initialize",
      "outputs": [],
      "stateMutability": "nonpayable",
      "type": "function"
    },
    {
      "inputs": [
        {
          "internalType": "uint256",
          "name": "amount",
          "type": "uint256"
        }
      ],
      "name": "mintPriceDeposit",
      "outputs": [
        {
          "internalType": "bool",
          "name": "",
          "type": "bool"
        }
      ],
      "stateMutability": "payable",
      "type": "function"
    },
    {
      "inputs": [
        {
          "internalType": "string",
          "name": "snapShotId",
          "type": "string"
        },
        {
          "internalType": "string",
          "name": "title",
          "type": "string"
        },
        {
          "internalType": "uint256",
          "name": "fundRequestAmount",
          "type": "uint256"
        },
        {
          "internalType": "uint256",
          "name": "votingStartTime",
          "type": "uint256"
        },
        {
          "internalType": "uint256",
          "name": "votingEndTime",
          "type": "uint256"
        },
        {
          "internalType": "address",
          "name": "fundReceiver",
          "type": "address"
        }
      ],
      "name": "newDaoFundRequestProposal",
      "outputs": [],
      "stateMutability": "nonpayable",
      "type": "function"
    },
    {
      "inputs": [],
      "name": "numberOfRoles",
      "outputs": [
        {
          "internalType": "uint8",
          "name": "",
          "type": "uint8"
        }
      ],
      "stateMutability": "view",
      "type": "function"
    },
    {
      "inputs": [
        {
          "internalType": "string",
          "name": "id",
          "type": "string"
        }
      ],
      "name": "proposalStatus",
      "outputs": [
        {
          "internalType": "enum DAOTreasury.ProposalStatus",
          "name": "",
          "type": "uint8"
        }
      ],
      "stateMutability": "view",
      "type": "function"
    },
    {
      "inputs": [
        {
          "internalType": "uint8",
          "name": "roleId",
          "type": "uint8"
        },
        {
          "internalType": "address",
          "name": "proposedAddr",
          "type": "address"
        }
      ],
      "name": "proposeAuthority",
      "outputs": [],
      "stateMutability": "nonpayable",
      "type": "function"
    },
    {
      "inputs": [],
      "name": "proxiableUUID",
      "outputs": [
        {
          "internalType": "bytes32",
          "name": "",
          "type": "bytes32"
        }
      ],
      "stateMutability": "view",
      "type": "function"
    },
    {
      "inputs": [
        {
          "internalType": "uint8",
          "name": "releaseId",
          "type": "uint8"
        }
      ],
      "name": "releaseFund",
      "outputs": [],
      "stateMutability": "nonpayable",
      "type": "function"
    },
    {
      "inputs": [
        {
          "internalType": "uint8",
          "name": "roleId",
          "type": "uint8"
        }
      ],
      "name": "renounceAuthority",
      "outputs": [],
      "stateMutability": "nonpayable",
      "type": "function"
    },
    {
      "inputs": [
        {
          "internalType": "uint8",
          "name": "",
          "type": "uint8"
        }
      ],
      "name": "roles",
      "outputs": [
        {
          "internalType": "address",
          "name": "addr",
          "type": "address"
        },
        {
          "internalType": "address",
          "name": "proposedAddr",
          "type": "address"
        },
        {
          "internalType": "bool",
          "name": "isRenounced",
          "type": "bool"
        }
      ],
      "stateMutability": "view",
      "type": "function"
    },
    {
      "inputs": [
        {
          "internalType": "uint256",
          "name": "buybackTaxRation_",
          "type": "uint256"
        }
      ],
      "name": "setBuybackTaxRatio",
      "outputs": [],
      "stateMutability": "nonpayable",
      "type": "function"
    },
    {
      "inputs": [],
      "name": "setupReleasePlan",
      "outputs": [],
      "stateMutability": "nonpayable",
      "type": "function"
    },
    {
      "inputs": [],
      "name": "teamMultisig",
      "outputs": [
        {
          "internalType": "address",
          "name": "",
          "type": "address"
        }
      ],
      "stateMutability": "view",
      "type": "function"
    },
    {
      "inputs": [
        {
          "internalType": "address",
          "name": "newImplementation",
          "type": "address"
        }
      ],
      "name": "upgradeTo",
      "outputs": [],
      "stateMutability": "nonpayable",
      "type": "function"
    },
    {
      "inputs": [
        {
          "internalType": "address",
          "name": "newImplementation",
          "type": "address"
        },
        {
          "internalType": "bytes",
          "name": "data",
          "type": "bytes"
        }
      ],
      "name": "upgradeToAndCall",
      "outputs": [],
      "stateMutability": "payable",
      "type": "function"
    }
  ],
  "bytecode": "0x60c06040523060601b6080524260a052606e805460ff1916905534801561002557600080fd5b506065805460ff1916600117905560805160601c60a05161359061009a600039600081816105ea015281816107cb0152818161094f01528181610a9601528181610bc701526123930152600081816110090152818161108e015281816112d301528181611358015261143e01526135906000f3fe6080604052600436106101ee5760003560e01c806396a5d5ba1161010d578063cc092ab9116100a0578063dbf4156b1161006f578063dbf4156b146105b8578063ddaa26ad146105d8578063ddb6825a1461060c578063f5c79d3d14610489578063f7013ef61461068e57600080fd5b8063cc092ab914610538578063d2f9efab14610558578063d514355514610578578063dbc0c0851461059857600080fd5b8063a193818c116100dc578063a193818c146104bf578063ab6d78ce146104d5578063b666e406146104eb578063b8b5eef21461050b57600080fd5b806396a5d5ba14610469578063998e2086146104895780639a9ffbde146104895780639b5655dc146104ac57600080fd5b80634f1ef286116101855780636a3c4f56116101545780636a3c4f56146103c95780638a266e73146103fb5780638cf61cdd14610411578063965d08af1461044957600080fd5b80634f1ef2861461035557806352d1902d146103685780635744d0f51461037d57806362c2c38a146103a957600080fd5b80632abf54db116101c15780632abf54db146102c45780632c348e8e146102e85780633659cfe614610308578063436e82781461032857600080fd5b806317326858146101f357806317dbb5321461021557806318c8afa21461028f5780631d75d555146102a4575b600080fd5b3480156101ff57600080fd5b5061021361020e36600461329a565b6106ae565b005b34801561022157600080fd5b5061026261023036600461329a565b606660205260009081526040902080546001909101546001600160a01b0391821691811690600160a01b900460ff1683565b604080516001600160a01b0394851681529390921660208401521515908201526060015b60405180910390f35b34801561029b57600080fd5b506102136108d3565b3480156102b057600080fd5b506102136102bf366004613282565b610d05565b3480156102d057600080fd5b506102da606d5481565b604051908152602001610286565b3480156102f457600080fd5b506102136103033660046130db565b610d89565b34801561031457600080fd5b50610213610323366004612f95565b610ffe565b34801561033457600080fd5b5061034861034336600461309b565b61117a565b604051610286919061335e565b61021361036336600461300a565b6112c8565b34801561037457600080fd5b506102da611431565b34801561038957600080fd5b506065546103979060ff1681565b60405160ff9091168152602001610286565b3480156103b557600080fd5b506102136103c4366004613282565b6114f6565b3480156103d557600080fd5b506103e96103e4366004613174565b6116ac565b60405161028696959493929190613399565b34801561040757600080fd5b506102da606b5481565b34801561041d57600080fd5b50606754610431906001600160a01b031681565b6040516001600160a01b039091168152602001610286565b34801561045557600080fd5b5061021361046436600461329a565b611783565b34801561047557600080fd5b506102136104843660046132d2565b61185f565b61049c610497366004613282565b611a15565b6040519015158152602001610286565b3480156104b857600080fd5b50476102da565b3480156104cb57600080fd5b506102da606a5481565b3480156104e157600080fd5b506102da606c5481565b3480156104f757600080fd5b5061049c610506366004612f95565b611a6f565b34801561051757600080fd5b5061052b61052636600461329a565b611d4f565b6040516102869190613386565b34801561054457600080fd5b5061021361055336600461309b565b611de9565b34801561056457600080fd5b50606854610431906001600160a01b031681565b34801561058457600080fd5b5061021361059336600461329a565b61209b565b3480156105a457600080fd5b50606954610431906001600160a01b031681565b3480156105c457600080fd5b5061052b6105d3366004613282565b612138565b3480156105e457600080fd5b506102da7f000000000000000000000000000000000000000000000000000000000000000081565b34801561061857600080fd5b5061065d61062736600461329a565b606f602052600090815260409020805460018201546002909201549091906001600160a01b03811690600160a01b900460ff1684565b604051610286949392919093845260208401929092526001600160a01b031660408301521515606082015260800190565b34801561069a57600080fd5b506102136106a9366004612faf565b612163565b606e5460ff166107055760405162461bcd60e51b815260206004820152601960248201527f44414f205472656173757279204973204e6f742053657475700000000000000060448201526064015b60405180910390fd5b60ff8082166000908152606f6020526040902060028101549091600160a01b90910416156107755760405162461bcd60e51b815260206004820152601660248201527f46756e6420686173206265656e2072656c65617365640000000000000000000060448201526064016106fc565b42816001015411156107c95760405162461bcd60e51b815260206004820152601b60248201527f52656c656173652064617465206973206e6f742072656163686564000000000060448201526064016106fc565b7f000000000000000000000000000000000000000000000000000000000000000081600101541161083c5760405162461bcd60e51b815260206004820152601b60248201527f52656c656173652064617465206973206e6f742072656163686564000000000060448201526064016106fc565b60ff82166108745760028101805460ff60a01b198116600160a01b179091558154610870916001600160a01b03169061240b565b5050565b60028101805460ff60a01b1916600160a01b17905560006108924790565b9050600060648360000154836108a89190613418565b6108b291906133f8565b60028401549091506108cd906001600160a01b03168261240b565b50505050565b606e5460ff16156109165760405162461bcd60e51b815260206004820152600d60248201526c0416c726561647920536574757609c1b60448201526064016106fc565b6000806064606a54606c5461092b9190613418565b610936906014613418565b61094091906133f8565b604080516080810182528281527f000000000000000000000000000000000000000000000000000000000000000060208083019182527f6f48904484b35701cf1f41ad9068b394adf7e2f8a59d2309a04d10a155eaa72b546001600160a01b0390811684860190815260006060860181815260ff8b16808352606f8652888320885181559651600188015592516002909601805491511515600160a01b026001600160a81b031990921696909416959095179490941790915584518086018652601f81527f4d61726b6574206d616b696e6720616e6420626f6f74737472617070696e670081840190815291845260709092529390912090519394509092610a489290612da4565b5082610a53816134d8565b93506276a70090505b60048460ff161015610b8d57600a600082610a7860018861344e565b60ff16610a859190613418565b610a90846003613418565b610aba907f00000000000000000000000000000000000000000000000000000000000000006133e0565b610ac491906133e0565b6040805160808101825284815260208082018481526069546001600160a01b0390811684860190815260006060860181815260ff8f16808352606f8752888320885181559551600187015592516002909501805491511515600160a01b026001600160a81b0319909216959094169490941793909317909155845180860186526008815267546865207465616d60c01b818501908152918352607090935293902090519394509092610b769290612da4565b505050508380610b85906134d8565b945050610a5c565b60078460ff161015610cf257600a600082610ba960018861344e565b60ff16610bb69190613418565b610bc1846003613418565b610beb907f00000000000000000000000000000000000000000000000000000000000000006133e0565b610bf591906133e0565b6040805160808101825284815260208082018481527f6f48904484b35701cf1f41ad9068b394adf7e2f8a59d2309a04d10a155eaa72b546001600160a01b0390811684860190815260006060860181815260ff8f16808352606f8752888320885181559551600187015592516002909501805491511515600160a01b026001600160a81b031990921695909416949094179390931790915584518086018652601681527f44444420706c6174666f726d20657870616e73696f6e00000000000000000000818501908152918352607090935293902090519394509092610cdb9290612da4565b505050508380610cea906134d8565b945050610b8d565b5050606e805460ff191660011790555050565b600080805260666020527f6f48904484b35701cf1f41ad9068b394adf7e2f8a59d2309a04d10a155eaa72b546001600160a01b03163314610d835760405162461bcd60e51b815260206004820152601860248201527718d85b1b195c881a5cc81b9bdd08185d5d1a1bdc9a5e995960421b60448201526064016106fc565b50606b55565b42606d541115610dce5760405162461bcd60e51b815260206004820152601060248201526f44414f204973204e6f7420526561647960801b60448201526064016106fc565b47848111610e3a5760405162461bcd60e51b815260206004820152603360248201527f54726561737572792062616c616e6365206973206e6f7420656e6f75676820746044820152721bc8199d5b99081d1a19481c1c9bdc1bdcd85b606a1b60648201526084016106fc565b828410610eaf5760405162461bcd60e51b815260206004820152603860248201527f566f74696e672073746172742074696d652073686f756c64206265206561726c60448201527f696572207468616e20766f74696e6720656e642074696d65000000000000000060648201526084016106fc565b6040805160e06020601f8a01819004028201810190925260c081018881526000928291908b908b90819085018382808284376000920182905250938552505050602082018990526040808301899052606083018890526001600160a01b038716608084015260a090920152519091508190607190610f30908d908d9061334e565b90815260200160405180910390206000820151816000019080519060200190610f5a929190612da4565b506020820151600180830191909155604083015160028301556060830151600383015560808301516004909201805460a0909401511515600160a01b026001600160a81b03199094166001600160a01b0390931692909217929092179055607280549182018155600052610ff1907fdffbd64cc7c1a7eb27984335d9416d51137a03d3fabec7141025c62663253fe1018b8b612e28565b5050505050505050505050565b306001600160a01b037f000000000000000000000000000000000000000000000000000000000000000016141561108c5760405162461bcd60e51b815260206004820152602c60248201527f46756e6374696f6e206d7573742062652063616c6c6564207468726f7567682060448201526b19195b1959d85d1958d85b1b60a21b60648201526084016106fc565b7f00000000000000000000000000000000000000000000000000000000000000006001600160a01b03166110e77f360894a13ba1a3210667c828492db98dca3e2076cc3735a920a3ca505d382bbc546001600160a01b031690565b6001600160a01b0316146111525760405162461bcd60e51b815260206004820152602c60248201527f46756e6374696f6e206d7573742062652063616c6c6564207468726f7567682060448201526b6163746976652070726f787960a01b60648201526084016106fc565b61115b816124ae565b6040805160008082526020820190925261117791839190612578565b50565b6000806071848460405161118f92919061334e565b90815260200160405180910390206040518060c00160405290816000820180546111b89061349d565b80601f01602080910402602001604051908101604052809291908181526020018280546111e49061349d565b80156112315780601f1061120657610100808354040283529160200191611231565b820191906000526020600020905b81548152906001019060200180831161121457829003601f168201915b50505091835250506001820154602082015260028201546040820152600382015460608201526004909101546001600160a01b0381166080830152600160a01b900460ff16151560a09182015281015190915062093a809015611299576001925050506112c2565b428183606001516112aa91906133e0565b10156112bb576002925050506112c2565b6000925050505b92915050565b306001600160a01b037f00000000000000000000000000000000000000000000000000000000000000001614156113565760405162461bcd60e51b815260206004820152602c60248201527f46756e6374696f6e206d7573742062652063616c6c6564207468726f7567682060448201526b19195b1959d85d1958d85b1b60a21b60648201526084016106fc565b7f00000000000000000000000000000000000000000000000000000000000000006001600160a01b03166113b17f360894a13ba1a3210667c828492db98dca3e2076cc3735a920a3ca505d382bbc546001600160a01b031690565b6001600160a01b03161461141c5760405162461bcd60e51b815260206004820152602c60248201527f46756e6374696f6e206d7573742062652063616c6c6564207468726f7567682060448201526b6163746976652070726f787960a01b60648201526084016106fc565b611425826124ae565b61087082826001612578565b6000306001600160a01b037f000000000000000000000000000000000000000000000000000000000000000016146114d15760405162461bcd60e51b815260206004820152603860248201527f555550535570677261646561626c653a206d757374206e6f742062652063616c60448201527f6c6564207468726f7567682064656c656761746563616c6c000000000000000060648201526084016106fc565b507f360894a13ba1a3210667c828492db98dca3e2076cc3735a920a3ca505d382bbc90565b600080805260666020527f6f48904484b35701cf1f41ad9068b394adf7e2f8a59d2309a04d10a155eaa72b546001600160a01b031633146115745760405162461bcd60e51b815260206004820152601860248201527718d85b1b195c881a5cc81b9bdd08185d5d1a1bdc9a5e995960421b60448201526064016106fc565b60675460408051630bee5eb960e01b815290516000926001600160a01b031691630bee5eb9916004808301926020929190829003018186803b1580156115b957600080fd5b505afa1580156115cd573d6000803e3d6000fd5b505050506040513d601f19601f820116820180604052508101906115f191906132b6565b60ff1690506000606a5482606c546116099190613437565b6116139190613418565b9050478181101561168e576040805162461bcd60e51b81526020600482015260248101919091527f54726561737572792062616c616e6365206973206e6f7420656e6f756768207460448201527f6f20696e6372656173652067756172616e7465656420666c6f7220707269636560648201526084016106fc565b84606a60008282546116a091906133e0565b90915550505050505050565b80516020818301810180516071825292820191909301209152805481906116d29061349d565b80601f01602080910402602001604051908101604052809291908181526020018280546116fe9061349d565b801561174b5780601f106117205761010080835404028352916020019161174b565b820191906000526020600020905b81548152906001019060200180831161172e57829003601f168201915b50505050600183015460028401546003850154600490950154939491939092506001600160a01b03811690600160a01b900460ff1686565b60ff81166000908152606660205260409020600101546001600160a01b031633146117f05760405162461bcd60e51b815260206004820152601660248201527f63616c6c6572206973206e6f742070726f706f7365640000000000000000000060448201526064016106fc565b60ff811660008181526066602052604080822080546001820180546001600160a01b038082166001600160a01b03198086168217909655949091169091559251921693909284927f75d4894fae1c15d56c47e57d8fd94120a15786f520ddf423b53d7bee9324ee4b9190a45050565b60ff821660009081526066602052604090205482906001600160a01b031633146118c65760405162461bcd60e51b815260206004820152601860248201527718d85b1b195c881a5cc81b9bdd08185d5d1a1bdc9a5e995960421b60448201526064016106fc565b6001600160a01b03821661191c5760405162461bcd60e51b815260206004820152601b60248201527f70726f706f7365642061646472657373206973206e6f7420736574000000000060448201526064016106fc565b60ff83166000908152606660205260409020546001600160a01b03838116911614156119b05760405162461bcd60e51b815260206004820152603660248201527f70726f706f7365642061646472657373206973206e6f7420646966666572656e60448201527f742066726f6d2063757272656e7420616464726573730000000000000000000060648201526084016106fc565b60ff83166000818152606660205260408082206001810180546001600160a01b0319166001600160a01b038881169182179092559154925191949216927fec584e355ff3c59e7a9d34bfb18dec6a0db876a29b47afa136b8acbed3b62d2491a4505050565b600081341015611a675760405162461bcd60e51b815260206004820152601460248201527f416d6f756e74206973206e6f7420656e6f75676800000000000000000000000060448201526064016106fc565b506001919050565b6067546000906001600160a01b03163314611acc5760405162461bcd60e51b815260206004820152601a60248201527f43616c6c6572204973204e6f7420436f6c6c6563746967616d6500000000000060448201526064016106fc565b60675460408051631865c57d60e01b815290516000926001600160a01b031691631865c57d9160048083019260c0929190829003018186803b158015611b1157600080fd5b505afa158015611b25573d6000803e3d6000fd5b505050506040513d601f19601f82011682018060405250810190611b4991906131c2565b80519091501515600114611bb55760405162461bcd60e51b815260206004820152602d60248201527f436f6c6c6563746947616d6520636f6e747261637420686173206e6f7420696e60448201526c1a5d1a585b1a5e9959081e595d609a1b60648201526084016106fc565b606a5447908111611c1a5760405162461bcd60e51b815260206004820152602960248201527f54726561737572792062616c616e6365206973206e6f7420656e6f75676820746044820152686f206275796261636b60b81b60648201526084016106fc565b60006064606b54606a54611c2e9190613418565b611c3891906133f8565b606854604051632c85bbfd60e11b8152600481018390529192506000916001600160a01b039091169063590b77fa90602401602060405180830381600087803b158015611c8457600080fd5b505af1158015611c98573d6000803e3d6000fd5b505050506040513d601f19601f82011682018060405250810190611cbc9190613069565b905080611d0b5760405162461bcd60e51b815260206004820152601160248201527f54617820706179696e67206661696c656400000000000000000000000000000060448201526064016106fc565b600082606a54611d1b9190613437565b90506001606c6000828254611d309190613437565b90915550611d409050878261240b565b6001955050505050505b919050565b60706020526000908152604090208054611d689061349d565b80601f0160208091040260200160405190810160405280929190818152602001828054611d949061349d565b8015611de15780601f10611db657610100808354040283529160200191611de1565b820191906000526020600020905b815481529060010190602001808311611dc457829003601f168201915b505050505081565b600080805260666020527f6f48904484b35701cf1f41ad9068b394adf7e2f8a59d2309a04d10a155eaa72b546001600160a01b03163314611e675760405162461bcd60e51b815260206004820152601860248201527718d85b1b195c881a5cc81b9bdd08185d5d1a1bdc9a5e995960421b60448201526064016106fc565b42606d541115611eac5760405162461bcd60e51b815260206004820152601060248201526f44414f204973204e6f7420526561647960801b60448201526064016106fc565b600060718484604051611ec092919061334e565b908152604051908190036020019020600481015490915060ff600160a01b9091041615611f2f5760405162461bcd60e51b815260206004820181905260248201527f50726f706f73616c2068617320616c7265616479206265656e2066756e64656460448201526064016106fc565b600381015462093a8090421015611f935760405162461bcd60e51b815260206004820152602260248201527f50726f706f73616c206973206e6f7420726561647920746f2062652066756e64604482015261195960f21b60648201526084016106fc565b42818360030154611fa491906133e0565b1015611ff25760405162461bcd60e51b815260206004820152601d60248201527f50726f706f73616c2066756e64696e672074696d65206973207061737400000060448201526064016106fc565b600182015447908110156120645760405162461bcd60e51b815260206004820152603360248201527f54726561737572792062616c616e6365206973206e6f7420656e6f75676820746044820152721bc8199d5b99081d1a19481c1c9bdc1bdcd85b606a1b60648201526084016106fc565b60048301805460ff60a01b198116600160a01b179091556001840154612093916001600160a01b03169061240b565b505050505050565b60ff811660009081526066602052604090205481906001600160a01b031633146121025760405162461bcd60e51b815260206004820152601860248201527718d85b1b195c881a5cc81b9bdd08185d5d1a1bdc9a5e995960421b60448201526064016106fc565b5060ff16600090815260666020526040902080546001600160a01b0319168155600101805460ff60a01b1916600160a01b179055565b6072818154811061214857600080fd5b906000526020600020016000915090508054611d689061349d565b600061216f6001612718565b90508015612187576000805461ff0019166101001790555b6040805160018082528183019092526000916020808301908036833701905050905086816000815181106121cb57634e487b7160e01b600052603260045260246000fd5b6001600160a01b03929092166020928302919091019091015260408051600180825281830190925260009181602001602082028036833701905050905060008160008151811061222b57634e487b7160e01b600052603260045260246000fd5b602002602001019060ff16908160ff1681525050612249828261282e565b606780546001600160a01b03808a166001600160a01b03199283168117909355606880548a831690841617905560698054918916919092161790556040805163953495ff60e01b8152905163953495ff91600480820192602092909190829003018186803b1580156122ba57600080fd5b505afa1580156122ce573d6000803e3d6000fd5b505050506040513d601f19601f820116820180604052508101906122f29190613083565b606a5560675460408051630cb2dac360e21b815290516001600160a01b03909216916332cb6b0c91600480820192602092909190829003018186803b15801561233a57600080fd5b505afa15801561234e573d6000803e3d6000fd5b505050506040513d601f19601f820116820180604052508101906123729190613260565b61ffff16606c55606b84905562278d0061238d816008613418565b6123b7907f00000000000000000000000000000000000000000000000000000000000000006133e0565b606d55505081159050612093576000805461ff0019169055604051600181527f7f26b83ff96e1f2b6a682f133852f6798a09c465da95921460cefb38474024989060200160405180910390a1505050505050565b60405182906000906001600160a01b0383169084908381818185875af1925050503d8060008114612458576040519150601f19603f3d011682016040523d82523d6000602084013e61245d565b606091505b50509050806108cd5760405162461bcd60e51b815260206004820152600f60248201527f5472616e73666572204661696c6564000000000000000000000000000000000060448201526064016106fc565b6000805260666020527f6f48904484b35701cf1f41ad9068b394adf7e2f8a59d2309a04d10a155eaa72b546001600160a01b03163381146125315760405162461bcd60e51b815260206004820152601460248201527f556e617574686f72697a6564205570677261646500000000000000000000000060448201526064016106fc565b604080516001600160a01b038084168252841660208201527fb90e2bc4fe834360e667ff8170b09716e788ac550570f9e943f4e92da84100f9910160405180910390a15050565b7f4910fdfa16fed3260ed0e7147f7cc6da11a60208b5b9406d12a635614ffd91435460ff16156125b0576125ab83612b5d565b505050565b826001600160a01b03166352d1902d6040518163ffffffff1660e01b815260040160206040518083038186803b1580156125e957600080fd5b505afa925050508015612619575060408051601f3d908101601f1916820190925261261691810190613083565b60015b61268b5760405162461bcd60e51b815260206004820152602e60248201527f45524331393637557067726164653a206e657720696d706c656d656e7461746960448201527f6f6e206973206e6f74205555505300000000000000000000000000000000000060648201526084016106fc565b7f360894a13ba1a3210667c828492db98dca3e2076cc3735a920a3ca505d382bbc811461270c5760405162461bcd60e51b815260206004820152602960248201527f45524331393637557067726164653a20756e737570706f727465642070726f786044820152681a58589b195555525160ba1b60648201526084016106fc565b506125ab838383612c0b565b60008054610100900460ff16156127a6578160ff16600114801561273b5750303b155b61279e5760405162461bcd60e51b815260206004820152602e60248201527f496e697469616c697a61626c653a20636f6e747261637420697320616c72656160448201526d191e481a5b9a5d1a585b1a5e995960921b60648201526084016106fc565b506000919050565b60005460ff8084169116106128145760405162461bcd60e51b815260206004820152602e60248201527f496e697469616c697a61626c653a20636f6e747261637420697320616c72656160448201526d191e481a5b9a5d1a585b1a5e995960921b60648201526084016106fc565b506000805460ff191660ff92909216919091179055600190565b80518251146128a55760405162461bcd60e51b815260206004820152603660248201527f746865206e756d626572206f662061646472657373657320616e64207468652060448201527f726f6c6520696473206d75737420626520657175616c0000000000000000000060648201526084016106fc565b606554825160ff909116146129075760405162461bcd60e51b815260206004820152602260248201527f726561636820746f206d6178206e756d626572206f6620617574686f72697469604482015261657360f01b60648201526084016106fc565b60005b82518160ff1610156125ab5760006001600160a01b031660666000848460ff168151811061294857634e487b7160e01b600052603260045260246000fd5b60209081029190910181015160ff168252810191909152604001600020546001600160a01b0316146129bc5760405162461bcd60e51b815260206004820152601360248201527f726f6c6520616c7265616479206578697374730000000000000000000000000060448201526064016106fc565b60666000838360ff16815181106129e357634e487b7160e01b600052603260045260246000fd5b60209081029190910181015160ff90811683529082019290925260400160002060010154600160a01b90041615612a5c5760405162461bcd60e51b815260206004820152601d60248201527f726f6c6520616c7265616479207573656420616e64207265766f6b656400000060448201526064016106fc565b6040518060600160405280848360ff1681518110612a8a57634e487b7160e01b600052603260045260246000fd5b60200260200101516001600160a01b0316815260200160006001600160a01b031681526020016000151581525060666000848460ff1681518110612ade57634e487b7160e01b600052603260045260246000fd5b60209081029190910181015160ff168252818101929092526040908101600020835181546001600160a01b0319166001600160a01b039182161782559284015160019091018054949092015192166001600160a81b031990931692909217600160a01b9115159190910217905580612b55816134d8565b91505061290a565b6001600160a01b0381163b612bca5760405162461bcd60e51b815260206004820152602d60248201527f455243313936373a206e657720696d706c656d656e746174696f6e206973206e60448201526c1bdd08184818dbdb9d1c9858dd609a1b60648201526084016106fc565b7f360894a13ba1a3210667c828492db98dca3e2076cc3735a920a3ca505d382bbc80546001600160a01b0319166001600160a01b0392909216919091179055565b612c1483612c30565b600082511180612c215750805b156125ab576108cd8383612c70565b612c3981612b5d565b6040516001600160a01b038216907fbc7cd75a20ee27fd9adebab32041f755214dbc6bffa90cc0225b39da2e5c2d3b90600090a250565b60606001600160a01b0383163b612cd85760405162461bcd60e51b815260206004820152602660248201527f416464726573733a2064656c65676174652063616c6c20746f206e6f6e2d636f6044820152651b9d1c9858dd60d21b60648201526084016106fc565b600080846001600160a01b031684604051612cf39190613332565b600060405180830381855af49150503d8060008114612d2e576040519150601f19603f3d011682016040523d82523d6000602084013e612d33565b606091505b5091509150612d5b828260405180606001604052806027815260200161353460279139612d64565b95945050505050565b60608315612d73575081612d9d565b825115612d835782518084602001fd5b8160405162461bcd60e51b81526004016106fc9190613386565b9392505050565b828054612db09061349d565b90600052602060002090601f016020900481019282612dd25760008555612e18565b82601f10612deb57805160ff1916838001178555612e18565b82800160010185558215612e18579182015b82811115612e18578251825591602001919060010190612dfd565b50612e24929150612e9c565b5090565b828054612e349061349d565b90600052602060002090601f016020900481019282612e565760008555612e18565b82601f10612e6f5782800160ff19823516178555612e18565b82800160010185558215612e18579182015b82811115612e18578235825591602001919060010190612e81565b5b80821115612e245760008155600101612e9d565b600067ffffffffffffffff80841115612ecc57612ecc61350e565b604051601f8501601f19908116603f01168101908282118183101715612ef457612ef461350e565b81604052809350858152868686011115612f0d57600080fd5b858560208301376000602087830101525050509392505050565b80356001600160a01b0381168114611d4a57600080fd5b80518015158114611d4a57600080fd5b60008083601f840112612f5f578182fd5b50813567ffffffffffffffff811115612f76578182fd5b602083019150836020828501011115612f8e57600080fd5b9250929050565b600060208284031215612fa6578081fd5b612d9d82612f27565b600080600080600060a08688031215612fc6578081fd5b612fcf86612f27565b9450612fdd60208701612f27565b9350612feb60408701612f27565b9250612ff960608701612f27565b949793965091946080013592915050565b6000806040838503121561301c578182fd5b61302583612f27565b9150602083013567ffffffffffffffff811115613040578182fd5b8301601f81018513613050578182fd5b61305f85823560208401612eb1565b9150509250929050565b60006020828403121561307a578081fd5b612d9d82612f3e565b600060208284031215613094578081fd5b5051919050565b600080602083850312156130ad578182fd5b823567ffffffffffffffff8111156130c3578283fd5b6130cf85828601612f4e565b90969095509350505050565b60008060008060008060008060c0898b0312156130f6578283fd5b883567ffffffffffffffff8082111561310d578485fd5b6131198c838d01612f4e565b909a50985060208b0135915080821115613131578485fd5b5061313e8b828c01612f4e565b90975095505060408901359350606089013592506080890135915061316560a08a01612f27565b90509295985092959890939650565b600060208284031215613185578081fd5b813567ffffffffffffffff81111561319b578182fd5b8201601f810184136131ab578182fd5b6131ba84823560208401612eb1565b949350505050565b600060c082840312156131d3578081fd5b60405160c0810181811067ffffffffffffffff821117156131f6576131f661350e565b60405261320283612f3e565b815261321060208401612f3e565b602082015261322160408401612f3e565b604082015261323260608401612f3e565b606082015261324360808401612f3e565b608082015261325460a08401612f3e565b60a08201529392505050565b600060208284031215613271578081fd5b815161ffff81168114612d9d578182fd5b600060208284031215613293578081fd5b5035919050565b6000602082840312156132ab578081fd5b8135612d9d81613524565b6000602082840312156132c7578081fd5b8151612d9d81613524565b600080604083850312156132e4578182fd5b82356132ef81613524565b91506132fd60208401612f27565b90509250929050565b6000815180845261331e816020860160208601613471565b601f01601f19169290920160200192915050565b60008251613344818460208701613471565b9190910192915050565b8183823760009101908152919050565b602081016003831061338057634e487b7160e01b600052602160045260246000fd5b91905290565b602081526000612d9d6020830184613306565b60c0815260006133ac60c0830189613306565b602083019790975250604081019490945260608401929092526001600160a01b03166080830152151560a090910152919050565b600082198211156133f3576133f36134f8565b500190565b60008261341357634e487b7160e01b81526012600452602481fd5b500490565b6000816000190483118215151615613432576134326134f8565b500290565b600082821015613449576134496134f8565b500390565b600060ff821660ff841680821015613468576134686134f8565b90039392505050565b60005b8381101561348c578181015183820152602001613474565b838111156108cd5750506000910152565b600181811c908216806134b157607f821691505b602082108114156134d257634e487b7160e01b600052602260045260246000fd5b50919050565b600060ff821660ff8114156134ef576134ef6134f8565b60010192915050565b634e487b7160e01b600052601160045260246000fd5b634e487b7160e01b600052604160045260246000fd5b60ff8116811461117757600080fdfe416464726573733a206c6f772d6c6576656c2064656c65676174652063616c6c206661696c6564a2646970667358221220d73ee601ed9c2475048a3f55d16ca9843d744253f93847f9371c7cf3927422c164736f6c63430008040033",
  "linkReferences": {},
  "deployedLinkReferences": {}
}