{
  "_format": "hh-sol-artifact-1",
  "contractName": "DAOTreasury",
  "sourceName": "src/contracts/DAOTreasury.sol",
  "abi": [
    {
      "anonymous": false,
      "inputs": [
        {
          "indexed": false,
          "internalType": "address",
          "name": "previousAdmin",
          "type": "address"
        },
        {
          "indexed": false,
          "internalType": "address",
          "name": "newAdmin",
          "type": "address"
        }
      ],
      "name": "AdminChanged",
      "type": "event"
    },
    {
      "anonymous": false,
      "inputs": [
        {
          "indexed": true,
          "internalType": "address",
          "name": "beacon",
          "type": "address"
        }
      ],
      "name": "BeaconUpgraded",
      "type": "event"
    },
    {
      "anonymous": false,
      "inputs": [
        {
          "indexed": false,
          "internalType": "address",
          "name": "daoMultisig",
          "type": "address"
        },
        {
          "indexed": false,
          "internalType": "address",
          "name": "newImplementation",
          "type": "address"
        }
      ],
      "name": "ChangeAnnouncement",
      "type": "event"
    },
    {
      "anonymous": false,
      "inputs": [
        {
          "indexed": false,
          "internalType": "uint8",
          "name": "version",
          "type": "uint8"
        }
      ],
      "name": "Initialized",
      "type": "event"
    },
    {
      "anonymous": false,
      "inputs": [
        {
          "indexed": true,
          "internalType": "uint8",
          "name": "roleId",
          "type": "uint8"
        },
        {
          "indexed": true,
          "internalType": "address",
          "name": "oldAddr",
          "type": "address"
        },
        {
          "indexed": true,
          "internalType": "address",
          "name": "newAddr",
          "type": "address"
        }
      ],
      "name": "RoleAccepted",
      "type": "event"
    },
    {
      "anonymous": false,
      "inputs": [
        {
          "indexed": true,
          "internalType": "uint8",
          "name": "roleId",
          "type": "uint8"
        },
        {
          "indexed": true,
          "internalType": "address",
          "name": "currentAddr",
          "type": "address"
        },
        {
          "indexed": true,
          "internalType": "address",
          "name": "proposedAddr",
          "type": "address"
        }
      ],
      "name": "RoleProposed",
      "type": "event"
    },
    {
      "anonymous": false,
      "inputs": [
        {
          "indexed": true,
          "internalType": "address",
          "name": "implementation",
          "type": "address"
        }
      ],
      "name": "Upgraded",
      "type": "event"
    },
    {
      "inputs": [],
      "name": "DAO_ROLE_ID",
      "outputs": [
        {
          "internalType": "uint8",
          "name": "",
          "type": "uint8"
        }
      ],
      "stateMutability": "view",
      "type": "function"
    },
    {
      "inputs": [],
      "name": "START_TIME",
      "outputs": [
        {
          "internalType": "uint256",
          "name": "",
          "type": "uint256"
        }
      ],
      "stateMutability": "view",
      "type": "function"
    },
    {
      "inputs": [
        {
          "internalType": "uint8",
          "name": "roleId",
          "type": "uint8"
        }
      ],
      "name": "acceptAuthority",
      "outputs": [],
      "stateMutability": "nonpayable",
      "type": "function"
    },
    {
      "inputs": [
        {
          "internalType": "string",
          "name": "snapShotId",
          "type": "string"
        }
      ],
      "name": "acceptDaoFundRequestProposal",
      "outputs": [],
      "stateMutability": "nonpayable",
      "type": "function"
    },
    {
      "inputs": [
        {
          "internalType": "address",
          "name": "nftOwner",
          "type": "address"
        }
      ],
      "name": "buybackNFT",
      "outputs": [
        {
          "internalType": "bool",
          "name": "",
          "type": "bool"
        }
      ],
      "stateMutability": "nonpayable",
      "type": "function"
    },
    {
      "inputs": [],
      "name": "buybackTaxRation",
      "outputs": [
        {
          "internalType": "uint256",
          "name": "",
          "type": "uint256"
        }
      ],
      "stateMutability": "view",
      "type": "function"
    },
    {
      "inputs": [],
      "name": "collectigame",
      "outputs": [
        {
          "internalType": "address",
          "name": "",
          "type": "address"
        }
      ],
      "stateMutability": "view",
      "type": "function"
    },
    {
      "inputs": [],
      "name": "collectigameSupply",
      "outputs": [
        {
          "internalType": "uint256",
          "name": "",
          "type": "uint256"
        }
      ],
      "stateMutability": "view",
      "type": "function"
    },
    {
      "inputs": [],
      "name": "daoProposalFundingStartTime",
      "outputs": [
        {
          "internalType": "uint256",
          "name": "",
          "type": "uint256"
        }
      ],
      "stateMutability": "view",
      "type": "function"
    },
    {
      "inputs": [
        {
          "internalType": "uint256",
          "name": "",
          "type": "uint256"
        }
      ],
      "name": "daoProposalIds",
      "outputs": [
        {
          "internalType": "string",
          "name": "",
          "type": "string"
        }
      ],
      "stateMutability": "view",
      "type": "function"
    },
    {
      "inputs": [
        {
          "internalType": "string",
          "name": "",
          "type": "string"
        }
      ],
      "name": "daoProposals",
      "outputs": [
        {
          "internalType": "string",
          "name": "title",
          "type": "string"
        },
        {
          "internalType": "uint256",
          "name": "fundRequestAmount",
          "type": "uint256"
        },
        {
          "internalType": "uint256",
          "name": "votingStartTime",
          "type": "uint256"
        },
        {
          "internalType": "uint256",
          "name": "votingEndTime",
          "type": "uint256"
        },
        {
          "internalType": "address",
          "name": "proposer",
          "type": "address"
        },
        {
          "internalType": "bool",
          "name": "isFunded",
          "type": "bool"
        }
      ],
      "stateMutability": "view",
      "type": "function"
    },
    {
      "inputs": [
        {
          "internalType": "uint8",
          "name": "",
          "type": "uint8"
        }
      ],
      "name": "ethReleasesPlan",
      "outputs": [
        {
          "internalType": "uint256",
          "name": "amountOrPercent",
          "type": "uint256"
        },
        {
          "internalType": "uint256",
          "name": "releaseDate",
          "type": "uint256"
        },
        {
          "internalType": "address",
          "name": "receiver",
          "type": "address"
        },
        {
          "internalType": "bool",
          "name": "isReleased",
          "type": "bool"
        }
      ],
      "stateMutability": "view",
      "type": "function"
    },
    {
      "inputs": [
        {
          "internalType": "uint8",
          "name": "",
          "type": "uint8"
        }
      ],
      "name": "ethReleasesPlanDescription",
      "outputs": [
        {
          "internalType": "string",
          "name": "",
          "type": "string"
        }
      ],
      "stateMutability": "view",
      "type": "function"
    },
    {
      "inputs": [],
      "name": "gameTreasury",
      "outputs": [
        {
          "internalType": "address",
          "name": "",
          "type": "address"
        }
      ],
      "stateMutability": "view",
      "type": "function"
    },
    {
      "inputs": [
        {
          "internalType": "uint256",
          "name": "amount",
          "type": "uint256"
        }
      ],
      "name": "gameTresuryDeposit",
      "outputs": [
        {
          "internalType": "bool",
          "name": "",
          "type": "bool"
        }
      ],
      "stateMutability": "payable",
      "type": "function"
    },
    {
      "inputs": [
        {
          "internalType": "uint256",
          "name": "amount",
          "type": "uint256"
        }
      ],
      "name": "generalDeposit",
      "outputs": [
        {
          "internalType": "bool",
          "name": "",
          "type": "bool"
        }
      ],
      "stateMutability": "payable",
      "type": "function"
    },
    {
      "inputs": [],
      "name": "getTreasuryBalance",
      "outputs": [
        {
          "internalType": "uint256",
          "name": "",
          "type": "uint256"
        }
      ],
      "stateMutability": "view",
      "type": "function"
    },
    {
      "inputs": [],
      "name": "guaranteedFlorPrice",
      "outputs": [
        {
          "internalType": "uint256",
          "name": "",
          "type": "uint256"
        }
      ],
      "stateMutability": "view",
      "type": "function"
    },
    {
      "inputs": [
        {
          "internalType": "uint256",
          "name": "increaseAmount",
          "type": "uint256"
        }
      ],
      "name": "increaseGuaranteedFlorPrice",
      "outputs": [],
      "stateMutability": "nonpayable",
      "type": "function"
    },
    {
      "inputs": [
        {
          "internalType": "address",
          "name": "daoMultisig_",
          "type": "address"
        },
        {
          "internalType": "address",
          "name": "collectigame_",
          "type": "address"
        },
        {
          "internalType": "address",
          "name": "gameTreasury_",
          "type": "address"
        },
        {
          "internalType": "address",
          "name": "teamMultisig_",
          "type": "address"
        },
        {
          "internalType": "uint256",
          "name": "buybackTaxRation_",
          "type": "uint256"
        }
      ],
      "name": "initialize",
      "outputs": [],
      "stateMutability": "nonpayable",
      "type": "function"
    },
    {
      "inputs": [
        {
          "internalType": "uint256",
          "name": "amount",
          "type": "uint256"
        }
      ],
      "name": "mintPriceDeposit",
      "outputs": [
        {
          "internalType": "bool",
          "name": "",
          "type": "bool"
        }
      ],
      "stateMutability": "payable",
      "type": "function"
    },
    {
      "inputs": [
        {
          "internalType": "string",
          "name": "snapShotId",
          "type": "string"
        },
        {
          "internalType": "string",
          "name": "title",
          "type": "string"
        },
        {
          "internalType": "uint256",
          "name": "fundRequestAmount",
          "type": "uint256"
        },
        {
          "internalType": "uint256",
          "name": "votingStartTime",
          "type": "uint256"
        },
        {
          "internalType": "uint256",
          "name": "votingEndTime",
          "type": "uint256"
        },
        {
          "internalType": "address",
          "name": "fundReceiver",
          "type": "address"
        }
      ],
      "name": "newDaoFundRequestProposal",
      "outputs": [],
      "stateMutability": "nonpayable",
      "type": "function"
    },
    {
      "inputs": [],
      "name": "numberOfRoles",
      "outputs": [
        {
          "internalType": "uint8",
          "name": "",
          "type": "uint8"
        }
      ],
      "stateMutability": "view",
      "type": "function"
    },
    {
      "inputs": [
        {
          "internalType": "string",
          "name": "id",
          "type": "string"
        }
      ],
      "name": "proposalStatus",
      "outputs": [
        {
          "internalType": "enum DAOTreasury.ProposalStatus",
          "name": "",
          "type": "uint8"
        }
      ],
      "stateMutability": "view",
      "type": "function"
    },
    {
      "inputs": [
        {
          "internalType": "uint8",
          "name": "roleId",
          "type": "uint8"
        },
        {
          "internalType": "address",
          "name": "proposedAddr",
          "type": "address"
        }
      ],
      "name": "proposeAuthority",
      "outputs": [],
      "stateMutability": "nonpayable",
      "type": "function"
    },
    {
      "inputs": [],
      "name": "proxiableUUID",
      "outputs": [
        {
          "internalType": "bytes32",
          "name": "",
          "type": "bytes32"
        }
      ],
      "stateMutability": "view",
      "type": "function"
    },
    {
      "inputs": [
        {
          "internalType": "uint8",
          "name": "releaseId",
          "type": "uint8"
        }
      ],
      "name": "releaseFund",
      "outputs": [],
      "stateMutability": "nonpayable",
      "type": "function"
    },
    {
      "inputs": [
        {
          "internalType": "uint8",
          "name": "roleId",
          "type": "uint8"
        }
      ],
      "name": "renounceAuthority",
      "outputs": [],
      "stateMutability": "nonpayable",
      "type": "function"
    },
    {
      "inputs": [
        {
          "internalType": "uint8",
          "name": "",
          "type": "uint8"
        }
      ],
      "name": "roles",
      "outputs": [
        {
          "internalType": "address",
          "name": "addr",
          "type": "address"
        },
        {
          "internalType": "address",
          "name": "proposedAddr",
          "type": "address"
        },
        {
          "internalType": "bool",
          "name": "isRenounced",
          "type": "bool"
        }
      ],
      "stateMutability": "view",
      "type": "function"
    },
    {
      "inputs": [
        {
          "internalType": "uint256",
          "name": "buybackTaxRation_",
          "type": "uint256"
        }
      ],
      "name": "setBuybackTaxRatio",
      "outputs": [],
      "stateMutability": "nonpayable",
      "type": "function"
    },
    {
      "inputs": [],
      "name": "setupReleasePlan",
      "outputs": [],
      "stateMutability": "nonpayable",
      "type": "function"
    },
    {
      "inputs": [],
      "name": "teamMultisig",
      "outputs": [
        {
          "internalType": "address",
          "name": "",
          "type": "address"
        }
      ],
      "stateMutability": "view",
      "type": "function"
    },
    {
      "inputs": [
        {
          "internalType": "address",
          "name": "newImplementation",
          "type": "address"
        }
      ],
      "name": "upgradeTo",
      "outputs": [],
      "stateMutability": "nonpayable",
      "type": "function"
    },
    {
      "inputs": [
        {
          "internalType": "address",
          "name": "newImplementation",
          "type": "address"
        },
        {
          "internalType": "bytes",
          "name": "data",
          "type": "bytes"
        }
      ],
      "name": "upgradeToAndCall",
      "outputs": [],
      "stateMutability": "payable",
      "type": "function"
    }
  ],
  "bytecode": "0x60a06040523060601b60805234801561001757600080fd5b5060805160601c61350c61005260003960008181610f6a01528181610fef01528181611234015281816112b9015261139f015261350c6000f3fe6080604052600436106101f95760003560e01c8063998e20861161010d578063cc092ab9116100a0578063dbf4156b1161006f578063dbf4156b146105e2578063ddaa26ad14610602578063ddb6825a14610618578063f5c79d3d14610499578063f7013ef61461069a57600080fd5b8063cc092ab914610562578063d2f9efab14610582578063d5143555146105a2578063dbc0c085146105c257600080fd5b8063a6e33677116100dc578063a6e33677146104e5578063ab6d78ce146104ff578063b666e40614610515578063b8b5eef21461053557600080fd5b8063998e2086146104995780639a9ffbde146104995780639b5655dc146104bc578063a193818c146104cf57600080fd5b80634f1ef286116101905780636a3c4f561161015f5780636a3c4f56146103d45780638a266e73146104065780638cf61cdd1461041c578063965d08af1461045957806396a5d5ba1461047957600080fd5b80634f1ef2861461036057806352d1902d146103735780635744d0f51461038857806362c2c38a146103b457600080fd5b80632abf54db116101cc5780632abf54db146102cf5780632c348e8e146102f35780633659cfe614610313578063436e82781461033357600080fd5b806317326858146101fe57806317dbb5321461022057806318c8afa21461029a5780631d75d555146102af575b600080fd5b34801561020a57600080fd5b5061021e610219366004613216565b6106ba565b005b34801561022c57600080fd5b5061026d61023b366004613216565b606660205260009081526040902080546001909101546001600160a01b0391821691811690600160a01b900460ff1683565b604080516001600160a01b0394851681529390921660208401521515908201526060015b60405180910390f35b3480156102a657600080fd5b5061021e6108c1565b3480156102bb57600080fd5b5061021e6102ca3660046131fe565b610c7d565b3480156102db57600080fd5b506102e5606e5481565b604051908152602001610291565b3480156102ff57600080fd5b5061021e61030e366004613057565b610cea565b34801561031f57600080fd5b5061021e61032e366004612f11565b610f5f565b34801561033f57600080fd5b5061035361034e366004613017565b6110db565b60405161029191906132da565b61021e61036e366004612f86565b611229565b34801561037f57600080fd5b506102e5611392565b34801561039457600080fd5b506065546103a29060ff1681565b60405160ff9091168152602001610291565b3480156103c057600080fd5b5061021e6103cf3660046131fe565b611457565b3480156103e057600080fd5b506103f46103ef3660046130f0565b611601565b60405161029196959493929190613315565b34801561041257600080fd5b506102e5606c5481565b34801561042857600080fd5b506068546104419061010090046001600160a01b031681565b6040516001600160a01b039091168152602001610291565b34801561046557600080fd5b5061021e610474366004613216565b6116d8565b34801561048557600080fd5b5061021e61049436600461324e565b6117b4565b6104ac6104a73660046131fe565b61196a565b6040519015158152602001610291565b3480156104c857600080fd5b50476102e5565b3480156104db57600080fd5b506102e5606b5481565b3480156104f157600080fd5b506068546103a29060ff1681565b34801561050b57600080fd5b506102e5606d5481565b34801561052157600080fd5b506104ac610530366004612f11565b6119c4565b34801561054157600080fd5b50610555610550366004613216565b611cb4565b6040516102919190613302565b34801561056e57600080fd5b5061021e61057d366004613017565b611d4e565b34801561058e57600080fd5b50606954610441906001600160a01b031681565b3480156105ae57600080fd5b5061021e6105bd366004613216565b611fe9565b3480156105ce57600080fd5b50606a54610441906001600160a01b031681565b3480156105ee57600080fd5b506105556105fd3660046131fe565b612086565b34801561060e57600080fd5b506102e560675481565b34801561062457600080fd5b50610669610633366004613216565b6070602052600090815260409020805460018201546002909201549091906001600160a01b03811690600160a01b900460ff1684565b604051610291949392919093845260208401929092526001600160a01b031660408301521515606082015260800190565b3480156106a657600080fd5b5061021e6106b5366004612f2b565b6120b1565b606f5460ff166107115760405162461bcd60e51b815260206004820152601960248201527f44414f205472656173757279204973204e6f742053657475700000000000000060448201526064015b60405180910390fd5b60ff808216600090815260706020526040902060028101549091600160a01b90910416156107815760405162461bcd60e51b815260206004820152601660248201527f46756e6420686173206265656e2072656c6561736564000000000000000000006044820152606401610708565b42816001015411156107d55760405162461bcd60e51b815260206004820152601b60248201527f52656c656173652064617465206973206e6f74207265616368656400000000006044820152606401610708565b60675481600101541161082a5760405162461bcd60e51b815260206004820152601b60248201527f52656c656173652064617465206973206e6f74207265616368656400000000006044820152606401610708565b60ff82166108625760028101805460ff60a01b198116600160a01b17909155815461085e916001600160a01b03169061238e565b5050565b60028101805460ff60a01b1916600160a01b17905560006108804790565b9050600060648360000154836108969190613394565b6108a09190613374565b60028401549091506108bb906001600160a01b03168261238e565b50505050565b606f5460ff16156109045760405162461bcd60e51b815260206004820152600d60248201526c0416c726561647920536574757609c1b6044820152606401610708565b6000806064606b54606d546109199190613394565b610924906014613394565b61092e9190613374565b60408051608081018252828152606754602080830191825260685460ff908116600090815260668352858120546001600160a01b0390811686880190815260608701838152938b1680845260708652888420885181559651600188015590516002909601805494511515600160a01b026001600160a81b031990951696909216959095179290921790915584518086018652601f81527f4d61726b6574206d616b696e6720616e6420626f6f74737472617070696e670081840190815293825260719092529390932092519394509092610a09929190612d20565b5082610a1481613454565b93506276a70090505b60048460ff161015610b3157600a600082610a396001886133ca565b60ff16610a469190613394565b610a51846003613394565b606754610a5e919061335c565b610a68919061335c565b604080516080810182528481526020808201848152606a546001600160a01b0390811684860190815260006060860181815260ff8f1680835260708752888320885181559551600187015592516002909501805491511515600160a01b026001600160a81b0319909216959094169490941793909317909155845180860186526008815267546865207465616d60c01b818501908152918352607190935293902090519394509092610b1a9290612d20565b505050508380610b2990613454565b945050610a1d565b60078460ff161015610c6a57600a600082610b4d6001886133ca565b60ff16610b5a9190613394565b610b65846003613394565b606754610b72919061335c565b610b7c919061335c565b60408051608081018252848152602080820184815260685460ff908116600090815260668452858120546001600160a01b0390811686880190815260608701838152938f1680845260708752888420885181559551600187015590516002909501805494511515600160a01b026001600160a81b031990951695909216949094179290921790915584518086018652601681527f44444420706c6174666f726d20657870616e73696f6e0000000000000000000081850190815292825260719093529390932090519394509092610c539290612d20565b505050508380610c6290613454565b945050610b31565b5050606f805460ff191660011790555050565b60685460ff166000818152606660205260409020546001600160a01b03163314610ce45760405162461bcd60e51b815260206004820152601860248201527718d85b1b195c881a5cc81b9bdd08185d5d1a1bdc9a5e995960421b6044820152606401610708565b50606c55565b42606e541115610d2f5760405162461bcd60e51b815260206004820152601060248201526f44414f204973204e6f7420526561647960801b6044820152606401610708565b47848111610d9b5760405162461bcd60e51b815260206004820152603360248201527f54726561737572792062616c616e6365206973206e6f7420656e6f75676820746044820152721bc8199d5b99081d1a19481c1c9bdc1bdcd85b606a1b6064820152608401610708565b828410610e105760405162461bcd60e51b815260206004820152603860248201527f566f74696e672073746172742074696d652073686f756c64206265206561726c60448201527f696572207468616e20766f74696e6720656e642074696d6500000000000000006064820152608401610708565b6040805160e06020601f8a01819004028201810190925260c081018881526000928291908b908b90819085018382808284376000920182905250938552505050602082018990526040808301899052606083018890526001600160a01b038716608084015260a090920152519091508190607290610e91908d908d906132ca565b90815260200160405180910390206000820151816000019080519060200190610ebb929190612d20565b506020820151600180830191909155604083015160028301556060830151600383015560808301516004909201805460a0909401511515600160a01b026001600160a81b03199094166001600160a01b0390931692909217929092179055607380549182018155600052610f52907ff79bde9ddd17963ebce6f7d021d60de7c2bd0db944d23c900c0c0e775f530052018b8b612da4565b5050505050505050505050565b306001600160a01b037f0000000000000000000000000000000000000000000000000000000000000000161415610fed5760405162461bcd60e51b815260206004820152602c60248201527f46756e6374696f6e206d7573742062652063616c6c6564207468726f7567682060448201526b19195b1959d85d1958d85b1b60a21b6064820152608401610708565b7f00000000000000000000000000000000000000000000000000000000000000006001600160a01b03166110487f360894a13ba1a3210667c828492db98dca3e2076cc3735a920a3ca505d382bbc546001600160a01b031690565b6001600160a01b0316146110b35760405162461bcd60e51b815260206004820152602c60248201527f46756e6374696f6e206d7573742062652063616c6c6564207468726f7567682060448201526b6163746976652070726f787960a01b6064820152608401610708565b6110bc81612431565b604080516000808252602082019092526110d8918391906124e5565b50565b600080607284846040516110f09291906132ca565b90815260200160405180910390206040518060c001604052908160008201805461111990613419565b80601f016020809104026020016040519081016040528092919081815260200182805461114590613419565b80156111925780601f1061116757610100808354040283529160200191611192565b820191906000526020600020905b81548152906001019060200180831161117557829003601f168201915b50505091835250506001820154602082015260028201546040820152600382015460608201526004909101546001600160a01b0381166080830152600160a01b900460ff16151560a09182015281015190915062093a8090156111fa57600192505050611223565b4281836060015161120b919061335c565b101561121c57600292505050611223565b6000925050505b92915050565b306001600160a01b037f00000000000000000000000000000000000000000000000000000000000000001614156112b75760405162461bcd60e51b815260206004820152602c60248201527f46756e6374696f6e206d7573742062652063616c6c6564207468726f7567682060448201526b19195b1959d85d1958d85b1b60a21b6064820152608401610708565b7f00000000000000000000000000000000000000000000000000000000000000006001600160a01b03166113127f360894a13ba1a3210667c828492db98dca3e2076cc3735a920a3ca505d382bbc546001600160a01b031690565b6001600160a01b03161461137d5760405162461bcd60e51b815260206004820152602c60248201527f46756e6374696f6e206d7573742062652063616c6c6564207468726f7567682060448201526b6163746976652070726f787960a01b6064820152608401610708565b61138682612431565b61085e828260016124e5565b6000306001600160a01b037f000000000000000000000000000000000000000000000000000000000000000016146114325760405162461bcd60e51b815260206004820152603860248201527f555550535570677261646561626c653a206d757374206e6f742062652063616c60448201527f6c6564207468726f7567682064656c656761746563616c6c00000000000000006064820152608401610708565b507f360894a13ba1a3210667c828492db98dca3e2076cc3735a920a3ca505d382bbc90565b60685460ff166000818152606660205260409020546001600160a01b031633146114be5760405162461bcd60e51b815260206004820152601860248201527718d85b1b195c881a5cc81b9bdd08185d5d1a1bdc9a5e995960421b6044820152606401610708565b6000606860019054906101000a90046001600160a01b03166001600160a01b0316630bee5eb96040518163ffffffff1660e01b815260040160206040518083038186803b15801561150e57600080fd5b505afa158015611522573d6000803e3d6000fd5b505050506040513d601f19601f820116820180604052508101906115469190613232565b60ff1690506000606b5482606d5461155e91906133b3565b6115689190613394565b905047818110156115e3576040805162461bcd60e51b81526020600482015260248101919091527f54726561737572792062616c616e6365206973206e6f7420656e6f756768207460448201527f6f20696e6372656173652067756172616e7465656420666c6f722070726963656064820152608401610708565b84606b60008282546115f5919061335c565b90915550505050505050565b805160208183018101805160728252928201919093012091528054819061162790613419565b80601f016020809104026020016040519081016040528092919081815260200182805461165390613419565b80156116a05780601f10611675576101008083540402835291602001916116a0565b820191906000526020600020905b81548152906001019060200180831161168357829003601f168201915b50505050600183015460028401546003850154600490950154939491939092506001600160a01b03811690600160a01b900460ff1686565b60ff81166000908152606660205260409020600101546001600160a01b031633146117455760405162461bcd60e51b815260206004820152601660248201527f63616c6c6572206973206e6f742070726f706f736564000000000000000000006044820152606401610708565b60ff811660008181526066602052604080822080546001820180546001600160a01b038082166001600160a01b03198086168217909655949091169091559251921693909284927f75d4894fae1c15d56c47e57d8fd94120a15786f520ddf423b53d7bee9324ee4b9190a45050565b60ff821660009081526066602052604090205482906001600160a01b0316331461181b5760405162461bcd60e51b815260206004820152601860248201527718d85b1b195c881a5cc81b9bdd08185d5d1a1bdc9a5e995960421b6044820152606401610708565b6001600160a01b0382166118715760405162461bcd60e51b815260206004820152601b60248201527f70726f706f7365642061646472657373206973206e6f742073657400000000006044820152606401610708565b60ff83166000908152606660205260409020546001600160a01b03838116911614156119055760405162461bcd60e51b815260206004820152603660248201527f70726f706f7365642061646472657373206973206e6f7420646966666572656e60448201527f742066726f6d2063757272656e742061646472657373000000000000000000006064820152608401610708565b60ff83166000818152606660205260408082206001810180546001600160a01b0319166001600160a01b038881169182179092559154925191949216927fec584e355ff3c59e7a9d34bfb18dec6a0db876a29b47afa136b8acbed3b62d2491a4505050565b6000813410156119bc5760405162461bcd60e51b815260206004820152601460248201527f416d6f756e74206973206e6f7420656e6f7567680000000000000000000000006044820152606401610708565b506001919050565b60685460009061010090046001600160a01b03163314611a265760405162461bcd60e51b815260206004820152601a60248201527f43616c6c6572204973204e6f7420436f6c6c6563746967616d650000000000006044820152606401610708565b6000606860019054906101000a90046001600160a01b03166001600160a01b0316631865c57d6040518163ffffffff1660e01b815260040160c06040518083038186803b158015611a7657600080fd5b505afa158015611a8a573d6000803e3d6000fd5b505050506040513d601f19601f82011682018060405250810190611aae919061313e565b80519091501515600114611b1a5760405162461bcd60e51b815260206004820152602d60248201527f436f6c6c6563746947616d6520636f6e747261637420686173206e6f7420696e60448201526c1a5d1a585b1a5e9959081e595d609a1b6064820152608401610708565b606b5447908111611b7f5760405162461bcd60e51b815260206004820152602960248201527f54726561737572792062616c616e6365206973206e6f7420656e6f75676820746044820152686f206275796261636b60b81b6064820152608401610708565b60006064606c54606b54611b939190613394565b611b9d9190613374565b606954604051632c85bbfd60e11b8152600481018390529192506000916001600160a01b039091169063590b77fa90602401602060405180830381600087803b158015611be957600080fd5b505af1158015611bfd573d6000803e3d6000fd5b505050506040513d601f19601f82011682018060405250810190611c219190612fe5565b905080611c705760405162461bcd60e51b815260206004820152601160248201527f54617820706179696e67206661696c65640000000000000000000000000000006044820152606401610708565b600082606b54611c8091906133b3565b90506001606d6000828254611c9591906133b3565b90915550611ca59050878261238e565b6001955050505050505b919050565b60716020526000908152604090208054611ccd90613419565b80601f0160208091040260200160405190810160405280929190818152602001828054611cf990613419565b8015611d465780601f10611d1b57610100808354040283529160200191611d46565b820191906000526020600020905b815481529060010190602001808311611d2957829003601f168201915b505050505081565b60685460ff166000818152606660205260409020546001600160a01b03163314611db55760405162461bcd60e51b815260206004820152601860248201527718d85b1b195c881a5cc81b9bdd08185d5d1a1bdc9a5e995960421b6044820152606401610708565b42606e541115611dfa5760405162461bcd60e51b815260206004820152601060248201526f44414f204973204e6f7420526561647960801b6044820152606401610708565b600060728484604051611e0e9291906132ca565b908152604051908190036020019020600481015490915060ff600160a01b9091041615611e7d5760405162461bcd60e51b815260206004820181905260248201527f50726f706f73616c2068617320616c7265616479206265656e2066756e6465646044820152606401610708565b600381015462093a8090421015611ee15760405162461bcd60e51b815260206004820152602260248201527f50726f706f73616c206973206e6f7420726561647920746f2062652066756e64604482015261195960f21b6064820152608401610708565b42818360030154611ef2919061335c565b1015611f405760405162461bcd60e51b815260206004820152601d60248201527f50726f706f73616c2066756e64696e672074696d6520697320706173740000006044820152606401610708565b60018201544790811015611fb25760405162461bcd60e51b815260206004820152603360248201527f54726561737572792062616c616e6365206973206e6f7420656e6f75676820746044820152721bc8199d5b99081d1a19481c1c9bdc1bdcd85b606a1b6064820152608401610708565b60048301805460ff60a01b198116600160a01b179091556001840154611fe1916001600160a01b03169061238e565b505050505050565b60ff811660009081526066602052604090205481906001600160a01b031633146120505760405162461bcd60e51b815260206004820152601860248201527718d85b1b195c881a5cc81b9bdd08185d5d1a1bdc9a5e995960421b6044820152606401610708565b5060ff16600090815260666020526040902080546001600160a01b0319168155600101805460ff60a01b1916600160a01b179055565b6073818154811061209657600080fd5b906000526020600020016000915090508054611ccd90613419565b60006120bd6001612685565b905080156120d5576000805461ff0019166101001790555b6068805460ff1990811690915542606755606f8054909116905560408051600180825281830190925260009160208083019080368337019050509050868160008151811061213357634e487b7160e01b600052603260045260246000fd5b6001600160a01b0392909216602092830291909101909101526040805160018082528183019092526000918160200160208202803683375050606854825192935060ff169183915060009061219857634e487b7160e01b600052603260045260246000fd5b60ff9092166020928302919091019091015260016121b781848461279b565b6068805474ffffffffffffffffffffffffffffffffffffffff0019166101006001600160a01b038b811682029290921792839055606980546001600160a01b03199081168c851617909155606a80549091168a84161790556040805163953495ff60e01b81529051919093049091169163953495ff916004808301926020929190829003018186803b15801561224c57600080fd5b505afa158015612260573d6000803e3d6000fd5b505050506040513d601f19601f820116820180604052508101906122849190612fff565b606b81905550606860019054906101000a90046001600160a01b03166001600160a01b03166332cb6b0c6040518163ffffffff1660e01b815260040160206040518083038186803b1580156122d857600080fd5b505afa1580156122ec573d6000803e3d6000fd5b505050506040513d601f19601f8201168201806040525081019061231091906131dc565b61ffff16606d55606c85905562278d0061232b816008613394565b606754612338919061335c565b606e55505082159150611fe19050576000805461ff0019169055604051600181527f7f26b83ff96e1f2b6a682f133852f6798a09c465da95921460cefb38474024989060200160405180910390a1505050505050565b60405182906000906001600160a01b0383169084908381818185875af1925050503d80600081146123db576040519150601f19603f3d011682016040523d82523d6000602084013e6123e0565b606091505b50509050806108bb5760405162461bcd60e51b815260206004820152600f60248201527f5472616e73666572204661696c656400000000000000000000000000000000006044820152606401610708565b60685460ff166000908152606660205260409020546001600160a01b031633811461249e5760405162461bcd60e51b815260206004820152601460248201527f556e617574686f72697a656420557067726164650000000000000000000000006044820152606401610708565b604080516001600160a01b038084168252841660208201527fb90e2bc4fe834360e667ff8170b09716e788ac550570f9e943f4e92da84100f9910160405180910390a15050565b7f4910fdfa16fed3260ed0e7147f7cc6da11a60208b5b9406d12a635614ffd91435460ff161561251d5761251883612ad9565b505050565b826001600160a01b03166352d1902d6040518163ffffffff1660e01b815260040160206040518083038186803b15801561255657600080fd5b505afa925050508015612586575060408051601f3d908101601f1916820190925261258391810190612fff565b60015b6125f85760405162461bcd60e51b815260206004820152602e60248201527f45524331393637557067726164653a206e657720696d706c656d656e7461746960448201527f6f6e206973206e6f7420555550530000000000000000000000000000000000006064820152608401610708565b7f360894a13ba1a3210667c828492db98dca3e2076cc3735a920a3ca505d382bbc81146126795760405162461bcd60e51b815260206004820152602960248201527f45524331393637557067726164653a20756e737570706f727465642070726f786044820152681a58589b195555525160ba1b6064820152608401610708565b50612518838383612b87565b60008054610100900460ff1615612713578160ff1660011480156126a85750303b155b61270b5760405162461bcd60e51b815260206004820152602e60248201527f496e697469616c697a61626c653a20636f6e747261637420697320616c72656160448201526d191e481a5b9a5d1a585b1a5e995960921b6064820152608401610708565b506000919050565b60005460ff8084169116106127815760405162461bcd60e51b815260206004820152602e60248201527f496e697469616c697a61626c653a20636f6e747261637420697320616c72656160448201526d191e481a5b9a5d1a585b1a5e995960921b6064820152608401610708565b506000805460ff191660ff92909216919091179055600190565b6065805460ff191660ff851617905580518251146128215760405162461bcd60e51b815260206004820152603660248201527f746865206e756d626572206f662061646472657373657320616e64207468652060448201527f726f6c6520696473206d75737420626520657175616c000000000000000000006064820152608401610708565b606554825160ff909116146128835760405162461bcd60e51b815260206004820152602260248201527f726561636820746f206d6178206e756d626572206f6620617574686f72697469604482015261657360f01b6064820152608401610708565b60005b82518160ff1610156108bb5760006001600160a01b031660666000848460ff16815181106128c457634e487b7160e01b600052603260045260246000fd5b60209081029190910181015160ff168252810191909152604001600020546001600160a01b0316146129385760405162461bcd60e51b815260206004820152601360248201527f726f6c6520616c726561647920657869737473000000000000000000000000006044820152606401610708565b60666000838360ff168151811061295f57634e487b7160e01b600052603260045260246000fd5b60209081029190910181015160ff90811683529082019290925260400160002060010154600160a01b900416156129d85760405162461bcd60e51b815260206004820152601d60248201527f726f6c6520616c7265616479207573656420616e64207265766f6b65640000006044820152606401610708565b6040518060600160405280848360ff1681518110612a0657634e487b7160e01b600052603260045260246000fd5b60200260200101516001600160a01b0316815260200160006001600160a01b031681526020016000151581525060666000848460ff1681518110612a5a57634e487b7160e01b600052603260045260246000fd5b60209081029190910181015160ff168252818101929092526040908101600020835181546001600160a01b0319166001600160a01b039182161782559284015160019091018054949092015192166001600160a81b031990931692909217600160a01b9115159190910217905580612ad181613454565b915050612886565b6001600160a01b0381163b612b465760405162461bcd60e51b815260206004820152602d60248201527f455243313936373a206e657720696d706c656d656e746174696f6e206973206e60448201526c1bdd08184818dbdb9d1c9858dd609a1b6064820152608401610708565b7f360894a13ba1a3210667c828492db98dca3e2076cc3735a920a3ca505d382bbc80546001600160a01b0319166001600160a01b0392909216919091179055565b612b9083612bac565b600082511180612b9d5750805b15612518576108bb8383612bec565b612bb581612ad9565b6040516001600160a01b038216907fbc7cd75a20ee27fd9adebab32041f755214dbc6bffa90cc0225b39da2e5c2d3b90600090a250565b60606001600160a01b0383163b612c545760405162461bcd60e51b815260206004820152602660248201527f416464726573733a2064656c65676174652063616c6c20746f206e6f6e2d636f6044820152651b9d1c9858dd60d21b6064820152608401610708565b600080846001600160a01b031684604051612c6f91906132ae565b600060405180830381855af49150503d8060008114612caa576040519150601f19603f3d011682016040523d82523d6000602084013e612caf565b606091505b5091509150612cd782826040518060600160405280602781526020016134b060279139612ce0565b95945050505050565b60608315612cef575081612d19565b825115612cff5782518084602001fd5b8160405162461bcd60e51b81526004016107089190613302565b9392505050565b828054612d2c90613419565b90600052602060002090601f016020900481019282612d4e5760008555612d94565b82601f10612d6757805160ff1916838001178555612d94565b82800160010185558215612d94579182015b82811115612d94578251825591602001919060010190612d79565b50612da0929150612e18565b5090565b828054612db090613419565b90600052602060002090601f016020900481019282612dd25760008555612d94565b82601f10612deb5782800160ff19823516178555612d94565b82800160010185558215612d94579182015b82811115612d94578235825591602001919060010190612dfd565b5b80821115612da05760008155600101612e19565b600067ffffffffffffffff80841115612e4857612e4861348a565b604051601f8501601f19908116603f01168101908282118183101715612e7057612e7061348a565b81604052809350858152868686011115612e8957600080fd5b858560208301376000602087830101525050509392505050565b80356001600160a01b0381168114611caf57600080fd5b80518015158114611caf57600080fd5b60008083601f840112612edb578182fd5b50813567ffffffffffffffff811115612ef2578182fd5b602083019150836020828501011115612f0a57600080fd5b9250929050565b600060208284031215612f22578081fd5b612d1982612ea3565b600080600080600060a08688031215612f42578081fd5b612f4b86612ea3565b9450612f5960208701612ea3565b9350612f6760408701612ea3565b9250612f7560608701612ea3565b949793965091946080013592915050565b60008060408385031215612f98578182fd5b612fa183612ea3565b9150602083013567ffffffffffffffff811115612fbc578182fd5b8301601f81018513612fcc578182fd5b612fdb85823560208401612e2d565b9150509250929050565b600060208284031215612ff6578081fd5b612d1982612eba565b600060208284031215613010578081fd5b5051919050565b60008060208385031215613029578182fd5b823567ffffffffffffffff81111561303f578283fd5b61304b85828601612eca565b90969095509350505050565b60008060008060008060008060c0898b031215613072578283fd5b883567ffffffffffffffff80821115613089578485fd5b6130958c838d01612eca565b909a50985060208b01359150808211156130ad578485fd5b506130ba8b828c01612eca565b9097509550506040890135935060608901359250608089013591506130e160a08a01612ea3565b90509295985092959890939650565b600060208284031215613101578081fd5b813567ffffffffffffffff811115613117578182fd5b8201601f81018413613127578182fd5b61313684823560208401612e2d565b949350505050565b600060c0828403121561314f578081fd5b60405160c0810181811067ffffffffffffffff821117156131725761317261348a565b60405261317e83612eba565b815261318c60208401612eba565b602082015261319d60408401612eba565b60408201526131ae60608401612eba565b60608201526131bf60808401612eba565b60808201526131d060a08401612eba565b60a08201529392505050565b6000602082840312156131ed578081fd5b815161ffff81168114612d19578182fd5b60006020828403121561320f578081fd5b5035919050565b600060208284031215613227578081fd5b8135612d19816134a0565b600060208284031215613243578081fd5b8151612d19816134a0565b60008060408385031215613260578182fd5b823561326b816134a0565b915061327960208401612ea3565b90509250929050565b6000815180845261329a8160208601602086016133ed565b601f01601f19169290920160200192915050565b600082516132c08184602087016133ed565b9190910192915050565b8183823760009101908152919050565b60208101600383106132fc57634e487b7160e01b600052602160045260246000fd5b91905290565b602081526000612d196020830184613282565b60c08152600061332860c0830189613282565b602083019790975250604081019490945260608401929092526001600160a01b03166080830152151560a090910152919050565b6000821982111561336f5761336f613474565b500190565b60008261338f57634e487b7160e01b81526012600452602481fd5b500490565b60008160001904831182151516156133ae576133ae613474565b500290565b6000828210156133c5576133c5613474565b500390565b600060ff821660ff8416808210156133e4576133e4613474565b90039392505050565b60005b838110156134085781810151838201526020016133f0565b838111156108bb5750506000910152565b600181811c9082168061342d57607f821691505b6020821081141561344e57634e487b7160e01b600052602260045260246000fd5b50919050565b600060ff821660ff81141561346b5761346b613474565b60010192915050565b634e487b7160e01b600052601160045260246000fd5b634e487b7160e01b600052604160045260246000fd5b60ff811681146110d857600080fdfe416464726573733a206c6f772d6c6576656c2064656c65676174652063616c6c206661696c6564a26469706673582212204c1cdea520e6fc8258024d7affee0a5e2c12ad8445d060d262492fa55b67579864736f6c63430008040033",
  "linkReferences": {},
  "deployedLinkReferences": {}
}