{
  "_format": "hh-sol-artifact-1",
  "contractName": "GameTreasuryV0",
  "sourceName": "src/contracts/GameTreasuryV0.sol",
  "abi": [
    {
      "inputs": [
        {
          "internalType": "address",
          "name": "_daoMultisig",
          "type": "address"
        }
      ],
      "stateMutability": "nonpayable",
      "type": "constructor"
    },
    {
      "anonymous": false,
      "inputs": [
        {
          "indexed": true,
          "internalType": "uint8",
          "name": "roleId",
          "type": "uint8"
        },
        {
          "indexed": true,
          "internalType": "address",
          "name": "oldAddr",
          "type": "address"
        },
        {
          "indexed": true,
          "internalType": "address",
          "name": "newAddr",
          "type": "address"
        }
      ],
      "name": "RoleAccepted",
      "type": "event"
    },
    {
      "anonymous": false,
      "inputs": [
        {
          "indexed": true,
          "internalType": "uint8",
          "name": "roleId",
          "type": "uint8"
        },
        {
          "indexed": true,
          "internalType": "address",
          "name": "currentAddr",
          "type": "address"
        },
        {
          "indexed": true,
          "internalType": "address",
          "name": "proposedAddr",
          "type": "address"
        }
      ],
      "name": "RoleProposed",
      "type": "event"
    },
    {
      "stateMutability": "payable",
      "type": "fallback"
    },
    {
      "inputs": [],
      "name": "DAO_ROLE_ID",
      "outputs": [
        {
          "internalType": "uint8",
          "name": "",
          "type": "uint8"
        }
      ],
      "stateMutability": "view",
      "type": "function"
    },
    {
      "inputs": [
        {
          "internalType": "uint8",
          "name": "roleId",
          "type": "uint8"
        }
      ],
      "name": "acceptAuthority",
      "outputs": [],
      "stateMutability": "nonpayable",
      "type": "function"
    },
    {
      "inputs": [
        {
          "internalType": "uint256",
          "name": "amount",
          "type": "uint256"
        }
      ],
      "name": "buybackTax",
      "outputs": [
        {
          "internalType": "bool",
          "name": "",
          "type": "bool"
        }
      ],
      "stateMutability": "payable",
      "type": "function"
    },
    {
      "inputs": [],
      "name": "gameTreasuryV0Balance",
      "outputs": [
        {
          "internalType": "uint256",
          "name": "",
          "type": "uint256"
        }
      ],
      "stateMutability": "view",
      "type": "function"
    },
    {
      "inputs": [],
      "name": "migrateToNewVersion",
      "outputs": [
        {
          "internalType": "bool",
          "name": "",
          "type": "bool"
        }
      ],
      "stateMutability": "nonpayable",
      "type": "function"
    },
    {
      "inputs": [],
      "name": "numberOfRoles",
      "outputs": [
        {
          "internalType": "uint8",
          "name": "",
          "type": "uint8"
        }
      ],
      "stateMutability": "view",
      "type": "function"
    },
    {
      "inputs": [
        {
          "internalType": "uint8",
          "name": "roleId",
          "type": "uint8"
        },
        {
          "internalType": "address",
          "name": "proposedAddr",
          "type": "address"
        }
      ],
      "name": "proposeAuthority",
      "outputs": [],
      "stateMutability": "nonpayable",
      "type": "function"
    },
    {
      "inputs": [
        {
          "internalType": "uint8",
          "name": "roleId",
          "type": "uint8"
        }
      ],
      "name": "renounceAuthority",
      "outputs": [],
      "stateMutability": "nonpayable",
      "type": "function"
    },
    {
      "inputs": [
        {
          "internalType": "uint8",
          "name": "",
          "type": "uint8"
        }
      ],
      "name": "roles",
      "outputs": [
        {
          "internalType": "address",
          "name": "addr",
          "type": "address"
        },
        {
          "internalType": "address",
          "name": "proposedAddr",
          "type": "address"
        },
        {
          "internalType": "bool",
          "name": "isRenounced",
          "type": "bool"
        }
      ],
      "stateMutability": "view",
      "type": "function"
    },
    {
      "inputs": [
        {
          "internalType": "address",
          "name": "_v1Contract",
          "type": "address"
        }
      ],
      "name": "setV1ContractAddress",
      "outputs": [],
      "stateMutability": "nonpayable",
      "type": "function"
    },
    {
      "inputs": [],
      "name": "transferEthToNewVersion",
      "outputs": [],
      "stateMutability": "nonpayable",
      "type": "function"
    },
    {
      "inputs": [],
      "name": "v1Contract",
      "outputs": [
        {
          "internalType": "address",
          "name": "",
          "type": "address"
        }
      ],
      "stateMutability": "view",
      "type": "function"
    },
    {
      "stateMutability": "payable",
      "type": "receive"
    }
  ],
  "bytecode": "0x60806040526002805460ff191660011790553480156200001e57600080fd5b506040516200101338038062001013833981016040819052620000419162000461565b6000805460ff19166001908117825560408051828152808201909152906020808301908036833701905050905081816000815181106200009157634e487b7160e01b600052603260045260246000fd5b6001600160a01b039290921660209283029190910190910152604080516001808252818301909252600091816020016020820280368337019050509050600081600081518110620000f257634e487b7160e01b600052603260045260246000fd5b60ff9092166020928302919091019091015262000110828262000119565b505050620004be565b8051825114620001965760405162461bcd60e51b815260206004820152603660248201527f746865206e756d626572206f662061646472657373657320616e64207468652060448201527f726f6c6520696473206d75737420626520657175616c0000000000000000000060648201526084015b60405180910390fd5b600054825160ff90911614620001fa5760405162461bcd60e51b815260206004820152602260248201527f726561636820746f206d6178206e756d626572206f6620617574686f72697469604482015261657360f01b60648201526084016200018d565b60005b82518160ff1610156200045c5760006001600160a01b031660016000848460ff16815181106200023d57634e487b7160e01b600052603260045260246000fd5b60209081029190910181015160ff168252810191909152604001600020546001600160a01b031614620002b35760405162461bcd60e51b815260206004820152601360248201527f726f6c6520616c7265616479206578697374730000000000000000000000000060448201526064016200018d565b60016000838360ff1681518110620002db57634e487b7160e01b600052603260045260246000fd5b60209081029190910181015160ff90811683529082019290925260400160002060010154600160a01b90041615620003565760405162461bcd60e51b815260206004820152601d60248201527f726f6c6520616c7265616479207573656420616e64207265766f6b656400000060448201526064016200018d565b6040518060600160405280848360ff16815181106200038557634e487b7160e01b600052603260045260246000fd5b60200260200101516001600160a01b0316815260200160006001600160a01b031681526020016000151581525060016000848460ff1681518110620003da57634e487b7160e01b600052603260045260246000fd5b60209081029190910181015160ff168252818101929092526040908101600020835181546001600160a01b0319166001600160a01b039182161782559284015160019091018054949092015192166001600160a81b031990931692909217600160a01b9115159190910217905580620004538162000491565b915050620001fd565b505050565b60006020828403121562000473578081fd5b81516001600160a01b03811681146200048a578182fd5b9392505050565b600060ff821660ff811415620004b557634e487b7160e01b82526011600452602482fd5b60010192915050565b610b4580620004ce6000396000f3fe6080604052600436106100bf5760003560e01c8063965d08af1161006e578063d51435551161004b578063d51435551461022b578063e2bb286f1461024b578063ed1ec0f41461026b57005b8063965d08af146101d657806396a5d5ba146101f6578063a6e336771461021657005b806355736ee11161009c57806355736ee11461017c5780635744d0f514610197578063590b77fa146101c357005b80631034ff0a146100c857806317dbb532146100f25780632f82cfaa1461016757005b366100c657005b005b3480156100d457600080fd5b506100dd6102a8565b60405190151581526020015b60405180910390f35b3480156100fe57600080fd5b5061013f61010d366004610ac3565b600160208190526000918252604090912080549101546001600160a01b0391821691811690600160a01b900460ff1683565b604080516001600160a01b0394851681529390921660208401521515908201526060016100e9565b34801561017357600080fd5b506100c661039f565b34801561018857600080fd5b506040514781526020016100e9565b3480156101a357600080fd5b506000546101b19060ff1681565b60405160ff90911681526020016100e9565b6100dd6101d1366004610aab565b61045e565b3480156101e257600080fd5b506100c66101f1366004610ac3565b610519565b34801561020257600080fd5b506100c6610211366004610add565b6105f6565b34801561022257600080fd5b506101b1600081565b34801561023757600080fd5b506100c6610246366004610ac3565b6107b5565b34801561025757600080fd5b506100c6610266366004610a8a565b610858565b34801561027757600080fd5b506002546102909061010090046001600160a01b031681565b6040516001600160a01b0390911681526020016100e9565b60025460009060ff166103025760405162461bcd60e51b815260206004820152601c60248201527f47616d6554726561737572795630206973206e6f74206163746976650000000060448201526064015b60405180910390fd5b60025461010090046001600160a01b031633146103715760405162461bcd60e51b815260206004820152602760248201527f6f6e6c7920763120636f6e74726163742063616e2063616c6c207468697320666044820152663ab731ba34b7b760c91b60648201526084016102f9565b6002805460ff19169081905547906103979061010090046001600160a01b0316826109b9565b600191505090565b60025460ff16156103f25760405162461bcd60e51b815260206004820152601860248201527f47616d655472656173757279563020697320616374697665000000000000000060448201526064016102f9565b47806104405760405162461bcd60e51b815260206004820152601860248201527f436f6e74726163742042616c616e6365206973205a65726f000000000000000060448201526064016102f9565b60025461045b9061010090046001600160a01b0316826109b9565b50565b60025460009060ff166104b35760405162461bcd60e51b815260206004820152601c60248201527f47616d6554726561737572795630206973206e6f74206163746976650000000060448201526064016102f9565b3482116105105760405162461bcd60e51b815260206004820152602560248201527f616d6f756e74206d7573742062652067726561746572207468616e206d73672e60448201526476616c756560d81b60648201526084016102f9565b5060015b919050565b60ff8116600090815260016020819052604090912001546001600160a01b031633146105875760405162461bcd60e51b815260206004820152601660248201527f63616c6c6572206973206e6f742070726f706f7365640000000000000000000060448201526064016102f9565b60ff81166000818152600160208190526040808320805492810180546001600160a01b03198086166001600160a01b0380841691821790955591169091559151921693909284927f75d4894fae1c15d56c47e57d8fd94120a15786f520ddf423b53d7bee9324ee4b9190a45050565b60ff821660009081526001602052604090205482906001600160a01b031633146106625760405162461bcd60e51b815260206004820152601860248201527f63616c6c6572206973206e6f7420617574686f72697a6564000000000000000060448201526064016102f9565b6001600160a01b0382166106b85760405162461bcd60e51b815260206004820152601b60248201527f70726f706f7365642061646472657373206973206e6f7420736574000000000060448201526064016102f9565b60ff83166000908152600160205260409020546001600160a01b038381169116141561074c5760405162461bcd60e51b815260206004820152603660248201527f70726f706f7365642061646472657373206973206e6f7420646966666572656e60448201527f742066726f6d2063757272656e7420616464726573730000000000000000000060648201526084016102f9565b60ff8316600081815260016020819052604080832091820180546001600160a01b0319166001600160a01b0388811691821790925592549151929491169290917fec584e355ff3c59e7a9d34bfb18dec6a0db876a29b47afa136b8acbed3b62d249190a4505050565b60ff811660009081526001602052604090205481906001600160a01b031633146108215760405162461bcd60e51b815260206004820152601860248201527f63616c6c6572206973206e6f7420617574686f72697a6564000000000000000060448201526064016102f9565b5060ff16600090815260016020819052604090912080546001600160a01b031916815501805460ff60a01b1916600160a01b179055565b60025460ff166108aa5760405162461bcd60e51b815260206004820152601c60248201527f47616d6554726561737572795630206973206e6f74206163746976650000000060448201526064016102f9565b600080805260016020527fa6eef7e35abe7026729641147f7915573c7e97b47efa546f5f6e3230263bcb49546001600160a01b0316331461092d5760405162461bcd60e51b815260206004820152601860248201527f63616c6c6572206973206e6f7420617574686f72697a6564000000000000000060448201526064016102f9565b6001600160a01b0382166109835760405162461bcd60e51b815260206004820152601860248201527f5f7631436f6e7472616374206973206e6f742076616c6964000000000000000060448201526064016102f9565b50600280546001600160a01b039092166101000274ffffffffffffffffffffffffffffffffffffffff0019909216919091179055565b60405182906000906001600160a01b0383169084908381818185875af1925050503d8060008114610a06576040519150601f19603f3d011682016040523d82523d6000602084013e610a0b565b606091505b5050905080610a5c5760405162461bcd60e51b815260206004820152600f60248201527f5472616e73666572204661696c6564000000000000000000000000000000000060448201526064016102f9565b50505050565b80356001600160a01b038116811461051457600080fd5b803560ff8116811461051457600080fd5b600060208284031215610a9b578081fd5b610aa482610a62565b9392505050565b600060208284031215610abc578081fd5b5035919050565b600060208284031215610ad4578081fd5b610aa482610a79565b60008060408385031215610aef578081fd5b610af883610a79565b9150610b0660208401610a62565b9050925092905056fea264697066735822122083030e6df279a7fb62288aa841f5bf77c19e0ffaedd6a097e865dabba08a9d2064736f6c63430008040033",
  "linkReferences": {},
  "deployedLinkReferences": {}
}