{
  "_format": "hh-sol-artifact-1",
  "contractName": "GameTreasuryV0",
  "sourceName": "src/contracts/GameTreasuryV0.sol",
  "abi": [
    {
      "inputs": [
        {
          "internalType": "address",
          "name": "_daoMultisig",
          "type": "address"
        }
      ],
      "stateMutability": "nonpayable",
      "type": "constructor"
    },
    {
      "anonymous": false,
      "inputs": [
        {
          "indexed": true,
          "internalType": "uint8",
          "name": "roleId",
          "type": "uint8"
        },
        {
          "indexed": true,
          "internalType": "address",
          "name": "oldAddr",
          "type": "address"
        },
        {
          "indexed": true,
          "internalType": "address",
          "name": "newAddr",
          "type": "address"
        }
      ],
      "name": "RoleAccepted",
      "type": "event"
    },
    {
      "anonymous": false,
      "inputs": [
        {
          "indexed": true,
          "internalType": "uint8",
          "name": "roleId",
          "type": "uint8"
        },
        {
          "indexed": true,
          "internalType": "address",
          "name": "currentAddr",
          "type": "address"
        },
        {
          "indexed": true,
          "internalType": "address",
          "name": "proposedAddr",
          "type": "address"
        }
      ],
      "name": "RoleProposed",
      "type": "event"
    },
    {
      "stateMutability": "payable",
      "type": "fallback"
    },
    {
      "inputs": [
        {
          "internalType": "uint8",
          "name": "roleId",
          "type": "uint8"
        }
      ],
      "name": "acceptAuthority",
      "outputs": [],
      "stateMutability": "nonpayable",
      "type": "function"
    },
    {
      "inputs": [
        {
          "internalType": "uint256",
          "name": "amount",
          "type": "uint256"
        }
      ],
      "name": "buybackTax",
      "outputs": [
        {
          "internalType": "bool",
          "name": "",
          "type": "bool"
        }
      ],
      "stateMutability": "payable",
      "type": "function"
    },
    {
      "inputs": [],
      "name": "gameTreasuryV0Balance",
      "outputs": [
        {
          "internalType": "uint256",
          "name": "",
          "type": "uint256"
        }
      ],
      "stateMutability": "view",
      "type": "function"
    },
    {
      "inputs": [],
      "name": "migrateToNewVersion",
      "outputs": [
        {
          "internalType": "bool",
          "name": "",
          "type": "bool"
        }
      ],
      "stateMutability": "nonpayable",
      "type": "function"
    },
    {
      "inputs": [],
      "name": "numberOfRoles",
      "outputs": [
        {
          "internalType": "uint8",
          "name": "",
          "type": "uint8"
        }
      ],
      "stateMutability": "view",
      "type": "function"
    },
    {
      "inputs": [
        {
          "internalType": "uint8",
          "name": "roleId",
          "type": "uint8"
        },
        {
          "internalType": "address",
          "name": "proposedAddr",
          "type": "address"
        }
      ],
      "name": "proposeAuthority",
      "outputs": [],
      "stateMutability": "nonpayable",
      "type": "function"
    },
    {
      "inputs": [
        {
          "internalType": "uint8",
          "name": "roleId",
          "type": "uint8"
        }
      ],
      "name": "renounceAuthority",
      "outputs": [],
      "stateMutability": "nonpayable",
      "type": "function"
    },
    {
      "inputs": [
        {
          "internalType": "uint8",
          "name": "",
          "type": "uint8"
        }
      ],
      "name": "roles",
      "outputs": [
        {
          "internalType": "address",
          "name": "addr",
          "type": "address"
        },
        {
          "internalType": "address",
          "name": "proposedAddr",
          "type": "address"
        },
        {
          "internalType": "bool",
          "name": "isRenounced",
          "type": "bool"
        }
      ],
      "stateMutability": "view",
      "type": "function"
    },
    {
      "inputs": [
        {
          "internalType": "address",
          "name": "_v1Contract",
          "type": "address"
        }
      ],
      "name": "setV1ContractAddress",
      "outputs": [],
      "stateMutability": "nonpayable",
      "type": "function"
    },
    {
      "inputs": [],
      "name": "transferEthToNewVersion",
      "outputs": [],
      "stateMutability": "nonpayable",
      "type": "function"
    },
    {
      "inputs": [],
      "name": "v1Contract",
      "outputs": [
        {
          "internalType": "address",
          "name": "",
          "type": "address"
        }
      ],
      "stateMutability": "view",
      "type": "function"
    },
    {
      "stateMutability": "payable",
      "type": "receive"
    }
  ],
  "bytecode": "0x60806040526002805460ff191660011790553480156200001e57600080fd5b5060405162000fe638038062000fe6833981016040819052620000419162000461565b6000805460ff19166001908117825560408051828152808201909152906020808301908036833701905050905081816000815181106200009157634e487b7160e01b600052603260045260246000fd5b6001600160a01b039290921660209283029190910190910152604080516001808252818301909252600091816020016020820280368337019050509050600081600081518110620000f257634e487b7160e01b600052603260045260246000fd5b60ff9092166020928302919091019091015262000110828262000119565b505050620004be565b8051825114620001965760405162461bcd60e51b815260206004820152603660248201527f746865206e756d626572206f662061646472657373657320616e64207468652060448201527f726f6c6520696473206d75737420626520657175616c0000000000000000000060648201526084015b60405180910390fd5b600054825160ff90911614620001fa5760405162461bcd60e51b815260206004820152602260248201527f726561636820746f206d6178206e756d626572206f6620617574686f72697469604482015261657360f01b60648201526084016200018d565b60005b82518160ff1610156200045c5760006001600160a01b031660016000848460ff16815181106200023d57634e487b7160e01b600052603260045260246000fd5b60209081029190910181015160ff168252810191909152604001600020546001600160a01b031614620002b35760405162461bcd60e51b815260206004820152601360248201527f726f6c6520616c7265616479206578697374730000000000000000000000000060448201526064016200018d565b60016000838360ff1681518110620002db57634e487b7160e01b600052603260045260246000fd5b60209081029190910181015160ff90811683529082019290925260400160002060010154600160a01b90041615620003565760405162461bcd60e51b815260206004820152601d60248201527f726f6c6520616c7265616479207573656420616e64207265766f6b656400000060448201526064016200018d565b6040518060600160405280848360ff16815181106200038557634e487b7160e01b600052603260045260246000fd5b60200260200101516001600160a01b0316815260200160006001600160a01b031681526020016000151581525060016000848460ff1681518110620003da57634e487b7160e01b600052603260045260246000fd5b60209081029190910181015160ff168252818101929092526040908101600020835181546001600160a01b0319166001600160a01b039182161782559284015160019091018054949092015192166001600160a81b031990931692909217600160a01b9115159190910217905580620004538162000491565b915050620001fd565b505050565b60006020828403121562000473578081fd5b81516001600160a01b03811681146200048a578182fd5b9392505050565b600060ff821660ff811415620004b557634e487b7160e01b82526011600452602482fd5b60010192915050565b610b1880620004ce6000396000f3fe6080604052600436106100a75760003560e01c8063590b77fa1161006e578063d51435551161004b578063d5143555146101fe578063e2bb286f1461021e578063ed1ec0f41461023e57005b8063590b77fa146101ab578063965d08af146101be57806396a5d5ba146101de57005b80631034ff0a146100b057806317dbb532146100da5780632f82cfaa1461014f57806355736ee1146101645780635744d0f51461017f57005b366100ae57005b005b3480156100bc57600080fd5b506100c561027b565b60405190151581526020015b60405180910390f35b3480156100e657600080fd5b506101276100f5366004610a96565b600160208190526000918252604090912080549101546001600160a01b0391821691811690600160a01b900460ff1683565b604080516001600160a01b0394851681529390921660208401521515908201526060016100d1565b34801561015b57600080fd5b506100ae610372565b34801561017057600080fd5b506040514781526020016100d1565b34801561018b57600080fd5b506000546101999060ff1681565b60405160ff90911681526020016100d1565b6100c56101b9366004610a7e565b610431565b3480156101ca57600080fd5b506100ae6101d9366004610a96565b6104ec565b3480156101ea57600080fd5b506100ae6101f9366004610ab0565b6105c9565b34801561020a57600080fd5b506100ae610219366004610a96565b610788565b34801561022a57600080fd5b506100ae610239366004610a5d565b61082b565b34801561024a57600080fd5b506002546102639061010090046001600160a01b031681565b6040516001600160a01b0390911681526020016100d1565b60025460009060ff166102d55760405162461bcd60e51b815260206004820152601c60248201527f47616d6554726561737572795630206973206e6f74206163746976650000000060448201526064015b60405180910390fd5b60025461010090046001600160a01b031633146103445760405162461bcd60e51b815260206004820152602760248201527f6f6e6c7920763120636f6e74726163742063616e2063616c6c207468697320666044820152663ab731ba34b7b760c91b60648201526084016102cc565b6002805460ff191690819055479061036a9061010090046001600160a01b03168261098c565b600191505090565b60025460ff16156103c55760405162461bcd60e51b815260206004820152601860248201527f47616d655472656173757279563020697320616374697665000000000000000060448201526064016102cc565b47806104135760405162461bcd60e51b815260206004820152601860248201527f436f6e74726163742042616c616e6365206973205a65726f000000000000000060448201526064016102cc565b60025461042e9061010090046001600160a01b03168261098c565b50565b60025460009060ff166104865760405162461bcd60e51b815260206004820152601c60248201527f47616d6554726561737572795630206973206e6f74206163746976650000000060448201526064016102cc565b3482116104e35760405162461bcd60e51b815260206004820152602560248201527f616d6f756e74206d7573742062652067726561746572207468616e206d73672e60448201526476616c756560d81b60648201526084016102cc565b5060015b919050565b60ff8116600090815260016020819052604090912001546001600160a01b0316331461055a5760405162461bcd60e51b815260206004820152601660248201527f63616c6c6572206973206e6f742070726f706f7365640000000000000000000060448201526064016102cc565b60ff81166000818152600160208190526040808320805492810180546001600160a01b03198086166001600160a01b0380841691821790955591169091559151921693909284927f75d4894fae1c15d56c47e57d8fd94120a15786f520ddf423b53d7bee9324ee4b9190a45050565b60ff821660009081526001602052604090205482906001600160a01b031633146106355760405162461bcd60e51b815260206004820152601860248201527f63616c6c6572206973206e6f7420617574686f72697a6564000000000000000060448201526064016102cc565b6001600160a01b03821661068b5760405162461bcd60e51b815260206004820152601b60248201527f70726f706f7365642061646472657373206973206e6f7420736574000000000060448201526064016102cc565b60ff83166000908152600160205260409020546001600160a01b038381169116141561071f5760405162461bcd60e51b815260206004820152603660248201527f70726f706f7365642061646472657373206973206e6f7420646966666572656e60448201527f742066726f6d2063757272656e7420616464726573730000000000000000000060648201526084016102cc565b60ff8316600081815260016020819052604080832091820180546001600160a01b0319166001600160a01b0388811691821790925592549151929491169290917fec584e355ff3c59e7a9d34bfb18dec6a0db876a29b47afa136b8acbed3b62d249190a4505050565b60ff811660009081526001602052604090205481906001600160a01b031633146107f45760405162461bcd60e51b815260206004820152601860248201527f63616c6c6572206973206e6f7420617574686f72697a6564000000000000000060448201526064016102cc565b5060ff16600090815260016020819052604090912080546001600160a01b031916815501805460ff60a01b1916600160a01b179055565b60025460ff1661087d5760405162461bcd60e51b815260206004820152601c60248201527f47616d6554726561737572795630206973206e6f74206163746976650000000060448201526064016102cc565b600080805260016020527fa6eef7e35abe7026729641147f7915573c7e97b47efa546f5f6e3230263bcb49546001600160a01b031633146109005760405162461bcd60e51b815260206004820152601860248201527f63616c6c6572206973206e6f7420617574686f72697a6564000000000000000060448201526064016102cc565b6001600160a01b0382166109565760405162461bcd60e51b815260206004820152601860248201527f5f7631436f6e7472616374206973206e6f742076616c6964000000000000000060448201526064016102cc565b50600280546001600160a01b039092166101000274ffffffffffffffffffffffffffffffffffffffff0019909216919091179055565b60405182906000906001600160a01b0383169084908381818185875af1925050503d80600081146109d9576040519150601f19603f3d011682016040523d82523d6000602084013e6109de565b606091505b5050905080610a2f5760405162461bcd60e51b815260206004820152600f60248201527f5472616e73666572204661696c6564000000000000000000000000000000000060448201526064016102cc565b50505050565b80356001600160a01b03811681146104e757600080fd5b803560ff811681146104e757600080fd5b600060208284031215610a6e578081fd5b610a7782610a35565b9392505050565b600060208284031215610a8f578081fd5b5035919050565b600060208284031215610aa7578081fd5b610a7782610a4c565b60008060408385031215610ac2578081fd5b610acb83610a4c565b9150610ad960208401610a35565b9050925092905056fea2646970667358221220eb974e5ce26964e039f2cda4f9ef1011c88a38832c6ff668a5e1bd600ae8735264736f6c63430008040033",
  "linkReferences": {},
  "deployedLinkReferences": {}
}