{
  "_format": "hh-sol-artifact-1",
  "contractName": "NFT",
  "sourceName": "src/contracts/NFT.sol",
  "abi": [
    {
      "inputs": [
        {
          "internalType": "string",
          "name": "godCID_",
          "type": "string"
        },
        {
          "internalType": "string",
          "name": "_notRevealedArtCID",
          "type": "string"
        },
        {
          "internalType": "uint256",
          "name": "_upgradeRequestFeeInWei",
          "type": "uint256"
        },
        {
          "internalType": "address",
          "name": "owner",
          "type": "address"
        },
        {
          "internalType": "address",
          "name": "platformMultisig",
          "type": "address"
        },
        {
          "internalType": "address",
          "name": "decentralTitan",
          "type": "address"
        }
      ],
      "stateMutability": "nonpayable",
      "type": "constructor"
    },
    {
      "inputs": [],
      "name": "ApprovalCallerNotOwnerNorApproved",
      "type": "error"
    },
    {
      "inputs": [],
      "name": "ApprovalQueryForNonexistentToken",
      "type": "error"
    },
    {
      "inputs": [],
      "name": "ApprovalToCurrentOwner",
      "type": "error"
    },
    {
      "inputs": [],
      "name": "ApproveToCaller",
      "type": "error"
    },
    {
      "inputs": [],
      "name": "AuxQueryForZeroAddress",
      "type": "error"
    },
    {
      "inputs": [],
      "name": "BalanceQueryForZeroAddress",
      "type": "error"
    },
    {
      "inputs": [],
      "name": "MintToZeroAddress",
      "type": "error"
    },
    {
      "inputs": [],
      "name": "MintZeroQuantity",
      "type": "error"
    },
    {
      "inputs": [],
      "name": "MintedQueryForZeroAddress",
      "type": "error"
    },
    {
      "inputs": [],
      "name": "OwnerQueryForNonexistentToken",
      "type": "error"
    },
    {
      "inputs": [],
      "name": "TransferCallerNotOwnerNorApproved",
      "type": "error"
    },
    {
      "inputs": [],
      "name": "TransferFromIncorrectOwner",
      "type": "error"
    },
    {
      "inputs": [],
      "name": "TransferToNonERC721ReceiverImplementer",
      "type": "error"
    },
    {
      "inputs": [],
      "name": "TransferToZeroAddress",
      "type": "error"
    },
    {
      "anonymous": false,
      "inputs": [
        {
          "indexed": true,
          "internalType": "address",
          "name": "owner",
          "type": "address"
        },
        {
          "indexed": true,
          "internalType": "address",
          "name": "approved",
          "type": "address"
        },
        {
          "indexed": true,
          "internalType": "uint256",
          "name": "tokenId",
          "type": "uint256"
        }
      ],
      "name": "Approval",
      "type": "event"
    },
    {
      "anonymous": false,
      "inputs": [
        {
          "indexed": true,
          "internalType": "address",
          "name": "owner",
          "type": "address"
        },
        {
          "indexed": true,
          "internalType": "address",
          "name": "operator",
          "type": "address"
        },
        {
          "indexed": false,
          "internalType": "bool",
          "name": "approved",
          "type": "bool"
        }
      ],
      "name": "ApprovalForAll",
      "type": "event"
    },
    {
      "anonymous": false,
      "inputs": [
        {
          "indexed": false,
          "internalType": "uint8",
          "name": "numberOfGods",
          "type": "uint8"
        },
        {
          "indexed": false,
          "internalType": "uint256",
          "name": "startTimeStamp",
          "type": "uint256"
        }
      ],
      "name": "AuctionsInitialized",
      "type": "event"
    },
    {
      "anonymous": false,
      "inputs": [
        {
          "indexed": true,
          "internalType": "address",
          "name": "previousOwner",
          "type": "address"
        },
        {
          "indexed": true,
          "internalType": "address",
          "name": "newOwner",
          "type": "address"
        }
      ],
      "name": "OwnershipTransferred",
      "type": "event"
    },
    {
      "anonymous": false,
      "inputs": [
        {
          "indexed": true,
          "internalType": "uint8",
          "name": "roleId",
          "type": "uint8"
        },
        {
          "indexed": true,
          "internalType": "address",
          "name": "oldAddr",
          "type": "address"
        },
        {
          "indexed": true,
          "internalType": "address",
          "name": "newAddr",
          "type": "address"
        }
      ],
      "name": "RoleAccepted",
      "type": "event"
    },
    {
      "anonymous": false,
      "inputs": [
        {
          "indexed": true,
          "internalType": "uint8",
          "name": "roleId",
          "type": "uint8"
        },
        {
          "indexed": true,
          "internalType": "address",
          "name": "currentAddr",
          "type": "address"
        },
        {
          "indexed": true,
          "internalType": "address",
          "name": "proposedAddr",
          "type": "address"
        }
      ],
      "name": "RoleProposed",
      "type": "event"
    },
    {
      "anonymous": false,
      "inputs": [
        {
          "indexed": false,
          "internalType": "uint16",
          "name": "tokenId",
          "type": "uint16"
        }
      ],
      "name": "TokenUpgraded",
      "type": "event"
    },
    {
      "anonymous": false,
      "inputs": [
        {
          "indexed": true,
          "internalType": "address",
          "name": "from",
          "type": "address"
        },
        {
          "indexed": true,
          "internalType": "address",
          "name": "to",
          "type": "address"
        },
        {
          "indexed": true,
          "internalType": "uint256",
          "name": "tokenId",
          "type": "uint256"
        }
      ],
      "name": "Transfer",
      "type": "event"
    },
    {
      "anonymous": false,
      "inputs": [
        {
          "indexed": false,
          "internalType": "uint16",
          "name": "tokenId",
          "type": "uint16"
        },
        {
          "indexed": false,
          "internalType": "uint256",
          "name": "value",
          "type": "uint256"
        }
      ],
      "name": "UpgradeRequestPayment",
      "type": "event"
    },
    {
      "stateMutability": "payable",
      "type": "fallback"
    },
    {
      "inputs": [],
      "name": "AUCTION_DROP_INTERVAL",
      "outputs": [
        {
          "internalType": "uint256",
          "name": "",
          "type": "uint256"
        }
      ],
      "stateMutability": "view",
      "type": "function"
    },
    {
      "inputs": [],
      "name": "AUCTION_DURATION",
      "outputs": [
        {
          "internalType": "uint256",
          "name": "",
          "type": "uint256"
        }
      ],
      "stateMutability": "view",
      "type": "function"
    },
    {
      "inputs": [],
      "name": "AUCTION_START_TIME",
      "outputs": [
        {
          "internalType": "uint256",
          "name": "",
          "type": "uint256"
        }
      ],
      "stateMutability": "view",
      "type": "function"
    },
    {
      "inputs": [],
      "name": "MAX_MINT_PER_ADDRESS",
      "outputs": [
        {
          "internalType": "uint16",
          "name": "",
          "type": "uint16"
        }
      ],
      "stateMutability": "view",
      "type": "function"
    },
    {
      "inputs": [],
      "name": "MAX_SUPPLY",
      "outputs": [
        {
          "internalType": "uint16",
          "name": "",
          "type": "uint16"
        }
      ],
      "stateMutability": "view",
      "type": "function"
    },
    {
      "inputs": [],
      "name": "MINT_PRICE_IN_WEI",
      "outputs": [
        {
          "internalType": "uint256",
          "name": "",
          "type": "uint256"
        }
      ],
      "stateMutability": "view",
      "type": "function"
    },
    {
      "inputs": [],
      "name": "NUMBER_OF_TOKEN_FOR_AUCTION",
      "outputs": [
        {
          "internalType": "uint8",
          "name": "",
          "type": "uint8"
        }
      ],
      "stateMutability": "view",
      "type": "function"
    },
    {
      "inputs": [],
      "name": "ROYALTY_FEE_PERCENT",
      "outputs": [
        {
          "internalType": "uint8",
          "name": "",
          "type": "uint8"
        }
      ],
      "stateMutability": "view",
      "type": "function"
    },
    {
      "inputs": [
        {
          "internalType": "uint256",
          "name": "",
          "type": "uint256"
        }
      ],
      "name": "_ownerships",
      "outputs": [
        {
          "internalType": "address",
          "name": "addr",
          "type": "address"
        },
        {
          "internalType": "uint64",
          "name": "startTimestamp",
          "type": "uint64"
        },
        {
          "internalType": "bool",
          "name": "burned",
          "type": "bool"
        }
      ],
      "stateMutability": "view",
      "type": "function"
    },
    {
      "inputs": [
        {
          "internalType": "uint8",
          "name": "roleId",
          "type": "uint8"
        }
      ],
      "name": "acceptAuthority",
      "outputs": [],
      "stateMutability": "nonpayable",
      "type": "function"
    },
    {
      "inputs": [
        {
          "internalType": "address",
          "name": "to",
          "type": "address"
        },
        {
          "internalType": "uint256",
          "name": "tokenId",
          "type": "uint256"
        }
      ],
      "name": "approve",
      "outputs": [],
      "stateMutability": "nonpayable",
      "type": "function"
    },
    {
      "inputs": [
        {
          "internalType": "uint8",
          "name": "",
          "type": "uint8"
        }
      ],
      "name": "auctions",
      "outputs": [
        {
          "internalType": "uint8",
          "name": "tokenId",
          "type": "uint8"
        },
        {
          "internalType": "uint256",
          "name": "startAt",
          "type": "uint256"
        },
        {
          "internalType": "uint256",
          "name": "expireAt",
          "type": "uint256"
        },
        {
          "internalType": "uint256",
          "name": "startPrice",
          "type": "uint256"
        },
        {
          "internalType": "uint256",
          "name": "endPrice",
          "type": "uint256"
        },
        {
          "internalType": "uint256",
          "name": "auctionDropPerStep",
          "type": "uint256"
        },
        {
          "internalType": "bool",
          "name": "isSold",
          "type": "bool"
        }
      ],
      "stateMutability": "view",
      "type": "function"
    },
    {
      "inputs": [
        {
          "internalType": "address",
          "name": "owner",
          "type": "address"
        }
      ],
      "name": "balanceOf",
      "outputs": [
        {
          "internalType": "uint256",
          "name": "",
          "type": "uint256"
        }
      ],
      "stateMutability": "view",
      "type": "function"
    },
    {
      "inputs": [
        {
          "internalType": "uint8",
          "name": "day",
          "type": "uint8"
        }
      ],
      "name": "buyAGodInAuction",
      "outputs": [],
      "stateMutability": "payable",
      "type": "function"
    },
    {
      "inputs": [
        {
          "internalType": "uint16",
          "name": "tokenId",
          "type": "uint16"
        }
      ],
      "name": "buyBackToken",
      "outputs": [],
      "stateMutability": "nonpayable",
      "type": "function"
    },
    {
      "inputs": [],
      "name": "finishAuction",
      "outputs": [],
      "stateMutability": "nonpayable",
      "type": "function"
    },
    {
      "inputs": [],
      "name": "finishMinting",
      "outputs": [],
      "stateMutability": "nonpayable",
      "type": "function"
    },
    {
      "inputs": [],
      "name": "getAddresses",
      "outputs": [
        {
          "components": [
            {
              "internalType": "address",
              "name": "daoTreasuryContract",
              "type": "address"
            },
            {
              "internalType": "address",
              "name": "whiteListVerifier",
              "type": "address"
            },
            {
              "internalType": "address",
              "name": "gameTreasuryContract",
              "type": "address"
            }
          ],
          "internalType": "struct ICollectiGame.ContractAddresses",
          "name": "",
          "type": "tuple"
        }
      ],
      "stateMutability": "view",
      "type": "function"
    },
    {
      "inputs": [
        {
          "internalType": "uint256",
          "name": "tokenId",
          "type": "uint256"
        }
      ],
      "name": "getApproved",
      "outputs": [
        {
          "internalType": "address",
          "name": "",
          "type": "address"
        }
      ],
      "stateMutability": "view",
      "type": "function"
    },
    {
      "inputs": [
        {
          "internalType": "uint8",
          "name": "day",
          "type": "uint8"
        }
      ],
      "name": "getAuctionPrice",
      "outputs": [
        {
          "internalType": "uint256",
          "name": "",
          "type": "uint256"
        }
      ],
      "stateMutability": "view",
      "type": "function"
    },
    {
      "inputs": [],
      "name": "getState",
      "outputs": [
        {
          "components": [
            {
              "internalType": "bool",
              "name": "initialized",
              "type": "bool"
            },
            {
              "internalType": "bool",
              "name": "auctionIsActive",
              "type": "bool"
            },
            {
              "internalType": "bool",
              "name": "whitelistMintingIsActive",
              "type": "bool"
            },
            {
              "internalType": "bool",
              "name": "mintingIsActive",
              "type": "bool"
            },
            {
              "internalType": "bool",
              "name": "artIsRevealed",
              "type": "bool"
            },
            {
              "internalType": "bool",
              "name": "finished",
              "type": "bool"
            }
          ],
          "internalType": "struct ICollectiGame.ContractState",
          "name": "",
          "type": "tuple"
        }
      ],
      "stateMutability": "view",
      "type": "function"
    },
    {
      "inputs": [
        {
          "components": [
            {
              "internalType": "uint256",
              "name": "startPrice",
              "type": "uint256"
            },
            {
              "internalType": "uint256",
              "name": "endPrice",
              "type": "uint256"
            },
            {
              "internalType": "uint256",
              "name": "auctionDropPerStep",
              "type": "uint256"
            }
          ],
          "internalType": "struct ICollectiGame.AuctionConfig[]",
          "name": "configs",
          "type": "tuple[]"
        },
        {
          "internalType": "address",
          "name": "daoTreasury",
          "type": "address"
        },
        {
          "internalType": "address",
          "name": "royaltyReceiverContract",
          "type": "address"
        },
        {
          "internalType": "address",
          "name": "whiteListVerifier",
          "type": "address"
        }
      ],
      "name": "initializer",
      "outputs": [],
      "stateMutability": "nonpayable",
      "type": "function"
    },
    {
      "inputs": [
        {
          "internalType": "address",
          "name": "owner",
          "type": "address"
        },
        {
          "internalType": "address",
          "name": "operator",
          "type": "address"
        }
      ],
      "name": "isApprovedForAll",
      "outputs": [
        {
          "internalType": "bool",
          "name": "",
          "type": "bool"
        }
      ],
      "stateMutability": "view",
      "type": "function"
    },
    {
      "inputs": [
        {
          "internalType": "uint16",
          "name": "",
          "type": "uint16"
        }
      ],
      "name": "isGodToken",
      "outputs": [
        {
          "internalType": "bool",
          "name": "",
          "type": "bool"
        }
      ],
      "stateMutability": "view",
      "type": "function"
    },
    {
      "inputs": [
        {
          "internalType": "address",
          "name": "account_",
          "type": "address"
        },
        {
          "internalType": "uint8",
          "name": "maxQuantity_",
          "type": "uint8"
        },
        {
          "internalType": "enum NFT.WhiteListType",
          "name": "whiteListType_",
          "type": "uint8"
        },
        {
          "internalType": "bytes",
          "name": "sig_",
          "type": "bytes"
        }
      ],
      "name": "isWhitelisted",
      "outputs": [
        {
          "internalType": "bool",
          "name": "",
          "type": "bool"
        }
      ],
      "stateMutability": "view",
      "type": "function"
    },
    {
      "inputs": [],
      "name": "name",
      "outputs": [
        {
          "internalType": "string",
          "name": "",
          "type": "string"
        }
      ],
      "stateMutability": "view",
      "type": "function"
    },
    {
      "inputs": [],
      "name": "nextOwnerToExplicitlySet",
      "outputs": [
        {
          "internalType": "uint256",
          "name": "",
          "type": "uint256"
        }
      ],
      "stateMutability": "view",
      "type": "function"
    },
    {
      "inputs": [],
      "name": "numberOfRoles",
      "outputs": [
        {
          "internalType": "uint8",
          "name": "",
          "type": "uint8"
        }
      ],
      "stateMutability": "view",
      "type": "function"
    },
    {
      "inputs": [],
      "name": "owner",
      "outputs": [
        {
          "internalType": "address",
          "name": "",
          "type": "address"
        }
      ],
      "stateMutability": "view",
      "type": "function"
    },
    {
      "inputs": [
        {
          "internalType": "uint256",
          "name": "tokenId",
          "type": "uint256"
        }
      ],
      "name": "ownerOf",
      "outputs": [
        {
          "internalType": "address",
          "name": "",
          "type": "address"
        }
      ],
      "stateMutability": "view",
      "type": "function"
    },
    {
      "inputs": [
        {
          "internalType": "uint8",
          "name": "roleId",
          "type": "uint8"
        },
        {
          "internalType": "address",
          "name": "proposedAddr",
          "type": "address"
        }
      ],
      "name": "proposeAuthority",
      "outputs": [],
      "stateMutability": "nonpayable",
      "type": "function"
    },
    {
      "inputs": [
        {
          "internalType": "uint256",
          "name": "quantity",
          "type": "uint256"
        }
      ],
      "name": "publicMint",
      "outputs": [],
      "stateMutability": "payable",
      "type": "function"
    },
    {
      "inputs": [
        {
          "internalType": "uint8",
          "name": "roleId",
          "type": "uint8"
        }
      ],
      "name": "renounceAuthority",
      "outputs": [],
      "stateMutability": "nonpayable",
      "type": "function"
    },
    {
      "inputs": [],
      "name": "renounceOwnership",
      "outputs": [],
      "stateMutability": "nonpayable",
      "type": "function"
    },
    {
      "inputs": [
        {
          "internalType": "string",
          "name": "ipfsCid",
          "type": "string"
        }
      ],
      "name": "revealArt",
      "outputs": [],
      "stateMutability": "nonpayable",
      "type": "function"
    },
    {
      "inputs": [
        {
          "internalType": "uint8",
          "name": "",
          "type": "uint8"
        }
      ],
      "name": "roles",
      "outputs": [
        {
          "internalType": "address",
          "name": "addr",
          "type": "address"
        },
        {
          "internalType": "address",
          "name": "proposedAddr",
          "type": "address"
        },
        {
          "internalType": "bool",
          "name": "isRenounced",
          "type": "bool"
        }
      ],
      "stateMutability": "view",
      "type": "function"
    },
    {
      "inputs": [
        {
          "internalType": "uint256",
          "name": "",
          "type": "uint256"
        },
        {
          "internalType": "uint256",
          "name": "value",
          "type": "uint256"
        }
      ],
      "name": "royaltyInfo",
      "outputs": [
        {
          "internalType": "address",
          "name": "receiver",
          "type": "address"
        },
        {
          "internalType": "uint256",
          "name": "royaltyAmount",
          "type": "uint256"
        }
      ],
      "stateMutability": "view",
      "type": "function"
    },
    {
      "inputs": [
        {
          "internalType": "address",
          "name": "from",
          "type": "address"
        },
        {
          "internalType": "address",
          "name": "to",
          "type": "address"
        },
        {
          "internalType": "uint256",
          "name": "tokenId",
          "type": "uint256"
        }
      ],
      "name": "safeTransferFrom",
      "outputs": [],
      "stateMutability": "nonpayable",
      "type": "function"
    },
    {
      "inputs": [
        {
          "internalType": "address",
          "name": "from",
          "type": "address"
        },
        {
          "internalType": "address",
          "name": "to",
          "type": "address"
        },
        {
          "internalType": "uint256",
          "name": "tokenId",
          "type": "uint256"
        },
        {
          "internalType": "bytes",
          "name": "_data",
          "type": "bytes"
        }
      ],
      "name": "safeTransferFrom",
      "outputs": [],
      "stateMutability": "nonpayable",
      "type": "function"
    },
    {
      "inputs": [
        {
          "internalType": "address",
          "name": "operator",
          "type": "address"
        },
        {
          "internalType": "bool",
          "name": "approved",
          "type": "bool"
        }
      ],
      "name": "setApprovalForAll",
      "outputs": [],
      "stateMutability": "nonpayable",
      "type": "function"
    },
    {
      "inputs": [
        {
          "internalType": "address",
          "name": "daoTreasuryContract",
          "type": "address"
        }
      ],
      "name": "setDaoTreasury",
      "outputs": [],
      "stateMutability": "nonpayable",
      "type": "function"
    },
    {
      "inputs": [
        {
          "internalType": "uint256",
          "name": "quantity",
          "type": "uint256"
        }
      ],
      "name": "setOwnersExplicit",
      "outputs": [],
      "stateMutability": "nonpayable",
      "type": "function"
    },
    {
      "inputs": [
        {
          "internalType": "address",
          "name": "royaltyDistributerContract",
          "type": "address"
        }
      ],
      "name": "setRoyaltyReceiver",
      "outputs": [],
      "stateMutability": "nonpayable",
      "type": "function"
    },
    {
      "inputs": [
        {
          "internalType": "uint256",
          "name": "_upgradeRequestFeeInWei",
          "type": "uint256"
        }
      ],
      "name": "setUpgradeRequestFeeInWei",
      "outputs": [],
      "stateMutability": "nonpayable",
      "type": "function"
    },
    {
      "inputs": [],
      "name": "startPublicMinting",
      "outputs": [],
      "stateMutability": "nonpayable",
      "type": "function"
    },
    {
      "inputs": [],
      "name": "startWhiteListMinting",
      "outputs": [],
      "stateMutability": "nonpayable",
      "type": "function"
    },
    {
      "inputs": [
        {
          "internalType": "bytes4",
          "name": "interfaceId",
          "type": "bytes4"
        }
      ],
      "name": "supportsInterface",
      "outputs": [
        {
          "internalType": "bool",
          "name": "",
          "type": "bool"
        }
      ],
      "stateMutability": "view",
      "type": "function"
    },
    {
      "inputs": [],
      "name": "symbol",
      "outputs": [
        {
          "internalType": "string",
          "name": "",
          "type": "string"
        }
      ],
      "stateMutability": "view",
      "type": "function"
    },
    {
      "inputs": [
        {
          "internalType": "uint256",
          "name": "index",
          "type": "uint256"
        }
      ],
      "name": "tokenByIndex",
      "outputs": [
        {
          "internalType": "uint256",
          "name": "",
          "type": "uint256"
        }
      ],
      "stateMutability": "view",
      "type": "function"
    },
    {
      "inputs": [
        {
          "internalType": "uint16",
          "name": "",
          "type": "uint16"
        }
      ],
      "name": "tokenIsUpgraded",
      "outputs": [
        {
          "internalType": "bool",
          "name": "",
          "type": "bool"
        }
      ],
      "stateMutability": "view",
      "type": "function"
    },
    {
      "inputs": [
        {
          "internalType": "address",
          "name": "owner",
          "type": "address"
        },
        {
          "internalType": "uint256",
          "name": "index",
          "type": "uint256"
        }
      ],
      "name": "tokenOfOwnerByIndex",
      "outputs": [
        {
          "internalType": "uint256",
          "name": "",
          "type": "uint256"
        }
      ],
      "stateMutability": "view",
      "type": "function"
    },
    {
      "inputs": [
        {
          "internalType": "uint256",
          "name": "tokenId_",
          "type": "uint256"
        }
      ],
      "name": "tokenURI",
      "outputs": [
        {
          "internalType": "string",
          "name": "",
          "type": "string"
        }
      ],
      "stateMutability": "view",
      "type": "function"
    },
    {
      "inputs": [],
      "name": "totalSupply",
      "outputs": [
        {
          "internalType": "uint256",
          "name": "",
          "type": "uint256"
        }
      ],
      "stateMutability": "view",
      "type": "function"
    },
    {
      "inputs": [],
      "name": "transferEthToDao",
      "outputs": [],
      "stateMutability": "payable",
      "type": "function"
    },
    {
      "inputs": [
        {
          "internalType": "address",
          "name": "from",
          "type": "address"
        },
        {
          "internalType": "address",
          "name": "to",
          "type": "address"
        },
        {
          "internalType": "uint256",
          "name": "tokenId",
          "type": "uint256"
        }
      ],
      "name": "transferFrom",
      "outputs": [],
      "stateMutability": "nonpayable",
      "type": "function"
    },
    {
      "inputs": [
        {
          "internalType": "address",
          "name": "newOwner",
          "type": "address"
        }
      ],
      "name": "transferOwnership",
      "outputs": [],
      "stateMutability": "nonpayable",
      "type": "function"
    },
    {
      "inputs": [
        {
          "internalType": "string",
          "name": "GodCid",
          "type": "string"
        },
        {
          "internalType": "string",
          "name": "HumanCid",
          "type": "string"
        }
      ],
      "name": "updateCID",
      "outputs": [],
      "stateMutability": "nonpayable",
      "type": "function"
    },
    {
      "inputs": [],
      "name": "upgradeRequestFeeInWei",
      "outputs": [
        {
          "internalType": "uint256",
          "name": "",
          "type": "uint256"
        }
      ],
      "stateMutability": "view",
      "type": "function"
    },
    {
      "inputs": [
        {
          "internalType": "uint256",
          "name": "",
          "type": "uint256"
        }
      ],
      "name": "upgradeRequestFeeIsPaid",
      "outputs": [
        {
          "internalType": "bool",
          "name": "",
          "type": "bool"
        }
      ],
      "stateMutability": "view",
      "type": "function"
    },
    {
      "inputs": [
        {
          "internalType": "string",
          "name": "ipfsCid",
          "type": "string"
        },
        {
          "internalType": "uint16",
          "name": "tokenId",
          "type": "uint16"
        },
        {
          "internalType": "bool",
          "name": "isGodNow",
          "type": "bool"
        }
      ],
      "name": "upgradeToken",
      "outputs": [],
      "stateMutability": "nonpayable",
      "type": "function"
    },
    {
      "inputs": [
        {
          "internalType": "uint16",
          "name": "tokenId",
          "type": "uint16"
        }
      ],
      "name": "upgradeTokenRequestFee",
      "outputs": [],
      "stateMutability": "payable",
      "type": "function"
    },
    {
      "inputs": [
        {
          "internalType": "uint8",
          "name": "maxQuantity",
          "type": "uint8"
        },
        {
          "internalType": "uint8",
          "name": "quantity",
          "type": "uint8"
        },
        {
          "internalType": "enum NFT.WhiteListType",
          "name": "whiteListType",
          "type": "uint8"
        },
        {
          "internalType": "bytes",
          "name": "sig",
          "type": "bytes"
        }
      ],
      "name": "whitelistMinting",
      "outputs": [],
      "stateMutability": "payable",
      "type": "function"
    },
    {
      "stateMutability": "payable",
      "type": "receive"
    }
  ],
  "bytecode": "0x60a060405260006008553480156200001657600080fd5b50604051620062f8380380620062f88339810160408190526200003991620007bf565b6002836040518060400160405280601181526020017044656d6d6f7274616c547265617375726560781b81525060405180604001604052806002815260200161111560f21b81525081600290805190602001906200009992919062000649565b508051620000af90600390602084019062000649565b50506000805550620000c181620002a9565b506009805460ff60a01b1916600160a01b60ff93909316929092029190911790556001600b556040805160c08101825260008082526020820181905281830181905260608083018290526080830182905260a0909201819052600d805465ffffffffffff1916905582516002808252928101909352919081602001602082028036833701905050905082816000815181106200016d57634e487b7160e01b600052603260045260246000fd5b60200260200101906001600160a01b031690816001600160a01b0316815250508181600181518110620001b057634e487b7160e01b600052603260045260246000fd5b6001600160a01b039290921660209283029190910182015260408051600280825260608201835260009391929091830190803683370190505090506000816000815181106200020f57634e487b7160e01b600052603260045260246000fd5b602002602001019060ff16908160ff16815250506001816001815181106200024757634e487b7160e01b600052603260045260246000fd5b60ff90921660209283029190910190910152620002658282620002fb565b87516200027a9060119060208b019062000649565b508651620002909060129060208a019062000649565b505050600c9390935550504260805250620008e6915050565b600980546001600160a01b038381166001600160a01b0319831681179093556040519116919082907f8be0079c531659141344cd1fd0a4f28419497f9722a3daafe3b4186f6b6457e090600090a35050565b8051825114620003785760405162461bcd60e51b815260206004820152603660248201527f746865206e756d626572206f662061646472657373657320616e64207468652060448201527f726f6c6520696473206d75737420626520657175616c0000000000000000000060648201526084015b60405180910390fd5b6009548251600160a01b90910460ff1614620003e25760405162461bcd60e51b815260206004820152602260248201527f726561636820746f206d6178206e756d626572206f6620617574686f72697469604482015261657360f01b60648201526084016200036f565b60005b82518160ff161015620006445760006001600160a01b0316600a6000848460ff16815181106200042557634e487b7160e01b600052603260045260246000fd5b60209081029190910181015160ff168252810191909152604001600020546001600160a01b0316146200049b5760405162461bcd60e51b815260206004820152601360248201527f726f6c6520616c7265616479206578697374730000000000000000000000000060448201526064016200036f565b600a6000838360ff1681518110620004c357634e487b7160e01b600052603260045260246000fd5b60209081029190910181015160ff90811683529082019290925260400160002060010154600160a01b900416156200053e5760405162461bcd60e51b815260206004820152601d60248201527f726f6c6520616c7265616479207573656420616e64207265766f6b656400000060448201526064016200036f565b6040518060600160405280848360ff16815181106200056d57634e487b7160e01b600052603260045260246000fd5b60200260200101516001600160a01b0316815260200160006001600160a01b0316815260200160001515815250600a6000848460ff1681518110620005c257634e487b7160e01b600052603260045260246000fd5b60209081029190910181015160ff168252818101929092526040908101600020835181546001600160a01b0319166001600160a01b039182161782559284015160019091018054949092015192166001600160a81b031990931692909217600160a01b91151591909102179055806200063b81620008a3565b915050620003e5565b505050565b828054620006579062000866565b90600052602060002090601f0160209004810192826200067b5760008555620006c6565b82601f106200069657805160ff1916838001178555620006c6565b82800160010185558215620006c6579182015b82811115620006c6578251825591602001919060010190620006a9565b50620006d4929150620006d8565b5090565b5b80821115620006d45760008155600101620006d9565b80516001600160a01b03811681146200070757600080fd5b919050565b600082601f8301126200071d578081fd5b81516001600160401b03808211156200073a576200073a620008d0565b604051601f8301601f19908116603f01168101908282118183101715620007655762000765620008d0565b8160405283815260209250868385880101111562000781578485fd5b8491505b83821015620007a4578582018301518183018401529082019062000785565b83821115620007b557848385830101525b9695505050505050565b60008060008060008060c08789031215620007d8578182fd5b86516001600160401b0380821115620007ef578384fd5b620007fd8a838b016200070c565b9750602089015191508082111562000813578384fd5b506200082289828a016200070c565b955050604087015193506200083a60608801620006ef565b92506200084a60808801620006ef565b91506200085a60a08801620006ef565b90509295509295509295565b600181811c908216806200087b57607f821691505b602082108114156200089d57634e487b7160e01b600052602260045260246000fd5b50919050565b600060ff821660ff811415620008c757634e487b7160e01b82526011600452602482fd5b60010192915050565b634e487b7160e01b600052604160045260246000fd5b6080516159e86200091060003960008181610e3e015281816141db015261422501526159e86000f3fe6080604052600436106103b15760003560e01c806364b1152f116101e7578063a22cb4651161010d578063d0b50d8e116100a0578063dd28e1ca1161006f578063dd28e1ca14610db3578063e985e9c514610de3578063f17d076f14610e2c578063f2fde38b14610e60576103f1565b8063d0b50d8e14610d55578063d514355514610d75578063d7224ba014610d95578063d9c65cbc14610dab576103f1565b8063b88d4fde116100dc578063b88d4fde14610cef578063c046e13014610d0f578063c4f1634d14610d22578063c87b56dd14610d35576103f1565b8063a22cb46514610b8e578063a271e52514610bae578063a39fac1214610bc5578063a80a783c14610c57576103f1565b80638dc251e31161018557806396a5d5ba1161015457806396a5d5ba14610b195780639b643f6814610b395780639da058e914610b59578063a124df5d14610b6e576103f1565b80638dc251e314610aa9578063953495ff14610ac957806395d89b4114610ae4578063965d08af14610af9576103f1565b80637d64bcb4116101c15780637d64bcb4146109d25780637fec1684146109e75780638951454314610a6b5780638da5cb5b14610a8b576103f1565b806364b1152f1461098a57806370a082311461099d578063715018a6146109bd576103f1565b80632f745c59116102d75780634f20b23e1161026a5780635a6c18f5116102395780635a6c18f5146109045780635cae01d31461093457806360dc13a91461094a5780636352211e1461096a576103f1565b80634f20b23e146108735780634f6ccce7146108935780635744d0f5146108b3578063579938a3146108d4576103f1565b806342842e0e116102a657806342842e0e14610809578063430ca46f146108295780634a878e5f1461083e5780634c0e123b1461085e576103f1565b80632f745c591461078b5780632fa3ce7d146107ab57806332cb6b0c146107cb5780633acd6cb2146107f4576103f1565b806318160ddd1161034f57806323b872dd1161031e57806323b872dd146106f95780632a55205a146107195780632d20fb60146107585780632db1154414610778576103f1565b806318160ddd1461059b5780631865c57d146105be5780631a2dac6e146106c35780631db16f20146106d9576103f1565b8063095ea7b31161038b578063095ea7b3146104c85780630bee5eb9146104ea5780630e1e0ef51461051157806317dbb53214610526576103f1565b806301ffc9a71461043957806306fdde031461046e578063081812fc14610490576103f1565b366103f15760405162461bcd60e51b815260206004820152600b60248201526a139bdd08105b1b1bddd95960aa1b60448201526064015b60405180910390fd5b60405162461bcd60e51b815260206004820152601360248201527f43616c6c2056616c69642046756e6374696f6e0000000000000000000000000060448201526064016103e8565b34801561044557600080fd5b506104596104543660046153e0565b610e80565b60405190151581526020015b60405180910390f35b34801561047a57600080fd5b50610483610f08565b60405161046591906157c2565b34801561049c57600080fd5b506104b06104ab366004615581565b610f9a565b6040516001600160a01b039091168152602001610465565b3480156104d457600080fd5b506104e86104e3366004615286565b610fde565b005b3480156104f657600080fd5b506104ff600381565b60405160ff9091168152602001610465565b34801561051d57600080fd5b506104ff600a81565b34801561053257600080fd5b506105736105413660046155ba565b600a60205260009081526040902080546001909101546001600160a01b0391821691811690600160a01b900460ff1683565b604080516001600160a01b039485168152939092166020840152151590820152606001610465565b3480156105a757600080fd5b50600154600054035b604051908152602001610465565b3480156105ca57600080fd5b5061066b6040805160c081018252600080825260208201819052918101829052606081018290526080810182905260a0810191909152506040805160c081018252600d5460ff8082161515835261010082048116151560208401526201000082048116151593830193909352630100000081048316151560608301526401000000008104831615156080830152600160281b9004909116151560a082015290565b6040516104659190600060c08201905082511515825260208301511515602083015260408301511515604083015260608301511515606083015260808301511515608083015260a0830151151560a083015292915050565b3480156106cf57600080fd5b506105b0600c5481565b3480156106e557600080fd5b506104e86106f43660046154ac565b611089565b34801561070557600080fd5b506104e861071436600461519c565b61131f565b34801561072557600080fd5b50610739610734366004615599565b61132a565b604080516001600160a01b039093168352602083019190915201610465565b34801561076457600080fd5b506104e8610773366004615581565b611365565b6104e8610786366004615581565b611371565b34801561079757600080fd5b506105b06107a6366004615286565b6115a1565b3480156107b757600080fd5b506104e86107c6366004615567565b611740565b3480156107d757600080fd5b506107e1611e6181565b60405161ffff9091168152602001610465565b34801561080057600080fd5b506107e1600381565b34801561081557600080fd5b506104e861082436600461519c565b6119c2565b34801561083557600080fd5b506104e86119dd565b34801561084a57600080fd5b506104e861085936600461544b565b611b22565b34801561086a57600080fd5b506104e8611bc2565b34801561087f57600080fd5b506104e861088e366004615323565b611d13565b34801561089f57600080fd5b506105b06108ae366004615581565b611f6b565b3480156108bf57600080fd5b506009546104ff90600160a01b900460ff1681565b3480156108e057600080fd5b506104596108ef366004615567565b60156020526000908152604090205460ff1681565b34801561091057600080fd5b5061045961091f366004615567565b60176020526000908152604090205460ff1681565b34801561094057600080fd5b506105b061025881565b34801561095657600080fd5b506105b06109653660046155ba565b611fd8565b34801561097657600080fd5b506104b0610985366004615581565b612103565b6104e8610998366004615567565b612115565b3480156109a957600080fd5b506105b06109b8366004615159565b612312565b3480156109c957600080fd5b506104e8612361565b3480156109de57600080fd5b506104e86123c7565b3480156109f357600080fd5b50610a3b610a02366004615581565b6004602052600090815260409020546001600160a01b03811690600160a01b810467ffffffffffffffff1690600160e01b900460ff1683565b604080516001600160a01b03909416845267ffffffffffffffff9092166020840152151590820152606001610465565b348015610a7757600080fd5b506104e8610a86366004615418565b6124d4565b348015610a9757600080fd5b506009546001600160a01b03166104b0565b348015610ab557600080fd5b506104e8610ac4366004615159565b6125fa565b348015610ad557600080fd5b506105b066b1a2bc2ec5000081565b348015610af057600080fd5b506104836126b7565b348015610b0557600080fd5b506104e8610b143660046155ba565b6126c6565b348015610b2557600080fd5b506104e8610b343660046155d4565b6127a2565b348015610b4557600080fd5b50610459610b543660046152af565b61294b565b348015610b6557600080fd5b506104e8612a73565b348015610b7a57600080fd5b506104e8610b89366004615159565b612bdb565b348015610b9a57600080fd5b506104e8610ba9366004615250565b612c5d565b348015610bba57600080fd5b506105b06201518081565b348015610bd157600080fd5b50610c2560408051606081018252600080825260208201819052918101919091525060408051606081018252600e546001600160a01b039081168252600f5481166020830152601054169181019190915290565b6040805182516001600160a01b0390811682526020808501518216908301529282015190921690820152606001610465565b348015610c6357600080fd5b50610cb4610c723660046155ba565b601860205260009081526040902080546001820154600283015460038401546004850154600586015460069096015460ff958616969495939492939192911687565b6040805160ff90981688526020880196909652948601939093526060850191909152608084015260a0830152151560c082015260e001610465565b348015610cfb57600080fd5b506104e8610d0a3660046151d7565b612cf3565b6104e8610d1d3660046155ef565b612d44565b6104e8610d303660046155ba565b613032565b348015610d4157600080fd5b50610483610d50366004615581565b61338c565b348015610d6157600080fd5b506104e8610d70366004615581565b6134a5565b348015610d8157600080fd5b506104e8610d903660046155ba565b613596565b348015610da157600080fd5b506105b060085481565b6104e8613626565b348015610dbf57600080fd5b50610459610dce366004615581565b60196020526000908152604090205460ff1681565b348015610def57600080fd5b50610459610dfe366004615173565b6001600160a01b03918216600090815260076020908152604080832093909416825291909152205460ff1690565b348015610e3857600080fd5b506105b07f000000000000000000000000000000000000000000000000000000000000000081565b348015610e6c57600080fd5b506104e8610e7b366004615159565b613732565b60006001600160e01b031982166380ac58cd60e01b1480610eb157506001600160e01b03198216635b5e139f60e01b145b80610ecc57506001600160e01b0319821663780e9d6360e01b145b80610ee757506001600160e01b0319821663152a902d60e11b145b80610f0257506301ffc9a760e01b6001600160e01b03198316145b92915050565b606060028054610f1790615888565b80601f0160208091040260200160405190810160405280929190818152602001828054610f4390615888565b8015610f905780601f10610f6557610100808354040283529160200191610f90565b820191906000526020600020905b815481529060010190602001808311610f7357829003601f168201915b5050505050905090565b6000610fa5826137fa565b610fc2576040516333d1c03960e21b815260040160405180910390fd5b506000908152600660205260409020546001600160a01b031690565b6000610fe982612103565b9050806001600160a01b0316836001600160a01b0316141561101e5760405163250fdee360e21b815260040160405180910390fd5b336001600160a01b0382161480159061105b57506001600160a01b038116600090815260076020908152604080832033845290915290205460ff16155b15611079576040516367d9dca160e11b815260040160405180910390fd5b611084838383613825565b505050565b600d54600160281b900460ff166110d15760405162461bcd60e51b815260206004820152600c60248201526b139bdd08119a5b9a5cda195960a21b60448201526064016103e8565b600d5460ff166111155760405162461bcd60e51b815260206004820152600f60248201526e139bdd08125b9a5d1a585b1a5e9959608a1b60448201526064016103e8565b6000808052600a602052600080516020615993833981519152546001600160a01b031633146111745760405162461bcd60e51b8152602060048201526018602482015260008051602061597383398151915260448201526064016103e8565b61ffff8316600090815260176020526040902054839060ff16156111c85760405162461bcd60e51b815260206004820152600b60248201526a4f6e6c792048756d616e7360a81b60448201526064016103e8565b8451806112065760405162461bcd60e51b815260206004820152600c60248201526b43494420697320656d70747960a01b60448201526064016103e8565b61ffff851660009081526019602052604090205460ff166112695760405162461bcd60e51b815260206004820152601c60248201527f55706772616465205265717565737420466565204e6f7420506169640000000060448201526064016103e8565b61ffff85166000908152601960209081526040808320805460ff1916905560168252909120875161129c92890190614fa4565b5061ffff85166000908152601560205260409020805460ff1916600117905583156112e05761ffff85166000908152601760205260409020805460ff191660011790555b60405161ffff861681527f02375e2ab6ce816f82cbad1e57b14c842f3079a43885dcdfbdbebec69baee0c29060200160405180910390a1505050505050565b611084838383613881565b6014546001600160a01b0381169060009060649061135290600160a01b900460ff1685615826565b61135c9190615812565b90509250929050565b61136e81613ab4565b50565b600d546301000000900460ff166113ba5760405162461bcd60e51b815260206004820152600d60248201526c139bdd081058dd1a5d985d1959609a1b60448201526064016103e8565b611e61816113c760005490565b6113d191906157d5565b11156114175760405162461bcd60e51b81526020600482015260156024820152745265636569766520546f204d617820537570706c7960581b60448201526064016103e8565b60038161142333613c99565b61142d91906157d5565b111561147b5760405162461bcd60e51b815260206004820152601f60248201527f5265636569766520546f204d6178204d696e742050657220416464726573730060448201526064016103e8565b3461148d66b1a2bc2ec5000083615826565b11156114cf5760405162461bcd60e51b81526020600482015260116024820152702737ba1022b737bab3b4399022ba3432b960791b60448201526064016103e8565b6114d93382613cf4565b600e54604051634d4ffdef60e11b81523460048201526000916001600160a01b031690639a9ffbde906024015b602060405180830381600087803b15801561152057600080fd5b505af1158015611534573d6000803e3d6000fd5b505050506040513d601f19601f8201168201806040525081019061155891906153c4565b90508061159d5760405162461bcd60e51b8152602060048201526013602482015272195d1a081d1c985b9cd9995c8819985a5b1959606a1b60448201526064016103e8565b5050565b60006115ac83612312565b82106116055760405162461bcd60e51b815260206004820152602260248201527f455243373231413a206f776e657220696e646578206f7574206f6620626f756e604482015261647360f01b60648201526084016103e8565b60006116146001546000540390565b905060008060005b838110156116d157600081815260046020908152604091829020825160608101845290546001600160a01b038116808352600160a01b820467ffffffffffffffff1693830193909352600160e01b900460ff161515928101929092521561168257805192505b876001600160a01b0316836001600160a01b031614156116be57868414156116b057509350610f0292505050565b836116ba816158bd565b9450505b50806116c9816158bd565b91505061161c565b5060405162461bcd60e51b815260206004820152602e60248201527f455243373231413a20756e61626c6520746f2067657420746f6b656e206f662060448201527f6f776e657220627920696e64657800000000000000000000000000000000000060648201526084016103e8565b61ffff8116600090815260176020526040902054819060ff16156117945760405162461bcd60e51b815260206004820152600b60248201526a4f6e6c792048756d616e7360a81b60448201526064016103e8565b6002600b5414156117e75760405162461bcd60e51b815260206004820152601f60248201527f5265656e7472616e637947756172643a207265656e7472616e742063616c6c0060448201526064016103e8565b6002600b55600d5460ff166118305760405162461bcd60e51b815260206004820152600f60248201526e139bdd08125b9a5d1a585b1a5e9959608a1b60448201526064016103e8565b61183d8261ffff166137fa565b61187c5760405162461bcd60e51b815260206004820152601060248201526f546f6b656e204e6f742045786973747360801b60448201526064016103e8565b600061188b8361ffff16613d0e565b80519091506001600160a01b031633146118d65760405162461bcd60e51b815260206004820152600c60248201526b24b9902737ba1027bbb732b960a11b60448201526064016103e8565b6118e38361ffff16613e2a565b600e548151604051635b33720360e11b81526001600160a01b039182166004820152600092919091169063b666e40690602401602060405180830381600087803b15801561193057600080fd5b505af1158015611944573d6000803e3d6000fd5b505050506040513d601f19601f8201168201806040525081019061196891906153c4565b9050806119b75760405162461bcd60e51b815260206004820152600e60248201527f6275796261636b206661696c656400000000000000000000000000000000000060448201526064016103e8565b50506001600b555050565b61108483838360405180602001604052806000815250612cf3565b6000808052600a602052600080516020615993833981519152546001600160a01b03163314611a3c5760405162461bcd60e51b8152602060048201526018602482015260008051602061597383398151915260448201526064016103e8565b600d54600160281b900460ff1615611a895760405162461bcd60e51b815260206004820152601060248201526f105b1c9958591e48119a5b9a5cda195960821b60448201526064016103e8565b600d5460ff16611acd5760405162461bcd60e51b815260206004820152600f60248201526e139bdd08125b9a5d1a585b1a5e9959608a1b60448201526064016103e8565b600d54610100900460ff16611b145760405162461bcd60e51b815260206004820152600d60248201526c139bdd081058dd1a5d985d1959609a1b60448201526064016103e8565b50600d805461ff0019169055565b6000808052600a602052600080516020615993833981519152546001600160a01b03163314611b815760405162461bcd60e51b8152602060048201526018602482015260008051602061597383398151915260448201526064016103e8565b82518015611b9e578351611b9c906011906020870190614fa4565b505b82518015611bbb578351611bb9906013906020870190614fa4565b505b5050505050565b6000808052600a602052600080516020615993833981519152546001600160a01b03163314611c215760405162461bcd60e51b8152602060048201526018602482015260008051602061597383398151915260448201526064016103e8565b600d5460ff16611c655760405162461bcd60e51b815260206004820152600f60248201526e139bdd08125b9a5d1a585b1a5e9959608a1b60448201526064016103e8565b600d54600160281b900460ff1615611cb25760405162461bcd60e51b815260206004820152601060248201526f105b1c9958591e48119a5b9a5cda195960821b60448201526064016103e8565b600d5462010000900460ff1615611cff5760405162461bcd60e51b8152602060048201526011602482015270105b1c9958591e481058dd1a5d985d1959607a1b60448201526064016103e8565b50600d805462ff0000191662010000179055565b6000808052600a602052600080516020615993833981519152546001600160a01b03163314611d725760405162461bcd60e51b8152602060048201526018602482015260008051602061597383398151915260448201526064016103e8565b600d5460ff1615611dc55760405162461bcd60e51b815260206004820152601360248201527f416c726561647920496e697469616c697a65640000000000000000000000000060448201526064016103e8565b600d54600160281b900460ff1615611e125760405162461bcd60e51b815260206004820152601060248201526f105b1c9958591e48119a5b9a5cda195960821b60448201526064016103e8565b600d54610100900460ff1615611e5e5760405162461bcd60e51b8152602060048201526011602482015270105b1c9958591e481058dd1a5d985d1959607a1b60448201526064016103e8565b600d805460ff1916600117905560408051602080880282018101909252868152611ec49188908890819060009085015b82821015611eba57611eab6060830286013681900381019061550c565b81526020019060010190611e8e565b5050505050613fc9565b600d805461010061ff0019909116179055604080516060810182526001600160a01b038681168083528582166020808501829052928816938501849052600e80546001600160a01b03199081169093179055600f80548316909117905560108054909116831790558251808401909352818352600a9201919091526014805474ffffffffffffffffffffffffffffffffffffffffff1916909117600560a11b179055611bb9565b6000611f7a6001546000540390565b8210611fd45760405162461bcd60e51b815260206004820152602360248201527f455243373231413a20676c6f62616c20696e646578206f7574206f6620626f756044820152626e647360e81b60648201526084016103e8565b5090565b600d54600090610100900460ff166120225760405162461bcd60e51b815260206004820152600d60248201526c139bdd081058dd1a5d985d1959609a1b60448201526064016103e8565b8160ff1660011115801561203a5750600360ff831611155b6120865760405162461bcd60e51b815260206004820152601360248201527f646179206973206f7574206f662072616e67650000000000000000000000000060448201526064016103e8565b60ff808316600090815260186020908152604091829020825160e0810184528154851681526001820154928101929092526002810154928201929092526003820154606082015260048201546080820152600582015460a0820152600690910154909116151560c08201526120fa816143a6565b9150505b919050565b600061210e82613d0e565b5192915050565b600d54600160281b900460ff1661215d5760405162461bcd60e51b815260206004820152600c60248201526b139bdd08119a5b9a5cda195960a21b60448201526064016103e8565b600d5460ff166121a15760405162461bcd60e51b815260206004820152600f60248201526e139bdd08125b9a5d1a585b1a5e9959608a1b60448201526064016103e8565b61ffff8116600090815260176020526040902054819060ff16156121f55760405162461bcd60e51b815260206004820152600b60248201526a4f6e6c792048756d616e7360a81b60448201526064016103e8565b6122028261ffff166137fa565b6122415760405162461bcd60e51b815260206004820152601060248201526f546f6b656e204e6f742045786973747360801b60448201526064016103e8565b34600c5411156122875760405162461bcd60e51b81526020600482015260116024820152702737ba1022b737bab3b4399022ba3432b960791b60448201526064016103e8565b61ffff821660009081526019602090815260408220805460ff19166001179055908052600a9052600080516020615993833981519152546001600160a01b03166122d1813461445c565b6040805161ffff851681523460208201527f0154c2dfb98437384198b52913095489510f87da0fcc18a7a76717706e1d0085910160405180910390a1505050565b60006001600160a01b03821661233b576040516323d3ad8160e21b815260040160405180910390fd5b506001600160a01b031660009081526005602052604090205467ffffffffffffffff1690565b6009546001600160a01b031633146123bb5760405162461bcd60e51b815260206004820181905260248201527f4f776e61626c653a2063616c6c6572206973206e6f7420746865206f776e657260448201526064016103e8565b6123c560006144ff565b565b6000808052600a602052600080516020615993833981519152546001600160a01b031633146124265760405162461bcd60e51b8152602060048201526018602482015260008051602061597383398151915260448201526064016103e8565b600d54600160281b900460ff16156124735760405162461bcd60e51b815260206004820152601060248201526f105b1c9958591e48119a5b9a5cda195960821b60448201526064016103e8565b600d546301000000900460ff166124bc5760405162461bcd60e51b815260206004820152600d60248201526c139bdd081058dd1a5d985d1959609a1b60448201526064016103e8565b50600d805465ff00ffffff001916600160281b179055565b6000808052600a602052600080516020615993833981519152546001600160a01b031633146125335760405162461bcd60e51b8152602060048201526018602482015260008051602061597383398151915260448201526064016103e8565b600d54640100000000900460ff161561258e5760405162461bcd60e51b815260206004820152601060248201527f416c72656164792052657665616c65640000000000000000000000000000000060448201526064016103e8565b8151806125cc5760405162461bcd60e51b815260206004820152600c60248201526b43494420497320456d70747960a01b60448201526064016103e8565b82516125df906013906020860190614fa4565b5050600d805464ff0000000019166401000000001790555050565b6000808052600a602052600080516020615993833981519152546001600160a01b031633146126595760405162461bcd60e51b8152602060048201526018602482015260008051602061597383398151915260448201526064016103e8565b601080546001600160a01b0319166001600160a01b03841690811790915560408051808201909152818152600a6020909101526014805474ffffffffffffffffffffffffffffffffffffffffff1916909117600560a11b1790555050565b606060038054610f1790615888565b60ff81166000908152600a60205260409020600101546001600160a01b031633146127335760405162461bcd60e51b815260206004820152601660248201527f63616c6c6572206973206e6f742070726f706f7365640000000000000000000060448201526064016103e8565b60ff81166000818152600a602052604080822080546001820180546001600160a01b038082166001600160a01b03198086168217909655949091169091559251921693909284927f75d4894fae1c15d56c47e57d8fd94120a15786f520ddf423b53d7bee9324ee4b9190a45050565b60ff82166000908152600a602052604090205482906001600160a01b031633146127fc5760405162461bcd60e51b8152602060048201526018602482015260008051602061597383398151915260448201526064016103e8565b6001600160a01b0382166128525760405162461bcd60e51b815260206004820152601b60248201527f70726f706f7365642061646472657373206973206e6f7420736574000000000060448201526064016103e8565b60ff83166000908152600a60205260409020546001600160a01b03838116911614156128e65760405162461bcd60e51b815260206004820152603660248201527f70726f706f7365642061646472657373206973206e6f7420646966666572656e60448201527f742066726f6d2063757272656e7420616464726573730000000000000000000060648201526084016103e8565b60ff83166000818152600a60205260408082206001810180546001600160a01b0319166001600160a01b038881169182179092559154925191949216927fec584e355ff3c59e7a9d34bfb18dec6a0db876a29b47afa136b8acbed3b62d2491a4505050565b600d5460009060ff166129925760405162461bcd60e51b815260206004820152600f60248201526e139bdd08125b9a5d1a585b1a5e9959608a1b60448201526064016103e8565b6000612a0c8787876040516020016129ac939291906156d3565b60408051601f1981840301815282825280516020918201207f19457468657265756d205369676e6564204d6573736167653a0a33320000000084830152603c8085019190915282518085039091018152605c909301909152815191012090565b600f54604080516020601f88018190048102820181019092528681529293506001600160a01b0390911691612a5e91849190889088908190840183828082843760009201919091525061455192505050565b6001600160a01b031614979650505050505050565b6000808052600a602052600080516020615993833981519152546001600160a01b03163314612ad25760405162461bcd60e51b8152602060048201526018602482015260008051602061597383398151915260448201526064016103e8565b600d54600160281b900460ff1615612b1f5760405162461bcd60e51b815260206004820152601060248201526f105b1c9958591e48119a5b9a5cda195960821b60448201526064016103e8565b600d546301000000900460ff1615612b6d5760405162461bcd60e51b8152602060048201526011602482015270105b1c9958591e481058dd1a5d985d1959607a1b60448201526064016103e8565b600d5462010000900460ff16612bc55760405162461bcd60e51b815260206004820152600e60248201527f5072696f7269747920497373756500000000000000000000000000000000000060448201526064016103e8565b50600d805463ff00000019166301000000179055565b6000808052600a602052600080516020615993833981519152546001600160a01b03163314612c3a5760405162461bcd60e51b8152602060048201526018602482015260008051602061597383398151915260448201526064016103e8565b50600e80546001600160a01b0319166001600160a01b0392909216919091179055565b6001600160a01b038216331415612c875760405163b06307db60e01b815260040160405180910390fd5b3360008181526007602090815260408083206001600160a01b03871680855290835292819020805460ff191686151590811790915590519081529192917f17307eab39ab6107e8899845ad3d59bd9653f200f220920489ca2b5937696c31910160405180910390a35050565b612cfe848484613881565b6001600160a01b0383163b15158015612d205750612d1e84848484614575565b155b15612d3e576040516368d2bf6b60e11b815260040160405180910390fd5b50505050565b600d5462010000900460ff16612d8c5760405162461bcd60e51b815260206004820152600d60248201526c139bdd081058dd1a5d985d1959609a1b60448201526064016103e8565b612d99338685858561294b565b612dd55760405162461bcd60e51b815260206004820152600d60248201526c426164205369676e617475726560981b60448201526064016103e8565b611e6160ff8516612de560005490565b612def91906157d5565b1115612e355760405162461bcd60e51b81526020600482015260156024820152745265636569766520546f204d617820537570706c7960581b60448201526064016103e8565b6000612e403361466c565b905060ff8616612e5086836157ed565b60ff161115612ea15760405162461bcd60e51b815260206004820152601760248201527f5265636569766520546f204d6178205175616e7469747900000000000000000060448201526064016103e8565b6001846001811115612ec357634e487b7160e01b600052602160045260246000fd5b1415612eee57612edc33612ed787846157ed565b6146bb565b612ee9338660ff16613cf4565b612f60565b34612f0366b1a2bc2ec5000060ff8816615826565b1115612f455760405162461bcd60e51b81526020600482015260116024820152702737ba1022b737bab3b4399022ba3432b960791b60448201526064016103e8565b612f5333612ed787846157ed565b612f60338660ff16613cf4565b3415611bb957600e54604051634d4ffdef60e11b81523460048201526000916001600160a01b031690639a9ffbde90602401602060405180830381600087803b158015612fac57600080fd5b505af1158015612fc0573d6000803e3d6000fd5b505050506040513d601f19601f82011682018060405250810190612fe491906153c4565b9050806130295760405162461bcd60e51b8152602060048201526013602482015272195d1a081d1c985b9cd9995c8819985a5b1959606a1b60448201526064016103e8565b50505050505050565b600d54610100900460ff166130795760405162461bcd60e51b815260206004820152600d60248201526c139bdd081058dd1a5d985d1959609a1b60448201526064016103e8565b8060ff166001111580156130915750600360ff821611155b6130dd5760405162461bcd60e51b815260206004820152601360248201527f446179204973204f7574204f662052616e67650000000000000000000000000060448201526064016103e8565b60ff81166000908152601860205260409020600101544210156131425760405162461bcd60e51b815260206004820152600f60248201527f4e6f74205374617274656420596574000000000000000000000000000000000060448201526064016103e8565b60ff81166000908152601860205260409020600201544211156131915760405162461bcd60e51b8152602060048201526007602482015266115e1c1a5c995960ca1b60448201526064016103e8565b60ff8082166000908152601860209081526040808320815160e081018352815486168082526001830154948201949094526002820154928101929092526003810154606083015260048101546080830152600581015460a083015260060154909316151560c084015261320390613d0e565b60016000908152600a6020527fbbc70db1b6c7afd11e79c0fb0051300458f1a3acb8ee9789d9b6b26c61ad9bc7549192506001600160a01b0390911690613249846143a6565b9050816001600160a01b031683600001516001600160a01b0316146132a55760405162461bcd60e51b81526020600482015260126024820152712130b21024b734ba34b0b634bd30ba34b7b760711b60448201526064016103e8565b80846080015111156132f95760405162461bcd60e51b815260206004820152601560248201527f5265636569766520546f2042617365205072696365000000000000000000000060448201526064016103e8565b348111156133495760405162461bcd60e51b815260206004820152601060248201527f4e6f7420456e6f7567682045746865720000000000000000000000000000000060448201526064016103e8565b61335b8233866000015160ff16614719565b613365823461445c565b50505060ff9091166000908152601860205260409020600601805460ff1916600117905550565b6060613397826137fa565b6133d65760405162461bcd60e51b815260206004820152601060248201526f546f6b656e204e6f742045786973747360801b60448201526064016103e8565b61ffff8216600090815260156020526040902054829060ff161561342f5761ffff81166000908152601660209081526040918290209151613418929101615748565b604051602081830303815290604052915050919050565b61ffff811660009081526017602052604090205460ff161561346b57601161345a61ffff831661489f565b604051602001613418929190615754565b600d54640100000000900460ff161561348d57601361345a61ffff831661489f565b60405161341890601290602001615748565b50919050565b6000808052600a602052600080516020615993833981519152546001600160a01b031633146135045760405162461bcd60e51b8152602060048201526018602482015260008051602061597383398151915260448201526064016103e8565b600d54600160281b900460ff1661354c5760405162461bcd60e51b815260206004820152600c60248201526b139bdd08119a5b9a5cda195960a21b60448201526064016103e8565b600d5460ff166135905760405162461bcd60e51b815260206004820152600f60248201526e139bdd08125b9a5d1a585b1a5e9959608a1b60448201526064016103e8565b50600c55565b60ff81166000908152600a602052604090205481906001600160a01b031633146135f05760405162461bcd60e51b8152602060048201526018602482015260008051602061597383398151915260448201526064016103e8565b5060ff166000908152600a6020526040902080546001600160a01b0319168155600101805460ff60a01b1916600160a01b179055565b600d54600160281b900460ff1661366e5760405162461bcd60e51b815260206004820152600c60248201526b139bdd08119a5b9a5cda195960a21b60448201526064016103e8565b600d5460ff166136b25760405162461bcd60e51b815260206004820152600f60248201526e139bdd08125b9a5d1a585b1a5e9959608a1b60448201526064016103e8565b47806137005760405162461bcd60e51b815260206004820152601860248201527f436f6e74726163742042616c616e6365206973205a65726f000000000000000060448201526064016103e8565b600e5460405163f5c79d3d60e01b8152600481018390526000916001600160a01b03169063f5c79d3d90602401611506565b6009546001600160a01b0316331461378c5760405162461bcd60e51b815260206004820181905260248201527f4f776e61626c653a2063616c6c6572206973206e6f7420746865206f776e657260448201526064016103e8565b6001600160a01b0381166137f15760405162461bcd60e51b815260206004820152602660248201527f4f776e61626c653a206e6577206f776e657220697320746865207a65726f206160448201526564647265737360d01b60648201526084016103e8565b61136e816144ff565b6000805482108015610f02575050600090815260046020526040902054600160e01b900460ff161590565b60008281526006602052604080822080546001600160a01b0319166001600160a01b0387811691821790925591518593918516917f8c5be1e5ebec7d5bd14f71427d1e84f3dd0314c0f7b2291e5b200ac8c7c3b92591a4505050565b600061388c82613d0e565b9050600081600001516001600160a01b0316336001600160a01b031614806138d8575081516001600160a01b0316600090815260076020908152604080832033845290915290205460ff165b806138f35750336138e884610f9a565b6001600160a01b0316145b90508061391357604051632ce44b5f60e11b815260040160405180910390fd5b846001600160a01b031682600001516001600160a01b0316146139485760405162a1148160e81b815260040160405180910390fd5b6001600160a01b03841661396f57604051633a954ecd60e21b815260040160405180910390fd5b61397f6000848460000151613825565b6001600160a01b038581166000908152600560209081526040808320805467ffffffffffffffff1980821667ffffffffffffffff92831660001901831617909255898616808652838620805493841693831660019081018416949094179055898652600490945282852080546001600160e01b031916909417600160a01b429092169190910217909255908601808352912054909116613a6b57600054811015613a6b578251600082815260046020908152604090912080549186015167ffffffffffffffff16600160a01b026001600160e01b03199092166001600160a01b03909316929092171790555b5082846001600160a01b0316866001600160a01b03167fddf252ad1be2c89b69c2b068fc378daa952ba7f163c4a11628f55a4df523b3ef60405160405180910390a45050505050565b60085481613b045760405162461bcd60e51b815260206004820152601860248201527f7175616e74697479206d757374206265206e6f6e7a65726f000000000000000060448201526064016103e8565b60006001613b1284846157d5565b613b1c9190615845565b90506001613b2960005490565b613b339190615845565b811115613b52576001613b4560005490565b613b4f9190615845565b90505b613b5b816137fa565b613bb65760405162461bcd60e51b815260206004820152602660248201527f6e6f7420656e6f756768206d696e7465642079657420666f722074686973206360448201526506c65616e75760d41b60648201526084016103e8565b815b818111613c85576000818152600460205260409020546001600160a01b0316613c73576000613be682613d0e565b6040805160608101825282516001600160a01b03908116825260208085015167ffffffffffffffff908116828501908152958501511515848601908152600089815260049093529490912092518354955194511515600160e01b0260ff60e01b1995909216600160a01b026001600160e01b03199096169216919091179390931791909116919091179055505b80613c7d816158bd565b915050613bb8565b50613c918160016157d5565b600855505050565b60006001600160a01b038216613cc2576040516335ebb31960e01b815260040160405180910390fd5b506001600160a01b031660009081526005602052604090205468010000000000000000900467ffffffffffffffff1690565b61159d8282604051806020016040528060008152506149d1565b604080516060810182526000808252602082018190529181019190915281600054811015613e1157600081815260046020908152604091829020825160608101845290546001600160a01b0381168252600160a01b810467ffffffffffffffff1692820192909252600160e01b90910460ff16151591810182905290613e0f5780516001600160a01b031615613da5579392505050565b5060001901600081815260046020908152604091829020825160608101845290546001600160a01b038116808352600160a01b820467ffffffffffffffff1693830193909352600160e01b900460ff1615159281019290925215613e0a579392505050565b613da5565b505b604051636f96cda160e11b815260040160405180910390fd5b6000613e3582613d0e565b9050613e476000838360000151613825565b80516001600160a01b039081166000908152600560209081526040808320805467ffffffffffffffff19811667ffffffffffffffff9182166000190182161790915585518516845281842080547fffffffffffffffff0000000000000000ffffffffffffffffffffffffffffffff81167001000000000000000000000000000000009182900484166001908101851690920217909155865188865260049094528285208054600160e01b9588166001600160e01b031990911617600160a01b42909416939093029290921760ff60e01b1916939093179055908501808352912054909116613f8157600054811015613f81578151600082815260046020908152604090912080549185015167ffffffffffffffff16600160a01b026001600160e01b03199092166001600160a01b03909316929092171790555b50805160405183916000916001600160a01b03909116907fddf252ad1be2c89b69c2b068fc378daa952ba7f163c4a11628f55a4df523b3ef908390a450506001805481019055565b611e616003613fd760005490565b613fe191906157d5565b11156140275760405162461bcd60e51b81526020600482015260156024820152745265636569766520546f204d617820537570706c7960581b60448201526064016103e8565b80516003146140785760405162461bcd60e51b815260206004820152601260248201527f42616420436f6e66696773204c656e677468000000000000000000000000000060448201526064016103e8565b6001600052600a6020527fbbc70db1b6c7afd11e79c0fb0051300458f1a3acb8ee9789d9b6b26c61ad9bc7546001600160a01b03166140b8816003613cf4565b60036140c360005490565b146141055760405162461bcd60e51b81526020600482015260126024820152712130b21024b734ba34b0b634bd30ba34b7b760711b60448201526064016103e8565b60005b600360ff8216101561108457828160ff168151811061413757634e487b7160e01b600052603260045260246000fd5b602002602001015160200151838260ff168151811061416657634e487b7160e01b600052603260045260246000fd5b602002602001015160000151116141ad5760405162461bcd60e51b815260206004820152600b60248201526a42616420436f6e6669677360a81b60448201526064016103e8565b60006040518060e001604052808360ff1681526020018360ff16620151806141d59190615826565b6141ff907f00000000000000000000000000000000000000000000000000000000000000006157d5565b815260200161420f8460016157ed565b61421f9060ff1662015180615826565b614249907f00000000000000000000000000000000000000000000000000000000000000006157d5565b8152602001858460ff168151811061427157634e487b7160e01b600052603260045260246000fd5b6020026020010151600001518152602001858460ff16815181106142a557634e487b7160e01b600052603260045260246000fd5b6020026020010151602001518152602001858460ff16815181106142d957634e487b7160e01b600052603260045260246000fd5b6020026020010151604001518152602001600015158152509050806018600084600161430591906157ed565b60ff9081168252602080830193909352604091820160009081208551815490841660ff1991821617825586860151600180840191909155878601516002840155606088015160038401556080880151600484015560a0880151600584015560c090970151600690920180549215159282169290921790915591871681526017909352912080549091169091179055508061439e816158d8565b915050614108565b60008160c00151156143e95760405162461bcd60e51b815260206004820152600c60248201526b105b1c9958591e4814dbdb1960a21b60448201526064016103e8565b81602001514210156143fd57506060015190565b816040015142111561441157506080015190565b60008260200151426144239190615845565b9050600061443361025883615812565b90508360a00151816144459190615826565b84606001516144549190615845565b949350505050565b60405182906000906001600160a01b0383169084908381818185875af1925050503d80600081146144a9576040519150601f19603f3d011682016040523d82523d6000602084013e6144ae565b606091505b5050905080612d3e5760405162461bcd60e51b815260206004820152600f60248201527f5472616e73666572204661696c6564000000000000000000000000000000000060448201526064016103e8565b600980546001600160a01b038381166001600160a01b0319831681179093556040519116919082907f8be0079c531659141344cd1fd0a4f28419497f9722a3daafe3b4186f6b6457e090600090a35050565b600080600061456085856149de565b9150915061456d81614a4e565b509392505050565b604051630a85bd0160e11b81526000906001600160a01b0385169063150b7a02906145aa903390899088908890600401615786565b602060405180830381600087803b1580156145c457600080fd5b505af19250505080156145f4575060408051601f3d908101601f191682019092526145f1918101906153fc565b60015b61464f573d808015614622576040519150601f19603f3d011682016040523d82523d6000602084013e614627565b606091505b508051614647576040516368d2bf6b60e11b815260040160405180910390fd5b805181602001fd5b6001600160e01b031916630a85bd0160e11b149050949350505050565b60006001600160a01b0382166146955760405163561b93dd60e11b815260040160405180910390fd5b506001600160a01b0316600090815260056020526040902054600160c01b900460ff1690565b6001600160a01b0382166146e25760405163561b93dd60e11b815260040160405180910390fd5b6001600160a01b039091166000908152600560205260409020805460ff909216600160c01b0260ff60c01b19909216919091179055565b600061472482613d0e565b9050836001600160a01b031681600001516001600160a01b03161461475b5760405162a1148160e81b815260040160405180910390fd5b61476b6000838360000151613825565b6001600160a01b038481166000908152600560209081526040808320805467ffffffffffffffff1980821667ffffffffffffffff92831660001901831617909255888616808652838620805493841693831660019081018416949094179055888652600490945282852080546001600160e01b031916909417600160a01b42909216919091021790925590850180835291205490911661485757600054811015614857578151600082815260046020908152604090912080549185015167ffffffffffffffff16600160a01b026001600160e01b03199092166001600160a01b03909316929092171790555b5081836001600160a01b0316856001600160a01b03167fddf252ad1be2c89b69c2b068fc378daa952ba7f163c4a11628f55a4df523b3ef60405160405180910390a450505050565b6060816148c35750506040805180820190915260018152600360fc1b602082015290565b8160005b81156148ed57806148d7816158bd565b91506148e69050600a83615812565b91506148c7565b60008167ffffffffffffffff81111561491657634e487b7160e01b600052604160045260246000fd5b6040519080825280601f01601f191660200182016040528015614940576020820181803683370190505b5090505b841561445457614955600183615845565b9150614962600a866158f8565b61496d9060306157d5565b60f81b81838151811061499057634e487b7160e01b600052603260045260246000fd5b60200101907effffffffffffffffffffffffffffffffffffffffffffffffffffffffffffff1916908160001a9053506149ca600a86615812565b9450614944565b6110848383836001614c4f565b600080825160411415614a155760208301516040840151606085015160001a614a0987828585614e65565b94509450505050614a47565b825160401415614a3f5760208301516040840151614a34868383614f52565b935093505050614a47565b506000905060025b9250929050565b6000816004811115614a7057634e487b7160e01b600052602160045260246000fd5b1415614a795750565b6001816004811115614a9b57634e487b7160e01b600052602160045260246000fd5b1415614ae95760405162461bcd60e51b815260206004820152601860248201527f45434453413a20696e76616c6964207369676e6174757265000000000000000060448201526064016103e8565b6002816004811115614b0b57634e487b7160e01b600052602160045260246000fd5b1415614b595760405162461bcd60e51b815260206004820152601f60248201527f45434453413a20696e76616c6964207369676e6174757265206c656e6774680060448201526064016103e8565b6003816004811115614b7b57634e487b7160e01b600052602160045260246000fd5b1415614bd45760405162461bcd60e51b815260206004820152602260248201527f45434453413a20696e76616c6964207369676e6174757265202773272076616c604482015261756560f01b60648201526084016103e8565b6004816004811115614bf657634e487b7160e01b600052602160045260246000fd5b141561136e5760405162461bcd60e51b815260206004820152602260248201527f45434453413a20696e76616c6964207369676e6174757265202776272076616c604482015261756560f01b60648201526084016103e8565b6000546001600160a01b038516614c7857604051622e076360e81b815260040160405180910390fd5b83614c965760405163b562e8dd60e01b815260040160405180910390fd5b6001600160a01b038516600081815260056020908152604080832080546fffffffffffffffffffffffffffffffff19811667ffffffffffffffff8083168c0181169182176801000000000000000067ffffffffffffffff1990941690921783900481168c01811690920217909155858452600490925290912080546001600160e01b031916909217600160a01b429092169190910217905580808501838015614d4857506001600160a01b0387163b15155b15614e14575b60405182906001600160a01b038916906000907fddf252ad1be2c89b69c2b068fc378daa952ba7f163c4a11628f55a4df523b3ef908290a4614d996000888480600101955088614575565b614db6576040516368d2bf6b60e11b815260040160405180910390fd5b80821415614d4e578260005414614e0f5760405162461bcd60e51b815260206004820152601560248201527f5265656e7472616e63792070726f74656374696f6e000000000000000000000060448201526064016103e8565b614e5a565b5b6040516001830192906001600160a01b038916906000907fddf252ad1be2c89b69c2b068fc378daa952ba7f163c4a11628f55a4df523b3ef908290a480821415614e15575b506000555050505050565b6000807f7fffffffffffffffffffffffffffffff5d576e7357a4501ddfe92f46681b20a0831115614e9c5750600090506003614f49565b8460ff16601b14158015614eb457508460ff16601c14155b15614ec55750600090506004614f49565b6040805160008082526020820180845289905260ff881692820192909252606081018690526080810185905260019060a0016020604051602081039080840390855afa158015614f19573d6000803e3d6000fd5b5050604051601f1901519150506001600160a01b038116614f4257600060019250925050614f49565b9150600090505b94509492505050565b6000807f7fffffffffffffffffffffffffffffffffffffffffffffffffffffffffffffff831681614f8860ff86901c601b6157d5565b9050614f9687828885614e65565b935093505050935093915050565b828054614fb090615888565b90600052602060002090601f016020900481019282614fd25760008555615018565b82601f10614feb57805160ff1916838001178555615018565b82800160010185558215615018579182015b82811115615018578251825591602001919060010190614ffd565b50611fd49291505b80821115611fd45760008155600101615020565b600067ffffffffffffffff8084111561504f5761504f615938565b604051601f8501601f19908116603f0116810190828211818310171561507757615077615938565b8160405280935085815286868601111561509057600080fd5b858560208301376000602087830101525050509392505050565b80356001600160a01b03811681146120fe57600080fd5b60008083601f8401126150d2578182fd5b50813567ffffffffffffffff8111156150e9578182fd5b602083019150836020828501011115614a4757600080fd5b8035600281106120fe57600080fd5b600082601f830112615120578081fd5b61512f83833560208501615034565b9392505050565b803561ffff811681146120fe57600080fd5b803560ff811681146120fe57600080fd5b60006020828403121561516a578081fd5b61512f826150aa565b60008060408385031215615185578081fd5b61518e836150aa565b915061135c602084016150aa565b6000806000606084860312156151b0578081fd5b6151b9846150aa565b92506151c7602085016150aa565b9150604084013590509250925092565b600080600080608085870312156151ec578081fd5b6151f5856150aa565b9350615203602086016150aa565b925060408501359150606085013567ffffffffffffffff811115615225578182fd5b8501601f81018713615235578182fd5b61524487823560208401615034565b91505092959194509250565b60008060408385031215615262578182fd5b61526b836150aa565b9150602083013561527b8161594e565b809150509250929050565b60008060408385031215615298578182fd5b6152a1836150aa565b946020939093013593505050565b6000806000806000608086880312156152c6578081fd5b6152cf866150aa565b94506152dd60208701615148565b93506152eb60408701615101565b9250606086013567ffffffffffffffff811115615306578182fd5b615312888289016150c1565b969995985093965092949392505050565b60008060008060006080868803121561533a578283fd5b853567ffffffffffffffff80821115615351578485fd5b818801915088601f830112615364578485fd5b813581811115615372578586fd5b896020606083028501011115615386578586fd5b60209283019750955061539c91880190506150aa565b92506153aa604087016150aa565b91506153b8606087016150aa565b90509295509295909350565b6000602082840312156153d5578081fd5b815161512f8161594e565b6000602082840312156153f1578081fd5b813561512f8161595c565b60006020828403121561540d578081fd5b815161512f8161595c565b600060208284031215615429578081fd5b813567ffffffffffffffff81111561543f578182fd5b61445484828501615110565b6000806040838503121561545d578182fd5b823567ffffffffffffffff80821115615474578384fd5b61548086838701615110565b93506020850135915080821115615495578283fd5b506154a285828601615110565b9150509250929050565b6000806000606084860312156154c0578081fd5b833567ffffffffffffffff8111156154d6578182fd5b6154e286828701615110565b9350506154f160208501615136565b915060408401356155018161594e565b809150509250925092565b60006060828403121561551d578081fd5b6040516060810181811067ffffffffffffffff8211171561554057615540615938565b80604052508235815260208301356020820152604083013560408201528091505092915050565b600060208284031215615578578081fd5b61512f82615136565b600060208284031215615592578081fd5b5035919050565b600080604083850312156155ab578182fd5b50508035926020909101359150565b6000602082840312156155cb578081fd5b61512f82615148565b600080604083850312156155e6578182fd5b61518e83615148565b600080600080600060808688031215615606578283fd5b6152cf86615148565b6000815180845261562781602086016020860161585c565b601f01601f19169290920160200192915050565b8054600090600181811c908083168061565557607f831692505b602080841082141561567557634e487b7160e01b86526022600452602486fd5b818015615689576001811461569a576156c7565b60ff198616895284890196506156c7565b60008881526020902060005b868110156156bf5781548b8201529085019083016156a6565b505084890196505b50505050505092915050565b606084901b6bffffffffffffffffffffffff1916815260f883901b7fff0000000000000000000000000000000000000000000000000000000000000016601482015260006002831061573357634e487b7160e01b81526021600452602481fd5b5060f89190911b601582015260160192915050565b600061512f828461563b565b6000615760828561563b565b602f60f81b8152835161577a81600184016020880161585c565b01600101949350505050565b60006001600160a01b038087168352808616602084015250836040830152608060608301526157b8608083018461560f565b9695505050505050565b60208152600061512f602083018461560f565b600082198211156157e8576157e861590c565b500190565b600060ff821660ff84168060ff0382111561580a5761580a61590c565b019392505050565b60008261582157615821615922565b500490565b60008160001904831182151516156158405761584061590c565b500290565b6000828210156158575761585761590c565b500390565b60005b8381101561587757818101518382015260200161585f565b83811115612d3e5750506000910152565b600181811c9082168061589c57607f821691505b6020821081141561349f57634e487b7160e01b600052602260045260246000fd5b60006000198214156158d1576158d161590c565b5060010190565b600060ff821660ff8114156158ef576158ef61590c565b60010192915050565b60008261590757615907615922565b500690565b634e487b7160e01b600052601160045260246000fd5b634e487b7160e01b600052601260045260246000fd5b634e487b7160e01b600052604160045260246000fd5b801515811461136e57600080fd5b6001600160e01b03198116811461136e57600080fdfe63616c6c6572206973206e6f7420617574686f72697a6564000000000000000013da86008ba1c6922daee3e07db95305ef49ebced9f5467a0b8613fcc6b343e3a2646970667358221220dd6f98ed5640d2fb45ae0410c5fd45157cb3af455329b874b17575f5c37c266d64736f6c63430008040033",
  "linkReferences": {},
  "deployedLinkReferences": {}
}