{
  "_format": "hh-sol-artifact-1",
  "contractName": "NFT",
  "sourceName": "src/contracts/NFT.sol",
  "abi": [
    {
      "inputs": [
        {
          "internalType": "string",
          "name": "godCID_",
          "type": "string"
        },
        {
          "internalType": "string",
          "name": "_notRevealedArtCID",
          "type": "string"
        },
        {
          "internalType": "uint256",
          "name": "_upgradeRequestFeeInWei",
          "type": "uint256"
        },
        {
          "internalType": "address",
          "name": "owner",
          "type": "address"
        },
        {
          "internalType": "address",
          "name": "platformMultisig",
          "type": "address"
        },
        {
          "internalType": "address",
          "name": "decentralTitan",
          "type": "address"
        }
      ],
      "stateMutability": "nonpayable",
      "type": "constructor"
    },
    {
      "inputs": [],
      "name": "ApprovalCallerNotOwnerNorApproved",
      "type": "error"
    },
    {
      "inputs": [],
      "name": "ApprovalQueryForNonexistentToken",
      "type": "error"
    },
    {
      "inputs": [],
      "name": "ApprovalToCurrentOwner",
      "type": "error"
    },
    {
      "inputs": [],
      "name": "ApproveToCaller",
      "type": "error"
    },
    {
      "inputs": [],
      "name": "AuxQueryForZeroAddress",
      "type": "error"
    },
    {
      "inputs": [],
      "name": "BalanceQueryForZeroAddress",
      "type": "error"
    },
    {
      "inputs": [],
      "name": "MintToZeroAddress",
      "type": "error"
    },
    {
      "inputs": [],
      "name": "MintZeroQuantity",
      "type": "error"
    },
    {
      "inputs": [],
      "name": "MintedQueryForZeroAddress",
      "type": "error"
    },
    {
      "inputs": [],
      "name": "OwnerQueryForNonexistentToken",
      "type": "error"
    },
    {
      "inputs": [],
      "name": "TransferCallerNotOwnerNorApproved",
      "type": "error"
    },
    {
      "inputs": [],
      "name": "TransferFromIncorrectOwner",
      "type": "error"
    },
    {
      "inputs": [],
      "name": "TransferToNonERC721ReceiverImplementer",
      "type": "error"
    },
    {
      "inputs": [],
      "name": "TransferToZeroAddress",
      "type": "error"
    },
    {
      "anonymous": false,
      "inputs": [
        {
          "indexed": true,
          "internalType": "address",
          "name": "owner",
          "type": "address"
        },
        {
          "indexed": true,
          "internalType": "address",
          "name": "approved",
          "type": "address"
        },
        {
          "indexed": true,
          "internalType": "uint256",
          "name": "tokenId",
          "type": "uint256"
        }
      ],
      "name": "Approval",
      "type": "event"
    },
    {
      "anonymous": false,
      "inputs": [
        {
          "indexed": true,
          "internalType": "address",
          "name": "owner",
          "type": "address"
        },
        {
          "indexed": true,
          "internalType": "address",
          "name": "operator",
          "type": "address"
        },
        {
          "indexed": false,
          "internalType": "bool",
          "name": "approved",
          "type": "bool"
        }
      ],
      "name": "ApprovalForAll",
      "type": "event"
    },
    {
      "anonymous": false,
      "inputs": [
        {
          "indexed": false,
          "internalType": "uint8",
          "name": "numberOfGods",
          "type": "uint8"
        },
        {
          "indexed": false,
          "internalType": "uint256",
          "name": "startTimeStamp",
          "type": "uint256"
        }
      ],
      "name": "AuctionsInitialized",
      "type": "event"
    },
    {
      "anonymous": false,
      "inputs": [
        {
          "indexed": true,
          "internalType": "address",
          "name": "previousOwner",
          "type": "address"
        },
        {
          "indexed": true,
          "internalType": "address",
          "name": "newOwner",
          "type": "address"
        }
      ],
      "name": "OwnershipTransferred",
      "type": "event"
    },
    {
      "anonymous": false,
      "inputs": [
        {
          "indexed": true,
          "internalType": "uint8",
          "name": "roleId",
          "type": "uint8"
        },
        {
          "indexed": true,
          "internalType": "address",
          "name": "oldAddr",
          "type": "address"
        },
        {
          "indexed": true,
          "internalType": "address",
          "name": "newAddr",
          "type": "address"
        }
      ],
      "name": "RoleAccepted",
      "type": "event"
    },
    {
      "anonymous": false,
      "inputs": [
        {
          "indexed": true,
          "internalType": "uint8",
          "name": "roleId",
          "type": "uint8"
        },
        {
          "indexed": true,
          "internalType": "address",
          "name": "currentAddr",
          "type": "address"
        },
        {
          "indexed": true,
          "internalType": "address",
          "name": "proposedAddr",
          "type": "address"
        }
      ],
      "name": "RoleProposed",
      "type": "event"
    },
    {
      "anonymous": false,
      "inputs": [
        {
          "indexed": false,
          "internalType": "uint16",
          "name": "tokenId",
          "type": "uint16"
        }
      ],
      "name": "TokenUpgraded",
      "type": "event"
    },
    {
      "anonymous": false,
      "inputs": [
        {
          "indexed": true,
          "internalType": "address",
          "name": "from",
          "type": "address"
        },
        {
          "indexed": true,
          "internalType": "address",
          "name": "to",
          "type": "address"
        },
        {
          "indexed": true,
          "internalType": "uint256",
          "name": "tokenId",
          "type": "uint256"
        }
      ],
      "name": "Transfer",
      "type": "event"
    },
    {
      "anonymous": false,
      "inputs": [
        {
          "indexed": false,
          "internalType": "uint16",
          "name": "tokenId",
          "type": "uint16"
        },
        {
          "indexed": false,
          "internalType": "uint256",
          "name": "value",
          "type": "uint256"
        }
      ],
      "name": "UpgradeRequestPayment",
      "type": "event"
    },
    {
      "stateMutability": "payable",
      "type": "fallback"
    },
    {
      "inputs": [],
      "name": "AUCTION_DROP_INTERVAL",
      "outputs": [
        {
          "internalType": "uint256",
          "name": "",
          "type": "uint256"
        }
      ],
      "stateMutability": "view",
      "type": "function"
    },
    {
      "inputs": [],
      "name": "AUCTION_DURATION",
      "outputs": [
        {
          "internalType": "uint256",
          "name": "",
          "type": "uint256"
        }
      ],
      "stateMutability": "view",
      "type": "function"
    },
    {
      "inputs": [],
      "name": "AUCTION_START_TIME",
      "outputs": [
        {
          "internalType": "uint256",
          "name": "",
          "type": "uint256"
        }
      ],
      "stateMutability": "view",
      "type": "function"
    },
    {
      "inputs": [],
      "name": "DECENTRAL_TITAN_ROLE_ID",
      "outputs": [
        {
          "internalType": "uint8",
          "name": "",
          "type": "uint8"
        }
      ],
      "stateMutability": "view",
      "type": "function"
    },
    {
      "inputs": [],
      "name": "MAX_MINT_PER_ADDRESS",
      "outputs": [
        {
          "internalType": "uint16",
          "name": "",
          "type": "uint16"
        }
      ],
      "stateMutability": "view",
      "type": "function"
    },
    {
      "inputs": [],
      "name": "MAX_SUPPLY",
      "outputs": [
        {
          "internalType": "uint16",
          "name": "",
          "type": "uint16"
        }
      ],
      "stateMutability": "view",
      "type": "function"
    },
    {
      "inputs": [],
      "name": "MINT_PRICE_IN_WEI",
      "outputs": [
        {
          "internalType": "uint256",
          "name": "",
          "type": "uint256"
        }
      ],
      "stateMutability": "view",
      "type": "function"
    },
    {
      "inputs": [],
      "name": "NUMBER_OF_TOKEN_FOR_AUCTION",
      "outputs": [
        {
          "internalType": "uint8",
          "name": "",
          "type": "uint8"
        }
      ],
      "stateMutability": "view",
      "type": "function"
    },
    {
      "inputs": [],
      "name": "PLATFORM_MULTISIG_ROLE_ID",
      "outputs": [
        {
          "internalType": "uint8",
          "name": "",
          "type": "uint8"
        }
      ],
      "stateMutability": "view",
      "type": "function"
    },
    {
      "inputs": [],
      "name": "ROYALTY_FEE_PERCENT",
      "outputs": [
        {
          "internalType": "uint8",
          "name": "",
          "type": "uint8"
        }
      ],
      "stateMutability": "view",
      "type": "function"
    },
    {
      "inputs": [
        {
          "internalType": "uint256",
          "name": "",
          "type": "uint256"
        }
      ],
      "name": "_ownerships",
      "outputs": [
        {
          "internalType": "address",
          "name": "addr",
          "type": "address"
        },
        {
          "internalType": "uint64",
          "name": "startTimestamp",
          "type": "uint64"
        },
        {
          "internalType": "bool",
          "name": "burned",
          "type": "bool"
        }
      ],
      "stateMutability": "view",
      "type": "function"
    },
    {
      "inputs": [
        {
          "internalType": "uint8",
          "name": "roleId",
          "type": "uint8"
        }
      ],
      "name": "acceptAuthority",
      "outputs": [],
      "stateMutability": "nonpayable",
      "type": "function"
    },
    {
      "inputs": [
        {
          "internalType": "address",
          "name": "to",
          "type": "address"
        },
        {
          "internalType": "uint256",
          "name": "tokenId",
          "type": "uint256"
        }
      ],
      "name": "approve",
      "outputs": [],
      "stateMutability": "nonpayable",
      "type": "function"
    },
    {
      "inputs": [
        {
          "internalType": "uint8",
          "name": "",
          "type": "uint8"
        }
      ],
      "name": "auctions",
      "outputs": [
        {
          "internalType": "uint8",
          "name": "tokenId",
          "type": "uint8"
        },
        {
          "internalType": "uint256",
          "name": "startAt",
          "type": "uint256"
        },
        {
          "internalType": "uint256",
          "name": "expireAt",
          "type": "uint256"
        },
        {
          "internalType": "uint256",
          "name": "startPrice",
          "type": "uint256"
        },
        {
          "internalType": "uint256",
          "name": "endPrice",
          "type": "uint256"
        },
        {
          "internalType": "uint256",
          "name": "auctionDropPerStep",
          "type": "uint256"
        },
        {
          "internalType": "bool",
          "name": "isSold",
          "type": "bool"
        }
      ],
      "stateMutability": "view",
      "type": "function"
    },
    {
      "inputs": [
        {
          "internalType": "address",
          "name": "owner",
          "type": "address"
        }
      ],
      "name": "balanceOf",
      "outputs": [
        {
          "internalType": "uint256",
          "name": "",
          "type": "uint256"
        }
      ],
      "stateMutability": "view",
      "type": "function"
    },
    {
      "inputs": [
        {
          "internalType": "uint8",
          "name": "day",
          "type": "uint8"
        }
      ],
      "name": "buyAGodInAuction",
      "outputs": [],
      "stateMutability": "payable",
      "type": "function"
    },
    {
      "inputs": [
        {
          "internalType": "uint16",
          "name": "tokenId",
          "type": "uint16"
        }
      ],
      "name": "buyBackToken",
      "outputs": [],
      "stateMutability": "nonpayable",
      "type": "function"
    },
    {
      "inputs": [],
      "name": "finishAuction",
      "outputs": [],
      "stateMutability": "nonpayable",
      "type": "function"
    },
    {
      "inputs": [],
      "name": "finishMinting",
      "outputs": [],
      "stateMutability": "nonpayable",
      "type": "function"
    },
    {
      "inputs": [],
      "name": "getAddresses",
      "outputs": [
        {
          "components": [
            {
              "internalType": "address",
              "name": "daoTreasuryContract",
              "type": "address"
            },
            {
              "internalType": "address",
              "name": "whiteListVerifier",
              "type": "address"
            },
            {
              "internalType": "address",
              "name": "gameTreasuryContract",
              "type": "address"
            }
          ],
          "internalType": "struct ICollectiGame.ContractAddresses",
          "name": "",
          "type": "tuple"
        }
      ],
      "stateMutability": "view",
      "type": "function"
    },
    {
      "inputs": [
        {
          "internalType": "uint256",
          "name": "tokenId",
          "type": "uint256"
        }
      ],
      "name": "getApproved",
      "outputs": [
        {
          "internalType": "address",
          "name": "",
          "type": "address"
        }
      ],
      "stateMutability": "view",
      "type": "function"
    },
    {
      "inputs": [
        {
          "internalType": "uint8",
          "name": "day",
          "type": "uint8"
        }
      ],
      "name": "getAuctionPrice",
      "outputs": [
        {
          "internalType": "uint256",
          "name": "",
          "type": "uint256"
        }
      ],
      "stateMutability": "view",
      "type": "function"
    },
    {
      "inputs": [],
      "name": "getState",
      "outputs": [
        {
          "components": [
            {
              "internalType": "bool",
              "name": "initialized",
              "type": "bool"
            },
            {
              "internalType": "bool",
              "name": "auctionIsActive",
              "type": "bool"
            },
            {
              "internalType": "bool",
              "name": "whitelistMintingIsActive",
              "type": "bool"
            },
            {
              "internalType": "bool",
              "name": "mintingIsActive",
              "type": "bool"
            },
            {
              "internalType": "bool",
              "name": "artIsRevealed",
              "type": "bool"
            },
            {
              "internalType": "bool",
              "name": "finished",
              "type": "bool"
            }
          ],
          "internalType": "struct ICollectiGame.ContractState",
          "name": "",
          "type": "tuple"
        }
      ],
      "stateMutability": "view",
      "type": "function"
    },
    {
      "inputs": [
        {
          "components": [
            {
              "internalType": "uint256",
              "name": "startPrice",
              "type": "uint256"
            },
            {
              "internalType": "uint256",
              "name": "endPrice",
              "type": "uint256"
            },
            {
              "internalType": "uint256",
              "name": "auctionDropPerStep",
              "type": "uint256"
            }
          ],
          "internalType": "struct ICollectiGame.AuctionConfig[]",
          "name": "configs",
          "type": "tuple[]"
        },
        {
          "internalType": "address",
          "name": "daoTreasury",
          "type": "address"
        },
        {
          "internalType": "address",
          "name": "royaltyReceiverContract",
          "type": "address"
        },
        {
          "internalType": "address",
          "name": "whiteListVerifier",
          "type": "address"
        }
      ],
      "name": "initializer",
      "outputs": [],
      "stateMutability": "nonpayable",
      "type": "function"
    },
    {
      "inputs": [
        {
          "internalType": "address",
          "name": "owner",
          "type": "address"
        },
        {
          "internalType": "address",
          "name": "operator",
          "type": "address"
        }
      ],
      "name": "isApprovedForAll",
      "outputs": [
        {
          "internalType": "bool",
          "name": "",
          "type": "bool"
        }
      ],
      "stateMutability": "view",
      "type": "function"
    },
    {
      "inputs": [
        {
          "internalType": "uint16",
          "name": "",
          "type": "uint16"
        }
      ],
      "name": "isGodToken",
      "outputs": [
        {
          "internalType": "bool",
          "name": "",
          "type": "bool"
        }
      ],
      "stateMutability": "view",
      "type": "function"
    },
    {
      "inputs": [
        {
          "internalType": "address",
          "name": "account_",
          "type": "address"
        },
        {
          "internalType": "uint8",
          "name": "maxQuantity_",
          "type": "uint8"
        },
        {
          "internalType": "enum NFT.WhiteListType",
          "name": "whiteListType_",
          "type": "uint8"
        },
        {
          "internalType": "bytes",
          "name": "sig_",
          "type": "bytes"
        }
      ],
      "name": "isWhitelisted",
      "outputs": [
        {
          "internalType": "bool",
          "name": "",
          "type": "bool"
        }
      ],
      "stateMutability": "view",
      "type": "function"
    },
    {
      "inputs": [],
      "name": "name",
      "outputs": [
        {
          "internalType": "string",
          "name": "",
          "type": "string"
        }
      ],
      "stateMutability": "view",
      "type": "function"
    },
    {
      "inputs": [],
      "name": "nextOwnerToExplicitlySet",
      "outputs": [
        {
          "internalType": "uint256",
          "name": "",
          "type": "uint256"
        }
      ],
      "stateMutability": "view",
      "type": "function"
    },
    {
      "inputs": [],
      "name": "numberOfRoles",
      "outputs": [
        {
          "internalType": "uint8",
          "name": "",
          "type": "uint8"
        }
      ],
      "stateMutability": "view",
      "type": "function"
    },
    {
      "inputs": [],
      "name": "owner",
      "outputs": [
        {
          "internalType": "address",
          "name": "",
          "type": "address"
        }
      ],
      "stateMutability": "view",
      "type": "function"
    },
    {
      "inputs": [
        {
          "internalType": "uint256",
          "name": "tokenId",
          "type": "uint256"
        }
      ],
      "name": "ownerOf",
      "outputs": [
        {
          "internalType": "address",
          "name": "",
          "type": "address"
        }
      ],
      "stateMutability": "view",
      "type": "function"
    },
    {
      "inputs": [
        {
          "internalType": "uint8",
          "name": "roleId",
          "type": "uint8"
        },
        {
          "internalType": "address",
          "name": "proposedAddr",
          "type": "address"
        }
      ],
      "name": "proposeAuthority",
      "outputs": [],
      "stateMutability": "nonpayable",
      "type": "function"
    },
    {
      "inputs": [
        {
          "internalType": "uint256",
          "name": "quantity",
          "type": "uint256"
        }
      ],
      "name": "publicMint",
      "outputs": [],
      "stateMutability": "payable",
      "type": "function"
    },
    {
      "inputs": [
        {
          "internalType": "uint8",
          "name": "roleId",
          "type": "uint8"
        }
      ],
      "name": "renounceAuthority",
      "outputs": [],
      "stateMutability": "nonpayable",
      "type": "function"
    },
    {
      "inputs": [],
      "name": "renounceOwnership",
      "outputs": [],
      "stateMutability": "nonpayable",
      "type": "function"
    },
    {
      "inputs": [
        {
          "internalType": "string",
          "name": "ipfsCid",
          "type": "string"
        }
      ],
      "name": "revealArt",
      "outputs": [],
      "stateMutability": "nonpayable",
      "type": "function"
    },
    {
      "inputs": [
        {
          "internalType": "uint8",
          "name": "",
          "type": "uint8"
        }
      ],
      "name": "roles",
      "outputs": [
        {
          "internalType": "address",
          "name": "addr",
          "type": "address"
        },
        {
          "internalType": "address",
          "name": "proposedAddr",
          "type": "address"
        },
        {
          "internalType": "bool",
          "name": "isRenounced",
          "type": "bool"
        }
      ],
      "stateMutability": "view",
      "type": "function"
    },
    {
      "inputs": [
        {
          "internalType": "uint256",
          "name": "",
          "type": "uint256"
        },
        {
          "internalType": "uint256",
          "name": "value",
          "type": "uint256"
        }
      ],
      "name": "royaltyInfo",
      "outputs": [
        {
          "internalType": "address",
          "name": "receiver",
          "type": "address"
        },
        {
          "internalType": "uint256",
          "name": "royaltyAmount",
          "type": "uint256"
        }
      ],
      "stateMutability": "view",
      "type": "function"
    },
    {
      "inputs": [
        {
          "internalType": "address",
          "name": "from",
          "type": "address"
        },
        {
          "internalType": "address",
          "name": "to",
          "type": "address"
        },
        {
          "internalType": "uint256",
          "name": "tokenId",
          "type": "uint256"
        }
      ],
      "name": "safeTransferFrom",
      "outputs": [],
      "stateMutability": "nonpayable",
      "type": "function"
    },
    {
      "inputs": [
        {
          "internalType": "address",
          "name": "from",
          "type": "address"
        },
        {
          "internalType": "address",
          "name": "to",
          "type": "address"
        },
        {
          "internalType": "uint256",
          "name": "tokenId",
          "type": "uint256"
        },
        {
          "internalType": "bytes",
          "name": "_data",
          "type": "bytes"
        }
      ],
      "name": "safeTransferFrom",
      "outputs": [],
      "stateMutability": "nonpayable",
      "type": "function"
    },
    {
      "inputs": [
        {
          "internalType": "address",
          "name": "operator",
          "type": "address"
        },
        {
          "internalType": "bool",
          "name": "approved",
          "type": "bool"
        }
      ],
      "name": "setApprovalForAll",
      "outputs": [],
      "stateMutability": "nonpayable",
      "type": "function"
    },
    {
      "inputs": [
        {
          "internalType": "address",
          "name": "daoTreasuryContract",
          "type": "address"
        }
      ],
      "name": "setDaoTreasury",
      "outputs": [],
      "stateMutability": "nonpayable",
      "type": "function"
    },
    {
      "inputs": [
        {
          "internalType": "uint256",
          "name": "quantity",
          "type": "uint256"
        }
      ],
      "name": "setOwnersExplicit",
      "outputs": [],
      "stateMutability": "nonpayable",
      "type": "function"
    },
    {
      "inputs": [
        {
          "internalType": "address",
          "name": "royaltyDistributerContract",
          "type": "address"
        }
      ],
      "name": "setRoyaltyReceiver",
      "outputs": [],
      "stateMutability": "nonpayable",
      "type": "function"
    },
    {
      "inputs": [
        {
          "internalType": "uint256",
          "name": "_upgradeRequestFeeInWei",
          "type": "uint256"
        }
      ],
      "name": "setUpgradeRequestFeeInWei",
      "outputs": [],
      "stateMutability": "nonpayable",
      "type": "function"
    },
    {
      "inputs": [],
      "name": "startPublicMinting",
      "outputs": [],
      "stateMutability": "nonpayable",
      "type": "function"
    },
    {
      "inputs": [],
      "name": "startWhiteListMinting",
      "outputs": [],
      "stateMutability": "nonpayable",
      "type": "function"
    },
    {
      "inputs": [
        {
          "internalType": "bytes4",
          "name": "interfaceId",
          "type": "bytes4"
        }
      ],
      "name": "supportsInterface",
      "outputs": [
        {
          "internalType": "bool",
          "name": "",
          "type": "bool"
        }
      ],
      "stateMutability": "view",
      "type": "function"
    },
    {
      "inputs": [],
      "name": "symbol",
      "outputs": [
        {
          "internalType": "string",
          "name": "",
          "type": "string"
        }
      ],
      "stateMutability": "view",
      "type": "function"
    },
    {
      "inputs": [
        {
          "internalType": "uint256",
          "name": "index",
          "type": "uint256"
        }
      ],
      "name": "tokenByIndex",
      "outputs": [
        {
          "internalType": "uint256",
          "name": "",
          "type": "uint256"
        }
      ],
      "stateMutability": "view",
      "type": "function"
    },
    {
      "inputs": [
        {
          "internalType": "uint16",
          "name": "",
          "type": "uint16"
        }
      ],
      "name": "tokenIsUpgraded",
      "outputs": [
        {
          "internalType": "bool",
          "name": "",
          "type": "bool"
        }
      ],
      "stateMutability": "view",
      "type": "function"
    },
    {
      "inputs": [
        {
          "internalType": "address",
          "name": "owner",
          "type": "address"
        },
        {
          "internalType": "uint256",
          "name": "index",
          "type": "uint256"
        }
      ],
      "name": "tokenOfOwnerByIndex",
      "outputs": [
        {
          "internalType": "uint256",
          "name": "",
          "type": "uint256"
        }
      ],
      "stateMutability": "view",
      "type": "function"
    },
    {
      "inputs": [
        {
          "internalType": "uint256",
          "name": "tokenId_",
          "type": "uint256"
        }
      ],
      "name": "tokenURI",
      "outputs": [
        {
          "internalType": "string",
          "name": "",
          "type": "string"
        }
      ],
      "stateMutability": "view",
      "type": "function"
    },
    {
      "inputs": [],
      "name": "totalSupply",
      "outputs": [
        {
          "internalType": "uint256",
          "name": "",
          "type": "uint256"
        }
      ],
      "stateMutability": "view",
      "type": "function"
    },
    {
      "inputs": [],
      "name": "transferEthToDao",
      "outputs": [],
      "stateMutability": "payable",
      "type": "function"
    },
    {
      "inputs": [
        {
          "internalType": "address",
          "name": "from",
          "type": "address"
        },
        {
          "internalType": "address",
          "name": "to",
          "type": "address"
        },
        {
          "internalType": "uint256",
          "name": "tokenId",
          "type": "uint256"
        }
      ],
      "name": "transferFrom",
      "outputs": [],
      "stateMutability": "nonpayable",
      "type": "function"
    },
    {
      "inputs": [
        {
          "internalType": "address",
          "name": "newOwner",
          "type": "address"
        }
      ],
      "name": "transferOwnership",
      "outputs": [],
      "stateMutability": "nonpayable",
      "type": "function"
    },
    {
      "inputs": [
        {
          "internalType": "string",
          "name": "GodCid",
          "type": "string"
        },
        {
          "internalType": "string",
          "name": "HumanCid",
          "type": "string"
        }
      ],
      "name": "updateCID",
      "outputs": [],
      "stateMutability": "nonpayable",
      "type": "function"
    },
    {
      "inputs": [],
      "name": "upgradeRequestFeeInWei",
      "outputs": [
        {
          "internalType": "uint256",
          "name": "",
          "type": "uint256"
        }
      ],
      "stateMutability": "view",
      "type": "function"
    },
    {
      "inputs": [
        {
          "internalType": "uint256",
          "name": "",
          "type": "uint256"
        }
      ],
      "name": "upgradeRequestFeeIsPaid",
      "outputs": [
        {
          "internalType": "bool",
          "name": "",
          "type": "bool"
        }
      ],
      "stateMutability": "view",
      "type": "function"
    },
    {
      "inputs": [
        {
          "internalType": "string",
          "name": "ipfsCid",
          "type": "string"
        },
        {
          "internalType": "uint16",
          "name": "tokenId",
          "type": "uint16"
        },
        {
          "internalType": "bool",
          "name": "isGodNow",
          "type": "bool"
        }
      ],
      "name": "upgradeToken",
      "outputs": [],
      "stateMutability": "nonpayable",
      "type": "function"
    },
    {
      "inputs": [
        {
          "internalType": "uint16",
          "name": "tokenId",
          "type": "uint16"
        }
      ],
      "name": "upgradeTokenRequestFee",
      "outputs": [],
      "stateMutability": "payable",
      "type": "function"
    },
    {
      "inputs": [
        {
          "internalType": "uint8",
          "name": "maxQuantity",
          "type": "uint8"
        },
        {
          "internalType": "uint8",
          "name": "quantity",
          "type": "uint8"
        },
        {
          "internalType": "enum NFT.WhiteListType",
          "name": "whiteListType",
          "type": "uint8"
        },
        {
          "internalType": "bytes",
          "name": "sig",
          "type": "bytes"
        }
      ],
      "name": "whitelistMinting",
      "outputs": [],
      "stateMutability": "payable",
      "type": "function"
    },
    {
      "stateMutability": "payable",
      "type": "receive"
    }
  ],
  "bytecode": "0x60a060405260006008553480156200001657600080fd5b5060405162006326380380620063268339810160408190526200003991620007bf565b6002836040518060400160405280601181526020017044656d6d6f7274616c547265617375726560781b81525060405180604001604052806002815260200161111560f21b81525081600290805190602001906200009992919062000649565b508051620000af90600390602084019062000649565b50506000805550620000c181620002a9565b506009805460ff60a01b1916600160a01b60ff93909316929092029190911790556001600b556040805160c08101825260008082526020820181905281830181905260608083018290526080830182905260a0909201819052600d805465ffffffffffff1916905582516002808252928101909352919081602001602082028036833701905050905082816000815181106200016d57634e487b7160e01b600052603260045260246000fd5b60200260200101906001600160a01b031690816001600160a01b0316815250508181600181518110620001b057634e487b7160e01b600052603260045260246000fd5b6001600160a01b039290921660209283029190910182015260408051600280825260608201835260009391929091830190803683370190505090506000816000815181106200020f57634e487b7160e01b600052603260045260246000fd5b602002602001019060ff16908160ff16815250506001816001815181106200024757634e487b7160e01b600052603260045260246000fd5b60ff90921660209283029190910190910152620002658282620002fb565b87516200027a9060119060208b019062000649565b508651620002909060129060208a019062000649565b505050600c9390935550504260805250620008e6915050565b600980546001600160a01b038381166001600160a01b0319831681179093556040519116919082907f8be0079c531659141344cd1fd0a4f28419497f9722a3daafe3b4186f6b6457e090600090a35050565b8051825114620003785760405162461bcd60e51b815260206004820152603660248201527f746865206e756d626572206f662061646472657373657320616e64207468652060448201527f726f6c6520696473206d75737420626520657175616c0000000000000000000060648201526084015b60405180910390fd5b6009548251600160a01b90910460ff1614620003e25760405162461bcd60e51b815260206004820152602260248201527f726561636820746f206d6178206e756d626572206f6620617574686f72697469604482015261657360f01b60648201526084016200036f565b60005b82518160ff161015620006445760006001600160a01b0316600a6000848460ff16815181106200042557634e487b7160e01b600052603260045260246000fd5b60209081029190910181015160ff168252810191909152604001600020546001600160a01b0316146200049b5760405162461bcd60e51b815260206004820152601360248201527f726f6c6520616c7265616479206578697374730000000000000000000000000060448201526064016200036f565b600a6000838360ff1681518110620004c357634e487b7160e01b600052603260045260246000fd5b60209081029190910181015160ff90811683529082019290925260400160002060010154600160a01b900416156200053e5760405162461bcd60e51b815260206004820152601d60248201527f726f6c6520616c7265616479207573656420616e64207265766f6b656400000060448201526064016200036f565b6040518060600160405280848360ff16815181106200056d57634e487b7160e01b600052603260045260246000fd5b60200260200101516001600160a01b0316815260200160006001600160a01b0316815260200160001515815250600a6000848460ff1681518110620005c257634e487b7160e01b600052603260045260246000fd5b60209081029190910181015160ff168252818101929092526040908101600020835181546001600160a01b0319166001600160a01b039182161782559284015160019091018054949092015192166001600160a81b031990931692909217600160a01b91151591909102179055806200063b81620008a3565b915050620003e5565b505050565b828054620006579062000866565b90600052602060002090601f0160209004810192826200067b5760008555620006c6565b82601f106200069657805160ff1916838001178555620006c6565b82800160010185558215620006c6579182015b82811115620006c6578251825591602001919060010190620006a9565b50620006d4929150620006d8565b5090565b5b80821115620006d45760008155600101620006d9565b80516001600160a01b03811681146200070757600080fd5b919050565b600082601f8301126200071d578081fd5b81516001600160401b03808211156200073a576200073a620008d0565b604051601f8301601f19908116603f01168101908282118183101715620007655762000765620008d0565b8160405283815260209250868385880101111562000781578485fd5b8491505b83821015620007a4578582018301518183018401529082019062000785565b83821115620007b557848385830101525b9695505050505050565b60008060008060008060c08789031215620007d8578182fd5b86516001600160401b0380821115620007ef578384fd5b620007fd8a838b016200070c565b9750602089015191508082111562000813578384fd5b506200082289828a016200070c565b955050604087015193506200083a60608801620006ef565b92506200084a60808801620006ef565b91506200085a60a08801620006ef565b90509295509295509295565b600181811c908216806200087b57607f821691505b602082108114156200089d57634e487b7160e01b600052602260045260246000fd5b50919050565b600060ff821660ff811415620008c757634e487b7160e01b82526011600452602482fd5b60010192915050565b634e487b7160e01b600052604160045260246000fd5b608051615a166200091060003960008181610e690152818161420901526142530152615a166000f3fe6080604052600436106103c75760003560e01c806364b1152f116101f2578063a271e5251161010d578063d0b50d8e116100a0578063dd28e1ca1161006f578063dd28e1ca14610dde578063e985e9c514610e0e578063f17d076f14610e57578063f2fde38b14610e8b57610407565b8063d0b50d8e14610d80578063d514355514610da0578063d7224ba014610dc0578063d9c65cbc14610dd657610407565b8063b88d4fde116100dc578063b88d4fde14610d1a578063c046e13014610d3a578063c4f1634d14610d4d578063c87b56dd14610d6057610407565b8063a271e52514610bc4578063a39fac1214610bdb578063a80a783c14610c6d578063ae14d45d14610d0557610407565b8063953495ff116101855780639b643f68116101545780639b643f6814610b4f5780639da058e914610b6f578063a124df5d14610b84578063a22cb46514610ba457610407565b8063953495ff14610adf57806395d89b4114610afa578063965d08af14610b0f57806396a5d5ba14610b2f57610407565b80637fec1684116101c15780637fec1684146109fd5780638951454314610a815780638da5cb5b14610aa15780638dc251e314610abf57610407565b806364b1152f146109a057806370a08231146109b3578063715018a6146109d35780637d64bcb4146109e857610407565b80632fa3ce7d116102e25780634f6ccce7116102755780635cae01d3116102445780635cae01d3146109355780635fd78bbb1461094b57806360dc13a9146109605780636352211e1461098057610407565b80634f6ccce7146108945780635744d0f5146108b4578063579938a3146108d55780635a6c18f51461090557610407565b8063430ca46f116102b1578063430ca46f1461082a5780634a878e5f1461083f5780634c0e123b1461085f5780634f20b23e1461087457610407565b80632fa3ce7d146107ac57806332cb6b0c146107cc5780633acd6cb2146107f557806342842e0e1461080a57610407565b80631865c57d1161035a5780632a55205a116103295780632a55205a1461071a5780632d20fb60146107595780632db11544146107795780632f745c591461078c57610407565b80631865c57d146105bf5780631a2dac6e146106c45780631db16f20146106da57806323b872dd146106fa57610407565b80630bee5eb9116103965780630bee5eb9146105005780630e1e0ef51461050057806317dbb5321461052757806318160ddd1461059c57610407565b806301ffc9a71461044f57806306fdde0314610484578063081812fc146104a6578063095ea7b3146104de57610407565b366104075760405162461bcd60e51b815260206004820152600b60248201526a139bdd08105b1b1bddd95960aa1b60448201526064015b60405180910390fd5b60405162461bcd60e51b815260206004820152601360248201527f43616c6c2056616c69642046756e6374696f6e0000000000000000000000000060448201526064016103fe565b34801561045b57600080fd5b5061046f61046a36600461540e565b610eab565b60405190151581526020015b60405180910390f35b34801561049057600080fd5b50610499610f33565b60405161047b91906157f0565b3480156104b257600080fd5b506104c66104c13660046155af565b610fc5565b6040516001600160a01b03909116815260200161047b565b3480156104ea57600080fd5b506104fe6104f93660046152b4565b611009565b005b34801561050c57600080fd5b50610515600a81565b60405160ff909116815260200161047b565b34801561053357600080fd5b506105746105423660046155e8565b600a60205260009081526040902080546001909101546001600160a01b0391821691811690600160a01b900460ff1683565b604080516001600160a01b03948516815293909216602084015215159082015260600161047b565b3480156105a857600080fd5b50600154600054035b60405190815260200161047b565b3480156105cb57600080fd5b5061066c6040805160c081018252600080825260208201819052918101829052606081018290526080810182905260a0810191909152506040805160c081018252600d5460ff8082161515835261010082048116151560208401526201000082048116151593830193909352630100000081048316151560608301526401000000008104831615156080830152600160281b9004909116151560a082015290565b60405161047b9190600060c08201905082511515825260208301511515602083015260408301511515604083015260608301511515606083015260808301511515608083015260a0830151151560a083015292915050565b3480156106d057600080fd5b506105b1600c5481565b3480156106e657600080fd5b506104fe6106f53660046154da565b6110b4565b34801561070657600080fd5b506104fe6107153660046151ca565b61134a565b34801561072657600080fd5b5061073a6107353660046155c7565b611355565b604080516001600160a01b03909316835260208301919091520161047b565b34801561076557600080fd5b506104fe6107743660046155af565b611390565b6104fe6107873660046155af565b61139c565b34801561079857600080fd5b506105b16107a73660046152b4565b6115cc565b3480156107b857600080fd5b506104fe6107c7366004615595565b61176b565b3480156107d857600080fd5b506107e2611e6181565b60405161ffff909116815260200161047b565b34801561080157600080fd5b506107e2600381565b34801561081657600080fd5b506104fe6108253660046151ca565b6119ed565b34801561083657600080fd5b506104fe611a08565b34801561084b57600080fd5b506104fe61085a366004615479565b611b4d565b34801561086b57600080fd5b506104fe611bed565b34801561088057600080fd5b506104fe61088f366004615351565b611d3e565b3480156108a057600080fd5b506105b16108af3660046155af565b611f96565b3480156108c057600080fd5b5060095461051590600160a01b900460ff1681565b3480156108e157600080fd5b5061046f6108f0366004615595565b60156020526000908152604090205460ff1681565b34801561091157600080fd5b5061046f610920366004615595565b60176020526000908152604090205460ff1681565b34801561094157600080fd5b506105b161025881565b34801561095757600080fd5b50610515600181565b34801561096c57600080fd5b506105b161097b3660046155e8565b612003565b34801561098c57600080fd5b506104c661099b3660046155af565b61212e565b6104fe6109ae366004615595565b612140565b3480156109bf57600080fd5b506105b16109ce366004615187565b61233d565b3480156109df57600080fd5b506104fe61238c565b3480156109f457600080fd5b506104fe6123f2565b348015610a0957600080fd5b50610a51610a183660046155af565b6004602052600090815260409020546001600160a01b03811690600160a01b810467ffffffffffffffff1690600160e01b900460ff1683565b604080516001600160a01b03909416845267ffffffffffffffff909216602084015215159082015260600161047b565b348015610a8d57600080fd5b506104fe610a9c366004615446565b6124ff565b348015610aad57600080fd5b506009546001600160a01b03166104c6565b348015610acb57600080fd5b506104fe610ada366004615187565b612625565b348015610aeb57600080fd5b506105b166f8b0a10e47000081565b348015610b0657600080fd5b506104996126e2565b348015610b1b57600080fd5b506104fe610b2a3660046155e8565b6126f1565b348015610b3b57600080fd5b506104fe610b4a366004615602565b6127cd565b348015610b5b57600080fd5b5061046f610b6a3660046152dd565b612976565b348015610b7b57600080fd5b506104fe612a9e565b348015610b9057600080fd5b506104fe610b9f366004615187565b612c06565b348015610bb057600080fd5b506104fe610bbf36600461527e565b612c88565b348015610bd057600080fd5b506105b16201518081565b348015610be757600080fd5b50610c3b60408051606081018252600080825260208201819052918101919091525060408051606081018252600e546001600160a01b039081168252600f5481166020830152601054169181019190915290565b6040805182516001600160a01b039081168252602080850151821690830152928201519092169082015260600161047b565b348015610c7957600080fd5b50610cca610c883660046155e8565b601860205260009081526040902080546001820154600283015460038401546004850154600586015460069096015460ff958616969495939492939192911687565b6040805160ff90981688526020880196909652948601939093526060850191909152608084015260a0830152151560c082015260e00161047b565b348015610d1157600080fd5b50610515600081565b348015610d2657600080fd5b506104fe610d35366004615205565b612d1e565b6104fe610d4836600461561d565b612d6f565b6104fe610d5b3660046155e8565b61305d565b348015610d6c57600080fd5b50610499610d7b3660046155af565b6133b7565b348015610d8c57600080fd5b506104fe610d9b3660046155af565b6134d0565b348015610dac57600080fd5b506104fe610dbb3660046155e8565b6135c1565b348015610dcc57600080fd5b506105b160085481565b6104fe613651565b348015610dea57600080fd5b5061046f610df93660046155af565b60196020526000908152604090205460ff1681565b348015610e1a57600080fd5b5061046f610e293660046151a1565b6001600160a01b03918216600090815260076020908152604080832093909416825291909152205460ff1690565b348015610e6357600080fd5b506105b17f000000000000000000000000000000000000000000000000000000000000000081565b348015610e9757600080fd5b506104fe610ea6366004615187565b61375d565b60006001600160e01b031982166380ac58cd60e01b1480610edc57506001600160e01b03198216635b5e139f60e01b145b80610ef757506001600160e01b0319821663780e9d6360e01b145b80610f1257506001600160e01b0319821663152a902d60e11b145b80610f2d57506301ffc9a760e01b6001600160e01b03198316145b92915050565b606060028054610f42906158b6565b80601f0160208091040260200160405190810160405280929190818152602001828054610f6e906158b6565b8015610fbb5780601f10610f9057610100808354040283529160200191610fbb565b820191906000526020600020905b815481529060010190602001808311610f9e57829003601f168201915b5050505050905090565b6000610fd082613825565b610fed576040516333d1c03960e21b815260040160405180910390fd5b506000908152600660205260409020546001600160a01b031690565b60006110148261212e565b9050806001600160a01b0316836001600160a01b031614156110495760405163250fdee360e21b815260040160405180910390fd5b336001600160a01b0382161480159061108657506001600160a01b038116600090815260076020908152604080832033845290915290205460ff16155b156110a4576040516367d9dca160e11b815260040160405180910390fd5b6110af838383613850565b505050565b600d54600160281b900460ff166110fc5760405162461bcd60e51b815260206004820152600c60248201526b139bdd08119a5b9a5cda195960a21b60448201526064016103fe565b600d5460ff166111405760405162461bcd60e51b815260206004820152600f60248201526e139bdd08125b9a5d1a585b1a5e9959608a1b60448201526064016103fe565b6000808052600a6020526000805160206159c1833981519152546001600160a01b0316331461119f5760405162461bcd60e51b815260206004820152601860248201526000805160206159a183398151915260448201526064016103fe565b61ffff8316600090815260176020526040902054839060ff16156111f35760405162461bcd60e51b815260206004820152600b60248201526a4f6e6c792048756d616e7360a81b60448201526064016103fe565b8451806112315760405162461bcd60e51b815260206004820152600c60248201526b43494420697320656d70747960a01b60448201526064016103fe565b61ffff851660009081526019602052604090205460ff166112945760405162461bcd60e51b815260206004820152601c60248201527f55706772616465205265717565737420466565204e6f7420506169640000000060448201526064016103fe565b61ffff85166000908152601960209081526040808320805460ff191690556016825290912087516112c792890190614fd2565b5061ffff85166000908152601560205260409020805460ff19166001179055831561130b5761ffff85166000908152601760205260409020805460ff191660011790555b60405161ffff861681527f02375e2ab6ce816f82cbad1e57b14c842f3079a43885dcdfbdbebec69baee0c29060200160405180910390a1505050505050565b6110af8383836138ac565b6014546001600160a01b0381169060009060649061137d90600160a01b900460ff1685615854565b6113879190615840565b90509250929050565b61139981613adf565b50565b600d546301000000900460ff166113e55760405162461bcd60e51b815260206004820152600d60248201526c139bdd081058dd1a5d985d1959609a1b60448201526064016103fe565b611e61816113f260005490565b6113fc9190615803565b11156114425760405162461bcd60e51b81526020600482015260156024820152745265636569766520546f204d617820537570706c7960581b60448201526064016103fe565b60038161144e33613cc4565b6114589190615803565b11156114a65760405162461bcd60e51b815260206004820152601f60248201527f5265636569766520546f204d6178204d696e742050657220416464726573730060448201526064016103fe565b346114b866f8b0a10e47000083615854565b11156114fa5760405162461bcd60e51b81526020600482015260116024820152702737ba1022b737bab3b4399022ba3432b960791b60448201526064016103fe565b6115043382613d1f565b600e54604051634d4ffdef60e11b81523460048201526000916001600160a01b031690639a9ffbde906024015b602060405180830381600087803b15801561154b57600080fd5b505af115801561155f573d6000803e3d6000fd5b505050506040513d601f19601f8201168201806040525081019061158391906153f2565b9050806115c85760405162461bcd60e51b8152602060048201526013602482015272195d1a081d1c985b9cd9995c8819985a5b1959606a1b60448201526064016103fe565b5050565b60006115d78361233d565b82106116305760405162461bcd60e51b815260206004820152602260248201527f455243373231413a206f776e657220696e646578206f7574206f6620626f756e604482015261647360f01b60648201526084016103fe565b600061163f6001546000540390565b905060008060005b838110156116fc57600081815260046020908152604091829020825160608101845290546001600160a01b038116808352600160a01b820467ffffffffffffffff1693830193909352600160e01b900460ff16151592810192909252156116ad57805192505b876001600160a01b0316836001600160a01b031614156116e957868414156116db57509350610f2d92505050565b836116e5816158eb565b9450505b50806116f4816158eb565b915050611647565b5060405162461bcd60e51b815260206004820152602e60248201527f455243373231413a20756e61626c6520746f2067657420746f6b656e206f662060448201527f6f776e657220627920696e64657800000000000000000000000000000000000060648201526084016103fe565b61ffff8116600090815260176020526040902054819060ff16156117bf5760405162461bcd60e51b815260206004820152600b60248201526a4f6e6c792048756d616e7360a81b60448201526064016103fe565b6002600b5414156118125760405162461bcd60e51b815260206004820152601f60248201527f5265656e7472616e637947756172643a207265656e7472616e742063616c6c0060448201526064016103fe565b6002600b55600d5460ff1661185b5760405162461bcd60e51b815260206004820152600f60248201526e139bdd08125b9a5d1a585b1a5e9959608a1b60448201526064016103fe565b6118688261ffff16613825565b6118a75760405162461bcd60e51b815260206004820152601060248201526f546f6b656e204e6f742045786973747360801b60448201526064016103fe565b60006118b68361ffff16613d39565b80519091506001600160a01b031633146119015760405162461bcd60e51b815260206004820152600c60248201526b24b9902737ba1027bbb732b960a11b60448201526064016103fe565b61190e8361ffff16613e55565b600e548151604051635b33720360e11b81526001600160a01b039182166004820152600092919091169063b666e40690602401602060405180830381600087803b15801561195b57600080fd5b505af115801561196f573d6000803e3d6000fd5b505050506040513d601f19601f8201168201806040525081019061199391906153f2565b9050806119e25760405162461bcd60e51b815260206004820152600e60248201527f6275796261636b206661696c656400000000000000000000000000000000000060448201526064016103fe565b50506001600b555050565b6110af83838360405180602001604052806000815250612d1e565b6000808052600a6020526000805160206159c1833981519152546001600160a01b03163314611a675760405162461bcd60e51b815260206004820152601860248201526000805160206159a183398151915260448201526064016103fe565b600d54600160281b900460ff1615611ab45760405162461bcd60e51b815260206004820152601060248201526f105b1c9958591e48119a5b9a5cda195960821b60448201526064016103fe565b600d5460ff16611af85760405162461bcd60e51b815260206004820152600f60248201526e139bdd08125b9a5d1a585b1a5e9959608a1b60448201526064016103fe565b600d54610100900460ff16611b3f5760405162461bcd60e51b815260206004820152600d60248201526c139bdd081058dd1a5d985d1959609a1b60448201526064016103fe565b50600d805461ff0019169055565b6000808052600a6020526000805160206159c1833981519152546001600160a01b03163314611bac5760405162461bcd60e51b815260206004820152601860248201526000805160206159a183398151915260448201526064016103fe565b82518015611bc9578351611bc7906011906020870190614fd2565b505b82518015611be6578351611be4906013906020870190614fd2565b505b5050505050565b6000808052600a6020526000805160206159c1833981519152546001600160a01b03163314611c4c5760405162461bcd60e51b815260206004820152601860248201526000805160206159a183398151915260448201526064016103fe565b600d5460ff16611c905760405162461bcd60e51b815260206004820152600f60248201526e139bdd08125b9a5d1a585b1a5e9959608a1b60448201526064016103fe565b600d54600160281b900460ff1615611cdd5760405162461bcd60e51b815260206004820152601060248201526f105b1c9958591e48119a5b9a5cda195960821b60448201526064016103fe565b600d5462010000900460ff1615611d2a5760405162461bcd60e51b8152602060048201526011602482015270105b1c9958591e481058dd1a5d985d1959607a1b60448201526064016103fe565b50600d805462ff0000191662010000179055565b6000808052600a6020526000805160206159c1833981519152546001600160a01b03163314611d9d5760405162461bcd60e51b815260206004820152601860248201526000805160206159a183398151915260448201526064016103fe565b600d5460ff1615611df05760405162461bcd60e51b815260206004820152601360248201527f416c726561647920496e697469616c697a65640000000000000000000000000060448201526064016103fe565b600d54600160281b900460ff1615611e3d5760405162461bcd60e51b815260206004820152601060248201526f105b1c9958591e48119a5b9a5cda195960821b60448201526064016103fe565b600d54610100900460ff1615611e895760405162461bcd60e51b8152602060048201526011602482015270105b1c9958591e481058dd1a5d985d1959607a1b60448201526064016103fe565b600d805460ff1916600117905560408051602080880282018101909252868152611eef9188908890819060009085015b82821015611ee557611ed66060830286013681900381019061553a565b81526020019060010190611eb9565b5050505050613ff4565b600d805461010061ff0019909116179055604080516060810182526001600160a01b038681168083528582166020808501829052928816938501849052600e80546001600160a01b03199081169093179055600f80548316909117905560108054909116831790558251808401909352818352600a9201919091526014805474ffffffffffffffffffffffffffffffffffffffffff1916909117600560a11b179055611be4565b6000611fa56001546000540390565b8210611fff5760405162461bcd60e51b815260206004820152602360248201527f455243373231413a20676c6f62616c20696e646578206f7574206f6620626f756044820152626e647360e81b60648201526084016103fe565b5090565b600d54600090610100900460ff1661204d5760405162461bcd60e51b815260206004820152600d60248201526c139bdd081058dd1a5d985d1959609a1b60448201526064016103fe565b8160ff166001111580156120655750600a60ff831611155b6120b15760405162461bcd60e51b815260206004820152601360248201527f646179206973206f7574206f662072616e67650000000000000000000000000060448201526064016103fe565b60ff808316600090815260186020908152604091829020825160e0810184528154851681526001820154928101929092526002810154928201929092526003820154606082015260048201546080820152600582015460a0820152600690910154909116151560c0820152612125816143d4565b9150505b919050565b600061213982613d39565b5192915050565b600d54600160281b900460ff166121885760405162461bcd60e51b815260206004820152600c60248201526b139bdd08119a5b9a5cda195960a21b60448201526064016103fe565b600d5460ff166121cc5760405162461bcd60e51b815260206004820152600f60248201526e139bdd08125b9a5d1a585b1a5e9959608a1b60448201526064016103fe565b61ffff8116600090815260176020526040902054819060ff16156122205760405162461bcd60e51b815260206004820152600b60248201526a4f6e6c792048756d616e7360a81b60448201526064016103fe565b61222d8261ffff16613825565b61226c5760405162461bcd60e51b815260206004820152601060248201526f546f6b656e204e6f742045786973747360801b60448201526064016103fe565b34600c5411156122b25760405162461bcd60e51b81526020600482015260116024820152702737ba1022b737bab3b4399022ba3432b960791b60448201526064016103fe565b61ffff821660009081526019602090815260408220805460ff19166001179055908052600a90526000805160206159c1833981519152546001600160a01b03166122fc813461448a565b6040805161ffff851681523460208201527f0154c2dfb98437384198b52913095489510f87da0fcc18a7a76717706e1d0085910160405180910390a1505050565b60006001600160a01b038216612366576040516323d3ad8160e21b815260040160405180910390fd5b506001600160a01b031660009081526005602052604090205467ffffffffffffffff1690565b6009546001600160a01b031633146123e65760405162461bcd60e51b815260206004820181905260248201527f4f776e61626c653a2063616c6c6572206973206e6f7420746865206f776e657260448201526064016103fe565b6123f0600061452d565b565b6000808052600a6020526000805160206159c1833981519152546001600160a01b031633146124515760405162461bcd60e51b815260206004820152601860248201526000805160206159a183398151915260448201526064016103fe565b600d54600160281b900460ff161561249e5760405162461bcd60e51b815260206004820152601060248201526f105b1c9958591e48119a5b9a5cda195960821b60448201526064016103fe565b600d546301000000900460ff166124e75760405162461bcd60e51b815260206004820152600d60248201526c139bdd081058dd1a5d985d1959609a1b60448201526064016103fe565b50600d805465ff00ffffff001916600160281b179055565b6000808052600a6020526000805160206159c1833981519152546001600160a01b0316331461255e5760405162461bcd60e51b815260206004820152601860248201526000805160206159a183398151915260448201526064016103fe565b600d54640100000000900460ff16156125b95760405162461bcd60e51b815260206004820152601060248201527f416c72656164792052657665616c65640000000000000000000000000000000060448201526064016103fe565b8151806125f75760405162461bcd60e51b815260206004820152600c60248201526b43494420497320456d70747960a01b60448201526064016103fe565b825161260a906013906020860190614fd2565b5050600d805464ff0000000019166401000000001790555050565b6000808052600a6020526000805160206159c1833981519152546001600160a01b031633146126845760405162461bcd60e51b815260206004820152601860248201526000805160206159a183398151915260448201526064016103fe565b601080546001600160a01b0319166001600160a01b03841690811790915560408051808201909152818152600a6020909101526014805474ffffffffffffffffffffffffffffffffffffffffff1916909117600560a11b1790555050565b606060038054610f42906158b6565b60ff81166000908152600a60205260409020600101546001600160a01b0316331461275e5760405162461bcd60e51b815260206004820152601660248201527f63616c6c6572206973206e6f742070726f706f7365640000000000000000000060448201526064016103fe565b60ff81166000818152600a602052604080822080546001820180546001600160a01b038082166001600160a01b03198086168217909655949091169091559251921693909284927f75d4894fae1c15d56c47e57d8fd94120a15786f520ddf423b53d7bee9324ee4b9190a45050565b60ff82166000908152600a602052604090205482906001600160a01b031633146128275760405162461bcd60e51b815260206004820152601860248201526000805160206159a183398151915260448201526064016103fe565b6001600160a01b03821661287d5760405162461bcd60e51b815260206004820152601b60248201527f70726f706f7365642061646472657373206973206e6f7420736574000000000060448201526064016103fe565b60ff83166000908152600a60205260409020546001600160a01b03838116911614156129115760405162461bcd60e51b815260206004820152603660248201527f70726f706f7365642061646472657373206973206e6f7420646966666572656e60448201527f742066726f6d2063757272656e7420616464726573730000000000000000000060648201526084016103fe565b60ff83166000818152600a60205260408082206001810180546001600160a01b0319166001600160a01b038881169182179092559154925191949216927fec584e355ff3c59e7a9d34bfb18dec6a0db876a29b47afa136b8acbed3b62d2491a4505050565b600d5460009060ff166129bd5760405162461bcd60e51b815260206004820152600f60248201526e139bdd08125b9a5d1a585b1a5e9959608a1b60448201526064016103fe565b6000612a378787876040516020016129d793929190615701565b60408051601f1981840301815282825280516020918201207f19457468657265756d205369676e6564204d6573736167653a0a33320000000084830152603c8085019190915282518085039091018152605c909301909152815191012090565b600f54604080516020601f88018190048102820181019092528681529293506001600160a01b0390911691612a8991849190889088908190840183828082843760009201919091525061457f92505050565b6001600160a01b031614979650505050505050565b6000808052600a6020526000805160206159c1833981519152546001600160a01b03163314612afd5760405162461bcd60e51b815260206004820152601860248201526000805160206159a183398151915260448201526064016103fe565b600d54600160281b900460ff1615612b4a5760405162461bcd60e51b815260206004820152601060248201526f105b1c9958591e48119a5b9a5cda195960821b60448201526064016103fe565b600d546301000000900460ff1615612b985760405162461bcd60e51b8152602060048201526011602482015270105b1c9958591e481058dd1a5d985d1959607a1b60448201526064016103fe565b600d5462010000900460ff16612bf05760405162461bcd60e51b815260206004820152600e60248201527f5072696f7269747920497373756500000000000000000000000000000000000060448201526064016103fe565b50600d805463ff00000019166301000000179055565b6000808052600a6020526000805160206159c1833981519152546001600160a01b03163314612c655760405162461bcd60e51b815260206004820152601860248201526000805160206159a183398151915260448201526064016103fe565b50600e80546001600160a01b0319166001600160a01b0392909216919091179055565b6001600160a01b038216331415612cb25760405163b06307db60e01b815260040160405180910390fd5b3360008181526007602090815260408083206001600160a01b03871680855290835292819020805460ff191686151590811790915590519081529192917f17307eab39ab6107e8899845ad3d59bd9653f200f220920489ca2b5937696c31910160405180910390a35050565b612d298484846138ac565b6001600160a01b0383163b15158015612d4b5750612d49848484846145a3565b155b15612d69576040516368d2bf6b60e11b815260040160405180910390fd5b50505050565b600d5462010000900460ff16612db75760405162461bcd60e51b815260206004820152600d60248201526c139bdd081058dd1a5d985d1959609a1b60448201526064016103fe565b612dc43386858585612976565b612e005760405162461bcd60e51b815260206004820152600d60248201526c426164205369676e617475726560981b60448201526064016103fe565b611e6160ff8516612e1060005490565b612e1a9190615803565b1115612e605760405162461bcd60e51b81526020600482015260156024820152745265636569766520546f204d617820537570706c7960581b60448201526064016103fe565b6000612e6b3361469a565b905060ff8616612e7b868361581b565b60ff161115612ecc5760405162461bcd60e51b815260206004820152601760248201527f5265636569766520546f204d6178205175616e7469747900000000000000000060448201526064016103fe565b6001846001811115612eee57634e487b7160e01b600052602160045260246000fd5b1415612f1957612f0733612f02878461581b565b6146e9565b612f14338660ff16613d1f565b612f8b565b34612f2e66f8b0a10e47000060ff8816615854565b1115612f705760405162461bcd60e51b81526020600482015260116024820152702737ba1022b737bab3b4399022ba3432b960791b60448201526064016103fe565b612f7e33612f02878461581b565b612f8b338660ff16613d1f565b3415611be457600e54604051634d4ffdef60e11b81523460048201526000916001600160a01b031690639a9ffbde90602401602060405180830381600087803b158015612fd757600080fd5b505af1158015612feb573d6000803e3d6000fd5b505050506040513d601f19601f8201168201806040525081019061300f91906153f2565b9050806130545760405162461bcd60e51b8152602060048201526013602482015272195d1a081d1c985b9cd9995c8819985a5b1959606a1b60448201526064016103fe565b50505050505050565b600d54610100900460ff166130a45760405162461bcd60e51b815260206004820152600d60248201526c139bdd081058dd1a5d985d1959609a1b60448201526064016103fe565b8060ff166001111580156130bc5750600a60ff821611155b6131085760405162461bcd60e51b815260206004820152601360248201527f446179204973204f7574204f662052616e67650000000000000000000000000060448201526064016103fe565b60ff811660009081526018602052604090206001015442101561316d5760405162461bcd60e51b815260206004820152600f60248201527f4e6f74205374617274656420596574000000000000000000000000000000000060448201526064016103fe565b60ff81166000908152601860205260409020600201544211156131bc5760405162461bcd60e51b8152602060048201526007602482015266115e1c1a5c995960ca1b60448201526064016103fe565b60ff8082166000908152601860209081526040808320815160e081018352815486168082526001830154948201949094526002820154928101929092526003810154606083015260048101546080830152600581015460a083015260060154909316151560c084015261322e90613d39565b60016000908152600a6020527fbbc70db1b6c7afd11e79c0fb0051300458f1a3acb8ee9789d9b6b26c61ad9bc7549192506001600160a01b0390911690613274846143d4565b9050816001600160a01b031683600001516001600160a01b0316146132d05760405162461bcd60e51b81526020600482015260126024820152712130b21024b734ba34b0b634bd30ba34b7b760711b60448201526064016103fe565b80846080015111156133245760405162461bcd60e51b815260206004820152601560248201527f5265636569766520546f2042617365205072696365000000000000000000000060448201526064016103fe565b348111156133745760405162461bcd60e51b815260206004820152601060248201527f4e6f7420456e6f7567682045746865720000000000000000000000000000000060448201526064016103fe565b6133868233866000015160ff16614747565b613390823461448a565b50505060ff9091166000908152601860205260409020600601805460ff1916600117905550565b60606133c282613825565b6134015760405162461bcd60e51b815260206004820152601060248201526f546f6b656e204e6f742045786973747360801b60448201526064016103fe565b61ffff8216600090815260156020526040902054829060ff161561345a5761ffff81166000908152601660209081526040918290209151613443929101615776565b604051602081830303815290604052915050919050565b61ffff811660009081526017602052604090205460ff161561349657601161348561ffff83166148cd565b604051602001613443929190615782565b600d54640100000000900460ff16156134b857601361348561ffff83166148cd565b60405161344390601290602001615776565b50919050565b6000808052600a6020526000805160206159c1833981519152546001600160a01b0316331461352f5760405162461bcd60e51b815260206004820152601860248201526000805160206159a183398151915260448201526064016103fe565b600d54600160281b900460ff166135775760405162461bcd60e51b815260206004820152600c60248201526b139bdd08119a5b9a5cda195960a21b60448201526064016103fe565b600d5460ff166135bb5760405162461bcd60e51b815260206004820152600f60248201526e139bdd08125b9a5d1a585b1a5e9959608a1b60448201526064016103fe565b50600c55565b60ff81166000908152600a602052604090205481906001600160a01b0316331461361b5760405162461bcd60e51b815260206004820152601860248201526000805160206159a183398151915260448201526064016103fe565b5060ff166000908152600a6020526040902080546001600160a01b0319168155600101805460ff60a01b1916600160a01b179055565b600d54600160281b900460ff166136995760405162461bcd60e51b815260206004820152600c60248201526b139bdd08119a5b9a5cda195960a21b60448201526064016103fe565b600d5460ff166136dd5760405162461bcd60e51b815260206004820152600f60248201526e139bdd08125b9a5d1a585b1a5e9959608a1b60448201526064016103fe565b478061372b5760405162461bcd60e51b815260206004820152601860248201527f436f6e74726163742042616c616e6365206973205a65726f000000000000000060448201526064016103fe565b600e5460405163f5c79d3d60e01b8152600481018390526000916001600160a01b03169063f5c79d3d90602401611531565b6009546001600160a01b031633146137b75760405162461bcd60e51b815260206004820181905260248201527f4f776e61626c653a2063616c6c6572206973206e6f7420746865206f776e657260448201526064016103fe565b6001600160a01b03811661381c5760405162461bcd60e51b815260206004820152602660248201527f4f776e61626c653a206e6577206f776e657220697320746865207a65726f206160448201526564647265737360d01b60648201526084016103fe565b6113998161452d565b6000805482108015610f2d575050600090815260046020526040902054600160e01b900460ff161590565b60008281526006602052604080822080546001600160a01b0319166001600160a01b0387811691821790925591518593918516917f8c5be1e5ebec7d5bd14f71427d1e84f3dd0314c0f7b2291e5b200ac8c7c3b92591a4505050565b60006138b782613d39565b9050600081600001516001600160a01b0316336001600160a01b03161480613903575081516001600160a01b0316600090815260076020908152604080832033845290915290205460ff165b8061391e57503361391384610fc5565b6001600160a01b0316145b90508061393e57604051632ce44b5f60e11b815260040160405180910390fd5b846001600160a01b031682600001516001600160a01b0316146139735760405162a1148160e81b815260040160405180910390fd5b6001600160a01b03841661399a57604051633a954ecd60e21b815260040160405180910390fd5b6139aa6000848460000151613850565b6001600160a01b038581166000908152600560209081526040808320805467ffffffffffffffff1980821667ffffffffffffffff92831660001901831617909255898616808652838620805493841693831660019081018416949094179055898652600490945282852080546001600160e01b031916909417600160a01b429092169190910217909255908601808352912054909116613a9657600054811015613a96578251600082815260046020908152604090912080549186015167ffffffffffffffff16600160a01b026001600160e01b03199092166001600160a01b03909316929092171790555b5082846001600160a01b0316866001600160a01b03167fddf252ad1be2c89b69c2b068fc378daa952ba7f163c4a11628f55a4df523b3ef60405160405180910390a45050505050565b60085481613b2f5760405162461bcd60e51b815260206004820152601860248201527f7175616e74697479206d757374206265206e6f6e7a65726f000000000000000060448201526064016103fe565b60006001613b3d8484615803565b613b479190615873565b90506001613b5460005490565b613b5e9190615873565b811115613b7d576001613b7060005490565b613b7a9190615873565b90505b613b8681613825565b613be15760405162461bcd60e51b815260206004820152602660248201527f6e6f7420656e6f756768206d696e7465642079657420666f722074686973206360448201526506c65616e75760d41b60648201526084016103fe565b815b818111613cb0576000818152600460205260409020546001600160a01b0316613c9e576000613c1182613d39565b6040805160608101825282516001600160a01b03908116825260208085015167ffffffffffffffff908116828501908152958501511515848601908152600089815260049093529490912092518354955194511515600160e01b0260ff60e01b1995909216600160a01b026001600160e01b03199096169216919091179390931791909116919091179055505b80613ca8816158eb565b915050613be3565b50613cbc816001615803565b600855505050565b60006001600160a01b038216613ced576040516335ebb31960e01b815260040160405180910390fd5b506001600160a01b031660009081526005602052604090205468010000000000000000900467ffffffffffffffff1690565b6115c88282604051806020016040528060008152506149ff565b604080516060810182526000808252602082018190529181019190915281600054811015613e3c57600081815260046020908152604091829020825160608101845290546001600160a01b0381168252600160a01b810467ffffffffffffffff1692820192909252600160e01b90910460ff16151591810182905290613e3a5780516001600160a01b031615613dd0579392505050565b5060001901600081815260046020908152604091829020825160608101845290546001600160a01b038116808352600160a01b820467ffffffffffffffff1693830193909352600160e01b900460ff1615159281019290925215613e35579392505050565b613dd0565b505b604051636f96cda160e11b815260040160405180910390fd5b6000613e6082613d39565b9050613e726000838360000151613850565b80516001600160a01b039081166000908152600560209081526040808320805467ffffffffffffffff19811667ffffffffffffffff9182166000190182161790915585518516845281842080547fffffffffffffffff0000000000000000ffffffffffffffffffffffffffffffff81167001000000000000000000000000000000009182900484166001908101851690920217909155865188865260049094528285208054600160e01b9588166001600160e01b031990911617600160a01b42909416939093029290921760ff60e01b1916939093179055908501808352912054909116613fac57600054811015613fac578151600082815260046020908152604090912080549185015167ffffffffffffffff16600160a01b026001600160e01b03199092166001600160a01b03909316929092171790555b50805160405183916000916001600160a01b03909116907fddf252ad1be2c89b69c2b068fc378daa952ba7f163c4a11628f55a4df523b3ef908390a450506001805481019055565b611e61600a61400260005490565b61400c9190615803565b11156140525760405162461bcd60e51b81526020600482015260156024820152745265636569766520546f204d617820537570706c7960581b60448201526064016103fe565b8051600a146140a35760405162461bcd60e51b815260206004820152601260248201527f42616420436f6e66696773204c656e677468000000000000000000000000000060448201526064016103fe565b6001600052600a60208190527fbbc70db1b6c7afd11e79c0fb0051300458f1a3acb8ee9789d9b6b26c61ad9bc7546001600160a01b0316906140e6908290613d1f565b600a6140f160005490565b146141335760405162461bcd60e51b81526020600482015260126024820152712130b21024b734ba34b0b634bd30ba34b7b760711b60448201526064016103fe565b60005b600a60ff821610156110af57828160ff168151811061416557634e487b7160e01b600052603260045260246000fd5b602002602001015160200151838260ff168151811061419457634e487b7160e01b600052603260045260246000fd5b602002602001015160000151116141db5760405162461bcd60e51b815260206004820152600b60248201526a42616420436f6e6669677360a81b60448201526064016103fe565b60006040518060e001604052808360ff1681526020018360ff16620151806142039190615854565b61422d907f0000000000000000000000000000000000000000000000000000000000000000615803565b815260200161423d84600161581b565b61424d9060ff1662015180615854565b614277907f0000000000000000000000000000000000000000000000000000000000000000615803565b8152602001858460ff168151811061429f57634e487b7160e01b600052603260045260246000fd5b6020026020010151600001518152602001858460ff16815181106142d357634e487b7160e01b600052603260045260246000fd5b6020026020010151602001518152602001858460ff168151811061430757634e487b7160e01b600052603260045260246000fd5b60200260200101516040015181526020016000151581525090508060186000846001614333919061581b565b60ff9081168252602080830193909352604091820160009081208551815490841660ff1991821617825586860151600180840191909155878601516002840155606088015160038401556080880151600484015560a0880151600584015560c09097015160069092018054921515928216929092179091559187168152601790935291208054909116909117905550806143cc81615906565b915050614136565b60008160c00151156144175760405162461bcd60e51b815260206004820152600c60248201526b105b1c9958591e4814dbdb1960a21b60448201526064016103fe565b816020015142101561442b57506060015190565b816040015142111561443f57506080015190565b60008260200151426144519190615873565b9050600061446161025883615840565b90508360a00151816144739190615854565b84606001516144829190615873565b949350505050565b60405182906000906001600160a01b0383169084908381818185875af1925050503d80600081146144d7576040519150601f19603f3d011682016040523d82523d6000602084013e6144dc565b606091505b5050905080612d695760405162461bcd60e51b815260206004820152600f60248201527f5472616e73666572204661696c6564000000000000000000000000000000000060448201526064016103fe565b600980546001600160a01b038381166001600160a01b0319831681179093556040519116919082907f8be0079c531659141344cd1fd0a4f28419497f9722a3daafe3b4186f6b6457e090600090a35050565b600080600061458e8585614a0c565b9150915061459b81614a7c565b509392505050565b604051630a85bd0160e11b81526000906001600160a01b0385169063150b7a02906145d89033908990889088906004016157b4565b602060405180830381600087803b1580156145f257600080fd5b505af1925050508015614622575060408051601f3d908101601f1916820190925261461f9181019061542a565b60015b61467d573d808015614650576040519150601f19603f3d011682016040523d82523d6000602084013e614655565b606091505b508051614675576040516368d2bf6b60e11b815260040160405180910390fd5b805181602001fd5b6001600160e01b031916630a85bd0160e11b149050949350505050565b60006001600160a01b0382166146c35760405163561b93dd60e11b815260040160405180910390fd5b506001600160a01b0316600090815260056020526040902054600160c01b900460ff1690565b6001600160a01b0382166147105760405163561b93dd60e11b815260040160405180910390fd5b6001600160a01b039091166000908152600560205260409020805460ff909216600160c01b0260ff60c01b19909216919091179055565b600061475282613d39565b9050836001600160a01b031681600001516001600160a01b0316146147895760405162a1148160e81b815260040160405180910390fd5b6147996000838360000151613850565b6001600160a01b038481166000908152600560209081526040808320805467ffffffffffffffff1980821667ffffffffffffffff92831660001901831617909255888616808652838620805493841693831660019081018416949094179055888652600490945282852080546001600160e01b031916909417600160a01b42909216919091021790925590850180835291205490911661488557600054811015614885578151600082815260046020908152604090912080549185015167ffffffffffffffff16600160a01b026001600160e01b03199092166001600160a01b03909316929092171790555b5081836001600160a01b0316856001600160a01b03167fddf252ad1be2c89b69c2b068fc378daa952ba7f163c4a11628f55a4df523b3ef60405160405180910390a450505050565b6060816148f15750506040805180820190915260018152600360fc1b602082015290565b8160005b811561491b5780614905816158eb565b91506149149050600a83615840565b91506148f5565b60008167ffffffffffffffff81111561494457634e487b7160e01b600052604160045260246000fd5b6040519080825280601f01601f19166020018201604052801561496e576020820181803683370190505b5090505b841561448257614983600183615873565b9150614990600a86615926565b61499b906030615803565b60f81b8183815181106149be57634e487b7160e01b600052603260045260246000fd5b60200101907effffffffffffffffffffffffffffffffffffffffffffffffffffffffffffff1916908160001a9053506149f8600a86615840565b9450614972565b6110af8383836001614c7d565b600080825160411415614a435760208301516040840151606085015160001a614a3787828585614e93565b94509450505050614a75565b825160401415614a6d5760208301516040840151614a62868383614f80565b935093505050614a75565b506000905060025b9250929050565b6000816004811115614a9e57634e487b7160e01b600052602160045260246000fd5b1415614aa75750565b6001816004811115614ac957634e487b7160e01b600052602160045260246000fd5b1415614b175760405162461bcd60e51b815260206004820152601860248201527f45434453413a20696e76616c6964207369676e6174757265000000000000000060448201526064016103fe565b6002816004811115614b3957634e487b7160e01b600052602160045260246000fd5b1415614b875760405162461bcd60e51b815260206004820152601f60248201527f45434453413a20696e76616c6964207369676e6174757265206c656e6774680060448201526064016103fe565b6003816004811115614ba957634e487b7160e01b600052602160045260246000fd5b1415614c025760405162461bcd60e51b815260206004820152602260248201527f45434453413a20696e76616c6964207369676e6174757265202773272076616c604482015261756560f01b60648201526084016103fe565b6004816004811115614c2457634e487b7160e01b600052602160045260246000fd5b14156113995760405162461bcd60e51b815260206004820152602260248201527f45434453413a20696e76616c6964207369676e6174757265202776272076616c604482015261756560f01b60648201526084016103fe565b6000546001600160a01b038516614ca657604051622e076360e81b815260040160405180910390fd5b83614cc45760405163b562e8dd60e01b815260040160405180910390fd5b6001600160a01b038516600081815260056020908152604080832080546fffffffffffffffffffffffffffffffff19811667ffffffffffffffff8083168c0181169182176801000000000000000067ffffffffffffffff1990941690921783900481168c01811690920217909155858452600490925290912080546001600160e01b031916909217600160a01b429092169190910217905580808501838015614d7657506001600160a01b0387163b15155b15614e42575b60405182906001600160a01b038916906000907fddf252ad1be2c89b69c2b068fc378daa952ba7f163c4a11628f55a4df523b3ef908290a4614dc760008884806001019550886145a3565b614de4576040516368d2bf6b60e11b815260040160405180910390fd5b80821415614d7c578260005414614e3d5760405162461bcd60e51b815260206004820152601560248201527f5265656e7472616e63792070726f74656374696f6e000000000000000000000060448201526064016103fe565b614e88565b5b6040516001830192906001600160a01b038916906000907fddf252ad1be2c89b69c2b068fc378daa952ba7f163c4a11628f55a4df523b3ef908290a480821415614e43575b506000555050505050565b6000807f7fffffffffffffffffffffffffffffff5d576e7357a4501ddfe92f46681b20a0831115614eca5750600090506003614f77565b8460ff16601b14158015614ee257508460ff16601c14155b15614ef35750600090506004614f77565b6040805160008082526020820180845289905260ff881692820192909252606081018690526080810185905260019060a0016020604051602081039080840390855afa158015614f47573d6000803e3d6000fd5b5050604051601f1901519150506001600160a01b038116614f7057600060019250925050614f77565b9150600090505b94509492505050565b6000807f7fffffffffffffffffffffffffffffffffffffffffffffffffffffffffffffff831681614fb660ff86901c601b615803565b9050614fc487828885614e93565b935093505050935093915050565b828054614fde906158b6565b90600052602060002090601f0160209004810192826150005760008555615046565b82601f1061501957805160ff1916838001178555615046565b82800160010185558215615046579182015b8281111561504657825182559160200191906001019061502b565b50611fff9291505b80821115611fff576000815560010161504e565b600067ffffffffffffffff8084111561507d5761507d615966565b604051601f8501601f19908116603f011681019082821181831017156150a5576150a5615966565b816040528093508581528686860111156150be57600080fd5b858560208301376000602087830101525050509392505050565b80356001600160a01b038116811461212957600080fd5b60008083601f840112615100578182fd5b50813567ffffffffffffffff811115615117578182fd5b602083019150836020828501011115614a7557600080fd5b80356002811061212957600080fd5b600082601f83011261514e578081fd5b61515d83833560208501615062565b9392505050565b803561ffff8116811461212957600080fd5b803560ff8116811461212957600080fd5b600060208284031215615198578081fd5b61515d826150d8565b600080604083850312156151b3578081fd5b6151bc836150d8565b9150611387602084016150d8565b6000806000606084860312156151de578081fd5b6151e7846150d8565b92506151f5602085016150d8565b9150604084013590509250925092565b6000806000806080858703121561521a578081fd5b615223856150d8565b9350615231602086016150d8565b925060408501359150606085013567ffffffffffffffff811115615253578182fd5b8501601f81018713615263578182fd5b61527287823560208401615062565b91505092959194509250565b60008060408385031215615290578182fd5b615299836150d8565b915060208301356152a98161597c565b809150509250929050565b600080604083850312156152c6578182fd5b6152cf836150d8565b946020939093013593505050565b6000806000806000608086880312156152f4578081fd5b6152fd866150d8565b945061530b60208701615176565b93506153196040870161512f565b9250606086013567ffffffffffffffff811115615334578182fd5b615340888289016150ef565b969995985093965092949392505050565b600080600080600060808688031215615368578283fd5b853567ffffffffffffffff8082111561537f578485fd5b818801915088601f830112615392578485fd5b8135818111156153a0578586fd5b8960206060830285010111156153b4578586fd5b6020928301975095506153ca91880190506150d8565b92506153d8604087016150d8565b91506153e6606087016150d8565b90509295509295909350565b600060208284031215615403578081fd5b815161515d8161597c565b60006020828403121561541f578081fd5b813561515d8161598a565b60006020828403121561543b578081fd5b815161515d8161598a565b600060208284031215615457578081fd5b813567ffffffffffffffff81111561546d578182fd5b6144828482850161513e565b6000806040838503121561548b578182fd5b823567ffffffffffffffff808211156154a2578384fd5b6154ae8683870161513e565b935060208501359150808211156154c3578283fd5b506154d08582860161513e565b9150509250929050565b6000806000606084860312156154ee578081fd5b833567ffffffffffffffff811115615504578182fd5b6155108682870161513e565b93505061551f60208501615164565b9150604084013561552f8161597c565b809150509250925092565b60006060828403121561554b578081fd5b6040516060810181811067ffffffffffffffff8211171561556e5761556e615966565b80604052508235815260208301356020820152604083013560408201528091505092915050565b6000602082840312156155a6578081fd5b61515d82615164565b6000602082840312156155c0578081fd5b5035919050565b600080604083850312156155d9578182fd5b50508035926020909101359150565b6000602082840312156155f9578081fd5b61515d82615176565b60008060408385031215615614578182fd5b6151bc83615176565b600080600080600060808688031215615634578283fd5b6152fd86615176565b6000815180845261565581602086016020860161588a565b601f01601f19169290920160200192915050565b8054600090600181811c908083168061568357607f831692505b60208084108214156156a357634e487b7160e01b86526022600452602486fd5b8180156156b757600181146156c8576156f5565b60ff198616895284890196506156f5565b60008881526020902060005b868110156156ed5781548b8201529085019083016156d4565b505084890196505b50505050505092915050565b606084901b6bffffffffffffffffffffffff1916815260f883901b7fff0000000000000000000000000000000000000000000000000000000000000016601482015260006002831061576157634e487b7160e01b81526021600452602481fd5b5060f89190911b601582015260160192915050565b600061515d8284615669565b600061578e8285615669565b602f60f81b815283516157a881600184016020880161588a565b01600101949350505050565b60006001600160a01b038087168352808616602084015250836040830152608060608301526157e6608083018461563d565b9695505050505050565b60208152600061515d602083018461563d565b600082198211156158165761581661593a565b500190565b600060ff821660ff84168060ff038211156158385761583861593a565b019392505050565b60008261584f5761584f615950565b500490565b600081600019048311821515161561586e5761586e61593a565b500290565b6000828210156158855761588561593a565b500390565b60005b838110156158a557818101518382015260200161588d565b83811115612d695750506000910152565b600181811c908216806158ca57607f821691505b602082108114156134ca57634e487b7160e01b600052602260045260246000fd5b60006000198214156158ff576158ff61593a565b5060010190565b600060ff821660ff81141561591d5761591d61593a565b60010192915050565b60008261593557615935615950565b500690565b634e487b7160e01b600052601160045260246000fd5b634e487b7160e01b600052601260045260246000fd5b634e487b7160e01b600052604160045260246000fd5b801515811461139957600080fd5b6001600160e01b03198116811461139957600080fdfe63616c6c6572206973206e6f7420617574686f72697a6564000000000000000013da86008ba1c6922daee3e07db95305ef49ebced9f5467a0b8613fcc6b343e3a2646970667358221220dc01aff1b8a080db9ad7d6af815271decdb803b67e0711cf10644c4217ca61b364736f6c63430008040033",
  "linkReferences": {},
  "deployedLinkReferences": {}
}