{
  "_format": "hh-sol-artifact-1",
  "contractName": "NFT",
  "sourceName": "src/contracts/NFT.sol",
  "abi": [
    {
      "inputs": [
        {
          "internalType": "uint16",
          "name": "maxSupply_",
          "type": "uint16"
        },
        {
          "components": [
            {
              "internalType": "address",
              "name": "OWNER",
              "type": "address"
            },
            {
              "internalType": "address",
              "name": "PLATFORM",
              "type": "address"
            },
            {
              "internalType": "address",
              "name": "DECENTRAL_TITAN",
              "type": "address"
            },
            {
              "internalType": "address",
              "name": "BUY_BACK_TREASURY_CONTRACT",
              "type": "address"
            },
            {
              "internalType": "address",
              "name": "WHITE_LIST_VERIFIER",
              "type": "address"
            },
            {
              "internalType": "address",
              "name": "ROYALTY_DISTRIBUTOR_CONTRACT",
              "type": "address"
            }
          ],
          "internalType": "struct NFT.ContractAddresses",
          "name": "addresses_",
          "type": "tuple"
        },
        {
          "internalType": "string",
          "name": "godCID_",
          "type": "string"
        },
        {
          "internalType": "string",
          "name": "notRevealedArtCID_",
          "type": "string"
        },
        {
          "components": [
            {
              "internalType": "uint256",
              "name": "MINT_PRICE_IN_WEI",
              "type": "uint256"
            },
            {
              "internalType": "uint16",
              "name": "MAX_MINT_PER_ADDRESS",
              "type": "uint16"
            },
            {
              "internalType": "uint256",
              "name": "AUCTION_START_TIME",
              "type": "uint256"
            },
            {
              "internalType": "uint256",
              "name": "AUCTION_DURATION",
              "type": "uint256"
            },
            {
              "internalType": "uint8",
              "name": "NUMBER_OF_TOKEN_FOR_AUCTION",
              "type": "uint8"
            },
            {
              "internalType": "uint8",
              "name": "ROYALTY_FEE_PERCENT",
              "type": "uint8"
            }
          ],
          "internalType": "struct NFT.ContactMintConfig",
          "name": "mintConfig_",
          "type": "tuple"
        },
        {
          "internalType": "uint256",
          "name": "upgradeRequestFeeInWei_",
          "type": "uint256"
        }
      ],
      "stateMutability": "nonpayable",
      "type": "constructor"
    },
    {
      "inputs": [],
      "name": "ApprovalCallerNotOwnerNorApproved",
      "type": "error"
    },
    {
      "inputs": [],
      "name": "ApprovalQueryForNonexistentToken",
      "type": "error"
    },
    {
      "inputs": [],
      "name": "ApprovalToCurrentOwner",
      "type": "error"
    },
    {
      "inputs": [],
      "name": "ApproveToCaller",
      "type": "error"
    },
    {
      "inputs": [],
      "name": "AuxQueryForZeroAddress",
      "type": "error"
    },
    {
      "inputs": [],
      "name": "BalanceQueryForZeroAddress",
      "type": "error"
    },
    {
      "inputs": [],
      "name": "MintToZeroAddress",
      "type": "error"
    },
    {
      "inputs": [],
      "name": "MintZeroQuantity",
      "type": "error"
    },
    {
      "inputs": [],
      "name": "MintedQueryForZeroAddress",
      "type": "error"
    },
    {
      "inputs": [],
      "name": "OwnerQueryForNonexistentToken",
      "type": "error"
    },
    {
      "inputs": [],
      "name": "TransferCallerNotOwnerNorApproved",
      "type": "error"
    },
    {
      "inputs": [],
      "name": "TransferFromIncorrectOwner",
      "type": "error"
    },
    {
      "inputs": [],
      "name": "TransferToNonERC721ReceiverImplementer",
      "type": "error"
    },
    {
      "inputs": [],
      "name": "TransferToZeroAddress",
      "type": "error"
    },
    {
      "anonymous": false,
      "inputs": [
        {
          "indexed": true,
          "internalType": "address",
          "name": "owner",
          "type": "address"
        },
        {
          "indexed": true,
          "internalType": "address",
          "name": "approved",
          "type": "address"
        },
        {
          "indexed": true,
          "internalType": "uint256",
          "name": "tokenId",
          "type": "uint256"
        }
      ],
      "name": "Approval",
      "type": "event"
    },
    {
      "anonymous": false,
      "inputs": [
        {
          "indexed": true,
          "internalType": "address",
          "name": "owner",
          "type": "address"
        },
        {
          "indexed": true,
          "internalType": "address",
          "name": "operator",
          "type": "address"
        },
        {
          "indexed": false,
          "internalType": "bool",
          "name": "approved",
          "type": "bool"
        }
      ],
      "name": "ApprovalForAll",
      "type": "event"
    },
    {
      "anonymous": false,
      "inputs": [
        {
          "indexed": true,
          "internalType": "address",
          "name": "previousOwner",
          "type": "address"
        },
        {
          "indexed": true,
          "internalType": "address",
          "name": "newOwner",
          "type": "address"
        }
      ],
      "name": "OwnershipTransferred",
      "type": "event"
    },
    {
      "anonymous": false,
      "inputs": [
        {
          "indexed": false,
          "internalType": "uint16",
          "name": "_token",
          "type": "uint16"
        }
      ],
      "name": "TokenUpgraded",
      "type": "event"
    },
    {
      "anonymous": false,
      "inputs": [
        {
          "indexed": true,
          "internalType": "address",
          "name": "from",
          "type": "address"
        },
        {
          "indexed": true,
          "internalType": "address",
          "name": "to",
          "type": "address"
        },
        {
          "indexed": true,
          "internalType": "uint256",
          "name": "tokenId",
          "type": "uint256"
        }
      ],
      "name": "Transfer",
      "type": "event"
    },
    {
      "anonymous": false,
      "inputs": [
        {
          "indexed": false,
          "internalType": "uint16",
          "name": "_token",
          "type": "uint16"
        },
        {
          "indexed": false,
          "internalType": "uint256",
          "name": "_value",
          "type": "uint256"
        }
      ],
      "name": "UpgradeRequestPayment",
      "type": "event"
    },
    {
      "stateMutability": "payable",
      "type": "fallback"
    },
    {
      "inputs": [],
      "name": "ADDRESS",
      "outputs": [
        {
          "internalType": "address",
          "name": "OWNER",
          "type": "address"
        },
        {
          "internalType": "address",
          "name": "PLATFORM",
          "type": "address"
        },
        {
          "internalType": "address",
          "name": "DECENTRAL_TITAN",
          "type": "address"
        },
        {
          "internalType": "address",
          "name": "BUY_BACK_TREASURY_CONTRACT",
          "type": "address"
        },
        {
          "internalType": "address",
          "name": "WHITE_LIST_VERIFIER",
          "type": "address"
        },
        {
          "internalType": "address",
          "name": "ROYALTY_DISTRIBUTOR_CONTRACT",
          "type": "address"
        }
      ],
      "stateMutability": "view",
      "type": "function"
    },
    {
      "inputs": [
        {
          "internalType": "uint8",
          "name": "",
          "type": "uint8"
        }
      ],
      "name": "AUCTIONS",
      "outputs": [
        {
          "internalType": "uint8",
          "name": "TOKEN_ID",
          "type": "uint8"
        },
        {
          "internalType": "uint256",
          "name": "START_TIME",
          "type": "uint256"
        },
        {
          "internalType": "uint256",
          "name": "EXPIRE_AT",
          "type": "uint256"
        },
        {
          "internalType": "uint256",
          "name": "START_PRICE",
          "type": "uint256"
        },
        {
          "internalType": "uint256",
          "name": "END_PRICE",
          "type": "uint256"
        },
        {
          "internalType": "uint256",
          "name": "AUCTION_DROP_INTERVAL",
          "type": "uint256"
        },
        {
          "internalType": "uint256",
          "name": "AUCTION_DROP_PER_STEP",
          "type": "uint256"
        },
        {
          "internalType": "bool",
          "name": "IS_SOLD",
          "type": "bool"
        }
      ],
      "stateMutability": "view",
      "type": "function"
    },
    {
      "inputs": [],
      "name": "IPFS",
      "outputs": [
        {
          "internalType": "string",
          "name": "GOD_CID",
          "type": "string"
        },
        {
          "internalType": "string",
          "name": "NOT_REVEALED_ART_CID",
          "type": "string"
        },
        {
          "internalType": "string",
          "name": "ART_CID",
          "type": "string"
        }
      ],
      "stateMutability": "view",
      "type": "function"
    },
    {
      "inputs": [],
      "name": "MAX_SUPPLY",
      "outputs": [
        {
          "internalType": "uint16",
          "name": "",
          "type": "uint16"
        }
      ],
      "stateMutability": "view",
      "type": "function"
    },
    {
      "inputs": [],
      "name": "MINTING_CONFIG",
      "outputs": [
        {
          "internalType": "uint256",
          "name": "MINT_PRICE_IN_WEI",
          "type": "uint256"
        },
        {
          "internalType": "uint16",
          "name": "MAX_MINT_PER_ADDRESS",
          "type": "uint16"
        },
        {
          "internalType": "uint256",
          "name": "AUCTION_START_TIME",
          "type": "uint256"
        },
        {
          "internalType": "uint256",
          "name": "AUCTION_DURATION",
          "type": "uint256"
        },
        {
          "internalType": "uint8",
          "name": "NUMBER_OF_TOKEN_FOR_AUCTION",
          "type": "uint8"
        },
        {
          "internalType": "uint8",
          "name": "ROYALTY_FEE_PERCENT",
          "type": "uint8"
        }
      ],
      "stateMutability": "view",
      "type": "function"
    },
    {
      "inputs": [],
      "name": "STATE",
      "outputs": [
        {
          "internalType": "bool",
          "name": "INITIALIZED",
          "type": "bool"
        },
        {
          "internalType": "bool",
          "name": "AUCTION_IS_ACTIVE",
          "type": "bool"
        },
        {
          "internalType": "bool",
          "name": "WHITE_LIST_MINTING_IS_ACTIVE",
          "type": "bool"
        },
        {
          "internalType": "bool",
          "name": "MINTING_IS_ACTIVE",
          "type": "bool"
        },
        {
          "internalType": "bool",
          "name": "ART_IS_REVEALED",
          "type": "bool"
        },
        {
          "internalType": "bool",
          "name": "FINISHED",
          "type": "bool"
        }
      ],
      "stateMutability": "view",
      "type": "function"
    },
    {
      "inputs": [
        {
          "internalType": "uint16",
          "name": "",
          "type": "uint16"
        }
      ],
      "name": "TOKEN_IS_GOD",
      "outputs": [
        {
          "internalType": "bool",
          "name": "",
          "type": "bool"
        }
      ],
      "stateMutability": "view",
      "type": "function"
    },
    {
      "inputs": [
        {
          "internalType": "uint16",
          "name": "",
          "type": "uint16"
        }
      ],
      "name": "TOKEN_IS_UPGRADED",
      "outputs": [
        {
          "internalType": "bool",
          "name": "",
          "type": "bool"
        }
      ],
      "stateMutability": "view",
      "type": "function"
    },
    {
      "inputs": [],
      "name": "UPGRADE_REQUEST_FEE_IN_WEI",
      "outputs": [
        {
          "internalType": "uint256",
          "name": "",
          "type": "uint256"
        }
      ],
      "stateMutability": "view",
      "type": "function"
    },
    {
      "inputs": [
        {
          "internalType": "uint256",
          "name": "",
          "type": "uint256"
        }
      ],
      "name": "UPGRADE_REQUEST_FEE_IS_PAID",
      "outputs": [
        {
          "internalType": "bool",
          "name": "",
          "type": "bool"
        }
      ],
      "stateMutability": "view",
      "type": "function"
    },
    {
      "inputs": [
        {
          "internalType": "uint256",
          "name": "",
          "type": "uint256"
        }
      ],
      "name": "_ownerships",
      "outputs": [
        {
          "internalType": "address",
          "name": "addr",
          "type": "address"
        },
        {
          "internalType": "uint64",
          "name": "startTimestamp",
          "type": "uint64"
        },
        {
          "internalType": "bool",
          "name": "burned",
          "type": "bool"
        }
      ],
      "stateMutability": "view",
      "type": "function"
    },
    {
      "inputs": [
        {
          "internalType": "address",
          "name": "to",
          "type": "address"
        },
        {
          "internalType": "uint256",
          "name": "tokenId",
          "type": "uint256"
        }
      ],
      "name": "approve",
      "outputs": [],
      "stateMutability": "nonpayable",
      "type": "function"
    },
    {
      "inputs": [
        {
          "internalType": "address",
          "name": "owner",
          "type": "address"
        }
      ],
      "name": "balanceOf",
      "outputs": [
        {
          "internalType": "uint256",
          "name": "",
          "type": "uint256"
        }
      ],
      "stateMutability": "view",
      "type": "function"
    },
    {
      "inputs": [
        {
          "internalType": "uint8",
          "name": "day",
          "type": "uint8"
        }
      ],
      "name": "buyAGodInAuction",
      "outputs": [],
      "stateMutability": "payable",
      "type": "function"
    },
    {
      "inputs": [
        {
          "internalType": "uint16",
          "name": "tokenId",
          "type": "uint16"
        }
      ],
      "name": "buyBackToken",
      "outputs": [],
      "stateMutability": "nonpayable",
      "type": "function"
    },
    {
      "inputs": [],
      "name": "finishAuction",
      "outputs": [],
      "stateMutability": "nonpayable",
      "type": "function"
    },
    {
      "inputs": [],
      "name": "finishMinting",
      "outputs": [],
      "stateMutability": "nonpayable",
      "type": "function"
    },
    {
      "inputs": [
        {
          "internalType": "uint256",
          "name": "tokenId",
          "type": "uint256"
        }
      ],
      "name": "getApproved",
      "outputs": [
        {
          "internalType": "address",
          "name": "",
          "type": "address"
        }
      ],
      "stateMutability": "view",
      "type": "function"
    },
    {
      "inputs": [
        {
          "internalType": "uint8",
          "name": "day",
          "type": "uint8"
        }
      ],
      "name": "getAuctionPrice",
      "outputs": [
        {
          "internalType": "uint256",
          "name": "",
          "type": "uint256"
        }
      ],
      "stateMutability": "view",
      "type": "function"
    },
    {
      "inputs": [
        {
          "components": [
            {
              "internalType": "uint256",
              "name": "START_PRICE",
              "type": "uint256"
            },
            {
              "internalType": "uint256",
              "name": "END_PRICE",
              "type": "uint256"
            },
            {
              "internalType": "uint256",
              "name": "AUCTION_DROP_INTERVAL",
              "type": "uint256"
            },
            {
              "internalType": "uint256",
              "name": "AUCTION_DROP_PER_STEP",
              "type": "uint256"
            }
          ],
          "internalType": "struct NFT.AuctionConfig[]",
          "name": "configs",
          "type": "tuple[]"
        }
      ],
      "name": "initializer",
      "outputs": [],
      "stateMutability": "nonpayable",
      "type": "function"
    },
    {
      "inputs": [
        {
          "internalType": "address",
          "name": "owner",
          "type": "address"
        },
        {
          "internalType": "address",
          "name": "operator",
          "type": "address"
        }
      ],
      "name": "isApprovedForAll",
      "outputs": [
        {
          "internalType": "bool",
          "name": "",
          "type": "bool"
        }
      ],
      "stateMutability": "view",
      "type": "function"
    },
    {
      "inputs": [
        {
          "internalType": "address",
          "name": "account_",
          "type": "address"
        },
        {
          "internalType": "uint8",
          "name": "maxQuantity_",
          "type": "uint8"
        },
        {
          "internalType": "enum NFT.WhiteListType",
          "name": "whiteListType_",
          "type": "uint8"
        },
        {
          "internalType": "bytes",
          "name": "sig_",
          "type": "bytes"
        }
      ],
      "name": "isWhitelisted",
      "outputs": [
        {
          "internalType": "bool",
          "name": "",
          "type": "bool"
        }
      ],
      "stateMutability": "view",
      "type": "function"
    },
    {
      "inputs": [],
      "name": "name",
      "outputs": [
        {
          "internalType": "string",
          "name": "",
          "type": "string"
        }
      ],
      "stateMutability": "view",
      "type": "function"
    },
    {
      "inputs": [],
      "name": "nextOwnerToExplicitlySet",
      "outputs": [
        {
          "internalType": "uint256",
          "name": "",
          "type": "uint256"
        }
      ],
      "stateMutability": "view",
      "type": "function"
    },
    {
      "inputs": [],
      "name": "owner",
      "outputs": [
        {
          "internalType": "address",
          "name": "",
          "type": "address"
        }
      ],
      "stateMutability": "view",
      "type": "function"
    },
    {
      "inputs": [
        {
          "internalType": "uint256",
          "name": "tokenId",
          "type": "uint256"
        }
      ],
      "name": "ownerOf",
      "outputs": [
        {
          "internalType": "address",
          "name": "",
          "type": "address"
        }
      ],
      "stateMutability": "view",
      "type": "function"
    },
    {
      "inputs": [
        {
          "internalType": "uint256",
          "name": "quantity",
          "type": "uint256"
        }
      ],
      "name": "publicMint",
      "outputs": [],
      "stateMutability": "payable",
      "type": "function"
    },
    {
      "inputs": [],
      "name": "renounceOwnership",
      "outputs": [],
      "stateMutability": "nonpayable",
      "type": "function"
    },
    {
      "inputs": [
        {
          "internalType": "string",
          "name": "ipfsCid",
          "type": "string"
        }
      ],
      "name": "revealArt",
      "outputs": [],
      "stateMutability": "nonpayable",
      "type": "function"
    },
    {
      "inputs": [
        {
          "internalType": "uint256",
          "name": "",
          "type": "uint256"
        },
        {
          "internalType": "uint256",
          "name": "value",
          "type": "uint256"
        }
      ],
      "name": "royaltyInfo",
      "outputs": [
        {
          "internalType": "address",
          "name": "receiver",
          "type": "address"
        },
        {
          "internalType": "uint256",
          "name": "royaltyAmount",
          "type": "uint256"
        }
      ],
      "stateMutability": "view",
      "type": "function"
    },
    {
      "inputs": [
        {
          "internalType": "address",
          "name": "from",
          "type": "address"
        },
        {
          "internalType": "address",
          "name": "to",
          "type": "address"
        },
        {
          "internalType": "uint256",
          "name": "tokenId",
          "type": "uint256"
        }
      ],
      "name": "safeTransferFrom",
      "outputs": [],
      "stateMutability": "nonpayable",
      "type": "function"
    },
    {
      "inputs": [
        {
          "internalType": "address",
          "name": "from",
          "type": "address"
        },
        {
          "internalType": "address",
          "name": "to",
          "type": "address"
        },
        {
          "internalType": "uint256",
          "name": "tokenId",
          "type": "uint256"
        },
        {
          "internalType": "bytes",
          "name": "_data",
          "type": "bytes"
        }
      ],
      "name": "safeTransferFrom",
      "outputs": [],
      "stateMutability": "nonpayable",
      "type": "function"
    },
    {
      "inputs": [
        {
          "internalType": "address",
          "name": "operator",
          "type": "address"
        },
        {
          "internalType": "bool",
          "name": "approved",
          "type": "bool"
        }
      ],
      "name": "setApprovalForAll",
      "outputs": [],
      "stateMutability": "nonpayable",
      "type": "function"
    },
    {
      "inputs": [
        {
          "internalType": "address",
          "name": "buyBackTreasury_",
          "type": "address"
        }
      ],
      "name": "setBuyBackTreasury",
      "outputs": [],
      "stateMutability": "nonpayable",
      "type": "function"
    },
    {
      "inputs": [
        {
          "internalType": "uint256",
          "name": "quantity",
          "type": "uint256"
        }
      ],
      "name": "setOwnersExplicit",
      "outputs": [],
      "stateMutability": "nonpayable",
      "type": "function"
    },
    {
      "inputs": [
        {
          "internalType": "address",
          "name": "platform_",
          "type": "address"
        }
      ],
      "name": "setPlatform",
      "outputs": [],
      "stateMutability": "nonpayable",
      "type": "function"
    },
    {
      "inputs": [
        {
          "internalType": "address",
          "name": "royaltyDistributerContract_",
          "type": "address"
        }
      ],
      "name": "setRoyaltyReceiver",
      "outputs": [],
      "stateMutability": "nonpayable",
      "type": "function"
    },
    {
      "inputs": [
        {
          "internalType": "uint256",
          "name": "upgradeRequestFeeInWei_",
          "type": "uint256"
        }
      ],
      "name": "setUpgradeRequestFeeInWei",
      "outputs": [],
      "stateMutability": "nonpayable",
      "type": "function"
    },
    {
      "inputs": [],
      "name": "startPublicMinting",
      "outputs": [],
      "stateMutability": "nonpayable",
      "type": "function"
    },
    {
      "inputs": [],
      "name": "startWhiteListMinting",
      "outputs": [],
      "stateMutability": "nonpayable",
      "type": "function"
    },
    {
      "inputs": [
        {
          "internalType": "bytes4",
          "name": "interfaceId",
          "type": "bytes4"
        }
      ],
      "name": "supportsInterface",
      "outputs": [
        {
          "internalType": "bool",
          "name": "",
          "type": "bool"
        }
      ],
      "stateMutability": "view",
      "type": "function"
    },
    {
      "inputs": [],
      "name": "symbol",
      "outputs": [
        {
          "internalType": "string",
          "name": "",
          "type": "string"
        }
      ],
      "stateMutability": "view",
      "type": "function"
    },
    {
      "inputs": [
        {
          "internalType": "uint256",
          "name": "index",
          "type": "uint256"
        }
      ],
      "name": "tokenByIndex",
      "outputs": [
        {
          "internalType": "uint256",
          "name": "",
          "type": "uint256"
        }
      ],
      "stateMutability": "view",
      "type": "function"
    },
    {
      "inputs": [
        {
          "internalType": "address",
          "name": "owner",
          "type": "address"
        },
        {
          "internalType": "uint256",
          "name": "index",
          "type": "uint256"
        }
      ],
      "name": "tokenOfOwnerByIndex",
      "outputs": [
        {
          "internalType": "uint256",
          "name": "",
          "type": "uint256"
        }
      ],
      "stateMutability": "view",
      "type": "function"
    },
    {
      "inputs": [
        {
          "internalType": "uint256",
          "name": "tokenId_",
          "type": "uint256"
        }
      ],
      "name": "tokenURI",
      "outputs": [
        {
          "internalType": "string",
          "name": "",
          "type": "string"
        }
      ],
      "stateMutability": "view",
      "type": "function"
    },
    {
      "inputs": [],
      "name": "totalSupply",
      "outputs": [
        {
          "internalType": "uint256",
          "name": "",
          "type": "uint256"
        }
      ],
      "stateMutability": "view",
      "type": "function"
    },
    {
      "inputs": [
        {
          "internalType": "address",
          "name": "from",
          "type": "address"
        },
        {
          "internalType": "address",
          "name": "to",
          "type": "address"
        },
        {
          "internalType": "uint256",
          "name": "tokenId",
          "type": "uint256"
        }
      ],
      "name": "transferFrom",
      "outputs": [],
      "stateMutability": "nonpayable",
      "type": "function"
    },
    {
      "inputs": [
        {
          "internalType": "address",
          "name": "newOwner",
          "type": "address"
        }
      ],
      "name": "transferOwnership",
      "outputs": [],
      "stateMutability": "nonpayable",
      "type": "function"
    },
    {
      "inputs": [
        {
          "internalType": "string",
          "name": "ipfsCid",
          "type": "string"
        },
        {
          "internalType": "uint16",
          "name": "tokenId",
          "type": "uint16"
        },
        {
          "internalType": "bool",
          "name": "isGodNow",
          "type": "bool"
        }
      ],
      "name": "upgradeToken",
      "outputs": [],
      "stateMutability": "nonpayable",
      "type": "function"
    },
    {
      "inputs": [
        {
          "internalType": "uint16",
          "name": "tokenId",
          "type": "uint16"
        }
      ],
      "name": "upgradeTokenRequestFee",
      "outputs": [],
      "stateMutability": "payable",
      "type": "function"
    },
    {
      "inputs": [
        {
          "internalType": "uint8",
          "name": "maxQuantity_",
          "type": "uint8"
        },
        {
          "internalType": "uint8",
          "name": "quantity_",
          "type": "uint8"
        },
        {
          "internalType": "enum NFT.WhiteListType",
          "name": "whiteListType_",
          "type": "uint8"
        },
        {
          "internalType": "bytes",
          "name": "sig",
          "type": "bytes"
        }
      ],
      "name": "whitelistMinting",
      "outputs": [],
      "stateMutability": "payable",
      "type": "function"
    },
    {
      "stateMutability": "payable",
      "type": "receive"
    }
  ],
  "bytecode": "0x60a060405260006008553480156200001657600080fd5b5060405162013b5d38038062013b5d83398181016040528101906200003c919062000f74565b84600001516040518060400160405280601181526020017f44656d6d6f7274616c54726561737572650000000000000000000000000000008152506040518060400160405280600281526020017f4454000000000000000000000000000000000000000000000000000000000000815250620000e17f9fb81d11bba5633787914c1a7fba91d05041702f2eb3e5ad558edda54e20e8ec60001b620009c060201b60201c565b620001157f2d3995f8f2824129fec0d986b95852a7590c7736375b65fd49b35a6db5b2155960001b620009c060201b60201c565b620001497fb04a04434fb057ab9f86cfb8a16dbb89cb495b72781beb1fd9402092f19cfe7f60001b620009c060201b60201c565b81600290805190602001906200016192919062000ca0565b50620001967fbbbb127f02965861a32425bf7ef951d42f91bdc026592d74c99129eefb8aa19f60001b620009c060201b60201c565b620001ca7fe6f8c6314b4cf46df0b282c68c62c31b3832488ab33241957528f39cd1a06f1160001b620009c060201b60201c565b8060039080519060200190620001e292919062000ca0565b50620002177f786d9a2a3c90e7ad07b1958d095afbb17be4cec0379064995d5dc98e3861bbeb60001b620009c060201b60201c565b6200024b7f50cb5f3715f3c38d9003936799fd4184b670de2b75452dce7ea4c9b7c7fbb4f860001b620009c060201b60201c565b6200025b620009c360201b60201c565b6000819055505050620002977fa56af8fa909ca6ed804f2c93ea60545645d7bc5524a00cd15fd67e7489fd1dd560001b62000a6860201b60201c565b620002cb7fc7ac0bfe1519d6143915b65f7723721337369f5b2305c4438971789e8d3423f760001b62000a6860201b60201c565b620002ff7f8d76f1d6262f4aa393c33fecfbbe79d3b109849cb497177041118f5a8b141bcf60001b62000a6860201b60201c565b620003108162000a6b60201b60201c565b506001600a819055506200034d7f02886f1d9dd5674858d327c607aeaa353452dfb8017382cc297b94097a6c3cd560001b62000c9d60201b60201c565b620003817ff7c1dc0afffe2c85259e461fd2fa9fd54bfad4b0b20a4111eb0a3e65a301550860001b62000c9d60201b60201c565b620003b57fbd4ba398e1a845347b2f86722d2d698f637f213c177b5cb5e31fab009dc8b94160001b62000c9d60201b60201c565b8561ffff1660808161ffff1660f01b81525050620003fc7f2906648bf74c493cbdeb0b738c60e95b1dcbc2bfc34bd6b5a94d68dd264ab2e760001b62000c9d60201b60201c565b620004307f0f44fab36af23ad27ab5a4f4f3df59e7192a3cd4a70e1d7d08caf8f558c9535f60001b62000c9d60201b60201c565b6040518060c0016040528060001515815260200160001515815260200160001515815260200160001515815260200160001515815260200160001515815250600c60008201518160000160006101000a81548160ff02191690831515021790555060208201518160000160016101000a81548160ff02191690831515021790555060408201518160000160026101000a81548160ff02191690831515021790555060608201518160000160036101000a81548160ff02191690831515021790555060808201518160000160046101000a81548160ff02191690831515021790555060a08201518160000160056101000a81548160ff021916908315150217905550905050620005687f5c61a908b7c6aa6d34eaaf74b0a3a828e0c64b08fa1a1ea375d1b0dd1f93b21360001b62000c9d60201b60201c565b6200059c7f86f15978598eb3fe2e6298f790a6b26a67c4ef7c3652fae7379bda3023fdcf1060001b62000c9d60201b60201c565b84600d60008201518160000160006101000a81548173ffffffffffffffffffffffffffffffffffffffff021916908373ffffffffffffffffffffffffffffffffffffffff16021790555060208201518160010160006101000a81548173ffffffffffffffffffffffffffffffffffffffff021916908373ffffffffffffffffffffffffffffffffffffffff16021790555060408201518160020160006101000a81548173ffffffffffffffffffffffffffffffffffffffff021916908373ffffffffffffffffffffffffffffffffffffffff16021790555060608201518160030160006101000a81548173ffffffffffffffffffffffffffffffffffffffff021916908373ffffffffffffffffffffffffffffffffffffffff16021790555060808201518160040160006101000a81548173ffffffffffffffffffffffffffffffffffffffff021916908373ffffffffffffffffffffffffffffffffffffffff16021790555060a08201518160050160006101000a81548173ffffffffffffffffffffffffffffffffffffffff021916908373ffffffffffffffffffffffffffffffffffffffff160217905550905050620007807f4094d0a15fa7823557d99e9f8afcca56ff1296edea82aa3fda9e7456281be6a460001b62000c9d60201b60201c565b620007b47fc9eb9510b1971016b92bfd8129fda2ffe134111d18629942be2cac81c7e7297d60001b62000c9d60201b60201c565b8360136000019080519060200190620007cf92919062000ca0565b50620008047fdcc139741df2aed3f20e33fcfafc1bf5f9b63a7692073563374e1a19145bae8560001b62000c9d60201b60201c565b620008387f1030f203c88b47df2a44b9969077588418d8dc9814d49c681311107846a6b01f60001b62000c9d60201b60201c565b82601360010190805190602001906200085392919062000ca0565b50620008887ff88dc3bd949f6c4ff90395e248d139e4541e502e5d2ea600d11b6ac6f4813dd960001b62000c9d60201b60201c565b620008bc7f073b729a2be941c39ef92b94c858438399261759fa0e9ea141f26b804093bb0860001b62000c9d60201b60201c565b8160166000820151816000015560208201518160010160006101000a81548161ffff021916908361ffff160217905550604082015181600201556060820151816003015560808201518160040160006101000a81548160ff021916908360ff16021790555060a08201518160040160016101000a81548160ff021916908360ff160217905550905050620009797fdfe7def7fff6993859ab4de2d872bd3bf08cc7fc8427fa65ee1d84d35a4d102160001b62000c9d60201b60201c565b620009ad7ffbadb249d6813d2748334f7396b7d541846e3d42639031d1d62c2f63c72e9d4a60001b62000c9d60201b60201c565b80600b8190555050505050505062001271565b50565b6000620009f97f33c5ce419c048202a91f8ae6479df84035032c5dff8d4a5f12f27ce28158947b60001b620009c060201b60201c565b62000a2d7f406bbb6e0be2061807c4d24e956622d74276f973a3103568b365348fe7d9507660001b620009c060201b60201c565b62000a617f60145e7a26da54fb7279bfcafc990de068773baf95faf677a4c346dcdee2cb7a60001b620009c060201b60201c565b6000905090565b50565b62000a9f7f63c87581d2b58a5fb7fa835aba81459484d672270945f1f37636f40e351e015160001b62000a6860201b60201c565b62000ad37f98b1a1d63cc898bc72ab431b342ce1ebd891e6b89292fbaa60d82e2ea56168fc60001b62000a6860201b60201c565b62000b077fcb189740d278ea9df1bae739b9c9b43a84af8f9ccb6f4121e654f0449903ec8060001b62000a6860201b60201c565b6000600960009054906101000a900473ffffffffffffffffffffffffffffffffffffffff16905062000b627faf6bc6e4fe2a213f36e6d6c21f0f3b6509b2811a593108e9e18d75c80a4b03de60001b62000a6860201b60201c565b62000b967f13938cc3382239cf6920fe019695f85bf2a7b1ce8f61bf55020fcf2c9ec1470f60001b62000a6860201b60201c565b81600960006101000a81548173ffffffffffffffffffffffffffffffffffffffff021916908373ffffffffffffffffffffffffffffffffffffffff16021790555062000c0b7f3e1000471a97dcd034b1b9028f0d0b65d39962fc854491be3ce464fa1cdd948060001b62000a6860201b60201c565b62000c3f7fce53958b33dd207a47d5ff91d9592519104f1685ef87eff371244a574f6fd44b60001b62000a6860201b60201c565b8173ffffffffffffffffffffffffffffffffffffffff168173ffffffffffffffffffffffffffffffffffffffff167f8be0079c531659141344cd1fd0a4f28419497f9722a3daafe3b4186f6b6457e060405160405180910390a35050565b50565b82805462000cae906200112e565b90600052602060002090601f01602090048101928262000cd2576000855562000d1e565b82601f1062000ced57805160ff191683800117855562000d1e565b8280016001018555821562000d1e579182015b8281111562000d1d57825182559160200191906001019062000d00565b5b50905062000d2d919062000d31565b5090565b5b8082111562000d4c57600081600090555060010162000d32565b5090565b600062000d6762000d618462001069565b62001040565b90508281526020810184848401111562000d8057600080fd5b62000d8d848285620010f8565b509392505050565b60008151905062000da68162001209565b92915050565b600082601f83011262000dbe57600080fd5b815162000dd084826020860162000d50565b91505092915050565b600060c0828403121562000dec57600080fd5b62000df860c062001040565b9050600062000e0a8482850162000f46565b600083015250602062000e208482850162000f2f565b602083015250604062000e368482850162000f46565b604083015250606062000e4c8482850162000f46565b606083015250608062000e628482850162000f5d565b60808301525060a062000e788482850162000f5d565b60a08301525092915050565b600060c0828403121562000e9757600080fd5b62000ea360c062001040565b9050600062000eb58482850162000d95565b600083015250602062000ecb8482850162000d95565b602083015250604062000ee18482850162000d95565b604083015250606062000ef78482850162000d95565b606083015250608062000f0d8482850162000d95565b60808301525060a062000f238482850162000d95565b60a08301525092915050565b60008151905062000f408162001223565b92915050565b60008151905062000f57816200123d565b92915050565b60008151905062000f6e8162001257565b92915050565b600080600080600080610200878903121562000f8f57600080fd5b600062000f9f89828a0162000f2f565b965050602062000fb289828a0162000e84565b95505060e087015167ffffffffffffffff81111562000fd057600080fd5b62000fde89828a0162000dac565b94505061010087015167ffffffffffffffff81111562000ffd57600080fd5b6200100b89828a0162000dac565b9350506101206200101f89828a0162000dd9565b9250506101e06200103389828a0162000f46565b9150509295509295509295565b60006200104c6200105f565b90506200105a828262001164565b919050565b6000604051905090565b600067ffffffffffffffff821115620010875762001086620011c9565b5b6200109282620011f8565b9050602081019050919050565b6000620010ac82620010c1565b9050919050565b600061ffff82169050919050565b600073ffffffffffffffffffffffffffffffffffffffff82169050919050565b6000819050919050565b600060ff82169050919050565b60005b8381101562001118578082015181840152602081019050620010fb565b8381111562001128576000848401525b50505050565b600060028204905060018216806200114757607f821691505b602082108114156200115e576200115d6200119a565b5b50919050565b6200116f82620011f8565b810181811067ffffffffffffffff82111715620011915762001190620011c9565b5b80604052505050565b7f4e487b7100000000000000000000000000000000000000000000000000000000600052602260045260246000fd5b7f4e487b7100000000000000000000000000000000000000000000000000000000600052604160045260246000fd5b6000601f19601f8301169050919050565b62001214816200109f565b81146200122057600080fd5b50565b6200122e81620010b3565b81146200123a57600080fd5b50565b6200124881620010e1565b81146200125457600080fd5b50565b6200126281620010eb565b81146200126e57600080fd5b50565b60805160f01c620128b6620012a76000396000818161295101528181613aa501528181618893015261d7a10152620128b66000f3fe6080604052600436106200038b5760003560e01c80636945c5ea11620001db578063a0a4a5a21162000103578063c486456c11620000a3578063d0b50d8e1162000079578063d0b50d8e1462000e12578063d7224ba01462000e40578063e985e9c51462000e70578063f2fde38b1462000eb457620003fc565b8063c486456c1462000d79578063c4f1634d1462000dae578063c87b56dd1462000dce57620003fc565b8063b51ce63d11620000d9578063b51ce63d1462000cf6578063b88d4fde1462000d2b578063c046e1301462000d5957620003fc565b8063a0a4a5a21462000c56578063a22cb4651462000c84578063a50774601462000cb257620003fc565b80638abbe9e6116200017b57806395d89b41116200015157806395d89b411462000b9a57806397a9140c1462000bca5780639b643f681462000bf85780639da058e91462000c3c57620003fc565b80638abbe9e61462000af85780638da5cb5b1462000b3c5780638dc251e31462000b6c57620003fc565b80637d64bcb411620001b15780637d64bcb41462000a6a5780637fec16841462000a84578063895145431462000aca57620003fc565b80636945c5ea14620009de57806370a082311462000a0c578063715018a61462000a5057620003fc565b80632fa3ce7d11620002bf5780634f6ccce7116200025f57806361a0dedc116200023557806361a0dedc14620009155780636352211e146200094a57806364b1152f146200098e578063688d260e14620009ae57620003fc565b80634f6ccce7146200085b57806354353219146200089f57806360dc13a914620008d157620003fc565b8063430ca46f1162000295578063430ca46f14620007e357806348c3e15d14620007fd5780634c0e123b146200084157620003fc565b80632fa3ce7d146200075757806332cb6b0c146200078557806342842e0e14620007b557620003fc565b80631db16f20116200032b5780632d20fb6011620003015780632d20fb6014620006c55780632db1154414620006f35780632f745c59146200071357620003fc565b80631db16f20146200062457806323b872dd14620006525780632a55205a146200068057620003fc565b8063081812fc1162000361578063081812fc1462000582578063095ea7b314620005c657806318160ddd14620005f457620003fc565b806301ffc9a714620004c3578063045cd554146200050757806306fdde03146200055257620003fc565b36620003fc57620003bf7fab5befc028e18eb9507fbfee27448490e2c9a590f6279a035c00608f63e8743d60001b62000ee2565b6040517f08c379a0000000000000000000000000000000000000000000000000000000008152600401620003f390620116ae565b60405180910390fd5b6200042a7f5f96895edc49fa02f6a63aebe6568b86fe267c8da6ed05b3e6bda3d18e22a39a60001b62000ee2565b620004587f8cb080ca62187dae62e796a20f35f2c37e6fa98e56703115634a21053bb5cae560001b62000ee2565b620004867f304b609049fbf057a4fdbec8d512a195d1374f10484fddb2ab12bd21c408b14060001b62000ee2565b6040517f08c379a0000000000000000000000000000000000000000000000000000000008152600401620004ba90620114b0565b60405180910390fd5b348015620004d057600080fd5b50620004ef6004803603810190620004e99190620101f4565b62000ee5565b604051620004fe919062011033565b60405180910390f35b3480156200051457600080fd5b506200053360048036038101906200052d9190620103c5565b62001127565b6040516200054998979695949392919062011870565b60405180910390f35b3480156200055f57600080fd5b506200056a62001189565b6040516200057991906201110a565b60405180910390f35b3480156200058f57600080fd5b50620005ae6004803603810190620005a8919062010358565b620012ad565b604051620005bd919062010eeb565b60405180910390f35b348015620005d357600080fd5b50620005f26004803603810190620005ec9190620100e0565b6200146e565b005b3480156200060157600080fd5b506200060c6200180a565b6040516200061b9190620117e6565b60405180910390f35b3480156200063157600080fd5b506200065060048036038101906200064a919062010291565b6200187f565b005b3480156200065f57600080fd5b506200067e60048036038101906200067891906200ffc4565b62002456565b005b3480156200068d57600080fd5b50620006ac6004803603810190620006a6919062010384565b620024f2565b604051620006bc92919062010fc9565b60405180910390f35b348015620006d257600080fd5b50620006f16004803603810190620006eb919062010358565b6200263d565b005b6200071160048036038101906200070b919062010358565b6200272e565b005b3480156200072057600080fd5b506200073f6004803603810190620007399190620100e0565b62002d31565b6040516200074e9190620117e6565b60405180910390f35b3480156200076457600080fd5b506200078360048036038101906200077d91906201032c565b62003586565b005b3480156200079257600080fd5b506200079d62003aa3565b604051620007ac91906201179c565b60405180910390f35b348015620007c257600080fd5b50620007e16004803603810190620007db91906200ffc4565b62003ac7565b005b348015620007f057600080fd5b50620007fb62003b73565b005b3480156200080a57600080fd5b506200082960048036038101906200082391906201032c565b620040f8565b60405162000838919062011033565b60405180910390f35b3480156200084e57600080fd5b506200085962004118565b005b3480156200086857600080fd5b5062000887600480360381019062000881919062010358565b62004682565b604051620008969190620117e6565b60405180910390f35b348015620008ac57600080fd5b50620008b76200481c565b604051620008c8939291906201112e565b60405180910390f35b348015620008de57600080fd5b50620008fd6004803603810190620008f79190620103c5565b620049e4565b6040516200090c9190620117e6565b60405180910390f35b3480156200092257600080fd5b506200092d62004e0c565b604051620009419695949392919062011803565b60405180910390f35b3480156200095757600080fd5b5062000976600480360381019062000970919062010358565b62004e5e565b60405162000985919062010eeb565b60405180910390f35b620009ac6004803603810190620009a691906201032c565b62004f00565b005b348015620009bb57600080fd5b50620009c6620056e2565b604051620009d59190620117e6565b60405180910390f35b348015620009eb57600080fd5b5062000a0a600480360381019062000a0491906200ff57565b620056e8565b005b34801562000a1957600080fd5b5062000a38600480360381019062000a3291906200ff57565b6200596c565b60405162000a479190620117e6565b60405180910390f35b34801562000a5d57600080fd5b5062000a6862005b80565b005b34801562000a7757600080fd5b5062000a8262005daf565b005b34801562000a9157600080fd5b5062000ab0600480360381019062000aaa919062010358565b62006395565b60405162000ac19392919062010ff6565b60405180910390f35b34801562000ad757600080fd5b5062000af6600480360381019062000af091906201024c565b62006400565b005b34801562000b0557600080fd5b5062000b24600480360381019062000b1e91906201032c565b62006929565b60405162000b33919062011033565b60405180910390f35b34801562000b4957600080fd5b5062000b5462006949565b60405162000b63919062010eeb565b60405180910390f35b34801562000b7957600080fd5b5062000b98600480360381019062000b9291906200ff57565b620069fd565b005b34801562000ba757600080fd5b5062000bb262006d20565b60405162000bc191906201110a565b60405180910390f35b34801562000bd757600080fd5b5062000bf6600480360381019062000bf09190620101ab565b62006e44565b005b34801562000c0557600080fd5b5062000c24600480360381019062000c1e919062010121565b6200758b565b60405162000c33919062011033565b60405180910390f35b34801562000c4957600080fd5b5062000c546200775d565b005b34801562000c6357600080fd5b5062000c82600480360381019062000c7c91906200ff57565b62007cc7565b005b34801562000c9157600080fd5b5062000cb0600480360381019062000caa91906201009f565b62007f4b565b005b34801562000cbf57600080fd5b5062000cde600480360381019062000cd8919062010358565b6200826a565b60405162000ced919062011033565b60405180910390f35b34801562000d0357600080fd5b5062000d0e62008289565b60405162000d229695949392919062010f08565b60405180910390f35b34801562000d3857600080fd5b5062000d57600480360381019062000d5191906201001a565b62008373565b005b62000d77600480360381019062000d719190620103f1565b62008567565b005b34801562000d8657600080fd5b5062000d9162009029565b60405162000da59695949392919062011050565b60405180910390f35b62000dcc600480360381019062000dc69190620103c5565b620090a1565b005b34801562000ddb57600080fd5b5062000dfa600480360381019062000df4919062010358565b62009d74565b60405162000e0991906201110a565b60405180910390f35b34801562000e1f57600080fd5b5062000e3e600480360381019062000e38919062010358565b6200a3af565b005b34801562000e4d57600080fd5b5062000e586200a86c565b60405162000e679190620117e6565b60405180910390f35b34801562000e7d57600080fd5b5062000e9c600480360381019062000e9691906200ff83565b6200a872565b60405162000eab919062011033565b60405180910390f35b34801562000ec157600080fd5b5062000ee0600480360381019062000eda91906200ff57565b6200a990565b005b50565b600062000f157fd23b544c1bf89257f2ccfae80a4a9e4914578964b4344f300e872b79bb4854ed60001b6200acea565b62000f437f4aa102f2a433c86d226048f38dd6bd37737b1aad216a28d9fdefb883e4d8cddf60001b6200acea565b62000f717fbb97baf104102948ab8aaf53c1c1c390e2e7202319e1b65a0192f313eaaf5ed360001b6200acea565b7f80ac58cd000000000000000000000000000000000000000000000000000000007bffffffffffffffffffffffffffffffffffffffffffffffffffffffff1916827bffffffffffffffffffffffffffffffffffffffffffffffffffffffff191614806200103b57507f5b5e139f000000000000000000000000000000000000000000000000000000007bffffffffffffffffffffffffffffffffffffffffffffffffffffffff1916827bffffffffffffffffffffffffffffffffffffffffffffffffffffffff1916145b80620010a457507f780e9d63000000000000000000000000000000000000000000000000000000007bffffffffffffffffffffffffffffffffffffffffffffffffffffffff1916827bffffffffffffffffffffffffffffffffffffffffffffffffffffffff1916145b806200110d57507f2a55205a000000000000000000000000000000000000000000000000000000007bffffffffffffffffffffffffffffffffffffffffffffffffffffffff1916827bffffffffffffffffffffffffffffffffffffffffffffffffffffffff1916145b806200112057506200111f826200aced565b5b9050919050565b601f6020528060005260406000206000915090508060000160009054906101000a900460ff16908060010154908060020154908060030154908060040154908060050154908060060154908060070160009054906101000a900460ff16905088565b6060620011b97fa46e245683523274ba5e2ba08fe0f01a9762a640ffed3a58ea13a1a041ebf57260001b6200acea565b620011e77fae6e5f101f7fb1a1aec76d88d968dd50f9a5162be048929a1dbae95ba56223a060001b6200acea565b620012157fdd8c1d92bce84c4b0d40b56ac6458fbe12ceb25b3843eb477fc712b995beb84960001b6200acea565b60028054620012249062011c82565b80601f0160208091040260200160405190810160405280929190818152602001828054620012529062011c82565b8015620012a35780601f106200127757610100808354040283529160200191620012a3565b820191906000526020600020905b8154815290600101906020018083116200128557829003601f168201915b5050505050905090565b6000620012dd7ff3b99b3ddca0114b50cd9dc89a39bb49027a5ccdb7952d395feeeae8ca50baba60001b6200acea565b6200130b7fcef982c4b7a5bf5293269bfc7ada4ed048ed3a773f325eb03198d367aa5c603160001b6200acea565b620013397f3d3e9fdd4d29ac9f1cf53bfaac0c33ed905ff9c800fab3d3edd4508e10389cb360001b6200acea565b62001344826200ad57565b620013a957620013777f1e1b20a186e0b0d9b18c10fd23ca92e2b615375baa4132091dd2b3e45e40b8db60001b6200acea565b6040517fcf4700e400000000000000000000000000000000000000000000000000000000815260040160405180910390fd5b620013d77f3f58786d8e7eaad5b444d6663552b7b0e39c7a1f6490151e1d76534257ee2efd60001b6200acea565b620014057fc59c333140e4f1e5e60b536bf7ed1a06e045ccc3bc448f54a486d9888fe5b55460001b6200acea565b620014337fe2784fbb199380d5c42e0bd96891eb0a89cc7add3e35123b5d1d0a230061cad260001b6200acea565b6006600083815260200190815260200160002060009054906101000a900473ffffffffffffffffffffffffffffffffffffffff169050919050565b6200149c7fcc3958a2203169c1a161b6e85711b4c10554fafa665b9f1668480b3c743b629660001b6200acea565b620014ca7f79b2f9706dd1d92b55be90479db88c359afdfc345d56db4a9f309006b39e31f160001b6200acea565b620014f87f74e5045f183e5598b0bd6ed408b7c765b8804ff29c2f500e05abb802a96ea53460001b6200acea565b6000620015058262004e5e565b9050620015357fc5020d96c2d3cc701e4b4f9235d1089d67fc4dfcc3b78124beb852a3ee5720f960001b6200acea565b620015637f92d5cb1372ee840433c5302693b5eec76b972d0e5eee33962fc883184e74a9c760001b6200acea565b8073ffffffffffffffffffffffffffffffffffffffff168373ffffffffffffffffffffffffffffffffffffffff161415620015f857620015c67fbed642ee0f22577181c55fa3651f6269df26ae92a793527be27d7a96fd2cd69460001b6200acea565b6040517f943f7b8c00000000000000000000000000000000000000000000000000000000815260040160405180910390fd5b620016267f23d211485526d91de4b8e37ac853605c20a0c8b0a7c72e49e1c5ef6afbb2ba1360001b6200acea565b620016547fb882c443f9b9d71625adcc3958980617a071cbb5cbf9788762b62ef68801390160001b6200acea565b620016827fe92c769584f87dea4860691e5a895b65cfadddc2c34fccba20abacaea99c784760001b6200acea565b8073ffffffffffffffffffffffffffffffffffffffff16620016a36200ae33565b73ffffffffffffffffffffffffffffffffffffffff1614158015620016da5750620016d881620016d26200ae33565b6200a872565b155b156200176e576200170e7f1c27a6b9361e9f247ec749beb985d46714b7a93b2858ce15ffd337feb6f8917560001b6200acea565b6200173c7f7584f82015299226a80b176d1ffeb8b493e9bc03b045b342af5a21261d27416960001b6200acea565b6040517fcfb3b94200000000000000000000000000000000000000000000000000000000815260040160405180910390fd5b6200179c7f4a7a323d62f41d7451536946e2bc6ba5e5a2298fbd919591e80ec788aa1bc32160001b6200acea565b620017ca7f73405b438b79bc6f3e98cb53b5283df1bb71dce6f5c427cb7f287cfca0dbbc3060001b6200acea565b620017f87f310948ea60588655c11f88347058ddd1e1a0ea15521b5d47a5f84d9f3a951c2060001b6200acea565b620018058383836200ae3b565b505050565b60006200183a7f5c6677d064c99b751919c0e733364546695d041f7a596e96172f81e32c6ab01460001b6200acea565b620018687fc340ec4b7290e253d90d552c701a36ed3b9ea2f451ef796b73ef971561badb6460001b6200acea565b620018726200afd3565b6001546000540303905090565b620018ad7f9b3def55fbf468802a2213f4f65e79fab2cb541a4ff390dc4f4d998eb08dfe5860001b62000ee2565b620018db7ff5af1788da8059e7175e07ea146e43be307d710429004a8ac8287dffe681eb2760001b62000ee2565b620019097fdda482145628889371d9ab9e37958bfa765a23f0df69856b7dafd81ffb2fd4d760001b62000ee2565b620019377f1ff39540ccfac2b97d516a2efbf17c8fa1c809df2b6b97cc7b868351cbe6945460001b62000ee2565b600c60000160059054906101000a900460ff166200198c576040517f08c379a00000000000000000000000000000000000000000000000000000000081526004016200198390620116d0565b60405180910390fd5b620019ba7fe81e1eabff63b00a1cb7f6ed1beb23eba29c5d7462375a692b87df1a4069a64d60001b62000ee2565b620019e87f70b74ac0aa330833367d83236f32991b8d47e4df11f7b1e4333b472695c9fd8160001b62000ee2565b62001a167fcc0a3d0a1abcb5bba825238f78ec125eb2337512f9d8b2d60f316c0ed28b829f60001b62000ee2565b62001a447fd9726603472bcbdb9621a74644d5d60d40e6ebe6517428a8192d15d14279421b60001b62000ee2565b600c60000160009054906101000a900460ff1662001a99576040517f08c379a000000000000000000000000000000000000000000000000000000000815260040162001a909062011604565b60405180910390fd5b62001ac77f0e903a45ca2f4fd3d4f76b2089c3b0d37061012bf156c02cde2c54697540098c60001b62000ee2565b62001af57f22746ec24e6c8d2e2c67e4efd6ed1af657655f9325568870575db9e3ebc0d4ce60001b62000ee2565b62001b237fbe6e1fb72e541c8e85d36f2a58ad7827d4522b7954cc428cd4f00f6edd3fbf9560001b6200b066565b62001b517f7bd6eaff1d38e64a73c559c9f1d8808e35c8e88cef26f012320d981b89756ab560001b6200b066565b62001b7f7fb3f7cc634d16364cdc851a38dc7047d6aba0b4a79d9325168125d1cc23093ed760001b6200b066565b62001bad7f5a65671baf67c4ada192460b590d909f787ac7943ea62a9232dc16955e3744df60001b6200b066565b62001bb76200ae33565b73ffffffffffffffffffffffffffffffffffffffff1662001bd762006949565b73ffffffffffffffffffffffffffffffffffffffff161462001c30576040517f08c379a000000000000000000000000000000000000000000000000000000000815260040162001c27906201157c565b60405180910390fd5b62001c5e7f672a372ba51e90947cb95ef00b200aff5d39c0e116f0dbbf8e32ff34bc0112cd60001b6200b066565b62001c8c7f2795d7e11805d4410ef5b8da7cbe6b456441f994995e40cc4d5e4e813a8dbb7360001b6200b066565b8162001cbb7fcaddd6970fa024fb87d4d52c3ca8b51e25cd09226ce49149423d5035a64d2eb060001b62000ee2565b62001ce97f9a4953104c3ff479741d622c1cf3d389a91b5f16519327eb2706d1ec25ea9ddd60001b62000ee2565b62001d177f4c402687ff2e04e22bd967653802c83d008810d8ea029aa89748bdbf28d7d7ab60001b62000ee2565b62001d457fdf0c012129b49ee00a94d1e056bde29d3395b9f2cd05662adcc804e41baabaf860001b62000ee2565b601e60008261ffff1661ffff16815260200190815260200160002060009054906101000a900460ff161562001db1576040517f08c379a000000000000000000000000000000000000000000000000000000000815260040162001da8906201122a565b60405180910390fd5b62001ddf7f132481edc2bdeb218f43660bcc787db2976ba20f32528950bbad2c7874c9f5bc60001b62000ee2565b62001e0d7fabac8ec974d6608bb9beea6324aeae6798836669422531d26586522c02421c4760001b62000ee2565b62001e3b7f71d8fff706c179599b2517053db726aa895758ac45002712e64f00924ee24be460001b62000ee2565b62001e697f0d6265a6e13bf09e818c9298839352b4e49b2d414227a514202deeaceb246c3060001b62000ee2565b62001e977f352d6f77be1fa762a13b17a7914238064eff8c7c916a7002a0f5649eb6ee1b7960001b62000ee2565b60008451905062001ecb7f8fc72dfdcc24a2b20cbca879f382272b81617ab2a7406d986f7a4cfc2fc4786b60001b62000ee2565b62001ef97fac8416f15342134750c94e37a9fbc389131ea51f4856a0c2ce0c64e4431cc6dc60001b62000ee2565b62001f277f50fd96f3d4b5a527d74360364a0a0b379e1907bd361d21155c368b4c7fb8a62660001b62000ee2565b6000811162001f6d576040517f08c379a000000000000000000000000000000000000000000000000000000000815260040162001f6490620115e2565b60405180910390fd5b62001f9b7f7e09fdf7bc61f48909c30cb8308cef0f42c12941e6748045e27b0735e1bffe8c60001b62000ee2565b62001fc97ff222b217f98013e14a233d311eacbee3e28ce821649319491023b41df322bad860001b62000ee2565b62001ff77fe376c67c800d1423fd65cf3a38644119b14b0c825b298173e340196cbc62a41460001b62000ee2565b620020257f5959017be4edbf7ebcd80a4776e2f237634753470fe24102a3d8766a609fc9e160001b62000ee2565b602060008561ffff16815260200190815260200160002060009054906101000a900460ff166200208c576040517f08c379a00000000000000000000000000000000000000000000000000000000081526004016200208390620111c4565b60405180910390fd5b620020ba7fc007241c5279e349f5ef6d7dac636375afa43467c63d528db10e328c9c6a8da660001b62000ee2565b620020e87f93d224aabec4fbfc9cf17621e57d50a272db190c82b4ef1ad2f6e9fd7c7f459160001b62000ee2565b620021167f035693cce0ad586d6fc34f5032ea37c9ec120aa4d9564ae6bab84b2fa5a03a4060001b62000ee2565b6000602060008661ffff16815260200190815260200160002060006101000a81548160ff021916908315150217905550620021747f33a9be3b6e79d93c7f4dac4c48c6b0b903e10c4e44e5d9e6be175ee2f9db8b0260001b62000ee2565b620021a27f403ceef8e027f22242b903e2612976875822974f68b75431ad071df6c8c0a20f60001b62000ee2565b84601d60008661ffff1661ffff1681526020019081526020016000209080519060200190620021d39291906200fbaf565b50620022027f15169b6b8da88da5ee7a8bfae71116e301ef23a83ae4f80c612189305374538760001b62000ee2565b620022307f06dde70745d3662e5e10428b65515f0c8867e3c9d8ffc24a07e1adf7c3d5862560001b62000ee2565b6001601c60008661ffff1661ffff16815260200190815260200160002060006101000a81548160ff021916908315150217905550620022927f911da7b18ae57214e4fbc25c792caea7aaa09a1ceb0f5ecf41e03fbb1a1f95a460001b62000ee2565b620022c07ff43cc008613d203e106272245830f0e6d1a2808e16a863613dedd92ddf488d0a60001b62000ee2565b82156200238b57620022f57f90b06faa50cd468d1f14d3b23b8b164a07af6f0deb7690641ecdddb62fb2242860001b62000ee2565b620023237f1c02b9db5237df22d3338df3110962328f22394a30b731cd58c9b5ae6d35c27e60001b62000ee2565b620023517f416c8a8973ca33de778320ececc7054a04a1f9cdabbe73066fabff67e370bdd960001b62000ee2565b6001601e60008661ffff1661ffff16815260200190815260200160002060006101000a81548160ff021916908315150217905550620023ba565b620023b97fef78e467c52765bf097d028cce35aa287c1a299ca4ffcaadcaa53d965579005a60001b62000ee2565b5b620023e87f19971511012ad0f12be148d864c5eba3db181abb6c5a2b2dd61284cca2e4336f60001b62000ee2565b620024167fc86d76d7a6a852d9bd3f922decc94c7b67025f2bf55edfd44f782462832fe86460001b62000ee2565b7f02375e2ab6ce816f82cbad1e57b14c842f3079a43885dcdfbdbebec69baee0c2846040516200244791906201179c565b60405180910390a15050505050565b620024847f1331c06dbbd831801257e8c955f954bcb21835c23a1a6c57fde2b69d6ad2e2c460001b6200acea565b620024b27ff46ff4f42a08b0ec56541677da69e98f6a70fd492961df9d64b679a16432170c60001b6200acea565b620024e07f37bc40c676416166270ab312fc66c0e6e8b61d93c904917d3f8c8c0628fc166b60001b6200acea565b620024ed8383836200b069565b505050565b600080620025237fca593c6a001876548b19ab97d979d96518fa07edb612b98effde0e4639e4cd8560001b62000ee2565b620025517fa37f5bcaf41100747bd31eb5ed81bdd4ebe9f1f93042c3ebd9414faca1f6927360001b62000ee2565b6200257f7fdbcf83b1cb7030f85f4a120951325d927727225f4d7482d10a746780658fedba60001b62000ee2565b601b60000160009054906101000a900473ffffffffffffffffffffffffffffffffffffffff169150620025d57fe7c4eab08a9b7fab3d108462a578548463faf3d3b6918350c7e6d33971e22dcf60001b62000ee2565b620026037f054eceef36a4c81b955bc6c709cea9489a30119288825a2f078964c6af08419060001b62000ee2565b6064601b60000160149054906101000a900460ff1660ff168462002628919062011ac9565b62002634919062011a91565b90509250929050565b6002600a54141562002686576040517f08c379a00000000000000000000000000000000000000000000000000000000081526004016200267d9062011736565b60405180910390fd5b6002600a81905550620026bc7ff93f7897f28828d64a9a0100b3e17cbdc4d9a7861cd422dbaf4725537cda254460001b62000ee2565b620026ea7fd4ba1cd5caf484e74fda525bd4624085ab8502d7dec3506f81c284dbaa03633e60001b62000ee2565b620027187f2e4b1b024a9e5c807faacf5dea196023ec9f41eaf291bf06b6f2395fbdff50dc60001b62000ee2565b62002723816200b948565b6001600a8190555050565b6200275c7ff368b0b83ca83c4dc0b1d8d52174251bb9b4cf1cee5bea995577394243c7356d60001b62000ee2565b6200278a7fa8988167aaf4687472c814df64184a221b42ebf3ff000f21f900c19ca2b73a0260001b62000ee2565b620027b87f474d222d5c196fd048a4035b4f9e99f4cc69687b633563cafb1735764b26e1f660001b62000ee2565b620027e67fc2ad9fa75c1ef457a7931434802e106231882e13ddac6c44bb4bb6dfad817e3a60001b62000ee2565b600c60000160039054906101000a900460ff166200283b576040517f08c379a0000000000000000000000000000000000000000000000000000000008152600401620028329062011428565b60405180910390fd5b620028697f5e2488c3196eeb5ce269fb76f94de15395faf3ab032d714973a2d14312a98fb360001b62000ee2565b620028977fcf6aef16e82db3d04d73b981edb1f1848d4eff3253fa550f497e689690dfc1f360001b62000ee2565b620028c57fba06fe97afe81666cb03afaa416a6a5676be0cd179ccbb737360fc7012b9d8be60001b62000ee2565b620028f37fdd4e986667783a26dc4f9503ff7fd3fec5195650394870ca63c0e199f7882abb60001b62000ee2565b620029217f264c498de60bebe92a792c1320ff25c9a1074766c034530ced4ba27050a1a8a860001b62000ee2565b6200294f7fbc74840c584c01f018b4612b07fa7f3364328d904c03eac8053f4597b225bb8d60001b62000ee2565b7f000000000000000000000000000000000000000000000000000000000000000061ffff16816200297f6200c18c565b6200298b9190620119f6565b1115620029cf576040517f08c379a0000000000000000000000000000000000000000000000000000000008152600401620029c690620114f4565b60405180910390fd5b620029fd7f8667e62ed6fd3e5f8c2de2cd407d2d907e7c4c3f1d86aca777167ca2db35e6f960001b62000ee2565b62002a2b7f1320da25e4ccc225dc0d22298531993a42187a7f4e70317e70f3a08d81ac203060001b62000ee2565b62002a597f049824a209a448461e56936de5eaa79cbe03d5eb71a8e90cc42a6fb56f63dc3460001b62000ee2565b62002a877f9b98b33c0a9b9109dcb2bb5df0c698624bf380c4eaa26ecc9f3b8ab42ba3d2c460001b62000ee2565b601660010160009054906101000a900461ffff1661ffff168162002aab336200c1fd565b62002ab79190620119f6565b111562002afb576040517f08c379a000000000000000000000000000000000000000000000000000000000815260040162002af2906201155a565b60405180910390fd5b62002b297fa2057552a162895813c10eb5c4c34cebbd9fcbd2e8f68164d3f791e59244562960001b62000ee2565b62002b577f71768496d51db390a85f9e57bd6aaeda69c0a9dc1f7c9e5bd84361bc383ee38d60001b62000ee2565b62002b857f973985b22b8d385cd6e3e45f54198c1d92864c3237fc6224b60db6842919ac0960001b62000ee2565b62002bb37fbcab300d3bb6d405f802d5f492372aa518c4fcd57284f26e763b956009124aa860001b62000ee2565b346016600001548262002bc7919062011ac9565b111562002c0b576040517f08c379a000000000000000000000000000000000000000000000000000000000815260040162002c0290620112d4565b60405180910390fd5b62002c397f02c58d9da03949ac444c1c753455917576fde5f817b02cf252cca29f3af60be560001b62000ee2565b62002c677fb8cd2fd6fc4a5ff89ff7b168f6da27d24d160be77565b8bc53cb212d648acdd760001b62000ee2565b62002c957f6f2fea9044601221dc93d1b00714c495d1379fced5f18fe41d9dc009f94e2c4b60001b62000ee2565b62002ca133826200c411565b62002ccf7f3ed7537aceae16694a2977dca60363340837a29d2ea116f644c8f20586e37c1d60001b62000ee2565b62002cfd7f602c6425272be6531248d4bdaade1aab29bf71c42c56b826d6c2b36289253f3d60001b62000ee2565b62002d2e600d60030160009054906101000a900473ffffffffffffffffffffffffffffffffffffffff16346200c4bb565b50565b600062002d617fb88600d1a20556b92fae9eda5fd3da32077574059d3aba9ccdd12b80e6bb199560001b6200acea565b62002d8f7f9d7b970f82f395e9b672eb0c00bdfd07797577e149cdef02e287500586a18e2860001b6200acea565b62002dbd7f838230f7436a1ac6f167aef274cc3bbe297d90c343fdeb441bcba7b646ccec3d60001b6200acea565b62002deb7f7f1fd2e4ca3f0794301298165570a3abad25bf97b2fc846f57950a31d438fb1660001b6200acea565b62002df6836200596c565b821062002e3a576040517f08c379a000000000000000000000000000000000000000000000000000000000815260040162002e3190620111a2565b60405180910390fd5b62002e687f4a5cebfe40c3912b02ad6481ae897606087980f598bf697f280ae20d030ac7a260001b6200acea565b62002e967fa6efd76382ddf97d842f51f5255c9cebb5fc14180ab5d527418e09282c0c95dc60001b6200acea565b62002ec47f018c2b0d876f9e3103be7acf8e2ad8f7424134deabccd4efd38874a42fca916460001b6200acea565b600062002ed06200180a565b905062002f007faf5447126330bb542577896b0f9221b6ff975375121f489420afac5c6a956b6260001b6200acea565b62002f2e7f7f4daa4b9cafc486d9785d0352086c271178c74390090a844005f3fab638532160001b6200acea565b600062002f5e7f499f5a229b83245451fbf89b1f6ca058ec10e7b1162fea0e7a863a3c07d823c960001b6200acea565b62002f8c7fe3dc702da8407bd10c21b53652fb58b76c4e2378989132f09196abea1b7e0b3460001b6200acea565b600062002fbc7f59a872f8c9c8b0d0691ba44a4f676dad97ec222e6da178682c0b1e80e79692b660001b6200acea565b62002fea7fb34e4699b15210f73275f37bedebf75ebd43453c032ffb61569fccccf6e737e460001b6200acea565b60005b83811015620034e657620030247fa1179181185764350c7396f432b77d8949f5b265eb591c0ea1889b9c5760590f60001b6200acea565b620030527f7b9f7e214c424f284407ee3d98e5333bdf28d708b81f9bd4ce07b321e6be487260001b6200acea565b6000600460008381526020019081526020016000206040518060600160405290816000820160009054906101000a900473ffffffffffffffffffffffffffffffffffffffff1673ffffffffffffffffffffffffffffffffffffffff1673ffffffffffffffffffffffffffffffffffffffff1681526020016000820160149054906101000a900467ffffffffffffffff1667ffffffffffffffff1667ffffffffffffffff16815260200160008201601c9054906101000a900460ff1615151515815250509050620031457ff70531f3b199e30a38275bafc564fa5b754e3c4f902158bb526555acab0ca68860001b6200acea565b620031737f6a94f8bb97cdf94fa9965abae59ca1e8d94ba2007622842b96d30df647b4135060001b6200acea565b600073ffffffffffffffffffffffffffffffffffffffff16816000015173ffffffffffffffffffffffffffffffffffffffff16146200324357620031da7f7bf46e871d89cc9548d17f45f2922f9bd5e1b74182fea422f0e719979681bfad60001b6200acea565b620032087f32f11f99015ac8b3205868dd9c46a89f31f1c20088834d91441f072f889c558a60001b6200acea565b620032367fccfd29abed1e04ea3be8b5979eba7b92c597a23768c3e702e2c7fcf1b0d6dd6660001b6200acea565b8060000151925062003272565b620032717f49aaa74c37d0fc95648fbe806d7fddf4eed49f1a3ba341aaeeddbfcece67f05060001b6200acea565b5b620032a07f11ae102edc76b1ea97a3db084d92705a30385347e0644980855c444371e5b3f460001b6200acea565b620032ce7fd8ef9eec927d1032df26083150e186633b21d3853afc871b7e6bc19ff7c0ad0f60001b6200acea565b8773ffffffffffffffffffffffffffffffffffffffff168373ffffffffffffffffffffffffffffffffffffffff161415620034a057620033317f8a5f7760c121fce2e99870faf0594c4ad81cdde78367cc1fea3ec6a90da64e8160001b6200acea565b6200335f7f57fb9c1055758ca78000f4b1566534700ee9bad2ecabaa7e1e6913422f3488d960001b6200acea565b6200338d7f227d20eccb85e50008b99428815d5eb922f214dccd42a4222237820fa795d67960001b6200acea565b868414156200342e57620033c47fb6dfcb9cf2b4608b5ff6ae28d2d053972ded72e158beb9b49d20838bd4faa08760001b6200acea565b620033f27f7b81d070bb0a481a1ac3fcff888ddb39fc811d7fa83dfdb803edc77ea14933d060001b6200acea565b620034207f22e8bcfbd3c84fb03a27f0c559c58c6fc0c4b212a38d5850066e92fd0d7bfaee60001b6200acea565b819550505050505062003580565b6200345c7f2fcc8ab53488d074ef53ab799aa26165722c0a6b14afff9aca581cab2ede7e6860001b6200acea565b6200348a7f69a163044a757ec83c74d03cc928ebfca7e1cc43bab207b8e2dfeb00847093ed60001b6200acea565b8380620034979062011cee565b945050620034cf565b620034ce7f08a32e6106486a2cb8625786cb848b69a390d8fae7f3eb28ffbe5fe8ac39610260001b6200acea565b5b508080620034dd9062011cee565b91505062002fed565b50620035157f7051342a7bc83230d4c244746fb6517b1ea770204760fafb95c5e8aebfa749c960001b6200acea565b620035437f0acc0bee344ff35bb852588d60272fe8094c5e5fbafe3c1eda7df90f4a5fe65160001b6200acea565b6040517f08c379a00000000000000000000000000000000000000000000000000000000081526004016200357790620116f2565b60405180910390fd5b92915050565b80620035b57fcaddd6970fa024fb87d4d52c3ca8b51e25cd09226ce49149423d5035a64d2eb060001b62000ee2565b620035e37f9a4953104c3ff479741d622c1cf3d389a91b5f16519327eb2706d1ec25ea9ddd60001b62000ee2565b620036117f4c402687ff2e04e22bd967653802c83d008810d8ea029aa89748bdbf28d7d7ab60001b62000ee2565b6200363f7fdf0c012129b49ee00a94d1e056bde29d3395b9f2cd05662adcc804e41baabaf860001b62000ee2565b601e60008261ffff1661ffff16815260200190815260200160002060009054906101000a900460ff1615620036ab576040517f08c379a0000000000000000000000000000000000000000000000000000000008152600401620036a2906201122a565b60405180910390fd5b620036d97f132481edc2bdeb218f43660bcc787db2976ba20f32528950bbad2c7874c9f5bc60001b62000ee2565b620037077fabac8ec974d6608bb9beea6324aeae6798836669422531d26586522c02421c4760001b62000ee2565b6002600a54141562003750576040517f08c379a0000000000000000000000000000000000000000000000000000000008152600401620037479062011736565b60405180910390fd5b6002600a81905550620037867fd3230b06ae077d3ffad39409e9e46b6daa1a6775b576d78a4df7a98815037a3060001b62000ee2565b620037b47ffd7a4fe6ca2882538329bbdc3d56adac3df96e2706c37f3566098d5324f6aa0f60001b62000ee2565b620037e27faf4468df731d10ba5339d7f82529ed82f941358039f4a8229bd62e2e74ce910560001b62000ee2565b620038107fe48a741b8d2edf5ab912b970818701da7e8690fb715734a48514c7541f7c973760001b62000ee2565b6200381f8261ffff166200ad57565b62003861576040517f08c379a00000000000000000000000000000000000000000000000000000000081526004016200385890620113c2565b60405180910390fd5b6200388f7f92662e98e344650fed4212d02f4895badc8737a3ab39e9cbe44d187d02bf631760001b62000ee2565b620038bd7fbddaada7114f3843439547f2537b5e20576fe2510c8ed90a61b9710180b3840060001b62000ee2565b620038eb7fb3f334a5d3e5816656f97a8ad67f3cd25eab81c39037bdb552f7d43c835d835360001b62000ee2565b6000620038fc8361ffff166200c717565b90506200392c7f6e6e5768065af284f90f0075d6bb59ace89bb3c11c81aaddfb1185114a711b5e60001b62000ee2565b6200395a7f338268b8ea8d819a0cff8e974b31bb891ec6acb3009c669a9a85200e51bc7a7260001b62000ee2565b620039887f69ab3cedc7e22943d90d3b8aa131342f8f99508f4ff3875c4c94caf2e83b978a60001b62000ee2565b806000015173ffffffffffffffffffffffffffffffffffffffff163373ffffffffffffffffffffffffffffffffffffffff1614620039fd576040517f08c379a0000000000000000000000000000000000000000000000000000000008152600401620039f49062011648565b60405180910390fd5b62003a2b7f0aed6d95be80c35ba1df561c0058a808527c62388ce04d3b2c259b878120cfc260001b62000ee2565b62003a597f05f2c3934a04aca04ed11343eb0e8174b55e106a628e08332b8e94884d97bbd660001b62000ee2565b62003a877f0af4f4ab2c37fefad5a099c375c24edebc5bdd6a41bf3573af388a12839818e660001b62000ee2565b62003a968361ffff166200ca99565b506001600a819055505050565b7f000000000000000000000000000000000000000000000000000000000000000081565b62003af57f09f86bbfb93bbcc4ab99c75e71055cef44b1cfd2c5b1bb36a78a5a0e88c0194560001b6200acea565b62003b237f576fc0c3210f6469514095f5371f7d853c1c8bc4ebb760d620919714af4ef07860001b6200acea565b62003b517f702ce2466e327af871ccdc06e156f78e4e1d2cb3ad7d32620a6f37b94196d6a660001b6200acea565b62003b6e8383836040518060200160405280600081525062008373565b505050565b62003ba17fd88d197db0347bfde102bc1448036242fe08d62518f74c3617d0e50067996dd460001b62000ee2565b62003bcf7fba794ade43acf1121c67dfae580086f57771fd433cee018f70bd2557c8c3a44260001b62000ee2565b62003bfd7fd15c47931d9a74e1c99a42d364882bccf7460eea1f8d98dce69a1419369ecd1560001b62000ee2565b62003c2b7fca1b8252a39de98e21edb93b49b72823e815b929a5ff9626dc19f4f1f915536e60001b62000ee2565b62003c356200ae33565b73ffffffffffffffffffffffffffffffffffffffff16600d60020160009054906101000a900473ffffffffffffffffffffffffffffffffffffffff1673ffffffffffffffffffffffffffffffffffffffff161462003cca576040517f08c379a000000000000000000000000000000000000000000000000000000000815260040162003cc19062011538565b60405180910390fd5b62003cf87f87e47288e9415c75aa0db3e22fdd61dc4e5bb4770547c00e11fd8834dcf09c9460001b62000ee2565b62003d267f5d97295b862bf71a6606f438934f24aec66092257ec9f7e96213f3878a5d0a9e60001b62000ee2565b62003d547ff541544f1913f7010ed9c8e929f273656314f1396b927ff87606f8589a0b6e6960001b62000ee2565b62003d827fd7b5f47dbde8c14593b2c46e1630567f81c82be1581856b5ca9802c29b72abac60001b62000ee2565b62003db07f7f799ef4e92816b6a525b44eaa606432c3584549b3e6204459bff35f6b0f5dbb60001b62000ee2565b62003dde7f7af5a53013f03472fda762a308de596906e88879e59ec58131f05995235c9f9560001b62000ee2565b600c60000160059054906101000a900460ff161562003e34576040517f08c379a000000000000000000000000000000000000000000000000000000000815260040162003e2b9062011318565b60405180910390fd5b62003e627f2b0bae5e3dbf0914205c4ac19efb6a00e52d34e23175136a9e25e412a66b25a660001b62000ee2565b62003e907f654061556e778a1e128e4e5e9a54c8ab0f285dcafd6c3a41500e7350277a869960001b62000ee2565b62003ebe7fac54a1861f327b771a238bd124bb34504192bbd15ebeebedc48008e56d80abe260001b62000ee2565b62003eec7f4a73e176bbb3e2def68bfbf10691f7a887f990969e00b1c05e0c7216ab219ab560001b62000ee2565b600c60000160009054906101000a900460ff1662003f41576040517f08c379a000000000000000000000000000000000000000000000000000000000815260040162003f389062011604565b60405180910390fd5b62003f6f7f6defa6d91d3edbcc87a246f17e06b88f55678f3f1d5dc3fc11877819e1852cf560001b62000ee2565b62003f9d7f802d304007c4cb6bfa162898bf9d234ca1e5ae5bb442222836ccf20c52832eb160001b62000ee2565b62003fcb7f48085bf0f41fddce6ece3d890ff993239b9f08b287ba401137d039ec50541e8b60001b62000ee2565b62003ff97f72c3d76a2bc1c1542ec90446ca05e8ab98e2958742f531ed795d07985653fea760001b62000ee2565b600c60000160019054906101000a900460ff166200404e576040517f08c379a0000000000000000000000000000000000000000000000000000000008152600401620040459062011428565b60405180910390fd5b6200407c7fe3793b3b598d460066313dc6a42e56a21aac758ae9d9e954fffe348b68ac2cfd60001b62000ee2565b620040aa7fc1fe57d8294f2007cd8f96e410f1502ef28975044549dde371e74e68436b689a60001b62000ee2565b620040d87fa88ce86a260b5b7721c851739b956b5805aea4fe97a0b3d00897b10346b0aa3960001b62000ee2565b6000600c60000160016101000a81548160ff021916908315150217905550565b601c6020528060005260406000206000915054906101000a900460ff1681565b620041467fbe6e1fb72e541c8e85d36f2a58ad7827d4522b7954cc428cd4f00f6edd3fbf9560001b6200b066565b620041747f7bd6eaff1d38e64a73c559c9f1d8808e35c8e88cef26f012320d981b89756ab560001b6200b066565b620041a27fb3f7cc634d16364cdc851a38dc7047d6aba0b4a79d9325168125d1cc23093ed760001b6200b066565b620041d07f5a65671baf67c4ada192460b590d909f787ac7943ea62a9232dc16955e3744df60001b6200b066565b620041da6200ae33565b73ffffffffffffffffffffffffffffffffffffffff16620041fa62006949565b73ffffffffffffffffffffffffffffffffffffffff161462004253576040517f08c379a00000000000000000000000000000000000000000000000000000000081526004016200424a906201157c565b60405180910390fd5b620042817f672a372ba51e90947cb95ef00b200aff5d39c0e116f0dbbf8e32ff34bc0112cd60001b6200b066565b620042af7f2795d7e11805d4410ef5b8da7cbe6b456441f994995e40cc4d5e4e813a8dbb7360001b6200b066565b620042dd7f9c153de7a452c491e33913adc3bdb4785aae06c365c6cdd32e7017f35cd4744760001b62000ee2565b6200430b7f056709c2abba36f52419fa334a4d57a292b5df2a4f1dd86ea43d2bc3943f493b60001b62000ee2565b620043397f8b8515d849db4ace843c719c295611654740ed4f483e7d7da8fbb54efb0c926960001b62000ee2565b620043677f215c586c9a199e7d04a78b9f8078a31a6911ec6e4154d1dc17a05c08b644ff9660001b62000ee2565b600c60000160009054906101000a900460ff16620043bc576040517f08c379a0000000000000000000000000000000000000000000000000000000008152600401620043b39062011604565b60405180910390fd5b620043ea7f23b062be690ef2fa6d6f820e3be787a68fa83f8d038c02205824924bef96dd6660001b62000ee2565b620044187f63b1a1407f1daf446260e1935336969955d8cec4e2eee95d99f4138a6b29122660001b62000ee2565b620044467fd5c6e6e9f6e4eb90f2501461d81d101d6c73b99dff4f2d73c6e1e49517edfc6c60001b62000ee2565b620044747f531a56b9f0c83305108eea6ec9fcafb66b7c75043940595e74488b05d1b02faa60001b62000ee2565b600c60000160059054906101000a900460ff1615620044ca576040517f08c379a0000000000000000000000000000000000000000000000000000000008152600401620044c19062011318565b60405180910390fd5b620044f87f80d45b89f276577a6f6f7863dfd2e640594de0894156df5714b7b47a5881dd3060001b62000ee2565b620045267f69811a5fe8091eb8b69a5583d5e1d778ccda2820265167720d285f46fb7cddcd60001b62000ee2565b620045547f82dc72d75db396ea20f235b401d6b9d28896637cc03973c68023f474db6e578560001b62000ee2565b620045827ffe5b4c237a12a430180462e6db1182fe8ed037ddb034f998430fbb79df06f2f360001b62000ee2565b600c60000160029054906101000a900460ff1615620045d8576040517f08c379a0000000000000000000000000000000000000000000000000000000008152600401620045cf906201124c565b60405180910390fd5b620046067faacc5518ad24cb67f9f9318832969ae9643ae07e4cb53c8c612cf2a8821d617e60001b62000ee2565b620046347f4fba313d4757496cfe949182d7d1f5a19cd4dbce69d192f6b5a2ac73028c27d660001b62000ee2565b620046627f1e83963791a1ff689a4f0616efdd06ca69f79b010e6336511e1c2a20cd9b62a960001b62000ee2565b6001600c60000160026101000a81548160ff021916908315150217905550565b6000620046b27f7bc1a294c19f8573c42928c546f73261c5d79b90d2eb8dc62a53cd164ea1f2d960001b6200acea565b620046e07f64878c324350d3e49fa078d331ddbd6441289278e2fbc87014373e2c0b0f119260001b6200acea565b6200470e7f940dc89f158e1504367c5095a9558bc6d088ee1ae7babad09b036a948623718360001b6200acea565b6200473c7f940503791ac2f8ff045a4a1d3fa211c819c33e993ea4fe7ca21531b82d50cb7360001b6200acea565b620047466200180a565b82106200478a576040517f08c379a000000000000000000000000000000000000000000000000000000000815260040162004781906201133a565b60405180910390fd5b620047b87f8678ec917473c653efc12e2842d2c0075afaa4e5f426eedeb84ce522302d1cce60001b6200acea565b620047e67f3e04e7691dd7ddd412cb038e107db3b7139324fc910fbdb5159d944fd4e8f9c960001b6200acea565b620048147ffa2838ed906225d4cdce804f1ad9f94789ca4a879ac8c893db9c203f9d585b7460001b6200acea565b819050919050565b60138060000180546200482f9062011c82565b80601f01602080910402602001604051908101604052809291908181526020018280546200485d9062011c82565b8015620048ae5780601f106200488257610100808354040283529160200191620048ae565b820191906000526020600020905b8154815290600101906020018083116200489057829003601f168201915b505050505090806001018054620048c59062011c82565b80601f0160208091040260200160405190810160405280929190818152602001828054620048f39062011c82565b8015620049445780601f10620049185761010080835404028352916020019162004944565b820191906000526020600020905b8154815290600101906020018083116200492657829003601f168201915b5050505050908060020180546200495b9062011c82565b80601f0160208091040260200160405190810160405280929190818152602001828054620049899062011c82565b8015620049da5780601f10620049ae57610100808354040283529160200191620049da565b820191906000526020600020905b815481529060010190602001808311620049bc57829003601f168201915b5050505050905083565b600062004a147f270e1e441e165209edef5f35f8db5f6979c3948575f7157f145c783568b09eb960001b62000ee2565b62004a427f1dd79623ef23747532cbac73b51acbb294159ae22d0d9c13f32ee2df921d0e6a60001b62000ee2565b62004a707f1466b46a1590bd870447af7d96148309f440ac21f1c58e6eae266faf10c3c6a760001b62000ee2565b62004a9e7fc2f7ea19e1d8f42bbe4f394fc99fed9ccf1d0ec86e15ac8803f37cd5ad600b0260001b62000ee2565b600c60000160019054906101000a900460ff1662004af3576040517f08c379a000000000000000000000000000000000000000000000000000000000815260040162004aea9062011428565b60405180910390fd5b62004b217f8ab8263c03d74d7309f69d8f8f43d5c6ab05473a5539df8f49b1a6052536266f60001b62000ee2565b62004b4f7f3972d9327ad74262e4adb269b9390809d2b8225be7ef817d472e00828701569b60001b62000ee2565b62004b7d7f1d89e0b44a5b0bf8777f7783f0ff9c938aa445ece90cdf4e3bdfce9c48667b6160001b62000ee2565b62004bab7f50598534a101ec63d1a9af83bff3ab8fb7c3d54839395441979fbf590764851b60001b62000ee2565b62004bd97fd40c24b7589dbd39d2ee700ba01e110b8fe8f577418f300c86f404af8cfe747560001b62000ee2565b62004c077fe680288c3515ecd4c74bd36b93f4186d1d5ca43b9a955a4156d83ee30f3958db60001b62000ee2565b8160ff1660011115801562004c345750601660040160009054906101000a900460ff1660ff168260ff1611155b62004c76576040517f08c379a000000000000000000000000000000000000000000000000000000000815260040162004c6d90620113a0565b60405180910390fd5b62004ca47fcc23aef4b0b9a9a722f247b7d07f51ca02d49a841cb3b9b3df2e9f4531ed9a9f60001b62000ee2565b62004cd27f554108e0db12ca4003dcc52ed0e1df040f96d247c7b8d201168d5f4797039de660001b62000ee2565b62004d007f3f99b50b7772a913cde84bc4ee40d693b1edd2bf7862aa3244af6752f8f0dcc860001b62000ee2565b6000601f60008460ff1660ff168152602001908152602001600020604051806101000160405290816000820160009054906101000a900460ff1660ff1660ff1681526020016001820154815260200160028201548152602001600382015481526020016004820154815260200160058201548152602001600682015481526020016007820160009054906101000a900460ff161515151581525050905062004dcb7ff7a7b57e8a1134bd209f762c75bccf2ba475366d862edd5c53bef5132bde457060001b62000ee2565b62004df97f0f7f1ff03c6743c2a96304fc68f3109fd9b26bb03c4075590ade692e4bbec1ba60001b62000ee2565b62004e04816200cfbd565b915050919050565b60168060000154908060010160009054906101000a900461ffff16908060020154908060030154908060040160009054906101000a900460ff16908060040160019054906101000a900460ff16905086565b600062004e8e7fc2c4f37c2a457578afe54b133d7aefb6efeea1379e44990d1f0d06afe561532660001b6200acea565b62004ebc7f3d255dcd62c954650f71d456e46171aed835ce7c5fd60765bf52576090155b0d60001b6200acea565b62004eea7f12df1c656828bbf2ebef6069def87ae7aaf96fc192c1ad233a55a9e20f22822060001b6200acea565b62004ef5826200c717565b600001519050919050565b62004f2e7f9b3def55fbf468802a2213f4f65e79fab2cb541a4ff390dc4f4d998eb08dfe5860001b62000ee2565b62004f5c7ff5af1788da8059e7175e07ea146e43be307d710429004a8ac8287dffe681eb2760001b62000ee2565b62004f8a7fdda482145628889371d9ab9e37958bfa765a23f0df69856b7dafd81ffb2fd4d760001b62000ee2565b62004fb87f1ff39540ccfac2b97d516a2efbf17c8fa1c809df2b6b97cc7b868351cbe6945460001b62000ee2565b600c60000160059054906101000a900460ff166200500d576040517f08c379a00000000000000000000000000000000000000000000000000000000081526004016200500490620116d0565b60405180910390fd5b6200503b7fe81e1eabff63b00a1cb7f6ed1beb23eba29c5d7462375a692b87df1a4069a64d60001b62000ee2565b620050697f70b74ac0aa330833367d83236f32991b8d47e4df11f7b1e4333b472695c9fd8160001b62000ee2565b620050977fcc0a3d0a1abcb5bba825238f78ec125eb2337512f9d8b2d60f316c0ed28b829f60001b62000ee2565b620050c57fd9726603472bcbdb9621a74644d5d60d40e6ebe6517428a8192d15d14279421b60001b62000ee2565b600c60000160009054906101000a900460ff166200511a576040517f08c379a0000000000000000000000000000000000000000000000000000000008152600401620051119062011604565b60405180910390fd5b620051487f0e903a45ca2f4fd3d4f76b2089c3b0d37061012bf156c02cde2c54697540098c60001b62000ee2565b620051767f22746ec24e6c8d2e2c67e4efd6ed1af657655f9325568870575db9e3ebc0d4ce60001b62000ee2565b80620051a57fcaddd6970fa024fb87d4d52c3ca8b51e25cd09226ce49149423d5035a64d2eb060001b62000ee2565b620051d37f9a4953104c3ff479741d622c1cf3d389a91b5f16519327eb2706d1ec25ea9ddd60001b62000ee2565b620052017f4c402687ff2e04e22bd967653802c83d008810d8ea029aa89748bdbf28d7d7ab60001b62000ee2565b6200522f7fdf0c012129b49ee00a94d1e056bde29d3395b9f2cd05662adcc804e41baabaf860001b62000ee2565b601e60008261ffff1661ffff16815260200190815260200160002060009054906101000a900460ff16156200529b576040517f08c379a000000000000000000000000000000000000000000000000000000000815260040162005292906201122a565b60405180910390fd5b620052c97f132481edc2bdeb218f43660bcc787db2976ba20f32528950bbad2c7874c9f5bc60001b62000ee2565b620052f77fabac8ec974d6608bb9beea6324aeae6798836669422531d26586522c02421c4760001b62000ee2565b620053257f5bd8ddaf254bfbab06003cc0cb93bb79319a0a0c51122020f0051f5c3bd132b660001b62000ee2565b620053537f9eec3551b42e19f4efc1b9b536ebbe15bd0acb48758886c9b1132f5007d4d7b660001b62000ee2565b620053817fbbc2a52c465cc01b9af45dac4d0b248542577a89adaa62eeda89c0f2c7718b8a60001b62000ee2565b620053af7f0f87f11adcb37374667206344f032abb05d89bd0abd7c3bff49c3c480ddcdd3160001b62000ee2565b620053be8261ffff166200ad57565b62005400576040517f08c379a0000000000000000000000000000000000000000000000000000000008152600401620053f790620113c2565b60405180910390fd5b6200542e7f2ea4dc7a9ebc3fc073a23394f59a0fa8feb7040db79a5604c160cc90fd59e90a60001b62000ee2565b6200545c7f648f5bf332618832f8ce8661e11056c439f85f8fcba1b00fd7013b1f8c5bb86960001b62000ee2565b6200548a7ffafac3e469775eb71f4e66499e7762fd633da1f3bee62816d977bc72a8e41c2e60001b62000ee2565b620054b87f7a69c8ef832f08dfc1eb67d2125c9566d3e6a3e46b570025d1c0e47d904674a160001b62000ee2565b34600b54111562005500576040517f08c379a0000000000000000000000000000000000000000000000000000000008152600401620054f790620112d4565b60405180910390fd5b6200552e7f2ec781f43c7da480cadecc56daaae0ffa7b04fbf229ef6cf91bbe4596ff6214760001b62000ee2565b6200555c7f41937486ee25902c917c33d69cd300202e8aa4b04415de5ee024b4956636bd8b60001b62000ee2565b6200558a7f6bfdc9478ae69f054975e53644abaf3110f3c6e39c8eaa627d4c6dcb5c863c5e60001b62000ee2565b6001602060008461ffff16815260200190815260200160002060006101000a81548160ff021916908315150217905550620055e87fe8ace5102062a8b6f8aa810ee28f4c8bf762fb89538d447351462e1360aa773360001b62000ee2565b620056167faca13d8a0c07e10cb2e01f6070396113fcc40e763466d0e022e58af71a59d60360001b62000ee2565b62005647600d60010160009054906101000a900473ffffffffffffffffffffffffffffffffffffffff16346200c4bb565b620056757f926d86dd90cc9dedbf76cb481aa7316c86e55f1976afd3d7e561dfe0488098d860001b62000ee2565b620056a37f3e5b52daee7cf3c3453e5911aa53e1ab8d28c0b4734d563a20bc43f0ac937b4860001b62000ee2565b7f0154c2dfb98437384198b52913095489510f87da0fcc18a7a76717706e1d00858234604051620056d6929190620117b9565b60405180910390a15050565b600b5481565b620057167fc03ac95124f0c191e37cac23adf72810ee793f3d0556f855d169b69069a09d6960001b62000ee2565b620057447f4538406f283cdcd57ff5be02f844d5963d7e54af8577c826a0cdc8412b1f6e2460001b62000ee2565b620057727faeab61eb209251f2673dff92bf415f803db1765365bc2e11f4f4db052cd9ccdd60001b62000ee2565b620057a07ff8bbebcd52f4fdc36bae683910de488e07db5d707e587fe20904159e78d8489660001b62000ee2565b620057aa6200ae33565b73ffffffffffffffffffffffffffffffffffffffff16600d60010160009054906101000a900473ffffffffffffffffffffffffffffffffffffffff1673ffffffffffffffffffffffffffffffffffffffff16146200583f576040517f08c379a00000000000000000000000000000000000000000000000000000000081526004016200583690620115c0565b60405180910390fd5b6200586d7fd8cdc45b08e88ed54d847e8f309fe776ec6bda063f8f9f3928e34cf7b6be845860001b62000ee2565b6200589b7f05bc1ceaf53c641c479a4986274dca3bcc409c04387528fda4d331f3eba0991f60001b62000ee2565b620058c97fbd830b42086435770a3eb650f07334485e8e01b6891da7cdcfb8a333d4ff030060001b62000ee2565b620058f77fb2d70747ad9087b89f9e99242234f8cd4b364c7a8160b3a03c23df08a41783f460001b62000ee2565b620059257f5f2a792c56f9173b0890cf8a7a3fbad46e49e8943324656e90b803f3af54fa8260001b62000ee2565b80600d60010160006101000a81548173ffffffffffffffffffffffffffffffffffffffff021916908373ffffffffffffffffffffffffffffffffffffffff16021790555050565b60006200599c7ff45c316262e6f6c3c75a341fdd5dacaf7404fae2ab69556c845d1061f70fc9b060001b6200acea565b620059ca7f4a95ebcac147133b5eab3fc59fe216878abca9c2e1d8280799e963745dbe6d3c60001b6200acea565b620059f87ffe5a41573a28ca9bd0402dd5a305a47bda82b61e94480927dae5eb9d2f06c72c60001b6200acea565b600073ffffffffffffffffffffffffffffffffffffffff168273ffffffffffffffffffffffffffffffffffffffff16141562005a8e5762005a5c7faeeaa1bd392085550d35b104a76dd95a90efbd89411b97a1b247ee9d58b9f4fa60001b6200acea565b6040517f8f4eb60400000000000000000000000000000000000000000000000000000000815260040160405180910390fd5b62005abc7f77d41d179ac0f5182f47fc0c8ea4b8ecae229e107b625b918ec12c91a1ec616460001b6200acea565b62005aea7f95a034fd4b69ba261e95acc0ad0c11745f44dad186c42b4a562cd9f7c105116a60001b6200acea565b62005b187f61dbdc6b30e5298f09bfea36e0ece0556b4cc54bf7d314530a2255a7ea102e8c60001b6200acea565b600560008373ffffffffffffffffffffffffffffffffffffffff1673ffffffffffffffffffffffffffffffffffffffff16815260200190815260200160002060000160009054906101000a900467ffffffffffffffff1667ffffffffffffffff169050919050565b62005bae7fbe6e1fb72e541c8e85d36f2a58ad7827d4522b7954cc428cd4f00f6edd3fbf9560001b6200b066565b62005bdc7f7bd6eaff1d38e64a73c559c9f1d8808e35c8e88cef26f012320d981b89756ab560001b6200b066565b62005c0a7fb3f7cc634d16364cdc851a38dc7047d6aba0b4a79d9325168125d1cc23093ed760001b6200b066565b62005c387f5a65671baf67c4ada192460b590d909f787ac7943ea62a9232dc16955e3744df60001b6200b066565b62005c426200ae33565b73ffffffffffffffffffffffffffffffffffffffff1662005c6262006949565b73ffffffffffffffffffffffffffffffffffffffff161462005cbb576040517f08c379a000000000000000000000000000000000000000000000000000000000815260040162005cb2906201157c565b60405180910390fd5b62005ce97f672a372ba51e90947cb95ef00b200aff5d39c0e116f0dbbf8e32ff34bc0112cd60001b6200b066565b62005d177f2795d7e11805d4410ef5b8da7cbe6b456441f994995e40cc4d5e4e813a8dbb7360001b6200b066565b62005d457fc285b473fe21be7b5d82d950d99d144ba2785661f2deddc038618e5d0ff16f4260001b6200b066565b62005d737f053e72dd8826608f72578c42f88133a49e24269410beac02b88faea8d13c977760001b6200b066565b62005da17f14cd7603f35d6cb63cd24f166f7699a9acaa8a722bebb6ce17bf3821e045b79c60001b6200b066565b62005dad60006200d3b6565b565b62005ddd7fd88d197db0347bfde102bc1448036242fe08d62518f74c3617d0e50067996dd460001b62000ee2565b62005e0b7fba794ade43acf1121c67dfae580086f57771fd433cee018f70bd2557c8c3a44260001b62000ee2565b62005e397fd15c47931d9a74e1c99a42d364882bccf7460eea1f8d98dce69a1419369ecd1560001b62000ee2565b62005e677fca1b8252a39de98e21edb93b49b72823e815b929a5ff9626dc19f4f1f915536e60001b62000ee2565b62005e716200ae33565b73ffffffffffffffffffffffffffffffffffffffff16600d60020160009054906101000a900473ffffffffffffffffffffffffffffffffffffffff1673ffffffffffffffffffffffffffffffffffffffff161462005f06576040517f08c379a000000000000000000000000000000000000000000000000000000000815260040162005efd9062011538565b60405180910390fd5b62005f347f87e47288e9415c75aa0db3e22fdd61dc4e5bb4770547c00e11fd8834dcf09c9460001b62000ee2565b62005f627f5d97295b862bf71a6606f438934f24aec66092257ec9f7e96213f3878a5d0a9e60001b62000ee2565b62005f907fb1e79dd2d1942945d180d052dff7c7db42f329917d9aba194f717e0842c0973e60001b62000ee2565b62005fbe7f9155658fb43d8e9b597ff776811f0d6a6ce2f731f521a89f680d5f78f50b5c2b60001b62000ee2565b62005fec7f8e5c84bffdb97d6969bcd41334f82dd3d3d469adc47277b1c206eda02c91a47160001b62000ee2565b6200601a7ff4cde8c972d4648e64e5df67d799149e0dc26a202848412288afe8989ce63d7660001b62000ee2565b600c60000160059054906101000a900460ff161562006070576040517f08c379a0000000000000000000000000000000000000000000000000000000008152600401620060679062011318565b60405180910390fd5b6200609e7f1c6a4e4bfbad53579bd341deb82a1b455113d1fec6f16e8e35681aa90fd3113160001b62000ee2565b620060cc7f23ad7a10dae17f0b683b6a331b1abff97907b84fd0ab6d2989a0bdaa7fb4c34e60001b62000ee2565b620060fa7f1aba7df74f2f70afe967fef35c38765fd5fda5f9bf1032485b40797266855d9560001b62000ee2565b620061287fe58f627f70fb9c01e0222b7dc9aceed681c717977436216e4be46711bb36cb1a60001b62000ee2565b600c60000160039054906101000a900460ff166200617d576040517f08c379a0000000000000000000000000000000000000000000000000000000008152600401620061749062011428565b60405180910390fd5b620061ab7fe8832194d8dad6d389ac6799674adb4264c496fca35c386ee534dfda302f00f860001b62000ee2565b620061d97f1881f537b46ea3f48d1561d054e7df205bf401c96e974674fdd2706c6676b48c60001b62000ee2565b620062077f715aabeb5b54cfae681a194d73281ee87620352ecd361a858eded23555b68a6260001b62000ee2565b6000600c60000160036101000a81548160ff021916908315150217905550620062537fbc42e40a737d6127422ba3ce18cb175c0981e10382f58d85f144d809e3e6dd3e60001b62000ee2565b620062817f03c9fadadfcdb93ef3f27ba61c0ae70fba5c78a8db57d15d030c5c76b0695e5960001b62000ee2565b6000600c60000160016101000a81548160ff021916908315150217905550620062cd7fdba39775144e5dda6edc6c497d0df351fa3f05ee2cc34a08285cc0cfc3ae1db760001b62000ee2565b620062fb7f5092d5eae497230c1d5acfd35fba25e9cb1464cd2db1306852518363b21c76f560001b62000ee2565b6000600c60000160026101000a81548160ff021916908315150217905550620063477fb3fd471a4c7e1e1783553f276a765d1e3dbf5ad24c32e6e2803fcfd70b97aa1d60001b62000ee2565b620063757f380423eaf2f8527e8ae2b98070370325bec9960bd293c29fcde68a9e6df4391360001b62000ee2565b6001600c60000160056101000a81548160ff021916908315150217905550565b60046020528060005260406000206000915090508060000160009054906101000a900473ffffffffffffffffffffffffffffffffffffffff16908060000160149054906101000a900467ffffffffffffffff169080600001601c9054906101000a900460ff16905083565b6200642e7fbe6e1fb72e541c8e85d36f2a58ad7827d4522b7954cc428cd4f00f6edd3fbf9560001b6200b066565b6200645c7f7bd6eaff1d38e64a73c559c9f1d8808e35c8e88cef26f012320d981b89756ab560001b6200b066565b6200648a7fb3f7cc634d16364cdc851a38dc7047d6aba0b4a79d9325168125d1cc23093ed760001b6200b066565b620064b87f5a65671baf67c4ada192460b590d909f787ac7943ea62a9232dc16955e3744df60001b6200b066565b620064c26200ae33565b73ffffffffffffffffffffffffffffffffffffffff16620064e262006949565b73ffffffffffffffffffffffffffffffffffffffff16146200653b576040517f08c379a000000000000000000000000000000000000000000000000000000000815260040162006532906201157c565b60405180910390fd5b620065697f672a372ba51e90947cb95ef00b200aff5d39c0e116f0dbbf8e32ff34bc0112cd60001b6200b066565b620065977f2795d7e11805d4410ef5b8da7cbe6b456441f994995e40cc4d5e4e813a8dbb7360001b6200b066565b620065c57f03ff664e21127a025df9f6436328622bd1a794d3b9d24c4940fce0c1500cd76260001b62000ee2565b620065f37fffa16dacb66b760420b9b16df64fbc19f27b4e08a9d6a908ae899738e9e09f7c60001b62000ee2565b620066217f6ffbaa6f4dc14592aba42c72b75b4141e4e3b1a94db3ed1de0e12d3ca903370560001b62000ee2565b6200664f7f402214903c58a3825bd26046c24afc073c748935d1e8b48997ff22bf38a7f64560001b62000ee2565b600c60000160049054906101000a900460ff1615620066a5576040517f08c379a00000000000000000000000000000000000000000000000000000000081526004016200669c906201148e565b60405180910390fd5b620066d37fadb44f32909959743d6a92376b00483e16d90707eeca94dbc25b22a97c9211a860001b62000ee2565b620067017f2026adc95ec327f83c70cf7938c7fab9fed30ea573c933d814d74935217df0c860001b62000ee2565b6200672f7f75a1a89f6ae473bfcf9a77d5ff9d8223d3181fb5f903e3787e273e0f05ca3fd860001b62000ee2565b600081519050620067637f736a8d2045ebe615b33b273c75486c62692adddc31269a6e0c593e606fe5339b60001b62000ee2565b620067917f1afd6b864b85925166a4439ec315b4e50a6423e4ec62234afa6c92329d3c2e1c60001b62000ee2565b620067bf7fb9d3c348e93ccee2696e9ef3371483ac509a4280b0d33077037469406beaf2d160001b62000ee2565b6000811162006805576040517f08c379a0000000000000000000000000000000000000000000000000000000008152600401620067fc906201177a565b60405180910390fd5b620068337f52144e9ec246e8a4511cd5e3250aed8e6cc83ee27b8e8fb48917c60aeac424dd60001b62000ee2565b620068617ff1cf0ef777f8852a72141f8d1bc74279e760f21a86f8932f05d19dedbbf6fc3060001b62000ee2565b6200688f7f327ccad91b341284a8d0a4c4289f3beb50c1dd48a643d8fbfca64a13eece327f60001b62000ee2565b8160136002019080519060200190620068aa9291906200fbaf565b50620068d97fa2b4180132023e7b14ade680b80bce51c329ad8bbbaf9a283b33e10740bd10f760001b62000ee2565b620069077ff7ee26e863b5b29398a8ff3746274036ffd3624b1d138da9e57c2c4fbf52c48560001b62000ee2565b6001600c60000160046101000a81548160ff0219169083151502179055505050565b601e6020528060005260406000206000915054906101000a900460ff1681565b6000620069797fe23d6a206e5bc100cbd0e1f7027ebc755de60649e434e912702a790dacbe7adf60001b6200b066565b620069a77fb6566c662af4fd16e18ceb8fdf7b2314b9e88eaa197c2e5503f7fa6eadedada360001b6200b066565b620069d57fc84200282a5bce79175e79214396e5848fdc558f8eaea4c851ccacbceca55ac060001b6200b066565b600960009054906101000a900473ffffffffffffffffffffffffffffffffffffffff16905090565b62006a2b7fc03ac95124f0c191e37cac23adf72810ee793f3d0556f855d169b69069a09d6960001b62000ee2565b62006a597f4538406f283cdcd57ff5be02f844d5963d7e54af8577c826a0cdc8412b1f6e2460001b62000ee2565b62006a877faeab61eb209251f2673dff92bf415f803db1765365bc2e11f4f4db052cd9ccdd60001b62000ee2565b62006ab57ff8bbebcd52f4fdc36bae683910de488e07db5d707e587fe20904159e78d8489660001b62000ee2565b62006abf6200ae33565b73ffffffffffffffffffffffffffffffffffffffff16600d60010160009054906101000a900473ffffffffffffffffffffffffffffffffffffffff1673ffffffffffffffffffffffffffffffffffffffff161462006b54576040517f08c379a000000000000000000000000000000000000000000000000000000000815260040162006b4b90620115c0565b60405180910390fd5b62006b827fd8cdc45b08e88ed54d847e8f309fe776ec6bda063f8f9f3928e34cf7b6be845860001b62000ee2565b62006bb07f05bc1ceaf53c641c479a4986274dca3bcc409c04387528fda4d331f3eba0991f60001b62000ee2565b62006bde7f9a47aebf5e00cd04e30701715b6a6c6970b60f32bccd533ff5678ce4fde46f5260001b62000ee2565b62006c0c7fd012930854fde40602c386be8fab27e56be72a542988fa8e1b0f42f3ac3a708660001b62000ee2565b62006c3a7fb3780d983707ac263a9f531fccb51f819229db6c0211bc72ed39af24b8184f7d60001b62000ee2565b80600d60050160006101000a81548173ffffffffffffffffffffffffffffffffffffffff021916908373ffffffffffffffffffffffffffffffffffffffff16021790555062006cac7f6046243a81de82f22377526686c6be8e6e1cd9f0b85a8364f91e670780529f0260001b62000ee2565b62006cda7f6c5b7598f8f83f46b4619e9685340fe0d73d6dc81921abf531aa28acce85e64860001b62000ee2565b62006d1d600d60050160009054906101000a900473ffffffffffffffffffffffffffffffffffffffff16601660040160019054906101000a900460ff166200d5be565b50565b606062006d507f6ec97085432160f4d671a4aa9ce1cb4ffdc793b43aa0c66d70682b2439cebaa760001b6200acea565b62006d7e7f27d6cdaeb78d9dfa520612083728d868d2681bca19be2e85391f52aa5c8e46cc60001b6200acea565b62006dac7f24fbecd2e6fa9fd6be5eac80b8cd3f1d01af1c0e409e541a646b5dd06e73429760001b6200acea565b6003805462006dbb9062011c82565b80601f016020809104026020016040519081016040528092919081815260200182805462006de99062011c82565b801562006e3a5780601f1062006e0e5761010080835404028352916020019162006e3a565b820191906000526020600020905b81548152906001019060200180831162006e1c57829003601f168201915b5050505050905090565b62006e727fbe6e1fb72e541c8e85d36f2a58ad7827d4522b7954cc428cd4f00f6edd3fbf9560001b6200b066565b62006ea07f7bd6eaff1d38e64a73c559c9f1d8808e35c8e88cef26f012320d981b89756ab560001b6200b066565b62006ece7fb3f7cc634d16364cdc851a38dc7047d6aba0b4a79d9325168125d1cc23093ed760001b6200b066565b62006efc7f5a65671baf67c4ada192460b590d909f787ac7943ea62a9232dc16955e3744df60001b6200b066565b62006f066200ae33565b73ffffffffffffffffffffffffffffffffffffffff1662006f2662006949565b73ffffffffffffffffffffffffffffffffffffffff161462006f7f576040517f08c379a000000000000000000000000000000000000000000000000000000000815260040162006f76906201157c565b60405180910390fd5b62006fad7f672a372ba51e90947cb95ef00b200aff5d39c0e116f0dbbf8e32ff34bc0112cd60001b6200b066565b62006fdb7f2795d7e11805d4410ef5b8da7cbe6b456441f994995e40cc4d5e4e813a8dbb7360001b6200b066565b620070097f5ea6391b50d64ccf3b34ab7bb631c84ca12af09f08d1dfd9b53d7b2a5f4a111e60001b62000ee2565b620070377fb4e6b7968c04ffcaecd32bc92bd40329f9a70ce72a1246b94f904417b6b6b80a60001b62000ee2565b620070657f2fe76c02fd05e0662aeb87e7ccaf01f638601ed8bbca89ce0929f6eb9672f8d460001b62000ee2565b620070937f6a21d2e90ede523291b9e7e81a4996bc431f4a166af4bad34480a34ab312add660001b62000ee2565b600c60000160009054906101000a900460ff1615620070e9576040517f08c379a0000000000000000000000000000000000000000000000000000000008152600401620070e0906201135c565b60405180910390fd5b620071177f1ca566c529ef314a84293663ff80e6f25ebd3e47bae835be6de8d84f7e7b1cfa60001b62000ee2565b620071457fa439d1564ff870ed9798e1fa6ba28724e9bdaaeec6003c901b7e0fc8f3b1c22760001b62000ee2565b620071737f108a2ffbe49d56560da7f73d8acfb7e86e81bf1aa4b2a4413051e4747738c42760001b62000ee2565b620071a17f72497156add4e7faadef24f91927ace2f77fe204642589f2ead3daf2d5e65c3b60001b62000ee2565b600c60000160059054906101000a900460ff1615620071f7576040517f08c379a0000000000000000000000000000000000000000000000000000000008152600401620071ee9062011318565b60405180910390fd5b620072257f51eb3a4e0b02339d7030c52982e81473f1e9e7ceea8c76c9955f7d0fcc2f2a0a60001b62000ee2565b620072537f253b4b6b722b3c209f71ab11c1c393f8b565bd0388c65678b02a5278d6f3104760001b62000ee2565b620072817f43bce2632d4469076cbc85afc2e8fb089464dadd1615ec290d77d6293a44365c60001b62000ee2565b620072af7feccd9d313c08907d19d91be6eb40f4ab4689489c5554eb24e0983c7c04ddb2d660001b62000ee2565b600c60000160019054906101000a900460ff161562007305576040517f08c379a0000000000000000000000000000000000000000000000000000000008152600401620072fc906201124c565b60405180910390fd5b620073337fd38927d1710e65c5b4be3ddb9e95db384d8d25950b65e7f1d1d4d0baf696142860001b62000ee2565b620073617f6bf33f9dff3b8bd5d064ed3d58f8c1816b1d40f6ebf7f2031dd90341ca72f99a60001b62000ee2565b6200738f7f10f94b02be316f4a7c0ebd7fa7c51c91c8e069bdce28ee2ad7793160abce929660001b62000ee2565b6001600c60000160006101000a81548160ff021916908315150217905550620073db7f963dc9a3c990af1136aab0e75e0865683100828cf8742e7342fffd2b0b22acc360001b62000ee2565b620074097fcb3974aeb54c3f65300aba90e16588a536d58cdd98ff169bbd0fa85b9ca71d1e60001b62000ee2565b6200746e8282808060200260200160405190810160405280939291908181526020016000905b82821015620074635784848390506080020180360381019062007453919062010300565b815260200190600101906200742f565b50505050506200d6e7565b6200749c7f5a2cdfbba65e75b40aa4aa7d54b3d92d79d12a42c4073a94965caf0b5175682360001b62000ee2565b620074ca7fc164e2d1de6ea1d3f31c7fe484278fcbed036c3f6396dd698e1f00e67a1111ef60001b62000ee2565b6001600c60000160016101000a81548160ff021916908315150217905550620075167fcb3b90e2926500922dfa812b71c4295a8b3e832f7e15d2b98516cf7abc96570960001b62000ee2565b620075447f4fdac89a23e0fa713c7fd63299fa0b153b7f18c05964d4c35685de26e0c5343160001b62000ee2565b62007587600d60050160009054906101000a900473ffffffffffffffffffffffffffffffffffffffff16601660040160019054906101000a900460ff166200d5be565b5050565b6000620075bb7f32f55915070bc5cab5944eee36e997768f242268c6618bfd006b80905907352c60001b62000ee2565b620075e97fbb788282797a60cb7e4de92d4d2b7e866b4eaf10d536054a34a16c169e610d2760001b62000ee2565b620076177f37a28428a8abef179598190bb84ab18c16a53f125d72af06c44d4f3c1cf17e6460001b62000ee2565b600062007650878787604051602001620076349392919062010e19565b604051602081830303815290604052805190602001206200df7c565b9050620076807fd12fdad1e21e16977aaff36c5a277a49390e806d553c7c65d80ce9f0307ed05360001b62000ee2565b620076ae7f3fff56dc5a8054ab5c792de31c2310c9616049232bf843a61fa8715bcc30855660001b62000ee2565b600d60040160009054906101000a900473ffffffffffffffffffffffffffffffffffffffff1673ffffffffffffffffffffffffffffffffffffffff166200773a8286868080601f016020809104026020016040519081016040528093929190818152602001838380828437600081840152601f19601f820116905080830192505050505050506200e038565b73ffffffffffffffffffffffffffffffffffffffff161491505095945050505050565b6200778b7fbe6e1fb72e541c8e85d36f2a58ad7827d4522b7954cc428cd4f00f6edd3fbf9560001b6200b066565b620077b97f7bd6eaff1d38e64a73c559c9f1d8808e35c8e88cef26f012320d981b89756ab560001b6200b066565b620077e77fb3f7cc634d16364cdc851a38dc7047d6aba0b4a79d9325168125d1cc23093ed760001b6200b066565b620078157f5a65671baf67c4ada192460b590d909f787ac7943ea62a9232dc16955e3744df60001b6200b066565b6200781f6200ae33565b73ffffffffffffffffffffffffffffffffffffffff166200783f62006949565b73ffffffffffffffffffffffffffffffffffffffff161462007898576040517f08c379a00000000000000000000000000000000000000000000000000000000081526004016200788f906201157c565b60405180910390fd5b620078c67f672a372ba51e90947cb95ef00b200aff5d39c0e116f0dbbf8e32ff34bc0112cd60001b6200b066565b620078f47f2795d7e11805d4410ef5b8da7cbe6b456441f994995e40cc4d5e4e813a8dbb7360001b6200b066565b620079227f60ad6ffe885a39809eb5fd7c73ad2832b6521456268a147492dd6273b759f0ac60001b62000ee2565b620079507f95d567e71d159a672a3fedc73f0aa6444d3fab126a56c8906ecc645eaccbfb5c60001b62000ee2565b6200797e7f754dc873753ec0bb02cc8594bfe775f2bb924cb961a362be8dc4609305dcd49e60001b62000ee2565b620079ac7fb911417a13e80c6470045e29fbff0c043634aae2f8fb12ed9022ec2bb66cdc7260001b62000ee2565b600c60000160059054906101000a900460ff161562007a02576040517f08c379a0000000000000000000000000000000000000000000000000000000008152600401620079f99062011318565b60405180910390fd5b62007a307ffc22b2c8641d87b802dbe79749830d3025d194fdc757ed85c38b0f22b5c0052a60001b62000ee2565b62007a5e7f6089fb331e76cd56c23c135b63f2eaa808c6fc1aa2f8ec16767d5fae1f3ee14460001b62000ee2565b62007a8c7f9bc3a565237dd58f3777af22ade179a5b3d4f2e1cacc1026fe28cb33af65df3160001b62000ee2565b62007aba7fc5f28e5beca706c444e470cf45a6427fad4df14eefc7f687bea5d61d4ca68b6a60001b62000ee2565b600c60000160039054906101000a900460ff161562007b10576040517f08c379a000000000000000000000000000000000000000000000000000000000815260040162007b07906201124c565b60405180910390fd5b62007b3e7fdaa8e9dfe6ec4a7b6bb75b140fbe14cd6e9b20a85ba8d5bc2cc6f390c296ea5460001b62000ee2565b62007b6c7fee07c58dfeb3cf460e380389915fb0c7aab467930e7ff85512d92880f84a19cc60001b62000ee2565b62007b9a7f607afac93eb2926dcf0aaec6666e2217e499e79b3c19ecdc79fae6230d44201760001b62000ee2565b62007bc87f5bbf0cafa884a6481beb45a4f8d8b60c41e62ec8115d1b7921e7007ce6f93ec360001b62000ee2565b600c60000160029054906101000a900460ff1662007c1d576040517f08c379a000000000000000000000000000000000000000000000000000000000815260040162007c14906201144a565b60405180910390fd5b62007c4b7fcb2b8b84e837873956020b4b844f5d51fe064a9048e396b1189d84ce6d4470e360001b62000ee2565b62007c797fe21ea234ed1bd45c344bf64c6c0c433b966cd2648e92361c0ddf6749ea4b8fd060001b62000ee2565b62007ca77fb1bfe0dcc1ccdf92e79cfd78a91267c4eee3e1c693e3c917efc858031f88b17360001b62000ee2565b6001600c60000160036101000a81548160ff021916908315150217905550565b62007cf57fc03ac95124f0c191e37cac23adf72810ee793f3d0556f855d169b69069a09d6960001b62000ee2565b62007d237f4538406f283cdcd57ff5be02f844d5963d7e54af8577c826a0cdc8412b1f6e2460001b62000ee2565b62007d517faeab61eb209251f2673dff92bf415f803db1765365bc2e11f4f4db052cd9ccdd60001b62000ee2565b62007d7f7ff8bbebcd52f4fdc36bae683910de488e07db5d707e587fe20904159e78d8489660001b62000ee2565b62007d896200ae33565b73ffffffffffffffffffffffffffffffffffffffff16600d60010160009054906101000a900473ffffffffffffffffffffffffffffffffffffffff1673ffffffffffffffffffffffffffffffffffffffff161462007e1e576040517f08c379a000000000000000000000000000000000000000000000000000000000815260040162007e1590620115c0565b60405180910390fd5b62007e4c7fd8cdc45b08e88ed54d847e8f309fe776ec6bda063f8f9f3928e34cf7b6be845860001b62000ee2565b62007e7a7f05bc1ceaf53c641c479a4986274dca3bcc409c04387528fda4d331f3eba0991f60001b62000ee2565b62007ea87fcebacea4097a66ccad6206d1132ef1315b29532e16ca86bb02442a6417ec613960001b62000ee2565b62007ed67f2b84da992f4d5f7896fb266ba3d5c0498e8146028639a221bb3ccd98ac44916b60001b62000ee2565b62007f047f38475392c49d5ec97425f5e0967a9e11068a9a4954b909d4e022bbeb730dfed060001b62000ee2565b80600d60030160006101000a81548173ffffffffffffffffffffffffffffffffffffffff021916908373ffffffffffffffffffffffffffffffffffffffff16021790555050565b62007f797fc4b66029bec1097fd55be616713c573d6cd2edddbfbf2fde2b2a36cc7ce6afd660001b6200acea565b62007fa77f21a2630a944320755f0e0b0792c248693031ff571c21a61fcd202fabccd4805960001b6200acea565b62007fd57fc61d96abffd7862e159029cb3c9b99f6b5f6504cff233c7b05f7c3aae12c4ea560001b6200acea565b62007fdf6200ae33565b73ffffffffffffffffffffffffffffffffffffffff168273ffffffffffffffffffffffffffffffffffffffff1614156200807357620080417f4964541c51d85f4c4247ff3ceb06a72b840289b7f41a1b99423e246df2cf8ec260001b6200acea565b6040517fb06307db00000000000000000000000000000000000000000000000000000000815260040160405180910390fd5b620080a17f424b19c94333323c1ea8eb06df4b83f44b82286a77cdd6cadd2d063ea8b4ba2960001b6200acea565b620080cf7fd59c1ed84ab2d7f32b8eef6c8cd6150c96fb2bfcd91fe8377ae28d65c098997a60001b6200acea565b620080fd7f02fbc51875b901274a3412b94799ea9c60fb6f2e4431bd644097342fbe4e83fc60001b6200acea565b80600760006200810c6200ae33565b73ffffffffffffffffffffffffffffffffffffffff1673ffffffffffffffffffffffffffffffffffffffff16815260200190815260200160002060008473ffffffffffffffffffffffffffffffffffffffff1673ffffffffffffffffffffffffffffffffffffffff16815260200190815260200160002060006101000a81548160ff021916908315150217905550620081c87fe4d97683ad831828f2d21982630ec8d4d29c54d92d4b14340ee191677c57353a60001b6200acea565b620081f67fbb03f4e0b01d0ed7fd6a203f2f83432ef48e7729cea26bccb91769193458f57260001b6200acea565b8173ffffffffffffffffffffffffffffffffffffffff16620082176200ae33565b73ffffffffffffffffffffffffffffffffffffffff167f17307eab39ab6107e8899845ad3d59bd9653f200f220920489ca2b5937696c31836040516200825e919062011033565b60405180910390a35050565b602080528060005260406000206000915054906101000a900460ff1681565b600d8060000160009054906101000a900473ffffffffffffffffffffffffffffffffffffffff16908060010160009054906101000a900473ffffffffffffffffffffffffffffffffffffffff16908060020160009054906101000a900473ffffffffffffffffffffffffffffffffffffffff16908060030160009054906101000a900473ffffffffffffffffffffffffffffffffffffffff16908060040160009054906101000a900473ffffffffffffffffffffffffffffffffffffffff16908060050160009054906101000a900473ffffffffffffffffffffffffffffffffffffffff16905086565b620083a17fdeb582d8b69252c108924ca6328e2857ccf0a0c958e79eecbdec66697ddf40f560001b6200acea565b620083cf7fdd1999291e9cabd4332ea558ff717a58839bafe156310ccce3fcfb4b8426a43360001b6200acea565b620083fd7f9fdeb103601155864dcdd7681dbc9c86e11d17f6dda2f12f3de6919a00f3ec1460001b6200acea565b6200840a8484846200b069565b620084387f870ecd8e50a0db3d4eafe0fae8503e7547faaaee978f530aa41856a4487c433860001b6200acea565b620084667f7a3972f9ce70011ff8c32a2999b55aac5dfb060c803d431a4d4b22154d79864560001b6200acea565b620084878373ffffffffffffffffffffffffffffffffffffffff166200e063565b80156200849f57506200849d848484846200e086565b155b156200853357620084d37f1c4dcf51951dd547140d2b0cd08e61cbd8d96359880ce14e59315ac0604a1dc960001b6200acea565b620085017f69716523ca2e6e84d8a4dbf44472642a80dbf998e8f0b5b1c8be657db4316aa660001b6200acea565b6040517fd1a57ed600000000000000000000000000000000000000000000000000000000815260040160405180910390fd5b620085617fd306b0cc5fec43aea1d47c3af076838d8df0d58ef746daae9bbfb40c2b966f9660001b6200acea565b50505050565b620085957f373c852acb2092632b1462a74486a1fc8722eb4c4916759c1cba39a122c2811660001b62000ee2565b620085c37f427a70b899956c0dfe6deef1a7904856ad1825c93b488f1907f4ed7b4290c12160001b62000ee2565b620085f17ff92d96f35e299efe25a3150a7e2036aefe6b6a5ac50e439ea20bc2cd69321ddf60001b62000ee2565b6200861f7fbe815ea463f8032ef1ee0a901c3673b936c5da5b73f7638d139710e52189d86660001b62000ee2565b600c60000160029054906101000a900460ff1662008674576040517f08c379a00000000000000000000000000000000000000000000000000000000081526004016200866b9062011428565b60405180910390fd5b620086a27f7be4f2e5cf55313ca458c5cfd5ffa45994a69bf4e5d68b78c62b99509eb0525760001b62000ee2565b620086d07f7d45c21bc25e33e5b59b699e9a320230888e89c2a0152807bbd6f80b9ffe19a760001b62000ee2565b620086fe7f0ebcdb10d5f906d45f6cff34293bfe2de2fdde4c983c57784e4f61ad46668c5e60001b62000ee2565b6200872c7f06d217e1bc3e691914345e75414aa25caebf6e35de8a85fe93bc9dbe3e73fa1d60001b62000ee2565b6200875a7f876c74e92d91dcbe21c66d97a262d59d24dd54faad45bc63c0638fbbdb082a2d60001b62000ee2565b620087887f0bad48deab45ee63d6f8303989f359c352dfd515ff8d29901ef68c106365bc0260001b62000ee2565b6200879733868585856200758b565b620087d9576040517f08c379a0000000000000000000000000000000000000000000000000000000008152600401620087d090620113e4565b60405180910390fd5b620088077faa6b7bef4267ee7c37656d67227452c9d8a877341555dad0caa8ab829f40c57960001b62000ee2565b620088357f378e6f30f3d15b56530597c1cf8cbf91991bd4de351caad9447a4f5ab0249a9360001b62000ee2565b620088637f06f8d714c2f90cc1f839aa62b2ff852b3b4ff2b83ab99ee9fb32b9ea51a2d3b660001b62000ee2565b620088917fe9e510acb3592b6122f13a7fb01ac742514b635a96568a2358d7b4c54ee6700760001b62000ee2565b7f000000000000000000000000000000000000000000000000000000000000000061ffff168460ff16620088c46200c18c565b620088d09190620119f6565b111562008914576040517f08c379a00000000000000000000000000000000000000000000000000000000081526004016200890b90620114f4565b60405180910390fd5b620089427f402319086262c832d2092545f3373032bb1578d4dc2643773a709c6d4c1604fb60001b62000ee2565b620089707ff80d4ecc4518f96b1d8965222a1c41d564ea486e8f8a9e9e9bc76ec312e4496260001b62000ee2565b6200899e7fc978779db3149dd6c5fd0fa9fe2646bac6f1a832c739071d8b0436f760932e3a60001b62000ee2565b6000620089ab336200e3ec565b9050620089db7fba68268d5f103e5b0e6bd6fd5b5896c70470db04a67f1251361ab95c9bd7a05c60001b62000ee2565b62008a097fc57931f96f915d45b43fccc6f38a892edc66ed2fc1b5722001b6af417ff1db8260001b62000ee2565b62008a377f8c8e3274de0557ec7eaa480d96056120b36037e61e64ecc3772c7175755f26e760001b62000ee2565b8560ff16858262008a49919062011a53565b60ff16111562008a90576040517f08c379a000000000000000000000000000000000000000000000000000000000815260040162008a8790620112b2565b60405180910390fd5b62008abe7fce3860139f97be4029623124fa2e29a7a0480d3027f66f2a8f01ff3c8d0dfadb60001b62000ee2565b62008aec7f5e8f5738ac17676a103877b6bce9cb6ee1db3dafade5dbe450b949aee4ccc0d260001b62000ee2565b62008b1a7fe33bdc7331247a2d8bcded28c51bc2e706f898886a990d4f820b83f75f1cdfd560001b62000ee2565b60018081111562008b54577f4e487b7100000000000000000000000000000000000000000000000000000000600052602160045260246000fd5b84600181111562008b8e577f4e487b7100000000000000000000000000000000000000000000000000000000600052602160045260246000fd5b141562008ca95762008bc37fcacc14844fcca8b2396293488c9dc0598dcffb4bab6f28c4573e614db503e20e60001b62000ee2565b62008bf17f4c3c380302be320cf0f2f69af764820d8851243bb532ff58301cd0824e6fc50c60001b62000ee2565b62008c1f7f9429e9d4cccd049b4a0c43aeac1e9dd074e1f4671e22eeb9f0271ab7a50adff960001b62000ee2565b62008c3833868362008c32919062011a53565b6200e5ef565b62008c667ff24f9ed1b66cdb9c2d87e999273577fb2329545a0ebf4f1a81176e50054767cb60001b62000ee2565b62008c947f77db7ceb372180f02974a52e3d2c03aa1b6666a1038e3e2136b5ef414593197b60001b62000ee2565b62008ca3338660ff166200c411565b62008ecb565b62008cd77f076690668c78b1f04341f2c21507bf978d357a02b4bb761306c085d53651fd7060001b62000ee2565b62008d057f98393e8b60e2d2c8d40112e12c1324b2cc9336e3e4cae3a59d8ca0dee994c0fd60001b62000ee2565b62008d337f0315cd1e7761a4636c079fb006ddc0161b37a6f66c6a4f4ae97d48e80c55d0ff60001b62000ee2565b62008d617f880ae9c8ea93be5b082b7af26c009a67a6bd30c3e3225400aa4aa4d8b401915760001b62000ee2565b346016600001548660ff1662008d78919062011ac9565b111562008dbc576040517f08c379a000000000000000000000000000000000000000000000000000000000815260040162008db390620112d4565b60405180910390fd5b62008dea7f332bbc82f941ec2c76b7e74a4b4577b3cbd3960fd3326d5e1d2808b07c7093a060001b62000ee2565b62008e187fbb67019641db95dea2c6545f19cf761fcbc1ad433b199b32aa789c692f61b05e60001b62000ee2565b62008e467f1d1a1ff1ddc4af14ef1855ac9baaba043e7619505f5303011313886dce9f745860001b62000ee2565b62008e5f33868362008e59919062011a53565b6200e5ef565b62008e8d7f25c1442b1c9ca49922a9c471cf76bea332676273c952416473b4f3d59770027d60001b62000ee2565b62008ebb7fa16d7faccc2c1ea22ba0a8eb7009878f9b6e514e712d567d5e02fc76bdfe5fea60001b62000ee2565b62008eca338660ff166200c411565b5b62008ef97f96021328d4d6cfd2e16c296d853e9b861d9805ac3c7ef48da531a1c3856a3e7060001b62000ee2565b62008f277fe15ad612495068aff0e02629a5b5d6e73c754f4f1412dc664c5d5eaa8723617160001b62000ee2565b600034111562008ff25762008f5f7f97da131f597a93cdcfc680b33f618d54e079967e2c2b98d8cfb73acfe1d176b160001b62000ee2565b62008f8d7f48835b6cbcaf8cbbbebb5d5a1cd3bea1ee2dcac2547ae7ff2961509d1fca4bac60001b62000ee2565b62008fbb7fd6e400ecffae8dc9b9d5ac941e3d6cdd4f6ef93d4870eeedcb82f65d66319cca60001b62000ee2565b62008fec600d60030160009054906101000a900473ffffffffffffffffffffffffffffffffffffffff16346200c4bb565b62009021565b620090207f75a4e44555ec783779735f6fa97b4cb3b7b093a41df837b3cf5a69736f755b2060001b62000ee2565b5b505050505050565b600c8060000160009054906101000a900460ff16908060000160019054906101000a900460ff16908060000160029054906101000a900460ff16908060000160039054906101000a900460ff16908060000160049054906101000a900460ff16908060000160059054906101000a900460ff16905086565b620090cf7f270e1e441e165209edef5f35f8db5f6979c3948575f7157f145c783568b09eb960001b62000ee2565b620090fd7f1dd79623ef23747532cbac73b51acbb294159ae22d0d9c13f32ee2df921d0e6a60001b62000ee2565b6200912b7f1466b46a1590bd870447af7d96148309f440ac21f1c58e6eae266faf10c3c6a760001b62000ee2565b620091597fc2f7ea19e1d8f42bbe4f394fc99fed9ccf1d0ec86e15ac8803f37cd5ad600b0260001b62000ee2565b600c60000160019054906101000a900460ff16620091ae576040517f08c379a0000000000000000000000000000000000000000000000000000000008152600401620091a59062011428565b60405180910390fd5b620091dc7f8ab8263c03d74d7309f69d8f8f43d5c6ab05473a5539df8f49b1a6052536266f60001b62000ee2565b6200920a7f3972d9327ad74262e4adb269b9390809d2b8225be7ef817d472e00828701569b60001b62000ee2565b620092387fc31adb76699aba292b3a0e959b0176358d38792b5e45e101b166d40da5fa1e6f60001b62000ee2565b620092667f95c76b826273f2bfb3a4c5b7999fbbfc44c8819bb8acf2830df72632b58c20df60001b62000ee2565b620092947ffe44d924481f584fd056a60d1e7ea80a6f127312479bcd49da429a7d1689e46660001b62000ee2565b620092c27f53b7887a172451a3feef372a25562745bcbd85c199dd71615d51c4ce792d442960001b62000ee2565b8060ff16600111158015620092ef5750601660040160009054906101000a900460ff1660ff168160ff1611155b62009331576040517f08c379a0000000000000000000000000000000000000000000000000000000008152600401620093289062011290565b60405180910390fd5b6200935f7f0454c3961fe3bf71a22e9859b467ee8d5b8714a9f11c2e0336e3359fc59fe25460001b62000ee2565b6200938d7f31223cc031c8331855814e5aad516d889f61e523de1a34ce357dd07fc044bb3e60001b62000ee2565b620093bb7fe26c911164e957b099ae4b2aaaeda59291f0f757af2681c621ef8bba64d368f360001b62000ee2565b620093e97fbc2297268e21be0da2c4f1b9e63d8674f59a057cdbdfe0d3acfe2df0b9e526e660001b62000ee2565b42601f60008360ff1660ff1681526020019081526020016000206001015411156200944b576040517f08c379a0000000000000000000000000000000000000000000000000000000008152600401620094429062011626565b60405180910390fd5b620094797f7798a0497020072ec0527877738c4b399f416d8893593603a37a90f28bffbfe660001b62000ee2565b620094a77ff4f07db562f7702bcc8c1e7ac04c7be828ea2b95207552e2ce5801155260f58d60001b62000ee2565b620094d57fbcdecf495620958d9f05756f7383c84bab7b0bfd42d51ef52342f9008f8761a760001b62000ee2565b620095037f7f4f5f8b510636d2cf9e3011b7693b08a123e451b01dee328a17d70d24a281be60001b62000ee2565b42601f60008360ff1660ff16815260200190815260200160002060020154101562009565576040517f08c379a00000000000000000000000000000000000000000000000000000000081526004016200955c9062011758565b60405180910390fd5b620095937ffe13ea0c2615421dd8ee5902dd9fa0b61944379c7a59606ca46063bc6a52f6dd60001b62000ee2565b620095c17fdd07e633d0559354f4c57a717b00e11c6089b94ea11673f73b1b2baeac76e19f60001b62000ee2565b620095ef7fb00cc541a14edb34f5f552fa1f105817302894740f15221cdc7e65192d8c44e860001b62000ee2565b6000601f60008360ff1660ff168152602001908152602001600020604051806101000160405290816000820160009054906101000a900460ff1660ff1660ff1681526020016001820154815260200160028201548152602001600382015481526020016004820154815260200160058201548152602001600682015481526020016007820160009054906101000a900460ff1615151515815250509050620096ba7f5da6fb0fabbcaf4d8793c94e01e3be8e4df9186f3b001f4b2d467b49b194516f60001b62000ee2565b620096e87f937d9240f9cfd5ee7d6123948a6818f5b39de7e74160b32f0b2c4ff217c9e60260001b62000ee2565b6000620096fc826000015160ff166200c717565b90506200972c7fc2c017f582a5d4f873fd2e33d2ff32fa32d6c6d295a99c407fc21ad3cd58185d60001b62000ee2565b6200975a7f3d73c60b4ea058470f7b6f55bb6fa7687c5bbb28b260cb8c722981a16b318ba060001b62000ee2565b620097887fd400c41c3219be303d42da4ed8ccfbac5a6a386604c646420b3b14007209347460001b62000ee2565b8160e0015115620097d0576040517f08c379a0000000000000000000000000000000000000000000000000000000008152600401620097c7906201159e565b60405180910390fd5b620097fe7f99425b1ab3adf5f7f633b53167f83125d0c7db41a9aa772302c5d4f0ab330a0960001b62000ee2565b6200982c7fae1e4c73e42715028ed64f0684ecb2e5458f9d7d967d7f1781f1d670505e94e760001b62000ee2565b6200985a7f8199cd0991df0c755b684f3d49742813a594f02fb435b558ad79b6989906169960001b62000ee2565b620098887f9487be792b95959336b90ec9f4a3f9f8d464239bf4658154db88cfdf4f339cea60001b62000ee2565b600d60020160009054906101000a900473ffffffffffffffffffffffffffffffffffffffff1673ffffffffffffffffffffffffffffffffffffffff16816000015173ffffffffffffffffffffffffffffffffffffffff161462009922576040517f08c379a00000000000000000000000000000000000000000000000000000000081526004016200991990620114d2565b60405180910390fd5b620099507fcee9ba80340fd22fef7342e9f403510dc2d373153c8dd4f10c94768b2ec0266560001b62000ee2565b6200997e7f59b88e8cabdba829b7a935291249361bb44f8b9a33fa3c068b5d0e8a2797ef9760001b62000ee2565b620099ac7faa8bf07b25bc1b58d2f453a65b8fa4cdfe943bea30254e82ec5138367241dedd60001b62000ee2565b6000620099b9836200cfbd565b9050620099e97fd2e094f9ed6f249cab4821e4841446348195fcc1ab334f62e612b9a3a1b51f6560001b62000ee2565b62009a177f1a4dedd6c0871b3b3abf5335a223afeebc51cfc842f936b9f510b2fbfce5669b60001b62000ee2565b62009a457ff406266ff8343bcdfd726e20fa64abba8274d59475d18ba1a39163e9e83bd19d60001b62000ee2565b808360800151111562009a8f576040517f08c379a000000000000000000000000000000000000000000000000000000000815260040162009a8690620112f6565b60405180910390fd5b62009abd7f574985975f7987a64cbbf131445ff48b34579937d5bb69eaec1bd7c1d85fcc8560001b62000ee2565b62009aeb7f3c46738b95e5e915b81b9c44ce3ddbc68642c66122ba2008f3c34bfc76a9905060001b62000ee2565b62009b197ff8dc14e7efaaf94a4d2f50676835d8c9ef29b372c27df1d53db3c3d45e03a09360001b62000ee2565b62009b477feef304f2539bbad2c98ceb22c483502a2abe8fae2be9e0675da7cd80268202d560001b62000ee2565b3481111562009b8d576040517f08c379a000000000000000000000000000000000000000000000000000000000815260040162009b8490620111e6565b60405180910390fd5b62009bbb7fe934fe629378d53830113dc6206ed33de8f7d96eae4f3e7b2bd73fabe831920a60001b62000ee2565b62009be97f761029599c93faf2c9e41eca8de2250883bc6588839730d3e7f1c0dca900acb960001b62000ee2565b62009c177f593dc020ec13ec588dddca3238259f6625761efe23d439d1a125e9d17d735e2860001b62000ee2565b62009c50600d60020160009054906101000a900473ffffffffffffffffffffffffffffffffffffffff1633856000015160ff166200e7f8565b62009c7e7f4bb0dc2c1cc17389f7720c902eaacff6c52358cf6a49761440fa736a0ff5903c60001b62000ee2565b62009cac7fd51b0be0722867c082c49a41bafff687a1277c1e11cdd2c93e2cd4b56430a67060001b62000ee2565b62009cdd600d60010160009054906101000a900473ffffffffffffffffffffffffffffffffffffffff16346200c4bb565b62009d0b7fe7e646f8207d814db4c0bf45f05cb024004f78b3d5b682ded65ffab47202dd4e60001b62000ee2565b62009d397f98419c94ecb755fb595836fdead83944f205dcfcc378a9273467a6d33d3c2c6260001b62000ee2565b6001601f60008660ff1660ff16815260200190815260200160002060070160006101000a81548160ff02191690831515021790555050505050565b606062009da47f8eef2d8c4357c96b67cec24ba04672b39c5b3365bd730a7797361c927e2ae7ea60001b62000ee2565b62009dd27f23c8864f5f566c4dccfe1d6b992db93ea7d7b27e2b4e855eaf3be60fd941fa3b60001b62000ee2565b62009e007f30cc8523f8bd3a725ff89811f7ee7bd11c84dd4e6d897bc6f1a5407939153bd360001b62000ee2565b62009e2e7f36d441e2bf7e56d18b300d872563c316f51124187ad3f283af0444d5d755dba260001b62000ee2565b62009e39826200ad57565b62009e7b576040517f08c379a000000000000000000000000000000000000000000000000000000000815260040162009e7290620113c2565b60405180910390fd5b62009ea97fbd5584cb3989f9d355331a5ee69d5bddf38d9f9607510ee70677f860d7f6079560001b62000ee2565b62009ed77f1568a778c60dc07cf98501b0c7d916384a7e130b6d6e090c1a74fbd3270a0fe860001b62000ee2565b62009f057f13fc35dd13ec1746453be670081acc34bf9036cf72492781b01aff16ad4d811d60001b62000ee2565b600082905062009f387f703df8b3dbc6a6910db9b33bbcb9a4959e6431d10353cb71a752116134c14e5e60001b62000ee2565b62009f667f2e9d1ad2ac8bc460a739d7cfb4caf190140c4645609c5f46c12ded59d1429c7e60001b62000ee2565b601c60008261ffff1661ffff16815260200190815260200160002060009054906101000a900460ff16156200a0645762009fc37fe171d483df3eb51fb9c8d2e08234e8a4a5099bc85adbdfe222c5045c2d7dfaae60001b62000ee2565b62009ff17f3166effcf46e4d14abba08a30623087c1ed1d4672bbf610cfaacd26512d0bcd760001b62000ee2565b6200a01f7ffd0dd69d18617a05142e3ea07fd4e76b29b935a85790e8b9d174e06c87deddb460001b62000ee2565b601d60008261ffff1661ffff1681526020019081526020016000206040516020016200a04c919062010e5c565b6040516020818303038152906040529150506200a3aa565b6200a0927fa615f91b7e417841b6611052e812e680972becc2357739462da2e61f005e439260001b62000ee2565b6200a0c07f67a794850faa72f943570e5954fb8330cdad2ccf96c424343c1c8b77c2deed4260001b62000ee2565b601e60008261ffff1661ffff16815260200190815260200160002060009054906101000a900460ff16156200a1b8576200a11d7fbac7b489d4bd14b59955aefb489c0b85d21c298789243bd687540e3985e31d0160001b62000ee2565b6200a14b7f341d43cbcf26a31f5d987d3abee6d83685993caf0a3134cf5ebdce22cc41955360001b62000ee2565b6200a1797fe1accbb0c0f10082e28c5aa1c74781995f23d68c2b5e0ae29f3a5e0d95f64bd560001b62000ee2565b60136000016200a18d8261ffff166200edc0565b6040516020016200a1a092919062010e75565b6040516020818303038152906040529150506200a3aa565b6200a1e67f8b4846a5e38aeb2731ece90879e06595c78153ee4b99cf27449d8695a261b91360001b62000ee2565b6200a2147fc5aef73e2e0d16ebcd0cca84491cee6e5342bc976aa84228bce5267e2732491660001b62000ee2565b600c60000160049054906101000a900460ff16156200a2f6576200a25b7f506f2c080da7f4bdcfb09974a6a640815525d28e3f629eea0ab6a9cf3909f96f60001b62000ee2565b6200a2897fc3d6890226e77225a84b53372c08eae6d999a67d1cf986d2c97a981948e25b0b60001b62000ee2565b6200a2b77f7ba62e0575af67439e38c8777614424e7059b35bb3f4c5ac4e25db02e112b42960001b62000ee2565b60136002016200a2cb8261ffff166200edc0565b6040516020016200a2de92919062010e75565b6040516020818303038152906040529150506200a3aa565b6200a3247f2ba3f9fa7edd793cb157fdcf6197ff7345a5f0eefe02a2271add8a1eee5415aa60001b62000ee2565b6200a3527f0b4625847a14a6edefb50f746b0df2b8fca9d144ab13aa3a5dc64757a06559f960001b62000ee2565b6200a3807ffe4c95d19832138d8cf8b18e5bb6aba62b46099bb1fb2fd0a8fdf691e022a70c60001b62000ee2565b60136001016040516020016200a397919062010e5c565b6040516020818303038152906040529150505b919050565b6200a3dd7fd88d197db0347bfde102bc1448036242fe08d62518f74c3617d0e50067996dd460001b62000ee2565b6200a40b7fba794ade43acf1121c67dfae580086f57771fd433cee018f70bd2557c8c3a44260001b62000ee2565b6200a4397fd15c47931d9a74e1c99a42d364882bccf7460eea1f8d98dce69a1419369ecd1560001b62000ee2565b6200a4677fca1b8252a39de98e21edb93b49b72823e815b929a5ff9626dc19f4f1f915536e60001b62000ee2565b6200a4716200ae33565b73ffffffffffffffffffffffffffffffffffffffff16600d60020160009054906101000a900473ffffffffffffffffffffffffffffffffffffffff1673ffffffffffffffffffffffffffffffffffffffff16146200a506576040517f08c379a00000000000000000000000000000000000000000000000000000000081526004016200a4fd9062011538565b60405180910390fd5b6200a5347f87e47288e9415c75aa0db3e22fdd61dc4e5bb4770547c00e11fd8834dcf09c9460001b62000ee2565b6200a5627f5d97295b862bf71a6606f438934f24aec66092257ec9f7e96213f3878a5d0a9e60001b62000ee2565b6200a5907f9b3def55fbf468802a2213f4f65e79fab2cb541a4ff390dc4f4d998eb08dfe5860001b62000ee2565b6200a5be7ff5af1788da8059e7175e07ea146e43be307d710429004a8ac8287dffe681eb2760001b62000ee2565b6200a5ec7fdda482145628889371d9ab9e37958bfa765a23f0df69856b7dafd81ffb2fd4d760001b62000ee2565b6200a61a7f1ff39540ccfac2b97d516a2efbf17c8fa1c809df2b6b97cc7b868351cbe6945460001b62000ee2565b600c60000160059054906101000a900460ff166200a66f576040517f08c379a00000000000000000000000000000000000000000000000000000000081526004016200a66690620116d0565b60405180910390fd5b6200a69d7fe81e1eabff63b00a1cb7f6ed1beb23eba29c5d7462375a692b87df1a4069a64d60001b62000ee2565b6200a6cb7f70b74ac0aa330833367d83236f32991b8d47e4df11f7b1e4333b472695c9fd8160001b62000ee2565b6200a6f97fcc0a3d0a1abcb5bba825238f78ec125eb2337512f9d8b2d60f316c0ed28b829f60001b62000ee2565b6200a7277fd9726603472bcbdb9621a74644d5d60d40e6ebe6517428a8192d15d14279421b60001b62000ee2565b600c60000160009054906101000a900460ff166200a77c576040517f08c379a00000000000000000000000000000000000000000000000000000000081526004016200a7739062011604565b60405180910390fd5b6200a7aa7f0e903a45ca2f4fd3d4f76b2089c3b0d37061012bf156c02cde2c54697540098c60001b62000ee2565b6200a7d87f22746ec24e6c8d2e2c67e4efd6ed1af657655f9325568870575db9e3ebc0d4ce60001b62000ee2565b6200a8067f2f7fefbdda245c30fc6dd6f79e7562b0ba71614a8f23f7388ee8bf8c2bd764de60001b62000ee2565b6200a8347f5954fac3fca6e3ab8cdbf0ea1924366cab143298712cb2181e1ed84a425b3d2360001b62000ee2565b6200a8627fab9383aab2d5818ee07b70eefae7dc3bcdaf3d251d406a6d7df3ab68b8a99c6c60001b62000ee2565b80600b8190555050565b60085481565b60006200a8a27fd8938a9f8121946e7827ab0de10678932287f42e283b335690537d6542a8b23860001b6200acea565b6200a8d07faa2fe2a4738d92053f5608a4fc0da6ed6aeafc0361eb834711a56b9d1e0c892b60001b6200acea565b6200a8fe7f0269f276ddca4a0a5498b4b44ef692458a0fceb32370dd24526d9442b7bfede060001b6200acea565b600760008473ffffffffffffffffffffffffffffffffffffffff1673ffffffffffffffffffffffffffffffffffffffff16815260200190815260200160002060008373ffffffffffffffffffffffffffffffffffffffff1673ffffffffffffffffffffffffffffffffffffffff16815260200190815260200160002060009054906101000a900460ff16905092915050565b6200a9be7fbe6e1fb72e541c8e85d36f2a58ad7827d4522b7954cc428cd4f00f6edd3fbf9560001b6200b066565b6200a9ec7f7bd6eaff1d38e64a73c559c9f1d8808e35c8e88cef26f012320d981b89756ab560001b6200b066565b6200aa1a7fb3f7cc634d16364cdc851a38dc7047d6aba0b4a79d9325168125d1cc23093ed760001b6200b066565b6200aa487f5a65671baf67c4ada192460b590d909f787ac7943ea62a9232dc16955e3744df60001b6200b066565b6200aa526200ae33565b73ffffffffffffffffffffffffffffffffffffffff166200aa7262006949565b73ffffffffffffffffffffffffffffffffffffffff16146200aacb576040517f08c379a00000000000000000000000000000000000000000000000000000000081526004016200aac2906201157c565b60405180910390fd5b6200aaf97f672a372ba51e90947cb95ef00b200aff5d39c0e116f0dbbf8e32ff34bc0112cd60001b6200b066565b6200ab277f2795d7e11805d4410ef5b8da7cbe6b456441f994995e40cc4d5e4e813a8dbb7360001b6200b066565b6200ab557ff9914f700682b427cadbb9651b39336435174db3f832bf3a90fe90b2be5c6f9a60001b6200b066565b6200ab837fa6a35228362ec33d47ae8905f1d462b5010607a52ff5733f5f07fc033a2d8b4260001b6200b066565b6200abb17f8ec6b10b8871f1810a1b723b6ff77e64efa80e12fd7ff2e9e93f2d187052a2e460001b6200b066565b6200abdf7f36f3ebef002d665554b8c7748be28262cbc2804b48f92261d2e53743320e5a6160001b6200b066565b600073ffffffffffffffffffffffffffffffffffffffff168173ffffffffffffffffffffffffffffffffffffffff1614156200ac52576040517f08c379a00000000000000000000000000000000000000000000000000000000081526004016200ac49906201126e565b60405180910390fd5b6200ac807f8810bc05e30dbcd873902935512b3ec90ded31d62b09a32f9d25f68f83b6254560001b6200b066565b6200acae7f0b73941c6896b7a271aa7e117c31567f0cd9620caa675650e90d70c1f50071d360001b6200b066565b6200acdc7f4238dcf0a18d426848f3f811ed83831038e002de9ea463f64e6486547ef8662860001b6200b066565b6200ace7816200d3b6565b50565b50565b60007f01ffc9a7000000000000000000000000000000000000000000000000000000007bffffffffffffffffffffffffffffffffffffffffffffffffffffffff1916827bffffffffffffffffffffffffffffffffffffffffffffffffffffffff1916149050919050565b60006200ad877f446ee584dcb6124fd73542e0d270b649b62c90d94e6a846e25be20338a8b3cfa60001b6200acea565b6200adb57fbde1d1eaaac03e025bb312f7a62be781a3f6334b7207b5f13c8d3deacfab1e4860001b6200acea565b6200ade37f83acc0f0c825f8a70935b0dece971c098b3ff469425c18c5c1df68f3ff16527260001b6200acea565b816200adee6200afd3565b111580156200adfe575060005482105b80156200ae2c575060046000838152602001908152602001600020600001601c9054906101000a900460ff16155b9050919050565b600033905090565b6200ae697fa9d4ca1f3bb4cd3aa9a727b07bf8bad293bad5bb980a30924e7276ef2c01e5ae60001b6200acea565b6200ae977fea0488367566781729eaac3e7504cd9d4fafabf22e8f8e9130ac5d6f402f436160001b6200acea565b6200aec57f9dded03afdbab9a124cfc0935abfe47f01706d56e449d631fd38e6769922bbae60001b6200acea565b826006600084815260200190815260200160002060006101000a81548173ffffffffffffffffffffffffffffffffffffffff021916908373ffffffffffffffffffffffffffffffffffffffff1602179055506200af457f2001dcb44bea79f7468b218ee556b453e7203202309878f84ec0bf195e9f288560001b6200acea565b6200af737f4d0f00c52f85993ced0bfceb5e5ecc50a4eea9846275c88b6f931d35fb28aff260001b6200acea565b818373ffffffffffffffffffffffffffffffffffffffff168273ffffffffffffffffffffffffffffffffffffffff167f8c5be1e5ebec7d5bd14f71427d1e84f3dd0314c0f7b2291e5b200ac8c7c3b92560405160405180910390a4505050565b60006200b0037f33c5ce419c048202a91f8ae6479df84035032c5dff8d4a5f12f27ce28158947b60001b6200acea565b6200b0317f406bbb6e0be2061807c4d24e956622d74276f973a3103568b365348fe7d9507660001b6200acea565b6200b05f7f60145e7a26da54fb7279bfcafc990de068773baf95faf677a4c346dcdee2cb7a60001b6200acea565b6000905090565b50565b6200b0977ff9d055ba508e406bfc72827049421ff071a5f53a2e3c34d6c83e2a767e52fc4c60001b6200acea565b6200b0c57f2595a8c54b2bf27dc6024880cdb6d1219b68d622841fb743ab810fc28fd881df60001b6200acea565b6200b0f37f936a1bdce0ecae7d9b76b39e1a09e512b1e857ca631150021abad93eb3a0b89e60001b6200acea565b60006200b100826200c717565b90506200b1307fa4f8f4c593533d4d31e5d8c798c4587af47a098b3dce38c37900dd25837870a060001b6200acea565b6200b15e7f184f596610fd22ffd5cd01a865c0a72c973b0a666debfb7cdea2ca07c3b966f960001b6200acea565b6000816000015173ffffffffffffffffffffffffffffffffffffffff166200b1856200ae33565b73ffffffffffffffffffffffffffffffffffffffff1614806200b1bd57506200b1bc82600001516200b1b66200ae33565b6200a872565b5b806200b20757506200b1ce6200ae33565b73ffffffffffffffffffffffffffffffffffffffff166200b1ef84620012ad565b73ffffffffffffffffffffffffffffffffffffffff16145b90506200b2377f5aabf1b33f09f1eab1923dba093ef5c888d9ba3229e48dd85d9d513953b93d1260001b6200acea565b6200b2657f9ce9057773ffb5462083b9d72fc5b51d9d2f74b13276690b49f1c8b2ff16c39560001b6200acea565b806200b2cb576200b2997fbc04ab6e5316c1b14243c127efb18c97a78e531065da3717b7f440eff9ab1f3160001b6200acea565b6040517f59c896be00000000000000000000000000000000000000000000000000000000815260040160405180910390fd5b6200b2f97f2b659a856a8e8417e1546a9412565a48242c912da920c60790c73414c42116b860001b6200acea565b6200b3277fb00f006d315984bef8d607fe17f5a2f4762a60acf305ad0b3d21cfa8bfe5da1e60001b6200acea565b6200b3557f42e47fdcab40ac4607adc581ad109aa3656809b4760bba5de7d271ddb671ffff60001b6200acea565b8473ffffffffffffffffffffffffffffffffffffffff16826000015173ffffffffffffffffffffffffffffffffffffffff16146200b3ed576200b3bb7fc09a895500528fbfdb6ba1760ccf5399c0af8ac3cc86d624580aea1e83b7358660001b6200acea565b6040517fa114810000000000000000000000000000000000000000000000000000000000815260040160405180910390fd5b6200b41b7f50df60d08e4c6b574505bbe9ebf4834816439fe3b3b9b2c217456d3a1f1b117660001b6200acea565b6200b4497f48629bc3257891db6e3e0ae68ce5540f1da8803c40b834dd3b89c8c309b5d66760001b6200acea565b6200b4777fa089eea86a87674bf47061a4bb33b1b6c56f7df6a245f088f584b0ce332f952a60001b6200acea565b600073ffffffffffffffffffffffffffffffffffffffff168473ffffffffffffffffffffffffffffffffffffffff1614156200b50d576200b4db7f06080b332cf27dc0a8c850061434d8259e340f299be97d034958584911add7f960001b6200acea565b6040517fea553b3400000000000000000000000000000000000000000000000000000000815260040160405180910390fd5b6200b53b7f0264fa045d7a14cb3d0ceecf6ec4e36cae799b028707e54008bb5b9ff1028fde60001b6200acea565b6200b5697fd798b069df2737a7dbdb603e86032c3a8b586c900c56cadb618780cfaa7e78b060001b6200acea565b6200b5967eeeb4fae79d87e12df64772c1ffd9c24c16fb551200d277d19d4fb4de133db160001b6200acea565b6200b5a860008484600001516200ae3b565b6200b5d67f52f3dbd363c606b3f1c1d4c33ef390f50eb4d3460334a44ac228707c87cfbc5a60001b6200acea565b6001600560008773ffffffffffffffffffffffffffffffffffffffff1673ffffffffffffffffffffffffffffffffffffffff16815260200190815260200160002060000160008282829054906101000a900467ffffffffffffffff160392506101000a81548167ffffffffffffffff021916908367ffffffffffffffff1602179055506001600560008673ffffffffffffffffffffffffffffffffffffffff1673ffffffffffffffffffffffffffffffffffffffff16815260200190815260200160002060000160008282829054906101000a900467ffffffffffffffff160192506101000a81548167ffffffffffffffff021916908367ffffffffffffffff160217905550836004600085815260200190815260200160002060000160006101000a81548173ffffffffffffffffffffffffffffffffffffffff021916908373ffffffffffffffffffffffffffffffffffffffff160217905550426004600085815260200190815260200160002060000160146101000a81548167ffffffffffffffff021916908367ffffffffffffffff1602179055506000600184019050600073ffffffffffffffffffffffffffffffffffffffff166004600083815260200190815260200160002060000160009054906101000a900473ffffffffffffffffffffffffffffffffffffffff1673ffffffffffffffffffffffffffffffffffffffff1614156200b889576000548110156200b8885782600001516004600083815260200190815260200160002060000160006101000a81548173ffffffffffffffffffffffffffffffffffffffff021916908373ffffffffffffffffffffffffffffffffffffffff16021790555082602001516004600083815260200190815260200160002060000160146101000a81548167ffffffffffffffff021916908367ffffffffffffffff1602179055505b5b506200b8b87ffa24a67552fb0cdada32cb22384f6b449a5ec86500bdffc27051fb57eb17b9c560001b6200acea565b6200b8e67fb25dd082b239f9b4f00d22c92a606725e81b9bafe1b3c6c759495a644670ed3460001b6200acea565b828473ffffffffffffffffffffffffffffffffffffffff168673ffffffffffffffffffffffffffffffffffffffff167fddf252ad1be2c89b69c2b068fc378daa952ba7f163c4a11628f55a4df523b3ef60405160405180910390a45050505050565b6200b9767f848630725c3e8cf0edb920cfcd2ed3e8e78c725f2acba1b7911df64e7b22af9660001b6200acea565b6200b9a47fda812c8021dc85650379a778138ed13219f32ab03e0498a0170e5f1b2244316c60001b6200acea565b6200b9d27fd5267f2c7e7521ef2a03858176464f1f853ffb6e648f1ec47371e0098a2bf57360001b6200acea565b600060085490506200ba077fbe067708535fd83e9d10cc07e58e321fdf33a627deb165fe48b2072e23ff5fdb60001b6200acea565b6200ba357f7f1f961f21058427a0e7492df79654bd27afc164d27ba6266f4bdde93cdb467960001b6200acea565b6200ba637f15f25600b563f9119319db94b2affe373b33ff180f037d43ba623653ebdafe2860001b6200acea565b600082116200baa9576040517f08c379a00000000000000000000000000000000000000000000000000000000081526004016200baa0906201146c565b60405180910390fd5b6200bad77f5d3a7ed56e462ce9a82763c28b3792ab7bca8dfa3109f856e488bb3dcc4319a260001b6200acea565b6200bb057f610f6abb3d531c0a2ef4183517f3a87b76e7f0f35e01170b601e7da5267c2a5860001b6200acea565b6200bb337f55d25e71c6172deaaaf49842f1eba49db232ebc5fba81bdf12c0b7c8ed8df80960001b6200acea565b6000600183836200bb459190620119f6565b6200bb51919062011b2a565b90506200bb817fec8096220491b853cdb3b067d32dc4d3dc3bef13276d33e715db0c4f4869161e60001b6200acea565b6200bbaf7f0ae5896fb467f163a95532d8e5c8b40eb71d755ce8f417c55bd4bb2bac136b7060001b6200acea565b60016200bbbb6200c18c565b6200bbc7919062011b2a565b8111156200bc79576200bbfd7f4598f79327debec25ccbb3ac50ef9701aec20beb0f501eec8c4666eb357dd1ba60001b6200acea565b6200bc2b7f9b44f909d44411833cd676f3ba64350e6ecd02bb8e2e211149e27ab3cf03bb6160001b6200acea565b6200bc597fb93934bcf4f7c9cb1265ad9796e6cff6f1269d9050a4536fd2ee442d0767a10360001b6200acea565b60016200bc656200c18c565b6200bc71919062011b2a565b90506200bca8565b6200bca77f356aa69eefcea1ab3e393eccc135f168131d473d75ec8649979ea0af1caa50e860001b6200acea565b5b6200bcd67f61a1d3d101ef12cd8478caa017eea623aadd1094ac760c6fce2c17099a672aba60001b6200acea565b6200bd047fbd5ff223c7679783a4bf9a59b9b574e0e8d753bfb3d1eb9fac588154ad8017b560001b6200acea565b6200bd327fe71e0699edf6f79cd3cf5238c3c78ed5ab2b66f50473191cca53f4ff81fa200a60001b6200acea565b6200bd3d816200ad57565b6200bd7f576040517f08c379a00000000000000000000000000000000000000000000000000000000081526004016200bd769062011714565b60405180910390fd5b6200bdad7fd85f26b8ebceccd8dbbc3b7260aac9c459722bad5089801cfd71ac429f1474db60001b6200acea565b6200bddb7f05d68c1a3bd2dee61e6ea5c978fed3701748e4977546a06176fb9e893658db5a60001b6200acea565b6200be097fbcdbdf9a53d5d2c9597af3cf593906dcf4ad76dcc4d9429d217bd66b5e5f29f060001b6200acea565b60008290505b8181116200c115576200be457f2000d41ca0fdf6da6cd9a810264d063afa44c69fbda80a6b50fc7c9f93fe528160001b6200acea565b6200be737fe2637b675ed8a93c4697a361e96baf53398333450e024707b6f2a350eab5cf6660001b6200acea565b600073ffffffffffffffffffffffffffffffffffffffff166004600083815260200190815260200160002060000160009054906101000a900473ffffffffffffffffffffffffffffffffffffffff1673ffffffffffffffffffffffffffffffffffffffff1614156200c0d0576200bf0d7fa30e9b4a9da3c54e4a272bf688992a1dc51a9d607271b6b6726daede6e5b856d60001b6200acea565b6200bf3b7f32037021c4621106a5f24ebbf66ce51283983c5b96f2b5ddaf166903caae278660001b6200acea565b6200bf697f7bcf5f7c7c24e2cebbaa9b1854d79a904cd84fca22617a76a16e5fd8a944487a60001b6200acea565b60006200bf76826200c717565b90506200bfa67ffdfccfcd9b02ce6547e0eb56071d647787bf3b56153801dce79429ed6104947a60001b6200acea565b6200bfd47f4ecdea43aa00f3b199408f62de33b1b99274a30118c50aca187dd2415a6f25d460001b6200acea565b6040518060600160405280826000015173ffffffffffffffffffffffffffffffffffffffff168152602001826020015167ffffffffffffffff168152602001826040015115158152506004600084815260200190815260200160002060008201518160000160006101000a81548173ffffffffffffffffffffffffffffffffffffffff021916908373ffffffffffffffffffffffffffffffffffffffff16021790555060208201518160000160146101000a81548167ffffffffffffffff021916908367ffffffffffffffff160217905550604082015181600001601c6101000a81548160ff021916908315150217905550905050506200c0ff565b6200c0fe7fd3a251a067143499308630ce609a087e2128af08f9290ec9be3b3c75d60fcbe960001b6200acea565b5b80806200c10c9062011cee565b9150506200be0f565b506200c1447f0f684456e88ebc83d8a33a1a38878cfbf95192020689f8859093e6e6ba873b5560001b6200acea565b6200c1727fdf4bd9fb695c64c8a492537686fbb07187c2bed6c54c79bf16c6acb496c7050160001b6200acea565b6001816200c1819190620119f6565b600881905550505050565b60006200c1bc7f22da2965998e730a8bfa62a63a62dc9ee60f38f25d9846ebbef6a884af80b27060001b6200acea565b6200c1ea7f27cdd013b1278579ba4b2620e8c16e8dc4dfd6f55274d45ee88953d4c2c71b6e60001b6200acea565b6200c1f46200afd3565b60005403905090565b60006200c22d7faea76d809e4f3b93a9d86851167ed8a8ce8248a3b8e01703ee918ee2cc4d631860001b6200acea565b6200c25b7fc63815c6497b635fc070bd1ad0f0d281daae6477d40b351ef82fd3758246683660001b6200acea565b6200c2897f3671c5bc8b373738d50ec91f4e8fd2fa462784fcc6d6f28dba36f8b49107c85860001b6200acea565b600073ffffffffffffffffffffffffffffffffffffffff168273ffffffffffffffffffffffffffffffffffffffff1614156200c31f576200c2ed7fc4a15181df8d25256eeb67b9c28c0b96ab380dcda3845e7eedd2539844bc611f60001b6200acea565b6040517f35ebb31900000000000000000000000000000000000000000000000000000000815260040160405180910390fd5b6200c34d7f155f62cd0d0bf00be9918598ca772919f2c5f3fbdb652a9aec20cd37bde5786f60001b6200acea565b6200c37b7fa8f6b27ae1a536657d48f119d32a7d2bed07e79f2fc8e27b3731312aad6084d360001b6200acea565b6200c3a97f39196ae6d8015048ddd3b9a37fdd2beafe6d89f80ad5bd5b12a6b4a90329436960001b6200acea565b600560008373ffffffffffffffffffffffffffffffffffffffff1673ffffffffffffffffffffffffffffffffffffffff16815260200190815260200160002060000160089054906101000a900467ffffffffffffffff1667ffffffffffffffff169050919050565b6200c43f7f7cb53d594104cfbaeda42c3a19f84f2f0470a42ad6bad0fb27ed1085e07a402360001b6200acea565b6200c46d7fc396a89a3e32a5d55c85028e9fab294c9e2b1008a7a70f00c738de47bfded58e60001b6200acea565b6200c49b7fe76efc99fa85914f05c6a9cbe83d09f21cfa0023eb24bbadcbe72c7cac437f7660001b6200acea565b6200c4b78282604051806020016040528060008152506200ef82565b5050565b6200c4e97f22df7a3028c5072132e6635cb448f6af62214170a7680f65689cfb770dc8070860001b62000ee2565b6200c5177fea89b28010ab89994e3fde6dd5e64df00f71c65a8d67605c605d778d739ac12960001b62000ee2565b6200c5457f323c491adf65b8e3f482160e50339e406e8c804c279b651aa472ed1c746b8e7260001b62000ee2565b60008290506200c5787f255ce1b7cbc5f069e79a6c57903221b8fd53e4ac820492d1f5be1543db7bea3460001b62000ee2565b6200c5a67f8bcaa804edf1cb7d4551dbeea2200d546d40fbf17104aee181666f4f7d75feb060001b62000ee2565b60008173ffffffffffffffffffffffffffffffffffffffff16836040516200c5ce9062010ed4565b60006040518083038185875af1925050503d80600081146200c60d576040519150601f19603f3d011682016040523d82523d6000602084013e6200c612565b606091505b505090506200c6447ffb7d7c9e1f51348944deb8fe1c0825999dc89b7fcf5ecd63384e3706f1eab39b60001b62000ee2565b6200c6727f456b8828b12fffd1c08b15cda7b25c192e6513ecae90bf19d86f6f689e6e930260001b62000ee2565b6200c6a07f427a635edea8dcdabcf470148d7758721e7608f0bb9f502cf22d904dc9feff1760001b62000ee2565b806200c6e3576040517f08c379a00000000000000000000000000000000000000000000000000000000081526004016200c6da906201166a565b60405180910390fd5b6200c7117fc8553d003e6c228a8b8b6c837ee42dcea8c39bc74f35088d7c67521dc82cc69060001b62000ee2565b50505050565b6200c7216200fc40565b6200c74f7f90192f4b3269eabad54c51e61a1825af023d01c8c535296e7cf7ac58a2ad07f560001b6200acea565b6200c77d7f7f441aa02b62a39d1a2f3fb3edc8b3fca1543d9995361ed819fd52eb809da63260001b6200acea565b6200c7ab7fdfa637b35191df8694e6350f726faa67892ece9c74cf135228c62046941346cb60001b6200acea565b60008290506200c7de7fdd26b5eaa1a0053477c30e6e0c1ba1bd907f584e9b6397abc7947c6cfc626ee860001b6200acea565b806200c7e96200afd3565b111580156200c7f9575060005481105b156200ca34576000600460008381526020019081526020016000206040518060600160405290816000820160009054906101000a900473ffffffffffffffffffffffffffffffffffffffff1673ffffffffffffffffffffffffffffffffffffffff1673ffffffffffffffffffffffffffffffffffffffff1681526020016000820160149054906101000a900467ffffffffffffffff1667ffffffffffffffff1667ffffffffffffffff16815260200160008201601c9054906101000a900460ff161515151581525050905080604001516200ca3257600073ffffffffffffffffffffffffffffffffffffffff16816000015173ffffffffffffffffffffffffffffffffffffffff16146200c9125780925050506200ca94565b5b6001156200ca3157818060019003925050600460008381526020019081526020016000206040518060600160405290816000820160009054906101000a900473ffffffffffffffffffffffffffffffffffffffff1673ffffffffffffffffffffffffffffffffffffffff1673ffffffffffffffffffffffffffffffffffffffff1681526020016000820160149054906101000a900467ffffffffffffffff1667ffffffffffffffff1667ffffffffffffffff16815260200160008201601c9054906101000a900460ff1615151515815250509050600073ffffffffffffffffffffffffffffffffffffffff16816000015173ffffffffffffffffffffffffffffffffffffffff16146200ca2b5780925050506200ca94565b6200c913565b5b505b6200ca627f2990ec50c58fc8673a8f0a49690707679b5f6f1c18ed58fd184016c9567c3c7a60001b6200acea565b6040517fdf2d9b4200000000000000000000000000000000000000000000000000000000815260040160405180910390fd5b919050565b6200cac77f88dd4090068c1ac847bfd5fd5660b49d62fcdec493253b6716e70167522c0cd760001b6200acea565b6200caf57fae9e1debf164e3a50d219b069a4622a46182bc9e77d76440bba2d7527a5d08f460001b6200acea565b6200cb237fe2a1004041131a8e1156ccae3d87070ce392ba5430cc9fc2fa10ee86eec3cbf460001b6200acea565b60006200cb30826200c717565b90506200cb607f0a354b13a63e1d96c4ae1410e971c84c6e6f8703477b0576763f09b55326ccfe60001b6200acea565b6200cb8e7f3500a467b33d30dbb1fdfe1e402d70525c9ff30040a284cab97ebca63ebd66a560001b6200acea565b6200cba060008383600001516200ae3b565b6200cbce7f77235e90242168476c118778b99623fb4a6d857ae79765f87152872f059b60f260001b6200acea565b600160056000836000015173ffffffffffffffffffffffffffffffffffffffff1673ffffffffffffffffffffffffffffffffffffffff16815260200190815260200160002060000160008282829054906101000a900467ffffffffffffffff160392506101000a81548167ffffffffffffffff021916908367ffffffffffffffff160217905550600160056000836000015173ffffffffffffffffffffffffffffffffffffffff1673ffffffffffffffffffffffffffffffffffffffff16815260200190815260200160002060000160108282829054906101000a900467ffffffffffffffff160192506101000a81548167ffffffffffffffff021916908367ffffffffffffffff16021790555080600001516004600084815260200190815260200160002060000160006101000a81548173ffffffffffffffffffffffffffffffffffffffff021916908373ffffffffffffffffffffffffffffffffffffffff160217905550426004600084815260200190815260200160002060000160146101000a81548167ffffffffffffffff021916908367ffffffffffffffff160217905550600160046000848152602001908152602001600020600001601c6101000a81548160ff0219169083151502179055506000600183019050600073ffffffffffffffffffffffffffffffffffffffff166004600083815260200190815260200160002060000160009054906101000a900473ffffffffffffffffffffffffffffffffffffffff1673ffffffffffffffffffffffffffffffffffffffff1614156200cebc576000548110156200cebb5781600001516004600083815260200190815260200160002060000160006101000a81548173ffffffffffffffffffffffffffffffffffffffff021916908373ffffffffffffffffffffffffffffffffffffffff16021790555081602001516004600083815260200190815260200160002060000160146101000a81548167ffffffffffffffff021916908367ffffffffffffffff1602179055505b5b506200ceeb7f6d647a6ea8dc6d2e86f84138b754718313a8fd502538e49eef0d17d24b0f2de160001b6200acea565b6200cf197fcc6177df548c4f0c70707b07b97655bd31f53a2d75b6aea4c4f09237d3689a5b60001b6200acea565b81600073ffffffffffffffffffffffffffffffffffffffff16826000015173ffffffffffffffffffffffffffffffffffffffff167fddf252ad1be2c89b69c2b068fc378daa952ba7f163c4a11628f55a4df523b3ef60405160405180910390a46200cfa77f838e675cc387e3161d158b0f61931601f26727be0e431d4e9b7d9fa01d5fc1b760001b6200acea565b6001600081548092919060010191905055505050565b60006200cfed7f6fa5c29e7944e40cacbf098587b2fdc52c4d3560cf0c02f669fa4515f952f42160001b62000ee2565b6200d01b7f9064c95c1d7984b7e5a5e0b39ca5ee3d5246384e9f2dac6082bd4cfb89ff213560001b62000ee2565b6200d0497f6eed241b01efdaf35ab635bf24cd382d657dd3664db95812280cbf493fd5244960001b62000ee2565b81602001514210156200d0ed576200d0847f687a169830760d711911dd180a8b080b66ae4e63e8254fbe94da8739304b832060001b62000ee2565b6200d0b27f06c81334dde8d8e912b67bf9453fbf978ea4ac3c65872bc462b84cb45d1fba8e60001b62000ee2565b6200d0e07f26f2f7d7af4e33eebd4ba31a706e16c029b4bb87d1b138ae4d9aff497461e9cb60001b62000ee2565b816060015190506200d3b1565b6200d11b7f09dbb425592c48157389ec39c5f23f12fcb9646d990492e3c0a5555fa640d96560001b62000ee2565b6200d1497f1616e1f5333db9e2c5115017044f18687de0184e9049dc4b5e94052081ebadc160001b62000ee2565b6200d1777f8145bad8e8318031144ac5e2bbdfb130cf984631235e045fe182f27415ec2f2560001b62000ee2565b81604001514211156200d21b576200d1b27fa223e3d190cd789ed3fc0535358142a1ec8b4a5a640bb55cd0cf0b6c50dc159260001b62000ee2565b6200d1e07f42884e4168d4498de27fac338d773068b9505cac12726a34728bc95ee666addc60001b62000ee2565b6200d20e7fd880a3726418e1ac7f6753f8a7a767aba0b0130f5c571f8c5909607003f8c17f60001b62000ee2565b816080015190506200d3b1565b6200d2497fc91af91af276cc67f4cf70390f90f73776bea954934480f4ed907dc9c778bf4860001b62000ee2565b6200d2777fb0094960018ea63c860b756b91392ccb385edc44052f3fc7718d5143de6c3c2860001b62000ee2565b6200d2a57fc214d1bff80599b0a0b6a69616435c7f3399d1096e4894fb01fb363888a87dc760001b62000ee2565b60008260200151426200d2b9919062011b2a565b90506200d2e97f880380a890d02829e8a96e67601de06bd5b7ac0fa4db245ffad9f45fb8996b8660001b62000ee2565b6200d3177f936d7bbab78d7bcc1527293961832a687e0c05510d6a0bb49cd7404e623c0d1560001b62000ee2565b60008360a00151826200d32b919062011a91565b90506200d35b7f5f0ddf7e6498e96209430322ed63c6f6cb468831436d06ddbc4f9f1a69c0c27260001b62000ee2565b6200d3897f0d0aa4883d6edc7641b6268feebac71d0872d0cf7bc39effa3865006345e2c3f60001b62000ee2565b8360c00151816200d39b919062011ac9565b84606001516200d3ac919062011b2a565b925050505b919050565b6200d3e47f63c87581d2b58a5fb7fa835aba81459484d672270945f1f37636f40e351e015160001b6200b066565b6200d4127f98b1a1d63cc898bc72ab431b342ce1ebd891e6b89292fbaa60d82e2ea56168fc60001b6200b066565b6200d4407fcb189740d278ea9df1bae739b9c9b43a84af8f9ccb6f4121e654f0449903ec8060001b6200b066565b6000600960009054906101000a900473ffffffffffffffffffffffffffffffffffffffff1690506200d4957faf6bc6e4fe2a213f36e6d6c21f0f3b6509b2811a593108e9e18d75c80a4b03de60001b6200b066565b6200d4c37f13938cc3382239cf6920fe019695f85bf2a7b1ce8f61bf55020fcf2c9ec1470f60001b6200b066565b81600960006101000a81548173ffffffffffffffffffffffffffffffffffffffff021916908373ffffffffffffffffffffffffffffffffffffffff1602179055506200d5327f3e1000471a97dcd034b1b9028f0d0b65d39962fc854491be3ce464fa1cdd948060001b6200b066565b6200d5607fce53958b33dd207a47d5ff91d9592519104f1685ef87eff371244a574f6fd44b60001b6200b066565b8173ffffffffffffffffffffffffffffffffffffffff168173ffffffffffffffffffffffffffffffffffffffff167f8be0079c531659141344cd1fd0a4f28419497f9722a3daafe3b4186f6b6457e060405160405180910390a35050565b6200d5ec7f8262e43c38b305dd601bc7237a35e7eeb03e5bcba77d364c03e6cd4d36a2f93060001b62000ee2565b6200d61a7f51ea1f078eaf13f3a4d9f74ba918854f1925e1b8eb356a2b80cedd4946b0e4a460001b62000ee2565b6200d6487f9fd6ee3a3cfc8f3ac824fd210de8334bd1d001d20e2d900b78ee0a963d8c74c360001b62000ee2565b60405180604001604052808373ffffffffffffffffffffffffffffffffffffffff1681526020018260ff16815250601b60008201518160000160006101000a81548173ffffffffffffffffffffffffffffffffffffffff021916908373ffffffffffffffffffffffffffffffffffffffff16021790555060208201518160000160146101000a81548160ff021916908360ff1602179055509050505050565b6200d7157f3d02303c897400c4fa9f394922292a7c8cde3a33c0c568129875671a8d4f734060001b62000ee2565b6200d7437fa08251c211443c22dcef78707f1e0af1ffa84df711f37579b10f67deac4911ec60001b62000ee2565b6200d7717fd1f62d31ffa687b2b1c39b38baa36903cccf0077de898417d28f471cb3caabdc60001b62000ee2565b6200d79f7fff22297c94c8f0600f8e4c9e182276f3fdd4cab51f0046a61ea8d914b89204a960001b62000ee2565b7f000000000000000000000000000000000000000000000000000000000000000061ffff16601660040160009054906101000a900460ff1660ff166200d7e46200c18c565b6200d7f09190620119f6565b11156200d834576040517f08c379a00000000000000000000000000000000000000000000000000000000081526004016200d82b90620114f4565b60405180910390fd5b6200d8627f4675124cff403eb7bda8a458b4faf63b0cede83490d954304e72366018ee583d60001b62000ee2565b6200d8907f0613a1a5135d383e13ebd053b88f1d3b4e94c3040996e27e23086bb13d93b4e560001b62000ee2565b6200d8be7f336ceea276af7889e417a5f193f7288b74faa874f03ce27fcd383c386e632eb860001b62000ee2565b6200d8ec7feac77c8e258796eec27c0c7691e65d5b2032cf125d843a69cadc9aa97424509260001b62000ee2565b601660040160009054906101000a900460ff1660ff168151146200d947576040517f08c379a00000000000000000000000000000000000000000000000000000000081526004016200d93e906201168c565b60405180910390fd5b6200d9757f387ecf32232ac8db523e03e55e40cfd66650338b7eb68f643320cc5b8cb19c7360001b62000ee2565b6200d9a37f8d013072aeb3d860cf2ee9f48f44764289043ddb07cfb932ba8789e34f79f01460001b62000ee2565b6200d9d17fd974a9fe7c19e8d9d67fc79a7acf6144ea311ab7434ad87dd78e4b9d72a4386c60001b62000ee2565b6200da17600d60020160009054906101000a900473ffffffffffffffffffffffffffffffffffffffff16601660040160009054906101000a900460ff1660ff166200c411565b6200da457fd684802377f7a2e7307586632ae536484b203b2eebb0f3998f5faeeb6bd3e8a860001b62000ee2565b6200da737f851e9a29c12f59e3fcfa91108ca3c49554c1229ea6fc7a57ca794a305b45bd2760001b62000ee2565b6200daa17f78608d74d180676e4fe948bb8d87f3892cb1bdc8a3de5d56b4565c1f287d9a3560001b62000ee2565b601660040160009054906101000a900460ff1660ff166200dac16200c18c565b146200db04576040517f08c379a00000000000000000000000000000000000000000000000000000000081526004016200dafb90620114d2565b60405180910390fd5b6200db327f7974dc3f3d3fccc4f636096466a43f576eb3c5437ec56b6a1deb9c971ed4d41760001b62000ee2565b6200db607f80f515ef00d945de7abad05593f36561f808446f5984f9d6f7a1c3a3782ab23a60001b62000ee2565b6200db8e7ff2df2e523e1f4adf4cf72f27add4eafc177eb6754f8cd8f5a33dd8bb922edf9a60001b62000ee2565b60005b601660040160009054906101000a900460ff1660ff168160ff1610156200df78576200dbe07f710265e83c45674790cf1fad57a1bfd58a249ae1ddf754392be1141c41f8117e60001b62000ee2565b6200dc0e7fe55ed1b76afd2c39c89eed569acadce1fa4fc03be07fda1a517aa11b674da04360001b62000ee2565b60006040518061010001604052808360ff1681526020018360ff166016600301546200dc3b919062011ac9565b6016600201546200dc4d9190620119f6565b81526020016001846200dc61919062011a53565b60ff166016600301546200dc76919062011ac9565b6016600201546200dc889190620119f6565b8152602001848460ff16815181106200dcca577f4e487b7100000000000000000000000000000000000000000000000000000000600052603260045260246000fd5b6020026020010151600001518152602001848460ff16815181106200dd18577f4e487b7100000000000000000000000000000000000000000000000000000000600052603260045260246000fd5b6020026020010151602001518152602001848460ff16815181106200dd66577f4e487b7100000000000000000000000000000000000000000000000000000000600052603260045260246000fd5b6020026020010151604001518152602001848460ff16815181106200ddb4577f4e487b7100000000000000000000000000000000000000000000000000000000600052603260045260246000fd5b60200260200101516060015181526020016000151581525090506200ddfc7f6859de45f14d3d05df89990c81e993f6eddc3ba6ad7c22fa553f3808136117c260001b62000ee2565b6200de2a7f4be77f88ad4718d4b966fc2b986cdbbcc36c0d81693c3ae0e2670d73505c9d9160001b62000ee2565b80601f60006001856200de3e919062011a53565b60ff1660ff16815260200190815260200160002060008201518160000160006101000a81548160ff021916908360ff1602179055506020820151816001015560408201518160020155606082015181600301556080820151816004015560a0820151816005015560c0820151816006015560e08201518160070160006101000a81548160ff0219169083151502179055509050506200df007f32fdc8c57e0b6aea4330595c1898e467b0b2153580a216b5d35c6e0eccf8eb8560001b62000ee2565b6200df2e7f59f2b0041cb6cbe667a8713d02042d19a4a4485eb344783af27f64d5c1fd7ce360001b62000ee2565b6001601e60008460ff1661ffff16815260200190815260200160002060006101000a81548160ff0219169083151502179055505080806200df6f9062011d3c565b9150506200db91565b5050565b60006200dfac7f47a89517a6a4aa323fe70b221f63bee68c8996ce275e73f3eb2acbfa4b8551ba60001b62000ee2565b6200dfda7f9a67f9409b205307c8f63c44a74db21ca286b267a1180171e483118a1d400efd60001b62000ee2565b6200e0087f9dea980846a33d042647d467b5fcc3ed4d8b57be8a79de1e579027b8346de14360001b62000ee2565b816040516020016200e01b919062010eaa565b604051602081830303815290604052805190602001209050919050565b60008060006200e04985856200f020565b915091506200e058816200f0ab565b819250505092915050565b6000808273ffffffffffffffffffffffffffffffffffffffff163b119050919050565b60006200e0b67fb32f98cc1a3968a1876b70fc98948f2979fabaa7ef3eb5f7ee23624ee348128e60001b6200acea565b6200e0e47f22cc1046fafedc71df49629f97634ef8bd769901e5249474a573504849cfd19260001b6200acea565b6200e1127faa24cf6cc836ddab4b14edc0c44e8c3f6172e952d3d55e0749a633a993065ddc60001b6200acea565b8373ffffffffffffffffffffffffffffffffffffffff1663150b7a026200e1386200ae33565b8786866040518563ffffffff1660e01b81526004016200e15c949392919062010f75565b602060405180830381600087803b1580156200e17757600080fd5b505af19250505080156200e1ab57506040513d601f19601f820116820180604052508101906200e1a8919062010220565b60015b6200e33d573d80600081146200e1de576040519150601f19603f3d011682016040523d82523d6000602084013e6200e1e3565b606091505b506200e2127f35c7226bb416a2941a45d927f9850904423c6110b7eee78de13060b80681c31c60001b6200acea565b6200e2407f8669c4211864f5f1b98f1a00c09511622730bd69e283a12d0225374c9d6bcf3260001b6200acea565b6000815114156200e2d9576200e2797f540bd8078d2f6d20034f58b8965083d9238700f03ecd228e85e3a1f5f9db383960001b6200acea565b6200e2a77fbff8ee328b428476e770390a96d0f7f57f76f09977203803993049be224e501b60001b6200acea565b6040517fd1a57ed600000000000000000000000000000000000000000000000000000000815260040160405180910390fd5b6200e3077fdb669f9edac0b2b61f706c9673674e400170b9c81a00aad47f5597d68f73cd2960001b6200acea565b6200e3357fb3ceb82bfa17e1b3a464d8eb712493f1e4686479eb3870807e3b2eed08c1c5b560001b6200acea565b805181602001fd5b6200e36b7f33f9e29d958cdb8df9fabae51325b79e39bfc3f446afcd5b3bca731b858d241760001b6200acea565b6200e3997f35f725043bda27471ff11122801304cede50dde453cba1bd154518a3ab50b87160001b6200acea565b63150b7a0260e01b7bffffffffffffffffffffffffffffffffffffffffffffffffffffffff1916817bffffffffffffffffffffffffffffffffffffffffffffffffffffffff191614915050949350505050565b60006200e41c7ffaa088692ffe0e1d15528ec50b8188de72937323035dc113a9f4f01e4106d47460001b6200acea565b6200e44a7f62ac3942e3940155d917171e3acd1205cde8348f2f66958bb7ce143e5a17ab5360001b6200acea565b6200e4787f77d3d17728e50f1d56d646ca1160b3c703198dde816cd5f1e10f055c6fb12e7e60001b6200acea565b600073ffffffffffffffffffffffffffffffffffffffff168273ffffffffffffffffffffffffffffffffffffffff1614156200e50e576200e4dc7f6cfbdcefe67592d843fbe7a2719f3666c76ca16f80cae0878c963eec93f214da60001b6200acea565b6040517fac3727ba00000000000000000000000000000000000000000000000000000000815260040160405180910390fd5b6200e53c7fea35942ca9605a34b5d128d73c3111d304d8ec5048cf97b153af1da9780927e560001b6200acea565b6200e56a7f0cc73a5b6b750fd534791ef753710fb3bc9f982655266bf4689a3b400f511f1360001b6200acea565b6200e5987f25882ed50228769f8350527e8f177b7dc19d8e20c086f30799c51c7f16d3483660001b6200acea565b600560008373ffffffffffffffffffffffffffffffffffffffff1673ffffffffffffffffffffffffffffffffffffffff16815260200190815260200160002060000160189054906101000a900460ff169050919050565b6200e61d7f470dcc49ba217b1acbac694f4d84c6a9cad1574e2a0dc610802cf4e54986940460001b6200acea565b6200e64b7f3753f41b5a4746dabd7b6df753269c38c6d963078106bc2b71b0b565cf5d5cff60001b6200acea565b6200e6797f84933da0132de070792a78bc919c25efce3dbfeecbfe8d953db568fd8988a76360001b6200acea565b600073ffffffffffffffffffffffffffffffffffffffff168273ffffffffffffffffffffffffffffffffffffffff1614156200e70f576200e6dd7f6f3e8fbdec8a82065599dff96e7ded50b491e62f62a5a35405e9d3c9be97bcd260001b6200acea565b6040517fac3727ba00000000000000000000000000000000000000000000000000000000815260040160405180910390fd5b6200e73d7f3146d425eb03887f50a6a123f5c71cd2e4294c85422861e8bfb64c38736c93ab60001b6200acea565b6200e76b7f35faf5f29a8fa56877ed043911e09ebb669770126160c84b4511d104d971951360001b6200acea565b6200e7997f757b3adcfbeff32155161139a5c5c85ae0513fa64f2e6e106e7d8560816956f060001b6200acea565b80600560008473ffffffffffffffffffffffffffffffffffffffff1673ffffffffffffffffffffffffffffffffffffffff16815260200190815260200160002060000160186101000a81548160ff021916908360ff1602179055505050565b6200e8267f4dba8a9cc0271b56a1fb8cb349a13055a4e7f7f1d35c37778e873ae82760042c60001b6200acea565b6200e8547fec458432cea393437ac06074fdc829be087bd461573f747aea85e9236d6fdf7960001b6200acea565b6200e8827f6ed96e575e814b827f89e0f24b220710e3d56a9648c90b5dd586495617293d0860001b6200acea565b60006200e88f826200c717565b90506200e8bf7f9ae5df8ebc1bc9ae255c35a968c417078c1b4918314ceffc1709952b518181f460001b6200acea565b6200e8ed7f99d2b4cb79d468a3f1a02ab63af262d7078b94c72bc4d9d76cda5516d28a193060001b6200acea565b8373ffffffffffffffffffffffffffffffffffffffff16816000015173ffffffffffffffffffffffffffffffffffffffff16146200e985576200e9537f251855c40a26801549442928b2f2dd3bb2d00a5e2898e80119cc2acda65dfcd060001b6200acea565b6040517fa114810000000000000000000000000000000000000000000000000000000000815260040160405180910390fd5b6200e9b37f9a0b9e0a9c27194a70af6e689709acf44456faba6b3c78c26731ac857a672a8660001b6200acea565b6200e9e17fca2cb7094154576f51ba8e5da77ffc4b900a0718cf3160f44453dbe08ad13eeb60001b6200acea565b6200ea0f7f5ae3e5a1f160e662fe104958a0a37fd559195dbe0e2e969d6402a3775db58b5e60001b6200acea565b6200ea2160008383600001516200ae3b565b6200ea4f7f1ea57fb3f8e1ad48d244879eccf65a36ec062151959add0298072bf72b592b7c60001b6200acea565b6001600560008673ffffffffffffffffffffffffffffffffffffffff1673ffffffffffffffffffffffffffffffffffffffff16815260200190815260200160002060000160008282829054906101000a900467ffffffffffffffff160392506101000a81548167ffffffffffffffff021916908367ffffffffffffffff1602179055506001600560008573ffffffffffffffffffffffffffffffffffffffff1673ffffffffffffffffffffffffffffffffffffffff16815260200190815260200160002060000160008282829054906101000a900467ffffffffffffffff160192506101000a81548167ffffffffffffffff021916908367ffffffffffffffff160217905550826004600084815260200190815260200160002060000160006101000a81548173ffffffffffffffffffffffffffffffffffffffff021916908373ffffffffffffffffffffffffffffffffffffffff160217905550426004600084815260200190815260200160002060000160146101000a81548167ffffffffffffffff021916908367ffffffffffffffff1602179055506000600183019050600073ffffffffffffffffffffffffffffffffffffffff166004600083815260200190815260200160002060000160009054906101000a900473ffffffffffffffffffffffffffffffffffffffff1673ffffffffffffffffffffffffffffffffffffffff1614156200ed02576000548110156200ed015781600001516004600083815260200190815260200160002060000160006101000a81548173ffffffffffffffffffffffffffffffffffffffff021916908373ffffffffffffffffffffffffffffffffffffffff16021790555081602001516004600083815260200190815260200160002060000160146101000a81548167ffffffffffffffff021916908367ffffffffffffffff1602179055505b5b506200ed317fc0de4112c040c7ec2d3ab05787f0ce0c3e3bac5bd89d10210947681528260c5260001b6200acea565b6200ed5f7f36e664fb68755ac906b7747edaeb4c62e4bc018eaa76062aeaaca995c92f12a660001b6200acea565b818373ffffffffffffffffffffffffffffffffffffffff168573ffffffffffffffffffffffffffffffffffffffff167fddf252ad1be2c89b69c2b068fc378daa952ba7f163c4a11628f55a4df523b3ef60405160405180910390a450505050565b606060008214156200ee0a576040518060400160405280600181526020017f300000000000000000000000000000000000000000000000000000000000000081525090506200ef7d565b600082905060005b600082146200ee425780806200ee289062011cee565b915050600a826200ee3a919062011a91565b91506200ee12565b60008167ffffffffffffffff8111156200ee85577f4e487b7100000000000000000000000000000000000000000000000000000000600052604160045260246000fd5b6040519080825280601f01601f1916602001820160405280156200eeb85781602001600182028036833780820191505090505b5090505b600085146200ef76576001826200eed4919062011b2a565b9150600a856200eee5919062011db1565b60306200eef39190620119f6565b60f81b8183815181106200ef30577f4e487b7100000000000000000000000000000000000000000000000000000000600052603260045260246000fd5b60200101907effffffffffffffffffffffffffffffffffffffffffffffffffffffffffffff1916908160001a905350600a856200ef6e919062011a91565b94506200eebc565b8093505050505b919050565b6200efb07ff1bb7209d99c648960e3caed2f256b7bc146a673c2bef1a16bfd9c47323b928a60001b6200acea565b6200efde7fd0faeb73e205c324f4afcdc5b7c16b444d7451f9b693d32036c42bb74c5854ec60001b6200acea565b6200f00c7f71c7a6511dcb0b174475d7cac812afaf4fd95c1166151db071229c40f49ea0c560001b6200acea565b6200f01b83838360016200f414565b505050565b6000806041835114156200f0665760008060006020860151925060408601519150606086015160001a90506200f059878285856200fa35565b945094505050506200f0a4565b6040835114156200f09b5760008060208501519150604085015190506200f08f8683836200fb4c565b9350935050506200f0a4565b60006002915091505b9250929050565b600060048111156200f0e6577f4e487b7100000000000000000000000000000000000000000000000000000000600052602160045260246000fd5b8160048111156200f120577f4e487b7100000000000000000000000000000000000000000000000000000000600052602160045260246000fd5b14156200f12d576200f411565b600160048111156200f168577f4e487b7100000000000000000000000000000000000000000000000000000000600052602160045260246000fd5b8160048111156200f1a2577f4e487b7100000000000000000000000000000000000000000000000000000000600052602160045260246000fd5b14156200f1e6576040517f08c379a00000000000000000000000000000000000000000000000000000000081526004016200f1dd9062011180565b60405180910390fd5b600260048111156200f221577f4e487b7100000000000000000000000000000000000000000000000000000000600052602160045260246000fd5b8160048111156200f25b577f4e487b7100000000000000000000000000000000000000000000000000000000600052602160045260246000fd5b14156200f29f576040517f08c379a00000000000000000000000000000000000000000000000000000000081526004016200f2969062011208565b60405180910390fd5b600360048111156200f2da577f4e487b7100000000000000000000000000000000000000000000000000000000600052602160045260246000fd5b8160048111156200f314577f4e487b7100000000000000000000000000000000000000000000000000000000600052602160045260246000fd5b14156200f358576040517f08c379a00000000000000000000000000000000000000000000000000000000081526004016200f34f906201137e565b60405180910390fd5b6004808111156200f392577f4e487b7100000000000000000000000000000000000000000000000000000000600052602160045260246000fd5b8160048111156200f3cc577f4e487b7100000000000000000000000000000000000000000000000000000000600052602160045260246000fd5b14156200f410576040517f08c379a00000000000000000000000000000000000000000000000000000000081526004016200f4079062011516565b60405180910390fd5b5b50565b6200f4427ffa493a95f0057a7e1da3b94dee5fa595303683d7de633e452e451969ef03944a60001b6200acea565b6200f4707fb0cb76bce309f522a687d29121fa62b1bbb46bd5667d3ae2981243b8b12e838f60001b6200acea565b6200f49e7f41a5a7a56b8ef0a9117c9dca32b94144f753865fc0d6ebf1ab5c3c1e4650534860001b6200acea565b6000805490506200f4d27fcfc8bce8f842be842baaba8f38eaf31fc6790c328f079d95b6e7dabec622b94160001b6200acea565b6200f5007f54c029f80fbcc46dd451ceeeff99886edee6d8a9b951c3d1cdf764f7b1ac72ce60001b6200acea565b600073ffffffffffffffffffffffffffffffffffffffff168573ffffffffffffffffffffffffffffffffffffffff1614156200f596576200f5647fc694a3a1b7c90ee5caa9a65453881b86b1614c8d52e8cd60ea518407fa6b260460001b6200acea565b6040517f2e07630000000000000000000000000000000000000000000000000000000000815260040160405180910390fd5b6200f5c47f2dd6719582856941787aa40de86e82a752e945f3d4dc97fb2fda262a9eadc53560001b6200acea565b6200f5f27fbe9fa477d26d1b665b1a9e941303bffa98c5f3f944efb8a7beef2d7427e65d0f60001b6200acea565b6200f6207f94f7dfedc25068c6fa526cc09722c10a58196e8be30950803b5b561363e3b8cb60001b6200acea565b60008414156200f68a576200f6587f30ce8d7605e6efca073196b64fc9994fbc3eddba9f9b60e95f3d7d78278488b860001b6200acea565b6040517fb562e8dd00000000000000000000000000000000000000000000000000000000815260040160405180910390fd5b6200f6b87f14eb6bbfcf4b77a95d2e49389fe8c7b05c4a28e54ca98dc6062a2f18b8f3358860001b6200acea565b6200f6e67f7b0a77db186ec41db5fcb226f2e8c4571521c43068b3c3a6762b14afd1bf0b1160001b6200acea565b83600560008773ffffffffffffffffffffffffffffffffffffffff1673ffffffffffffffffffffffffffffffffffffffff16815260200190815260200160002060000160008282829054906101000a900467ffffffffffffffff160192506101000a81548167ffffffffffffffff021916908367ffffffffffffffff16021790555083600560008773ffffffffffffffffffffffffffffffffffffffff1673ffffffffffffffffffffffffffffffffffffffff16815260200190815260200160002060000160088282829054906101000a900467ffffffffffffffff160192506101000a81548167ffffffffffffffff021916908367ffffffffffffffff160217905550846004600083815260200190815260200160002060000160006101000a81548173ffffffffffffffffffffffffffffffffffffffff021916908373ffffffffffffffffffffffffffffffffffffffff160217905550426004600083815260200190815260200160002060000160146101000a81548167ffffffffffffffff021916908367ffffffffffffffff1602179055506000819050600085820190508380156200f8b357506200f8b28773ffffffffffffffffffffffffffffffffffffffff166200e063565b5b156200f9b8575b818773ffffffffffffffffffffffffffffffffffffffff16600073ffffffffffffffffffffffffffffffffffffffff167fddf252ad1be2c89b69c2b068fc378daa952ba7f163c4a11628f55a4df523b3ef60405160405180910390a46200f92b60008884806001019550886200e086565b6200f962576040517fd1a57ed600000000000000000000000000000000000000000000000000000000815260040160405180910390fd5b808214156200f8ba5782600054146200f9b2576040517f08c379a00000000000000000000000000000000000000000000000000000000081526004016200f9a99062011406565b60405180910390fd5b6200fa25565b5b818060010192508773ffffffffffffffffffffffffffffffffffffffff16600073ffffffffffffffffffffffffffffffffffffffff167fddf252ad1be2c89b69c2b068fc378daa952ba7f163c4a11628f55a4df523b3ef60405160405180910390a4808214156200f9b9575b8160008190555050505050505050565b6000807f7fffffffffffffffffffffffffffffff5d576e7357a4501ddfe92f46681b20a08360001c11156200fa725760006003915091506200fb43565b601b8560ff16141580156200fa8b5750601c8560ff1614155b156200fa9f5760006004915091506200fb43565b6000600187878787604051600081526020016040526040516200fac69493929190620110bd565b6020604051602081039080840390855afa1580156200fae9573d6000803e3d6000fd5b505050602060405103519050600073ffffffffffffffffffffffffffffffffffffffff168173ffffffffffffffffffffffffffffffffffffffff1614156200fb3a576000600192509250506200fb43565b80600092509250505b94509492505050565b60008060007f7fffffffffffffffffffffffffffffffffffffffffffffffffffffffffffffff60001b841690506000601b60ff8660001c901c6200fb919190620119f6565b90506200fba1878288856200fa35565b935093505050935093915050565b8280546200fbbd9062011c82565b90600052602060002090601f0160209004810192826200fbe157600085556200fc2d565b82601f106200fbfc57805160ff19168380011785556200fc2d565b828001600101855582156200fc2d579182015b828111156200fc2c5782518255916020019190600101906200fc0f565b5b5090506200fc3c91906200fc83565b5090565b6040518060600160405280600073ffffffffffffffffffffffffffffffffffffffff168152602001600067ffffffffffffffff1681526020016000151581525090565b5b808211156200fc9e5760008160009055506001016200fc84565b5090565b60006200fcb96200fcb38462011927565b620118fe565b9050828152602081018484840111156200fcd257600080fd5b6200fcdf84828562011c3d565b509392505050565b60006200fcfe6200fcf8846201195d565b620118fe565b9050828152602081018484840111156200fd1757600080fd5b6200fd2484828562011c3d565b509392505050565b6000813590506200fd3d81620127d3565b92915050565b60008083601f8401126200fd5657600080fd5b8235905067ffffffffffffffff8111156200fd7057600080fd5b6020830191508360808202830111156200fd8957600080fd5b9250929050565b6000813590506200fda181620127ed565b92915050565b6000813590506200fdb88162012807565b92915050565b6000815190506200fdcf8162012807565b92915050565b60008083601f8401126200fde857600080fd5b8235905067ffffffffffffffff8111156200fe0257600080fd5b6020830191508360018202830111156200fe1b57600080fd5b9250929050565b600082601f8301126200fe3457600080fd5b81356200fe468482602086016200fca2565b91505092915050565b6000813590506200fe608162012821565b92915050565b600082601f8301126200fe7857600080fd5b81356200fe8a8482602086016200fce7565b91505092915050565b6000608082840312156200fea657600080fd5b6200feb26080620118fe565b905060006200fec4848285016200ff29565b60008301525060206200feda848285016200ff29565b60208301525060406200fef0848285016200ff29565b60408301525060606200ff06848285016200ff29565b60608301525092915050565b6000813590506200ff238162012832565b92915050565b6000813590506200ff3a816201284c565b92915050565b6000813590506200ff518162012866565b92915050565b6000602082840312156200ff6a57600080fd5b60006200ff7a848285016200fd2c565b91505092915050565b600080604083850312156200ff9757600080fd5b60006200ffa7858286016200fd2c565b92505060206200ffba858286016200fd2c565b9150509250929050565b6000806000606084860312156200ffda57600080fd5b60006200ffea868287016200fd2c565b93505060206200fffd868287016200fd2c565b925050604062010010868287016200ff29565b9150509250925092565b600080600080608085870312156201003157600080fd5b600062010041878288016200fd2c565b945050602062010054878288016200fd2c565b935050604062010067878288016200ff29565b925050606085013567ffffffffffffffff8111156201008557600080fd5b62010093878288016200fe22565b91505092959194509250565b60008060408385031215620100b357600080fd5b6000620100c3858286016200fd2c565b9250506020620100d6858286016200fd90565b9150509250929050565b60008060408385031215620100f457600080fd5b600062010104858286016200fd2c565b925050602062010117858286016200ff29565b9150509250929050565b6000806000806000608086880312156201013a57600080fd5b60006201014a888289016200fd2c565b95505060206201015d888289016200ff40565b945050604062010170888289016200fe4f565b935050606086013567ffffffffffffffff8111156201018e57600080fd5b6201019c888289016200fdd5565b92509250509295509295909350565b60008060208385031215620101bf57600080fd5b600083013567ffffffffffffffff811115620101da57600080fd5b620101e8858286016200fd43565b92509250509250929050565b6000602082840312156201020757600080fd5b600062010217848285016200fda7565b91505092915050565b6000602082840312156201023357600080fd5b600062010243848285016200fdbe565b91505092915050565b6000602082840312156201025f57600080fd5b600082013567ffffffffffffffff8111156201027a57600080fd5b62010288848285016200fe66565b91505092915050565b600080600060608486031215620102a757600080fd5b600084013567ffffffffffffffff811115620102c257600080fd5b620102d0868287016200fe66565b9350506020620102e3868287016200ff12565b9250506040620102f6868287016200fd90565b9150509250925092565b6000608082840312156201031357600080fd5b600062010323848285016200fe93565b91505092915050565b6000602082840312156201033f57600080fd5b60006201034f848285016200ff12565b91505092915050565b6000602082840312156201036b57600080fd5b60006201037b848285016200ff29565b91505092915050565b600080604083850312156201039857600080fd5b6000620103a8858286016200ff29565b9250506020620103bb858286016200ff29565b9150509250929050565b600060208284031215620103d857600080fd5b6000620103e8848285016200ff40565b91505092915050565b6000806000806000608086880312156201040a57600080fd5b60006201041a888289016200ff40565b95505060206201042d888289016200ff40565b945050604062010440888289016200fe4f565b935050606086013567ffffffffffffffff8111156201045e57600080fd5b6201046c888289016200fdd5565b92509250509295509295909350565b620104868162011b65565b82525050565b620104a16201049b8262011b65565b62011d6b565b82525050565b620104b28162011b79565b82525050565b620104c38162011b85565b82525050565b620104de620104d88262011b85565b62011d7f565b82525050565b6000620104f182620119a8565b620104fd8185620119be565b93506201050f81856020860162011c4c565b6201051a8162011ed4565b840191505092915050565b6201053a620105348262011c29565b62011d9d565b82525050565b60006201054d82620119b3565b620105598185620119da565b93506201056b81856020860162011c4c565b620105768162011ed4565b840191505092915050565b60006201058e82620119b3565b6201059a8185620119eb565b9350620105ac81856020860162011c4c565b80840191505092915050565b60008154620105c78162011c82565b620105d38186620119eb565b94506001821660008114620105f1576001811462010603576201063a565b60ff198316865281860193506201063a565b6201060e8562011993565b60005b83811015620106325781548189015260018201915060208101905062010611565b838801955050505b50505092915050565b600062010652601883620119da565b91506201065f8262011eff565b602082019050919050565b600062010679602283620119da565b9150620106868262011f28565b604082019050919050565b6000620106a0601c83620119da565b9150620106ad8262011f77565b602082019050919050565b6000620106c7601083620119da565b9150620106d48262011fa0565b602082019050919050565b6000620106ee601f83620119da565b9150620106fb8262011fc9565b602082019050919050565b600062010715601c83620119eb565b9150620107228262011ff2565b601c82019050919050565b60006201073c600b83620119da565b915062010749826201201b565b602082019050919050565b600062010763601183620119da565b9150620107708262012044565b602082019050919050565b60006201078a602683620119da565b915062010797826201206d565b604082019050919050565b6000620107b1601383620119da565b9150620107be82620120bc565b602082019050919050565b6000620107d8601783620119da565b9150620107e582620120e5565b602082019050919050565b6000620107ff601183620119da565b91506201080c826201210e565b602082019050919050565b600062010826601583620119da565b9150620108338262012137565b602082019050919050565b60006201084d601083620119da565b91506201085a8262012160565b602082019050919050565b600062010874602383620119da565b9150620108818262012189565b604082019050919050565b60006201089b601383620119da565b9150620108a882620121d8565b602082019050919050565b6000620108c2602283620119da565b9150620108cf8262012201565b604082019050919050565b6000620108e9601383620119da565b9150620108f68262012250565b602082019050919050565b600062010910601083620119da565b91506201091d8262012279565b602082019050919050565b600062010937600d83620119da565b91506201094482620122a2565b602082019050919050565b60006201095e601583620119da565b91506201096b82620122cb565b602082019050919050565b600062010985600d83620119da565b91506201099282620122f4565b602082019050919050565b6000620109ac600e83620119da565b9150620109b9826201231d565b602082019050919050565b6000620109d3601883620119da565b9150620109e08262012346565b602082019050919050565b6000620109fa601083620119da565b915062010a07826201236f565b602082019050919050565b600062010a21601383620119da565b915062010a2e8262012398565b602082019050919050565b600062010a48601283620119da565b915062010a5582620123c1565b602082019050919050565b600062010a6f601583620119da565b915062010a7c82620123ea565b602082019050919050565b600062010a96602283620119da565b915062010aa38262012413565b604082019050919050565b600062010abd601483620119da565b915062010aca8262012462565b602082019050919050565b600062010ae4601f83620119da565b915062010af1826201248b565b602082019050919050565b600062010b0b602083620119da565b915062010b1882620124b4565b602082019050919050565b600062010b32600c83620119da565b915062010b3f82620124dd565b602082019050919050565b600062010b59601583620119da565b915062010b668262012506565b602082019050919050565b600062010b80600c83620119da565b915062010b8d826201252f565b602082019050919050565b600062010ba7600f83620119da565b915062010bb48262012558565b602082019050919050565b600062010bce600f83620119da565b915062010bdb8262012581565b602082019050919050565b600062010bf5600c83620119da565b915062010c0282620125aa565b602082019050919050565b600062010c1c600f83620119da565b915062010c2982620125d3565b602082019050919050565b600062010c43600083620119cf565b915062010c5082620125fc565b600082019050919050565b600062010c6a601283620119da565b915062010c7782620125ff565b602082019050919050565b600062010c91600b83620119da565b915062010c9e8262012628565b602082019050919050565b600062010cb8600c83620119da565b915062010cc58262012651565b602082019050919050565b600062010cdf602e83620119da565b915062010cec826201267a565b604082019050919050565b600062010d06602683620119da565b915062010d1382620126c9565b604082019050919050565b600062010d2d601f83620119da565b915062010d3a8262012718565b602082019050919050565b600062010d54600783620119da565b915062010d618262012741565b602082019050919050565b600062010d7b600183620119eb565b915062010d88826201276a565b600182019050919050565b600062010da2600c83620119da565b915062010daf8262012793565b602082019050919050565b62010dc58162011bd0565b82525050565b62010dd68162011bfe565b82525050565b62010de78162011c08565b82525050565b62010df88162011c1c565b82525050565b62010e1362010e0d8262011c1c565b62011d9d565b82525050565b600062010e2782866201048c565b60148201915062010e39828562010dfe565b60018201915062010e4b828462010525565b600182019150819050949350505050565b600062010e6a8284620105b8565b915081905092915050565b600062010e838285620105b8565b915062010e908262010d6c565b915062010e9e828462010581565b91508190509392505050565b600062010eb78262010706565b915062010ec58284620104c9565b60208201915081905092915050565b600062010ee18262010c34565b9150819050919050565b600060208201905062010f0260008301846201047b565b92915050565b600060c08201905062010f1f60008301896201047b565b62010f2e60208301886201047b565b62010f3d60408301876201047b565b62010f4c60608301866201047b565b62010f5b60808301856201047b565b62010f6a60a08301846201047b565b979650505050505050565b600060808201905062010f8c60008301876201047b565b62010f9b60208301866201047b565b62010faa604083018562010dcb565b818103606083015262010fbe8184620104e4565b905095945050505050565b600060408201905062010fe060008301856201047b565b62010fef602083018462010dcb565b9392505050565b60006060820190506201100d60008301866201047b565b6201101c602083018562010ddc565b6201102b6040830184620104a7565b949350505050565b60006020820190506201104a6000830184620104a7565b92915050565b600060c082019050620110676000830189620104a7565b620110766020830188620104a7565b620110856040830187620104a7565b620110946060830186620104a7565b620110a36080830185620104a7565b620110b260a0830184620104a7565b979650505050505050565b6000608082019050620110d46000830187620104b8565b620110e3602083018662010ded565b620110f26040830185620104b8565b620111016060830184620104b8565b95945050505050565b6000602082019050818103600083015262011126818462010540565b905092915050565b600060608201905081810360008301526201114a818662010540565b9050818103602083015262011160818562010540565b9050818103604083015262011176818462010540565b9050949350505050565b600060208201905081810360008301526201119b8162010643565b9050919050565b60006020820190508181036000830152620111bd816201066a565b9050919050565b60006020820190508181036000830152620111df8162010691565b9050919050565b600060208201905081810360008301526201120181620106b8565b9050919050565b600060208201905081810360008301526201122381620106df565b9050919050565b6000602082019050818103600083015262011245816201072d565b9050919050565b60006020820190508181036000830152620112678162010754565b9050919050565b6000602082019050818103600083015262011289816201077b565b9050919050565b60006020820190508181036000830152620112ab81620107a2565b9050919050565b60006020820190508181036000830152620112cd81620107c9565b9050919050565b60006020820190508181036000830152620112ef81620107f0565b9050919050565b60006020820190508181036000830152620113118162010817565b9050919050565b6000602082019050818103600083015262011333816201083e565b9050919050565b60006020820190508181036000830152620113558162010865565b9050919050565b6000602082019050818103600083015262011377816201088c565b9050919050565b600060208201905081810360008301526201139981620108b3565b9050919050565b60006020820190508181036000830152620113bb81620108da565b9050919050565b60006020820190508181036000830152620113dd8162010901565b9050919050565b60006020820190508181036000830152620113ff8162010928565b9050919050565b6000602082019050818103600083015262011421816201094f565b9050919050565b60006020820190508181036000830152620114438162010976565b9050919050565b6000602082019050818103600083015262011465816201099d565b9050919050565b600060208201905081810360008301526201148781620109c4565b9050919050565b60006020820190508181036000830152620114a981620109eb565b9050919050565b60006020820190508181036000830152620114cb8162010a12565b9050919050565b60006020820190508181036000830152620114ed8162010a39565b9050919050565b600060208201905081810360008301526201150f8162010a60565b9050919050565b60006020820190508181036000830152620115318162010a87565b9050919050565b60006020820190508181036000830152620115538162010aae565b9050919050565b60006020820190508181036000830152620115758162010ad5565b9050919050565b60006020820190508181036000830152620115978162010afc565b9050919050565b60006020820190508181036000830152620115b98162010b23565b9050919050565b60006020820190508181036000830152620115db8162010b4a565b9050919050565b60006020820190508181036000830152620115fd8162010b71565b9050919050565b600060208201905081810360008301526201161f8162010b98565b9050919050565b60006020820190508181036000830152620116418162010bbf565b9050919050565b60006020820190508181036000830152620116638162010be6565b9050919050565b60006020820190508181036000830152620116858162010c0d565b9050919050565b60006020820190508181036000830152620116a78162010c5b565b9050919050565b60006020820190508181036000830152620116c98162010c82565b9050919050565b60006020820190508181036000830152620116eb8162010ca9565b9050919050565b600060208201905081810360008301526201170d8162010cd0565b9050919050565b600060208201905081810360008301526201172f8162010cf7565b9050919050565b60006020820190508181036000830152620117518162010d1e565b9050919050565b60006020820190508181036000830152620117738162010d45565b9050919050565b60006020820190508181036000830152620117958162010d93565b9050919050565b6000602082019050620117b3600083018462010dba565b92915050565b6000604082019050620117d0600083018562010dba565b620117df602083018462010dcb565b9392505050565b6000602082019050620117fd600083018462010dcb565b92915050565b600060c0820190506201181a600083018962010dcb565b62011829602083018862010dba565b62011838604083018762010dcb565b62011847606083018662010dcb565b62011856608083018562010ded565b6201186560a083018462010ded565b979650505050505050565b60006101008201905062011888600083018b62010ded565b62011897602083018a62010dcb565b620118a6604083018962010dcb565b620118b5606083018862010dcb565b620118c4608083018762010dcb565b620118d360a083018662010dcb565b620118e260c083018562010dcb565b620118f160e0830184620104a7565b9998505050505050505050565b60006201190a6201191d565b905062011918828262011cb8565b919050565b6000604051905090565b600067ffffffffffffffff82111562011945576201194462011ea5565b5b620119508262011ed4565b9050602081019050919050565b600067ffffffffffffffff8211156201197b576201197a62011ea5565b5b620119868262011ed4565b9050602081019050919050565b60008190508160005260206000209050919050565b600081519050919050565b600081519050919050565b600082825260208201905092915050565b600081905092915050565b600082825260208201905092915050565b600081905092915050565b600062011a038262011bfe565b915062011a108362011bfe565b9250827fffffffffffffffffffffffffffffffffffffffffffffffffffffffffffffffff0382111562011a485762011a4762011de9565b5b828201905092915050565b600062011a608262011c1c565b915062011a6d8362011c1c565b92508260ff0382111562011a865762011a8562011de9565b5b828201905092915050565b600062011a9e8262011bfe565b915062011aab8362011bfe565b92508262011abe5762011abd62011e18565b5b828204905092915050565b600062011ad68262011bfe565b915062011ae38362011bfe565b9250817fffffffffffffffffffffffffffffffffffffffffffffffffffffffffffffffff048311821515161562011b1f5762011b1e62011de9565b5b828202905092915050565b600062011b378262011bfe565b915062011b448362011bfe565b92508282101562011b5a5762011b5962011de9565b5b828203905092915050565b600062011b728262011bde565b9050919050565b60008115159050919050565b6000819050919050565b60007fffffffff0000000000000000000000000000000000000000000000000000000082169050919050565b600081905062011bcb82620127bc565b919050565b600061ffff82169050919050565b600073ffffffffffffffffffffffffffffffffffffffff82169050919050565b6000819050919050565b600067ffffffffffffffff82169050919050565b600060ff82169050919050565b600062011c368262011bbb565b9050919050565b82818337600083830152505050565b60005b8381101562011c6c57808201518184015260208101905062011c4f565b8381111562011c7c576000848401525b50505050565b6000600282049050600182168062011c9b57607f821691505b6020821081141562011cb25762011cb162011e76565b5b50919050565b62011cc38262011ed4565b810181811067ffffffffffffffff8211171562011ce55762011ce462011ea5565b5b80604052505050565b600062011cfb8262011bfe565b91507fffffffffffffffffffffffffffffffffffffffffffffffffffffffffffffffff82141562011d315762011d3062011de9565b5b600182019050919050565b600062011d498262011c1c565b915060ff82141562011d605762011d5f62011de9565b5b600182019050919050565b600062011d788262011d89565b9050919050565b6000819050919050565b600062011d968262011ef2565b9050919050565b600062011daa8262011ee5565b9050919050565b600062011dbe8262011bfe565b915062011dcb8362011bfe565b92508262011dde5762011ddd62011e18565b5b828206905092915050565b7f4e487b7100000000000000000000000000000000000000000000000000000000600052601160045260246000fd5b7f4e487b7100000000000000000000000000000000000000000000000000000000600052601260045260246000fd5b7f4e487b7100000000000000000000000000000000000000000000000000000000600052602160045260246000fd5b7f4e487b7100000000000000000000000000000000000000000000000000000000600052602260045260246000fd5b7f4e487b7100000000000000000000000000000000000000000000000000000000600052604160045260246000fd5b6000601f19601f8301169050919050565b60008160f81b9050919050565b60008160601b9050919050565b7f45434453413a20696e76616c6964207369676e61747572650000000000000000600082015250565b7f455243373231413a206f776e657220696e646578206f7574206f6620626f756e60008201527f6473000000000000000000000000000000000000000000000000000000000000602082015250565b7f55706772616465205265717565737420466565204e6f74205061696400000000600082015250565b7f4e6f7420456e6f75676820457468657200000000000000000000000000000000600082015250565b7f45434453413a20696e76616c6964207369676e6174757265206c656e67746800600082015250565b7f19457468657265756d205369676e6564204d6573736167653a0a333200000000600082015250565b7f4f6e6c792048756d616e73000000000000000000000000000000000000000000600082015250565b7f416c726561647920416374697661746564000000000000000000000000000000600082015250565b7f4f776e61626c653a206e6577206f776e657220697320746865207a65726f206160008201527f6464726573730000000000000000000000000000000000000000000000000000602082015250565b7f446179204973204f7574204f662052616e676500000000000000000000000000600082015250565b7f5265636569766520546f204d6178205175616e74697479000000000000000000600082015250565b7f4e6f7420456e6f75676873204574686572000000000000000000000000000000600082015250565b7f5265636569766520546f20426173652050726963650000000000000000000000600082015250565b7f416c72656164792046696e697368656400000000000000000000000000000000600082015250565b7f455243373231413a20676c6f62616c20696e646578206f7574206f6620626f7560008201527f6e64730000000000000000000000000000000000000000000000000000000000602082015250565b7f416c726561647920496e697469616c697a656400000000000000000000000000600082015250565b7f45434453413a20696e76616c6964207369676e6174757265202773272076616c60008201527f7565000000000000000000000000000000000000000000000000000000000000602082015250565b7f646179206973206f7574206f662072616e676500000000000000000000000000600082015250565b7f546f6b656e204e6f742045786973747300000000000000000000000000000000600082015250565b7f426164205369676e617475726500000000000000000000000000000000000000600082015250565b7f5265656e7472616e63792070726f74656374696f6e0000000000000000000000600082015250565b7f4e6f742041637469766174656400000000000000000000000000000000000000600082015250565b7f5072696f72697479204973737565000000000000000000000000000000000000600082015250565b7f7175616e74697479206d757374206265206e6f6e7a65726f0000000000000000600082015250565b7f416c72656164792052657665616c656400000000000000000000000000000000600082015250565b7f43616c6c2056616c69642046756e6374696f6e00000000000000000000000000600082015250565b7f42616420496e697469616c697a6174696f6e0000000000000000000000000000600082015250565b7f5265636569766520546f204d617820537570706c790000000000000000000000600082015250565b7f45434453413a20696e76616c6964207369676e6174757265202776272076616c60008201527f7565000000000000000000000000000000000000000000000000000000000000602082015250565b7f4f6e6c7920444543454e5452414c5f544954414e000000000000000000000000600082015250565b7f5265636569766520546f204d6178204d696e7420506572204164647265737300600082015250565b7f4f776e61626c653a2063616c6c6572206973206e6f7420746865206f776e6572600082015250565b7f416c726561647920536f6c640000000000000000000000000000000000000000600082015250565b7f4f6e6c7920506c6174666f726d20416464726573730000000000000000000000600082015250565b7f43494420697320656d7074790000000000000000000000000000000000000000600082015250565b7f4e6f7420496e697469616c697a65640000000000000000000000000000000000600082015250565b7f4e6f742053746172746564205965740000000000000000000000000000000000600082015250565b7f4973204e6f74204f776e65720000000000000000000000000000000000000000600082015250565b7f5472616e73666572204661696c65640000000000000000000000000000000000600082015250565b50565b7f42616420436f6e66696773204c656e6774680000000000000000000000000000600082015250565b7f4e6f7420416c6c6f776564000000000000000000000000000000000000000000600082015250565b7f4e6f742046696e69736865640000000000000000000000000000000000000000600082015250565b7f455243373231413a20756e61626c6520746f2067657420746f6b656e206f662060008201527f6f776e657220627920696e646578000000000000000000000000000000000000602082015250565b7f6e6f7420656e6f756768206d696e7465642079657420666f722074686973206360008201527f6c65616e75700000000000000000000000000000000000000000000000000000602082015250565b7f5265656e7472616e637947756172643a207265656e7472616e742063616c6c00600082015250565b7f4578706972656400000000000000000000000000000000000000000000000000600082015250565b7f2f00000000000000000000000000000000000000000000000000000000000000600082015250565b7f43494420497320456d7074790000000000000000000000000000000000000000600082015250565b60028110620127d057620127cf62011e47565b5b50565b620127de8162011b65565b8114620127ea57600080fd5b50565b620127f88162011b79565b81146201280457600080fd5b50565b620128128162011b8f565b81146201281e57600080fd5b50565b600281106201282f57600080fd5b50565b6201283d8162011bd0565b81146201284957600080fd5b50565b620128578162011bfe565b81146201286357600080fd5b50565b620128718162011c1c565b81146201287d57600080fd5b5056fea264697066735822122041659a73dc3b3762ee09df360d0c9406fc6a5c2d046022bcf39eb38406a365f364736f6c63430008040033",
  "linkReferences": {},
  "deployedLinkReferences": {}
}